{
  "contractName": "Approval",
  "abi": [
    {
      "constant": true,
      "inputs": [
        {
          "name": "",
          "type": "uint256"
        }
      ],
      "name": "hasApproval",
      "outputs": [
        {
          "name": "",
          "type": "bool"
        }
      ],
      "payable": false,
      "stateMutability": "view",
      "type": "function",
      "signature": "0x01278eae"
    },
    {
      "constant": true,
      "inputs": [
        {
          "name": "",
          "type": "address"
        }
      ],
      "name": "identityApproved",
      "outputs": [
        {
          "name": "",
          "type": "bool"
        }
      ],
      "payable": false,
      "stateMutability": "view",
      "type": "function",
      "signature": "0x22471e16"
    },
    {
      "constant": true,
      "inputs": [],
      "name": "owner",
      "outputs": [
        {
          "name": "",
          "type": "address"
        }
      ],
      "payable": false,
      "stateMutability": "view",
      "type": "function",
      "signature": "0x8da5cb5b"
    },
    {
      "constant": true,
      "inputs": [
        {
          "name": "",
          "type": "bytes20"
        }
      ],
      "name": "nodeApproved",
      "outputs": [
        {
          "name": "",
          "type": "bool"
        }
      ],
      "payable": false,
      "stateMutability": "view",
      "type": "function",
      "signature": "0xbf190db9"
    },
    {
      "constant": false,
      "inputs": [
        {
          "name": "newOwner",
          "type": "address"
        }
      ],
      "name": "transferOwnership",
      "outputs": [],
      "payable": false,
      "stateMutability": "nonpayable",
      "type": "function",
      "signature": "0xf2fde38b"
    },
    {
      "constant": true,
      "inputs": [
        {
          "name": "",
          "type": "uint256"
        }
      ],
      "name": "allNodes",
      "outputs": [
        {
          "name": "",
          "type": "bytes20"
        }
      ],
      "payable": false,
      "stateMutability": "view",
      "type": "function",
      "signature": "0xfe72ae13"
    },
    {
      "anonymous": false,
      "inputs": [
        {
          "indexed": false,
          "name": "nodeId",
          "type": "bytes20"
        }
      ],
      "name": "NodeApproved",
      "type": "event",
      "signature": "0xf7521880b0f9408d030feb29ac3c9e02abad64c074936ee468aac417cc731b18"
    },
    {
      "anonymous": false,
      "inputs": [
        {
          "indexed": false,
          "name": "nodeId",
          "type": "bytes20"
        }
      ],
      "name": "NodeRemoved",
      "type": "event",
      "signature": "0x2f73372f3632d6b888bdc5473ddc2111f50e72b65b75aaffb6061ae61d01485a"
    },
    {
      "anonymous": false,
      "inputs": [
        {
          "indexed": true,
          "name": "previousOwner",
          "type": "address"
        },
        {
          "indexed": true,
          "name": "newOwner",
          "type": "address"
        }
      ],
      "name": "OwnershipTransferred",
      "type": "event",
      "signature": "0x8be0079c531659141344cd1fd0a4f28419497f9722a3daafe3b4186f6b6457e0"
    },
    {
      "constant": true,
      "inputs": [
        {
          "name": "identity",
          "type": "address"
        }
      ],
      "name": "identityHasApproval",
      "outputs": [
        {
          "name": "",
          "type": "bool"
        }
      ],
      "payable": false,
      "stateMutability": "view",
      "type": "function",
      "signature": "0x97fa8406"
    },
    {
      "constant": true,
      "inputs": [
        {
          "name": "nodeId",
          "type": "bytes20"
        }
      ],
      "name": "nodeHasApproval",
      "outputs": [
        {
          "name": "",
          "type": "bool"
        }
      ],
      "payable": false,
      "stateMutability": "view",
      "type": "function",
      "signature": "0x0e38ed3c"
    },
    {
      "constant": true,
      "inputs": [],
      "name": "getAllNodes",
      "outputs": [
        {
          "name": "",
          "type": "bytes20[]"
        }
      ],
      "payable": false,
      "stateMutability": "view",
      "type": "function",
      "signature": "0xa1174e7d"
    },
    {
      "constant": true,
      "inputs": [],
      "name": "getNodeStatuses",
      "outputs": [
        {
          "name": "",
          "type": "bool[]"
        }
      ],
      "payable": false,
      "stateMutability": "view",
      "type": "function",
      "signature": "0x89a367f9"
    },
    {
      "constant": false,
      "inputs": [
        {
          "name": "identity",
          "type": "address"
        },
        {
          "name": "nodeId",
          "type": "bytes20"
        },
        {
          "name": "nodeIndex",
          "type": "uint256"
        }
      ],
      "name": "approve",
      "outputs": [],
      "payable": false,
      "stateMutability": "nonpayable",
      "type": "function",
      "signature": "0x70a59445"
    },
    {
      "constant": false,
      "inputs": [
        {
          "name": "identity",
          "type": "address"
        },
        {
          "name": "nodeId",
          "type": "bytes20"
        },
        {
          "name": "nodeIndex",
          "type": "uint256"
        }
      ],
      "name": "removeApproval",
      "outputs": [],
      "payable": false,
      "stateMutability": "nonpayable",
      "type": "function",
      "signature": "0x6850e7fb"
    },
    {
      "constant": false,
      "inputs": [
        {
          "name": "identity",
          "type": "address"
        },
        {
          "name": "newApproval",
          "type": "bool"
        }
      ],
      "name": "setIdentityApproval",
      "outputs": [],
      "payable": false,
      "stateMutability": "nonpayable",
      "type": "function",
      "signature": "0xfeb5b2e9"
    }
  ],
  "bytecode": "0x608060405260008054600160a060020a03191633179055610bb3806100256000396000f3006080604052600436106100c45763ffffffff7c010000000000000000000000000000000000000000000000000000000060003504166301278eae81146100c95780630e38ed3c146100f557806322471e161461011c5780636850e7fb1461013d57806370a594451461017557806389a367f9146101ab5780638da5cb5b1461021057806397fa840614610241578063a1174e7d14610262578063bf190db914610277578063f2fde38b1461029e578063fe72ae13146102bf578063feb5b2e9146102f9575b600080fd5b3480156100d557600080fd5b506100e160043561031f565b604080519115158252519081900360200190f35b34801561010157600080fd5b506100e16bffffffffffffffffffffffff1960043516610351565b34801561012857600080fd5b506100e1600160a060020a0360043516610379565b34801561014957600080fd5b50610173600160a060020a03600435166bffffffffffffffffffffffff196024351660443561038e565b005b34801561018157600080fd5b50610173600160a060020a03600435166bffffffffffffffffffffffff19602435166044356105a9565b3480156101b757600080fd5b506101c061082a565b60408051602080825283518183015283519192839290830191858101910280838360005b838110156101fc5781810151838201526020016101e4565b505050509050019250505060405180910390f35b34801561021c57600080fd5b506102256108a2565b60408051600160a060020a039092168252519081900360200190f35b34801561024d57600080fd5b506100e1600160a060020a03600435166108b1565b34801561026e57600080fd5b506101c06108e4565b34801561028357600080fd5b506100e16bffffffffffffffffffffffff196004351661095a565b3480156102aa57600080fd5b50610173600160a060020a036004351661096f565b3480156102cb57600080fd5b506102d7600435610a50565b604080516bffffffffffffffffffffffff199092168252519081900360200190f35b34801561030557600080fd5b50610173600160a060020a03600435166024351515610a7e565b600280548290811061032d57fe5b9060005260206000209060209182820401919006915054906101000a900460ff1681565b6bffffffffffffffffffffffff19811660009081526003602052604090205460ff165b919050565b60046020526000908152604090205460ff1681565b600054600160a060020a031633146103f2576040805160e560020a62461bcd02815260206004820152602a6024820152600080516020610b688339815191526044820152600080516020610b48833981519152606482015290519081900360840190fd5b600160a060020a038316158015906104225750600160a060020a03831660009081526004602052604090205460ff165b1561044857600160a060020a0383166000908152600460205260409020805460ff191690555b6bffffffffffffffffffffffff1982161580159061048457506bffffffffffffffffffffffff19821660009081526003602052604090205460ff165b156105a457816bffffffffffffffffffffffff19166001828154811015156104a857fe5b6000918252602090912001546c01000000000000000000000000026bffffffffffffffffffffffff1916148015610509575060028054829081106104e857fe5b90600052602060002090602091828204019190069054906101000a900460ff165b156105a457600060028281548110151561051f57fe5b6000918252602080832081830401805460ff601f9094166101000a9384021916941515929092029390931790556bffffffffffffffffffffffff19841680825260038352604091829020805460ff19169055815190815290517f2f73372f3632d6b888bdc5473ddc2111f50e72b65b75aaffb6061ae61d01485a929181900390910190a15b505050565b600054600160a060020a0316331461060d576040805160e560020a62461bcd02815260206004820152602a6024820152600080516020610b688339815191526044820152600080516020610b48833981519152606482015290519081900360840190fd5b600160a060020a0383161561064057600160a060020a0383166000908152600460205260409020805460ff191660011790555b6bffffffffffffffffffffffff198216156105a457600154811080156106ac5750816bffffffffffffffffffffffff191660018281548110151561068057fe5b6000918252602090912001546c01000000000000000000000000026bffffffffffffffffffffffff1916145b80156106e3575060028054829081106106c157fe5b90600052602060002090602091828204019190069054906101000a900460ff16155b156107275760016002828154811015156106f957fe5b90600052602060002090602091828204019190066101000a81548160ff0219169083151502179055506105a4565b6001805480820182557fb10e2d527612073b26eecdfd717e6a320cf44b4afac2b0732d9fcbe2b7fa0cf60180546c01000000000000000000000000850473ffffffffffffffffffffffffffffffffffffffff199091161790556002805480830190915560208082047f405787fa12a823e0f2b7631cc41b3ba8828b3321ca811111fa75cd3aa3bb5ace01805460ff601f9094166101000a93840219169092179091556bffffffffffffffffffffffff198416600081815260038352604090819020805460ff1916909417909355825190815291517ff7521880b0f9408d030feb29ac3c9e02abad64c074936ee468aac417cc731b189281900390910190a1505050565b6060600280548060200260200160405190810160405280929190818152602001828054801561089857602002820191906000526020600020906000905b825461010083900a900460ff1615158152602060019283018181049485019490930390920291018084116108675790505b5050505050905090565b600054600160a060020a031681565b60015460009015156108c557506001610374565b50600160a060020a031660009081526004602052604090205460ff1690565b6060600180548060200260200160405190810160405280929190818152602001828054801561089857602002820191906000526020600020905b81546c01000000000000000000000000026bffffffffffffffffffffffff1916815260019091019060200180831161091e575050505050905090565b60036020526000908152604090205460ff1681565b600054600160a060020a031633146109d3576040805160e560020a62461bcd02815260206004820152602a6024820152600080516020610b688339815191526044820152600080516020610b48833981519152606482015290519081900360840190fd5b600160a060020a03811615156109e857600080fd5b60008054604051600160a060020a03808516939216917f8be0079c531659141344cd1fd0a4f28419497f9722a3daafe3b4186f6b6457e091a36000805473ffffffffffffffffffffffffffffffffffffffff1916600160a060020a0392909216919091179055565b6001805482908110610a5e57fe5b6000918252602090912001546c0100000000000000000000000002905081565b600054600160a060020a03163314610ae2576040805160e560020a62461bcd02815260206004820152602a6024820152600080516020610b688339815191526044820152600080516020610b48833981519152606482015290519081900360840190fd5b600160a060020a03821615801590610b195750600160a060020a03821660009081526004602052604090205460ff16151581151514155b15610b4357600160a060020a0382166000908152600460205260409020805460ff19168215151790555b50505600732066756e6374696f6e000000000000000000000000000000000000000000004f6e6c7920636f6e7472616374206f776e65722063616e2063616c6c20746869a165627a7a723058206118151d7b77f5407fcbb7886b2526fe70317c3e9d7fee76c09e786d928dc85e0029",
  "source": "pragma solidity ^0.4.24;\n\n/**\n* @title Ownable\n* @dev The Ownable contract has an owner address, and provides basic authorization control\n* functions, this simplifies the implementation of \"user permissions\".\n*/\ncontract Ownable {\n    address public owner;\n\n    event OwnershipTransferred(address indexed previousOwner, address indexed newOwner);\n\n    /**\n    * @dev The Ownable constructor sets the original `owner` of the contract to the sender\n    * account.\n    */\n    constructor () public {\n        owner = msg.sender;\n    }\n\n    /**\n    * @dev Throws if called by any account other than the owner.\n    */\n    modifier onlyOwner() {\n        require(msg.sender == owner, \"Only contract owner can call this function\");\n        _;\n    }\n\n    /**\n    * @dev Allows the current owner to transfer control of the contract to a newOwner.\n    * @param newOwner The address to transfer ownership to.\n    */\n    function transferOwnership(address newOwner) public onlyOwner {\n        require(newOwner != address(0));\n        emit OwnershipTransferred(owner, newOwner);\n        owner = newOwner;\n    }\n\n}\n\ncontract Approval is Ownable{\n    bytes20[] public allNodes;\n    bool[] public hasApproval;\n    mapping (bytes20 => bool) public nodeApproved;\n\tmapping (address => bool) public identityApproved;\n\n    event NodeApproved(bytes20 nodeId);\n    event NodeRemoved(bytes20 nodeId);\n\n\tfunction identityHasApproval(address identity)\n    public view returns(bool) {\n        if(allNodes.length == 0) return true;\n        return identityApproved[identity];\n    }\n\n    function nodeHasApproval(bytes20 nodeId)\n    public view returns(bool) {\n        return nodeApproved[nodeId];\n    }\n\n    function getAllNodes() public view returns(bytes20[]){\n        return allNodes;\n    }\n\n    function getNodeStatuses() public view returns(bool[]){\n        return hasApproval;\n    }\n    \n    function approve(address identity, bytes20 nodeId, uint256 nodeIndex) \n    public onlyOwner {\n        if(identity != address(0)) identityApproved[identity] = true;\n\n        if(nodeId != bytes20(0)) {\n            if(nodeIndex < allNodes.length && allNodes[nodeIndex] == nodeId && !hasApproval[nodeIndex]) {\n                hasApproval[nodeIndex] = true;\n            }\n            else {\n                allNodes.push(nodeId);\n                hasApproval.push(true);\n                nodeApproved[nodeId] = true;\n                emit NodeApproved(nodeId);\n            }\n        }\n    }\n\n    function removeApproval(address identity, bytes20 nodeId, uint256 nodeIndex) \n    public onlyOwner {\n        if(identity != address(0) && identityApproved[identity]){\n            identityApproved[identity] = false;\n        }\n        if(nodeId != bytes20(0) && nodeApproved[nodeId]){\n            if(allNodes[nodeIndex] == nodeId && hasApproval[nodeIndex]) {\n                hasApproval[nodeIndex] = false;\n                nodeApproved[nodeId] = false;\n                emit NodeRemoved(nodeId);\n            }\n        }\n    }\n\n\tfunction setIdentityApproval(address identity, bool newApproval) \n\tpublic onlyOwner {\n\t\tif(identity != address(0) && newApproval != identityApproved[identity])\n\t\t\tidentityApproved[identity] = newApproval;\n\t}\n}",
  "sourcePath": "/Users/miloskotlar/ot-node/modules/Blockchain/Polygon/contracts/Approval.sol",
  "compiler": {
    "name": "solc",
    "version": "0.4.25+commit.59dbf8f1.Emscripten.clang"
  },
  "schemaVersion": "3.0.0-beta.1",
  "updatedAt": "2021-08-16T09:42:48.482Z"
}