{
  "contractName": "CreditorHandler",
  "abi": [
    {
      "constant": true,
      "inputs": [],
      "name": "hub",
      "outputs": [
        {
          "name": "",
          "type": "address"
        }
      ],
      "payable": false,
      "stateMutability": "view",
      "type": "function",
      "signature": "0x365a86fc"
    },
    {
      "inputs": [
        {
          "name": "hubAddress",
          "type": "address"
        }
      ],
      "payable": false,
      "stateMutability": "nonpayable",
      "type": "constructor",
      "signature": "constructor"
    },
    {
      "constant": false,
      "inputs": [
        {
          "name": "newHubAddress",
          "type": "address"
        }
      ],
      "name": "setHubAddress",
      "outputs": [],
      "payable": false,
      "stateMutability": "nonpayable",
      "type": "function",
      "signature": "0xc7eb4522"
    },
    {
      "constant": false,
      "inputs": [
        {
          "name": "offerId",
          "type": "uint256"
        },
        {
          "name": "identity",
          "type": "address"
        },
        {
          "name": "parentIdentity",
          "type": "address"
        }
      ],
      "name": "finalizeOffer",
      "outputs": [],
      "payable": false,
      "stateMutability": "nonpayable",
      "type": "function",
      "signature": "0x9bcaee50"
    }
  ],
  "bytecode": "0x608060405234801561001057600080fd5b506040516020806111748339810160405251600160a060020a038116151561003757600080fd5b60008054600160a060020a03909216600160a060020a031990921691909117905561110d806100676000396000f30060806040526004361061003d5763ffffffff60e060020a600035041663365a86fc81146100425780639bcaee5014610073578063c7eb45221461009f575b600080fd5b34801561004e57600080fd5b506100576100c0565b60408051600160a060020a039092168252519081900360200190f35b34801561007f57600080fd5b5061009d600435600160a060020a03602435811690604435166100cf565b005b3480156100ab57600080fd5b5061009d600160a060020a0360043516610c8c565b600054600160a060020a031681565b60008054604080517f16279055000000000000000000000000000000000000000000000000000000008152336004820152905183928392600160a060020a039091169163162790559160248082019260209290919082900301818787803b15801561013957600080fd5b505af115801561014d573d6000803e3d6000fd5b505050506040513d602081101561016357600080fd5b505115156101e1576040805160e560020a62461bcd02815260206004820152602960248201527f46756e6374696f6e2063616e206f6e6c792062652063616c6c6564206279206360448201527f6f6e747261637473210000000000000000000000000000000000000000000000606482015290519081900360840190fd5b848480600160a060020a031663d202158d836040516020018082600160a060020a0316600160a060020a03166c010000000000000000000000000281526014019150506040516020818303038152906040526040518082805190602001908083835b602083106102625780518252601f199092019160209182019101610243565b51815160209384036101000a60001901801990921691161790526040805192909401829003822063ffffffff881660e060020a028352600483015260ed6024830152925160448083019650939450929083900301905081600087803b1580156102ca57600080fd5b505af11580156102de573d6000803e3d6000fd5b505050506040513d60208110156102f457600080fd5b50511515610398576040805160e560020a62461bcd02815260206004820152604660248201527f53656e646572206964656e74697479206973206e6f742061207375622d69646560448201527f6e74697479206f66207468652070726f766964656420706172656e742069646560648201527f6e74697479210000000000000000000000000000000000000000000000000000608482015290519081900360a40190fd5b600080546040805160e260020a630110ceef028152602060048201819052600e60248301527f50726f66696c6553746f7261676500000000000000000000000000000000000060448301529151600160a060020a03909316936304433bbc93606480840194939192918390030190829087803b15801561041757600080fd5b505af115801561042b573d6000803e3d6000fd5b505050506040513d602081101561044157600080fd5b5051600080546040805160e260020a630110ceef028152602060048201819052600e60248301527f486f6c64696e6753746f726167650000000000000000000000000000000000006044830152915194995061059494600394600160a060020a03909416936304433bbc93606480850194919392918390030190829087803b1580156104cc57600080fd5b505af11580156104e0573d6000803e3d6000fd5b505050506040513d60208110156104f657600080fd5b5051604080517f6c833cf5000000000000000000000000000000000000000000000000000000008152600481018d90529051600160a060020a0390921691636c833cf5916024808201926020929091908290030181600087803b15801561055c57600080fd5b505af1158015610570573d6000803e3d6000fd5b505050506040513d602081101561058657600080fd5b50519063ffffffff610dca16565b600080546040805160e260020a630110ceef028152602060048201819052600760248301527f50726f66696c650000000000000000000000000000000000000000000000000060448301529151949850600160a060020a03909216936304433bbc936064808501948390030190829087803b15801561061257600080fd5b505af1158015610626573d6000803e3d6000fd5b505050506040513d602081101561063c57600080fd5b5051604080517f9ec41a2d0000000000000000000000000000000000000000000000000000000081529051600160a060020a0390921691639ec41a2d916004808201926020929091908290030181600087803b15801561069b57600080fd5b505af11580156106af573d6000803e3d6000fd5b505050506040513d60208110156106c557600080fd5b5051604080517f2ba97595000000000000000000000000000000000000000000000000000000008152600160a060020a038981166004830152915192955090871691632ba97595916024808201926020929091908290030181600087803b15801561072f57600080fd5b505af1158015610743573d6000803e3d6000fd5b505050506040513d602081101561075957600080fd5b5051801561090d575084600160a060020a0316635ffe0282876040518263ffffffff1660e060020a0281526004018082600160a060020a0316600160a060020a03168152602001915050602060405180830381600087803b1580156107bd57600080fd5b505af11580156107d1573d6000803e3d6000fd5b505050506040513d60208110156107e757600080fd5b50516040805160e560020a6303d3b323028152600160a060020a038981166004830152915191881691637a766460916024808201926020929091908290030181600087803b15801561083857600080fd5b505af115801561084c573d6000803e3d6000fd5b505050506040513d602081101561086257600080fd5b5051604080517f56582bf9000000000000000000000000000000000000000000000000000000008152600160a060020a038a811660048301529151939092039261090b9288928a16916356582bf9916024808201926020929091908290030181600087803b1580156108d357600080fd5b505af11580156108e7573d6000803e3d6000fd5b505050506040513d60208110156108fd57600080fd5b50519063ffffffff610df516565b115b1561099357604080517f9385067f000000000000000000000000000000000000000000000000000000008152600160a060020a038881166004830152600060248301819052925190881692639385067f926044808201939182900301818387803b15801561097a57600080fd5b505af115801561098e573d6000803e3d6000fd5b505050505b610aa485600160a060020a0316635ffe0282886040518263ffffffff1660e060020a0281526004018082600160a060020a0316600160a060020a03168152602001915050602060405180830381600087803b1580156109f157600080fd5b505af1158015610a05573d6000803e3d6000fd5b505050506040513d6020811015610a1b57600080fd5b50516040805160e560020a6303d3b323028152600160a060020a038a81166004830152915191891691637a766460916024808201926020929091908290030181600087803b158015610a6c57600080fd5b505af1158015610a80573d6000803e3d6000fd5b505050506040513d6020811015610a9657600080fd5b50519063ffffffff610e0416565b831115610b21576040805160e560020a62461bcd02815260206004820152603e60248201527f506172656e74206964656e7469747920646f6573206e6f74206861766520656e60448201527f6f756768207374616b6520746f20637265617465206e6577206a6f6273210000606482015290519081900360840190fd5b83610bfb86600160a060020a0316635ffe0282896040518263ffffffff1660e060020a0281526004018082600160a060020a0316600160a060020a03168152602001915050602060405180830381600087803b158015610b8057600080fd5b505af1158015610b94573d6000803e3d6000fd5b505050506040513d6020811015610baa57600080fd5b50516040805160e560020a6303d3b323028152600160a060020a038b811660048301529151918a1691637a766460916024808201926020929091908290030181600087803b158015610a6c57600080fd5b1015610c77576040805160e560020a62461bcd02815260206004820152603960248201527f506172656e74206964656e7469747920646f6573206e6f74206861766520656e60448201527f6f756768207374616b6520666f7220726573657276696e672100000000000000606482015290519081900360840190fd5b610c82878786610e16565b5050505050505050565b60008054604080517f162790550000000000000000000000000000000000000000000000000000000081523360048201529051600160a060020a03909216926316279055926024808401936020939083900390910190829087803b158015610cf357600080fd5b505af1158015610d07573d6000803e3d6000fd5b505050506040513d6020811015610d1d57600080fd5b50511515610d9b576040805160e560020a62461bcd02815260206004820152603f60248201527f546869732066756e6374696f6e2063616e206f6e6c792062652063616c6c656460448201527f20627920636f6e747261637473206f722074686569722063726561746f722100606482015290519081900360840190fd5b6000805473ffffffffffffffffffffffffffffffffffffffff1916600160a060020a0392909216919091179055565b6000828202831580610de65750828482811515610de357fe5b04145b1515610dee57fe5b9392505050565b600082820183811015610dee57fe5b600082821115610e1057fe5b50900390565b600080546040805160e260020a630110ceef028152602060048201819052600e60248301527f50726f66696c6553746f72616765000000000000000000000000000000000000604483015291518493600160a060020a0316926304433bbc926064808201939182900301818787803b158015610e9157600080fd5b505af1158015610ea5573d6000803e3d6000fd5b505050506040513d6020811015610ebb57600080fd5b50516040805160e560020a6303d3b323028152600160a060020a038781166004830152915192945090841691637a766460916024808201926020929091908290030181600087803b158015610f0f57600080fd5b505af1158015610f23573d6000803e3d6000fd5b505050506040513d6020811015610f3957600080fd5b50519050600160a060020a03821663bd3cd52585610f5d848763ffffffff610e0416565b6040518363ffffffff1660e060020a0281526004018083600160a060020a0316600160a060020a0316815260200182815260200192505050600060405180830381600087803b158015610faf57600080fd5b505af1158015610fc3573d6000803e3d6000fd5b5050505081600160a060020a0316637a766460866040518263ffffffff1660e060020a0281526004018082600160a060020a0316600160a060020a03168152602001915050602060405180830381600087803b15801561102257600080fd5b505af1158015611036573d6000803e3d6000fd5b505050506040513d602081101561104c57600080fd5b50519050600160a060020a03821663bd3cd52586611070848763ffffffff610df516565b6040518363ffffffff1660e060020a0281526004018083600160a060020a0316600160a060020a0316815260200182815260200192505050600060405180830381600087803b1580156110c257600080fd5b505af11580156110d6573d6000803e3d6000fd5b5050505050505050505600a165627a7a72305820ea38d9f19d329e7dda0c704ce9bcd164f3316291ac2b34a8cb58eb6385052a420029",
  "source": "pragma solidity ^0.4.25;\n\nimport './Hub.sol';\nimport {ERC725} from './ERC725.sol';\nimport {Profile} from './Profile.sol';\nimport {ProfileStorage} from './ProfileStorage.sol';\nimport {HoldingStorage} from './HoldingStorage.sol';\nimport {SafeMath} from './SafeMath.sol';\n\n/**\n * The CreditorHandler contract handles funds and requirements when an offer is finalized using\n * creditor funds\n */\ncontract CreditorHandler {\n\tusing SafeMath for uint256;\n\n    Hub public hub;\n\tconstructor(address hubAddress) public{\n\t\trequire(hubAddress!=address(0));\n        hub = Hub(hubAddress);\n\t}\n\n\tfunction setHubAddress(address newHubAddress) public{\n        require(hub.isContract(msg.sender), \"This function can only be called by contracts or their creator!\");\n\n        hub = Hub(newHubAddress);\n    }\n\n    modifier onlyContracts() {\n        require(hub.isContract(msg.sender),\n        \"Function can only be called by contracts!\");\n        _;\n    }\n\n    modifier verifyParent(address identity, address parentIdentity) {\n        require(ERC725(parentIdentity).keyHasPurpose(keccak256(abi.encodePacked(identity)), 237),\n        \"Sender identity is not a sub-identity of the provided parent identity!\");\n        _;\n    }\n\n    function transferCredit(address identity, address parentIdentity, uint256 amount)\n    internal {\n        ProfileStorage profileStorage = ProfileStorage(hub.getContractAddress(\"ProfileStorage\"));\n\n        uint256 currentStake = profileStorage.getStake(parentIdentity);\n        profileStorage.setStake(parentIdentity, currentStake.sub(amount));\n\n        currentStake = profileStorage.getStake(identity);\n        profileStorage.setStake(identity, currentStake.add(amount));\n    }\n\n    function finalizeOffer(uint256 offerId, address identity, address parentIdentity)\n    public onlyContracts verifyParent(identity, parentIdentity) {\n        ProfileStorage profileStorage = ProfileStorage(hub.getContractAddress(\"ProfileStorage\"));\n\n        uint256 jobCost = HoldingStorage(hub.getContractAddress(\"HoldingStorage\")).getOfferTokenAmountPerHolder(bytes32(offerId)).mul(3);\n        uint256 minimalStake = Profile(hub.getContractAddress(\"Profile\")).minimalStake();\n\n        if(profileStorage.getWithdrawalPending(parentIdentity) && profileStorage.getWithdrawalAmount(parentIdentity).add(jobCost) > profileStorage.getStake(parentIdentity) - profileStorage.getStakeReserved(parentIdentity)) {\n            profileStorage.setWithdrawalPending(parentIdentity,false);\n        }\n\n    \trequire(minimalStake <= profileStorage.getStake(parentIdentity).sub(profileStorage.getStakeReserved(parentIdentity)),\n            \"Parent identity does not have enough stake to create new jobs!\");\n\n    \t// Transferring funds\n        require(profileStorage.getStake(parentIdentity).sub(profileStorage.getStakeReserved(parentIdentity)) >= jobCost,\n            \"Parent identity does not have enough stake for reserving!\");\n\n        transferCredit(identity, parentIdentity, jobCost);\n    }\n}\n",
  "sourcePath": "/Users/miloskotlar/ot-node/modules/Blockchain/Polygon/contracts/CreditorHandler.sol",
  "compiler": {
    "name": "solc",
    "version": "0.4.25+commit.59dbf8f1.Emscripten.clang"
  },
  "schemaVersion": "3.0.0-beta.1",
  "updatedAt": "2021-08-16T09:42:48.518Z"
}