{
  "contractName": "HoldingStorage",
  "abi": [
    {
      "constant": true,
      "inputs": [],
      "name": "hub",
      "outputs": [
        {
          "name": "",
          "type": "address"
        }
      ],
      "payable": false,
      "stateMutability": "view",
      "type": "function",
      "signature": "0x365a86fc"
    },
    {
      "constant": true,
      "inputs": [],
      "name": "difficultyOverride",
      "outputs": [
        {
          "name": "",
          "type": "uint256"
        }
      ],
      "payable": false,
      "stateMutability": "view",
      "type": "function",
      "signature": "0x67ebbdc6"
    },
    {
      "constant": true,
      "inputs": [
        {
          "name": "",
          "type": "bytes32"
        }
      ],
      "name": "fingerprint",
      "outputs": [
        {
          "name": "",
          "type": "bytes32"
        }
      ],
      "payable": false,
      "stateMutability": "view",
      "type": "function",
      "signature": "0xb2ccba82"
    },
    {
      "constant": true,
      "inputs": [
        {
          "name": "",
          "type": "bytes32"
        },
        {
          "name": "",
          "type": "address"
        }
      ],
      "name": "holder",
      "outputs": [
        {
          "name": "stakedAmount",
          "type": "uint256"
        },
        {
          "name": "paidAmount",
          "type": "uint256"
        },
        {
          "name": "litigationEncryptionType",
          "type": "uint256"
        },
        {
          "name": "paymentTimestamp",
          "type": "uint256"
        }
      ],
      "payable": false,
      "stateMutability": "view",
      "type": "function",
      "signature": "0xb65d8f76"
    },
    {
      "constant": true,
      "inputs": [
        {
          "name": "",
          "type": "bytes32"
        }
      ],
      "name": "offer",
      "outputs": [
        {
          "name": "creator",
          "type": "address"
        },
        {
          "name": "dataSetId",
          "type": "bytes32"
        },
        {
          "name": "holdingTimeInMinutes",
          "type": "uint256"
        },
        {
          "name": "tokenAmountPerHolder",
          "type": "uint256"
        },
        {
          "name": "litigationIntervalInMinutes",
          "type": "uint256"
        },
        {
          "name": "task",
          "type": "bytes32"
        },
        {
          "name": "difficulty",
          "type": "uint256"
        },
        {
          "name": "redLitigationHash",
          "type": "bytes32"
        },
        {
          "name": "greenLitigationHash",
          "type": "bytes32"
        },
        {
          "name": "blueLitigationHash",
          "type": "bytes32"
        },
        {
          "name": "startTime",
          "type": "uint256"
        }
      ],
      "payable": false,
      "stateMutability": "view",
      "type": "function",
      "signature": "0xdec4b4b8"
    },
    {
      "inputs": [
        {
          "name": "hubAddress",
          "type": "address"
        }
      ],
      "payable": false,
      "stateMutability": "nonpayable",
      "type": "constructor",
      "signature": "constructor"
    },
    {
      "constant": true,
      "inputs": [],
      "name": "getDifficultyOverride",
      "outputs": [
        {
          "name": "",
          "type": "uint256"
        }
      ],
      "payable": false,
      "stateMutability": "view",
      "type": "function",
      "signature": "0xab9c46ff"
    },
    {
      "constant": false,
      "inputs": [
        {
          "name": "new_difficulty",
          "type": "uint256"
        }
      ],
      "name": "setDifficultyOverride",
      "outputs": [],
      "payable": false,
      "stateMutability": "nonpayable",
      "type": "function",
      "signature": "0xe7b73e5b"
    },
    {
      "constant": false,
      "inputs": [
        {
          "name": "dataSetId",
          "type": "bytes32"
        },
        {
          "name": "dataRootHash",
          "type": "bytes32"
        }
      ],
      "name": "setFingerprint",
      "outputs": [],
      "payable": false,
      "stateMutability": "nonpayable",
      "type": "function",
      "signature": "0xdf85fbd0"
    },
    {
      "constant": true,
      "inputs": [
        {
          "name": "offerId",
          "type": "bytes32"
        }
      ],
      "name": "getOfferCreator",
      "outputs": [
        {
          "name": "creator",
          "type": "address"
        }
      ],
      "payable": false,
      "stateMutability": "view",
      "type": "function",
      "signature": "0xa2657315"
    },
    {
      "constant": true,
      "inputs": [
        {
          "name": "offerId",
          "type": "bytes32"
        }
      ],
      "name": "getOfferDataSetId",
      "outputs": [
        {
          "name": "dataSetId",
          "type": "bytes32"
        }
      ],
      "payable": false,
      "stateMutability": "view",
      "type": "function",
      "signature": "0xd31b4fda"
    },
    {
      "constant": true,
      "inputs": [
        {
          "name": "offerId",
          "type": "bytes32"
        }
      ],
      "name": "getOfferHoldingTimeInMinutes",
      "outputs": [
        {
          "name": "holdingTimeInMinutes",
          "type": "uint256"
        }
      ],
      "payable": false,
      "stateMutability": "view",
      "type": "function",
      "signature": "0xc2fb6096"
    },
    {
      "constant": true,
      "inputs": [
        {
          "name": "offerId",
          "type": "bytes32"
        }
      ],
      "name": "getOfferTokenAmountPerHolder",
      "outputs": [
        {
          "name": "tokenAmountPerHolder",
          "type": "uint256"
        }
      ],
      "payable": false,
      "stateMutability": "view",
      "type": "function",
      "signature": "0x6c833cf5"
    },
    {
      "constant": true,
      "inputs": [
        {
          "name": "offerId",
          "type": "bytes32"
        }
      ],
      "name": "getOfferLitigationIntervalInMinutes",
      "outputs": [
        {
          "name": "litigationIntervalInMinutes",
          "type": "uint256"
        }
      ],
      "payable": false,
      "stateMutability": "view",
      "type": "function",
      "signature": "0xebaa7432"
    },
    {
      "constant": true,
      "inputs": [
        {
          "name": "offerId",
          "type": "bytes32"
        }
      ],
      "name": "getOfferTask",
      "outputs": [
        {
          "name": "task",
          "type": "bytes32"
        }
      ],
      "payable": false,
      "stateMutability": "view",
      "type": "function",
      "signature": "0xea1ef450"
    },
    {
      "constant": true,
      "inputs": [
        {
          "name": "offerId",
          "type": "bytes32"
        }
      ],
      "name": "getOfferDifficulty",
      "outputs": [
        {
          "name": "difficulty",
          "type": "uint256"
        }
      ],
      "payable": false,
      "stateMutability": "view",
      "type": "function",
      "signature": "0x1535f574"
    },
    {
      "constant": true,
      "inputs": [
        {
          "name": "offerId",
          "type": "bytes32"
        }
      ],
      "name": "getOfferRedLitigationHash",
      "outputs": [
        {
          "name": "redLitigationHash",
          "type": "bytes32"
        }
      ],
      "payable": false,
      "stateMutability": "view",
      "type": "function",
      "signature": "0x19a60ed2"
    },
    {
      "constant": true,
      "inputs": [
        {
          "name": "offerId",
          "type": "bytes32"
        }
      ],
      "name": "getOfferGreenLitigationHash",
      "outputs": [
        {
          "name": "greenLitigationHash",
          "type": "bytes32"
        }
      ],
      "payable": false,
      "stateMutability": "view",
      "type": "function",
      "signature": "0xf06f8da7"
    },
    {
      "constant": true,
      "inputs": [
        {
          "name": "offerId",
          "type": "bytes32"
        }
      ],
      "name": "getOfferBlueLitigationHash",
      "outputs": [
        {
          "name": "blueLitigationHash",
          "type": "bytes32"
        }
      ],
      "payable": false,
      "stateMutability": "view",
      "type": "function",
      "signature": "0xeca72480"
    },
    {
      "constant": true,
      "inputs": [
        {
          "name": "offerId",
          "type": "bytes32"
        }
      ],
      "name": "getOfferStartTime",
      "outputs": [
        {
          "name": "startTime",
          "type": "uint256"
        }
      ],
      "payable": false,
      "stateMutability": "view",
      "type": "function",
      "signature": "0xe845c667"
    },
    {
      "constant": false,
      "inputs": [
        {
          "name": "offerId",
          "type": "bytes32"
        },
        {
          "name": "creator",
          "type": "address"
        }
      ],
      "name": "setOfferCreator",
      "outputs": [],
      "payable": false,
      "stateMutability": "nonpayable",
      "type": "function",
      "signature": "0xc8ce8d54"
    },
    {
      "constant": false,
      "inputs": [
        {
          "name": "offerId",
          "type": "bytes32"
        },
        {
          "name": "dataSetId",
          "type": "bytes32"
        }
      ],
      "name": "setOfferDataSetId",
      "outputs": [],
      "payable": false,
      "stateMutability": "nonpayable",
      "type": "function",
      "signature": "0x9e0bf37b"
    },
    {
      "constant": false,
      "inputs": [
        {
          "name": "offerId",
          "type": "bytes32"
        },
        {
          "name": "holdingTimeInMinutes",
          "type": "uint256"
        }
      ],
      "name": "setOfferHoldingTimeInMinutes",
      "outputs": [],
      "payable": false,
      "stateMutability": "nonpayable",
      "type": "function",
      "signature": "0x9cdfa98d"
    },
    {
      "constant": false,
      "inputs": [
        {
          "name": "offerId",
          "type": "bytes32"
        },
        {
          "name": "tokenAmountPerHolder",
          "type": "uint256"
        }
      ],
      "name": "setOfferTokenAmountPerHolder",
      "outputs": [],
      "payable": false,
      "stateMutability": "nonpayable",
      "type": "function",
      "signature": "0xb2e64acf"
    },
    {
      "constant": false,
      "inputs": [
        {
          "name": "offerId",
          "type": "bytes32"
        },
        {
          "name": "litigationIntervalInMinutes",
          "type": "uint256"
        }
      ],
      "name": "setOfferLitigationIntervalInMinutes",
      "outputs": [],
      "payable": false,
      "stateMutability": "nonpayable",
      "type": "function",
      "signature": "0xbafb8e3a"
    },
    {
      "constant": false,
      "inputs": [
        {
          "name": "offerId",
          "type": "bytes32"
        },
        {
          "name": "task",
          "type": "bytes32"
        }
      ],
      "name": "setOfferTask",
      "outputs": [],
      "payable": false,
      "stateMutability": "nonpayable",
      "type": "function",
      "signature": "0x09991ce6"
    },
    {
      "constant": false,
      "inputs": [
        {
          "name": "offerId",
          "type": "bytes32"
        },
        {
          "name": "difficulty",
          "type": "uint256"
        }
      ],
      "name": "setOfferDifficulty",
      "outputs": [],
      "payable": false,
      "stateMutability": "nonpayable",
      "type": "function",
      "signature": "0xd63fea56"
    },
    {
      "constant": false,
      "inputs": [
        {
          "name": "offerId",
          "type": "bytes32"
        },
        {
          "name": "redLitigationHash",
          "type": "bytes32"
        }
      ],
      "name": "setOfferRedLitigationHash",
      "outputs": [],
      "payable": false,
      "stateMutability": "nonpayable",
      "type": "function",
      "signature": "0x2181e89a"
    },
    {
      "constant": false,
      "inputs": [
        {
          "name": "offerId",
          "type": "bytes32"
        },
        {
          "name": "greenLitigationHash",
          "type": "bytes32"
        }
      ],
      "name": "setOfferGreenLitigationHash",
      "outputs": [],
      "payable": false,
      "stateMutability": "nonpayable",
      "type": "function",
      "signature": "0x39dbeb31"
    },
    {
      "constant": false,
      "inputs": [
        {
          "name": "offerId",
          "type": "bytes32"
        },
        {
          "name": "blueLitigationHash",
          "type": "bytes32"
        }
      ],
      "name": "setOfferBlueLitigationHash",
      "outputs": [],
      "payable": false,
      "stateMutability": "nonpayable",
      "type": "function",
      "signature": "0x0d61a8e3"
    },
    {
      "constant": false,
      "inputs": [
        {
          "name": "offerId",
          "type": "bytes32"
        },
        {
          "name": "startTime",
          "type": "uint256"
        }
      ],
      "name": "setOfferStartTime",
      "outputs": [],
      "payable": false,
      "stateMutability": "nonpayable",
      "type": "function",
      "signature": "0xe3d908a3"
    },
    {
      "constant": false,
      "inputs": [
        {
          "name": "offerId",
          "type": "bytes32"
        },
        {
          "name": "creator",
          "type": "address"
        },
        {
          "name": "dataSetId",
          "type": "bytes32"
        },
        {
          "name": "holdingTimeInMinutes",
          "type": "uint256"
        },
        {
          "name": "tokenAmountPerHolder",
          "type": "uint256"
        },
        {
          "name": "litigationIntervalInMinutes",
          "type": "uint256"
        },
        {
          "name": "task",
          "type": "bytes32"
        },
        {
          "name": "difficulty",
          "type": "uint256"
        }
      ],
      "name": "setOfferParameters",
      "outputs": [],
      "payable": false,
      "stateMutability": "nonpayable",
      "type": "function",
      "signature": "0x1d6f0b36"
    },
    {
      "constant": false,
      "inputs": [
        {
          "name": "offerId",
          "type": "bytes32"
        },
        {
          "name": "redLitigationHash",
          "type": "bytes32"
        },
        {
          "name": "greenLitigationHash",
          "type": "bytes32"
        },
        {
          "name": "blueLitigationHash",
          "type": "bytes32"
        }
      ],
      "name": "setOfferLitigationHashes",
      "outputs": [],
      "payable": false,
      "stateMutability": "nonpayable",
      "type": "function",
      "signature": "0xaa1d1f2b"
    },
    {
      "constant": false,
      "inputs": [
        {
          "name": "offerId",
          "type": "bytes32"
        },
        {
          "name": "identities",
          "type": "address[]"
        },
        {
          "name": "litigationEncryptionTypes",
          "type": "uint8[]"
        }
      ],
      "name": "setHolders",
      "outputs": [],
      "payable": false,
      "stateMutability": "nonpayable",
      "type": "function",
      "signature": "0x17d79cd9"
    },
    {
      "constant": false,
      "inputs": [
        {
          "name": "offerId",
          "type": "bytes32"
        },
        {
          "name": "identity",
          "type": "address"
        },
        {
          "name": "stakedAmount",
          "type": "uint256"
        }
      ],
      "name": "setHolderStakedAmount",
      "outputs": [],
      "payable": false,
      "stateMutability": "nonpayable",
      "type": "function",
      "signature": "0x324310ee"
    },
    {
      "constant": false,
      "inputs": [
        {
          "name": "offerId",
          "type": "bytes32"
        },
        {
          "name": "identity",
          "type": "address"
        },
        {
          "name": "paidAmount",
          "type": "uint256"
        }
      ],
      "name": "setHolderPaidAmount",
      "outputs": [],
      "payable": false,
      "stateMutability": "nonpayable",
      "type": "function",
      "signature": "0x05c6ff60"
    },
    {
      "constant": false,
      "inputs": [
        {
          "name": "offerId",
          "type": "bytes32"
        },
        {
          "name": "identity",
          "type": "address"
        },
        {
          "name": "litigationEncryptionType",
          "type": "uint256"
        }
      ],
      "name": "setHolderLitigationEncryptionType",
      "outputs": [],
      "payable": false,
      "stateMutability": "nonpayable",
      "type": "function",
      "signature": "0xd38be5a0"
    },
    {
      "constant": false,
      "inputs": [
        {
          "name": "offerId",
          "type": "bytes32"
        },
        {
          "name": "identity",
          "type": "address"
        },
        {
          "name": "paymentTimestamp",
          "type": "uint256"
        }
      ],
      "name": "setHolderPaymentTimestamp",
      "outputs": [],
      "payable": false,
      "stateMutability": "nonpayable",
      "type": "function",
      "signature": "0x91a70e4f"
    },
    {
      "constant": true,
      "inputs": [
        {
          "name": "offerId",
          "type": "bytes32"
        },
        {
          "name": "identity",
          "type": "address"
        }
      ],
      "name": "getHolderStakedAmount",
      "outputs": [
        {
          "name": "stakedAmount",
          "type": "uint256"
        }
      ],
      "payable": false,
      "stateMutability": "view",
      "type": "function",
      "signature": "0x38d525f1"
    },
    {
      "constant": true,
      "inputs": [
        {
          "name": "offerId",
          "type": "bytes32"
        },
        {
          "name": "identity",
          "type": "address"
        }
      ],
      "name": "getHolderPaidAmount",
      "outputs": [
        {
          "name": "paidAmount",
          "type": "uint256"
        }
      ],
      "payable": false,
      "stateMutability": "view",
      "type": "function",
      "signature": "0x530bde3d"
    },
    {
      "constant": true,
      "inputs": [
        {
          "name": "offerId",
          "type": "bytes32"
        },
        {
          "name": "identity",
          "type": "address"
        }
      ],
      "name": "getHolderLitigationEncryptionType",
      "outputs": [
        {
          "name": "litigationEncryptionType",
          "type": "uint256"
        }
      ],
      "payable": false,
      "stateMutability": "view",
      "type": "function",
      "signature": "0x1aa063a7"
    },
    {
      "constant": true,
      "inputs": [
        {
          "name": "offerId",
          "type": "bytes32"
        },
        {
          "name": "identity",
          "type": "address"
        }
      ],
      "name": "getHolderPaymentTimestamp",
      "outputs": [
        {
          "name": "paymentTimestamp",
          "type": "uint256"
        }
      ],
      "payable": false,
      "stateMutability": "view",
      "type": "function",
      "signature": "0x809a05a7"
    },
    {
      "constant": false,
      "inputs": [
        {
          "name": "newHubAddress",
          "type": "address"
        }
      ],
      "name": "setHubAddress",
      "outputs": [],
      "payable": false,
      "stateMutability": "nonpayable",
      "type": "function",
      "signature": "0xc7eb4522"
    }
  ],
  "bytecode": "0x608060405234801561001057600080fd5b50604051602080612421833981016040525160008054600160a060020a03909216600160a060020a03199092169190911790556123cf806100526000396000f3006080604052600436106102035763ffffffff7c010000000000000000000000000000000000000000000000000000000060003504166305c6ff60811461020857806309991ce6146102315780630d61a8e31461024c5780631535f5741461026757806317d79cd91461029157806319a60ed2146103245780631aa063a71461033c5780631d6f0b36146103605780632181e89a14610396578063324310ee146103b1578063365a86fc146103d857806338d525f11461040957806339dbeb311461042d578063530bde3d1461044857806367ebbdc61461046c5780636c833cf514610481578063809a05a71461049957806391a70e4f146104bd5780639cdfa98d146104e45780639e0bf37b146104ff578063a26573151461051a578063aa1d1f2b14610532578063ab9c46ff14610553578063b2ccba8214610568578063b2e64acf14610580578063b65d8f761461059b578063bafb8e3a146105e5578063c2fb609614610600578063c7eb452214610618578063c8ce8d5414610639578063d31b4fda1461065d578063d38be5a014610675578063d63fea561461069c578063dec4b4b8146106b7578063df85fbd01461072f578063e3d908a31461074a578063e7b73e5b14610765578063e845c6671461077d578063ea1ef45014610795578063ebaa7432146107ad578063eca72480146107c5578063f06f8da7146107dd575b600080fd5b34801561021457600080fd5b5061022f600435600160a060020a03602435166044356107f5565b005b34801561023d57600080fd5b5061022f600435602435610908565b34801561025857600080fd5b5061022f6004356024356109f2565b34801561027357600080fd5b5061027f600435610adc565b60408051918252519081900360200190f35b34801561029d57600080fd5b5060408051602060046024803582810135848102808701860190975280865261022f96843596369660449591949091019291829185019084908082843750506040805187358901803560208181028481018201909552818452989b9a998901989297509082019550935083925085019084908082843750949750610af19650505050505050565b34801561033057600080fd5b5061027f60043561101e565b34801561034857600080fd5b5061027f600435600160a060020a0360243516611033565b34801561036c57600080fd5b5061022f600435600160a060020a036024351660443560643560843560a43560c43560e435611076565b3480156103a257600080fd5b5061022f6004356024356111da565b3480156103bd57600080fd5b5061022f600435600160a060020a03602435166044356112c4565b3480156103e457600080fd5b506103ed6113d4565b60408051600160a060020a039092168252519081900360200190f35b34801561041557600080fd5b5061027f600435600160a060020a03602435166113e3565b34801561043957600080fd5b5061022f600435602435611423565b34801561045457600080fd5b5061027f600435600160a060020a036024351661150d565b34801561047857600080fd5b5061027f611550565b34801561048d57600080fd5b5061027f600435611556565b3480156104a557600080fd5b5061027f600435600160a060020a036024351661156c565b3480156104c957600080fd5b5061022f600435600160a060020a0360243516604435611597565b3480156104f057600080fd5b5061022f600435602435611695565b34801561050b57600080fd5b5061022f60043560243561177f565b34801561052657600080fd5b506103ed600435611869565b34801561053e57600080fd5b5061022f600435602435604435606435611884565b34801561055f57600080fd5b5061027f61197b565b34801561057457600080fd5b5061027f600435611981565b34801561058c57600080fd5b5061022f600435602435611993565b3480156105a757600080fd5b506105bf600435600160a060020a0360243516611a7f565b604080519485526020850193909352838301919091526060830152519081900360800190f35b3480156105f157600080fd5b5061022f600435602435611ab1565b34801561060c57600080fd5b5061027f600435611b9b565b34801561062457600080fd5b5061022f600160a060020a0360043516611bb0565b34801561064557600080fd5b5061022f600435600160a060020a0360243516611cc9565b34801561066957600080fd5b5061027f600435611dd9565b34801561068157600080fd5b5061022f600435600160a060020a0360243516604435611dee565b3480156106a857600080fd5b5061022f600435602435611f01565b3480156106c357600080fd5b506106cf600435611feb565b60408051600160a060020a03909c168c5260208c019a909a528a8a019890985260608a0196909652608089019490945260a088019290925260c087015260e086015261010085015261012084015261014083015251908190036101600190f35b34801561073b57600080fd5b5061022f60043560243561204f565b34801561075657600080fd5b5061022f600435602435612136565b34801561077157600080fd5b5061022f600435612220565b34801561078957600080fd5b5061027f6004356122fa565b3480156107a157600080fd5b5061027f60043561230f565b3480156107b957600080fd5b5061027f600435612324565b3480156107d157600080fd5b5061027f600435612339565b3480156107e957600080fd5b5061027f60043561234e565b600080546040805160e060020a63162790550281523360048201529051600160a060020a03909216926316279055926024808401936020939083900390910190829087803b15801561084657600080fd5b505af115801561085a573d6000803e3d6000fd5b505050506040513d602081101561087057600080fd5b505115156108ca576040805160e560020a62461bcd02815260206004820152602960248201526000805160206123848339815191526044820152600080516020612364833981519152606482015290519081900360840190fd5b600160a060020a03821615156108df57600080fd5b6000928352600460209081526040808520600160a060020a039094168552929052912060010155565b600080546040805160e060020a63162790550281523360048201529051600160a060020a03909216926316279055926024808401936020939083900390910190829087803b15801561095957600080fd5b505af115801561096d573d6000803e3d6000fd5b505050506040513d602081101561098357600080fd5b505115156109dd576040805160e560020a62461bcd02815260206004820152602960248201526000805160206123848339815191526044820152600080516020612364833981519152606482015290519081900360840190fd5b60009182526003602052604090912060050155565b600080546040805160e060020a63162790550281523360048201529051600160a060020a03909216926316279055926024808401936020939083900390910190829087803b158015610a4357600080fd5b505af1158015610a57573d6000803e3d6000fd5b505050506040513d6020811015610a6d57600080fd5b50511515610ac7576040805160e560020a62461bcd02815260206004820152602960248201526000805160206123848339815191526044820152600080516020612364833981519152606482015290519081900360840190fd5b60009182526003602052604090912060090155565b60009081526003602052604090206006015490565b600080546040805160e060020a63162790550281523360048201529051600160a060020a03909216926316279055926024808401936020939083900390910190829087803b158015610b4257600080fd5b505af1158015610b56573d6000803e3d6000fd5b505050506040513d6020811015610b6c57600080fd5b50511515610bc6576040805160e560020a62461bcd02815260206004820152602960248201526000805160206123848339815191526044820152600080516020612364833981519152606482015290519081900360840190fd5b600083815260036020818152604080842042600a820155909201546004909152908220845191929091859082908110610bfb57fe5b90602001906020020151600160a060020a0316600160a060020a0316815260200190815260200160002060000181905550806000815181101515610c3b57fe5b60209081029091018101516000858152600490925260408220845160ff909216929091859082908110610c6a57fe5b6020908102909101810151600160a060020a031682528101919091526040016000206002015414610cfa57806000815181101515610ca457fe5b60209081029091018101516000858152600490925260408220845160ff909216929091859082908110610cd357fe5b6020908102909101810151600160a060020a03168252810191909152604001600020600201555b600083815260036020818152604080842090920154600490915290822084519192909185906001908110610d2a57fe5b6020908102909101810151600160a060020a0316825281019190915260400160002055805181906001908110610d5c57fe5b60209081029091018101516000858152600490925260408220845160ff90921692909185906001908110610d8c57fe5b6020908102909101810151600160a060020a031682528101919091526040016000206002015414610e1d57806001815181101515610dc657fe5b60209081029091018101516000858152600490925260408220845160ff90921692909185906001908110610df657fe5b6020908102909101810151600160a060020a03168252810191909152604001600020600201555b600083815260036020818152604080842090920154600490915290822084519192909185906002908110610e4d57fe5b6020908102909101810151600160a060020a0316825281019190915260400160002055805181906002908110610e7f57fe5b60209081029091018101516000858152600490925260408220845160ff90921692909185906002908110610eaf57fe5b6020908102909101810151600160a060020a031682528101919091526040016000206002015414610f4057806002815181101515610ee957fe5b60209081029091018101516000858152600490925260408220845160ff90921692909185906002908110610f1957fe5b6020908102909101810151600160a060020a03168252810191909152604001600020600201555b60008381526004602052604081208351429290859082908110610f5f57fe5b6020908102909101810151600160a060020a0316825281810192909252604090810160009081206003019390935585835260049091528120835142929085906001908110610fa957fe5b6020908102909101810151600160a060020a0316825281810192909252604090810160009081206003019390935585835260049091528120835142929085906002908110610ff357fe5b6020908102909101810151600160a060020a0316825281019190915260400160002060030155505050565b60009081526003602052604090206007015490565b6000600160a060020a038216151561104a57600080fd5b506000918252600460209081526040808420600160a060020a0393909316845291905290206002015490565b600080546040805160e060020a63162790550281523360048201529051600160a060020a03909216926316279055926024808401936020939083900390910190829087803b1580156110c757600080fd5b505af11580156110db573d6000803e3d6000fd5b505050506040513d60208110156110f157600080fd5b5051151561114b576040805160e560020a62461bcd02815260206004820152602960248201526000805160206123848339815191526044820152600080516020612364833981519152606482015290519081900360840190fd5b6000888152600360208190526040909120805473ffffffffffffffffffffffffffffffffffffffff1916600160a060020a038a161781556001810188905560028101879055908101859055600481018490556005015482146111bc5760008881526003602052604090206005018290555b60009788526003602052604090972060060196909655505050505050565b600080546040805160e060020a63162790550281523360048201529051600160a060020a03909216926316279055926024808401936020939083900390910190829087803b15801561122b57600080fd5b505af115801561123f573d6000803e3d6000fd5b505050506040513d602081101561125557600080fd5b505115156112af576040805160e560020a62461bcd02815260206004820152602960248201526000805160206123848339815191526044820152600080516020612364833981519152606482015290519081900360840190fd5b60009182526003602052604090912060070155565b600080546040805160e060020a63162790550281523360048201529051600160a060020a03909216926316279055926024808401936020939083900390910190829087803b15801561131557600080fd5b505af1158015611329573d6000803e3d6000fd5b505050506040513d602081101561133f57600080fd5b50511515611399576040805160e560020a62461bcd02815260206004820152602960248201526000805160206123848339815191526044820152600080516020612364833981519152606482015290519081900360840190fd5b600160a060020a03821615156113ae57600080fd5b6000928352600460209081526040808520600160a060020a039094168552929052912055565b600054600160a060020a031681565b6000600160a060020a03821615156113fa57600080fd5b506000918252600460209081526040808420600160a060020a0393909316845291905290205490565b600080546040805160e060020a63162790550281523360048201529051600160a060020a03909216926316279055926024808401936020939083900390910190829087803b15801561147457600080fd5b505af1158015611488573d6000803e3d6000fd5b505050506040513d602081101561149e57600080fd5b505115156114f8576040805160e560020a62461bcd02815260206004820152602960248201526000805160206123848339815191526044820152600080516020612364833981519152606482015290519081900360840190fd5b60009182526003602052604090912060080155565b6000600160a060020a038216151561152457600080fd5b506000918252600460209081526040808420600160a060020a0393909316845291905290206001015490565b60015481565b6000908152600360208190526040909120015490565b6000918252600460209081526040808420600160a060020a0393909316845291905290206003015490565b600080546040805160e060020a63162790550281523360048201529051600160a060020a03909216926316279055926024808401936020939083900390910190829087803b1580156115e857600080fd5b505af11580156115fc573d6000803e3d6000fd5b505050506040513d602081101561161257600080fd5b5051151561166c576040805160e560020a62461bcd02815260206004820152602960248201526000805160206123848339815191526044820152600080516020612364833981519152606482015290519081900360840190fd5b6000928352600460209081526040808520600160a060020a039094168552929052912060030155565b600080546040805160e060020a63162790550281523360048201529051600160a060020a03909216926316279055926024808401936020939083900390910190829087803b1580156116e657600080fd5b505af11580156116fa573d6000803e3d6000fd5b505050506040513d602081101561171057600080fd5b5051151561176a576040805160e560020a62461bcd02815260206004820152602960248201526000805160206123848339815191526044820152600080516020612364833981519152606482015290519081900360840190fd5b60009182526003602052604090912060020155565b600080546040805160e060020a63162790550281523360048201529051600160a060020a03909216926316279055926024808401936020939083900390910190829087803b1580156117d057600080fd5b505af11580156117e4573d6000803e3d6000fd5b505050506040513d60208110156117fa57600080fd5b50511515611854576040805160e560020a62461bcd02815260206004820152602960248201526000805160206123848339815191526044820152600080516020612364833981519152606482015290519081900360840190fd5b60009182526003602052604090912060010155565b600090815260036020526040902054600160a060020a031690565b600080546040805160e060020a63162790550281523360048201529051600160a060020a03909216926316279055926024808401936020939083900390910190829087803b1580156118d557600080fd5b505af11580156118e9573d6000803e3d6000fd5b505050506040513d60208110156118ff57600080fd5b50511515611959576040805160e560020a62461bcd02815260206004820152602960248201526000805160206123848339815191526044820152600080516020612364833981519152606482015290519081900360840190fd5b6000938452600360205260409093206007810192909255600882015560090155565b60015490565b60026020526000908152604090205481565b600080546040805160e060020a63162790550281523360048201529051600160a060020a03909216926316279055926024808401936020939083900390910190829087803b1580156119e457600080fd5b505af11580156119f8573d6000803e3d6000fd5b505050506040513d6020811015611a0e57600080fd5b50511515611a68576040805160e560020a62461bcd02815260206004820152602960248201526000805160206123848339815191526044820152600080516020612364833981519152606482015290519081900360840190fd5b600091825260036020819052604090922090910155565b600460209081526000928352604080842090915290825290208054600182015460028301546003909301549192909184565b600080546040805160e060020a63162790550281523360048201529051600160a060020a03909216926316279055926024808401936020939083900390910190829087803b158015611b0257600080fd5b505af1158015611b16573d6000803e3d6000fd5b505050506040513d6020811015611b2c57600080fd5b50511515611b86576040805160e560020a62461bcd02815260206004820152602960248201526000805160206123848339815191526044820152600080516020612364833981519152606482015290519081900360840190fd5b60009182526003602052604090912060040155565b60009081526003602052604090206002015490565b600080546040805160e060020a63162790550281523360048201529051600160a060020a03909216926316279055926024808401936020939083900390910190829087803b158015611c0157600080fd5b505af1158015611c15573d6000803e3d6000fd5b505050506040513d6020811015611c2b57600080fd5b50511515611c85576040805160e560020a62461bcd02815260206004820152602960248201526000805160206123848339815191526044820152600080516020612364833981519152606482015290519081900360840190fd5b600160a060020a0381161515611c9a57600080fd5b6000805473ffffffffffffffffffffffffffffffffffffffff1916600160a060020a0392909216919091179055565b600080546040805160e060020a63162790550281523360048201529051600160a060020a03909216926316279055926024808401936020939083900390910190829087803b158015611d1a57600080fd5b505af1158015611d2e573d6000803e3d6000fd5b505050506040513d6020811015611d4457600080fd5b50511515611d9e576040805160e560020a62461bcd02815260206004820152602960248201526000805160206123848339815191526044820152600080516020612364833981519152606482015290519081900360840190fd5b600091825260036020526040909120805473ffffffffffffffffffffffffffffffffffffffff1916600160a060020a03909216919091179055565b60009081526003602052604090206001015490565b600080546040805160e060020a63162790550281523360048201529051600160a060020a03909216926316279055926024808401936020939083900390910190829087803b158015611e3f57600080fd5b505af1158015611e53573d6000803e3d6000fd5b505050506040513d6020811015611e6957600080fd5b50511515611ec3576040805160e560020a62461bcd02815260206004820152602960248201526000805160206123848339815191526044820152600080516020612364833981519152606482015290519081900360840190fd5b600160a060020a0382161515611ed857600080fd5b6000928352600460209081526040808520600160a060020a039094168552929052912060020155565b600080546040805160e060020a63162790550281523360048201529051600160a060020a03909216926316279055926024808401936020939083900390910190829087803b158015611f5257600080fd5b505af1158015611f66573d6000803e3d6000fd5b505050506040513d6020811015611f7c57600080fd5b50511515611fd6576040805160e560020a62461bcd02815260206004820152602960248201526000805160206123848339815191526044820152600080516020612364833981519152606482015290519081900360840190fd5b60009182526003602052604090912060060155565b600360208190526000918252604090912080546001820154600283015493830154600484015460058501546006860154600787015460088801546009890154600a90990154600160a060020a0390981699969896979596949593949293919290918b565b600080546040805160e060020a63162790550281523360048201529051600160a060020a03909216926316279055926024808401936020939083900390910190829087803b1580156120a057600080fd5b505af11580156120b4573d6000803e3d6000fd5b505050506040513d60208110156120ca57600080fd5b50511515612124576040805160e560020a62461bcd02815260206004820152602960248201526000805160206123848339815191526044820152600080516020612364833981519152606482015290519081900360840190fd5b60009182526002602052604090912055565b600080546040805160e060020a63162790550281523360048201529051600160a060020a03909216926316279055926024808401936020939083900390910190829087803b15801561218757600080fd5b505af115801561219b573d6000803e3d6000fd5b505050506040513d60208110156121b157600080fd5b5051151561220b576040805160e560020a62461bcd02815260206004820152602960248201526000805160206123848339815191526044820152600080516020612364833981519152606482015290519081900360840190fd5b600091825260036020526040909120600a0155565b600080546040805160e060020a63162790550281523360048201529051600160a060020a03909216926316279055926024808401936020939083900390910190829087803b15801561227157600080fd5b505af1158015612285573d6000803e3d6000fd5b505050506040513d602081101561229b57600080fd5b505115156122f5576040805160e560020a62461bcd02815260206004820152602960248201526000805160206123848339815191526044820152600080516020612364833981519152606482015290519081900360840190fd5b600155565b6000908152600360205260409020600a015490565b60009081526003602052604090206005015490565b60009081526003602052604090206004015490565b60009081526003602052604090206009015490565b6000908152600360205260409020600801549056006f6e74726163747321000000000000000000000000000000000000000000000046756e6374696f6e2063616e206f6e6c792062652063616c6c65642062792063a165627a7a72305820007943701df50133c9e4b5f383dbf3828a4c0f6e7ba7a009fe6aa3d857f5a8850029",
  "source": "pragma solidity ^0.4.24;\n\nimport './Hub.sol';\n\ncontract HoldingStorage {\n    Hub public hub;\n\n    constructor(address hubAddress) public{\n        hub = Hub(hubAddress);\n    }\n\n    modifier onlyContracts() {\n        require(hub.isContract(msg.sender),\n            \"Function can only be called by contracts!\");\n        _;\n    }\n\n    uint256 public difficultyOverride;\n    function getDifficultyOverride()\n    public view returns (uint256) {\n        return difficultyOverride;\n    }\n    function setDifficultyOverride(uint256 new_difficulty)\n    public onlyContracts {\n        difficultyOverride = new_difficulty;\n    }\n\n    mapping(bytes32 => bytes32) public fingerprint;\n\n    function setFingerprint(bytes32 dataSetId, bytes32 dataRootHash)\n    public onlyContracts {\n        fingerprint[dataSetId] = dataRootHash;\n    }\n\n    struct OfferDefinition {\n        address creator;\n        bytes32 dataSetId;\n\n        uint256 holdingTimeInMinutes;\n        uint256 tokenAmountPerHolder;\n        uint256 litigationIntervalInMinutes;\n\n        bytes32 task;\n        uint256 difficulty;\n\n        bytes32 redLitigationHash;\n        bytes32 greenLitigationHash;\n        bytes32 blueLitigationHash;\n\n        uint256 startTime;\n    }\n    mapping(bytes32 => OfferDefinition) public offer; // offer[offerId];\n\n    function getOfferCreator (bytes32 offerId)\n    public view returns(address creator){\n        return offer[offerId].creator;\n    }\n    function getOfferDataSetId (bytes32 offerId)\n    public view returns(bytes32 dataSetId){\n        return offer[offerId].dataSetId;\n    }\n    function getOfferHoldingTimeInMinutes (bytes32 offerId)\n    public view returns(uint256 holdingTimeInMinutes){\n        return offer[offerId].holdingTimeInMinutes;\n    }\n    function getOfferTokenAmountPerHolder (bytes32 offerId)\n    public view returns(uint256 tokenAmountPerHolder){\n        return offer[offerId].tokenAmountPerHolder;\n    }\n    function getOfferLitigationIntervalInMinutes (bytes32 offerId)\n    public view returns(uint256 litigationIntervalInMinutes){\n        return offer[offerId].litigationIntervalInMinutes;\n    }\n    function getOfferTask (bytes32 offerId)\n    public view returns(bytes32 task){\n        return offer[offerId].task;\n    }\n    function getOfferDifficulty (bytes32 offerId)\n    public view returns(uint256 difficulty){\n        return offer[offerId].difficulty;\n    }\n    function getOfferRedLitigationHash (bytes32 offerId)\n    public view returns(bytes32 redLitigationHash){\n        return offer[offerId].redLitigationHash;\n    }\n    function getOfferGreenLitigationHash (bytes32 offerId)\n    public view returns(bytes32 greenLitigationHash){\n        return offer[offerId].greenLitigationHash;\n    }\n    function getOfferBlueLitigationHash (bytes32 offerId)\n    public view returns(bytes32 blueLitigationHash){\n        return offer[offerId].blueLitigationHash;\n    }\n    function getOfferStartTime (bytes32 offerId)\n    public view returns(uint256 startTime){\n        return offer[offerId].startTime;\n    }\n\n    function setOfferCreator (bytes32 offerId, address creator)\n    public onlyContracts {\n        offer[offerId].creator = creator;\n    }\n    function setOfferDataSetId (bytes32 offerId, bytes32 dataSetId)\n    public onlyContracts {\n        offer[offerId].dataSetId = dataSetId;\n    }\n    function setOfferHoldingTimeInMinutes (bytes32 offerId, uint256 holdingTimeInMinutes)\n    public onlyContracts {\n        offer[offerId].holdingTimeInMinutes = holdingTimeInMinutes;\n    }\n    function setOfferTokenAmountPerHolder (bytes32 offerId, uint256 tokenAmountPerHolder)\n    public onlyContracts {\n        offer[offerId].tokenAmountPerHolder = tokenAmountPerHolder;\n    }\n    function setOfferLitigationIntervalInMinutes (bytes32 offerId, uint256 litigationIntervalInMinutes)\n    public onlyContracts {\n        offer[offerId].litigationIntervalInMinutes = litigationIntervalInMinutes;\n    }\n    function setOfferTask (bytes32 offerId, bytes32 task)\n    public onlyContracts {\n        offer[offerId].task = task;\n    }\n    function setOfferDifficulty (bytes32 offerId, uint256 difficulty)\n    public onlyContracts {\n        offer[offerId].difficulty = difficulty;\n    }\n    function setOfferRedLitigationHash (bytes32 offerId, bytes32 redLitigationHash)\n    public onlyContracts {\n        offer[offerId].redLitigationHash = redLitigationHash;\n    }\n    function setOfferGreenLitigationHash (bytes32 offerId, bytes32 greenLitigationHash)\n    public onlyContracts {\n        offer[offerId].greenLitigationHash = greenLitigationHash;\n    }\n    function setOfferBlueLitigationHash (bytes32 offerId, bytes32 blueLitigationHash)\n    public onlyContracts {\n        offer[offerId].blueLitigationHash = blueLitigationHash;\n    }\n    function setOfferStartTime (bytes32 offerId, uint256 startTime)\n    public onlyContracts {\n        offer[offerId].startTime = startTime;\n    }\n    function setOfferParameters (\n        bytes32 offerId,\n        address creator,\n        bytes32 dataSetId,\n        uint256 holdingTimeInMinutes,\n        uint256 tokenAmountPerHolder,\n        uint256 litigationIntervalInMinutes,\n        bytes32 task,\n        uint256 difficulty)\n    public onlyContracts {\n        offer[offerId].creator = creator;\n        offer[offerId].dataSetId = dataSetId;\n        offer[offerId].holdingTimeInMinutes = holdingTimeInMinutes;\n        offer[offerId].tokenAmountPerHolder = tokenAmountPerHolder;\n        offer[offerId].litigationIntervalInMinutes = litigationIntervalInMinutes;\n        if(offer[offerId].task != task) offer[offerId].task = task;\n        offer[offerId].difficulty = difficulty;\n    }\n    function setOfferLitigationHashes (\n        bytes32 offerId,\n        bytes32 redLitigationHash,\n        bytes32 greenLitigationHash,\n        bytes32 blueLitigationHash)\n    public onlyContracts {\n        offer[offerId].redLitigationHash = redLitigationHash;\n        offer[offerId].greenLitigationHash = greenLitigationHash;\n        offer[offerId].blueLitigationHash = blueLitigationHash;\n    }\n\n\n    struct HolderDefinition {\n        uint256 stakedAmount;\n        uint256 paidAmount;\n        uint256 litigationEncryptionType;\n\n        uint256 paymentTimestamp;\n    }\n    mapping(bytes32 => mapping(address => HolderDefinition)) public holder; // holder[offerId][address];\n\n    function setHolders(\n        bytes32 offerId,\n        address[] identities,\n        uint8[] litigationEncryptionTypes)\n    public onlyContracts {\n        offer[offerId].startTime = block.timestamp;\n\n        holder[offerId][identities[0]].stakedAmount = offer[offerId].tokenAmountPerHolder;\n        if(holder[offerId][identities[0]].litigationEncryptionType != litigationEncryptionTypes[0])\n            holder[offerId][identities[0]].litigationEncryptionType = litigationEncryptionTypes[0];\n\n        holder[offerId][identities[1]].stakedAmount = offer[offerId].tokenAmountPerHolder;\n        if(holder[offerId][identities[1]].litigationEncryptionType != litigationEncryptionTypes[1])\n            holder[offerId][identities[1]].litigationEncryptionType = litigationEncryptionTypes[1];\n\n        holder[offerId][identities[2]].stakedAmount = offer[offerId].tokenAmountPerHolder;\n        if(holder[offerId][identities[2]].litigationEncryptionType != litigationEncryptionTypes[2])\n            holder[offerId][identities[2]].litigationEncryptionType = litigationEncryptionTypes[2];\n\n        holder[offerId][identities[0]].paymentTimestamp = block.timestamp;\n        holder[offerId][identities[1]].paymentTimestamp = block.timestamp;\n        holder[offerId][identities[2]].paymentTimestamp = block.timestamp;\n    }\n    function setHolderStakedAmount (bytes32 offerId, address identity, uint256 stakedAmount)\n    public onlyContracts {\n        require(identity!=address(0));\n        holder[offerId][identity].stakedAmount = stakedAmount;\n    }\n    function setHolderPaidAmount (bytes32 offerId, address identity, uint256 paidAmount)\n    public onlyContracts {\n        require(identity!=address(0));\n        holder[offerId][identity].paidAmount = paidAmount;\n    }\n    function setHolderLitigationEncryptionType(bytes32 offerId, address identity, uint256 litigationEncryptionType)\n    public onlyContracts {\n        require(identity!=address(0));\n        holder[offerId][identity].litigationEncryptionType = litigationEncryptionType;\n    }\n    function setHolderPaymentTimestamp(bytes32 offerId, address identity, uint256 paymentTimestamp)\n    public onlyContracts {\n        holder[offerId][identity].paymentTimestamp = paymentTimestamp;\n    }\n\n    function getHolderStakedAmount (bytes32 offerId, address identity)\n    public view returns(uint256 stakedAmount) {\n        require(identity!=address(0));\n        return holder[offerId][identity].stakedAmount;\n    }\n    function getHolderPaidAmount (bytes32 offerId, address identity)\n    public view returns(uint256 paidAmount) {\n        require(identity!=address(0));\n        return holder[offerId][identity].paidAmount;\n    }\n    function getHolderLitigationEncryptionType(bytes32 offerId, address identity)\n    public view returns(uint256 litigationEncryptionType) {\n        require(identity!=address(0));\n        return holder[offerId][identity].litigationEncryptionType;\n    }\n    function getHolderPaymentTimestamp(bytes32 offerId, address identity)\n    public view returns(uint256 paymentTimestamp) {\n        return holder[offerId][identity].paymentTimestamp;\n    }\n    function setHubAddress(address newHubAddress)\n    public onlyContracts {\n        require(newHubAddress!=address(0));\n        hub = Hub(newHubAddress);\n    }\n}\n",
  "sourcePath": "/Users/miloskotlar/ot-node/modules/Blockchain/Polygon/contracts/HoldingStorage.sol",
  "compiler": {
    "name": "solc",
    "version": "0.4.25+commit.59dbf8f1.Emscripten.clang"
  },
  "schemaVersion": "3.0.0-beta.1",
  "updatedAt": "2021-08-16T09:42:48.507Z"
}