{
  "contractName": "Holding",
  "abi": [
    {
      "constant": true,
      "inputs": [],
      "name": "hub",
      "outputs": [
        {
          "name": "",
          "type": "address"
        }
      ],
      "payable": false,
      "stateMutability": "view",
      "type": "function",
      "signature": "0x365a86fc"
    },
    {
      "constant": true,
      "inputs": [],
      "name": "difficultyOverride",
      "outputs": [
        {
          "name": "",
          "type": "uint256"
        }
      ],
      "payable": false,
      "stateMutability": "view",
      "type": "function",
      "signature": "0x67ebbdc6"
    },
    {
      "constant": true,
      "inputs": [],
      "name": "owner",
      "outputs": [
        {
          "name": "",
          "type": "address"
        }
      ],
      "payable": false,
      "stateMutability": "view",
      "type": "function",
      "signature": "0x8da5cb5b"
    },
    {
      "constant": false,
      "inputs": [
        {
          "name": "newOwner",
          "type": "address"
        }
      ],
      "name": "transferOwnership",
      "outputs": [],
      "payable": false,
      "stateMutability": "nonpayable",
      "type": "function",
      "signature": "0xf2fde38b"
    },
    {
      "inputs": [
        {
          "name": "hubAddress",
          "type": "address"
        }
      ],
      "payable": false,
      "stateMutability": "nonpayable",
      "type": "constructor",
      "signature": "constructor"
    },
    {
      "anonymous": false,
      "inputs": [
        {
          "indexed": false,
          "name": "dataSetId",
          "type": "bytes32"
        },
        {
          "indexed": false,
          "name": "dcNodeId",
          "type": "bytes32"
        },
        {
          "indexed": false,
          "name": "offerId",
          "type": "bytes32"
        },
        {
          "indexed": false,
          "name": "task",
          "type": "bytes32"
        }
      ],
      "name": "OfferTask",
      "type": "event",
      "signature": "0xc02335f4c444cce217a60853f6fd34ba3e698ba52c208883d975253732055495"
    },
    {
      "anonymous": false,
      "inputs": [
        {
          "indexed": false,
          "name": "offerId",
          "type": "bytes32"
        },
        {
          "indexed": false,
          "name": "dataSetId",
          "type": "bytes32"
        },
        {
          "indexed": false,
          "name": "dcNodeId",
          "type": "bytes32"
        },
        {
          "indexed": false,
          "name": "holdingTimeInMinutes",
          "type": "uint256"
        },
        {
          "indexed": false,
          "name": "dataSetSizeInBytes",
          "type": "uint256"
        },
        {
          "indexed": false,
          "name": "tokenAmountPerHolder",
          "type": "uint256"
        },
        {
          "indexed": false,
          "name": "litigationIntervalInMinutes",
          "type": "uint256"
        }
      ],
      "name": "OfferCreated",
      "type": "event",
      "signature": "0xb9705efa5b8a53b16627c24baa6d9acb1767218fe3bcfeb0b4e26a4325ef79cf"
    },
    {
      "anonymous": false,
      "inputs": [
        {
          "indexed": false,
          "name": "offerId",
          "type": "bytes32"
        },
        {
          "indexed": false,
          "name": "holder1",
          "type": "address"
        },
        {
          "indexed": false,
          "name": "holder2",
          "type": "address"
        },
        {
          "indexed": false,
          "name": "holder3",
          "type": "address"
        }
      ],
      "name": "OfferFinalized",
      "type": "event",
      "signature": "0xeac1e15fac392f7eb69fb5accdf5e9892330f41cd8fa89933c2d2c8c68e4d4a7"
    },
    {
      "anonymous": false,
      "inputs": [
        {
          "indexed": false,
          "name": "offerId",
          "type": "bytes32"
        },
        {
          "indexed": false,
          "name": "holder",
          "type": "address"
        },
        {
          "indexed": false,
          "name": "amount",
          "type": "uint256"
        }
      ],
      "name": "PaidOut",
      "type": "event",
      "signature": "0xf4292e0ae547c949263a88899ebcdac1a5493bef4f206b7592b5a7de68f4c0de"
    },
    {
      "anonymous": false,
      "inputs": [
        {
          "indexed": true,
          "name": "previousOwner",
          "type": "address"
        },
        {
          "indexed": true,
          "name": "newOwner",
          "type": "address"
        }
      ],
      "name": "OwnershipTransferred",
      "type": "event",
      "signature": "0x8be0079c531659141344cd1fd0a4f28419497f9722a3daafe3b4186f6b6457e0"
    },
    {
      "constant": false,
      "inputs": [
        {
          "name": "newHubAddress",
          "type": "address"
        }
      ],
      "name": "setHubAddress",
      "outputs": [],
      "payable": false,
      "stateMutability": "nonpayable",
      "type": "function",
      "signature": "0xc7eb4522"
    },
    {
      "constant": false,
      "inputs": [
        {
          "name": "identity",
          "type": "address"
        },
        {
          "name": "dataSetId",
          "type": "uint256"
        },
        {
          "name": "dataRootHash",
          "type": "uint256"
        },
        {
          "name": "redLitigationHash",
          "type": "uint256"
        },
        {
          "name": "greenLitigationHash",
          "type": "uint256"
        },
        {
          "name": "blueLitigationHash",
          "type": "uint256"
        },
        {
          "name": "dcNodeId",
          "type": "uint256"
        },
        {
          "name": "holdingTimeInMinutes",
          "type": "uint256"
        },
        {
          "name": "tokenAmountPerHolder",
          "type": "uint256"
        },
        {
          "name": "dataSetSizeInBytes",
          "type": "uint256"
        },
        {
          "name": "litigationIntervalInMinutes",
          "type": "uint256"
        }
      ],
      "name": "createOffer",
      "outputs": [],
      "payable": false,
      "stateMutability": "nonpayable",
      "type": "function",
      "signature": "0x212c3925"
    },
    {
      "constant": false,
      "inputs": [
        {
          "name": "identity",
          "type": "address"
        },
        {
          "name": "offerId",
          "type": "uint256"
        },
        {
          "name": "shift",
          "type": "uint256"
        },
        {
          "name": "confirmation1",
          "type": "bytes"
        },
        {
          "name": "confirmation2",
          "type": "bytes"
        },
        {
          "name": "confirmation3",
          "type": "bytes"
        },
        {
          "name": "encryptionType",
          "type": "uint8[]"
        },
        {
          "name": "holderIdentity",
          "type": "address[]"
        },
        {
          "name": "parentIdentity",
          "type": "address"
        }
      ],
      "name": "finalizeOffer",
      "outputs": [],
      "payable": false,
      "stateMutability": "nonpayable",
      "type": "function",
      "signature": "0x1f0a07df"
    },
    {
      "constant": false,
      "inputs": [
        {
          "name": "identity",
          "type": "address"
        },
        {
          "name": "offerId",
          "type": "uint256"
        }
      ],
      "name": "payOut",
      "outputs": [],
      "payable": false,
      "stateMutability": "nonpayable",
      "type": "function",
      "signature": "0x0221038a"
    }
  ],
  "bytecode": "0x60806040523480156200001157600080fd5b5060405160208062005fb6833981016040525160008054600160a060020a03191633179055600160a060020a03811615156200004c57600080fd5b60018054600160a060020a031916600160a060020a0392909216919091179055615f3a806200007c6000396000f3006080604052600436106100745763ffffffff60e060020a6000350416630221038a81146100795780631f0a07df1461009f578063212c392514610204578063365a86fc1461024657806367ebbdc6146102775780638da5cb5b1461029e578063c7eb4522146102b3578063f2fde38b146102d4575b600080fd5b34801561008557600080fd5b5061009d600160a060020a03600435166024356102f5565b005b3480156100ab57600080fd5b50604080516020601f60643560048181013592830184900484028501840190955281845261009d94600160a060020a03813516946024803595604435953695608494930191819084018382808284375050604080516020601f89358b018035918201839004830284018301909452808352979a99988101979196509182019450925082915084018382808284375050604080516020601f89358b018035918201839004830284018301909452808352979a999881019791965091820194509250829150840183828082843750506040805187358901803560208181028481018201909552818452989b9a998901989297509082019550935083925085019084908082843750506040805187358901803560208181028481018201909552818452989b9a99890198929750908201955093508392508501908490808284375094975050509235600160a060020a031693506117e492505050565b34801561021057600080fd5b5061009d600160a060020a036004351660243560443560643560843560a43560c43560e435610104356101243561014435612bbc565b34801561025257600080fd5b5061025b613e17565b60408051600160a060020a039092168252519081900360200190f35b34801561028357600080fd5b5061028c613e26565b60408051918252519081900360200190f35b3480156102aa57600080fd5b5061025b613e2c565b3480156102bf57600080fd5b5061009d600160a060020a0360043516613e3b565b3480156102e057600080fd5b5061009d600160a060020a0360043516613f78565b6001546040805160e260020a630110ceef028152602060048201819052600e6024830152600080516020615eef8339815191526044830152915160009384938493849384938493600160a060020a03909116926304433bbc926064808301939282900301818787803b15801561036a57600080fd5b505af115801561037e573d6000803e3d6000fd5b505050506040513d602081101561039457600080fd5b505160408051606060020a3302602082810191909152825180830360140181526034909201928390528151939950600160a060020a038c169363d202158d93918291908401908083835b602083106103fd5780518252601f1990920191602091820191016103de565b51815160209384036101000a60001901801990921691161790526040805192909401829003822063ffffffff881660e060020a028352600483015260026024830152925160448083019650939450929083900301905081600087803b15801561046557600080fd5b505af1158015610479573d6000803e3d6000fd5b505050506040513d602081101561048f57600080fd5b5051806105a2575087600160a060020a031663d202158d336040516020018082600160a060020a0316600160a060020a0316606060020a0281526014019150506040516020818303038152906040526040518082805190602001908083835b6020831061050d5780518252601f1990920191602091820191016104ee565b51815160209384036101000a60001901801990921691161790526040805192909401829003822063ffffffff881660e060020a028352600483015260016024830152925160448083019650939450929083900301905081600087803b15801561057557600080fd5b505af1158015610589573d6000803e3d6000fd5b505050506040513d602081101561059f57600080fd5b50515b151561061e576040805160e560020a62461bcd02815260206004820152603d60248201527f53656e64657220646f6573206e6f7420686176652070726f706572207065726d60448201527f697373696f6e20746f2063616c6c20746869732066756e6374696f6e21000000606482015290519081900360840190fd5b6001546040805160e260020a630110ceef028152602060048201819052600860248301527f417070726f76616c00000000000000000000000000000000000000000000000060448301529151600160a060020a03909316926304433bbc926064808401939192918290030181600087803b15801561069b57600080fd5b505af11580156106af573d6000803e3d6000fd5b505050506040513d60208110156106c557600080fd5b5051604080517f97fa8406000000000000000000000000000000000000000000000000000000008152600160a060020a038b81166004830152915191909216916397fa84069160248083019260209291908290030181600087803b15801561072c57600080fd5b505af1158015610740573d6000803e3d6000fd5b505050506040513d602081101561075657600080fd5b505115156107d4576040805160e560020a62461bcd02815260206004820152603660248201527f4964656e7469747920646f6573206e6f74206861766520617070726f76616c2060448201527f666f72207573696e672074686520636f6e747261637400000000000000000000606482015290519081900360840190fd5b6001546040805160e260020a630110ceef028152602060048201819052601160248301527f4c697469676174696f6e53746f7261676500000000000000000000000000000060448301529151600160a060020a03909316926304433bbc926064808401939192918290030181600087803b15801561085157600080fd5b505af1158015610865573d6000803e3d6000fd5b505050506040513d602081101561087b57600080fd5b5051604080517f59485c7e000000000000000000000000000000000000000000000000000000008152600481018a9052600160a060020a038b81166024830152915191909216916359485c7e9160448083019260209291908290030181600087803b1580156108e957600080fd5b505af11580156108fd573d6000803e3d6000fd5b505050506040513d602081101561091357600080fd5b50516001546040805160e260020a630110ceef028152602060048201819052601160248301527f4c697469676174696f6e53746f7261676500000000000000000000000000000060448301529151939850600160a060020a03909216926304433bbc9260648082019392918290030181600087803b15801561099457600080fd5b505af11580156109a8573d6000803e3d6000fd5b505050506040513d60208110156109be57600080fd5b5051604080517f15a4aeb1000000000000000000000000000000000000000000000000000000008152600481018a9052600160a060020a038b81166024830152915191909216916315a4aeb19160448083019260209291908290030181600087803b158015610a2c57600080fd5b505af1158015610a40573d6000803e3d6000fd5b505050506040513d6020811015610a5657600080fd5b50516001546040805160e260020a630110ceef028152602060048201819052600e6024830152600080516020615eef83398151915260448301529151939750610b9193603c93600160a060020a0316926304433bbc92606480820193918290030181600087803b158015610ac957600080fd5b505af1158015610add573d6000803e3d6000fd5b505050506040513d6020811015610af357600080fd5b5051604080517febaa7432000000000000000000000000000000000000000000000000000000008152600481018c90529051600160a060020a039092169163ebaa7432916024808201926020929091908290030181600087803b158015610b5957600080fd5b505af1158015610b6d573d6000803e3d6000fd5b505050506040513d6020811015610b8357600080fd5b50519063ffffffff61407d16565b92506001856004811115610ba157fe5b1415610c3b5742610bb984600263ffffffff61407d16565b850110610c36576040805160e560020a62461bcd02815260206004820152603160248201527f556e616e737765726564206c697469676174696f6e20696e2070726f6772657360448201527f732c2063616e6e6f7420706179206f7574000000000000000000000000000000606482015290519081900360840190fd5b610d57565b6002856004811115610c4957fe5b1415610cce574284840110610c36576040805160e560020a62461bcd02815260206004820152603160248201527f556e616e737765726564206c697469676174696f6e20696e2070726f6772657360448201527f732c2063616e6e6f7420706179206f7574000000000000000000000000000000606482015290519081900360840190fd5b6000856004811115610cdc57fe5b14610d57576040805160e560020a62461bcd02815260206004820152603960248201527f4461746120686f6c646572206973207265706c61636564206f72206265696e6760448201527f207265706c616365642c2063616e6e6f74207061796f75742100000000000000606482015290519081900360840190fd5b6040805160e060020a6338d525f102815260048101899052600160a060020a038a8116602483015291516000928916916338d525f191604480830192602092919082900301818787803b158015610dad57600080fd5b505af1158015610dc1573d6000803e3d6000fd5b505050506040513d6020811015610dd757600080fd5b505111610e53576040805160e560020a62461bcd028152602060048201526024808201527f53656e646572206973206e6f7420686f6c64696e67207468697320646174612060448201527f7365742100000000000000000000000000000000000000000000000000000000606482015290519081900360840190fd5b604080517f6c833cf5000000000000000000000000000000000000000000000000000000008152600481018990529051600160a060020a03881691636c833cf59160248083019260209291908290030181600087803b158015610eb557600080fd5b505af1158015610ec9573d6000803e3d6000fd5b505050506040513d6020811015610edf57600080fd5b5051604080517f809a05a7000000000000000000000000000000000000000000000000000000008152600481018a9052600160a060020a038b811660248301529151929450610f9c92610f8f928a169163809a05a79160448083019260209291908290030181600087803b158015610f5657600080fd5b505af1158015610f6a573d6000803e3d6000fd5b505050506040513d6020811015610f8057600080fd5b5051429063ffffffff6140a816565b839063ffffffff61407d16565b604080517fc2fb6096000000000000000000000000000000000000000000000000000000008152600481018a905290519193506110199161100c91603c91600160a060020a038b169163c2fb60969160248083019260209291908290030181600087803b158015610b5957600080fd5b839063ffffffff6140ba16565b6040805160e060020a6338d525f1028152600481018a9052600160a060020a038b811660248301529151929450908816916338d525f1916044808201926020929091908290030181600087803b15801561107257600080fd5b505af1158015611086573d6000803e3d6000fd5b505050506040513d602081101561109c57600080fd5b5051604080517f530bde3d000000000000000000000000000000000000000000000000000000008152600481018a9052600160a060020a038b811660248301529151611145928a169163530bde3d9160448083019260209291908290030181600087803b15801561110c57600080fd5b505af1158015611120573d6000803e3d6000fd5b505050506040513d602081101561113657600080fd5b5051849063ffffffff6140d116565b10611422576040805160e060020a6338d525f102815260048101899052600160a060020a038a811660248301529151918816916338d525f1916044808201926020929091908290030181600087803b1580156111a057600080fd5b505af11580156111b4573d6000803e3d6000fd5b505050506040513d60208110156111ca57600080fd5b5051604080517f530bde3d000000000000000000000000000000000000000000000000000000008152600481018a9052600160a060020a038b811660248301529151929450611278929189169163530bde3d916044808201926020929091908290030181600087803b15801561123f57600080fd5b505af1158015611253573d6000803e3d6000fd5b505050506040513d602081101561126957600080fd5b5051839063ffffffff6140a816565b9150811515611286576117da565b6001546040805160e260020a630110ceef028152602060048201819052600760248301527f50726f66696c650000000000000000000000000000000000000000000000000060448301529151600160a060020a03909316926304433bbc926064808401939192918290030181600087803b15801561130357600080fd5b505af1158015611317573d6000803e3d6000fd5b505050506040513d602081101561132d57600080fd5b50516040805160e060020a6338d525f1028152600481018a9052600160a060020a038b8116602483015291519282169263f40d71f1928c92908b16916338d525f1916044808201926020929091908290030181600087803b15801561139157600080fd5b505af11580156113a5573d6000803e3d6000fd5b505050506040513d60208110156113bb57600080fd5b50516040805160e060020a63ffffffff8616028152600160a060020a039093166004840152602483019190915251604480830192600092919082900301818387803b15801561140957600080fd5b505af115801561141d573d6000803e3d6000fd5b505050505b6001546040805160e260020a630110ceef028152602060048201819052600760248301527f50726f66696c650000000000000000000000000000000000000000000000000060448301529151600160a060020a03909316926304433bbc926064808401939192918290030181600087803b15801561149f57600080fd5b505af11580156114b3573d6000803e3d6000fd5b505050506040513d60208110156114c957600080fd5b5051604080517fa2657315000000000000000000000000000000000000000000000000000000008152600481018a90529051600160a060020a039283169263a64b6e5f92908a169163a2657315916024808201926020929091908290030181600087803b15801561153957600080fd5b505af115801561154d573d6000803e3d6000fd5b505050506040513d602081101561156357600080fd5b50516040805160e060020a63ffffffff8516028152600160a060020a039283166004820152918c1660248301526044820186905251606480830192600092919082900301818387803b1580156115b857600080fd5b505af11580156115cc573d6000803e3d6000fd5b5050604080517f91a70e4f000000000000000000000000000000000000000000000000000000008152600481018b9052600160a060020a038c811660248301524260448301529151918a1693506391a70e4f925060648082019260009290919082900301818387803b15801561164157600080fd5b505af1158015611655573d6000803e3d6000fd5b5050604080517f530bde3d000000000000000000000000000000000000000000000000000000008152600481018b9052600160a060020a038c811660248301529151918a16935063530bde3d92506044808201926020929091908290030181600087803b1580156116c557600080fd5b505af11580156116d9573d6000803e3d6000fd5b505050506040513d60208110156116ef57600080fd5b50519050611703818363ffffffff6140d116565b604080517f05c6ff60000000000000000000000000000000000000000000000000000000008152600481018a9052600160a060020a038b81166024830152604482018490529151929350908816916305c6ff609160648082019260009290919082900301818387803b15801561177857600080fd5b505af115801561178c573d6000803e3d6000fd5b5050604080518a8152600160a060020a038c16602082015280820186905290517ff4292e0ae547c949263a88899ebcdac1a5493bef4f206b7592b5a7de68f4c0de9350908190036060019150a15b5050505050505050565b60006117ee615ecf565b6001546040805160e260020a630110ceef028152602060048201819052600e6024830152600080516020615eef83398151915260448301529151600160a060020a03909316926304433bbc926064808401939192918290030181600087803b15801561185957600080fd5b505af115801561186d573d6000803e3d6000fd5b505050506040513d602081101561188357600080fd5b505160408051606060020a3302602082810191909152825180830360140181526034909201928390528151939550600160a060020a038f169363d202158d93918291908401908083835b602083106118ec5780518252601f1990920191602091820191016118cd565b51815160209384036101000a60001901801990921691161790526040805192909401829003822063ffffffff881660e060020a028352600483015260026024830152925160448083019650939450929083900301905081600087803b15801561195457600080fd5b505af1158015611968573d6000803e3d6000fd5b505050506040513d602081101561197e57600080fd5b505115156119fc576040805160e560020a62461bcd02815260206004820152603d60248201527f53656e64657220646f6573206e6f74206861766520616374696f6e207065726d60448201527f697373696f6e20746f2063616c6c20746869732066756e6374696f6e21000000606482015290519081900360840190fd5b600160a060020a03831615611b40576001546040805160e260020a630110ceef028152602060048201819052600f60248301527f4372656469746f7248616e646c6572000000000000000000000000000000000060448301529151600160a060020a03909316926304433bbc926064808401939192918290030181600087803b158015611a8857600080fd5b505af1158015611a9c573d6000803e3d6000fd5b505050506040513d6020811015611ab257600080fd5b5051604080517f9bcaee50000000000000000000000000000000000000000000000000000000008152600481018d9052600160a060020a038e81166024830152868116604483015291519190921691639bcaee5091606480830192600092919082900301818387803b158015611b2757600080fd5b505af1158015611b3b573d6000803e3d6000fd5b505050505b604080517fa2657315000000000000000000000000000000000000000000000000000000008152600481018c90529051600160a060020a0384169163a26573159160248083019260209291908290030181600087803b158015611ba257600080fd5b505af1158015611bb6573d6000803e3d6000fd5b505050506040513d6020811015611bcc57600080fd5b5051600160a060020a038c8116911614611c56576040805160e560020a62461bcd02815260206004820152602b60248201527f4f666665722063616e206f6e6c792062652066696e616c697a6564206279206960448201527f74732063726561746f7221000000000000000000000000000000000000000000606482015290519081900360840190fd5b604080517fe845c667000000000000000000000000000000000000000000000000000000008152600481018c90529051600160a060020a0384169163e845c6679160248083019260209291908290030181600087803b158015611cb857600080fd5b505af1158015611ccc573d6000803e3d6000fd5b505050506040513d6020811015611ce257600080fd5b505115611cee57600080fd5b836000815181101515611cfd57fe5b90602001906020020151600160a060020a031663d202158d611dc38c876000815181101515611d2857fe5b90602001906020020151600160a060020a031660405160200180838152602001828152602001925050506040516020818303038152906040526040518082805190602001908083835b60208310611d905780518252601f199092019160209182019101611d71565b6001836020036101000a03801982511681845116808217855250505050505090500191505060405180910390208b6140e0565b6040516020018082600160a060020a0316600160a060020a0316606060020a0281526014019150506040516020818303038152906040526040518082805190602001908083835b60208310611e295780518252601f199092019160209182019101611e0a565b51815160209384036101000a60001901801990921691161790526040805192909401829003822063ffffffff881660e060020a0283526004808401919091526024830152925160448083019650939450929083900301905081600087803b158015611e9357600080fd5b505af1158015611ea7573d6000803e3d6000fd5b505050506040513d6020811015611ebd57600080fd5b50511515611f3b576040805160e560020a62461bcd02815260206004820152603760248201527f57616c6c65742066726f6d20686f6c646572203120646f6573206e6f7420686160448201527f766520656e6372797074696f6e20617070726f76616c21000000000000000000606482015290519081900360840190fd5b836001815181101515611f4a57fe5b90602001906020020151600160a060020a031663d202158d6120108c876001815181101515611f7557fe5b90602001906020020151600160a060020a031660405160200180838152602001828152602001925050506040516020818303038152906040526040518082805190602001908083835b60208310611fdd5780518252601f199092019160209182019101611fbe565b6001836020036101000a03801982511681845116808217855250505050505090500191505060405180910390208a6140e0565b6040516020018082600160a060020a0316600160a060020a0316606060020a0281526014019150506040516020818303038152906040526040518082805190602001908083835b602083106120765780518252601f199092019160209182019101612057565b51815160209384036101000a60001901801990921691161790526040805192909401829003822063ffffffff881660e060020a0283526004808401919091526024830152925160448083019650939450929083900301905081600087803b1580156120e057600080fd5b505af11580156120f4573d6000803e3d6000fd5b505050506040513d602081101561210a57600080fd5b50511515612188576040805160e560020a62461bcd02815260206004820152603760248201527f57616c6c65742066726f6d20686f6c646572203220646f6573206e6f7420686160448201527f766520656e6372797074696f6e20617070726f76616c21000000000000000000606482015290519081900360840190fd5b83600281518110151561219757fe5b90602001906020020151600160a060020a031663d202158d61225d8c8760028151811015156121c257fe5b90602001906020020151600160a060020a031660405160200180838152602001828152602001925050506040516020818303038152906040526040518082805190602001908083835b6020831061222a5780518252601f19909201916020918201910161220b565b6001836020036101000a0380198251168184511680821785525050505050509050019150506040518091039020896140e0565b6040516020018082600160a060020a0316600160a060020a0316606060020a0281526014019150506040516020818303038152906040526040518082805190602001908083835b602083106122c35780518252601f1990920191602091820191016122a4565b51815160209384036101000a60001901801990921691161790526040805192909401829003822063ffffffff881660e060020a0283526004808401919091526024830152925160448083019650939450929083900301905081600087803b15801561232d57600080fd5b505af1158015612341573d6000803e3d6000fd5b505050506040513d602081101561235757600080fd5b505115156123d5576040805160e560020a62461bcd02815260206004820152603760248201527f57616c6c65742066726f6d20686f6c646572203320646f6573206e6f7420686160448201527f766520656e6372797074696f6e20617070726f76616c21000000000000000000606482015290519081900360840190fd5b8360008151811015156123e457fe5b60209081029091018101516040805160e460020a630ea1ef45028152600481018e905290519192600160a060020a0386169263ea1ef4509260248082019392918290030181600087803b15801561243a57600080fd5b505af115801561244e573d6000803e3d6000fd5b505050506040513d602081101561246457600080fd5b505160408051600160a060020a0393909316606060020a026020808501919091526034808501939093528151808503909301835260549093019081905281519192909182918401908083835b602083106124cf5780518252601f1990920191602091820191016124b0565b5181516020939093036101000a60001901801990911692169190911790526040519201829003909120845250508451859150600190811061250c57fe5b60209081029091018101516040805160e460020a630ea1ef45028152600481018e905290519192600160a060020a0386169263ea1ef4509260248082019392918290030181600087803b15801561256257600080fd5b505af1158015612576573d6000803e3d6000fd5b505050506040513d602081101561258c57600080fd5b505160408051600160a060020a0393909316606060020a026020808501919091526034808501939093528151808503909301835260549093019081905281519192909182918401908083835b602083106125f75780518252601f1990920191602091820191016125d8565b51815160001960209485036101000a0190811690199091161790526040519190930181900390209185019190915250508451859150600290811061263757fe5b60209081029091018101516040805160e460020a630ea1ef45028152600481018e905290519192600160a060020a0386169263ea1ef4509260248082019392918290030181600087803b15801561268d57600080fd5b505af11580156126a1573d6000803e3d6000fd5b505050506040513d60208110156126b757600080fd5b505160408051600160a060020a0393909316606060020a026020808501919091526034808501939093528151808503909301835260549093019081905281519192909182918401908083835b602083106127225780518252601f199092019160209182019101612703565b51815160209384036101000a600019018019909216911617905260408051949092018490039093209086015250830151835110915050801561276b575060408101516020820151105b15156127c1576040805160e560020a62461bcd02815260206004820152601f60248201527f536f6c7574696f6e2068617368657320617265206e6f7420736f727465642100604482015290519081900360640190fd5b6040805160e460020a630ea1ef45028152600481018c90529051600160a060020a0384169163ea1ef4509160248083019260209291908290030181600087803b15801561280d57600080fd5b505af1158015612821573d6000803e3d6000fd5b505050506040513d602081101561283757600080fd5b5051604080517f1535f574000000000000000000000000000000000000000000000000000000008152600481018d90529051600191600160a060020a03861691631535f574916024808201926020929091908290030181600087803b15801561289f57600080fd5b505af11580156128b3573d6000803e3d6000fd5b505050506040513d60208110156128c957600080fd5b5051835160208086015160408088015181518085019590955284820192909252606080850192909252805180850390920182526080909301928390528051600494850260020a9590950394938f02939092918291908401908083835b602083106129445780518252601f199092019160209182019101612925565b6001836020036101000a0380198251168184511680821785525050505050509050019150506040518091039020600019169060020a900416600019161415156129fd576040805160e560020a62461bcd02815260206004820152603660248201527f5375626d6974746564206964656e74697469657320646f206e6f7420616e737760448201527f657220746865207461736b20636f72726563746c792100000000000000000000606482015290519081900360840190fd5b6040517f17d79cd9000000000000000000000000000000000000000000000000000000008152600481018b8152606060248301908152865160648401528651600160a060020a038616936317d79cd9938f938a938c9360448101916084909101906020808801910280838360005b83811015612a83578181015183820152602001612a6b565b50505050905001838103825284818151815260200191508051906020019060200280838360005b83811015612ac2578181015183820152602001612aaa565b5050505090500195505050505050600060405180830381600087803b158015612aea57600080fd5b505af1158015612afe573d6000803e3d6000fd5b50505050612b0d8a8c866142bc565b7feac1e15fac392f7eb69fb5accdf5e9892330f41cd8fa89933c2d2c8c68e4d4a78a600102856000815181101515612b4157fe5b90602001906020020151866001815181101515612b5a57fe5b90602001906020020151876002815181101515612b7357fe5b602090810290910181015160408051958652600160a060020a03948516928601929092529183168482015291166060830152519081900360800190a15050505050505050505050565b6000808c600160a060020a031663d202158d336040516020018082600160a060020a0316600160a060020a0316606060020a0281526014019150506040516020818303038152906040526040518082805190602001908083835b60208310612c355780518252601f199092019160209182019101612c16565b51815160209384036101000a60001901801990921691161790526040805192909401829003822063ffffffff881660e060020a028352600483015260026024830152925160448083019650939450929083900301905081600087803b158015612c9d57600080fd5b505af1158015612cb1573d6000803e3d6000fd5b505050506040513d6020811015612cc757600080fd5b50511515612cd457600080fd5b6001546040805160e260020a630110ceef028152602060048201819052600860248301527f417070726f76616c00000000000000000000000000000000000000000000000060448301529151600160a060020a03909316926304433bbc926064808401939192918290030181600087803b158015612d5157600080fd5b505af1158015612d65573d6000803e3d6000fd5b505050506040513d6020811015612d7b57600080fd5b8101908080519060200190929190505050600160a060020a03166397fa84068e6040518263ffffffff1660e060020a0281526004018082600160a060020a0316600160a060020a03168152602001915050602060405180830381600087803b158015612de657600080fd5b505af1158015612dfa573d6000803e3d6000fd5b505050506040513d6020811015612e1057600080fd5b50511515612e8e576040805160e560020a62461bcd02815260206004820152603660248201527f4964656e7469747920646f6573206e6f74206861766520617070726f76616c2060448201527f666f72207573696e672074686520636f6e747261637400000000000000000000606482015290519081900360840190fd5b8a1515612ee5576040805160e560020a62461bcd02815260206004820152601d60248201527f4461746120726f6f7420686173682063616e6e6f74206265207a65726f000000604482015290519081900360640190fd5b891515612f3c576040805160e560020a62461bcd02815260206004820152601e60248201527f4c697469676174696f6e20686173682063616e6e6f74206265207a65726f0000604482015290519081900360640190fd5b881515612fb9576040805160e560020a62461bcd02815260206004820152602360248201527f4c697469676174696f6e20726f6f7420686173682063616e6e6f74206265207a60448201527f65726f0000000000000000000000000000000000000000000000000000000000606482015290519081900360840190fd5b871515613036576040805160e560020a62461bcd02815260206004820152602360248201527f4c697469676174696f6e20726f6f7420686173682063616e6e6f74206265207a60448201527f65726f0000000000000000000000000000000000000000000000000000000000606482015290519081900360840190fd5b6000861161308e576040805160e560020a62461bcd02815260206004820152601b60248201527f486f6c64696e672074696d652063616e6e6f74206265207a65726f0000000000604482015290519081900360640190fd5b600084116130e6576040805160e560020a62461bcd02815260206004820152601860248201527f446174612073697a652063616e6e6f74206265207a65726f0000000000000000604482015290519081900360640190fd5b60008511613164576040805160e560020a62461bcd02815260206004820152602660248201527f546f6b656e20616d6f756e742070657220686f6c6465722063616e6e6f74206260448201527f65207a65726f0000000000000000000000000000000000000000000000000000606482015290519081900360840190fd5b600083116131e2576040805160e560020a62461bcd02815260206004820152602260248201527f4c697469676174696f6e20696e74657276616c2063616e6e6f74206265207a6560448201527f726f000000000000000000000000000000000000000000000000000000000000606482015290519081900360840190fd5b6001546040805160e260020a630110ceef028152602060048201819052600e6024830152600080516020615eef83398151915260448301529151600093600160a060020a0316926304433bbc926064808201939182900301818787803b15801561324b57600080fd5b505af115801561325f573d6000803e3d6000fd5b505050506040513d602081101561327557600080fd5b8101908080519060200190929190505050600160a060020a031663b2ccba828e6001026040518263ffffffff1660e060020a028152600401808260001916600019168152602001915050602060405180830381600087803b1580156132d957600080fd5b505af11580156132ed573d6000803e3d6000fd5b505050506040513d602081101561330357600080fd5b50511415613429576001546040805160e260020a630110ceef028152602060048201819052600e6024830152600080516020615eef83398151915260448301529151600160a060020a03909316926304433bbc926064808401939192918290030181600087803b15801561337657600080fd5b505af115801561338a573d6000803e3d6000fd5b505050506040513d60208110156133a057600080fd5b5051604080517fdf85fbd0000000000000000000000000000000000000000000000000000000008152600481018f9052602481018e90529051600160a060020a039092169163df85fbd09160448082019260009290919082900301818387803b15801561340c57600080fd5b505af1158015613420573d6000803e3d6000fd5b505050506135cc565b6001546040805160e260020a630110ceef028152602060048201819052600e6024830152600080516020615eef83398151915260448301529151600160a060020a03909316926304433bbc926064808401939192918290030181600087803b15801561349457600080fd5b505af11580156134a8573d6000803e3d6000fd5b505050506040513d60208110156134be57600080fd5b5051604080517fb2ccba82000000000000000000000000000000000000000000000000000000008152600481018f90529051600160a060020a039092169163b2ccba82916024808201926020929091908290030181600087803b15801561352457600080fd5b505af1158015613538573d6000803e3d6000fd5b505050506040513d602081101561354e57600080fd5b50518b146135cc576040805160e560020a62461bcd02815260206004820152603260248201527f43616e6e6f7420637265617465206f666665722077697468206469666665726560448201527f6e74206461746120726f6f742068617368210000000000000000000000000000606482015290519081900360840190fd5b8b6001028d600143034060405160200180846000191660001916815260200183600160a060020a0316600160a060020a0316606060020a028152601401826000191660001916815260200193505050506040516020818303038152906040526040518082805190602001908083835b6020831061365a5780518252601f19909201916020918201910161363b565b51815160209384036101000a60001901801990921691161790526040805192909401829003822060015460e260020a630110ceef02845260048401839052600e6024850152600080516020615eef83398151915260448501529451909850600160a060020a0390941695506304433bbc945060648083019491935090918290030181600087803b1580156136ed57600080fd5b505af1158015613701573d6000803e3d6000fd5b505050506040513d602081101561371757600080fd5b5051604080517fab9c46ff0000000000000000000000000000000000000000000000000000000081529051600160a060020a039092169163ab9c46ff916004808201926020929091908290030181600087803b15801561377657600080fd5b505af115801561378a573d6000803e3d6000fd5b505050506040513d60208110156137a057600080fd5b5051156138ce576001546040805160e260020a630110ceef028152602060048201819052600e6024830152600080516020615eef83398151915260448301529151600160a060020a03909316926304433bbc926064808401939192918290030181600087803b15801561381257600080fd5b505af1158015613826573d6000803e3d6000fd5b505050506040513d602081101561383c57600080fd5b5051604080517fab9c46ff0000000000000000000000000000000000000000000000000000000081529051600160a060020a039092169163ab9c46ff916004808201926020929091908290030181600087803b15801561389b57600080fd5b505af11580156138af573d6000803e3d6000fd5b505050506040513d60208110156138c557600080fd5b50519050613ab0565b6001546040805160e260020a630110ceef02815260206004828101829052600e60248401527f50726f66696c6553746f72616765000000000000000000000000000000000000604484015292519293613a0b93600160a060020a03909116926304433bbc9260648083019391928290030181600087803b15801561395157600080fd5b505af1158015613965573d6000803e3d6000fd5b505050506040513d602081101561397b57600080fd5b5051604080517f07f196510000000000000000000000000000000000000000000000000000000081529051600160a060020a03909216916307f19651916004808201926020929091908290030181600087803b1580156139da57600080fd5b505af11580156139ee573d6000803e3d6000fd5b505050506040513d6020811015613a0457600080fd5b5051615cbd565b11613a1857506001613ab0565b6001546040805160e260020a630110ceef02815260206004828101829052600e60248401527f50726f66696c6553746f72616765000000000000000000000000000000000000604484015292516133a394613a9b93600160a060020a03909116926304433bbc926064808401938290030181600087803b15801561395157600080fd5b0361271002811515613aa957fe5b0460040190505b6001546040805160e260020a630110ceef028152602060048201819052600e6024830152600080516020615eef83398151915260448301529151600160a060020a03909316926304433bbc926064808401939192918290030181600087803b158015613b1b57600080fd5b505af1158015613b2f573d6000803e3d6000fd5b505050506040513d6020811015613b4557600080fd5b8101908080519060200190929190505050600160a060020a0316631d6f0b36838f8f6001028a8a8960018960040260020a03600102600143034016896040518963ffffffff1660e060020a02815260040180896000191660001916815260200188600160a060020a0316600160a060020a031681526020018760001916600019168152602001868152602001858152602001848152602001836000191660001916815260200182815260200198505050505050505050600060405180830381600087803b158015613c1557600080fd5b505af1158015613c29573d6000803e3d6000fd5b50506001546040805160e260020a630110ceef028152602060048201819052600e6024830152600080516020615eef83398151915260448301529151600160a060020a0390931694506304433bbc9350606480820193918290030181600087803b158015613c9657600080fd5b505af1158015613caa573d6000803e3d6000fd5b505050506040513d6020811015613cc057600080fd5b5051604080517faa1d1f2b00000000000000000000000000000000000000000000000000000000815260048101859052602481018d9052604481018c9052606481018b90529051600160a060020a039092169163aa1d1f2b9160848082019260009290919082900301818387803b158015613d3a57600080fd5b505af1158015613d4e573d6000803e3d6000fd5b5050604080518f8152602081018b905280820186905243600019908101406004870260020a9190910116606082015290517fc02335f4c444cce217a60853f6fd34ba3e698ba52c208883d9752537320554959350908190036080019150a160408051838152602081018e9052808201899052606081018890526080810186905260a0810187905260c0810185905290517fb9705efa5b8a53b16627c24baa6d9acb1767218fe3bcfeb0b4e26a4325ef79cf9181900360e00190a150505050505050505050505050565b600154600160a060020a031681565b60025481565b600054600160a060020a031681565b600154604080517f162790550000000000000000000000000000000000000000000000000000000081523360048201529051600160a060020a03909216916316279055916024808201926020929091908290030181600087803b158015613ea157600080fd5b505af1158015613eb5573d6000803e3d6000fd5b505050506040513d6020811015613ecb57600080fd5b50511515613f49576040805160e560020a62461bcd02815260206004820152603f60248201527f546869732066756e6374696f6e2063616e206f6e6c792062652063616c6c656460448201527f20627920636f6e747261637473206f722074686569722063726561746f722100606482015290519081900360840190fd5b6001805473ffffffffffffffffffffffffffffffffffffffff1916600160a060020a0392909216919091179055565b600054600160a060020a03163314614000576040805160e560020a62461bcd02815260206004820152602a60248201527f4f6e6c7920636f6e7472616374206f776e65722063616e2063616c6c2074686960448201527f732066756e6374696f6e00000000000000000000000000000000000000000000606482015290519081900360840190fd5b600160a060020a038116151561401557600080fd5b60008054604051600160a060020a03808516939216917f8be0079c531659141344cd1fd0a4f28419497f9722a3daafe3b4186f6b6457e091a36000805473ffffffffffffffffffffffffffffffffffffffff1916600160a060020a0392909216919091179055565b6000828202831580614099575082848281151561409657fe5b04145b15156140a157fe5b9392505050565b6000828211156140b457fe5b50900390565b60008082848115156140c857fe5b04949350505050565b6000828201838110156140a157fe5b60008060008060606000865160411415156140fe57600095506142b1565b6040805190810160405280601c81526020017f19457468657265756d205369676e6564204d6573736167653a0a333200000000815250915081886040516020018083805190602001908083835b6020831061416a5780518252601f19909201916020918201910161414b565b51815160209384036101000a600019018019909216911617905292019384525060408051808503815293820190819052835193945092839250908401908083835b602083106141ca5780518252601f1990920191602091820191016141ab565b6001836020036101000a038019825116818451168082178552505050505050905001915050604051809103902090506020870151945060408701519350606087015160001a9250601b8360ff16101561422457601b830192505b8260ff16601b1415801561423c57508260ff16601c14155b1561424a57600095506142b1565b604080516000808252602080830180855285905260ff8716838501526060830189905260808301889052925160019360a0808501949193601f19840193928390039091019190865af11580156142a4573d6000803e3d6000fd5b5050506020604051035195505b505050505092915050565b6001546040805160e260020a630110ceef028152602060048201819052600e60248301527f50726f66696c6553746f726167650000000000000000000000000000000000006044830152915160009384938493600160a060020a03909216926304433bbc92606480820193929182900301818787803b15801561433e57600080fd5b505af1158015614352573d6000803e3d6000fd5b505050506040513d602081101561436857600080fd5b50516001546040805160e260020a630110ceef028152602060048201819052600e6024830152600080516020615eef83398151915260448301529151939650600160a060020a03909216926304433bbc9260648082019392918290030181600087803b1580156143d757600080fd5b505af11580156143eb573d6000803e3d6000fd5b505050506040513d602081101561440157600080fd5b5051604080517f6c833cf5000000000000000000000000000000000000000000000000000000008152600481018990529051600160a060020a0390921691636c833cf5916024808201926020929091908290030181600087803b15801561446757600080fd5b505af115801561447b573d6000803e3d6000fd5b505050506040513d602081101561449157600080fd5b5051604080517f2ba97595000000000000000000000000000000000000000000000000000000008152600160a060020a038881166004830152915192945090851691632ba97595916024808201926020929091908290030181600087803b1580156144fb57600080fd5b505af115801561450f573d6000803e3d6000fd5b505050506040513d602081101561452557600080fd5b505180156146f0575082600160a060020a0316635ffe0282866040518263ffffffff1660e060020a0281526004018082600160a060020a0316600160a060020a03168152602001915050602060405180830381600087803b15801561458957600080fd5b505af115801561459d573d6000803e3d6000fd5b505050506040513d60208110156145b357600080fd5b5051604080517f7a766460000000000000000000000000000000000000000000000000000000008152600160a060020a038881166004830152915191861691637a766460916024808201926020929091908290030181600087803b15801561461a57600080fd5b505af115801561462e573d6000803e3d6000fd5b505050506040513d602081101561464457600080fd5b5051036146ee61465b84600363ffffffff61407d16565b85600160a060020a03166356582bf9896040518263ffffffff1660e060020a0281526004018082600160a060020a0316600160a060020a03168152602001915050602060405180830381600087803b1580156146b657600080fd5b505af11580156146ca573d6000803e3d6000fd5b505050506040513d60208110156146e057600080fd5b50519063ffffffff6140d116565b115b1561477657604080517f9385067f000000000000000000000000000000000000000000000000000000008152600160a060020a038781166004830152600060248301819052925190861692639385067f926044808201939182900301818387803b15801561475d57600080fd5b505af1158015614771573d6000803e3d6000fd5b505050505b82600160a060020a0316632ba9759585600081518110151561479457fe5b906020019060200201516040518263ffffffff1660e060020a0281526004018082600160a060020a0316600160a060020a03168152602001915050602060405180830381600087803b1580156147e957600080fd5b505af11580156147fd573d6000803e3d6000fd5b505050506040513d602081101561481357600080fd5b505180156149dd575082600160a060020a0316635ffe028285600081518110151561483a57fe5b906020019060200201516040518263ffffffff1660e060020a0281526004018082600160a060020a0316600160a060020a03168152602001915050602060405180830381600087803b15801561488f57600080fd5b505af11580156148a3573d6000803e3d6000fd5b505050506040513d60208110156148b957600080fd5b50518451600160a060020a03851690637a76646090879060009081106148db57fe5b906020019060200201516040518263ffffffff1660e060020a0281526004018082600160a060020a0316600160a060020a03168152602001915050602060405180830381600087803b15801561493057600080fd5b505af1158015614944573d6000803e3d6000fd5b505050506040513d602081101561495a57600080fd5b50518551919003906149db908490600160a060020a038716906356582bf9908990600090811061498657fe5b906020019060200201516040518263ffffffff1660e060020a0281526004018082600160a060020a0316600160a060020a03168152602001915050602060405180830381600087803b1580156146b657600080fd5b115b15614a6c5782600160a060020a0316639385067f856000815181101515614a0057fe5b602090810290910101516040805160e060020a63ffffffff8516028152600160a060020a039092166004830152600060248301819052905160448084019382900301818387803b158015614a5357600080fd5b505af1158015614a67573d6000803e3d6000fd5b505050505b82600160a060020a0316632ba97595856001815181101515614a8a57fe5b906020019060200201516040518263ffffffff1660e060020a0281526004018082600160a060020a0316600160a060020a03168152602001915050602060405180830381600087803b158015614adf57600080fd5b505af1158015614af3573d6000803e3d6000fd5b505050506040513d6020811015614b0957600080fd5b50518015614c7e575082600160a060020a0316635ffe0282856001815181101515614b3057fe5b906020019060200201516040518263ffffffff1660e060020a0281526004018082600160a060020a0316600160a060020a03168152602001915050602060405180830381600087803b158015614b8557600080fd5b505af1158015614b99573d6000803e3d6000fd5b505050506040513d6020811015614baf57600080fd5b50518451600160a060020a03851690637a7664609087906001908110614bd157fe5b906020019060200201516040518263ffffffff1660e060020a0281526004018082600160a060020a0316600160a060020a03168152602001915050602060405180830381600087803b158015614c2657600080fd5b505af1158015614c3a573d6000803e3d6000fd5b505050506040513d6020811015614c5057600080fd5b5051855191900390614c7c908490600160a060020a038716906356582bf9908990600190811061498657fe5b115b15614d0d5782600160a060020a0316639385067f856001815181101515614ca157fe5b602090810290910101516040805160e060020a63ffffffff8516028152600160a060020a039092166004830152600060248301819052905160448084019382900301818387803b158015614cf457600080fd5b505af1158015614d08573d6000803e3d6000fd5b505050505b82600160a060020a0316632ba97595856002815181101515614d2b57fe5b906020019060200201516040518263ffffffff1660e060020a0281526004018082600160a060020a0316600160a060020a03168152602001915050602060405180830381600087803b158015614d8057600080fd5b505af1158015614d94573d6000803e3d6000fd5b505050506040513d6020811015614daa57600080fd5b50518015614f1f575082600160a060020a0316635ffe0282856002815181101515614dd157fe5b906020019060200201516040518263ffffffff1660e060020a0281526004018082600160a060020a0316600160a060020a03168152602001915050602060405180830381600087803b158015614e2657600080fd5b505af1158015614e3a573d6000803e3d6000fd5b505050506040513d6020811015614e5057600080fd5b50518451600160a060020a03851690637a7664609087906002908110614e7257fe5b906020019060200201516040518263ffffffff1660e060020a0281526004018082600160a060020a0316600160a060020a03168152602001915050602060405180830381600087803b158015614ec757600080fd5b505af1158015614edb573d6000803e3d6000fd5b505050506040513d6020811015614ef157600080fd5b5051855191900390614f1d908490600160a060020a038716906356582bf9908990600290811061498657fe5b115b15614fae5782600160a060020a0316639385067f856002815181101515614f4257fe5b602090810290910101516040805160e060020a63ffffffff8516028152600160a060020a039092166004830152600060248301819052905160448084019382900301818387803b158015614f9557600080fd5b505af1158015614fa9573d6000803e3d6000fd5b505050505b6001546040805160e260020a630110ceef028152602060048201819052600760248301527f50726f66696c650000000000000000000000000000000000000000000000000060448301529151600160a060020a03909316926304433bbc926064808401939192918290030181600087803b15801561502b57600080fd5b505af115801561503f573d6000803e3d6000fd5b505050506040513d602081101561505557600080fd5b5051604080517f9ec41a2d0000000000000000000000000000000000000000000000000000000081529051600160a060020a0390921691639ec41a2d916004808201926020929091908290030181600087803b1580156150b457600080fd5b505af11580156150c8573d6000803e3d6000fd5b505050506040513d60208110156150de57600080fd5b5051604080517f5ffe0282000000000000000000000000000000000000000000000000000000008152600160a060020a03888116600483015291519293506152159291861691635ffe0282916024808201926020929091908290030181600087803b15801561514c57600080fd5b505af1158015615160573d6000803e3d6000fd5b505050506040513d602081101561517657600080fd5b5051604080517f7a766460000000000000000000000000000000000000000000000000000000008152600160a060020a038981166004830152915191871691637a766460916024808201926020929091908290030181600087803b1580156151dd57600080fd5b505af11580156151f1573d6000803e3d6000fd5b505050506040513d602081101561520757600080fd5b50519063ffffffff6140a816565b811115615292576040805160e560020a62461bcd02815260206004820152603b60248201527f446174612063726561746f7220646f6573206e6f74206861766520656e6f756760448201527f68207374616b6520746f20637265617465206e6577206a6f6273210000000000606482015290519081900360840190fd5b6153a983600160a060020a0316635ffe02828660008151811015156152b357fe5b906020019060200201516040518263ffffffff1660e060020a0281526004018082600160a060020a0316600160a060020a03168152602001915050602060405180830381600087803b15801561530857600080fd5b505af115801561531c573d6000803e3d6000fd5b505050506040513d602081101561533257600080fd5b50518551600160a060020a03861690637a766460908890600090811061535457fe5b906020019060200201516040518263ffffffff1660e060020a0281526004018082600160a060020a0316600160a060020a03168152602001915050602060405180830381600087803b1580156151dd57600080fd5b811115615426576040805160e560020a62461bcd02815260206004820152603a60248201527f46697273742070726f66696c6520646f6573206e6f74206861766520656e6f7560448201527f6768207374616b6520746f2074616b65206e6577206a6f627321000000000000606482015290519081900360840190fd5b6154e883600160a060020a0316635ffe028286600181518110151561544757fe5b906020019060200201516040518263ffffffff1660e060020a0281526004018082600160a060020a0316600160a060020a03168152602001915050602060405180830381600087803b15801561549c57600080fd5b505af11580156154b0573d6000803e3d6000fd5b505050506040513d60208110156154c657600080fd5b50518551600160a060020a03861690637a766460908890600190811061535457fe5b811115615565576040805160e560020a62461bcd02815260206004820152603b60248201527f5365636f6e642070726f66696c6520646f6573206e6f74206861766520656e6f60448201527f756768207374616b6520746f2074616b65206e6577206a6f6273210000000000606482015290519081900360840190fd5b61562783600160a060020a0316635ffe028286600281518110151561558657fe5b906020019060200201516040518263ffffffff1660e060020a0281526004018082600160a060020a0316600160a060020a03168152602001915050602060405180830381600087803b1580156155db57600080fd5b505af11580156155ef573d6000803e3d6000fd5b505050506040513d602081101561560557600080fd5b50518551600160a060020a03861690637a766460908890600290811061535457fe5b8111156156a4576040805160e560020a62461bcd02815260206004820152603a60248201527f54686972642070726f66696c6520646f6573206e6f74206861766520656e6f7560448201527f6768207374616b6520746f2074616b65206e6577206a6f627321000000000000606482015290519081900360840190fd5b6156b582600363ffffffff61407d16565b6157a484600160a060020a0316635ffe0282886040518263ffffffff1660e060020a0281526004018082600160a060020a0316600160a060020a03168152602001915050602060405180830381600087803b15801561571357600080fd5b505af1158015615727573d6000803e3d6000fd5b505050506040513d602081101561573d57600080fd5b5051604080517f7a766460000000000000000000000000000000000000000000000000000000008152600160a060020a038a81166004830152915191881691637a766460916024808201926020929091908290030181600087803b1580156151dd57600080fd5b1015615820576040805160e560020a62461bcd02815260206004820152603660248201527f446174612063726561746f7220646f6573206e6f74206861766520656e6f756760448201527f68207374616b6520666f7220726573657276696e672100000000000000000000606482015290519081900360840190fd5b816158e384600160a060020a0316635ffe028287600081518110151561584257fe5b906020019060200201516040518263ffffffff1660e060020a0281526004018082600160a060020a0316600160a060020a03168152602001915050602060405180830381600087803b15801561589757600080fd5b505af11580156158ab573d6000803e3d6000fd5b505050506040513d60208110156158c157600080fd5b50518651600160a060020a03871690637a766460908990600090811061535457fe5b101561595f576040805160e560020a62461bcd02815260206004820152603760248201527f46697273742070726f66696c6520646f6573206e6f74206861766520656e6f7560448201527f6768207374616b6520666f7220726573657276696e6721000000000000000000606482015290519081900360840190fd5b81615a2284600160a060020a0316635ffe028287600181518110151561598157fe5b906020019060200201516040518263ffffffff1660e060020a0281526004018082600160a060020a0316600160a060020a03168152602001915050602060405180830381600087803b1580156159d657600080fd5b505af11580156159ea573d6000803e3d6000fd5b505050506040513d6020811015615a0057600080fd5b50518651600160a060020a03871690637a766460908990600190811061535457fe5b1015615a9e576040805160e560020a62461bcd02815260206004820152603860248201527f5365636f6e642070726f66696c6520646f6573206e6f74206861766520656e6f60448201527f756768207374616b6520666f7220726573657276696e67210000000000000000606482015290519081900360840190fd5b81615b6184600160a060020a0316635ffe0282876002815181101515615ac057fe5b906020019060200201516040518263ffffffff1660e060020a0281526004018082600160a060020a0316600160a060020a03168152602001915050602060405180830381600087803b158015615b1557600080fd5b505af1158015615b29573d6000803e3d6000fd5b505050506040513d6020811015615b3f57600080fd5b50518651600160a060020a03871690637a766460908990600290811061535457fe5b1015615bdd576040805160e560020a62461bcd02815260206004820152603760248201527f54686972642070726f66696c6520646f6573206e6f74206861766520656e6f7560448201527f6768207374616b6520666f7220726573657276696e6721000000000000000000606482015290519081900360840190fd5b82600160a060020a031663a6748ef586866000815181101515615bfc57fe5b90602001906020020151876001815181101515615c1557fe5b90602001906020020151886002815181101515615c2e57fe5b602090810290910101516040805160e060020a63ffffffff8816028152600160a060020a0395861660048201529385166024850152918416604484015292909216606482015260848101869052905160a480830192600092919082900301818387803b158015615c9d57600080fd5b505af1158015615cb1573d6000803e3d6000fd5b50505050505050505050565b6000808211615ccb57600080fd5b50604080517ff8f9cbfae6cc78fbefe7cdc3a1793dfcf4f0e8bbd8cec470b6a28a7a5a3e1efd81527ff5ecf1b3e9debc68e1d9cfabc5997135bfb7a7a3938b7b606b5b4b3f2f1f0ffe60208201527ff6e4ed9ff2d6b458eadcdf97bd91692de2d4da8fd2d0ac50c6ae9a8272523616818301527fc8c0b887b0a8a4489c948c7f847c6125746c645c544c444038302820181008ff60608201527ff7cae577eec2a03cf3bad76fb589591debb2dd67e0aa9834bea6925f6a4a2e0e60808201527fe39ed557db96902cd38ed14fad815115c786af479b7e8324736353433727170760a08201527fc976c13bb96e881cb166a933a55e490d9d56952b8d4e801485467d236242260660c08201527f753a6d1b65325d0c552a4d1345224105391a310b29122104190a11030902010060e08201526101008082019092527f0100000000000000000000000000000000000000000000000000000000000000600170010000000000000000000000000000000068010000000000000000640100000000620100006010600460026000198c019081041790810417908104178881041790810417908104179081041790810417017e818283848586878898a8b8c8d8e8f929395969799a9b9d9e9faaeb6bedeeff0281900460ff0390910151047f8000000000000000000000000000000000000000000000000000000000000000909211020190565b60606040519081016040528060039060208202803883395091929150505600486f6c64696e6753746f72616765000000000000000000000000000000000000a165627a7a723058207422a9daf1014e2ba38f35e77bea88397a14551b80d3849b64764f9fff6e29020029",
  "source": "pragma solidity ^0.4.24;\n\nimport './Hub.sol';\nimport {ERC725} from './ERC725.sol';\nimport {HoldingStorage} from './HoldingStorage.sol';\nimport {ProfileStorage} from './ProfileStorage.sol';\nimport {LitigationStorage} from './LitigationStorage.sol';\nimport {Profile} from './Profile.sol';\nimport {CreditorHandler} from './CreditorHandler.sol';\nimport {Approval} from './Approval.sol';\nimport {SafeMath} from './SafeMath.sol';\n\ncontract Holding is Ownable {\n    using SafeMath for uint256;\n\n    Hub public hub;\n    uint256 public difficultyOverride;\n\n    constructor(address hubAddress) public{\n        require(hubAddress!=address(0));\n        hub = Hub(hubAddress);\n    }\n\n    function setHubAddress(address newHubAddress) public{\n        require(hub.isContract(msg.sender), \"This function can only be called by contracts or their creator!\");\n\n        hub = Hub(newHubAddress);\n    }\n\n    event OfferTask(bytes32 dataSetId, bytes32 dcNodeId, bytes32 offerId, bytes32 task);\n    event OfferCreated(bytes32 offerId, bytes32 dataSetId, bytes32 dcNodeId, uint256 holdingTimeInMinutes, uint256 dataSetSizeInBytes, uint256 tokenAmountPerHolder, uint256 litigationIntervalInMinutes);\n    event OfferFinalized(bytes32 offerId, address holder1, address holder2, address holder3);\n\n    event PaidOut(bytes32 offerId, address holder, uint256 amount);\n\n    function createOffer(address identity, uint256 dataSetId,\n        uint256 dataRootHash, uint256 redLitigationHash, uint256 greenLitigationHash, uint256 blueLitigationHash, uint256 dcNodeId,\n        uint256 holdingTimeInMinutes, uint256 tokenAmountPerHolder, uint256 dataSetSizeInBytes, uint256 litigationIntervalInMinutes) public {\n        // Verify sender\n        require(ERC725(identity).keyHasPurpose(keccak256(abi.encodePacked(msg.sender)), 2));\n        require(Approval(hub.getContractAddress(\"Approval\")).identityHasApproval(identity), \"Identity does not have approval for using the contract\");\n        // First we check that the paramaters are valid\n        require(dataRootHash != 0, \"Data root hash cannot be zero\");\n        require(redLitigationHash != 0, \"Litigation hash cannot be zero\");\n        require(greenLitigationHash != 0, \"Litigation root hash cannot be zero\");\n        require(blueLitigationHash != 0, \"Litigation root hash cannot be zero\");\n        require(holdingTimeInMinutes > 0, \"Holding time cannot be zero\");\n        require(dataSetSizeInBytes > 0, \"Data size cannot be zero\");\n        require(tokenAmountPerHolder > 0, \"Token amount per holder cannot be zero\");\n        require(litigationIntervalInMinutes > 0, \"Litigation interval cannot be zero\");\n\n        // Writing data root hash if it wasn't previously set\n        if(HoldingStorage(hub.getContractAddress(\"HoldingStorage\")).fingerprint(bytes32(dataSetId)) == bytes32(0)){\n            HoldingStorage(hub.getContractAddress(\"HoldingStorage\")).setFingerprint(bytes32(dataSetId), bytes32(dataRootHash));\n        } else {\n            require(bytes32(dataRootHash) == HoldingStorage(hub.getContractAddress(\"HoldingStorage\")).fingerprint(bytes32(dataSetId)),\n                \"Cannot create offer with different data root hash!\");\n        }\n\n        // Now we calculate the offerId, which should be unique\n        // We consider a pair of dataSet and identity unique within one block, hence the formula for offerId\n        bytes32 offerId = keccak256(abi.encodePacked(bytes32(dataSetId), identity, blockhash(block.number - 1)));\n\n\n        //We calculate the task for the data creator to solve\n        //Calculating task difficulty\n        uint256 difficulty;\n        if(HoldingStorage(hub.getContractAddress(\"HoldingStorage\")).getDifficultyOverride() != 0) {\n            difficulty = HoldingStorage(hub.getContractAddress(\"HoldingStorage\")).getDifficultyOverride();\n        }\n        else {\n            if(logs2(ProfileStorage(hub.getContractAddress(\"ProfileStorage\")).activeNodes()) <= 4) difficulty = 1;\n            else {\n                difficulty = 4 + (((logs2(ProfileStorage(hub.getContractAddress(\"ProfileStorage\")).activeNodes()) - 4) * 10000) / 13219);\n            }\n        }\n\n        // Writing variables into storage\n        HoldingStorage(hub.getContractAddress(\"HoldingStorage\")).setOfferParameters(\n            offerId,\n            identity,\n            bytes32(dataSetId),\n            holdingTimeInMinutes,\n            tokenAmountPerHolder,\n            litigationIntervalInMinutes,\n            blockhash(block.number - 1) & bytes32(2 ** (difficulty * 4) - 1),\n            difficulty\n        );\n\n        HoldingStorage(hub.getContractAddress(\"HoldingStorage\")).setOfferLitigationHashes(\n            offerId,\n            bytes32(redLitigationHash),\n            bytes32(greenLitigationHash),\n            bytes32(blueLitigationHash)\n        );\n\n        emit OfferTask(bytes32(dataSetId), bytes32(dcNodeId), offerId, blockhash(block.number - 1) & bytes32(2 ** (difficulty * 4) - 1));\n        emit OfferCreated(offerId, bytes32(dataSetId), bytes32(dcNodeId), holdingTimeInMinutes, dataSetSizeInBytes, tokenAmountPerHolder, litigationIntervalInMinutes);\n    }\n\n    function finalizeOffer(address identity, uint256 offerId, uint256 shift,\n        bytes confirmation1, bytes confirmation2, bytes confirmation3,\n        uint8[] encryptionType, address[] holderIdentity, address parentIdentity)\n    public {\n        HoldingStorage holdingStorage = HoldingStorage(hub.getContractAddress(\"HoldingStorage\"));\n\n        // Verify sender\n        require(ERC725(identity).keyHasPurpose(keccak256(abi.encodePacked(msg.sender)), 2), \"Sender does not have action permission to call this function!\");\n        if(parentIdentity != address(0)){\n            CreditorHandler(hub.getContractAddress(\"CreditorHandler\")).finalizeOffer(offerId, identity, parentIdentity);\n        }\n        require(identity == holdingStorage.getOfferCreator(bytes32(offerId)), \"Offer can only be finalized by its creator!\");\n        require(holdingStorage.getOfferStartTime(bytes32(offerId)) == 0);\n\n        // Check if signatures match identities\n        require(ERC725(holderIdentity[0]).keyHasPurpose(keccak256(abi.encodePacked(ecrecovery(keccak256(abi.encodePacked(offerId,uint256(holderIdentity[0]))), confirmation1))), 4), \"Wallet from holder 1 does not have encryption approval!\");\n        require(ERC725(holderIdentity[1]).keyHasPurpose(keccak256(abi.encodePacked(ecrecovery(keccak256(abi.encodePacked(offerId,uint256(holderIdentity[1]))), confirmation2))), 4), \"Wallet from holder 2 does not have encryption approval!\");\n        require(ERC725(holderIdentity[2]).keyHasPurpose(keccak256(abi.encodePacked(ecrecovery(keccak256(abi.encodePacked(offerId,uint256(holderIdentity[2]))), confirmation3))), 4), \"Wallet from holder 3 does not have encryption approval!\");\n\n        // Verify task answer\n        bytes32[3] memory hashes;\n\n        hashes[0] = keccak256(abi.encodePacked(holderIdentity[0], holdingStorage.getOfferTask(bytes32(offerId))));\n        hashes[1] = keccak256(abi.encodePacked(holderIdentity[1], holdingStorage.getOfferTask(bytes32(offerId))));\n        hashes[2] = keccak256(abi.encodePacked(holderIdentity[2], holdingStorage.getOfferTask(bytes32(offerId))));\n\n        require(uint256(hashes[0]) < uint256(hashes[1]) && uint256(hashes[1]) < uint256(hashes[2]), \"Solution hashes are not sorted!\");\n\n        // Verify task answer\n        require(((keccak256(abi.encodePacked(hashes[0], hashes[1], hashes[2])) >> (shift * 4)) & bytes32((2 ** (4 * holdingStorage.getOfferDifficulty(bytes32(offerId)))) - 1))\n            == holdingStorage.getOfferTask(bytes32(offerId)), \"Submitted identities do not answer the task correctly!\");\n\n        // Write data into storage\n        holdingStorage.setHolders(bytes32(offerId), holderIdentity, encryptionType);\n\n        // Secure funds from all parties\n        reserveTokens(offerId, identity, holderIdentity);\n\n        emit OfferFinalized(bytes32(offerId), holderIdentity[0], holderIdentity[1], holderIdentity[2]);\n    }\n\n    function reserveTokens(uint256 offerId, address payer, address[] identity)\n    internal {\n        ProfileStorage profileStorage = ProfileStorage(hub.getContractAddress(\"ProfileStorage\"));\n\n        uint256 amount = HoldingStorage(hub.getContractAddress(\"HoldingStorage\")).getOfferTokenAmountPerHolder(bytes32(offerId));\n\n        if(profileStorage.getWithdrawalPending(payer) && profileStorage.getWithdrawalAmount(payer).add(amount.mul(3)) > profileStorage.getStake(payer) - profileStorage.getStakeReserved(payer)) {\n            profileStorage.setWithdrawalPending(payer,false);\n        }\n        if(profileStorage.getWithdrawalPending(identity[0]) && profileStorage.getWithdrawalAmount(identity[0]).add(amount) > profileStorage.getStake(identity[0]) - profileStorage.getStakeReserved(identity[0])) {\n            profileStorage.setWithdrawalPending(identity[0],false);\n        }\n        if(profileStorage.getWithdrawalPending(identity[1]) && profileStorage.getWithdrawalAmount(identity[1]).add(amount) > profileStorage.getStake(identity[1]) - profileStorage.getStakeReserved(identity[1])) {\n            profileStorage.setWithdrawalPending(identity[1],false);\n        }\n        if(profileStorage.getWithdrawalPending(identity[2]) && profileStorage.getWithdrawalAmount(identity[2]).add(amount) > profileStorage.getStake(identity[2]) - profileStorage.getStakeReserved(identity[2])) {\n            profileStorage.setWithdrawalPending(identity[2],false);\n        }\n\n        uint256 minimalStake = Profile(hub.getContractAddress(\"Profile\")).minimalStake();\n\n        require(minimalStake <= profileStorage.getStake(payer).sub(profileStorage.getStakeReserved(payer)),\n            \"Data creator does not have enough stake to create new jobs!\");\n        require(minimalStake <= profileStorage.getStake(identity[0]).sub(profileStorage.getStakeReserved(identity[0])),\n            \"First profile does not have enough stake to take new jobs!\");\n        require(minimalStake <= profileStorage.getStake(identity[1]).sub(profileStorage.getStakeReserved(identity[1])),\n            \"Second profile does not have enough stake to take new jobs!\");\n        require(minimalStake <= profileStorage.getStake(identity[2]).sub(profileStorage.getStakeReserved(identity[2])),\n            \"Third profile does not have enough stake to take new jobs!\");\n\n        require(profileStorage.getStake(payer).sub(profileStorage.getStakeReserved(payer)) >= amount.mul(3),\n            \"Data creator does not have enough stake for reserving!\");\n        require(profileStorage.getStake(identity[0]).sub(profileStorage.getStakeReserved(identity[0])) >= amount,\n            \"First profile does not have enough stake for reserving!\");\n        require(profileStorage.getStake(identity[1]).sub(profileStorage.getStakeReserved(identity[1])) >= amount,\n            \"Second profile does not have enough stake for reserving!\");\n        require(profileStorage.getStake(identity[2]).sub(profileStorage.getStakeReserved(identity[2])) >= amount,\n            \"Third profile does not have enough stake for reserving!\");\n\n        profileStorage.increaseStakesReserved(\n            payer,\n            identity[0],\n            identity[1],\n            identity[2],\n            amount\n        );\n    }\n\n    function payOut(address identity, uint256 offerId)\n    public {\n        HoldingStorage holdingStorage = HoldingStorage(hub.getContractAddress(\"HoldingStorage\"));\n\n        // Verify sender\n        require(ERC725(identity).keyHasPurpose(keccak256(abi.encodePacked(msg.sender)), 2) || ERC725(identity).keyHasPurpose(keccak256(abi.encodePacked(msg.sender)), 1), \"Sender does not have proper permission to call this function!\");\n        require(Approval(hub.getContractAddress(\"Approval\")).identityHasApproval(identity), \"Identity does not have approval for using the contract\");\n\n        // Verify that the litigation is not in progress\n        LitigationStorage.LitigationStatus status = LitigationStorage(hub.getContractAddress(\"LitigationStorage\")).getLitigationStatus(bytes32(offerId), identity);\n        uint256 litigationTimestamp = LitigationStorage(hub.getContractAddress(\"LitigationStorage\")).getLitigationTimestamp(bytes32(offerId), identity);\n        uint256 litigationInterval = HoldingStorage(hub.getContractAddress(\"HoldingStorage\")).getOfferLitigationIntervalInMinutes(bytes32(offerId)).mul(60);\n\n        if(status == LitigationStorage.LitigationStatus.initiated) {\n            require(litigationTimestamp + litigationInterval.mul(2) < block.timestamp,\n                \"Unanswered litigation in progress, cannot pay out\");\n        }\n        else if(status == LitigationStorage.LitigationStatus.answered){\n            require(litigationTimestamp + litigationInterval < block.timestamp,\n                \"Unanswered litigation in progress, cannot pay out\");\n        }\n        else {\n            require(status == LitigationStorage.LitigationStatus.completed,\n                \"Data holder is replaced or being replaced, cannot payout!\");\n        }\n\n        // Verify holder\n        require(holdingStorage.getHolderStakedAmount(bytes32(offerId), identity) > 0, \"Sender is not holding this data set!\");\n\n        // Calculate amount to send\n        uint256 amountToTransfer = holdingStorage.getOfferTokenAmountPerHolder(bytes32(offerId));\n        // Multiply the tokenAmountPerHolder by the time the the holder held the data\n        amountToTransfer = amountToTransfer.mul((block.timestamp).sub(holdingStorage.getHolderPaymentTimestamp(bytes32(offerId), identity)));\n        // Divide the tokenAmountPerHolder by the total time\n        amountToTransfer = amountToTransfer.div(holdingStorage.getOfferHoldingTimeInMinutes(bytes32(offerId)).mul(60));\n\n        if(amountToTransfer.add(holdingStorage.getHolderPaidAmount(bytes32(offerId), identity))\n            >= holdingStorage.getHolderStakedAmount(bytes32(offerId), identity)) {\n\n            amountToTransfer = holdingStorage.getHolderStakedAmount(bytes32(offerId), identity);\n            amountToTransfer = amountToTransfer.sub(holdingStorage.getHolderPaidAmount(bytes32(offerId), identity));\n\n            if (amountToTransfer == 0) return;\n            // Offer is completed, release holder stake\n            Profile(hub.getContractAddress(\"Profile\")).releaseTokens(identity, holdingStorage.getHolderStakedAmount(bytes32(offerId), identity));\n        }\n\n        // Release tokens staked by holder and transfer tokens from data creator to holder\n        Profile(hub.getContractAddress(\"Profile\")).transferTokens(holdingStorage.getOfferCreator(bytes32(offerId)), identity, amountToTransfer);\n\n        holdingStorage.setHolderPaymentTimestamp(bytes32(offerId), identity, block.timestamp);\n\n        uint256 holderPaidAmount = holdingStorage.getHolderPaidAmount(bytes32(offerId), identity);\n        holderPaidAmount = holderPaidAmount.add(amountToTransfer);\n        holdingStorage.setHolderPaidAmount(bytes32(offerId), identity, holderPaidAmount);\n\n        emit PaidOut(bytes32(offerId), identity, amountToTransfer);\n    }\n\n    function ecrecovery(bytes32 hash, bytes sig) internal pure returns (address) {\n        bytes32 r;\n        bytes32 s;\n        uint8 v;\n\n        if (sig.length != 65)\n            return address(0);\n\n        bytes memory prefix = \"\\x19Ethereum Signed Message:\\n32\";\n        bytes32 prefixedHash = keccak256(abi.encodePacked(prefix, hash));\n\n        // The signature format is a compact form of:\n        //   {bytes32 r}{bytes32 s}{uint8 v}\n        // Compact means, uint8 is not padded to 32 bytes.\n        assembly {\n            r := mload(add(sig, 32))\n            s := mload(add(sig, 64))\n\n        // Here we are loading the last 32 bytes. We exploit the fact that\n        // 'mload' will pad with zeroes if we overread.\n        // There is no 'mload8' to do this, but that would be nicer.\n            v := byte(0, mload(add(sig, 96)))\n        }\n\n        // geth uses [0, 1] and some clients have followed. This might change, see:\n        //  https://github.com/ethereum/go-ethereum/issues/2053\n        if (v < 27) v += 27;\n\n        if (v != 27 && v != 28) return address(0);\n\n        return ecrecover(prefixedHash, v, r, s);\n    }\n\n    function logs2(uint x) internal pure returns (uint y) {\n        require(x > 0);\n        assembly {\n            let arg := x\n            x := sub(x,1)\n            x := or(x, div(x, 0x02))\n            x := or(x, div(x, 0x04))\n            x := or(x, div(x, 0x10))\n            x := or(x, div(x, 0x100))\n            x := or(x, div(x, 0x10000))\n            x := or(x, div(x, 0x100000000))\n            x := or(x, div(x, 0x10000000000000000))\n            x := or(x, div(x, 0x100000000000000000000000000000000))\n            x := add(x, 1)\n            let m := mload(0x40)\n            mstore(m,           0xf8f9cbfae6cc78fbefe7cdc3a1793dfcf4f0e8bbd8cec470b6a28a7a5a3e1efd)\n            mstore(add(m,0x20), 0xf5ecf1b3e9debc68e1d9cfabc5997135bfb7a7a3938b7b606b5b4b3f2f1f0ffe)\n            mstore(add(m,0x40), 0xf6e4ed9ff2d6b458eadcdf97bd91692de2d4da8fd2d0ac50c6ae9a8272523616)\n            mstore(add(m,0x60), 0xc8c0b887b0a8a4489c948c7f847c6125746c645c544c444038302820181008ff)\n            mstore(add(m,0x80), 0xf7cae577eec2a03cf3bad76fb589591debb2dd67e0aa9834bea6925f6a4a2e0e)\n            mstore(add(m,0xa0), 0xe39ed557db96902cd38ed14fad815115c786af479b7e83247363534337271707)\n            mstore(add(m,0xc0), 0xc976c13bb96e881cb166a933a55e490d9d56952b8d4e801485467d2362422606)\n            mstore(add(m,0xe0), 0x753a6d1b65325d0c552a4d1345224105391a310b29122104190a110309020100)\n            mstore(0x40, add(m, 0x100))\n            let magic := 0x818283848586878898a8b8c8d8e8f929395969799a9b9d9e9faaeb6bedeeff\n            let shift := 0x100000000000000000000000000000000000000000000000000000000000000\n            let a := div(mul(x, magic), shift)\n            y := div(mload(add(m,sub(255,a))), shift)\n            y := add(y, mul(256, gt(arg, 0x8000000000000000000000000000000000000000000000000000000000000000)))\n        }\n    }\n}\n\n",
  "sourcePath": "/Users/miloskotlar/ot-node/modules/Blockchain/Polygon/contracts/Holding.sol",
  "compiler": {
    "name": "solc",
    "version": "0.4.25+commit.59dbf8f1.Emscripten.clang"
  },
  "schemaVersion": "3.0.0-beta.1",
  "updatedAt": "2021-08-16T09:42:48.446Z"
}