{
  "contractName": "Hub",
  "abi": [
    {
      "constant": true,
      "inputs": [],
      "name": "owner",
      "outputs": [
        {
          "name": "",
          "type": "address"
        }
      ],
      "payable": false,
      "stateMutability": "view",
      "type": "function",
      "signature": "0x8da5cb5b"
    },
    {
      "constant": false,
      "inputs": [
        {
          "name": "newOwner",
          "type": "address"
        }
      ],
      "name": "transferOwnership",
      "outputs": [],
      "payable": false,
      "stateMutability": "nonpayable",
      "type": "function",
      "signature": "0xf2fde38b"
    },
    {
      "anonymous": false,
      "inputs": [],
      "name": "ContractsChanged",
      "type": "event",
      "signature": "0x28914ac9a6b0dbfdb15f37605b815f088e8ceac8029c476e7917be779ecb9b1a"
    },
    {
      "anonymous": false,
      "inputs": [
        {
          "indexed": true,
          "name": "previousOwner",
          "type": "address"
        },
        {
          "indexed": true,
          "name": "newOwner",
          "type": "address"
        }
      ],
      "name": "OwnershipTransferred",
      "type": "event",
      "signature": "0x8be0079c531659141344cd1fd0a4f28419497f9722a3daafe3b4186f6b6457e0"
    },
    {
      "constant": false,
      "inputs": [
        {
          "name": "contractName",
          "type": "string"
        },
        {
          "name": "newContractAddress",
          "type": "address"
        }
      ],
      "name": "setContractAddress",
      "outputs": [],
      "payable": false,
      "stateMutability": "nonpayable",
      "type": "function",
      "signature": "0x534e785c"
    },
    {
      "constant": true,
      "inputs": [
        {
          "name": "contractName",
          "type": "string"
        }
      ],
      "name": "getContractAddress",
      "outputs": [
        {
          "name": "selectedContractAddress",
          "type": "address"
        }
      ],
      "payable": false,
      "stateMutability": "view",
      "type": "function",
      "signature": "0x04433bbc"
    },
    {
      "constant": true,
      "inputs": [
        {
          "name": "selectedContractAddress",
          "type": "address"
        }
      ],
      "name": "isContract",
      "outputs": [
        {
          "name": "",
          "type": "bool"
        }
      ],
      "payable": false,
      "stateMutability": "view",
      "type": "function",
      "signature": "0x16279055"
    },
    {
      "constant": true,
      "inputs": [],
      "name": "tokenAddress",
      "outputs": [
        {
          "name": "",
          "type": "address"
        }
      ],
      "payable": false,
      "stateMutability": "view",
      "type": "function",
      "signature": "0x9d76ea58"
    }
  ],
  "bytecode": "0x608060405260008054600160a060020a031916331790556106b7806100256000396000f3006080604052600436106100775763ffffffff7c010000000000000000000000000000000000000000000000000000000060003504166304433bbc811461007c57806316279055146100f1578063534e785c146101265780638da5cb5b1461018c5780639d76ea58146101a1578063f2fde38b146101b6575b600080fd5b34801561008857600080fd5b506040805160206004803580820135601f81018490048402850184019095528484526100d59436949293602493928401919081908401838280828437509497506101d79650505050505050565b60408051600160a060020a039092168252519081900360200190f35b3480156100fd57600080fd5b50610112600160a060020a03600435166102ba565b604080519115158252519081900360200190f35b34801561013257600080fd5b506040805160206004803580820135601f810184900484028501840190955284845261018a94369492936024939284019190819084018382808284375094975050509235600160a060020a031693506102d892505050565b005b34801561019857600080fd5b506100d561051b565b3480156101ad57600080fd5b506100d561052a565b3480156101c257600080fd5b5061018a600160a060020a036004351661056f565b600080826040516020018082805190602001908083835b6020831061020d5780518252601f1990920191602091820191016101ee565b6001836020036101000a0380198251168184511680821785525050505050509050019150506040516020818303038152906040526040518082805190602001908083835b602083106102705780518252601f199092019160209182019101610251565b51815160209384036101000a60001901801990921691161790526040805192909401829003909120600090815260019091529190912054600160a060020a03169695505050505050565b600160a060020a031660009081526002602052604090205460ff1690565b600080548190600160a060020a0316331461037a57604080517f08c379a000000000000000000000000000000000000000000000000000000000815260206004820152602a60248201527f4f6e6c7920636f6e7472616374206f776e65722063616e2063616c6c2074686960448201527f732066756e6374696f6e00000000000000000000000000000000000000000000606482015290519081900360840190fd5b836040516020018082805190602001908083835b602083106103ad5780518252601f19909201916020918201910161038e565b6001836020036101000a0380198251168184511680821785525050505050509050019150506040516020818303038152906040526040518082805190602001908083835b602083106104105780518252601f1990920191602091820191016103f1565b51815160209384036101000a60001901801990921691161790526040805192909401829003909120600081815260019092529290205491955050600160a060020a031615915061048c90505750600081815260016020908152604080832054600160a060020a03168084526002909252909120805460ff191690555b6000828152600160205260409020805473ffffffffffffffffffffffffffffffffffffffff1916600160a060020a038516908117909155156104ec57600160a060020a0383166000908152600260205260409020805460ff191660011790555b6040517f28914ac9a6b0dbfdb15f37605b815f088e8ceac8029c476e7917be779ecb9b1a90600090a150505050565b600054600160a060020a031681565b600061056a6040805190810160405280600581526020017f546f6b656e0000000000000000000000000000000000000000000000000000008152506101d7565b905090565b600054600160a060020a0316331461060e57604080517f08c379a000000000000000000000000000000000000000000000000000000000815260206004820152602a60248201527f4f6e6c7920636f6e7472616374206f776e65722063616e2063616c6c2074686960448201527f732066756e6374696f6e00000000000000000000000000000000000000000000606482015290519081900360840190fd5b600160a060020a038116151561062357600080fd5b60008054604051600160a060020a03808516939216917f8be0079c531659141344cd1fd0a4f28419497f9722a3daafe3b4186f6b6457e091a36000805473ffffffffffffffffffffffffffffffffffffffff1916600160a060020a03929092169190911790555600a165627a7a72305820fdbc89ff2b6bff9b32b473c0b3db3edd5087bc46de466262d0b2479cc7b46a0f0029",
  "source": "pragma solidity ^0.4.23;\n\n/**\n* @title Ownable\n* @dev The Ownable contract has an owner address, and provides basic authorization control\n* functions, this simplifies the implementation of \"user permissions\".\n*/\ncontract Ownable {\n    address public owner;\n\n    event OwnershipTransferred(address indexed previousOwner, address indexed newOwner);\n\n    /**\n    * @dev The Ownable constructor sets the original `owner` of the contract to the sender\n    * account.\n    */\n    constructor () public {\n        owner = msg.sender;\n    }\n\n    /**\n    * @dev Throws if called by any account other than the owner.\n    */\n    modifier onlyOwner() {\n        require(msg.sender == owner, \"Only contract owner can call this function\");\n        _;\n    }\n\n    /**\n    * @dev Allows the current owner to transfer control of the contract to a newOwner.\n    * @param newOwner The address to transfer ownership to.\n    */\n    function transferOwnership(address newOwner) public onlyOwner {\n        require(newOwner != address(0));\n        emit OwnershipTransferred(owner, newOwner);\n        owner = newOwner;\n    }\n\n}\n\ncontract Hub is Ownable{\n    mapping(bytes32 => address) contractAddress;\n    mapping(address => bool) contractList;\n\n    event ContractsChanged();\n\n    function setContractAddress(string contractName, address newContractAddress)\n    public onlyOwner {\n        bytes32 index = keccak256(abi.encodePacked(contractName));\n\n        if(contractAddress[index] != address(0)) {\n            address oldContractAddress = contractAddress[index];\n            contractList[oldContractAddress] = false;\n        }\n        contractAddress[index] = newContractAddress;\n\n        if(newContractAddress != address(0)){\n            contractList[newContractAddress] = true;\n        }\n\n        emit ContractsChanged();\n    }\n\n    function getContractAddress(string contractName)  public view returns(address selectedContractAddress) {\n        bytes32 index = keccak256(abi.encodePacked(contractName));\n        return contractAddress[index];\n    }\n    \n    function isContract(address selectedContractAddress) public view returns (bool) {\n        return contractList[selectedContractAddress];\n    }\n\n    /**\n    * @dev Legacy function for getting token contract address\n    */\n    function tokenAddress() public view returns(address) {\n        return getContractAddress(\"Token\");\n    }\n}\n\n",
  "sourcePath": "/Users/miloskotlar/ot-node/modules/Blockchain/Polygon/contracts/Hub.sol",
  "compiler": {
    "name": "solc",
    "version": "0.4.25+commit.59dbf8f1.Emscripten.clang"
  },
  "schemaVersion": "3.0.0-beta.1",
  "updatedAt": "2021-08-16T09:42:48.412Z"
}