{
  "contractName": "Identity",
  "abi": [
    {
      "constant": true,
      "inputs": [],
      "name": "otVersion",
      "outputs": [
        {
          "name": "",
          "type": "uint256"
        }
      ],
      "payable": false,
      "stateMutability": "view",
      "type": "function"
    },
    {
      "inputs": [
        {
          "name": "operational",
          "type": "address"
        },
        {
          "name": "management",
          "type": "address"
        }
      ],
      "payable": false,
      "stateMutability": "nonpayable",
      "type": "constructor"
    },
    {
      "anonymous": false,
      "inputs": [
        {
          "indexed": true,
          "name": "key",
          "type": "bytes32"
        },
        {
          "indexed": false,
          "name": "purposes",
          "type": "uint256[]"
        },
        {
          "indexed": true,
          "name": "keyType",
          "type": "uint256"
        }
      ],
      "name": "KeyAdded",
      "type": "event"
    },
    {
      "anonymous": false,
      "inputs": [
        {
          "indexed": true,
          "name": "key",
          "type": "bytes32"
        },
        {
          "indexed": false,
          "name": "purposes",
          "type": "uint256[]"
        },
        {
          "indexed": true,
          "name": "keyType",
          "type": "uint256"
        }
      ],
      "name": "KeyRemoved",
      "type": "event"
    },
    {
      "anonymous": false,
      "inputs": [
        {
          "indexed": true,
          "name": "executionId",
          "type": "uint256"
        },
        {
          "indexed": true,
          "name": "to",
          "type": "address"
        },
        {
          "indexed": true,
          "name": "value",
          "type": "uint256"
        },
        {
          "indexed": false,
          "name": "data",
          "type": "bytes"
        }
      ],
      "name": "ExecutionRequested",
      "type": "event"
    },
    {
      "anonymous": false,
      "inputs": [
        {
          "indexed": true,
          "name": "executionId",
          "type": "uint256"
        },
        {
          "indexed": true,
          "name": "to",
          "type": "address"
        },
        {
          "indexed": true,
          "name": "value",
          "type": "uint256"
        },
        {
          "indexed": false,
          "name": "data",
          "type": "bytes"
        }
      ],
      "name": "Executed",
      "type": "event"
    },
    {
      "anonymous": false,
      "inputs": [
        {
          "indexed": true,
          "name": "executionId",
          "type": "uint256"
        },
        {
          "indexed": false,
          "name": "approved",
          "type": "bool"
        }
      ],
      "name": "Approved",
      "type": "event"
    },
    {
      "constant": false,
      "inputs": [
        {
          "name": "_key",
          "type": "bytes32"
        },
        {
          "name": "_purposes",
          "type": "uint256[]"
        },
        {
          "name": "_type",
          "type": "uint256"
        }
      ],
      "name": "addKey",
      "outputs": [
        {
          "name": "success",
          "type": "bool"
        }
      ],
      "payable": false,
      "stateMutability": "nonpayable",
      "type": "function"
    },
    {
      "constant": false,
      "inputs": [
        {
          "name": "_id",
          "type": "uint256"
        },
        {
          "name": "_approve",
          "type": "bool"
        }
      ],
      "name": "approve",
      "outputs": [
        {
          "name": "success",
          "type": "bool"
        }
      ],
      "payable": false,
      "stateMutability": "nonpayable",
      "type": "function"
    },
    {
      "constant": false,
      "inputs": [
        {
          "name": "_to",
          "type": "address"
        },
        {
          "name": "_value",
          "type": "uint256"
        },
        {
          "name": "_data",
          "type": "bytes"
        }
      ],
      "name": "execute",
      "outputs": [
        {
          "name": "executionId",
          "type": "uint256"
        }
      ],
      "payable": false,
      "stateMutability": "nonpayable",
      "type": "function"
    },
    {
      "constant": false,
      "inputs": [
        {
          "name": "_key",
          "type": "bytes32"
        }
      ],
      "name": "removeKey",
      "outputs": [
        {
          "name": "success",
          "type": "bool"
        }
      ],
      "payable": false,
      "stateMutability": "nonpayable",
      "type": "function"
    },
    {
      "constant": true,
      "inputs": [
        {
          "name": "_key",
          "type": "bytes32"
        }
      ],
      "name": "getKey",
      "outputs": [
        {
          "name": "purposes",
          "type": "uint256[]"
        },
        {
          "name": "keyType",
          "type": "uint256"
        },
        {
          "name": "key",
          "type": "bytes32"
        }
      ],
      "payable": false,
      "stateMutability": "view",
      "type": "function"
    },
    {
      "constant": true,
      "inputs": [
        {
          "name": "_key",
          "type": "bytes32"
        }
      ],
      "name": "getKeyPurposes",
      "outputs": [
        {
          "name": "purposes",
          "type": "uint256[]"
        }
      ],
      "payable": false,
      "stateMutability": "view",
      "type": "function"
    },
    {
      "constant": true,
      "inputs": [
        {
          "name": "_purpose",
          "type": "uint256"
        }
      ],
      "name": "getKeysByPurpose",
      "outputs": [
        {
          "name": "_keys",
          "type": "bytes32[]"
        }
      ],
      "payable": false,
      "stateMutability": "view",
      "type": "function"
    },
    {
      "constant": true,
      "inputs": [
        {
          "name": "_key",
          "type": "bytes32"
        },
        {
          "name": "_purpose",
          "type": "uint256"
        }
      ],
      "name": "keyHasPurpose",
      "outputs": [
        {
          "name": "result",
          "type": "bool"
        }
      ],
      "payable": false,
      "stateMutability": "view",
      "type": "function"
    }
  ],
  "bytecode": "0x60806040523480156200001157600080fd5b50604051604080620018d5833981016040528051602090910151600080600160a060020a038416158015906200004f5750600160a060020a03831615155b15156200005b57600080fd5b6001600055604080516c01000000000000000000000000600160a060020a0386160260208083019190915282518083036014018152603490920192839052815191929182918401908083835b60208310620000c85780518252601f199092019160209182019101620000a7565b51815160209384036101000a60001901801990921691161790526040805192909401829003822060008181526002808452868220808201849055600180820181905560808701895286528585018290526003978601979097526004606086018190529183905290925297506200014595509293509190506200047b565b507fa15bc60c955c405d20d9149c709e2460f1c2d9a497496a7f46004d1772c3054c805460018181019092557f2c644dcf44e265ba93879b2da89e1b16ab48fc5eb8e31bc16b0612d6da8463f10183905560008051602062001835833981519152805480830190915560008051602062001875833981519152018390557fcbc4e5fb02c3d1de23a9f1e014b4d2ee5aeaea9505df5e855c9210bf472495af80548083019091557ffa8d260207fe657f2346775cc7df9e07ba0a08e64ccd28972b30bb03ba9b295b018390556000805160206200185583398151915280548083019091556000805160206200189583398151915201839055600083815260026020908152604091829020825182815281549281018390528693600080516020620018b583398151915293829182019084908015620002a257602002820191906000526020600020905b8154815260200190600101908083116200028d575b50509250505060405180910390a3600160a060020a03848116908416146200047157836040516020018082600160a060020a0316600160a060020a03166c010000000000000000000000000281526014019150506040516020818303038152906040526040518082805190602001908083835b60208310620003365780518252601f19909201916020918201910162000315565b51815160209384036101000a6000190180199092169116179052604080519290940182900382206000818152600280845286822080820184905560018082015585880190975280855260048585015290829052918290529650620003a195509293509190506200047b565b50600080516020620018358339815191528054600181810190925560008051602062001875833981519152018290556000805160206200185583398151915280548083019091556000805160206200189583398151915201829055600082815260026020908152604091829020825182815281549281018390528593600080516020620018b5833981519152938291820190849080156200046257602002820191906000526020600020905b8154815260200190600101908083116200044d575b50509250505060405180910390a35b50505050620004f0565b828054828255906000526020600020908101928215620004be579160200282015b82811115620004be578251829060ff169055916020019190600101906200049c565b50620004cc929150620004d0565b5090565b620004ed91905b80821115620004cc5760008155600101620004d7565b90565b61133580620005006000396000f3006080604052600436106100985763ffffffff7c010000000000000000000000000000000000000000000000000000000060003504166312aaac70811461009d57806322a2133014610116578063747442d31461013d578063862642f51461016e5780639010f72614610186578063a820f50a146101ee578063b61d27f614610215578063d202158d1461027e578063fb307b3414610299575b600080fd5b3480156100a957600080fd5b506100b56004356102b1565b60408051602080820185905291810183905260608082528551908201528451909182916080830191878101910280838360005b838110156101005781810151838201526020016100e8565b5050505090500194505050505060405180910390f35b34801561012257600080fd5b5061012b61032d565b60408051918252519081900360200190f35b34801561014957600080fd5b5061015a6004356024351515610333565b604080519115158252519081900360200190f35b34801561017a57600080fd5b5061015a600435610859565b34801561019257600080fd5b5061019e600435610b5c565b60408051602080825283518183015283519192839290830191858101910280838360005b838110156101da5781810151838201526020016101c2565b505050509050019250505060405180910390f35b3480156101fa57600080fd5b5061015a600480359060248035908101910135604435610bbf565b34801561022157600080fd5b50604080516020600460443581810135601f810184900484028501840190955284845261012b948235600160a060020a0316946024803595369594606494920191908190840183828082843750949750610d589650505050505050565b34801561028a57600080fd5b5061015a600435602435610f73565b3480156102a557600080fd5b5061019e600435610f9c565b60008181526002602081815260408084206001810154938101548154835181860281018601909452808452606096958695939490939091859183018282801561031957602002820191906000526020600020905b815481526020019060010190808311610305575b505050505092509250925092509193909250565b60005481565b600082815260046020908152604080832080546002918201805484516101006001831615026000190190911693909304601f8101869004860284018601909452838352600160a060020a039091169385936103e59392918301828280156103db5780601f106103b0576101008083540402835291602001916103db565b820191906000526020600020905b8154815290600101906020018083116103be57829003601f168201915b5050505050610ffd565b9050600160a060020a0382163014156105d0577fa820f50a000000000000000000000000000000000000000000000000000000007bffffffffffffffffffffffffffffffffffffffffffffffffffffffff198216148061048357507f862642f5000000000000000000000000000000000000000000000000000000007bffffffffffffffffffffffffffffffffffffffffffffffffffffffff198216145b1561052c57604080516c01000000000000000000000000330260208083019190915282518083036014018152603490920192839052815161051c93918291908401908083835b602083106104e85780518252601f1990920191602091820191016104c9565b6001836020036101000a03801982511681845116808217855250505050505090500191505060405180910390206001610f73565b151561052757600080fd5b6105cb565b604080516c0100000000000000000000000033026020808301919091528251808303601401815260349092019283905281516105c093918291908401908083835b6020831061058c5780518252601f19909201916020918201910161056d565b6001836020036101000a03801982511681845116808217855250505050505090500191505060405180910390206002610f73565b15156105cb57600080fd5b61063a565b604080516c01000000000000000000000000330260208083019190915282518083036014018152603490920192839052815161062f93918291908401908083836020831061058c5780518252601f19909201916020918201910161056d565b151561063a57600080fd5b604080518515158152905186917fb3932da477fe5d6c8ff2eafef050c0f3a1af18fc07121001482600f36f3715d8919081900360200190a260018415151415610833576000858152600460205260409081902060038101805460ff19166001908117909155815482820154935160029384018054600160a060020a03909316959490939192839285926000199183161561010002919091019091160480156107235780601f106106f857610100808354040283529160200191610723565b820191906000526020600020905b81548152906001019060200180831161070657829003601f168201915b505091505060006040518083038185875af1925050509250821561082e5760008581526004602090815260409182902060038101805461010061ff00199091168117909155600180830154835486518681526002958601805494851615909502600019019093169490940494820185905294600160a060020a03909316938a937f1f920dbda597d7bf95035464170fa58d0a4b57f13a1c315ace6793b9f63688b893929182918201908490801561081b5780601f106107f05761010080835404028352916020019161081b565b820191906000526020600020905b8154815290600101906020018083116107fe57829003601f168201915b50509250505060405180910390a4610851565b610851565b6000858152600460205260409020600301805460ff19169055600192505b505092915050565b60008060006108d0336040516020018082600160a060020a0316600160a060020a03166c01000000000000000000000000028152601401915050604051602081830303815290604052604051808280519060200190808383602083106104e85780518252601f1990920191602091820191016104c9565b15156108db57600080fd5b8315156108e757600080fd5b60008481526002602081905260409091200154841461090557600080fd5b6001600081905260036020527fa15bc60c955c405d20d9149c709e2460f1c2d9a497496a7f46004d1772c3054c541480156109465750610946846001610f73565b156109d857604080517f08c379a000000000000000000000000000000000000000000000000000000000815260206004820152602260248201527f43616e6e6f742064656c657465206f6e6c79206d616e6167656d656e74206b6560448201527f7921000000000000000000000000000000000000000000000000000000000000606482015290519081900360840190fd5b60008481526002602081815260409283902060018101549281015484518381528254938101849052939490937f8b4b1134f379fbe0fcf31b9ff43aa8003df39c09d09bd06671288e1b0a1f2b4a93909182919082019084908015610a5b57602002820191906000526020600020905b815481526020019060010190808311610a47575b50509250505060405180910390a3600091505b600084815260026020526040902054821015610b2a5760008481526002602052604081208054610ace92879260039287908110610aa757fe5b9060005260206000200154815260200190815260200160002061108890919063ffffffff16565b5060008581526002602052604081208054929350610b1e928492600392909187908110610af757fe5b906000526020600020015481526020019081526020016000206110dc90919063ffffffff16565b50600190910190610a6e565b600084815260026020526040812090610b4382826111e9565b5060006001828101829055600290920155949350505050565b600081815260036020908152604091829020805483518184028101840190945280845260609392830182828015610bb357602002820191906000526020600020905b81548152600190910190602001808311610b9e575b50505050509050919050565b600080610c34336040516020018082600160a060020a0316600160a060020a03166c01000000000000000000000000028152601401915050604051602081830303815290604052604051808280519060200190808383602083106104e85780518252601f1990920191602091820191016104c9565b1515610c3f57600080fd5b851515610c4b57600080fd5b60008681526002602081905260409091200154861415610c6a57600080fd5b6000868152600260208190526040909120908101879055610c8c90868661120a565b505060008581526002602052604081206001018390555b83811015610cf35760036000868684818110610cbb57fe5b602090810292909201358352508181019290925260400160009081208054600181810183559183529290912090910187905501610ca3565b8286600019167fe5b96345754b4b918f72e77b7ab261725bce3e956dc95888b754048d13f608de87876040518080602001828103825284848281815260200192506020028082843760405192018290039550909350505050a350600195945050505050565b600154600090815260046020526040812060030154610100900460ff1615610d7f57600080fd5b600180546000908152600460209081526040808320805473ffffffffffffffffffffffffffffffffffffffff1916600160a060020a038a16179055835483528083208401879055925482529190208351610de192600290920191850190611255565b50604080516c010000000000000000000000003302602080830191909152825180830360140181526034909201928390528151610e419391829190840190808383602083106104e85780518252601f1990920191602091820191016104c9565b80610ea65750604080516c010000000000000000000000003302602080830191909152825180830360140181526034909201928390528151610ea693918291908401908083836020831061058c5780518252601f19909201916020918201910161056d565b15610eba57610eb86001546001610333565b505b8284600160a060020a03166001547f8afcfabcb00e47a53a8fc3e9f23ff47ee1926194bb1350dd007c50b412a6cee8856040518080602001828103825283818151815260200191508051906020019080838360005b83811015610f27578181015183820152602001610f0f565b50505050905090810190601f168015610f545780820380516001836020036101000a031916815260200191505b509250505060405180910390a450600180548082019091559392505050565b60008281526002602052604081208190610f93908463ffffffff6111a716565b95945050505050565b600081815260026020908152604091829020805483518184028101840190945280845260609392830182828015610bb357602002820191906000526020600020905b815481526020019060010190808311610fde5750505050509050919050565b600080805b60048110156110815780600802848281518110151561101d57fe5b60209101015160029190910a7f0100000000000000000000000000000000000000000000000000000000000000918290049091027fff0000000000000000000000000000000000000000000000000000000000000016049190911790600101611002565b5092915050565b600080805b84548110156110cc57845484908690839081106110a657fe5b60009182526020909120015414156110c457806001925092506110d4565b60010161108d565b600092508291505b509250929050565b815460609082106110ec576111a1565b8254839060001981019081106110fe57fe5b9060005260206000200154838381548110151561111757fe5b60009182526020909120015582548390600019810190811061113557fe5b600091825260208220015582546000190161115084826112c3565b5082546040805160208084028201810190925282815291859183018282801561119957602002820191906000526020600020905b81548152600190910190602001808311611184575b505050505090505b92915050565b600080805b84548110156110cc578385828154811015156111c457fe5b906000526020600020015414156111e157806001925092506110d4565b6001016111ac565b508054600082559060005260206000209081019061120791906112ec565b50565b828054828255906000526020600020908101928215611245579160200282015b8281111561124557823582559160200191906001019061122a565b506112519291506112ec565b5090565b828054600181600116156101000203166002900490600052602060002090601f016020900481019282601f1061129657805160ff1916838001178555611245565b82800160010185558215611245579182015b828111156112455782518255916020019190600101906112a8565b8154818355818111156112e7576000838152602090206112e79181019083016112ec565b505050565b61130691905b8082111561125157600081556001016112f2565b905600a165627a7a723058209b85a69be328a3b41c0cfb57651680038c028f68cfff1dba5ab5019d4ef60da10029c3a24b0501bd2c13a7e57f2db4369ec4c223447539fc0724a9d55ac4a06ebd4d83ec6a1f0257b830b5e016457c9cf1435391bf56cc98f369a58a54fe9377246519b5847ec9d8983e32da86b2c2bedc7b0bcabd1d214557fda78706fe7ba568ce5fa3dab1e0e1070445c119c6fd10edd16d6aa2f25a5899217f919c041d474318e5b96345754b4b918f72e77b7ab261725bce3e956dc95888b754048d13f608de",
  "source": "pragma solidity ^0.4.18;\n\nimport './ByteArr.sol';\nimport './ERC725.sol';\n\ncontract Identity is ERC725 {\n    using ByteArr for bytes;\n    using ByteArr for bytes32[];\n    using ByteArr for uint256[];\n\n    struct Execution {\n        address to;\n        uint256 value;\n        bytes data;\n        bool approved;\n        bool executed;\n    }\n\n    uint256 executionNonce;\n\n    mapping (bytes32 => Key) keys;\n    mapping (uint256 => bytes32[]) keysByPurpose;\n    mapping (uint256 => Execution) executions;\n\n    constructor(address operational, address management) public {\n        require(operational != address(0) && management != address(0));\n\n        otVersion = 1;\n\n        bytes32 _management_key = keccak256(abi.encodePacked(management));\n\n        keys[_management_key].key = _management_key;\n\n        keys[_management_key].keyType = 1;\n\n        keys[_management_key].purposes = [1,2,3,4];\n\n        keysByPurpose[1].push(_management_key);\n        keysByPurpose[2].push(_management_key);\n        keysByPurpose[3].push(_management_key);\n        keysByPurpose[4].push(_management_key);\n        emit KeyAdded(_management_key, keys[_management_key].purposes, 1);\n\n        if(operational != management){\n            bytes32 _operational_key = keccak256(abi.encodePacked(operational));\n\n            keys[_operational_key].key = _operational_key;\n\n            keys[_operational_key].keyType = 1;\n\n            keys[_operational_key].purposes = [2,4];\n\n            keysByPurpose[2].push(_operational_key);\n            keysByPurpose[4].push(_operational_key);\n\n            emit KeyAdded(_operational_key, keys[_operational_key].purposes, 1);\n        }\n    }\n\n    function addKey(bytes32 _key, uint256[] _purposes, uint256 _type) external returns (bool success) {\n        require(keyHasPurpose(keccak256(abi.encodePacked(msg.sender)), 1));\n        require(_key != bytes32(0));\n        require(keys[_key].key != _key);\n\n        keys[_key].key = _key;\n        keys[_key].purposes = _purposes;\n        keys[_key].keyType = _type;\n\n        for (uint i = 0; i < _purposes.length; i++) {\n            keysByPurpose[_purposes[i]].push(_key);\n        }\n\n        emit KeyAdded(_key, _purposes, _type);\n        return true;\n    }\n\n    //  \"a820f50a\": \"addKey(bytes32,uint256[],uint256)\",\n    //  \"747442d3\": \"approve(uint256,bool)\",\n    //  \"b61d27f6\": \"execute(address,uint256,bytes)\",\n    //  \"862642f5\": \"removeKey(bytes32)\"\n\n    function approve(uint256 _id, bool _approve) public returns (bool success) {\n        address to = executions[_id].to;\n        bytes4 fHash = executions[_id].data.getFuncHash();\n        if (to == address(this)) {\n            if (fHash == 0xa820f50a || fHash == 0x862642f5) {\n                require(keyHasPurpose(keccak256(abi.encodePacked(msg.sender)), 1));\n            } else {\n                require(keyHasPurpose(keccak256(abi.encodePacked(msg.sender)), 2));\n            }\n        } else {\n            require(keyHasPurpose(keccak256(abi.encodePacked(msg.sender)), 2));\n        }\n\n        emit Approved(_id, _approve);\n\n        if (_approve == true) {\n            executions[_id].approved = true;\n            success = executions[_id].to.call.value(executions[_id].value)(executions[_id].data);\n            if (success) {\n                executions[_id].executed = true;\n                emit Executed(_id, executions[_id].to, executions[_id].value, executions[_id].data);\n                return;\n            } else {\n                return;\n            }\n        } else {\n            executions[_id].approved = false;\n        }\n        return true;\n    }\n\n    function execute(address _to, uint256 _value, bytes _data) public returns (uint256 executionId) {\n        require(!executions[executionNonce].executed);\n        executions[executionNonce].to = _to;\n        executions[executionNonce].value = _value;\n        executions[executionNonce].data = _data;\n\n        if (keyHasPurpose(keccak256(abi.encodePacked(msg.sender)),1) || keyHasPurpose(keccak256(abi.encodePacked(msg.sender)),2)) {\n            approve(executionNonce, true);\n        }\n\n        emit ExecutionRequested(executionNonce, _to, _value, _data);\n\n        executionNonce++;\n        return executionNonce-1;\n    }\n\n    function removeKey(bytes32 _key) external returns (bool success) {\n        require(keyHasPurpose(keccak256(abi.encodePacked(msg.sender)), 1));\n        require(_key != bytes32(0));\n\n        require(keys[_key].key == _key);\n\n        require(!(keysByPurpose[1].length == 1 && keyHasPurpose(_key, 1)), \"Cannot delete only management key!\");\n\n        emit KeyRemoved(keys[_key].key, keys[_key].purposes, keys[_key].keyType);\n\n        for (uint i = 0; i < keys[_key].purposes.length; i++) {\n            uint index;\n            (index,) = keysByPurpose[keys[_key].purposes[i]].indexOf(_key);\n            keysByPurpose[keys[_key].purposes[i]].removeByIndex(index);\n        }\n\n        delete keys[_key];\n\n        return true;\n    }\n\n    function getKey(bytes32 _key) public view returns (uint256[] purposes, uint256 keyType, bytes32 key){\n        return (keys[_key].purposes, keys[_key].keyType, keys[_key].key);\n    }\n\n    function getKeyPurposes(bytes32 _key) public view returns (uint256[] purposes) {\n        return keys[_key].purposes;\n    }\n\n    function getKeysByPurpose(uint256 _purpose) public view returns (bytes32[] _keys) {\n        return keysByPurpose[_purpose];\n    }\n\n    function keyHasPurpose(bytes32 _key, uint256 _purpose) public view returns (bool result) {\n        bool isThere;\n        (,isThere) = keys[_key].purposes.indexOf(_purpose);\n        return isThere;\n    }\n}",
  "sourcePath": "/Users/miloskotlar/ot-node/modules/Blockchain/Polygon/contracts/Identity.sol",
  "compiler": {
    "name": "solc",
    "version": "0.4.25+commit.59dbf8f1.Emscripten.clang"
  },
  "schemaVersion": "3.0.0-beta.1",
  "updatedAt": "2021-08-16T09:42:48.614Z"
}