{
  "contractName": "Litigation",
  "abi": [
    {
      "constant": true,
      "inputs": [],
      "name": "hub",
      "outputs": [
        {
          "name": "",
          "type": "address"
        }
      ],
      "payable": false,
      "stateMutability": "view",
      "type": "function",
      "signature": "0x365a86fc"
    },
    {
      "inputs": [
        {
          "name": "hubAddress",
          "type": "address"
        }
      ],
      "payable": false,
      "stateMutability": "nonpayable",
      "type": "constructor",
      "signature": "constructor"
    },
    {
      "anonymous": false,
      "inputs": [
        {
          "indexed": false,
          "name": "offerId",
          "type": "bytes32"
        },
        {
          "indexed": false,
          "name": "holderIdentity",
          "type": "address"
        },
        {
          "indexed": false,
          "name": "requestedObjectIndex",
          "type": "uint256"
        },
        {
          "indexed": false,
          "name": "requestedBlockIndex",
          "type": "uint256"
        }
      ],
      "name": "LitigationInitiated",
      "type": "event",
      "signature": "0x86d8abbef37f520cc478cc865cbaee78054bf95e4f50cdc54d4fa8c0ab0cacc9"
    },
    {
      "anonymous": false,
      "inputs": [
        {
          "indexed": false,
          "name": "offerId",
          "type": "bytes32"
        },
        {
          "indexed": false,
          "name": "holderIdentity",
          "type": "address"
        }
      ],
      "name": "LitigationAnswered",
      "type": "event",
      "signature": "0xc2a8f0491b8101b93fa164bc11e6bfe6feb2f2851a3cbdcc564558657f7dcbed"
    },
    {
      "anonymous": false,
      "inputs": [
        {
          "indexed": false,
          "name": "offerId",
          "type": "bytes32"
        },
        {
          "indexed": false,
          "name": "holderIdentity",
          "type": "address"
        }
      ],
      "name": "LitigationTimedOut",
      "type": "event",
      "signature": "0xa74ee0b8312af8d11663ba30424794d1429af70943b135b2a8cc90dd0780a6f0"
    },
    {
      "anonymous": false,
      "inputs": [
        {
          "indexed": false,
          "name": "offerId",
          "type": "bytes32"
        },
        {
          "indexed": false,
          "name": "holderIdentity",
          "type": "address"
        },
        {
          "indexed": false,
          "name": "DH_was_penalized",
          "type": "bool"
        }
      ],
      "name": "LitigationCompleted",
      "type": "event",
      "signature": "0x1bbf1213e59fb773d8a3f67301ab0a75838e9d7104db9e6e51ba96d3c7a502c0"
    },
    {
      "anonymous": false,
      "inputs": [
        {
          "indexed": false,
          "name": "offerId",
          "type": "bytes32"
        },
        {
          "indexed": false,
          "name": "holderIdentity",
          "type": "address"
        },
        {
          "indexed": false,
          "name": "challengerIdentity",
          "type": "address"
        },
        {
          "indexed": false,
          "name": "litigationRootHash",
          "type": "bytes32"
        }
      ],
      "name": "ReplacementStarted",
      "type": "event",
      "signature": "0x2e76005412feee116fc9f06ec08f34201e1f54a156f831abba5084f1fca59510"
    },
    {
      "constant": false,
      "inputs": [
        {
          "name": "newHubAddress",
          "type": "address"
        }
      ],
      "name": "setHubAddress",
      "outputs": [],
      "payable": false,
      "stateMutability": "nonpayable",
      "type": "function",
      "signature": "0xc7eb4522"
    },
    {
      "constant": false,
      "inputs": [
        {
          "name": "offerId",
          "type": "bytes32"
        },
        {
          "name": "holderIdentity",
          "type": "address"
        },
        {
          "name": "challengerIdentity",
          "type": "address"
        },
        {
          "name": "requestedObjectIndex",
          "type": "uint256"
        },
        {
          "name": "requestedBlockIndex",
          "type": "uint256"
        },
        {
          "name": "hashArray",
          "type": "bytes32[]"
        }
      ],
      "name": "initiateLitigation",
      "outputs": [
        {
          "name": "newLitigationInitiated",
          "type": "bool"
        }
      ],
      "payable": false,
      "stateMutability": "nonpayable",
      "type": "function",
      "signature": "0x656c13f1"
    },
    {
      "constant": false,
      "inputs": [
        {
          "name": "offerId",
          "type": "bytes32"
        },
        {
          "name": "holderIdentity",
          "type": "address"
        },
        {
          "name": "requestedData",
          "type": "bytes32"
        }
      ],
      "name": "answerLitigation",
      "outputs": [
        {
          "name": "answer_accepted",
          "type": "bool"
        }
      ],
      "payable": false,
      "stateMutability": "nonpayable",
      "type": "function",
      "signature": "0xe07031a9"
    },
    {
      "constant": false,
      "inputs": [
        {
          "name": "offerId",
          "type": "bytes32"
        },
        {
          "name": "holderIdentity",
          "type": "address"
        },
        {
          "name": "litigatorIdentity",
          "type": "address"
        },
        {
          "name": "proofData",
          "type": "bytes32"
        },
        {
          "name": "leafIndex",
          "type": "uint256"
        }
      ],
      "name": "completeLitigation",
      "outputs": [
        {
          "name": "DH_was_penalized",
          "type": "bool"
        }
      ],
      "payable": false,
      "stateMutability": "nonpayable",
      "type": "function",
      "signature": "0x2deb24ee"
    }
  ],
  "bytecode": "0x608060405234801561001057600080fd5b506040516020806146ea833981016040525160008054600160a060020a03909216600160a060020a0319909216919091179055614698806100526000396000f3006080604052600436106100535763ffffffff60e060020a6000350416632deb24ee8114610058578063365a86fc1461009c578063656c13f1146100cd578063c7eb452214610143578063e07031a914610166575b600080fd5b34801561006457600080fd5b50610088600435600160a060020a036024358116906044351660643560843561018d565b604080519115158252519081900360200190f35b3480156100a857600080fd5b506100b16112af565b60408051600160a060020a039092168252519081900360200190f35b3480156100d957600080fd5b506040805160a4356004818101356020818102858101820190965281855261008895833595600160a060020a03602480358216976044359092169660643596608435963696929560c495909401928291850190849080828437509497506112be9650505050505050565b34801561014f57600080fd5b50610164600160a060020a03600435166120eb565b005b34801561017257600080fd5b50610088600435600160a060020a0360243516604435612229565b600080546040805160e260020a630110ceef028152602060048201819052600e602483015260008051602061462d833981519152604483015291518493849384936060938593600160a060020a0316926304433bbc926064808201939182900301818787803b1580156101ff57600080fd5b505af1158015610213573d6000803e3d6000fd5b505050506040513d602081101561022957600080fd5b5051600080546040805160e260020a630110ceef0281526020600482018190526011602483015260008051602061464d83398151915260448301529151949950600160a060020a03909216936304433bbc936064808501948390030190829087803b15801561029757600080fd5b505af11580156102ab573d6000803e3d6000fd5b505050506040513d60208110156102c157600080fd5b5051600080546040805160e260020a630110ceef028152602060048201819052600e60248301527f50726f66696c6553746f7261676500000000000000000000000000000000000060448301529151949850600160a060020a03909216936304433bbc936064808501948390030190829087803b15801561034157600080fd5b505af1158015610355573d6000803e3d6000fd5b505050506040513d602081101561036b57600080fd5b5051604080517fa2657315000000000000000000000000000000000000000000000000000000008152600481018e90529051919450600160a060020a03808c16929088169163a26573159160248083019260209291908290030181600087803b1580156103d757600080fd5b505af11580156103eb573d6000803e3d6000fd5b505050506040513d602081101561040157600080fd5b5051600160a060020a031614610487576040805160e560020a62461bcd02815260206004820152603860248201527f4368616c6c656e676572206964656e74697479206e6f7420657175616c20746f60448201527f206f666665722063726561746f72206964656e74697479210000000000000000606482015290519081900360840190fd5b88600160a060020a031663d202158d336040516020018082600160a060020a0316600160a060020a03166c010000000000000000000000000281526014019150506040516020818303038152906040526040518082805190602001908083835b602083106105065780518252601f1990920191602091820191016104e7565b51815160209384036101000a60001901801990921691161790526040805192909401829003822063ffffffff881660e060020a028352600483015260026024830152925160448083019650939450929083900301905081600087803b15801561056e57600080fd5b505af1158015610582573d6000803e3d6000fd5b505050506040513d602081101561059857600080fd5b50511515610616576040805160e560020a62461bcd02815260206004820152602860248201527f53656e64657220646f6573206e6f74206861766520616374696f6e207075727060448201527f6f73652073657421000000000000000000000000000000000000000000000000606482015290519081900360840190fd5b604080517fd817da56000000000000000000000000000000000000000000000000000000008152600481018d9052600160a060020a038c811660248301529151828c169287169163d817da569160448083019260209291908290030181600087803b15801561068457600080fd5b505af1158015610698573d6000803e3d6000fd5b505050506040513d60208110156106ae57600080fd5b5051600160a060020a03161461075a576040805160e560020a62461bcd02815260206004820152604f60248201527f4c697469676174696f6e2063616e206f6e6c7920626520636f6d706c6574656460448201527f20627920746865206c6974696761746f722077686f20696e697469617465642060648201527f746865206c697469676174696f6e210000000000000000000000000000000000608482015290519081900360a40190fd5b60408051600480825260a08201909252906020820160808038833950506040805160e060020a6315a4aeb1028152600481018f9052600160a060020a038e811660248301529151939550908716926315a4aeb1925060448083019260209291908290030181600087803b1580156107d057600080fd5b505af11580156107e4573d6000803e3d6000fd5b505050506040513d60208110156107fa57600080fd5b505182518390600090811061080b57fe5b6020908102909101810191909152604080517febaa7432000000000000000000000000000000000000000000000000000000008152600481018e905290516108b892603c92600160a060020a038a169263ebaa7432926024808401939192918290030181600087803b15801561088057600080fd5b505af1158015610894573d6000803e3d6000fd5b505050506040513d60208110156108aa57600080fd5b50519063ffffffff612abf16565b8260018151811015156108c757fe5b6020908102909101810191909152604080517f59485c7e000000000000000000000000000000000000000000000000000000008152600481018e9052600160a060020a038d811660248301529151918716926359485c7e926044808401938290030181600087803b15801561093b57600080fd5b505af115801561094f573d6000803e3d6000fd5b505050506040513d602081101561096557600080fd5b50519050600381600481111561097757fe5b1415610a19576040805160e560020a62461bcd02815260206004820152604960248201527f5468652073656c656374656420686f6c64657220697320616c7265616479206260448201527f65696e67207265706c616365642c2063616e6e6f742063616c6c20746869732060648201527f66756e6374696f6e210000000000000000000000000000000000000000000000608482015290519081900360a40190fd5b6004816004811115610a2757fe5b1415610ac9576040805160e560020a62461bcd02815260206004820152604360248201527f5468652073656c656374656420686f6c64657220697320616c7265616479207260448201527f65706c616365642c2063616e6e6f742063616c6c20746869732066756e63746960648201527f6f6e210000000000000000000000000000000000000000000000000000000000608482015290519081900360a40190fd5b6000816004811115610ad757fe5b1415610b79576040805160e560020a62461bcd02815260206004820152604960248201527f43616e6e6f7420636f6d706c657465206120636f6d706c65746564206c69746960448201527f676174696f6e2074686174206973206e6f7420696e69746961746564206f722060648201527f616e737765726564210000000000000000000000000000000000000000000000608482015290519081900360a40190fd5b604080517f1aa063a7000000000000000000000000000000000000000000000000000000008152600481018d9052600160a060020a038c81166024830152915191871691631aa063a7916044808201926020929091908290030181600087803b158015610be557600080fd5b505af1158015610bf9573d6000803e3d6000fd5b505050506040513d6020811015610c0f57600080fd5b50511515610cc357604080517f19a60ed2000000000000000000000000000000000000000000000000000000008152600481018d90529051600160a060020a038716916319a60ed29160248083019260209291908290030181600087803b158015610c7957600080fd5b505af1158015610c8d573d6000803e3d6000fd5b505050506040513d6020811015610ca357600080fd5b5051825183906003908110610cb457fe5b60209081029091010152610e6d565b604080517f1aa063a7000000000000000000000000000000000000000000000000000000008152600481018d9052600160a060020a038c81166024830152915191871691631aa063a7916044808201926020929091908290030181600087803b158015610d2f57600080fd5b505af1158015610d43573d6000803e3d6000fd5b505050506040513d6020811015610d5957600080fd5b505160011415610dc557604080517ff06f8da7000000000000000000000000000000000000000000000000000000008152600481018d90529051600160a060020a0387169163f06f8da79160248083019260209291908290030181600087803b158015610c7957600080fd5b604080517feca72480000000000000000000000000000000000000000000000000000000008152600481018d90529051600160a060020a0387169163eca724809160248083019260209291908290030181600087803b158015610e2757600080fd5b505af1158015610e3b573d6000803e3d6000fd5b505050506040513d6020811015610e5157600080fd5b5051825183906003908110610e6257fe5b602090810290910101525b6001816004811115610e7b57fe5b14156111cb5742610eac6002846001815181101515610e9657fe5b602090810290910101519063ffffffff612abf16565b836000815181101515610ebb57fe5b60209081029091010151011015610f69576040805160e560020a62461bcd028152602060048201526044602482018190527f5468652074696d652077696e646f7720666f7220636f6d706c6574696e672074908201527f686520756e616e737765726564206c697469676174696f6e206861732070617360648201527f7365642100000000000000000000000000000000000000000000000000000000608482015290519081900360a40190fd5b42826001815181101515610f7957fe5b90602001906020020151836000815181101515610f9257fe5b60209081029091010151011061103e576040805160e560020a62461bcd02815260206004820152604160248201527f54686520616e737765722077696e646f7720686173206e6f742070617373656460448201527f2c2063616e6e6f7420636f6d706c657465206c697469676174696f6e2079657460648201527f2100000000000000000000000000000000000000000000000000000000000000608482015290519081900360a40190fd5b6110638b8b8a85600381518110151561105357fe5b602090810290910101518b612aea565b1561119e576040805160e160020a632bf01835028152600481018d9052600160a060020a038c811660248301526000604483018190529251908716926357e0306a926064808201939182900301818387803b1580156110c157600080fd5b505af11580156110d5573d6000803e3d6000fd5b50506040805160e060020a639163395b028152600481018f9052600160a060020a038e8116602483015242604483015291519188169350639163395b925060648082019260009290919082900301818387803b15801561113457600080fd5b505af1158015611148573d6000803e3d6000fd5b5050604080518e8152600160a060020a038e16602082015260008183015290517f1bbf1213e59fb773d8a3f67301ab0a75838e9d7104db9e6e51ba96d3c7a502c09350908190036060019150a1600095506112a1565b6111c28b8b8b8560038151811015156111b357fe5b906020019060200201516132c3565b600195506112a1565b428260018151811015156111db57fe5b906020019060200201518360008151811015156111f457fe5b6020908102909101015101101561103e576040805160e560020a62461bcd02815260206004820152604260248201527f5468652074696d652077696e646f7720666f7220636f6d706c6574696e67207460448201527f686520616e737765726564206c697469676174696f6e2068617320706173736560648201527f6421000000000000000000000000000000000000000000000000000000000000608482015290519081900360a40190fd5b505050505095945050505050565b600054600160a060020a031681565b600080546040805160e260020a630110ceef028152602060048201819052600e602483015260008051602061462d83398151915260448301529151849384938493606093600160a060020a03909316926304433bbc9260648084019391929182900301818887803b15801561133257600080fd5b505af1158015611346573d6000803e3d6000fd5b505050506040513d602081101561135c57600080fd5b5051600080546040805160e260020a630110ceef0281526020600482018190526011602483015260008051602061464d83398151915260448301529151949850600160a060020a03909216936304433bbc936064808501948390030190829087803b1580156113ca57600080fd5b505af11580156113de573d6000803e3d6000fd5b505050506040513d60208110156113f457600080fd5b5051604080517fa2657315000000000000000000000000000000000000000000000000000000008152600481018e90529051919450600160a060020a03808c16929087169163a26573159160248083019260209291908290030181600087803b15801561146057600080fd5b505af1158015611474573d6000803e3d6000fd5b505050506040513d602081101561148a57600080fd5b5051600160a060020a031614611510576040805160e560020a62461bcd02815260206004820152603860248201527f4368616c6c656e676572206964656e74697479206e6f7420657175616c20746f60448201527f206f666665722063726561746f72206964656e74697479210000000000000000606482015290519081900360840190fd5b88600160a060020a031663d202158d336040516020018082600160a060020a0316600160a060020a03166c010000000000000000000000000281526014019150506040516020818303038152906040526040518082805190602001908083835b6020831061158f5780518252601f199092019160209182019101611570565b51815160209384036101000a60001901801990921691161790526040805192909401829003822063ffffffff881660e060020a028352600483015260026024830152925160448083019650939450929083900301905081600087803b1580156115f757600080fd5b505af115801561160b573d6000803e3d6000fd5b505050506040513d602081101561162157600080fd5b5051151561169f576040805160e560020a62461bcd02815260206004820152602860248201527f53656e64657220646f6573206e6f74206861766520616374696f6e207075727060448201527f6f73652073657421000000000000000000000000000000000000000000000000606482015290519081900360840190fd5b604080517f59485c7e000000000000000000000000000000000000000000000000000000008152600481018d9052600160a060020a038c811660248301529151918516916359485c7e916044808201926020929091908290030181600087803b15801561170b57600080fd5b505af115801561171f573d6000803e3d6000fd5b505050506040513d602081101561173557600080fd5b5051604080516002808252606082018352929450919060208301908038833950506040805160e060020a6315a4aeb1028152600481018f9052600160a060020a038e811660248301529151939450908616926315a4aeb1925060448083019260209291908290030181600087803b1580156117af57600080fd5b505af11580156117c3573d6000803e3d6000fd5b505050506040513d60208110156117d957600080fd5b50518151829060009081106117ea57fe5b6020908102909101810191909152604080517febaa7432000000000000000000000000000000000000000000000000000000008152600481018e9052905161185f92603c92600160a060020a0389169263ebaa7432926024808401939192918290030181600087803b15801561088057600080fd5b81600181518110151561186e57fe5b60209081029091010152600382600481111561188657fe5b1415611928576040805160e560020a62461bcd02815260206004820152604a60248201527f5468652073656c656374656420686f6c64657220697320616c7265616479206260448201527f65696e67207265706c616365642c2063616e6e6f7420696e697469617465206c60648201527f697469676174696f6e2100000000000000000000000000000000000000000000608482015290519081900360a40190fd5b600482600481111561193657fe5b14156119d9576040805160e560020a62461bcd028152602060048201526044602482018190527f5468652073656c656374656420686f6c64657220697320616c72656164792072908201527f65706c616365642c2063616e6e6f7420696e697469617465206c69746967617460648201527f696f6e2100000000000000000000000000000000000000000000000000000000608482015290519081900360a40190fd5b6119e38b8b6141f3565b1515611a5f576040805160e560020a62461bcd02815260206004820152603160248201527f43616e6e6f7420696e697469617465206c697469676174696f6e20666f72206160448201527f20636f6d706c65746564206f6666657221000000000000000000000000000000606482015290519081900360840190fd5b6001826004811115611a6d57fe5b1415611b485742611a886003836001815181101515610e9657fe5b826000815181101515611a9757fe5b602090810290910101510110611b43576040805160e560020a62461bcd02815260206004820152605d60248201527f546865206c697469676174696f6e20697320696e6974696174656420616e642060448201527f6177616974696e6720686f6c64657220726573706f6e73652c2063616e6e6f7460648201527f20696e69746961746520616e6f74686572206c697469676174696f6e21000000608482015290519081900360a40190fd5b611d3b565b6002826004811115611b5657fe5b1415611c525742611b716002836001815181101515610e9657fe5b826000815181101515611b8057fe5b602090810290910101510110611b43576040805160e560020a62461bcd02815260206004820152606860248201527f546865206c697469676174696f6e20697320616e73776572656420616e64206160448201527f77616974696e672070726576696f7573206c6974696761746f7220726573706f60648201527f6e73652c2063616e6e6f7420696e69746961746520616e6f74686572206c697460848201527f69676174696f6e2100000000000000000000000000000000000000000000000060a482015290519081900360c40190fd5b6001826004811115611c6057fe5b1415611d3b5742816001815181101515611c7657fe5b90602001906020020151826000815181101515611c8f57fe5b602090810290910101510110611d3b576040805160e560020a62461bcd02815260206004820152604f60248201527f546865206c697469676174696f6e20696e74657276616c20686173206e6f742060448201527f706173736564207965742c2063616e6e6f7420696e69746961746520616e6f7460648201527f686572206c697469676174696f6e210000000000000000000000000000000000608482015290519081900360a40190fd5b604080517f9dbe6063000000000000000000000000000000000000000000000000000000008152600481018d9052600160a060020a038c811660248301528b81166044830152915191851691639dbe60639160648082019260009290919082900301818387803b158015611dae57600080fd5b505af1158015611dc2573d6000803e3d6000fd5b5050604080517f384a1344000000000000000000000000000000000000000000000000000000008152600481018f9052600160a060020a038e81166024830152604482018d90529151918716935063384a1344925060648082019260009290919082900301818387803b158015611e3857600080fd5b505af1158015611e4c573d6000803e3d6000fd5b5050604080517f6c93746c000000000000000000000000000000000000000000000000000000008152600481018f9052600160a060020a038e81166024830152604482018c905291519187169350636c93746c925060648082019260009290919082900301818387803b158015611ec257600080fd5b505af1158015611ed6573d6000803e3d6000fd5b5050505082600160a060020a03166376a48d4d8c8c896040518463ffffffff1660e060020a02815260040180846000191660001916815260200183600160a060020a0316600160a060020a0316815260200180602001828103825283818151815260200191508051906020019060200280838360005b83811015611f64578181015183820152602001611f4c565b50505050905001945050505050600060405180830381600087803b158015611f8b57600080fd5b505af1158015611f9f573d6000803e3d6000fd5b50506040805160e160020a632bf01835028152600481018f9052600160a060020a038e8116602483015260016044830152915191871693506357e0306a925060648082019260009290919082900301818387803b158015611fff57600080fd5b505af1158015612013573d6000803e3d6000fd5b50506040805160e060020a639163395b028152600481018f9052600160a060020a038e8116602483015242604483015291519187169350639163395b925060648082019260009290919082900301818387803b15801561207257600080fd5b505af1158015612086573d6000803e3d6000fd5b5050604080518e8152600160a060020a038e1660208201528082018c9052606081018b905290517f86d8abbef37f520cc478cc865cbaee78054bf95e4f50cdc54d4fa8c0ab0cacc99350908190036080019150a15060019a9950505050505050505050565b60008054604080517f162790550000000000000000000000000000000000000000000000000000000081523360048201529051600160a060020a03909216926316279055926024808401936020939083900390910190829087803b15801561215257600080fd5b505af1158015612166573d6000803e3d6000fd5b505050506040513d602081101561217c57600080fd5b505115156121fa576040805160e560020a62461bcd02815260206004820152603f60248201527f546869732066756e6374696f6e2063616e206f6e6c792062652063616c6c656460448201527f20627920636f6e747261637473206f722074686569722063726561746f722100606482015290519081900360840190fd5b6000805473ffffffffffffffffffffffffffffffffffffffff1916600160a060020a0392909216919091179055565b600080546040805160e260020a630110ceef028152602060048201819052600e602483015260008051602061462d83398151915260448301529151849384938493600160a060020a03909216926304433bbc92606480820193929182900301818787803b15801561229957600080fd5b505af11580156122ad573d6000803e3d6000fd5b505050506040513d60208110156122c357600080fd5b5051600080546040805160e260020a630110ceef0281526020600482018190526011602483015260008051602061464d83398151915260448301529151949750600160a060020a03909216936304433bbc936064808501948390030190829087803b15801561233157600080fd5b505af1158015612345573d6000803e3d6000fd5b505050506040513d602081101561235b57600080fd5b5051604080516c010000000000000000000000003302602082810191909152825180830360140181526034909201928390528151939550600160a060020a038a169363d202158d93918291908401908083835b602083106123cd5780518252601f1990920191602091820191016123ae565b51815160209384036101000a60001901801990921691161790526040805192909401829003822063ffffffff881660e060020a028352600483015260026024830152925160448083019650939450929083900301905081600087803b15801561243557600080fd5b505af1158015612449573d6000803e3d6000fd5b505050506040513d602081101561245f57600080fd5b505115156124dd576040805160e560020a62461bcd02815260206004820152602860248201527f53656e64657220646f6573206e6f74206861766520616374696f6e207075727060448201527f6f73652073657421000000000000000000000000000000000000000000000000606482015290519081900360840190fd5b604080517f59485c7e00000000000000000000000000000000000000000000000000000000815260048101899052600160a060020a0388811660248301529151918416916359485c7e916044808201926020929091908290030181600087803b15801561254957600080fd5b505af115801561255d573d6000803e3d6000fd5b505050506040513d602081101561257357600080fd5b50519050600181600481111561258557fe5b14612600576040805160e560020a62461bcd02815260206004820152603e60248201527f4c697469676174696f6e20737461747573206973206e6f742073657420746f2060448201527f696e697469617465642c2063616e6e6f742073656e6420616e73776572210000606482015290519081900360840190fd5b42612657603c85600160a060020a031663ebaa74328b6040518263ffffffff1660e060020a028152600401808260001916600019168152602001915050602060405180830381600087803b15801561088057600080fd5b6040805160e060020a6315a4aeb1028152600481018b9052600160a060020a038a811660248301529151918616916315a4aeb1916044808201926020929091908290030181600087803b1580156126ad57600080fd5b505af11580156126c1573d6000803e3d6000fd5b505050506040513d60208110156126d757600080fd5b5051011015612756576040805160e560020a62461bcd02815260206004820152602481018290527f54686520696e74657276616c20666f7220616e73776572696e6720686173207060448201527f61737365642c2063616e6e6f7420616e73776572206c697469676174696f6e21606482015290519081900360840190fd5b604080517f3484515800000000000000000000000000000000000000000000000000000000815260048101899052600160a060020a038881166024830152915191841691631631114e918a918a918a91869163348451589160448083019260209291908290030181600087803b1580156127cf57600080fd5b505af11580156127e3573d6000803e3d6000fd5b505050506040513d60208110156127f957600080fd5b5051604080517fe9165a3f000000000000000000000000000000000000000000000000000000008152600481018f9052600160a060020a038e811660248301529151918a169163e9165a3f916044808201926020929091908290030181600087803b15801561286757600080fd5b505af115801561287b573d6000803e3d6000fd5b505050506040513d602081101561289157600080fd5b5051604080516020818101959095528082019390935260608084019290925280518084039092018252608090920191829052805190928291908401908083835b602083106128f05780518252601f1990920191602091820191016128d1565b5181516000196020949094036101000a939093019283169219169190911790526040805193909101839003832060e060020a63ffffffff8a160284526004840197909752600160a060020a039095166024830152506044810194909452505051606480830192600092919082900301818387803b15801561297057600080fd5b505af1158015612984573d6000803e3d6000fd5b50506040805160e160020a632bf01835028152600481018b9052600160a060020a038a8116602483015260026044830152915191861693506357e0306a925060648082019260009290919082900301818387803b1580156129e457600080fd5b505af11580156129f8573d6000803e3d6000fd5b50506040805160e060020a639163395b028152600481018b9052600160a060020a038a8116602483015242604483015291519186169350639163395b925060648082019260009290919082900301818387803b158015612a5757600080fd5b505af1158015612a6b573d6000803e3d6000fd5b5050604080518a8152600160a060020a038a16602082015281517fc2a8f0491b8101b93fa164bc11e6bfe6feb2f2851a3cbdcc564558657f7dcbed9450908190039091019150a15060019695505050505050565b6000828202831580612adb5750828482811515612ad857fe5b04145b1515612ae357fe5b9392505050565b600080546040805160e260020a630110ceef0281526020600482018190526011602483015260008051602061464d8339815191526044830152915184936060938593849386938593600160a060020a03909116926304433bbc926064808301939282900301818787803b158015612b6057600080fd5b505af1158015612b74573d6000803e3d6000fd5b505050506040513d6020811015612b8a57600080fd5b505160408051600280825260608201835292985091906020830190803883390190505094506000856000815181101515612bc057fe5b602090810290910101528451600190869082908110612bdb57fe5b6020908102909101810191909152604080517f9f6deb21000000000000000000000000000000000000000000000000000000008152600481018f9052600160a060020a038e81166024830152915191891692639f6deb21926044808401938290030181600087803b158015612c4f57600080fd5b505af1158015612c63573d6000803e3d6000fd5b505050506040513d6020811015612c7957600080fd5b5051604080517f34845158000000000000000000000000000000000000000000000000000000008152600481018f9052600160a060020a038e8116602483015291519296508c92918916916334845158916044808201926020929091908290030181600087803b158015612cec57600080fd5b505af1158015612d00573d6000803e3d6000fd5b505050506040513d6020811015612d1657600080fd5b810190808051906020019092919050505087600160a060020a031663e9165a3f8f8f6040518363ffffffff1660e060020a02815260040180836000191660001916815260200182600160a060020a0316600160a060020a0316815260200192505050602060405180830381600087803b158015612d9257600080fd5b505af1158015612da6573d6000803e3d6000fd5b505050506040513d6020811015612dbc57600080fd5b5051604080516020818101959095528082019390935260608084019290925280518084039092018252608090920191829052805190928291908401908083835b60208310612e1b5780518252601f199092019160209182019101612dfc565b6001836020036101000a0380198251168184511680821785525050505050509050019150506040518091039020925085600160a060020a031663954271278d8d6040518363ffffffff1660e060020a02815260040180836000191660001916815260200182600160a060020a0316600160a060020a0316815260200192505050600060405180830381600087803b158015612eb557600080fd5b505af1158015612ec9573d6000803e3d6000fd5b505050506040513d6000823e601f3d908101601f191682016040526020811015612ef257600080fd5b810190808051640100000000811115612f0a57600080fd5b82016020810184811115612f1d57600080fd5b8151856020820283011164010000000082111715612f3a57600080fd5b50909550505050505b8151856000815181101515612f5457fe5b9060200190602002015110156132a557846000815181101515612f7357fe5b90602001906020020151856001815181101515612f8c57fe5b6020908102909101015160029190910a0288169050801561310a5781856000815181101515612fb757fe5b6020908102909101015181518110612fcb57fe5b6020908102909101810151604080518084019290925281810186905280518083038201815260609092019081905281519192909182918401908083835b602083106130275780518252601f199092019160209182019101613008565b6001836020036101000a038019825116818451168082178552505050505050905001915050604051809103902092508185600081518110151561306657fe5b602090810290910101518151811061307a57fe5b6020908102909101810151604080518084019290925281810187905280518083038201815260609092019081905281519192909182918401908083835b602083106130d65780518252601f1990920191602091820191016130b7565b6001836020036101000a0380198251168184511680821785525050505050509050019150506040518091039020935061326b565b828286600081518110151561311b57fe5b602090810290910101518151811061312f57fe5b6020908102909101810151604080518084019490945283810191909152805180840382018152606090930190819052825190918291908401908083835b6020831061318b5780518252601f19909201916020918201910161316c565b6001836020036101000a0380198251168184511680821785525050505050509050019150506040518091039020925083828660008151811015156131cb57fe5b60209081029091010151815181106131df57fe5b6020908102909101810151604080518084019490945283810191909152805180840382018152606090930190819052825190918291908401908083835b6020831061323b5780518252601f19909201916020918201910161321c565b6001836020036101000a038019825116818451168082178552505050505050905001915050604051809103902093505b84600081518110151561327a57fe5b9060200190602002015160010185600081518110151561329657fe5b60209081029091010152612f43565b838914806132b35750828914155b9c9b505050505050505050505050565b600080546040805160e260020a630110ceef028152602060048201819052600e602483015260008051602061462d83398151915260448301529151849384938493600160a060020a03909216926304433bbc92606480820193929182900301818787803b15801561333357600080fd5b505af1158015613347573d6000803e3d6000fd5b505050506040513d602081101561335d57600080fd5b5051600080546040805160e260020a630110ceef0281526020600482018190526011602483015260008051602061464d83398151915260448301529151949850600160a060020a03909216936304433bbc936064808501948390030190829087803b1580156133cb57600080fd5b505af11580156133df573d6000803e3d6000fd5b505050506040513d60208110156133f557600080fd5b5051600080546040805160e260020a630110ceef028152602060048201819052600e60248301527f50726f66696c6553746f7261676500000000000000000000000000000000000060448301529151949750600160a060020a03909216936304433bbc936064808501948390030190829087803b15801561347557600080fd5b505af1158015613489573d6000803e3d6000fd5b505050506040513d602081101561349f57600080fd5b5051604080517f6c833cf5000000000000000000000000000000000000000000000000000000008152600481018b90529051919350600160a060020a03861691636c833cf5916024808201926020929091908290030181600087803b15801561350757600080fd5b505af115801561351b573d6000803e3d6000fd5b505050506040513d602081101561353157600080fd5b5051604080517f809a05a7000000000000000000000000000000000000000000000000000000008152600481018b9052600160a060020a038a81166024830152915192935061366f926136629288169163809a05a79160448083019260209291908290030181600087803b1580156135a857600080fd5b505af11580156135bc573d6000803e3d6000fd5b505050506040513d60208110156135d257600080fd5b50516040805160e060020a6315a4aeb1028152600481018d9052600160a060020a038c811660248301529151918816916315a4aeb1916044808201926020929091908290030181600087803b15801561362a57600080fd5b505af115801561363e573d6000803e3d6000fd5b505050506040513d602081101561365457600080fd5b50519063ffffffff6145f416565b829063ffffffff612abf16565b90506136d76136ca603c86600160a060020a031663c2fb60968c6040518263ffffffff1660e060020a028152600401808260001916600019168152602001915050602060405180830381600087803b15801561088057600080fd5b829063ffffffff61460616565b6040805160e060020a6338d525f1028152600481018b9052600160a060020a038a811660248301529151929350908616916338d525f1916044808201926020929091908290030181600087803b15801561373057600080fd5b505af1158015613744573d6000803e3d6000fd5b505050506040513d602081101561375a57600080fd5b50516040805160e060020a63530bde3d028152600481018b9052600160a060020a038a8116602483015291516137f09285929089169163530bde3d916044808201926020929091908290030181600087803b1580156137b857600080fd5b505af11580156137cc573d6000803e3d6000fd5b505050506040513d60208110156137e257600080fd5b50519063ffffffff61461d16565b10613891576040805160e560020a62461bcd02815260206004820152604e60248201527f486f6c64657220636f6e7369646572656420746f207375636365737366756c6c60448201527f7920636f6d706c65746564206f666665722c2063616e6e6f7420636f6d706c6560648201527f7465206c697469676174696f6e21000000000000000000000000000000000000608482015290519081900360a40190fd5b81600160a060020a031663bd3cd525886139008486600160a060020a0316637a7664608d6040518263ffffffff1660e060020a0281526004018082600160a060020a0316600160a060020a03168152602001915050602060405180830381600087803b1580156137b857600080fd5b6040518363ffffffff1660e060020a0281526004018083600160a060020a0316600160a060020a0316815260200182815260200192505050600060405180830381600087803b15801561395257600080fd5b505af1158015613966573d6000803e3d6000fd5b5050505081600160a060020a031663bd3cd525876139d98486600160a060020a0316637a7664608c6040518263ffffffff1660e060020a0281526004018082600160a060020a0316600160a060020a03168152602001915050602060405180830381600087803b15801561362a57600080fd5b6040518363ffffffff1660e060020a0281526004018083600160a060020a0316600160a060020a0316815260200182815260200192505050600060405180830381600087803b158015613a2b57600080fd5b505af1158015613a3f573d6000803e3d6000fd5b5050505081600160a060020a03166350c3ff5787613ab28486600160a060020a0316635ffe02828c6040518263ffffffff1660e060020a0281526004018082600160a060020a0316600160a060020a03168152602001915050602060405180830381600087803b15801561362a57600080fd5b6040518363ffffffff1660e060020a0281526004018083600160a060020a0316600160a060020a0316815260200182815260200192505050600060405180830381600087803b158015613b0457600080fd5b505af1158015613b18573d6000803e3d6000fd5b50506040805160e060020a63530bde3d028152600481018c9052600160a060020a038b81166024830152915191881693506305c6ff6092508b918b91613b84918791879163530bde3d916044808201926020929091908290030181600087803b1580156137b857600080fd5b6040805160e060020a63ffffffff87160281526004810194909452600160a060020a039092166024840152604483015251606480830192600092919082900301818387803b158015613bd557600080fd5b505af1158015613be9573d6000803e3d6000fd5b50506040805160e060020a63530bde3d028152600481018c9052600160a060020a038b811660248301529151613cc89450918816925063530bde3d9160448083019260209291908290030181600087803b158015613c4657600080fd5b505af1158015613c5a573d6000803e3d6000fd5b505050506040513d6020811015613c7057600080fd5b50516040805160e060020a6338d525f1028152600481018c9052600160a060020a038b811660248301529151918816916338d525f1916044808201926020929091908290030181600087803b15801561362a57600080fd5b6040805160e060020a6338d525f1028152600481018b9052600160a060020a038a811660248301529151929350818516926350c3ff57928b92613dc292918a16916338d525f1916044808201926020929091908290030181600087803b158015613d3157600080fd5b505af1158015613d45573d6000803e3d6000fd5b505050506040513d6020811015613d5b57600080fd5b5051604080517f5ffe0282000000000000000000000000000000000000000000000000000000008152600160a060020a038e81166004830152915191891691635ffe0282916024808201926020929091908290030181600087803b15801561362a57600080fd5b6040518363ffffffff1660e060020a0281526004018083600160a060020a0316600160a060020a0316815260200182815260200192505050600060405180830381600087803b158015613e1457600080fd5b505af1158015613e28573d6000803e3d6000fd5b5050505081600160a060020a031663bd3cd52588613e9b8486600160a060020a0316637a7664608d6040518263ffffffff1660e060020a0281526004018082600160a060020a0316600160a060020a03168152602001915050602060405180830381600087803b15801561362a57600080fd5b6040518363ffffffff1660e060020a0281526004018083600160a060020a0316600160a060020a0316815260200182815260200192505050600060405180830381600087803b158015613eed57600080fd5b505af1158015613f01573d6000803e3d6000fd5b5050505081600160a060020a031663bd3cd52587613f748486600160a060020a0316637a7664608c6040518263ffffffff1660e060020a0281526004018082600160a060020a0316600160a060020a03168152602001915050602060405180830381600087803b1580156137b857600080fd5b6040518363ffffffff1660e060020a0281526004018083600160a060020a0316600160a060020a0316815260200182815260200192505050600060405180830381600087803b158015613fc657600080fd5b505af1158015613fda573d6000803e3d6000fd5b5050505081600160a060020a03166350c3ff578761404d8486600160a060020a0316635ffe02828c6040518263ffffffff1660e060020a0281526004018082600160a060020a0316600160a060020a03168152602001915050602060405180830381600087803b15801561362a57600080fd5b6040518363ffffffff1660e060020a0281526004018083600160a060020a0316600160a060020a0316815260200182815260200192505050600060405180830381600087803b15801561409f57600080fd5b505af11580156140b3573d6000803e3d6000fd5b50506040805160e160020a632bf0183502815260048082018d9052600160a060020a038c811660248401526044830191909152915191871693506357e0306a925060648082019260009290919082900301818387803b15801561411557600080fd5b505af1158015614129573d6000803e3d6000fd5b50506040805160e060020a639163395b028152600481018c9052600160a060020a038b8116602483015242604483015291519187169350639163395b925060648082019260009290919082900301818387803b15801561418857600080fd5b505af115801561419c573d6000803e3d6000fd5b5050604080518b8152600160a060020a038b16602082015260018183015290517f1bbf1213e59fb773d8a3f67301ab0a75838e9d7104db9e6e51ba96d3c7a502c09350908190036060019150a15050505050505050565b600080546040805160e260020a630110ceef028152602060048201819052600e602483015260008051602061462d83398151915260448301529151849384938493600160a060020a03909216926304433bbc92606480820193929182900301818787803b15801561426357600080fd5b505af1158015614277573d6000803e3d6000fd5b505050506040513d602081101561428d57600080fd5b5051600080546040805160e260020a630110ceef0281526020600482018190526011602483015260008051602061464d83398151915260448301529151949750600160a060020a03909216936304433bbc936064808501948390030190829087803b1580156142fb57600080fd5b505af115801561430f573d6000803e3d6000fd5b505050506040513d602081101561432557600080fd5b5051604080517f6c833cf5000000000000000000000000000000000000000000000000000000008152600481018990529051919350600160a060020a03851691636c833cf5916024808201926020929091908290030181600087803b15801561438d57600080fd5b505af11580156143a1573d6000803e3d6000fd5b505050506040513d60208110156143b757600080fd5b5051604080517f809a05a700000000000000000000000000000000000000000000000000000000815260048101899052600160a060020a0388811660248301529151929350614467926136629287169163809a05a79160448083019260209291908290030181600087803b15801561442e57600080fd5b505af1158015614442573d6000803e3d6000fd5b505050506040513d602081101561445857600080fd5b5051429063ffffffff6145f416565b90506144c26136ca603c85600160a060020a031663c2fb60968a6040518263ffffffff1660e060020a028152600401808260001916600019168152602001915050602060405180830381600087803b15801561088057600080fd5b6040805160e060020a6338d525f102815260048101899052600160a060020a0388811660248301529151929350908516916338d525f1916044808201926020929091908290030181600087803b15801561451b57600080fd5b505af115801561452f573d6000803e3d6000fd5b505050506040513d602081101561454557600080fd5b50516040805160e060020a63530bde3d02815260048101899052600160a060020a03888116602483015291516145d89287169163530bde3d9160448083019260209291908290030181600087803b15801561459f57600080fd5b505af11580156145b3573d6000803e3d6000fd5b505050506040513d60208110156145c957600080fd5b5051839063ffffffff61461d16565b106145e657600093506145eb565b600193505b50505092915050565b60008282111561460057fe5b50900390565b600080828481151561461457fe5b04949350505050565b600082820183811015612ae357fe00486f6c64696e6753746f726167650000000000000000000000000000000000004c697469676174696f6e53746f72616765000000000000000000000000000000a165627a7a7230582032fafbe84f0fc07a09693485fa34549e5ff313cb55f26b1bec4427775e0abc0d0029",
  "source": "pragma solidity ^0.4.25;\n\nimport {SafeMath} from \"./SafeMath.sol\";\nimport {ERC725} from './ERC725.sol';\nimport {Hub} from \"./Hub.sol\";\nimport {Holding} from \"./Holding.sol\";\nimport {Profile} from \"./Profile.sol\";\nimport {HoldingStorage} from \"./HoldingStorage.sol\";\nimport {ProfileStorage} from \"./ProfileStorage.sol\";\nimport {LitigationStorage} from \"./LitigationStorage.sol\";\n\ncontract Litigation {\n    using SafeMath for uint256;\n\n    Hub public hub;\n\n    constructor (address hubAddress) public {\n        hub = Hub(hubAddress);\n    }\n\n    function setHubAddress(address newHubAddress) public {\n        require(hub.isContract(msg.sender), \"This function can only be called by contracts or their creator!\");\n\n        hub = Hub(newHubAddress);\n    }\n\n\t/*    ----------------------------- LITIGATION -----------------------------     */\n    event LitigationInitiated(bytes32 offerId, address holderIdentity, uint requestedObjectIndex, uint requestedBlockIndex);\n    event LitigationAnswered(bytes32 offerId, address holderIdentity);\n    event LitigationTimedOut(bytes32 offerId, address holderIdentity);\n    event LitigationCompleted(bytes32 offerId, address holderIdentity, bool DH_was_penalized);\n\n    event ReplacementStarted(bytes32 offerId, address holderIdentity, address challengerIdentity, bytes32 litigationRootHash);\n\n    function initiateLitigation(bytes32 offerId, address holderIdentity, address challengerIdentity,\n        uint requestedObjectIndex, uint requestedBlockIndex, bytes32[] hashArray)\n    public returns (bool newLitigationInitiated){\n        HoldingStorage holdingStorage = HoldingStorage(hub.getContractAddress(\"HoldingStorage\"));\n        LitigationStorage litigationStorage = LitigationStorage(hub.getContractAddress(\"LitigationStorage\"));\n        require(holdingStorage.getOfferCreator(offerId) == challengerIdentity, \"Challenger identity not equal to offer creator identity!\");\n        require(ERC725(challengerIdentity).keyHasPurpose(keccak256(abi.encodePacked(msg.sender)),2), \"Sender does not have action purpose set!\");\n\n        LitigationStorage.LitigationStatus litigationStatus = litigationStorage.getLitigationStatus(offerId, holderIdentity);\n\n        uint256[] memory parameters = new uint256[](2);\n        // Set parameters[0] as timestamp\n        parameters[0] = litigationStorage.getLitigationTimestamp(offerId, holderIdentity);\n        // Set parameters[1] as the litigationIntervalInSeconds\n        parameters[1] = holdingStorage.getOfferLitigationIntervalInMinutes(offerId).mul(60);\n\n        require(litigationStatus != LitigationStorage.LitigationStatus.replacing,\n            \"The selected holder is already being replaced, cannot initiate litigation!\");\n        require(litigationStatus != LitigationStorage.LitigationStatus.replaced,\n            \"The selected holder is already replaced, cannot initiate litigation!\");\n\n        require(offerIsActive(offerId, holderIdentity),\"Cannot initiate litigation for a completed offer!\");\n\n        if(litigationStatus == LitigationStorage.LitigationStatus.initiated) {\n            require(parameters[0] + parameters[1].mul(3) < block.timestamp,\n                \"The litigation is initiated and awaiting holder response, cannot initiate another litigation!\");\n        } else if(litigationStatus == LitigationStorage.LitigationStatus.answered) {\n            require(parameters[0] + parameters[1].mul(2) < block.timestamp,\n                \"The litigation is answered and awaiting previous litigator response, cannot initiate another litigation!\");\n        } else if(litigationStatus == LitigationStorage.LitigationStatus.initiated) {\n            require(parameters[0] + parameters[1] < block.timestamp,\n                \"The litigation interval has not passed yet, cannot initiate another litigation!\");\n        }\n\n        // Write litigation information into the storage\n        litigationStorage.setLitigationLitigatorIdentity(offerId, holderIdentity, challengerIdentity);\n        litigationStorage.setLitigationRequestedObjectIndex(offerId, holderIdentity, requestedObjectIndex);\n        litigationStorage.setLitigationRequestedBlockIndex(offerId, holderIdentity, requestedBlockIndex);\n        litigationStorage.setLitigationHashArray(offerId, holderIdentity, hashArray);\n\n        litigationStorage.setLitigationStatus(offerId, holderIdentity, LitigationStorage.LitigationStatus.initiated);\n        litigationStorage.setLitigationTimestamp(offerId, holderIdentity, block.timestamp);\n\n        emit LitigationInitiated(offerId, holderIdentity, requestedObjectIndex, requestedBlockIndex);\n        return true;\n    }\n\n    function answerLitigation(bytes32 offerId, address holderIdentity, bytes32 requestedData)\n    public returns (bool answer_accepted){\n        HoldingStorage holdingStorage = HoldingStorage(hub.getContractAddress(\"HoldingStorage\"));\n        LitigationStorage litigationStorage = LitigationStorage(hub.getContractAddress(\"LitigationStorage\"));\n        require(ERC725(holderIdentity).keyHasPurpose(keccak256(abi.encodePacked(msg.sender)),2), \"Sender does not have action purpose set!\");\n\n        LitigationStorage.LitigationStatus litigationStatus = litigationStorage.getLitigationStatus(offerId, holderIdentity);\n\n        require(litigationStatus == LitigationStorage.LitigationStatus.initiated,\n            \"Litigation status is not set to initiated, cannot send answer!\");\n        require(litigationStorage.getLitigationTimestamp(offerId, holderIdentity) + holdingStorage.getOfferLitigationIntervalInMinutes(offerId).mul(60) >= block.timestamp,\n            \"The interval for answering has passed, cannot answer litigation!\");\n\n        // Write answer data into the hash\n        litigationStorage.setLitigationRequestedData(\n            offerId,\n            holderIdentity,\n            keccak256(abi.encodePacked(\n                requestedData,\n                litigationStorage.getLitigationRequestedObjectIndex(offerId, holderIdentity),\n                litigationStorage.getLitigationRequestedBlockIndex(offerId, holderIdentity)\n            ))\n        );\n\n        litigationStorage.setLitigationStatus(offerId, holderIdentity, LitigationStorage.LitigationStatus.answered);\n        litigationStorage.setLitigationTimestamp(offerId, holderIdentity, block.timestamp);\n\n        emit LitigationAnswered(offerId, holderIdentity);\n        return true;\n    }\n\n    function completeLitigation(bytes32 offerId, address holderIdentity, address litigatorIdentity, bytes32 proofData, uint256 leafIndex)\n    public returns (bool DH_was_penalized){\n        HoldingStorage holdingStorage = HoldingStorage(hub.getContractAddress(\"HoldingStorage\"));\n        LitigationStorage litigationStorage = LitigationStorage(hub.getContractAddress(\"LitigationStorage\"));\n        ProfileStorage profileStorage = ProfileStorage(hub.getContractAddress(\"ProfileStorage\"));\n\n        require(holdingStorage.getOfferCreator(offerId) == litigatorIdentity, \"Challenger identity not equal to offer creator identity!\");\n        require(ERC725(litigatorIdentity).keyHasPurpose(keccak256(abi.encodePacked(msg.sender)),2), \"Sender does not have action purpose set!\");\n        require(litigationStorage.getLitigationLitigatorIdentity(offerId, holderIdentity) == litigatorIdentity, \"Litigation can only be completed by the litigator who initiated the litigation!\");\n\n        uint256[] memory parameters = new uint256[](4);\n\n        // set parameters[0] as the last litigation timestamp\n        parameters[0] = litigationStorage.getLitigationTimestamp(offerId, holderIdentity);\n        // set parameters[1] as the litigation interval in seconds\n        parameters[1] = holdingStorage.getOfferLitigationIntervalInMinutes(offerId).mul(60);\n\n       \tLitigationStorage.LitigationStatus litigationStatus = litigationStorage.getLitigationStatus(offerId, holderIdentity);\n\n        require(litigationStatus != LitigationStorage.LitigationStatus.replacing,\n            \"The selected holder is already being replaced, cannot call this function!\");\n        require(litigationStatus != LitigationStorage.LitigationStatus.replaced,\n            \"The selected holder is already replaced, cannot call this function!\");\n        require(litigationStatus != LitigationStorage.LitigationStatus.completed,\n            \"Cannot complete a completed litigation that is not initiated or answered!\");\n\n        if(holdingStorage.getHolderLitigationEncryptionType(offerId, holderIdentity) == 0){\n            parameters[3] = uint256(holdingStorage.getOfferRedLitigationHash(offerId));\n        } else if (holdingStorage.getHolderLitigationEncryptionType(offerId, holderIdentity) == 1) {\n            parameters[3] = uint256(holdingStorage.getOfferGreenLitigationHash(offerId));\n        } else {\n            parameters[3] = uint256(holdingStorage.getOfferBlueLitigationHash(offerId));\n        }\n\n        if(litigationStatus == LitigationStorage.LitigationStatus.initiated) {\n            // Litigator claims that the DH is inactive\n            // Verify that the answer window has passes and that the completion window has not passed\n            require(parameters[0] + parameters[1].mul(2) >= block.timestamp,\n                \"The time window for completing the unanswered litigation has passed!\");\n            require(parameters[0] + parameters[1] < block.timestamp,\n                \"The answer window has not passed, cannot complete litigation yet!\");\n\n\n            if(calculateMerkleTrees(offerId, holderIdentity, proofData, bytes32(parameters[3]), leafIndex)) {\n                // DH has the reRquested data -> Set litigation as completed, no transfer of tokens\n                litigationStorage.setLitigationStatus(offerId, holderIdentity, LitigationStorage.LitigationStatus.completed);\n                litigationStorage.setLitigationTimestamp(offerId, holderIdentity, block.timestamp);\n\n                emit LitigationCompleted(offerId, holderIdentity, false);\n                return false;\n            }\n            else {\n                // DH didn't have the requested data, and the litigation was valid\n                startReplacement(offerId, holderIdentity, litigatorIdentity, parameters[3]);\n                return true;\n            }\n        }\n\n        // The litigation status is answered, verify that the completion is happening during the completion time frame\n        require(parameters[0] + parameters[1] >= block.timestamp,\n           \"The time window for completing the answered litigation has passed!\");\n\n\n        if(calculateMerkleTrees(offerId, holderIdentity, proofData, bytes32(parameters[3]), leafIndex)) {\n            // DH has the reRquested data -> Set litigation as completed, no transfer of tokens\n            litigationStorage.setLitigationStatus(offerId, holderIdentity, LitigationStorage.LitigationStatus.completed);\n            litigationStorage.setLitigationTimestamp(offerId, holderIdentity, block.timestamp);\n\n            emit LitigationCompleted(offerId, holderIdentity, false);\n            return false;\n        }\n        else {\n            // DH didn't have the requested data, and the litigation was valid\n            startReplacement(offerId, holderIdentity, litigatorIdentity, parameters[3]);\n            return true;\n        }\n    }\n\n    function startReplacement(bytes32 offerId, address holderIdentity, address litigatorIdentity, uint256 litigationRootHash) internal {\n        HoldingStorage holdingStorage = HoldingStorage(hub.getContractAddress(\"HoldingStorage\"));\n        LitigationStorage litigationStorage = LitigationStorage(hub.getContractAddress(\"LitigationStorage\"));\n        ProfileStorage profileStorage = ProfileStorage(hub.getContractAddress(\"ProfileStorage\"));\n\n        // Pay the previous holder\n        uint256 amountToTransfer = holdingStorage.getOfferTokenAmountPerHolder(offerId);\n        // Multiply the tokenAmountPerHolder by the time the the holder held the data\n        amountToTransfer = amountToTransfer.mul(litigationStorage.getLitigationTimestamp(offerId, holderIdentity).sub(holdingStorage.getHolderPaymentTimestamp(offerId, holderIdentity)));\n        // Divide the tokenAmountPerHolder by the total time\n        amountToTransfer = amountToTransfer.div(holdingStorage.getOfferHoldingTimeInMinutes(offerId).mul(60));\n\n        require(holdingStorage.getHolderPaidAmount(offerId, holderIdentity).add(amountToTransfer) < holdingStorage.getHolderStakedAmount(offerId, holderIdentity),\n            \"Holder considered to successfully completed offer, cannot complete litigation!\");\n\n        // Pay the previous holder\n            // Increase previous holder Stake\n        profileStorage.setStake(holderIdentity, profileStorage.getStake(holderIdentity).add(amountToTransfer));\n            // Decrease offer creator Stake\n        profileStorage.setStake(litigatorIdentity, profileStorage.getStake(litigatorIdentity).sub(amountToTransfer));\n            // Decrease offer creator Stake reserved\n        profileStorage.setStakeReserved(litigatorIdentity, profileStorage.getStakeReserved(litigatorIdentity).sub(amountToTransfer));\n            // Set previous holder paid amount\n        holdingStorage.setHolderPaidAmount(\n            offerId,\n            holderIdentity,\n            holdingStorage.getHolderPaidAmount(offerId, holderIdentity).add(amountToTransfer)\n        );\n\n        // Calculate the remaining amount of tokens\n        amountToTransfer = holdingStorage.getHolderStakedAmount(offerId, holderIdentity).sub(holdingStorage.getHolderPaidAmount(offerId, holderIdentity));\n\n        // Unlock previous holder stake\n        profileStorage.setStakeReserved(\n            holderIdentity,\n            profileStorage.getStakeReserved(holderIdentity).sub(holdingStorage.getHolderStakedAmount(offerId, holderIdentity))\n        );\n\n        // Give the offer creator the reward for litigation\n            // Decrease previous holder Stake\n        profileStorage.setStake(holderIdentity, profileStorage.getStake(holderIdentity).sub(amountToTransfer));\n            // Increase offer creator Stake\n        profileStorage.setStake(litigatorIdentity, profileStorage.getStake(litigatorIdentity).add(amountToTransfer));\n\n        // Unlock offer creator's remaining tokens reserved for payment\n        profileStorage.setStakeReserved(litigatorIdentity, profileStorage.getStakeReserved(litigatorIdentity).sub(amountToTransfer));\n\n        litigationStorage.setLitigationStatus(offerId, holderIdentity, LitigationStorage.LitigationStatus.replaced);\n        litigationStorage.setLitigationTimestamp(offerId, holderIdentity, block.timestamp);\n\n        emit LitigationCompleted(offerId, holderIdentity, true);\n    }\n\n    function offerIsActive(bytes32 offerId, address holderIdentity)\n    internal view returns (bool offerIsActive) {\n        HoldingStorage holdingStorage = HoldingStorage(hub.getContractAddress(\"HoldingStorage\"));\n        LitigationStorage litigationStorage = LitigationStorage(hub.getContractAddress(\"LitigationStorage\"));\n\n        // Pay the previous holder\n        uint256 amountToTransfer = holdingStorage.getOfferTokenAmountPerHolder(offerId);\n        // Multiply the tokenAmountPerHolder by the time the the holder held the data\n        amountToTransfer = amountToTransfer.mul((block.timestamp).sub(holdingStorage.getHolderPaymentTimestamp(offerId, holderIdentity)));\n        // Divide the tokenAmountPerHolder by the total time\n        amountToTransfer = amountToTransfer.div(holdingStorage.getOfferHoldingTimeInMinutes(offerId).mul(60));\n\n        if (amountToTransfer.add(holdingStorage.getHolderPaidAmount(bytes32(offerId), holderIdentity))\n            >= holdingStorage.getHolderStakedAmount(bytes32(offerId), holderIdentity)) {\n            return false;\n        } else {\n            return true;\n        }\n\n    }\n\n    function calculateMerkleTrees(bytes32 offerId, address holderIdentity, bytes32 proofData, bytes32 litigationRootHash, uint256 leafIndex)\n    internal returns (bool DHAnsweredCorrectly) {\n        LitigationStorage litigationStorage = LitigationStorage(hub.getContractAddress(\"LitigationStorage\"));\n\n\n        uint256[] memory parameters = new uint256[](2);\n        // set parameters[0] as the index\n        parameters[0] = 0;\n        // set parameters[1] as a basic bit for masking\n        parameters[1] = 1;\n        bytes32 answerHash = litigationStorage.getLitigationRequestedData(offerId, holderIdentity);\n        bytes32 proofHash = keccak256(abi.encodePacked(\n            proofData,\n            litigationStorage.getLitigationRequestedObjectIndex(offerId, holderIdentity),\n            litigationStorage.getLitigationRequestedBlockIndex(offerId, holderIdentity)\n        ));\n        bytes32[] memory hashArray = litigationStorage.getLitigationHashArray(offerId, holderIdentity);\n\n        // ako je bit 1 on je levo\n        while (parameters[0] < hashArray.length){\n            uint256 selectedBit = parameters[1] << parameters[0];\n            selectedBit = selectedBit & leafIndex;\n            if(selectedBit != 0) {\n                proofHash = keccak256(abi.encodePacked(hashArray[parameters[0]], proofHash));\n                answerHash = keccak256(abi.encodePacked(hashArray[parameters[0]], answerHash));\n            }\n            else {\n                proofHash = keccak256(abi.encodePacked(proofHash, hashArray[parameters[0]]));\n                answerHash = keccak256(abi.encodePacked(answerHash, hashArray[parameters[0]]));\n            }\n            parameters[0] = parameters[0] + 1;\n        }\n        return (answerHash == litigationRootHash || proofHash != litigationRootHash);\n    }\n\n    function logs2(uint x) internal pure returns (uint y){\n        require(x > 0, \"log(0) not allowed\");\n        assembly {\n            let arg := x\n            x := sub(x,1)\n            x := or(x, div(x, 0x02))\n            x := or(x, div(x, 0x04))\n            x := or(x, div(x, 0x10))\n            x := or(x, div(x, 0x100))\n            x := or(x, div(x, 0x10000))\n            x := or(x, div(x, 0x100000000))\n            x := or(x, div(x, 0x10000000000000000))\n            x := or(x, div(x, 0x100000000000000000000000000000000))\n            x := add(x, 1)\n            let m := mload(0x40)\n            mstore(m,           0xf8f9cbfae6cc78fbefe7cdc3a1793dfcf4f0e8bbd8cec470b6a28a7a5a3e1efd)\n            mstore(add(m,0x20), 0xf5ecf1b3e9debc68e1d9cfabc5997135bfb7a7a3938b7b606b5b4b3f2f1f0ffe)\n            mstore(add(m,0x40), 0xf6e4ed9ff2d6b458eadcdf97bd91692de2d4da8fd2d0ac50c6ae9a8272523616)\n            mstore(add(m,0x60), 0xc8c0b887b0a8a4489c948c7f847c6125746c645c544c444038302820181008ff)\n            mstore(add(m,0x80), 0xf7cae577eec2a03cf3bad76fb589591debb2dd67e0aa9834bea6925f6a4a2e0e)\n            mstore(add(m,0xa0), 0xe39ed557db96902cd38ed14fad815115c786af479b7e83247363534337271707)\n            mstore(add(m,0xc0), 0xc976c13bb96e881cb166a933a55e490d9d56952b8d4e801485467d2362422606)\n            mstore(add(m,0xe0), 0x753a6d1b65325d0c552a4d1345224105391a310b29122104190a110309020100)\n            mstore(0x40, add(m, 0x100))\n            let magic := 0x818283848586878898a8b8c8d8e8f929395969799a9b9d9e9faaeb6bedeeff\n            let shift := 0x100000000000000000000000000000000000000000000000000000000000000\n            let a := div(mul(x, magic), shift)\n            y := div(mload(add(m,sub(255,a))), shift)\n            y := add(y, mul(256, gt(arg, 0x8000000000000000000000000000000000000000000000000000000000000000)))\n        }\n    }\n}",
  "sourcePath": "/Users/miloskotlar/ot-node/modules/Blockchain/Polygon/contracts/Litigation.sol",
  "compiler": {
    "name": "solc",
    "version": "0.4.25+commit.59dbf8f1.Emscripten.clang"
  },
  "schemaVersion": "3.0.0-beta.1",
  "updatedAt": "2021-08-16T09:42:48.475Z"
}