{
  "contractName": "LitigationStorage",
  "abi": [
    {
      "constant": true,
      "inputs": [],
      "name": "hub",
      "outputs": [
        {
          "name": "",
          "type": "address"
        }
      ],
      "payable": false,
      "stateMutability": "view",
      "type": "function",
      "signature": "0x365a86fc"
    },
    {
      "constant": true,
      "inputs": [
        {
          "name": "",
          "type": "bytes32"
        },
        {
          "name": "",
          "type": "address"
        }
      ],
      "name": "litigation",
      "outputs": [
        {
          "name": "litigatorIdentity",
          "type": "address"
        },
        {
          "name": "requestedObjectIndex",
          "type": "uint256"
        },
        {
          "name": "requestedBlockIndex",
          "type": "uint256"
        },
        {
          "name": "requestedData",
          "type": "bytes32"
        },
        {
          "name": "status",
          "type": "uint8"
        },
        {
          "name": "timestamp",
          "type": "uint256"
        },
        {
          "name": "replacementTask",
          "type": "bytes32"
        },
        {
          "name": "replacementDifficulty",
          "type": "uint256"
        }
      ],
      "payable": false,
      "stateMutability": "view",
      "type": "function",
      "signature": "0x83d6117b"
    },
    {
      "inputs": [
        {
          "name": "hubAddress",
          "type": "address"
        }
      ],
      "payable": false,
      "stateMutability": "nonpayable",
      "type": "constructor",
      "signature": "constructor"
    },
    {
      "constant": false,
      "inputs": [
        {
          "name": "newHubAddress",
          "type": "address"
        }
      ],
      "name": "setHubAddress",
      "outputs": [],
      "payable": false,
      "stateMutability": "nonpayable",
      "type": "function",
      "signature": "0xc7eb4522"
    },
    {
      "constant": false,
      "inputs": [
        {
          "name": "offerId",
          "type": "bytes32"
        },
        {
          "name": "holderIdentity",
          "type": "address"
        },
        {
          "name": "litigatorIdentity",
          "type": "address"
        }
      ],
      "name": "setLitigationLitigatorIdentity",
      "outputs": [],
      "payable": false,
      "stateMutability": "nonpayable",
      "type": "function",
      "signature": "0x9dbe6063"
    },
    {
      "constant": false,
      "inputs": [
        {
          "name": "offerId",
          "type": "bytes32"
        },
        {
          "name": "holderIdentity",
          "type": "address"
        },
        {
          "name": "requestedObjectIndex",
          "type": "uint256"
        }
      ],
      "name": "setLitigationRequestedObjectIndex",
      "outputs": [],
      "payable": false,
      "stateMutability": "nonpayable",
      "type": "function",
      "signature": "0x384a1344"
    },
    {
      "constant": false,
      "inputs": [
        {
          "name": "offerId",
          "type": "bytes32"
        },
        {
          "name": "holderIdentity",
          "type": "address"
        },
        {
          "name": "requestedBlockIndex",
          "type": "uint256"
        }
      ],
      "name": "setLitigationRequestedBlockIndex",
      "outputs": [],
      "payable": false,
      "stateMutability": "nonpayable",
      "type": "function",
      "signature": "0x6c93746c"
    },
    {
      "constant": false,
      "inputs": [
        {
          "name": "offerId",
          "type": "bytes32"
        },
        {
          "name": "holderIdentity",
          "type": "address"
        },
        {
          "name": "requestedData",
          "type": "bytes32"
        }
      ],
      "name": "setLitigationRequestedData",
      "outputs": [],
      "payable": false,
      "stateMutability": "nonpayable",
      "type": "function",
      "signature": "0x1631114e"
    },
    {
      "constant": false,
      "inputs": [
        {
          "name": "offerId",
          "type": "bytes32"
        },
        {
          "name": "holderIdentity",
          "type": "address"
        },
        {
          "name": "hashArray",
          "type": "bytes32[]"
        }
      ],
      "name": "setLitigationHashArray",
      "outputs": [],
      "payable": false,
      "stateMutability": "nonpayable",
      "type": "function",
      "signature": "0x76a48d4d"
    },
    {
      "constant": false,
      "inputs": [
        {
          "name": "offerId",
          "type": "bytes32"
        },
        {
          "name": "holderIdentity",
          "type": "address"
        },
        {
          "name": "status",
          "type": "uint8"
        }
      ],
      "name": "setLitigationStatus",
      "outputs": [],
      "payable": false,
      "stateMutability": "nonpayable",
      "type": "function",
      "signature": "0x57e0306a"
    },
    {
      "constant": false,
      "inputs": [
        {
          "name": "offerId",
          "type": "bytes32"
        },
        {
          "name": "holderIdentity",
          "type": "address"
        },
        {
          "name": "timestamp",
          "type": "uint256"
        }
      ],
      "name": "setLitigationTimestamp",
      "outputs": [],
      "payable": false,
      "stateMutability": "nonpayable",
      "type": "function",
      "signature": "0x9163395b"
    },
    {
      "constant": false,
      "inputs": [
        {
          "name": "offerId",
          "type": "bytes32"
        },
        {
          "name": "holderIdentity",
          "type": "address"
        },
        {
          "name": "replacementTask",
          "type": "bytes32"
        }
      ],
      "name": "setLitigationReplacementTask",
      "outputs": [],
      "payable": false,
      "stateMutability": "nonpayable",
      "type": "function",
      "signature": "0xb5bdacae"
    },
    {
      "constant": false,
      "inputs": [
        {
          "name": "offerId",
          "type": "bytes32"
        },
        {
          "name": "holderIdentity",
          "type": "address"
        },
        {
          "name": "replacementDifficulty",
          "type": "uint256"
        }
      ],
      "name": "setLitigationReplacementDifficulty",
      "outputs": [],
      "payable": false,
      "stateMutability": "nonpayable",
      "type": "function",
      "signature": "0xced37bcd"
    },
    {
      "constant": true,
      "inputs": [
        {
          "name": "offerId",
          "type": "bytes32"
        },
        {
          "name": "holderIdentity",
          "type": "address"
        }
      ],
      "name": "getLitigationLitigatorIdentity",
      "outputs": [
        {
          "name": "litigatorIdentity",
          "type": "address"
        }
      ],
      "payable": false,
      "stateMutability": "view",
      "type": "function",
      "signature": "0xd817da56"
    },
    {
      "constant": true,
      "inputs": [
        {
          "name": "offerId",
          "type": "bytes32"
        },
        {
          "name": "holderIdentity",
          "type": "address"
        }
      ],
      "name": "getLitigationRequestedObjectIndex",
      "outputs": [
        {
          "name": "requestedObjectIndex",
          "type": "uint256"
        }
      ],
      "payable": false,
      "stateMutability": "view",
      "type": "function",
      "signature": "0x34845158"
    },
    {
      "constant": true,
      "inputs": [
        {
          "name": "offerId",
          "type": "bytes32"
        },
        {
          "name": "holderIdentity",
          "type": "address"
        }
      ],
      "name": "getLitigationRequestedBlockIndex",
      "outputs": [
        {
          "name": "requestedBlockIndex",
          "type": "uint256"
        }
      ],
      "payable": false,
      "stateMutability": "view",
      "type": "function",
      "signature": "0xe9165a3f"
    },
    {
      "constant": true,
      "inputs": [
        {
          "name": "offerId",
          "type": "bytes32"
        },
        {
          "name": "holderIdentity",
          "type": "address"
        }
      ],
      "name": "getLitigationRequestedData",
      "outputs": [
        {
          "name": "requestedData",
          "type": "bytes32"
        }
      ],
      "payable": false,
      "stateMutability": "view",
      "type": "function",
      "signature": "0x9f6deb21"
    },
    {
      "constant": true,
      "inputs": [
        {
          "name": "offerId",
          "type": "bytes32"
        },
        {
          "name": "holderIdentity",
          "type": "address"
        }
      ],
      "name": "getLitigationHashArray",
      "outputs": [
        {
          "name": "hashArray",
          "type": "bytes32[]"
        }
      ],
      "payable": false,
      "stateMutability": "view",
      "type": "function",
      "signature": "0x95427127"
    },
    {
      "constant": true,
      "inputs": [
        {
          "name": "offerId",
          "type": "bytes32"
        },
        {
          "name": "holderIdentity",
          "type": "address"
        }
      ],
      "name": "getLitigationStatus",
      "outputs": [
        {
          "name": "status",
          "type": "uint8"
        }
      ],
      "payable": false,
      "stateMutability": "view",
      "type": "function",
      "signature": "0x59485c7e"
    },
    {
      "constant": true,
      "inputs": [
        {
          "name": "offerId",
          "type": "bytes32"
        },
        {
          "name": "holderIdentity",
          "type": "address"
        }
      ],
      "name": "getLitigationTimestamp",
      "outputs": [
        {
          "name": "timestamp",
          "type": "uint256"
        }
      ],
      "payable": false,
      "stateMutability": "view",
      "type": "function",
      "signature": "0x15a4aeb1"
    },
    {
      "constant": true,
      "inputs": [
        {
          "name": "offerId",
          "type": "bytes32"
        },
        {
          "name": "holderIdentity",
          "type": "address"
        }
      ],
      "name": "getLitigationReplacementTask",
      "outputs": [
        {
          "name": "replacementTask",
          "type": "bytes32"
        }
      ],
      "payable": false,
      "stateMutability": "view",
      "type": "function",
      "signature": "0xb3a81b65"
    },
    {
      "constant": true,
      "inputs": [
        {
          "name": "offerId",
          "type": "bytes32"
        },
        {
          "name": "holderIdentity",
          "type": "address"
        }
      ],
      "name": "getLitigationReplacementDifficulty",
      "outputs": [
        {
          "name": "replacementDifficulty",
          "type": "uint256"
        }
      ],
      "payable": false,
      "stateMutability": "view",
      "type": "function",
      "signature": "0x5006398b"
    }
  ],
  "bytecode": "0x608060405234801561001057600080fd5b5060405160208061130d833981016040525160008054600160a060020a03909216600160a060020a03199092169190911790556112bb806100526000396000f30060806040526004361061011c5763ffffffff7c010000000000000000000000000000000000000000000000000000000060003504166315a4aeb181146101215780631631114e146101575780633484515814610180578063365a86fc146101a4578063384a1344146101d55780635006398b146101fc57806357e0306a1461022057806359485c7e1461024a5780636c93746c1461029257806376a48d4d146102b957806383d6117b146103205780639163395b146103a557806395427127146103cc5780639dbe6063146104405780639f6deb211461046a578063b3a81b651461048e578063b5bdacae146104b2578063c7eb4522146104d9578063ced37bcd146104fa578063d817da5614610521578063e9165a3f14610545575b600080fd5b34801561012d57600080fd5b50610145600435600160a060020a0360243516610569565b60408051918252519081900360200190f35b34801561016357600080fd5b5061017e600435600160a060020a0360243516604435610594565b005b34801561018c57600080fd5b50610145600435600160a060020a0360243516610692565b3480156101b057600080fd5b506101b96106bb565b60408051600160a060020a039092168252519081900360200190f35b3480156101e157600080fd5b5061017e600435600160a060020a03602435166044356106ca565b34801561020857600080fd5b50610145600435600160a060020a03602435166107c8565b34801561022c57600080fd5b5061017e600435600160a060020a036024351660ff604435166107f3565b34801561025657600080fd5b5061026e600435600160a060020a036024351661090f565b6040518082600481111561027e57fe5b60ff16815260200191505060405180910390f35b34801561029e57600080fd5b5061017e600435600160a060020a036024351660443561093d565b3480156102c557600080fd5b50604080516020600460443581810135838102808601850190965280855261017e9583359560248035600160a060020a031696369695606495939492019291829185019084908082843750949750610a3b9650505050505050565b34801561032c57600080fd5b50610344600435600160a060020a0360243516610b4c565b60408051600160a060020a038a16815260208101899052908101879052606081018690526080810185600481111561037857fe5b60ff1681526020810194909452506040808401929092526060830152519081900360800195509350505050f35b3480156103b157600080fd5b5061017e600435600160a060020a0360243516604435610ba8565b3480156103d857600080fd5b506103f0600435600160a060020a0360243516610ca6565b60408051602080825283518183015283519192839290830191858101910280838360005b8381101561042c578181015183820152602001610414565b505050509050019250505060405180910390f35b34801561044c57600080fd5b5061017e600435600160a060020a0360243581169060443516610d1e565b34801561047657600080fd5b50610145600435600160a060020a0360243516610e3b565b34801561049a57600080fd5b50610145600435600160a060020a0360243516610e66565b3480156104be57600080fd5b5061017e600435600160a060020a0360243516604435610e91565b3480156104e557600080fd5b5061017e600160a060020a0360043516610f8f565b34801561050657600080fd5b5061017e600435600160a060020a0360243516604435611093565b34801561052d57600080fd5b506101b9600435600160a060020a0360243516611191565b34801561055157600080fd5b50610145600435600160a060020a03602435166111ba565b6000918252600160209081526040808420600160a060020a0393909316845291905290206006015490565b600080546040805160e060020a63162790550281523360048201529051600160a060020a03909216926316279055926024808401936020939083900390910190829087803b1580156105e557600080fd5b505af11580156105f9573d6000803e3d6000fd5b505050506040513d602081101561060f57600080fd5b50511515610669576040805160e560020a62461bcd02815260206004820152602960248201526000805160206112708339815191526044820152600080516020611250833981519152606482015290519081900360840190fd5b6000928352600160209081526040808520600160a060020a039094168552929052912060030155565b6000918252600160208181526040808520600160a060020a039490941685529290529120015490565b600054600160a060020a031681565b600080546040805160e060020a63162790550281523360048201529051600160a060020a03909216926316279055926024808401936020939083900390910190829087803b15801561071b57600080fd5b505af115801561072f573d6000803e3d6000fd5b505050506040513d602081101561074557600080fd5b5051151561079f576040805160e560020a62461bcd02815260206004820152602960248201526000805160206112708339815191526044820152600080516020611250833981519152606482015290519081900360840190fd5b6000928352600160208181526040808620600160a060020a039095168652939052919092200155565b6000918252600160209081526040808420600160a060020a0393909316845291905290206008015490565b600080546040805160e060020a63162790550281523360048201529051600160a060020a03909216926316279055926024808401936020939083900390910190829087803b15801561084457600080fd5b505af1158015610858573d6000803e3d6000fd5b505050506040513d602081101561086e57600080fd5b505115156108c8576040805160e560020a62461bcd02815260206004820152602960248201526000805160206112708339815191526044820152600080516020611250833981519152606482015290519081900360840190fd5b6000838152600160208181526040808420600160a060020a03871685529091529091206005018054839260ff199091169083600481111561090557fe5b0217905550505050565b6000918252600160209081526040808420600160a060020a0393909316845291905290206005015460ff1690565b600080546040805160e060020a63162790550281523360048201529051600160a060020a03909216926316279055926024808401936020939083900390910190829087803b15801561098e57600080fd5b505af11580156109a2573d6000803e3d6000fd5b505050506040513d60208110156109b857600080fd5b50511515610a12576040805160e560020a62461bcd02815260206004820152602960248201526000805160206112708339815191526044820152600080516020611250833981519152606482015290519081900360840190fd5b6000928352600160209081526040808520600160a060020a039094168552929052912060020155565b600080546040805160e060020a63162790550281523360048201529051600160a060020a03909216926316279055926024808401936020939083900390910190829087803b158015610a8c57600080fd5b505af1158015610aa0573d6000803e3d6000fd5b505050506040513d6020811015610ab657600080fd5b50511515610b10576040805160e560020a62461bcd02815260206004820152602960248201526000805160206112708339815191526044820152600080516020611250833981519152606482015290519081900360840190fd5b6000838152600160209081526040808320600160a060020a038616845282529091208251610b46926004909201918401906111e5565b50505050565b6001602081815260009384526040808520909152918352912080549181015460028201546003830154600584015460068501546007860154600890960154600160a060020a039097169694959394929360ff9092169290919088565b600080546040805160e060020a63162790550281523360048201529051600160a060020a03909216926316279055926024808401936020939083900390910190829087803b158015610bf957600080fd5b505af1158015610c0d573d6000803e3d6000fd5b505050506040513d6020811015610c2357600080fd5b50511515610c7d576040805160e560020a62461bcd02815260206004820152602960248201526000805160206112708339815191526044820152600080516020611250833981519152606482015290519081900360840190fd5b6000928352600160209081526040808520600160a060020a039094168552929052912060060155565b6000828152600160209081526040808320600160a060020a0385168452825291829020600401805483518184028101840190945280845260609392830182828015610d1157602002820191906000526020600020905b81548152600190910190602001808311610cfc575b5050505050905092915050565b600080546040805160e060020a63162790550281523360048201529051600160a060020a03909216926316279055926024808401936020939083900390910190829087803b158015610d6f57600080fd5b505af1158015610d83573d6000803e3d6000fd5b505050506040513d6020811015610d9957600080fd5b50511515610df3576040805160e560020a62461bcd02815260206004820152602960248201526000805160206112708339815191526044820152600080516020611250833981519152606482015290519081900360840190fd5b6000928352600160209081526040808520600160a060020a03948516865290915290922080549190921673ffffffffffffffffffffffffffffffffffffffff19909116179055565b6000918252600160209081526040808420600160a060020a0393909316845291905290206003015490565b6000918252600160209081526040808420600160a060020a0393909316845291905290206007015490565b600080546040805160e060020a63162790550281523360048201529051600160a060020a03909216926316279055926024808401936020939083900390910190829087803b158015610ee257600080fd5b505af1158015610ef6573d6000803e3d6000fd5b505050506040513d6020811015610f0c57600080fd5b50511515610f66576040805160e560020a62461bcd02815260206004820152602960248201526000805160206112708339815191526044820152600080516020611250833981519152606482015290519081900360840190fd5b6000928352600160209081526040808520600160a060020a039094168552929052912060070155565b600080546040805160e060020a63162790550281523360048201529051600160a060020a03909216926316279055926024808401936020939083900390910190829087803b158015610fe057600080fd5b505af1158015610ff4573d6000803e3d6000fd5b505050506040513d602081101561100a57600080fd5b50511515611064576040805160e560020a62461bcd02815260206004820152602960248201526000805160206112708339815191526044820152600080516020611250833981519152606482015290519081900360840190fd5b6000805473ffffffffffffffffffffffffffffffffffffffff1916600160a060020a0392909216919091179055565b600080546040805160e060020a63162790550281523360048201529051600160a060020a03909216926316279055926024808401936020939083900390910190829087803b1580156110e457600080fd5b505af11580156110f8573d6000803e3d6000fd5b505050506040513d602081101561110e57600080fd5b50511515611168576040805160e560020a62461bcd02815260206004820152602960248201526000805160206112708339815191526044820152600080516020611250833981519152606482015290519081900360840190fd5b6000928352600160209081526040808520600160a060020a039094168552929052912060080155565b6000918252600160209081526040808420600160a060020a039384168552909152909120541690565b6000918252600160209081526040808420600160a060020a0393909316845291905290206002015490565b828054828255906000526020600020908101928215611222579160200282015b828111156112225782518255602090920191600190910190611205565b5061122e929150611232565b5090565b61124c91905b8082111561122e5760008155600101611238565b9056006f6e74726163747321000000000000000000000000000000000000000000000046756e6374696f6e2063616e206f6e6c792062652063616c6c65642062792063a165627a7a72305820d2025d4ba724eebd8f699d218b9540e702fbf1188bcffce5215ed96303dae2da0029",
  "source": "pragma solidity ^0.4.25;\n\nimport {Hub} from \"./Hub.sol\";\n\ncontract LitigationStorage {\n\tHub public hub;\n\t\n\tconstructor(address hubAddress) public{\n\t\thub = Hub(hubAddress);\n\t}\n\n\tfunction setHubAddress(address newHubAddress) public onlyContracts {\n\t\thub = Hub(newHubAddress);\n\t}\n\n\tmodifier onlyContracts() {\n\t\trequire(hub.isContract(msg.sender),\n\t\t\"Function can only be called by contracts!\");\n\t\t_;\n\t}\n\t\n\tenum LitigationStatus {completed, initiated, answered, replacing, replaced}\n\n\tstruct LitigationDefinition{\n\t\taddress litigatorIdentity;\n\n\t\tuint256 requestedObjectIndex;\n\t\tuint256 requestedBlockIndex;\n\t\tbytes32 requestedData;\n\t\tbytes32[] hashArray;\n\t\t\n\t\tLitigationStatus status;\n\t\tuint256 timestamp;\n\n\t\tbytes32 replacementTask;\n\t\tuint256 replacementDifficulty;\n\t}\n\n\tmapping(bytes32 => mapping(address => LitigationDefinition)) public litigation; // litigation[offerId][holderIdentity]\n\t\n\tfunction setLitigationLitigatorIdentity (bytes32 offerId, address holderIdentity, address litigatorIdentity)\n\tpublic onlyContracts {\n\t\tlitigation[offerId][holderIdentity].litigatorIdentity = litigatorIdentity;\n\t}\n\tfunction setLitigationRequestedObjectIndex (bytes32 offerId, address holderIdentity, uint256 requestedObjectIndex)\n\tpublic onlyContracts {\n\t\tlitigation[offerId][holderIdentity].requestedObjectIndex = requestedObjectIndex;\n\t}\n\tfunction setLitigationRequestedBlockIndex (bytes32 offerId, address holderIdentity, uint256 requestedBlockIndex)\n\tpublic onlyContracts {\n\t\tlitigation[offerId][holderIdentity].requestedBlockIndex = requestedBlockIndex;\n\t}\n\tfunction setLitigationRequestedData (bytes32 offerId, address holderIdentity, bytes32 requestedData)\n\tpublic onlyContracts {\n\t\tlitigation[offerId][holderIdentity].requestedData = requestedData;\n\t}\n\tfunction setLitigationHashArray (bytes32 offerId, address holderIdentity, bytes32[] hashArray)\n\tpublic onlyContracts {\n\t\tlitigation[offerId][holderIdentity].hashArray = hashArray;\n\t}\n\tfunction setLitigationStatus (bytes32 offerId, address holderIdentity, LitigationStatus status)\n\tpublic onlyContracts {\n\t\tlitigation[offerId][holderIdentity].status = status;\n\t}\n\tfunction setLitigationTimestamp (bytes32 offerId, address holderIdentity, uint256 timestamp)\n\tpublic onlyContracts {\n\t\tlitigation[offerId][holderIdentity].timestamp = timestamp;\n\t}\n\tfunction setLitigationReplacementTask (bytes32 offerId, address holderIdentity, bytes32 replacementTask)\n\tpublic onlyContracts {\n\t\tlitigation[offerId][holderIdentity].replacementTask = replacementTask;\n\t}\n\tfunction setLitigationReplacementDifficulty (bytes32 offerId, address holderIdentity, uint256 replacementDifficulty)\n\tpublic onlyContracts {\n\t\tlitigation[offerId][holderIdentity].replacementDifficulty = replacementDifficulty;\n\t}\n\n\tfunction getLitigationLitigatorIdentity (bytes32 offerId, address holderIdentity)\n\tpublic view returns (address litigatorIdentity){\n\t\treturn litigation[offerId][holderIdentity].litigatorIdentity;\n\t}\n\tfunction getLitigationRequestedObjectIndex (bytes32 offerId, address holderIdentity)\n\tpublic view returns (uint256 requestedObjectIndex){\n\t\treturn litigation[offerId][holderIdentity].requestedObjectIndex;\n\t}\n\tfunction getLitigationRequestedBlockIndex (bytes32 offerId, address holderIdentity)\n\tpublic view returns (uint256 requestedBlockIndex){\n\t\treturn litigation[offerId][holderIdentity].requestedBlockIndex;\n\t}\n\tfunction getLitigationRequestedData (bytes32 offerId, address holderIdentity)\n\tpublic view returns (bytes32 requestedData){\n\t\treturn litigation[offerId][holderIdentity].requestedData;\n\t}\n\tfunction getLitigationHashArray (bytes32 offerId, address holderIdentity)\n\tpublic view returns (bytes32[] hashArray){\n\t\treturn litigation[offerId][holderIdentity].hashArray;\n\t}\n\tfunction getLitigationStatus (bytes32 offerId, address holderIdentity)\n\tpublic view returns (LitigationStatus status){\n\t\treturn litigation[offerId][holderIdentity].status;\n\t}\n\tfunction getLitigationTimestamp (bytes32 offerId, address holderIdentity)\n\tpublic view returns (uint256 timestamp){\n\t\treturn litigation[offerId][holderIdentity].timestamp;\n\t}\n\tfunction getLitigationReplacementTask (bytes32 offerId, address holderIdentity)\n\tpublic view returns (bytes32 replacementTask) {\n\t\treturn litigation[offerId][holderIdentity].replacementTask;\n\t}\n\tfunction getLitigationReplacementDifficulty (bytes32 offerId, address holderIdentity)\n\tpublic view returns (uint256 replacementDifficulty) {\n\t\treturn litigation[offerId][holderIdentity].replacementDifficulty;\n\t}\n}",
  "sourcePath": "/Users/miloskotlar/ot-node/modules/Blockchain/Polygon/contracts/LitigationStorage.sol",
  "compiler": {
    "name": "solc",
    "version": "0.4.25+commit.59dbf8f1.Emscripten.clang"
  },
  "schemaVersion": "3.0.0-beta.1",
  "updatedAt": "2021-08-16T09:42:48.499Z"
}