{
  "contractName": "Marketplace",
  "abi": [
    {
      "constant": true,
      "inputs": [],
      "name": "hub",
      "outputs": [
        {
          "name": "",
          "type": "address"
        }
      ],
      "payable": false,
      "stateMutability": "view",
      "type": "function",
      "signature": "0x365a86fc"
    },
    {
      "constant": true,
      "inputs": [],
      "name": "paymentStageInterval",
      "outputs": [
        {
          "name": "",
          "type": "uint256"
        }
      ],
      "payable": false,
      "stateMutability": "view",
      "type": "function",
      "signature": "0x691c6deb"
    },
    {
      "inputs": [
        {
          "name": "hubAddress",
          "type": "address"
        }
      ],
      "payable": false,
      "stateMutability": "nonpayable",
      "type": "constructor",
      "signature": "constructor"
    },
    {
      "anonymous": false,
      "inputs": [
        {
          "indexed": false,
          "name": "purchaseId",
          "type": "bytes32"
        },
        {
          "indexed": false,
          "name": "sellerIdentity",
          "type": "address"
        },
        {
          "indexed": false,
          "name": "buyerIdentity",
          "type": "address"
        },
        {
          "indexed": false,
          "name": "price",
          "type": "uint256"
        },
        {
          "indexed": false,
          "name": "originalDataRootHash",
          "type": "bytes32"
        },
        {
          "indexed": false,
          "name": "encodedDataRootHash",
          "type": "bytes32"
        }
      ],
      "name": "PurchaseInitiated",
      "type": "event",
      "signature": "0xc93d5f3be3fb6a3a357ff8618f169d1fc7f2af9dfaa690855956a3be0a5a23fd"
    },
    {
      "anonymous": false,
      "inputs": [
        {
          "indexed": false,
          "name": "purchaseId",
          "type": "bytes32"
        },
        {
          "indexed": false,
          "name": "key",
          "type": "bytes32"
        }
      ],
      "name": "KeyDeposited",
      "type": "event",
      "signature": "0x085125356d0e6a726b611531ed99af43bc381be83e7a55a9b0f111578236168b"
    },
    {
      "anonymous": false,
      "inputs": [
        {
          "indexed": false,
          "name": "purchaseId",
          "type": "bytes32"
        },
        {
          "indexed": false,
          "name": "sellerIdentity",
          "type": "address"
        },
        {
          "indexed": false,
          "name": "buyerIdentity",
          "type": "address"
        }
      ],
      "name": "MisbehaviourProven",
      "type": "event",
      "signature": "0xf4be0903b752a94a903248b0bab983f94b443f9fcae393f657e06b05d5405b06"
    },
    {
      "anonymous": false,
      "inputs": [
        {
          "indexed": false,
          "name": "purchaseId",
          "type": "bytes32"
        },
        {
          "indexed": false,
          "name": "sellerIdentity",
          "type": "address"
        },
        {
          "indexed": false,
          "name": "buyerIdentity",
          "type": "address"
        }
      ],
      "name": "PurchaseCompleted",
      "type": "event",
      "signature": "0x3c714883152f8c067c4b9eb1d7ebc8bf19da6a1999475e4842aba88c93943143"
    },
    {
      "constant": false,
      "inputs": [
        {
          "name": "newHubAddress",
          "type": "address"
        }
      ],
      "name": "setHubAddress",
      "outputs": [],
      "payable": false,
      "stateMutability": "nonpayable",
      "type": "function",
      "signature": "0xc7eb4522"
    },
    {
      "constant": false,
      "inputs": [
        {
          "name": "sellerIdentity",
          "type": "address"
        },
        {
          "name": "buyerIdentity",
          "type": "address"
        },
        {
          "name": "price",
          "type": "uint256"
        },
        {
          "name": "originalDataRootHash",
          "type": "bytes32"
        },
        {
          "name": "encodedDataRootHash",
          "type": "bytes32"
        }
      ],
      "name": "initiatePurchase",
      "outputs": [],
      "payable": false,
      "stateMutability": "nonpayable",
      "type": "function",
      "signature": "0x940e6f29"
    },
    {
      "constant": false,
      "inputs": [
        {
          "name": "purchaseId",
          "type": "bytes32"
        },
        {
          "name": "key",
          "type": "bytes32"
        }
      ],
      "name": "depositKey",
      "outputs": [],
      "payable": false,
      "stateMutability": "nonpayable",
      "type": "function",
      "signature": "0x10a2d0d7"
    },
    {
      "constant": false,
      "inputs": [
        {
          "name": "purchaseId",
          "type": "bytes32"
        }
      ],
      "name": "takePayment",
      "outputs": [],
      "payable": false,
      "stateMutability": "nonpayable",
      "type": "function",
      "signature": "0x2eff62c5"
    },
    {
      "constant": false,
      "inputs": [
        {
          "name": "purchaseId",
          "type": "bytes32"
        },
        {
          "name": "_originalDataRootEncoded",
          "type": "bytes32"
        },
        {
          "name": "_proofOfEncodedData",
          "type": "bytes32[]"
        },
        {
          "name": "_indexOfRootHash",
          "type": "uint256"
        }
      ],
      "name": "complainAboutRoot",
      "outputs": [],
      "payable": false,
      "stateMutability": "nonpayable",
      "type": "function",
      "signature": "0x7a2af025"
    },
    {
      "constant": false,
      "inputs": [
        {
          "name": "purchaseId",
          "type": "bytes32"
        },
        {
          "name": "_indexOfEncodedOutput",
          "type": "uint256"
        },
        {
          "name": "_indexOfEncodedInputLeft",
          "type": "uint256"
        },
        {
          "name": "_encodedOutput",
          "type": "bytes32"
        },
        {
          "name": "_encodedInputLeft",
          "type": "bytes32"
        },
        {
          "name": "_proofOfEncodedOutput",
          "type": "bytes32[]"
        },
        {
          "name": "_proofOfEncodedInput",
          "type": "bytes32[]"
        }
      ],
      "name": "complainAboutNode",
      "outputs": [],
      "payable": false,
      "stateMutability": "nonpayable",
      "type": "function",
      "signature": "0x5c31aa65"
    },
    {
      "constant": true,
      "inputs": [
        {
          "name": "_index",
          "type": "uint256"
        },
        {
          "name": "_ciphertext",
          "type": "bytes32"
        },
        {
          "name": "_key",
          "type": "bytes32"
        }
      ],
      "name": "decryptCiphertext",
      "outputs": [
        {
          "name": "",
          "type": "bytes32"
        }
      ],
      "payable": false,
      "stateMutability": "pure",
      "type": "function",
      "signature": "0x92b775c6"
    },
    {
      "constant": true,
      "inputs": [
        {
          "name": "_index",
          "type": "uint256"
        },
        {
          "name": "_value",
          "type": "bytes32"
        },
        {
          "name": "_proof",
          "type": "bytes32[]"
        },
        {
          "name": "_encodedDataRootHash",
          "type": "bytes32"
        }
      ],
      "name": "verifyMerkleTreeProof",
      "outputs": [
        {
          "name": "",
          "type": "bool"
        }
      ],
      "payable": false,
      "stateMutability": "view",
      "type": "function",
      "signature": "0x9e6731ad"
    }
  ],
  "bytecode": "0x608060405261012c60015534801561001657600080fd5b506040516020806200447a8339810160405251600160a060020a038116151561003e57600080fd5b60008054600160a060020a03909216600160a060020a031990921691909117905561440b806200006f6000396000f30060806040526004361061008a5763ffffffff60e060020a60003504166310a2d0d7811461008f5780632eff62c5146100ac578063365a86fc146100c45780635c31aa65146100f5578063691c6deb146101975780637a2af025146101be57806392b775c61461021e578063940e6f291461023c5780639e6731ad1461026c578063c7eb4522146102e0575b600080fd5b34801561009b57600080fd5b506100aa600435602435610301565b005b3480156100b857600080fd5b506100aa600435610abf565b3480156100d057600080fd5b506100d9611817565b60408051600160a060020a039092168252519081900360200190f35b34801561010157600080fd5b506040805160a435600481810135602081810285810182019096528185526100aa9583359560248035966044359660643596608435963696929560c49590940192829185019084908082843750506040805187358901803560208181028481018201909552818452989b9a9989019892975090820195509350839250850190849080828437509497506118269650505050505050565b3480156101a357600080fd5b506101ac611e38565b60408051918252519081900360200190f35b3480156101ca57600080fd5b5060408051602060046044358181013583810280860185019096528085526100aa9583359560248035963696956064959394920192918291850190849080828437509497505093359450611e3e9350505050565b34801561022a57600080fd5b506101ac600435602435604435612325565b34801561024857600080fd5b506100aa600160a060020a03600435811690602435166044356064356084356123b2565b34801561027857600080fd5b5060408051602060046044358181013583810280860185019096528085526102cc95833595602480359636969560649593949201929182918501908490808284375094975050933594506130b49350505050565b604080519115158252519081900360200190f35b3480156102ec57600080fd5b506100aa600160a060020a0360043516613234565b600080831515610381576040805160e560020a62461bcd02815260206004820152602f60248201527f43616e6e6f742072657665616c206b657920776974686f75742070757263686160448201527f7365206964207375626d69747465640000000000000000000000000000000000606482015290519081900360840190fd5b8215156103fe576040805160e560020a62461bcd02815260206004820152602760248201527f43616e6e6f742072657665616c206b657920776974686f7574206b657920737560448201527f626d697474656400000000000000000000000000000000000000000000000000606482015290519081900360840190fd5b600080546040805160e260020a630110ceef028152602060048201819052601260248301526000805160206143a083398151915260448301529151600160a060020a03909316936304433bbc93606480840194939192918390030190829087803b15801561046b57600080fd5b505af115801561047f573d6000803e3d6000fd5b505050506040513d602081101561049557600080fd5b5051604080517f7e44e504000000000000000000000000000000000000000000000000000000008152600481018790529051919350600160a060020a03841691637e44e504916024808201926020929091908290030181600087803b1580156104fd57600080fd5b505af1158015610511573d6000803e3d6000fd5b505050506040513d602081101561052757600080fd5b5051604080516c010000000000000000000000003302602082810191909152825180830360140181526034909201928390528151939450600160a060020a0385169363d202158d93918291908401908083835b602083106105995780518252601f19909201916020918201910161057a565b51815160209384036101000a60001901801990921691161790526040805192909401829003822063ffffffff881660e060020a028352600483015260026024830152925160448083019650939450929083900301905081600087803b15801561060157600080fd5b505af1158015610615573d6000803e3d6000fd5b505050506040513d602081101561062b57600080fd5b505180610747575080600160a060020a031663d202158d336040516020018082600160a060020a0316600160a060020a03166c010000000000000000000000000281526014019150506040516020818303038152906040526040518082805190602001908083835b602083106106b25780518252601f199092019160209182019101610693565b51815160209384036101000a60001901801990921691161790526040805192909401829003822063ffffffff881660e060020a028352600483015260016024830152925160448083019650939450929083900301905081600087803b15801561071a57600080fd5b505af115801561072e573d6000803e3d6000fd5b505050506040513d602081101561074457600080fd5b50515b151561079d576040805160e560020a62461bcd02815260206004820152601b60248201527f4f6e6c792073656c6c65722063616e2072657665616c206b6579210000000000604482015290519081900360640190fd5b6040805160e260020a632ba113dd028152600481018690529051600160a060020a0384169163ae844f749160248083019260209291908290030181600087803b1580156107e957600080fd5b505af11580156107fd573d6000803e3d6000fd5b505050506040513d602081101561081357600080fd5b5051600114610892576040805160e560020a62461bcd02815260206004820152602f60248201527f4b65792063616e206f6e6c792062652072657665616c656420696e207468652060448201527f696e697469617465642073746167650000000000000000000000000000000000606482015290519081900360840190fd5b604080517f07a0033000000000000000000000000000000000000000000000000000000000815260048101869052602481018590529051600160a060020a038416916307a0033091604480830192600092919082900301818387803b1580156108fa57600080fd5b505af115801561090e573d6000803e3d6000fd5b50506040805160e160020a63183a1b93028152600481018890524260248201529051600160a060020a038616935063307437269250604480830192600092919082900301818387803b15801561096357600080fd5b505af1158015610977573d6000803e3d6000fd5b50506040805160e060020a63bfc73cfd02815260048101889052600260248201529051600160a060020a038616935063bfc73cfd9250604480830192600092919082900301818387803b1580156109cd57600080fd5b505af11580156109e1573d6000803e3d6000fd5b5050604080517f31d98b3f000000000000000000000000000000000000000000000000000000008152600481018890529051610a7e9350849250600160a060020a038616916331d98b3f9160248083019260209291908290030181600087803b158015610a4d57600080fd5b505af1158015610a61573d6000803e3d6000fd5b505050506040513d6020811015610a7757600080fd5b5051613387565b604080518581526020810185905281517f085125356d0e6a726b611531ed99af43bc381be83e7a55a9b0f111578236168b929181900390910190a150505050565b600080808080851515610b42576040805160e560020a62461bcd02815260206004820152603260248201527f43616e6e6f742074616b65207061796d656e742020776974686f75742070757260448201527f6368617365206964207375626d69747465640000000000000000000000000000606482015290519081900360840190fd5b600080546040805160e260020a630110ceef028152602060048201819052601260248301526000805160206143a083398151915260448301529151600160a060020a03909316936304433bbc93606480840194939192918390030190829087803b158015610baf57600080fd5b505af1158015610bc3573d6000803e3d6000fd5b505050506040513d6020811015610bd957600080fd5b50516040805160e260020a632ba113dd028152600481018990529051919650600160a060020a0387169163ae844f74916024808201926020929091908290030181600087803b158015610c2b57600080fd5b505af1158015610c3f573d6000803e3d6000fd5b505050506040513d6020811015610c5557600080fd5b5051600214610cd4576040805160e560020a62461bcd02815260206004820152603360248201527f5061796d656e742063616e206f6e6c792062652074616b656e20696e2074686560448201527f204b65794465706f736974656420737461676500000000000000000000000000606482015290519081900360840190fd5b600154604080517fd45c4435000000000000000000000000000000000000000000000000000000008152600481018990529051600160a060020a0388169163d45c44359160248083019260209291908290030181600087803b158015610d3957600080fd5b505af1158015610d4d573d6000803e3d6000fd5b505050506040513d6020811015610d6357600080fd5b5051014211610de2576040805160e560020a62461bcd02815260206004820152602560248201527f436f6d706c61696e742077696e646f7720686173206e6f74207965742065787060448201527f6972656421000000000000000000000000000000000000000000000000000000606482015290519081900360840190fd5b604080517f87cc5a1c000000000000000000000000000000000000000000000000000000008152600481018890529051600160a060020a038716916387cc5a1c9160248083019260209291908290030181600087803b158015610e4457600080fd5b505af1158015610e58573d6000803e3d6000fd5b505050506040513d6020811015610e6e57600080fd5b5051604080517f7e44e504000000000000000000000000000000000000000000000000000000008152600481018990529051919550600160a060020a03871691637e44e504916024808201926020929091908290030181600087803b158015610ed657600080fd5b505af1158015610eea573d6000803e3d6000fd5b505050506040513d6020811015610f0057600080fd5b5051604080517f31d98b3f000000000000000000000000000000000000000000000000000000008152600481018990529051919450600160a060020a038716916331d98b3f916024808201926020929091908290030181600087803b158015610f6857600080fd5b505af1158015610f7c573d6000803e3d6000fd5b505050506040513d6020811015610f9257600080fd5b5051600080546040805160e260020a630110ceef028152602060048201819052600e60248301527f50726f66696c6553746f7261676500000000000000000000000000000000000060448301529151949650600160a060020a03909216936304433bbc936064808501948390030190829087803b15801561101257600080fd5b505af1158015611026573d6000803e3d6000fd5b505050506040513d602081101561103c57600080fd5b50516040805160e560020a6303d3b323028152600160a060020a0387811660048301529151929350849291841691637a766460916024808201926020929091908290030181600087803b15801561109257600080fd5b505af11580156110a6573d6000803e3d6000fd5b505050506040513d60208110156110bc57600080fd5b50511015611128576040805160e560020a62461bcd02815260206004820152602e602482015260008051602061438083398151915260448201527f7320746f207472616e7366657221000000000000000000000000000000000000606482015290519081900360840190fd5b8181600160a060020a0316635ffe0282866040518263ffffffff1660e060020a0281526004018082600160a060020a0316600160a060020a03168152602001915050602060405180830381600087803b15801561118457600080fd5b505af1158015611198573d6000803e3d6000fd5b505050506040513d60208110156111ae57600080fd5b5051101561121a576040805160e560020a62461bcd028152602060048201526037602482015260008051602061438083398151915260448201527f7320726573657276656420746f207472616e7366657221000000000000000000606482015290519081900360840190fd5b80600160a060020a03166350c3ff57856112c18585600160a060020a0316635ffe02828a6040518263ffffffff1660e060020a0281526004018082600160a060020a0316600160a060020a03168152602001915050602060405180830381600087803b15801561128957600080fd5b505af115801561129d573d6000803e3d6000fd5b505050506040513d60208110156112b357600080fd5b50519063ffffffff6138ef16565b6040518363ffffffff1660e060020a0281526004018083600160a060020a0316600160a060020a0316815260200182815260200192505050600060405180830381600087803b15801561131357600080fd5b505af1158015611327573d6000803e3d6000fd5b5050505080600160a060020a031663bd3cd5258561139a8585600160a060020a0316637a7664608a6040518263ffffffff1660e060020a0281526004018082600160a060020a0316600160a060020a03168152602001915050602060405180830381600087803b15801561128957600080fd5b6040518363ffffffff1660e060020a0281526004018083600160a060020a0316600160a060020a0316815260200182815260200192505050600060405180830381600087803b1580156113ec57600080fd5b505af1158015611400573d6000803e3d6000fd5b5050505080600160a060020a031663bd3cd525846114ab8585600160a060020a0316637a766460896040518263ffffffff1660e060020a0281526004018082600160a060020a0316600160a060020a03168152602001915050602060405180830381600087803b15801561147357600080fd5b505af1158015611487573d6000803e3d6000fd5b505050506040513d602081101561149d57600080fd5b50519063ffffffff61390116565b6040518363ffffffff1660e060020a0281526004018083600160a060020a0316600160a060020a0316815260200182815260200192505050600060405180830381600087803b1580156114fd57600080fd5b505af1158015611511573d6000803e3d6000fd5b505050508181600160a060020a0316635ffe0282856040518263ffffffff1660e060020a0281526004018082600160a060020a0316600160a060020a03168152602001915050602060405180830381600087803b15801561157157600080fd5b505af1158015611585573d6000803e3d6000fd5b505050506040513d602081101561159b57600080fd5b50511015611619576040805160e560020a62461bcd02815260206004820152603660248201527f53656c6c657220646f6573206e6f74206861766520656e6f75676820746f6b6560448201527f6e7320726573657276656420746f20756e6c6f636b2100000000000000000000606482015290519081900360840190fd5b80600160a060020a03166350c3ff57846116888585600160a060020a0316635ffe0282896040518263ffffffff1660e060020a0281526004018082600160a060020a0316600160a060020a03168152602001915050602060405180830381600087803b15801561128957600080fd5b6040518363ffffffff1660e060020a0281526004018083600160a060020a0316600160a060020a0316815260200182815260200192505050600060405180830381600087803b1580156116da57600080fd5b505af11580156116ee573d6000803e3d6000fd5b50506040805160e060020a63bfc73cfd028152600481018a9052600360248201529051600160a060020a038916935063bfc73cfd9250604480830192600092919082900301818387803b15801561174457600080fd5b505af1158015611758573d6000803e3d6000fd5b50506040805160e160020a63183a1b93028152600481018a90524260248201529051600160a060020a038916935063307437269250604480830192600092919082900301818387803b1580156117ad57600080fd5b505af11580156117c1573d6000803e3d6000fd5b505060408051898152600160a060020a03808816602083015288168183015290517f3c714883152f8c067c4b9eb1d7ebc8bf19da6a1999475e4842aba88c939431439350908190036060019150a1505050505050565b600054600160a060020a031681565b6000808080808b15156118a9576040805160e560020a62461bcd02815260206004820152603260248201527f43616e6e6f742074616b65207061796d656e742020776974686f75742070757260448201527f6368617365206964207375626d69747465640000000000000000000000000000606482015290519081900360840190fd5b600080546040805160e260020a630110ceef028152602060048201819052601260248301526000805160206143a083398151915260448301529151600160a060020a03909316936304433bbc93606480840194939192918390030190829087803b15801561191657600080fd5b505af115801561192a573d6000803e3d6000fd5b505050506040513d602081101561194057600080fd5b5051604080517f12aaac70000000000000000000000000000000000000000000000000000000008152600481018f90529051919650600160a060020a038716916312aaac70916024808201926020929091908290030181600087803b1580156119a857600080fd5b505af11580156119bc573d6000803e3d6000fd5b505050506040513d60208110156119d257600080fd5b5051604080517fab32e569000000000000000000000000000000000000000000000000000000008152600481018f90529051919550600160a060020a0387169163ab32e569916024808201926020929091908290030181600087803b158015611a3a57600080fd5b505af1158015611a4e573d6000803e3d6000fd5b505050506040513d6020811015611a6457600080fd5b50516040805160e260020a632ba113dd028152600481018f90529051919450600160a060020a0387169163ae844f74916024808201926020929091908290030181600087803b158015611ab657600080fd5b505af1158015611aca573d6000803e3d6000fd5b505050506040513d6020811015611ae057600080fd5b5051600214611b5f576040805160e560020a62461bcd02815260206004820152603560248201527f436f6d706c61696e742063616e206f6e6c7920626520676976656e20696e207460448201527f6865204b65794465706f73697465642073746167650000000000000000000000606482015290519081900360840190fd5b600154604080517fd45c4435000000000000000000000000000000000000000000000000000000008152600481018f90529051600160a060020a0388169163d45c44359160248083019260209291908290030181600087803b158015611bc457600080fd5b505af1158015611bd8573d6000803e3d6000fd5b505050506040513d6020811015611bee57600080fd5b505101421115611c48576040805160e560020a62461bcd02815260206004820152601d60248201527f436f6d706c61696e742077696e646f7720686173206578706972656421000000604482015290519081900360640190fd5b611c548b8a89866130b4565b1515611cd0576040805160e560020a62461bcd02815260206004820152602260248201527f50726f6f6620666f72206f757470757420656c656d656e7420696e636f72726560448201527f6374000000000000000000000000000000000000000000000000000000000000606482015290519081900360840190fd5b611cdc8a8988866130b4565b1515611d58576040805160e560020a62461bcd02815260206004820152602160248201527f50726f6f6620666f7220696e70757420656c656d656e7420696e636f7272656360448201527f7400000000000000000000000000000000000000000000000000000000000000606482015290519081900360840190fd5b611d638b8a86612325565b9150856000815181101515611d7457fe5b906020019060200201519050611d8b8a8986612325565b611d998b6001018387612325565b604080516020808201949094528082019290925280518083038201815260609092019081905281519192909182918401908083835b60208310611ded5780518252601f199092019160209182019101611dce565b5181516020939093036101000a6000190180199091169216919091179052604051920182900390912085149250611e2a91505057611e2a8c613917565b505050505050505050505050565b60015481565b60008080861515611ebf576040805160e560020a62461bcd02815260206004820152603260248201527f43616e6e6f742074616b65207061796d656e742020776974686f75742070757260448201527f6368617365206964207375626d69747465640000000000000000000000000000606482015290519081900360840190fd5b600080546040805160e260020a630110ceef028152602060048201819052601260248301526000805160206143a083398151915260448301529151600160a060020a03909316936304433bbc93606480840194939192918390030190829087803b158015611f2c57600080fd5b505af1158015611f40573d6000803e3d6000fd5b505050506040513d6020811015611f5657600080fd5b5051604080517f12aaac70000000000000000000000000000000000000000000000000000000008152600481018a90529051919450600160a060020a038516916312aaac70916024808201926020929091908290030181600087803b158015611fbe57600080fd5b505af1158015611fd2573d6000803e3d6000fd5b505050506040513d6020811015611fe857600080fd5b5051604080517fab32e569000000000000000000000000000000000000000000000000000000008152600481018a90529051919350600160a060020a0385169163ab32e569916024808201926020929091908290030181600087803b15801561205057600080fd5b505af1158015612064573d6000803e3d6000fd5b505050506040513d602081101561207a57600080fd5b50516040805160e260020a632ba113dd028152600481018a90529051919250600160a060020a0385169163ae844f74916024808201926020929091908290030181600087803b1580156120cc57600080fd5b505af11580156120e0573d6000803e3d6000fd5b505050506040513d60208110156120f657600080fd5b5051600214612175576040805160e560020a62461bcd02815260206004820152603560248201527f436f6d706c61696e742063616e206f6e6c7920626520676976656e20696e207460448201527f6865204b65794465706f73697465642073746167650000000000000000000000606482015290519081900360840190fd5b600154604080517fd45c4435000000000000000000000000000000000000000000000000000000008152600481018a90529051600160a060020a0386169163d45c44359160248083019260209291908290030181600087803b1580156121da57600080fd5b505af11580156121ee573d6000803e3d6000fd5b505050506040513d602081101561220457600080fd5b50510142111561225e576040805160e560020a62461bcd02815260206004820152601d60248201527f436f6d706c61696e742077696e646f7720686173206578706972656421000000604482015290519081900360640190fd5b61226a848787846130b4565b151561227557600080fd5b604080517f05f28db8000000000000000000000000000000000000000000000000000000008152600481018990529051600160a060020a038516916305f28db89160248083019260209291908290030181600087803b1580156122d757600080fd5b505af11580156122eb573d6000803e3d6000fd5b505050506040513d602081101561230157600080fd5b505161230e858885612325565b1461231c5761231c87613917565b50505050505050565b6040805160208082018490528183018690528251808303840181526060909201928390528151600093869392909182918401908083835b6020831061237b5780518252601f19909201916020918201910161235c565b6001836020036101000a03801982511681845116808217855250505050505090500191505060405180910390201890509392505050565b6000600160a060020a0386161515612428576040805160e560020a62461bcd02815260206004820152603460248201526000805160206143c083398151915260448201527f2073656c6c6572206964207375626d6974746564000000000000000000000000606482015290519081900360840190fd5b600160a060020a038516151561249c576040805160e560020a62461bcd02815260206004820152603060248201526000805160206143c083398151915260448201527f207072696365207375626d697474656400000000000000000000000000000000606482015290519081900360840190fd5b821515612507576040805160e560020a62461bcd02815260206004820152603f60248201526000805160206143c083398151915260448201527f206f726967696e616c44617461526f6f7448617368207375626d697474656400606482015290519081900360840190fd5b811515612572576040805160e560020a62461bcd02815260206004820152603e60248201526000805160206143c083398151915260448201527f20656e636f64656444617461526f6f7448617368207375626d69747465640000606482015290519081900360840190fd5b84600160a060020a031663d202158d336040516020018082600160a060020a0316600160a060020a03166c010000000000000000000000000281526014019150506040516020818303038152906040526040518082805190602001908083835b602083106125f15780518252601f1990920191602091820191016125d2565b51815160209384036101000a60001901801990921691161790526040805192909401829003822063ffffffff881660e060020a028352600483015260026024830152925160448083019650939450929083900301905081600087803b15801561265957600080fd5b505af115801561266d573d6000803e3d6000fd5b505050506040513d602081101561268357600080fd5b50518061279f575084600160a060020a031663d202158d336040516020018082600160a060020a0316600160a060020a03166c010000000000000000000000000281526014019150506040516020818303038152906040526040518082805190602001908083835b6020831061270a5780518252601f1990920191602091820191016126eb565b51815160209384036101000a60001901801990921691161790526040805192909401829003822063ffffffff881660e060020a028352600483015260016024830152925160448083019650939450929083900301905081600087803b15801561277257600080fd5b505af1158015612786573d6000803e3d6000fd5b505050506040513d602081101561279c57600080fd5b50515b151561281b576040805160e560020a62461bcd02815260206004820152603d60248201527f53656e64657220646f6573206e6f7420686176652070726f706572207065726d60448201527f697373696f6e20746f2063616c6c20746869732066756e6374696f6e21000000606482015290519081900360840190fd5b604080516c0100000000000000000000000033026020808301919091526000194301406034830152605480830186905283518084039091018152607490920192839052815191929182918401908083835b6020831061288b5780518252601f19909201916020918201910161286c565b51815160209384036101000a6000190180199092169116179052604080519290940182900382206000805460e260020a630110ceef02855260048501849052601260248601526000805160206143a083398151915260448601529551919850600160a060020a0390951696506304433bbc955060648084019592945090928390030190829087803b15801561291f57600080fd5b505af1158015612933573d6000803e3d6000fd5b505050506040513d602081101561294957600080fd5b5051604080517f96bf399c00000000000000000000000000000000000000000000000000000000815260048101849052600160a060020a038981166024830152915191909216916396bf399c91604480830192600092919082900301818387803b1580156129b657600080fd5b505af11580156129ca573d6000803e3d6000fd5b5050600080546040805160e260020a630110ceef028152602060048201819052601260248301526000805160206143a083398151915260448301529151600160a060020a0390931695506304433bbc9450606480820194929392918390030190829087803b158015612a3b57600080fd5b505af1158015612a4f573d6000803e3d6000fd5b505050506040513d6020811015612a6557600080fd5b5051604080517ff3d0da7d00000000000000000000000000000000000000000000000000000000815260048101849052600160a060020a0388811660248301529151919092169163f3d0da7d91604480830192600092919082900301818387803b158015612ad257600080fd5b505af1158015612ae6573d6000803e3d6000fd5b5050600080546040805160e260020a630110ceef028152602060048201819052601260248301526000805160206143a083398151915260448301529151600160a060020a0390931695506304433bbc9450606480820194929392918390030190829087803b158015612b5757600080fd5b505af1158015612b6b573d6000803e3d6000fd5b505050506040513d6020811015612b8157600080fd5b5051604080517f10d8d74d00000000000000000000000000000000000000000000000000000000815260048101849052602481018790529051600160a060020a03909216916310d8d74d9160448082019260009290919082900301818387803b158015612bed57600080fd5b505af1158015612c01573d6000803e3d6000fd5b5050600080546040805160e260020a630110ceef028152602060048201819052601260248301526000805160206143a083398151915260448301529151600160a060020a0390931695506304433bbc9450606480820194929392918390030190829087803b158015612c7257600080fd5b505af1158015612c86573d6000803e3d6000fd5b505050506040513d6020811015612c9c57600080fd5b5051604080517f751b64fa00000000000000000000000000000000000000000000000000000000815260048101849052602481018690529051600160a060020a039092169163751b64fa9160448082019260009290919082900301818387803b158015612d0857600080fd5b505af1158015612d1c573d6000803e3d6000fd5b5050600080546040805160e260020a630110ceef028152602060048201819052601260248301526000805160206143a083398151915260448301529151600160a060020a0390931695506304433bbc9450606480820194929392918390030190829087803b158015612d8d57600080fd5b505af1158015612da1573d6000803e3d6000fd5b505050506040513d6020811015612db757600080fd5b5051604080517fb5d8e51800000000000000000000000000000000000000000000000000000000815260048101849052602481018590529051600160a060020a039092169163b5d8e5189160448082019260009290919082900301818387803b158015612e2357600080fd5b505af1158015612e37573d6000803e3d6000fd5b5050600080546040805160e260020a630110ceef028152602060048201819052601260248301526000805160206143a083398151915260448301529151600160a060020a0390931695506304433bbc9450606480820194929392918390030190829087803b158015612ea857600080fd5b505af1158015612ebc573d6000803e3d6000fd5b505050506040513d6020811015612ed257600080fd5b50516040805160e160020a63183a1b93028152600481018490524260248201529051600160a060020a039092169163307437269160448082019260009290919082900301818387803b158015612f2757600080fd5b505af1158015612f3b573d6000803e3d6000fd5b5050600080546040805160e260020a630110ceef028152602060048201819052601260248301526000805160206143a083398151915260448301529151600160a060020a0390931695506304433bbc9450606480820194929392918390030190829087803b158015612fac57600080fd5b505af1158015612fc0573d6000803e3d6000fd5b505050506040513d6020811015612fd657600080fd5b50516040805160e060020a63bfc73cfd02815260048101849052600160248201529051600160a060020a039092169163bfc73cfd9160448082019260009290919082900301818387803b15801561302c57600080fd5b505af1158015613040573d6000803e3d6000fd5b5050505061304e8585613387565b60408051828152600160a060020a038089166020830152871681830152606081018690526080810185905260a0810184905290517fc93d5f3be3fb6a3a357ff8618f169d1fc7f2af9dfaa690855956a3be0a5a23fd9181900360c00190a1505050505050565b6000600181805b85518260ff161015613228575060ff80821660020a8804831616600181141561317f57858260ff168151811015156130ef57fe5b602090810290910181015160408051808401929092528181018a905280518083038201815260609092019081905281519192909182918401908083835b6020831061314b5780518252601f19909201916020918201910161312c565b6001836020036101000a0380198251168184511680821785525050505050509050019150506040518091039020965061321d565b86868360ff1681518110151561319157fe5b6020908102909101810151604080518084019490945283810191909152805180840382018152606090930190819052825190918291908401908083835b602083106131ed5780518252601f1990920191602091820191016131ce565b6001836020036101000a038019825116818451168082178552505050505050905001915050604051809103902096505b6001820191506130bb565b50505092149392505050565b60008054604080517f162790550000000000000000000000000000000000000000000000000000000081523360048201529051600160a060020a03909216926316279055926024808401936020939083900390910190829087803b15801561329b57600080fd5b505af11580156132af573d6000803e3d6000fd5b505050506040513d60208110156132c557600080fd5b50511515613343576040805160e560020a62461bcd02815260206004820152602960248201527f46756e6374696f6e2063616e206f6e6c792062652063616c6c6564206279206360448201527f6f6e747261637473210000000000000000000000000000000000000000000000606482015290519081900360840190fd5b600160a060020a038116151561335857600080fd5b6000805473ffffffffffffffffffffffffffffffffffffffff1916600160a060020a0392909216919091179055565b600080546040805160e260020a630110ceef028152602060048201819052600e60248301527f50726f66696c6553746f7261676500000000000000000000000000000000000060448301529151600160a060020a03909316926304433bbc9260648084019391929182900301818787803b15801561340457600080fd5b505af1158015613418573d6000803e3d6000fd5b505050506040513d602081101561342e57600080fd5b5051604080517f2ba97595000000000000000000000000000000000000000000000000000000008152600160a060020a038681166004830152915192935090831691632ba97595916024808201926020929091908290030181600087803b15801561349857600080fd5b505af11580156134ac573d6000803e3d6000fd5b505050506040513d60208110156134c257600080fd5b5051801561363e575080600160a060020a0316635ffe0282846040518263ffffffff1660e060020a0281526004018082600160a060020a0316600160a060020a03168152602001915050602060405180830381600087803b15801561352657600080fd5b505af115801561353a573d6000803e3d6000fd5b505050506040513d602081101561355057600080fd5b50516040805160e560020a6303d3b323028152600160a060020a038681166004830152915191841691637a766460916024808201926020929091908290030181600087803b1580156135a157600080fd5b505af11580156135b5573d6000803e3d6000fd5b505050506040513d60208110156135cb57600080fd5b5051604080517f56582bf9000000000000000000000000000000000000000000000000000000008152600160a060020a0387811660048301529151939092039261363c9286928616916356582bf9916024808201926020929091908290030181600087803b15801561147357600080fd5b115b156136c457604080517f9385067f000000000000000000000000000000000000000000000000000000008152600160a060020a038581166004830152600060248301819052925190841692639385067f926044808201939182900301818387803b1580156136ab57600080fd5b505af11580156136bf573d6000803e3d6000fd5b505050505b8161379e82600160a060020a0316635ffe0282866040518263ffffffff1660e060020a0281526004018082600160a060020a0316600160a060020a03168152602001915050602060405180830381600087803b15801561372357600080fd5b505af1158015613737573d6000803e3d6000fd5b505050506040513d602081101561374d57600080fd5b50516040805160e560020a6303d3b323028152600160a060020a038881166004830152915191861691637a766460916024808201926020929091908290030181600087803b15801561128957600080fd5b101561381a576040805160e560020a62461bcd02815260206004820152602e60248201527f5573657220646f6573206e6f74206861766520656e6f756768207374616b652060448201527f666f7220726573657276696e6721000000000000000000000000000000000000606482015290519081900360840190fd5b80600160a060020a03166350c3ff57846138898585600160a060020a0316635ffe0282896040518263ffffffff1660e060020a0281526004018082600160a060020a0316600160a060020a03168152602001915050602060405180830381600087803b15801561147357600080fd5b6040518363ffffffff1660e060020a0281526004018083600160a060020a0316600160a060020a0316815260200182815260200192505050600060405180830381600087803b1580156138db57600080fd5b505af115801561231c573d6000803e3d6000fd5b6000828211156138fb57fe5b50900390565b60008282018381101561391057fe5b9392505050565b600080546040805160e260020a630110ceef028152602060048201819052600e60248301527f50726f66696c6553746f72616765000000000000000000000000000000000000604483015291518493849384938493600160a060020a03909316926304433bbc9260648084019391929182900301818787803b15801561399c57600080fd5b505af11580156139b0573d6000803e3d6000fd5b505050506040513d60208110156139c657600080fd5b5051600080546040805160e260020a630110ceef028152602060048201819052601260248301526000805160206143a083398151915260448301529151949950600160a060020a03909216936304433bbc936064808501948390030190829087803b158015613a3457600080fd5b505af1158015613a48573d6000803e3d6000fd5b505050506040513d6020811015613a5e57600080fd5b5051604080517f7e44e504000000000000000000000000000000000000000000000000000000008152600481018990529051919550600160a060020a03861691637e44e504916024808201926020929091908290030181600087803b158015613ac657600080fd5b505af1158015613ada573d6000803e3d6000fd5b505050506040513d6020811015613af057600080fd5b5051604080517f87cc5a1c000000000000000000000000000000000000000000000000000000008152600481018990529051919450600160a060020a038616916387cc5a1c916024808201926020929091908290030181600087803b158015613b5857600080fd5b505af1158015613b6c573d6000803e3d6000fd5b505050506040513d6020811015613b8257600080fd5b5051604080517f31d98b3f000000000000000000000000000000000000000000000000000000008152600481018990529051919350600160a060020a038616916331d98b3f916024808201926020929091908290030181600087803b158015613bea57600080fd5b505af1158015613bfe573d6000803e3d6000fd5b505050506040513d6020811015613c1457600080fd5b50516040805160e560020a6303d3b323028152600160a060020a0386811660048301529151929350839291881691637a766460916024808201926020929091908290030181600087803b158015613c6a57600080fd5b505af1158015613c7e573d6000803e3d6000fd5b505050506040513d6020811015613c9457600080fd5b50511015613d00576040805160e560020a62461bcd02815260206004820152602e602482015260008051602061438083398151915260448201527f7320746f207472616e7366657221000000000000000000000000000000000000606482015290519081900360840190fd5b8085600160a060020a0316635ffe0282846040518263ffffffff1660e060020a0281526004018082600160a060020a0316600160a060020a03168152602001915050602060405180830381600087803b158015613d5c57600080fd5b505af1158015613d70573d6000803e3d6000fd5b505050506040513d6020811015613d8657600080fd5b50511015613df2576040805160e560020a62461bcd028152602060048201526037602482015260008051602061438083398151915260448201527f7320726573657276656420746f207472616e7366657221000000000000000000606482015290519081900360840190fd5b84600160a060020a03166350c3ff5784613e618489600160a060020a0316635ffe0282896040518263ffffffff1660e060020a0281526004018082600160a060020a0316600160a060020a03168152602001915050602060405180830381600087803b15801561128957600080fd5b6040518363ffffffff1660e060020a0281526004018083600160a060020a0316600160a060020a0316815260200182815260200192505050600060405180830381600087803b158015613eb357600080fd5b505af1158015613ec7573d6000803e3d6000fd5b5050505084600160a060020a031663bd3cd52584613f3a8489600160a060020a0316637a766460896040518263ffffffff1660e060020a0281526004018082600160a060020a0316600160a060020a03168152602001915050602060405180830381600087803b15801561128957600080fd5b6040518363ffffffff1660e060020a0281526004018083600160a060020a0316600160a060020a0316815260200182815260200192505050600060405180830381600087803b158015613f8c57600080fd5b505af1158015613fa0573d6000803e3d6000fd5b5050505084600160a060020a031663bd3cd525836140138489600160a060020a0316637a766460886040518263ffffffff1660e060020a0281526004018082600160a060020a0316600160a060020a03168152602001915050602060405180830381600087803b15801561147357600080fd5b6040518363ffffffff1660e060020a0281526004018083600160a060020a0316600160a060020a0316815260200182815260200192505050600060405180830381600087803b15801561406557600080fd5b505af1158015614079573d6000803e3d6000fd5b505050508085600160a060020a0316635ffe0282846040518263ffffffff1660e060020a0281526004018082600160a060020a0316600160a060020a03168152602001915050602060405180830381600087803b1580156140d957600080fd5b505af11580156140ed573d6000803e3d6000fd5b505050506040513d602081101561410357600080fd5b50511015614181576040805160e560020a62461bcd02815260206004820152603660248201527f53656c6c657220646f6573206e6f74206861766520656e6f75676820746f6b6560448201527f6e7320726573657276656420746f20756e6c6f636b2100000000000000000000606482015290519081900360840190fd5b84600160a060020a03166350c3ff57836141f08489600160a060020a0316635ffe0282886040518263ffffffff1660e060020a0281526004018082600160a060020a0316600160a060020a03168152602001915050602060405180830381600087803b15801561128957600080fd5b6040518363ffffffff1660e060020a0281526004018083600160a060020a0316600160a060020a0316815260200182815260200192505050600060405180830381600087803b15801561424257600080fd5b505af1158015614256573d6000803e3d6000fd5b50506040805160e060020a63bfc73cfd028152600481018a9052600360248201529051600160a060020a038816935063bfc73cfd9250604480830192600092919082900301818387803b1580156142ac57600080fd5b505af11580156142c0573d6000803e3d6000fd5b50506040805160e160020a63183a1b93028152600481018a90524260248201529051600160a060020a038816935063307437269250604480830192600092919082900301818387803b15801561431557600080fd5b505af1158015614329573d6000803e3d6000fd5b505060408051898152600160a060020a03808816602083015286168183015290517ff4be0903b752a94a903248b0bab983f94b443f9fcae393f657e06b05d5405b069350908190036060019150a15050505050505600427579657220646f6573206e6f74206861766520656e6f75676820746f6b656e4d61726b6574706c61636553746f72616765000000000000000000000000000043616e6e6f7420696e69746961746520707572636861736520776974686f7574a165627a7a7230582090f9b7c3198bbda4b0f97b2a52b8bfce6a1d4ba952ac87f3dee32f6776cd1db10029",
  "source": "pragma solidity ^0.4.0;\n\nimport './Hub.sol';\n\nimport {ERC725} from './ERC725.sol';\nimport {HoldingStorage} from './HoldingStorage.sol';\nimport {MarketplaceStorage} from './MarketplaceStorage.sol';\nimport {SafeMath} from './SafeMath.sol';\nimport {ProfileStorage} from \"./ProfileStorage.sol\";\nimport {Profile} from \"./Profile.sol\";\n\ncontract Marketplace {\n    using SafeMath for uint256;\n\n    Hub public hub;\n\n    modifier onlyContracts(){\n        require(hub.isContract(msg.sender),\n            \"Function can only be called by contracts!\");\n        _;\n    }\n\n    uint256 public paymentStageInterval = 5 minutes;\n\n    constructor(address hubAddress) public {\n        require(hubAddress != address(0));\n        hub = Hub(hubAddress);\n    }\n\n    function setHubAddress(address newHubAddress)\n    public onlyContracts {\n        require(newHubAddress != address(0));\n        hub = Hub(newHubAddress);\n    }\n\n    modifier onlyHolding(){\n        require(msg.sender == hub.getContractAddress(\"Holding\"),\n            \"Function can only be called by Holding contract!\");\n        _;\n    }\n\n    event PurchaseInitiated(\n        bytes32 purchaseId,\n        address sellerIdentity, address buyerIdentity,\n        uint256 price,\n        bytes32 originalDataRootHash, bytes32 encodedDataRootHash\n    );\n    event KeyDeposited(bytes32 purchaseId, bytes32 key);\n    event MisbehaviourProven(bytes32 purchaseId, address sellerIdentity, address buyerIdentity);\n    event PurchaseCompleted(bytes32 purchaseId, address sellerIdentity, address buyerIdentity);\n\n    function initiatePurchase(\n        address sellerIdentity,\n        address buyerIdentity,\n        uint price,\n        bytes32 originalDataRootHash,\n        bytes32 encodedDataRootHash\n    ) public {\n        require(uint256(sellerIdentity) != 0, \"Cannot initiate purchase without seller id submitted\");\n        require(uint256(buyerIdentity) != 0, \"Cannot initiate purchase without price submitted\");\n        require(uint256(originalDataRootHash) !=0, \"Cannot initiate purchase without originalDataRootHash submitted\");\n        require(uint256(encodedDataRootHash) != 0, \"Cannot initiate purchase without encodedDataRootHash submitted\");\n\n        require(ERC725(buyerIdentity).keyHasPurpose(keccak256(abi.encodePacked(msg.sender)), 2) || ERC725(buyerIdentity).keyHasPurpose(keccak256(abi.encodePacked(msg.sender)), 1), \"Sender does not have proper permission to call this function!\");\n\n        // purchase_id is created as a hash of: sender, previous block hash, and data root hash\n        bytes32 purchaseId = keccak256(abi.encodePacked(msg.sender, blockhash(block.number - 1), encodedDataRootHash));\n\n        MarketplaceStorage(hub.getContractAddress(\"MarketplaceStorage\")).setSeller(purchaseId, sellerIdentity);\n        MarketplaceStorage(hub.getContractAddress(\"MarketplaceStorage\")).setBuyer(purchaseId, buyerIdentity);\n\n        MarketplaceStorage(hub.getContractAddress(\"MarketplaceStorage\")).setPrice(purchaseId, price);\n\n        MarketplaceStorage(hub.getContractAddress(\"MarketplaceStorage\")).setOriginalDataRootHash(purchaseId, originalDataRootHash);\n        MarketplaceStorage(hub.getContractAddress(\"MarketplaceStorage\")).setEncodedDataRootHash(purchaseId, encodedDataRootHash);\n\n        MarketplaceStorage(hub.getContractAddress(\"MarketplaceStorage\")).setTimestamp(purchaseId, block.timestamp);\n        MarketplaceStorage(hub.getContractAddress(\"MarketplaceStorage\")).setStage(purchaseId, 1);\n\n        // Secure funds from buyer\n        reserveTokens(buyerIdentity, price);\n\n        emit PurchaseInitiated(purchaseId, sellerIdentity, buyerIdentity, price, originalDataRootHash, encodedDataRootHash);\n    }\n\n    function depositKey(bytes32 purchaseId, bytes32 key) public {\n        require(uint256(purchaseId) != 0, \"Cannot reveal key without purchase id submitted\");\n        require(uint256(key) != 0, \"Cannot reveal key without key submitted\");\n\n        MarketplaceStorage marketplaceStorage = MarketplaceStorage(hub.getContractAddress(\"MarketplaceStorage\"));\n\n        address sellerIdentity = marketplaceStorage.getSeller(purchaseId);\n        require(ERC725(sellerIdentity).keyHasPurpose(keccak256(abi.encodePacked(msg.sender)), 2) || ERC725(sellerIdentity).keyHasPurpose(keccak256(abi.encodePacked(msg.sender)), 1), \"Only seller can reveal key!\");\n        require(marketplaceStorage.getStage(purchaseId) == 1, \"Key can only be revealed in the initiated stage\");\n\n        marketplaceStorage.setKey(purchaseId, key);\n\n        marketplaceStorage.setTimestamp(purchaseId, block.timestamp);\n        marketplaceStorage.setStage(purchaseId, 2);\n\n        // Secure funds from all parties\n        reserveTokens(sellerIdentity, marketplaceStorage.getPrice(purchaseId));\n\n        emit KeyDeposited(purchaseId, key);\n    }\n\n    function takePayment(bytes32 purchaseId) public {\n        require(uint256(purchaseId) != 0, \"Cannot take payment  without purchase id submitted\");\n\n        MarketplaceStorage marketplaceStorage = MarketplaceStorage(hub.getContractAddress(\"MarketplaceStorage\"));\n\n        require(marketplaceStorage.getStage(purchaseId) == 2, \"Payment can only be taken in the KeyDeposited stage\");\n        require(block.timestamp > marketplaceStorage.getTimestamp(purchaseId) + paymentStageInterval, \"Complaint window has not yet expired!\");\n\n        address buyerIdentity = marketplaceStorage.getBuyer(purchaseId);\n        address sellerIdentity = marketplaceStorage.getSeller(purchaseId);\n        uint256 price = marketplaceStorage.getPrice(purchaseId);\n\n        ProfileStorage profileStorage = ProfileStorage(hub.getContractAddress(\"ProfileStorage\"));\n\n        require(profileStorage.getStake(buyerIdentity) >= price, \"Buyer does not have enough tokens to transfer!\");\n        require(profileStorage.getStakeReserved(buyerIdentity) >= price, \"Buyer does not have enough tokens reserved to transfer!\");\n\n        profileStorage.setStakeReserved(buyerIdentity, profileStorage.getStakeReserved(buyerIdentity).sub(price));\n        profileStorage.setStake(buyerIdentity, profileStorage.getStake(buyerIdentity).sub(price));\n        profileStorage.setStake(sellerIdentity, profileStorage.getStake(sellerIdentity).add(price));\n\n        // Unlock seller stake tokens\n        require(profileStorage.getStakeReserved(sellerIdentity) >= price, \"Seller does not have enough tokens reserved to unlock!\");\n        profileStorage.setStakeReserved(sellerIdentity, profileStorage.getStakeReserved(sellerIdentity).sub(price));\n\n        marketplaceStorage.setStage(purchaseId, 3);\n        marketplaceStorage.setTimestamp(purchaseId, block.timestamp);\n\n        emit PurchaseCompleted(purchaseId, sellerIdentity, buyerIdentity);\n    }\n\n    function reserveTokens(address party, uint256 amount)\n    internal {\n        ProfileStorage profileStorage = ProfileStorage(hub.getContractAddress(\"ProfileStorage\"));\n\n        if(profileStorage.getWithdrawalPending(party) &&\n            profileStorage.getWithdrawalAmount(party).add(amount) > profileStorage.getStake(party) - profileStorage.getStakeReserved(party)) {\n\n            profileStorage.setWithdrawalPending(party, false);\n        }\n\n        require(profileStorage.getStake(party).sub(profileStorage.getStakeReserved(party)) >= amount,\n            \"User does not have enough stake for reserving!\");\n\n        profileStorage.setStakeReserved(party, profileStorage.getStakeReserved(party).add(amount));\n    }\n\n    // function complain about wrong hash of file\n    function complainAboutRoot (bytes32 purchaseId, bytes32 _originalDataRootEncoded, bytes32[] _proofOfEncodedData, uint256 _indexOfRootHash)\n    public {\n        require(uint256(purchaseId) != 0, \"Cannot take payment  without purchase id submitted\");\n\n        MarketplaceStorage marketplaceStorage = MarketplaceStorage(hub.getContractAddress(\"MarketplaceStorage\"));\n        bytes32 key = marketplaceStorage.getKey(purchaseId);\n        bytes32 encodedDataRootHash = marketplaceStorage.getEncodedDataRootHash(purchaseId);\n\n        require(marketplaceStorage.getStage(purchaseId) == 2, \"Complaint can only be given in the KeyDeposited stage\");\n        require(block.timestamp <= marketplaceStorage.getTimestamp(purchaseId) + paymentStageInterval, \"Complaint window has expired!\");\n\n        require (verifyMerkleTreeProof(_indexOfRootHash, _originalDataRootEncoded, _proofOfEncodedData, encodedDataRootHash));\n        if (decryptCiphertext(_indexOfRootHash, _originalDataRootEncoded, key) !=\n            marketplaceStorage.getOriginalDataRootHash(purchaseId))\n        {\n            refundBuyer(purchaseId);\n        }\n    }\n\n    // function complain about wrong hash of two inputs\n    function complainAboutNode (\n        bytes32 purchaseId,\n        uint _indexOfEncodedOutput, uint _indexOfEncodedInputLeft,\n        bytes32 _encodedOutput, bytes32 _encodedInputLeft,\n        bytes32[] _proofOfEncodedOutput, bytes32[] _proofOfEncodedInput\n    ) public {\n        require(uint256(purchaseId) != 0, \"Cannot take payment  without purchase id submitted\");\n\n        MarketplaceStorage marketplaceStorage = MarketplaceStorage(hub.getContractAddress(\"MarketplaceStorage\"));\n        bytes32 key = marketplaceStorage.getKey(purchaseId);\n        bytes32 encodedDataRootHash = marketplaceStorage.getEncodedDataRootHash(purchaseId);\n\n        require(marketplaceStorage.getStage(purchaseId) == 2, \"Complaint can only be given in the KeyDeposited stage\");\n        require(block.timestamp <= marketplaceStorage.getTimestamp(purchaseId) + paymentStageInterval, \"Complaint window has expired!\");\n\n        // Verify that the output element was sent by seller\n        require (\n            verifyMerkleTreeProof(_indexOfEncodedOutput, _encodedOutput, _proofOfEncodedOutput, encodedDataRootHash),\n            \"Proof for output element incorrect\"\n        );\n\n        // Verify that the left input element was sent by the seller\n        require (\n            verifyMerkleTreeProof(_indexOfEncodedInputLeft, _encodedInputLeft, _proofOfEncodedInput, encodedDataRootHash),\n            \"Proof for input element incorrect\"\n        );\n\n        // Get decrypted output element\n        bytes32 decodedOutput = decryptCiphertext(_indexOfEncodedOutput, _encodedOutput, key);\n        bytes32 encodedInputRight = _proofOfEncodedInput[0];\n        // Prove that the decrypted output element is different than the hash of decoded input elements\n        if (decodedOutput !=\n            keccak256(abi.encodePacked(\n                decryptCiphertext(_indexOfEncodedInputLeft, _encodedInputLeft, key),\n                decryptCiphertext(_indexOfEncodedInputLeft + 1, encodedInputRight, key)\n                ))\n            )\n        {\n            refundBuyer(purchaseId);\n        }\n\n    }\n\n    // function to decrypt hashes of the merkle tree\n    function decryptCiphertext (uint _index, bytes32 _ciphertext, bytes32 _key)\n    public pure returns (bytes32){\n        return keccak256(abi.encodePacked(_key, _index)) ^ _ciphertext;\n    }\n\n    // function to verify Merkle Tree proofs\n    function verifyMerkleTreeProof(uint _index, bytes32 _value, bytes32[] _proof, bytes32 _encodedDataRootHash)\n    public view returns (bool) {\n        uint8 bitMask = 1;\n\n        for (uint8 i = 0; i < _proof.length; i += 1){\n            uint256 selectedBit = _index >> i;\n            selectedBit = selectedBit & bitMask;\n\n            if(selectedBit == 1) {\n                _value = keccak256(abi.encodePacked(_proof[i], _value));\n            }\n            else {\n                _value = keccak256(abi.encodePacked(_value, _proof[i]));\n            }\n        }\n        return (_value == _encodedDataRootHash);\n    }\n\n    function refundBuyer(bytes32 purchaseId)\n    internal {\n        ProfileStorage profileStorage = ProfileStorage(hub.getContractAddress(\"ProfileStorage\"));\n        MarketplaceStorage marketplaceStorage = MarketplaceStorage(hub.getContractAddress(\"MarketplaceStorage\"));\n\n        address sellerIdentity = marketplaceStorage.getSeller(purchaseId);\n        address buyerIdentity = marketplaceStorage.getBuyer(purchaseId);\n        uint256 price = marketplaceStorage.getPrice(purchaseId);\n\n        require(profileStorage.getStake(sellerIdentity) >= price, \"Buyer does not have enough tokens to transfer!\");\n        require(profileStorage.getStakeReserved(buyerIdentity) >= price, \"Buyer does not have enough tokens reserved to transfer!\");\n\n        profileStorage.setStakeReserved(sellerIdentity, profileStorage.getStakeReserved(sellerIdentity).sub(price));\n        profileStorage.setStake(sellerIdentity, profileStorage.getStake(sellerIdentity).sub(price));\n        profileStorage.setStake(buyerIdentity, profileStorage.getStake(buyerIdentity).add(price));\n\n        // Unlock seller stake tokens\n        require(profileStorage.getStakeReserved(buyerIdentity) >= price, \"Seller does not have enough tokens reserved to unlock!\");\n        profileStorage.setStakeReserved(buyerIdentity, profileStorage.getStakeReserved(buyerIdentity).sub(price));\n\n        marketplaceStorage.setStage(purchaseId, 3);\n        marketplaceStorage.setTimestamp(purchaseId, block.timestamp);\n\n        emit MisbehaviourProven(purchaseId, sellerIdentity, buyerIdentity);\n    }\n}\n",
  "sourcePath": "/Users/miloskotlar/ot-node/modules/Blockchain/Polygon/contracts/Marketplace.sol",
  "compiler": {
    "name": "solc",
    "version": "0.4.25+commit.59dbf8f1.Emscripten.clang"
  },
  "schemaVersion": "3.0.0-beta.1",
  "updatedAt": "2021-08-16T09:42:48.463Z"
}