{
  "contractName": "MarketplaceStorage",
  "abi": [
    {
      "constant": true,
      "inputs": [],
      "name": "hub",
      "outputs": [
        {
          "name": "",
          "type": "address"
        }
      ],
      "payable": false,
      "stateMutability": "view",
      "type": "function",
      "signature": "0x365a86fc"
    },
    {
      "constant": true,
      "inputs": [
        {
          "name": "",
          "type": "bytes32"
        }
      ],
      "name": "purchase",
      "outputs": [
        {
          "name": "seller",
          "type": "address"
        },
        {
          "name": "buyer",
          "type": "address"
        },
        {
          "name": "price",
          "type": "uint256"
        },
        {
          "name": "key",
          "type": "bytes32"
        },
        {
          "name": "timestamp",
          "type": "uint256"
        },
        {
          "name": "originalDataRootHash",
          "type": "bytes32"
        },
        {
          "name": "encodedDataRootHash",
          "type": "bytes32"
        },
        {
          "name": "stage",
          "type": "uint8"
        }
      ],
      "payable": false,
      "stateMutability": "view",
      "type": "function",
      "signature": "0xcc445611"
    },
    {
      "inputs": [
        {
          "name": "hubAddress",
          "type": "address"
        }
      ],
      "payable": false,
      "stateMutability": "nonpayable",
      "type": "constructor",
      "signature": "constructor"
    },
    {
      "constant": false,
      "inputs": [
        {
          "name": "newHubAddress",
          "type": "address"
        }
      ],
      "name": "setHubAddress",
      "outputs": [],
      "payable": false,
      "stateMutability": "nonpayable",
      "type": "function",
      "signature": "0xc7eb4522"
    },
    {
      "constant": false,
      "inputs": [
        {
          "name": "purchaseId",
          "type": "bytes32"
        },
        {
          "name": "sellerAddress",
          "type": "address"
        }
      ],
      "name": "setSeller",
      "outputs": [],
      "payable": false,
      "stateMutability": "nonpayable",
      "type": "function",
      "signature": "0x96bf399c"
    },
    {
      "constant": true,
      "inputs": [
        {
          "name": "purchaseId",
          "type": "bytes32"
        }
      ],
      "name": "getSeller",
      "outputs": [
        {
          "name": "seller",
          "type": "address"
        }
      ],
      "payable": false,
      "stateMutability": "view",
      "type": "function",
      "signature": "0x7e44e504"
    },
    {
      "constant": false,
      "inputs": [
        {
          "name": "purchaseId",
          "type": "bytes32"
        },
        {
          "name": "buyerAddress",
          "type": "address"
        }
      ],
      "name": "setBuyer",
      "outputs": [],
      "payable": false,
      "stateMutability": "nonpayable",
      "type": "function",
      "signature": "0xf3d0da7d"
    },
    {
      "constant": true,
      "inputs": [
        {
          "name": "purchaseId",
          "type": "bytes32"
        }
      ],
      "name": "getBuyer",
      "outputs": [
        {
          "name": "buyer",
          "type": "address"
        }
      ],
      "payable": false,
      "stateMutability": "view",
      "type": "function",
      "signature": "0x87cc5a1c"
    },
    {
      "constant": false,
      "inputs": [
        {
          "name": "purchaseId",
          "type": "bytes32"
        },
        {
          "name": "price",
          "type": "uint256"
        }
      ],
      "name": "setPrice",
      "outputs": [],
      "payable": false,
      "stateMutability": "nonpayable",
      "type": "function",
      "signature": "0x10d8d74d"
    },
    {
      "constant": true,
      "inputs": [
        {
          "name": "purchaseId",
          "type": "bytes32"
        }
      ],
      "name": "getPrice",
      "outputs": [
        {
          "name": "price",
          "type": "uint256"
        }
      ],
      "payable": false,
      "stateMutability": "view",
      "type": "function",
      "signature": "0x31d98b3f"
    },
    {
      "constant": false,
      "inputs": [
        {
          "name": "purchaseId",
          "type": "bytes32"
        },
        {
          "name": "key",
          "type": "bytes32"
        }
      ],
      "name": "setKey",
      "outputs": [],
      "payable": false,
      "stateMutability": "nonpayable",
      "type": "function",
      "signature": "0x07a00330"
    },
    {
      "constant": true,
      "inputs": [
        {
          "name": "purchaseId",
          "type": "bytes32"
        }
      ],
      "name": "getKey",
      "outputs": [
        {
          "name": "key",
          "type": "bytes32"
        }
      ],
      "payable": false,
      "stateMutability": "view",
      "type": "function",
      "signature": "0x12aaac70"
    },
    {
      "constant": false,
      "inputs": [
        {
          "name": "purchaseId",
          "type": "bytes32"
        },
        {
          "name": "timestamp",
          "type": "uint256"
        }
      ],
      "name": "setTimestamp",
      "outputs": [],
      "payable": false,
      "stateMutability": "nonpayable",
      "type": "function",
      "signature": "0x30743726"
    },
    {
      "constant": true,
      "inputs": [
        {
          "name": "purchaseId",
          "type": "bytes32"
        }
      ],
      "name": "getTimestamp",
      "outputs": [
        {
          "name": "timestamp",
          "type": "uint256"
        }
      ],
      "payable": false,
      "stateMutability": "view",
      "type": "function",
      "signature": "0xd45c4435"
    },
    {
      "constant": false,
      "inputs": [
        {
          "name": "purchaseId",
          "type": "bytes32"
        },
        {
          "name": "originalDataRootHash",
          "type": "bytes32"
        }
      ],
      "name": "setOriginalDataRootHash",
      "outputs": [],
      "payable": false,
      "stateMutability": "nonpayable",
      "type": "function",
      "signature": "0x751b64fa"
    },
    {
      "constant": true,
      "inputs": [
        {
          "name": "purchaseId",
          "type": "bytes32"
        }
      ],
      "name": "getOriginalDataRootHash",
      "outputs": [
        {
          "name": "originalDataRootHash",
          "type": "bytes32"
        }
      ],
      "payable": false,
      "stateMutability": "view",
      "type": "function",
      "signature": "0x05f28db8"
    },
    {
      "constant": false,
      "inputs": [
        {
          "name": "purchaseId",
          "type": "bytes32"
        },
        {
          "name": "encodedDataRootHash",
          "type": "bytes32"
        }
      ],
      "name": "setEncodedDataRootHash",
      "outputs": [],
      "payable": false,
      "stateMutability": "nonpayable",
      "type": "function",
      "signature": "0xb5d8e518"
    },
    {
      "constant": true,
      "inputs": [
        {
          "name": "purchaseId",
          "type": "bytes32"
        }
      ],
      "name": "getEncodedDataRootHash",
      "outputs": [
        {
          "name": "encodedDataRootHash",
          "type": "bytes32"
        }
      ],
      "payable": false,
      "stateMutability": "view",
      "type": "function",
      "signature": "0xab32e569"
    },
    {
      "constant": false,
      "inputs": [
        {
          "name": "purchaseId",
          "type": "bytes32"
        },
        {
          "name": "stage",
          "type": "uint256"
        }
      ],
      "name": "setStage",
      "outputs": [],
      "payable": false,
      "stateMutability": "nonpayable",
      "type": "function",
      "signature": "0xbfc73cfd"
    },
    {
      "constant": true,
      "inputs": [
        {
          "name": "purchaseId",
          "type": "bytes32"
        }
      ],
      "name": "getStage",
      "outputs": [
        {
          "name": "stage",
          "type": "uint256"
        }
      ],
      "payable": false,
      "stateMutability": "view",
      "type": "function",
      "signature": "0xae844f74"
    }
  ],
  "bytecode": "0x608060405234801561001057600080fd5b50604051602080610e7d8339810160405251600160a060020a038116151561003757600080fd5b60008054600160a060020a03909216600160a060020a0319909216919091179055610e16806100676000396000f3006080604052600436106101065763ffffffff7c010000000000000000000000000000000000000000000000000000000060003504166305f28db8811461010b57806307a003301461013557806310d8d74d1461015257806312aaac701461016d578063307437261461018557806331d98b3f146101a0578063365a86fc146101b8578063751b64fa146101e95780637e44e5041461020457806387cc5a1c1461021c57806396bf399c14610234578063ab32e56914610258578063ae844f7414610270578063b5d8e51814610288578063bfc73cfd146102a3578063c7eb4522146102be578063cc445611146102df578063d45c44351461035c578063f3d0da7d14610374575b600080fd5b34801561011757600080fd5b50610123600435610398565b60408051918252519081900360200190f35b34801561014157600080fd5b506101506004356024356103ad565b005b34801561015e57600080fd5b50610150600435602435610497565b34801561017957600080fd5b50610123600435610581565b34801561019157600080fd5b50610150600435602435610596565b3480156101ac57600080fd5b50610123600435610680565b3480156101c457600080fd5b506101cd610695565b60408051600160a060020a039092168252519081900360200190f35b3480156101f557600080fd5b506101506004356024356106a4565b34801561021057600080fd5b506101cd60043561078e565b34801561022857600080fd5b506101cd6004356107a9565b34801561024057600080fd5b50610150600435600160a060020a03602435166107c8565b34801561026457600080fd5b506101236004356108d8565b34801561027c57600080fd5b506101236004356108ed565b34801561029457600080fd5b50610150600435602435610913565b3480156102af57600080fd5b506101506004356024356109fd565b3480156102ca57600080fd5b50610150600160a060020a0360043516610b12565b3480156102eb57600080fd5b506102f7600435610c2b565b60408051600160a060020a03808b16825289166020820152908101879052606081018690526080810185905260a0810184905260c0810183905260e0810182600381111561034157fe5b60ff1681526020019850505050505050505060405180910390f35b34801561036857600080fd5b50610123600435610c80565b34801561038057600080fd5b50610150600435600160a060020a0360243516610c95565b60009081526001602052604090206005015490565b600080546040805160e060020a63162790550281523360048201529051600160a060020a03909216926316279055926024808401936020939083900390910190829087803b1580156103fe57600080fd5b505af1158015610412573d6000803e3d6000fd5b505050506040513d602081101561042857600080fd5b50511515610482576040805160e560020a62461bcd0281526020600482015260296024820152600080516020610dcb8339815191526044820152600080516020610dab833981519152606482015290519081900360840190fd5b60009182526001602052604090912060030155565b600080546040805160e060020a63162790550281523360048201529051600160a060020a03909216926316279055926024808401936020939083900390910190829087803b1580156104e857600080fd5b505af11580156104fc573d6000803e3d6000fd5b505050506040513d602081101561051257600080fd5b5051151561056c576040805160e560020a62461bcd0281526020600482015260296024820152600080516020610dcb8339815191526044820152600080516020610dab833981519152606482015290519081900360840190fd5b60009182526001602052604090912060020155565b60009081526001602052604090206003015490565b600080546040805160e060020a63162790550281523360048201529051600160a060020a03909216926316279055926024808401936020939083900390910190829087803b1580156105e757600080fd5b505af11580156105fb573d6000803e3d6000fd5b505050506040513d602081101561061157600080fd5b5051151561066b576040805160e560020a62461bcd0281526020600482015260296024820152600080516020610dcb8339815191526044820152600080516020610dab833981519152606482015290519081900360840190fd5b60009182526001602052604090912060040155565b60009081526001602052604090206002015490565b600054600160a060020a031681565b600080546040805160e060020a63162790550281523360048201529051600160a060020a03909216926316279055926024808401936020939083900390910190829087803b1580156106f557600080fd5b505af1158015610709573d6000803e3d6000fd5b505050506040513d602081101561071f57600080fd5b50511515610779576040805160e560020a62461bcd0281526020600482015260296024820152600080516020610dcb8339815191526044820152600080516020610dab833981519152606482015290519081900360840190fd5b60009182526001602052604090912060050155565b600090815260016020526040902054600160a060020a031690565b60009081526001602081905260409091200154600160a060020a031690565b600080546040805160e060020a63162790550281523360048201529051600160a060020a03909216926316279055926024808401936020939083900390910190829087803b15801561081957600080fd5b505af115801561082d573d6000803e3d6000fd5b505050506040513d602081101561084357600080fd5b5051151561089d576040805160e560020a62461bcd0281526020600482015260296024820152600080516020610dcb8339815191526044820152600080516020610dab833981519152606482015290519081900360840190fd5b600091825260016020526040909120805473ffffffffffffffffffffffffffffffffffffffff1916600160a060020a03909216919091179055565b60009081526001602052604090206006015490565b60008181526001602052604081206007015460ff16600381111561090d57fe5b92915050565b600080546040805160e060020a63162790550281523360048201529051600160a060020a03909216926316279055926024808401936020939083900390910190829087803b15801561096457600080fd5b505af1158015610978573d6000803e3d6000fd5b505050506040513d602081101561098e57600080fd5b505115156109e8576040805160e560020a62461bcd0281526020600482015260296024820152600080516020610dcb8339815191526044820152600080516020610dab833981519152606482015290519081900360840190fd5b60009182526001602052604090912060060155565b600080546040805160e060020a63162790550281523360048201529051600160a060020a03909216926316279055926024808401936020939083900390910190829087803b158015610a4e57600080fd5b505af1158015610a62573d6000803e3d6000fd5b505050506040513d6020811015610a7857600080fd5b50511515610ad2576040805160e560020a62461bcd0281526020600482015260296024820152600080516020610dcb8339815191526044820152600080516020610dab833981519152606482015290519081900360840190fd5b806003811115610ade57fe5b60008381526001602081905260409091206007018054909160ff1990911690836003811115610b0957fe5b02179055505050565b600080546040805160e060020a63162790550281523360048201529051600160a060020a03909216926316279055926024808401936020939083900390910190829087803b158015610b6357600080fd5b505af1158015610b77573d6000803e3d6000fd5b505050506040513d6020811015610b8d57600080fd5b50511515610be7576040805160e560020a62461bcd0281526020600482015260296024820152600080516020610dcb8339815191526044820152600080516020610dab833981519152606482015290519081900360840190fd5b600160a060020a0381161515610bfc57600080fd5b6000805473ffffffffffffffffffffffffffffffffffffffff1916600160a060020a0392909216919091179055565b600160208190526000918252604090912080549181015460028201546003830154600484015460058501546006860154600790960154600160a060020a03978816979095169593949293919290919060ff1688565b60009081526001602052604090206004015490565b600080546040805160e060020a63162790550281523360048201529051600160a060020a03909216926316279055926024808401936020939083900390910190829087803b158015610ce657600080fd5b505af1158015610cfa573d6000803e3d6000fd5b505050506040513d6020811015610d1057600080fd5b50511515610d6a576040805160e560020a62461bcd0281526020600482015260296024820152600080516020610dcb8339815191526044820152600080516020610dab833981519152606482015290519081900360840190fd5b6000918252600160208190526040909220909101805473ffffffffffffffffffffffffffffffffffffffff1916600160a060020a0390921691909117905556006f6e74726163747321000000000000000000000000000000000000000000000046756e6374696f6e2063616e206f6e6c792062652063616c6c65642062792063a165627a7a72305820c48b1bb8b021d17e0eafa0d9157a15f21341e7163a3669ab5d253fcfc65c69220029",
  "source": "pragma solidity ^0.4.0;\n\nimport './Hub.sol';\n\ncontract MarketplaceStorage {\n    Hub public hub;\n\n    modifier onlyContracts(){\n        require(hub.isContract(msg.sender),\n            \"Function can only be called by contracts!\");\n        _;\n    }\n\n    constructor(address hubAddress) public {\n        require(hubAddress != address(0));\n        hub = Hub(hubAddress);\n    }\n\n    function setHubAddress(address newHubAddress)\n    public onlyContracts {\n        require(newHubAddress != address(0));\n        hub = Hub(newHubAddress);\n    }\n\n    enum StageDefinition {created, initialized, keyDeposited, finished}\n\n    struct PurchaseDefinition{\n        address seller;\n        address buyer;\n        uint256 price;\n        bytes32 key;\n        uint256 timestamp;\n        bytes32 originalDataRootHash;\n        bytes32 encodedDataRootHash;\n        StageDefinition stage;\n    }\n    mapping(bytes32 => PurchaseDefinition) public purchase;\n\n\n    function setSeller (bytes32 purchaseId, address sellerAddress)\n    public onlyContracts {\n        purchase[purchaseId].seller = sellerAddress;\n    }\n\n    function getSeller (bytes32 purchaseId)\n    public view returns(address seller){\n        return purchase[purchaseId].seller;\n    }\n\n    function setBuyer (bytes32 purchaseId, address buyerAddress)\n    public onlyContracts {\n        purchase[purchaseId].buyer = buyerAddress;\n    }\n\n    function getBuyer (bytes32 purchaseId)\n    public view returns(address buyer){\n        return purchase[purchaseId].buyer;\n    }\n\n    function setPrice (bytes32 purchaseId, uint price)\n    public onlyContracts {\n        purchase[purchaseId].price = price;\n    }\n\n    function getPrice (bytes32 purchaseId)\n    public view returns(uint price){\n        return purchase[purchaseId].price;\n    }\n\n    function setKey (bytes32 purchaseId, bytes32 key)\n    public onlyContracts {\n        purchase[purchaseId].key = key;\n    }\n\n    function getKey (bytes32 purchaseId)\n    public view returns(bytes32 key){\n        return purchase[purchaseId].key;\n    }\n\n    function setTimestamp (bytes32 purchaseId, uint256 timestamp)\n    public onlyContracts {\n        purchase[purchaseId].timestamp = timestamp;\n    }\n\n    function getTimestamp (bytes32 purchaseId)\n    public view returns(uint256 timestamp){\n        return purchase[purchaseId].timestamp;\n    }\n\n    function setOriginalDataRootHash (bytes32 purchaseId, bytes32 originalDataRootHash)\n    public onlyContracts {\n        purchase[purchaseId].originalDataRootHash = originalDataRootHash;\n    }\n\n    function getOriginalDataRootHash (bytes32 purchaseId)\n    public view returns(bytes32 originalDataRootHash){\n        return purchase[purchaseId].originalDataRootHash;\n    }\n\n    function setEncodedDataRootHash (bytes32 purchaseId, bytes32 encodedDataRootHash)\n    public onlyContracts {\n        purchase[purchaseId].encodedDataRootHash = encodedDataRootHash;\n    }\n\n    function getEncodedDataRootHash (bytes32 purchaseId)\n    public view returns(bytes32 encodedDataRootHash){\n        return purchase[purchaseId].encodedDataRootHash;\n    }\n\n    function setStage (bytes32 purchaseId, uint stage)\n    public onlyContracts {\n        purchase[purchaseId].stage = StageDefinition(stage);\n    }\n\n    function getStage (bytes32 purchaseId)\n    public view returns(uint stage){\n        return uint(purchase[purchaseId].stage);\n    }\n}\n",
  "sourcePath": "/Users/miloskotlar/ot-node/modules/Blockchain/Polygon/contracts/MarketplaceStorage.sol",
  "compiler": {
    "name": "solc",
    "version": "0.4.25+commit.59dbf8f1.Emscripten.clang"
  },
  "schemaVersion": "3.0.0-beta.1",
  "updatedAt": "2021-08-16T09:42:48.502Z"
}