{
  "contractName": "MockApproval",
  "abi": [
    {
      "constant": true,
      "inputs": [
        {
          "name": "",
          "type": "uint256"
        }
      ],
      "name": "hasApproval",
      "outputs": [
        {
          "name": "",
          "type": "bool"
        }
      ],
      "payable": false,
      "stateMutability": "view",
      "type": "function"
    },
    {
      "constant": true,
      "inputs": [
        {
          "name": "",
          "type": "address"
        }
      ],
      "name": "identityApproved",
      "outputs": [
        {
          "name": "",
          "type": "bool"
        }
      ],
      "payable": false,
      "stateMutability": "view",
      "type": "function"
    },
    {
      "constant": true,
      "inputs": [],
      "name": "owner",
      "outputs": [
        {
          "name": "",
          "type": "address"
        }
      ],
      "payable": false,
      "stateMutability": "view",
      "type": "function"
    },
    {
      "constant": true,
      "inputs": [
        {
          "name": "",
          "type": "bytes20"
        }
      ],
      "name": "nodeApproved",
      "outputs": [
        {
          "name": "",
          "type": "bool"
        }
      ],
      "payable": false,
      "stateMutability": "view",
      "type": "function"
    },
    {
      "constant": false,
      "inputs": [
        {
          "name": "newOwner",
          "type": "address"
        }
      ],
      "name": "transferOwnership",
      "outputs": [],
      "payable": false,
      "stateMutability": "nonpayable",
      "type": "function"
    },
    {
      "constant": true,
      "inputs": [
        {
          "name": "",
          "type": "uint256"
        }
      ],
      "name": "allNodes",
      "outputs": [
        {
          "name": "",
          "type": "bytes20"
        }
      ],
      "payable": false,
      "stateMutability": "view",
      "type": "function"
    },
    {
      "anonymous": false,
      "inputs": [
        {
          "indexed": false,
          "name": "nodeId",
          "type": "bytes20"
        }
      ],
      "name": "NodeApproved",
      "type": "event"
    },
    {
      "anonymous": false,
      "inputs": [
        {
          "indexed": false,
          "name": "nodeId",
          "type": "bytes20"
        }
      ],
      "name": "NodeRemoved",
      "type": "event"
    },
    {
      "anonymous": false,
      "inputs": [
        {
          "indexed": true,
          "name": "previousOwner",
          "type": "address"
        },
        {
          "indexed": true,
          "name": "newOwner",
          "type": "address"
        }
      ],
      "name": "OwnershipTransferred",
      "type": "event"
    },
    {
      "constant": true,
      "inputs": [
        {
          "name": "identity",
          "type": "address"
        }
      ],
      "name": "identityHasApproval",
      "outputs": [
        {
          "name": "",
          "type": "bool"
        }
      ],
      "payable": false,
      "stateMutability": "pure",
      "type": "function"
    },
    {
      "constant": true,
      "inputs": [
        {
          "name": "nodeId",
          "type": "bytes20"
        }
      ],
      "name": "nodeHasApproval",
      "outputs": [
        {
          "name": "",
          "type": "bool"
        }
      ],
      "payable": false,
      "stateMutability": "pure",
      "type": "function"
    },
    {
      "constant": true,
      "inputs": [],
      "name": "getAllNodes",
      "outputs": [
        {
          "name": "",
          "type": "bytes20[]"
        }
      ],
      "payable": false,
      "stateMutability": "view",
      "type": "function"
    },
    {
      "constant": true,
      "inputs": [],
      "name": "getNodeStatuses",
      "outputs": [
        {
          "name": "",
          "type": "bool[]"
        }
      ],
      "payable": false,
      "stateMutability": "view",
      "type": "function"
    },
    {
      "constant": false,
      "inputs": [
        {
          "name": "identity",
          "type": "address"
        },
        {
          "name": "nodeId",
          "type": "bytes20"
        }
      ],
      "name": "approve",
      "outputs": [],
      "payable": false,
      "stateMutability": "nonpayable",
      "type": "function"
    },
    {
      "constant": false,
      "inputs": [
        {
          "name": "identity",
          "type": "address"
        },
        {
          "name": "nodeId",
          "type": "bytes20"
        }
      ],
      "name": "removeApproval",
      "outputs": [],
      "payable": false,
      "stateMutability": "nonpayable",
      "type": "function"
    },
    {
      "constant": false,
      "inputs": [
        {
          "name": "identity",
          "type": "address"
        },
        {
          "name": "newApproval",
          "type": "bool"
        }
      ],
      "name": "setIdentityApproval",
      "outputs": [],
      "payable": false,
      "stateMutability": "nonpayable",
      "type": "function"
    }
  ],
  "bytecode": "0x608060405260008054600160a060020a0319163317905561065e806100256000396000f3006080604052600436106100c45763ffffffff7c010000000000000000000000000000000000000000000000000000000060003504166301278eae81146100c95780630e38ed3c146100f55780632198955b1461011c57806322471e161461015157806389a367f9146101725780638c0ab7fa1461011c5780638da5cb5b146101d757806397fa840614610208578063a1174e7d14610229578063bf190db91461023e578063f2fde38b14610265578063fe72ae1314610286578063feb5b2e9146102c0575b600080fd5b3480156100d557600080fd5b506100e16004356102e6565b604080519115158252519081900360200190f35b34801561010157600080fd5b506100e16bffffffffffffffffffffffff1960043516610318565b34801561012857600080fd5b5061014f600160a060020a03600435166bffffffffffffffffffffffff196024351661031e565b005b34801561015d57600080fd5b506100e1600160a060020a03600435166103c1565b34801561017e57600080fd5b506101876103d6565b60408051602080825283518183015283519192839290830191858101910280838360005b838110156101c35781810151838201526020016101ab565b505050509050019250505060405180910390f35b3480156101e357600080fd5b506101ec61044e565b60408051600160a060020a039092168252519081900360200190f35b34801561021457600080fd5b506100e1600160a060020a0360043516610318565b34801561023557600080fd5b5061018761045d565b34801561024a57600080fd5b506100e16bffffffffffffffffffffffff19600435166104d3565b34801561027157600080fd5b5061014f600160a060020a03600435166104e8565b34801561029257600080fd5b5061029e600435610604565b604080516bffffffffffffffffffffffff199092168252519081900360200190f35b3480156102cc57600080fd5b5061014f600160a060020a0360043516602435151561031e565b60028054829081106102f457fe5b9060005260206000209060209182820401919006915054906101000a900460ff1681565b50600190565b600054600160a060020a031633146103bd57604080517f08c379a000000000000000000000000000000000000000000000000000000000815260206004820152602a60248201527f4f6e6c7920636f6e7472616374206f776e65722063616e2063616c6c2074686960448201527f732066756e6374696f6e00000000000000000000000000000000000000000000606482015290519081900360840190fd5b5050565b60046020526000908152604090205460ff1681565b6060600280548060200260200160405190810160405280929190818152602001828054801561044457602002820191906000526020600020906000905b825461010083900a900460ff1615158152602060019283018181049485019490930390920291018084116104135790505b5050505050905090565b600054600160a060020a031681565b6060600180548060200260200160405190810160405280929190818152602001828054801561044457602002820191906000526020600020905b81546c01000000000000000000000000026bffffffffffffffffffffffff19168152600190910190602001808311610497575050505050905090565b60036020526000908152604090205460ff1681565b600054600160a060020a0316331461058757604080517f08c379a000000000000000000000000000000000000000000000000000000000815260206004820152602a60248201527f4f6e6c7920636f6e7472616374206f776e65722063616e2063616c6c2074686960448201527f732066756e6374696f6e00000000000000000000000000000000000000000000606482015290519081900360840190fd5b600160a060020a038116151561059c57600080fd5b60008054604051600160a060020a03808516939216917f8be0079c531659141344cd1fd0a4f28419497f9722a3daafe3b4186f6b6457e091a36000805473ffffffffffffffffffffffffffffffffffffffff1916600160a060020a0392909216919091179055565b600180548290811061061257fe5b6000918252602090912001546c01000000000000000000000000029050815600a165627a7a723058204661e6075bf451a364f75d7115b3ec7b2212530fa877cff8baaffc8f94bd4a4b0029",
  "source": "pragma solidity ^0.4.24;\n\n/**\n* @title Ownable\n* @dev The Ownable contract has an owner address, and provides basic authorization control\n* functions, this simplifies the implementation of \"user permissions\".\n*/\ncontract Ownable {\n    address public owner;\n\n    event OwnershipTransferred(address indexed previousOwner, address indexed newOwner);\n\n    /**\n    * @dev The Ownable constructor sets the original `owner` of the contract to the sender\n    * account.\n    */\n    constructor () public {\n        owner = msg.sender;\n    }\n\n    /**\n    * @dev Throws if called by any account other than the owner.\n    */\n    modifier onlyOwner() {\n        require(msg.sender == owner, \"Only contract owner can call this function\");\n        _;\n    }\n\n    /**\n    * @dev Allows the current owner to transfer control of the contract to a newOwner.\n    * @param newOwner The address to transfer ownership to.\n    */\n    function transferOwnership(address newOwner) public onlyOwner {\n        require(newOwner != address(0));\n        emit OwnershipTransferred(owner, newOwner);\n        owner = newOwner;\n    }\n\n}\n\ncontract MockApproval is Ownable{\n    bytes20[] public allNodes;\n    bool[] public hasApproval;\n    mapping (bytes20 => bool) public nodeApproved;\n    mapping (address => bool) public identityApproved;\n\n    event NodeApproved(bytes20 nodeId);\n    event NodeRemoved(bytes20 nodeId);\n\n    function identityHasApproval(address identity)\n    public pure returns(bool) {\n        return true;\n    }\n\n    function nodeHasApproval(bytes20 nodeId)\n    public pure returns(bool) {\n        return true;\n    }\n\n    function getAllNodes() public view returns(bytes20[]){\n        return allNodes;\n    }\n\n    function getNodeStatuses() public view returns(bool[]){\n        return hasApproval;\n    }\n    \n    function approve(address identity, bytes20 nodeId) \n    public onlyOwner {\n    }\n\n    function removeApproval(address identity, bytes20 nodeId) \n    public onlyOwner {\n    }\n\n    function setIdentityApproval(address identity, bool newApproval) \n    public onlyOwner {\n    }\n}",
  "sourcePath": "/Users/miloskotlar/ot-node/modules/Blockchain/Polygon/contracts/MockApproval.sol",
  "compiler": {
    "name": "solc",
    "version": "0.4.25+commit.59dbf8f1.Emscripten.clang"
  },
  "schemaVersion": "3.0.0-beta.1",
  "updatedAt": "2021-08-16T09:42:48.514Z"
}