{
  "contractName": "MockHolding",
  "abi": [
    {
      "anonymous": false,
      "inputs": [
        {
          "indexed": false,
          "name": "dataSetId",
          "type": "bytes32"
        },
        {
          "indexed": false,
          "name": "dcProfile",
          "type": "address"
        },
        {
          "indexed": false,
          "name": "offerId",
          "type": "bytes32"
        },
        {
          "indexed": false,
          "name": "task",
          "type": "bytes1"
        }
      ],
      "name": "OfferTask",
      "type": "event"
    },
    {
      "anonymous": false,
      "inputs": [
        {
          "indexed": false,
          "name": "offerId",
          "type": "bytes32"
        },
        {
          "indexed": false,
          "name": "dcNodeId",
          "type": "bytes32"
        }
      ],
      "name": "OfferCreated",
      "type": "event"
    },
    {
      "anonymous": false,
      "inputs": [
        {
          "indexed": false,
          "name": "offerId",
          "type": "bytes32"
        },
        {
          "indexed": false,
          "name": "holder1",
          "type": "address"
        },
        {
          "indexed": false,
          "name": "holder2",
          "type": "address"
        },
        {
          "indexed": false,
          "name": "holder3",
          "type": "address"
        }
      ],
      "name": "OfferFinalized",
      "type": "event"
    },
    {
      "constant": false,
      "inputs": [
        {
          "name": "dataSetId",
          "type": "bytes32"
        },
        {
          "name": "dcNodeId",
          "type": "bytes32"
        }
      ],
      "name": "createOffer",
      "outputs": [],
      "payable": false,
      "stateMutability": "nonpayable",
      "type": "function"
    },
    {
      "constant": false,
      "inputs": [
        {
          "name": "offerId",
          "type": "bytes32"
        },
        {
          "name": "holder1",
          "type": "address"
        },
        {
          "name": "holder2",
          "type": "address"
        },
        {
          "name": "holder3",
          "type": "address"
        }
      ],
      "name": "finalizeOffer",
      "outputs": [],
      "payable": false,
      "stateMutability": "nonpayable",
      "type": "function"
    }
  ],
  "bytecode": "0x608060405234801561001057600080fd5b5061034a806100206000396000f30060806040526004361061004b5763ffffffff7c01000000000000000000000000000000000000000000000000000000006000350416630360796b81146100505780636a58b5301461006d575b600080fd5b34801561005c57600080fd5b5061006b6004356024356100aa565b005b34801561007957600080fd5b5061006b60043573ffffffffffffffffffffffffffffffffffffffff602435811690604435811690606435166102ba565b6040805160208082018590528251808303820181529183019283905281517f19662606a8995e294f49c6fd0a8577b2953762486d4f49eaf6af93db33a7cb5493918291908401908083835b602083106101145780518252601f1990920191602091820191016100f5565b51815160001960209485036101000a01908116901991909116179052604080519490920184900384208452830187905280519283900301935090915050a16040805160208082018590528251808303820181529183019283905281517f8796f5994941c7adc479c2203662e68e91807c3f32bcd38f49798c152576abe79386933393909282918401908083835b602083106101c05780518252601f1990920191602091820191016101a1565b51815160209384036101000a6000190180199092169116179052604080519290940182900382204340838301528451808403830181529285019485905282519096509194508392508401908083835b6020831061022e5780518252601f19909201916020918201910161020f565b51815160001960209485036101000a019081169019919091161790526040805194909201849003842098845273ffffffffffffffffffffffffffffffffffffffff90971696830196909652508085019390935250507fff000000000000000000000000000000000000000000000000000000000000009092166060830152519081900360800190a15050565b6040805185815273ffffffffffffffffffffffffffffffffffffffff8086166020830152808516828401528316606082015290517feac1e15fac392f7eb69fb5accdf5e9892330f41cd8fa89933c2d2c8c68e4d4a79181900360800190a1505050505600a165627a7a723058201694545df6ae767eb391c2c8abaa3fca503513ecdcbac0957c57fdc1ae8d08ea0029",
  "source": "pragma solidity ^0.4.24;\n\ncontract MockHolding {\n    event OfferTask(bytes32 dataSetId, address dcProfile, bytes32 offerId, byte task);\n    event OfferCreated(bytes32 offerId, bytes32 dcNodeId);\n\n    function createOffer(bytes32 dataSetId, bytes32 dcNodeId) public{\n        emit OfferCreated(keccak256(abi.encodePacked(dataSetId)), dcNodeId);\n        emit OfferTask(dataSetId, msg.sender, keccak256(abi.encodePacked(dataSetId)), byte(keccak256(abi.encodePacked(blockhash(block.number)))));\n    }\n  \n    event OfferFinalized(bytes32 offerId, address holder1, address holder2, address holder3);\n    function finalizeOffer(bytes32 offerId, address holder1, address holder2, address holder3) public{\n        emit OfferFinalized(offerId, holder1, holder2, holder3);\n    }\n}\n\n\n\n",
  "sourcePath": "/Users/miloskotlar/ot-node/modules/Blockchain/Polygon/contracts/MockHolding.sol",
  "compiler": {
    "name": "solc",
    "version": "0.4.25+commit.59dbf8f1.Emscripten.clang"
  },
  "schemaVersion": "3.0.0-beta.1",
  "updatedAt": "2021-08-16T09:42:48.503Z"
}