{
  "contractName": "OldHub",
  "abi": [
    {
      "constant": true,
      "inputs": [],
      "name": "readingStorageAddress",
      "outputs": [
        {
          "name": "",
          "type": "address"
        }
      ],
      "payable": false,
      "stateMutability": "view",
      "type": "function"
    },
    {
      "constant": true,
      "inputs": [],
      "name": "readingAddress",
      "outputs": [
        {
          "name": "",
          "type": "address"
        }
      ],
      "payable": false,
      "stateMutability": "view",
      "type": "function"
    },
    {
      "constant": true,
      "inputs": [],
      "name": "profileAddress",
      "outputs": [
        {
          "name": "",
          "type": "address"
        }
      ],
      "payable": false,
      "stateMutability": "view",
      "type": "function"
    },
    {
      "constant": true,
      "inputs": [],
      "name": "owner",
      "outputs": [
        {
          "name": "",
          "type": "address"
        }
      ],
      "payable": false,
      "stateMutability": "view",
      "type": "function"
    },
    {
      "constant": true,
      "inputs": [],
      "name": "tokenAddress",
      "outputs": [
        {
          "name": "",
          "type": "address"
        }
      ],
      "payable": false,
      "stateMutability": "view",
      "type": "function"
    },
    {
      "constant": true,
      "inputs": [],
      "name": "holdingStorageAddress",
      "outputs": [
        {
          "name": "",
          "type": "address"
        }
      ],
      "payable": false,
      "stateMutability": "view",
      "type": "function"
    },
    {
      "constant": true,
      "inputs": [],
      "name": "holdingAddress",
      "outputs": [
        {
          "name": "",
          "type": "address"
        }
      ],
      "payable": false,
      "stateMutability": "view",
      "type": "function"
    },
    {
      "constant": true,
      "inputs": [],
      "name": "approvalAddress",
      "outputs": [
        {
          "name": "",
          "type": "address"
        }
      ],
      "payable": false,
      "stateMutability": "view",
      "type": "function"
    },
    {
      "constant": true,
      "inputs": [],
      "name": "profileStorageAddress",
      "outputs": [
        {
          "name": "",
          "type": "address"
        }
      ],
      "payable": false,
      "stateMutability": "view",
      "type": "function"
    },
    {
      "constant": false,
      "inputs": [
        {
          "name": "newOwner",
          "type": "address"
        }
      ],
      "name": "transferOwnership",
      "outputs": [],
      "payable": false,
      "stateMutability": "nonpayable",
      "type": "function"
    },
    {
      "anonymous": false,
      "inputs": [],
      "name": "ContractsChanged",
      "type": "event"
    },
    {
      "anonymous": false,
      "inputs": [
        {
          "indexed": true,
          "name": "previousOwner",
          "type": "address"
        },
        {
          "indexed": true,
          "name": "newOwner",
          "type": "address"
        }
      ],
      "name": "OwnershipTransferred",
      "type": "event"
    },
    {
      "constant": false,
      "inputs": [
        {
          "name": "newTokenAddress",
          "type": "address"
        }
      ],
      "name": "setTokenAddress",
      "outputs": [],
      "payable": false,
      "stateMutability": "nonpayable",
      "type": "function"
    },
    {
      "constant": false,
      "inputs": [
        {
          "name": "newProfileAddress",
          "type": "address"
        }
      ],
      "name": "setProfileAddress",
      "outputs": [],
      "payable": false,
      "stateMutability": "nonpayable",
      "type": "function"
    },
    {
      "constant": false,
      "inputs": [
        {
          "name": "newHoldingAddress",
          "type": "address"
        }
      ],
      "name": "setHoldingAddress",
      "outputs": [],
      "payable": false,
      "stateMutability": "nonpayable",
      "type": "function"
    },
    {
      "constant": false,
      "inputs": [
        {
          "name": "newReadingAddress",
          "type": "address"
        }
      ],
      "name": "setReadingAddress",
      "outputs": [],
      "payable": false,
      "stateMutability": "nonpayable",
      "type": "function"
    },
    {
      "constant": false,
      "inputs": [
        {
          "name": "newApprovalAddress",
          "type": "address"
        }
      ],
      "name": "setApprovalAddress",
      "outputs": [],
      "payable": false,
      "stateMutability": "nonpayable",
      "type": "function"
    },
    {
      "constant": false,
      "inputs": [
        {
          "name": "newpPofileStorageAddress",
          "type": "address"
        }
      ],
      "name": "setProfileStorageAddress",
      "outputs": [],
      "payable": false,
      "stateMutability": "nonpayable",
      "type": "function"
    },
    {
      "constant": false,
      "inputs": [
        {
          "name": "newHoldingStorageAddress",
          "type": "address"
        }
      ],
      "name": "setHoldingStorageAddress",
      "outputs": [],
      "payable": false,
      "stateMutability": "nonpayable",
      "type": "function"
    },
    {
      "constant": false,
      "inputs": [
        {
          "name": "newReadingStorageAddress",
          "type": "address"
        }
      ],
      "name": "setReadingStorageAddress",
      "outputs": [],
      "payable": false,
      "stateMutability": "nonpayable",
      "type": "function"
    },
    {
      "constant": true,
      "inputs": [
        {
          "name": "sender",
          "type": "address"
        }
      ],
      "name": "isContract",
      "outputs": [
        {
          "name": "",
          "type": "bool"
        }
      ],
      "payable": false,
      "stateMutability": "view",
      "type": "function"
    }
  ],
  "bytecode": "0x608060405260008054600160a060020a03191633179055610adb806100256000396000f3006080604052600436106101065763ffffffff7c010000000000000000000000000000000000000000000000000000000060003504166316279055811461010b57806326a4e8d2146101405780632a0e01d4146101635780633ed7edc7146101945780634ea698f6146101b557806353618a57146101ca57806359e78460146101eb5780635cac90641461020c5780636c167e031461022d5780638da5cb5b1461024257806393bab07f146102575780639d76ea5814610278578063a00814c31461028d578063c026258b146102a2578063d6d42fb5146102c3578063e842426a146102d8578063ec966c16146102ed578063f2fde38b14610302578063f6a3f1fd14610323575b600080fd5b34801561011757600080fd5b5061012c600160a060020a0360043516610344565b604080519115158252519081900360200190f35b34801561014c57600080fd5b50610161600160a060020a036004351661042c565b005b34801561016f57600080fd5b506101786104c5565b60408051600160a060020a039092168252519081900360200190f35b3480156101a057600080fd5b50610161600160a060020a03600435166104d4565b3480156101c157600080fd5b5061017861056d565b3480156101d657600080fd5b50610161600160a060020a036004351661057c565b3480156101f757600080fd5b50610161600160a060020a0360043516610615565b34801561021857600080fd5b50610161600160a060020a03600435166106ae565b34801561023957600080fd5b50610178610747565b34801561024e57600080fd5b50610178610756565b34801561026357600080fd5b50610161600160a060020a0360043516610765565b34801561028457600080fd5b506101786107fe565b34801561029957600080fd5b5061017861080d565b3480156102ae57600080fd5b50610161600160a060020a036004351661081c565b3480156102cf57600080fd5b506101786108b5565b3480156102e457600080fd5b506101786108c4565b3480156102f957600080fd5b506101786108d3565b34801561030e57600080fd5b50610161600160a060020a03600435166108e2565b34801561032f57600080fd5b50610161600160a060020a03600435166109b6565b60008054600160a060020a038381169116148061036e5750600154600160a060020a038381169116145b806103865750600254600160a060020a038381169116145b8061039e5750600354600160a060020a038381169116145b806103b65750600454600160a060020a038381169116145b806103ce5750600554600160a060020a038381169116145b806103e65750600654600160a060020a038381169116145b806103fe5750600754600160a060020a038381169116145b806104165750600854600160a060020a038381169116145b1561042357506001610427565b5060005b919050565b600054600160a060020a03163314610490576040805160e560020a62461bcd02815260206004820152602a6024820152600080516020610a708339815191526044820152600080516020610a50833981519152606482015290519081900360840190fd5b60018054600160a060020a031916600160a060020a038316179055604051600080516020610a9083398151915290600090a150565b600854600160a060020a031681565b600054600160a060020a03163314610538576040805160e560020a62461bcd02815260206004820152602a6024820152600080516020610a708339815191526044820152600080516020610a50833981519152606482015290519081900360840190fd5b60048054600160a060020a031916600160a060020a038316179055604051600080516020610a9083398151915290600090a150565b600454600160a060020a031681565b600054600160a060020a031633146105e0576040805160e560020a62461bcd02815260206004820152602a6024820152600080516020610a708339815191526044820152600080516020610a50833981519152606482015290519081900360840190fd5b60088054600160a060020a031916600160a060020a038316179055604051600080516020610a9083398151915290600090a150565b600054600160a060020a03163314610679576040805160e560020a62461bcd02815260206004820152602a6024820152600080516020610a708339815191526044820152600080516020610a50833981519152606482015290519081900360840190fd5b60028054600160a060020a031916600160a060020a038316179055604051600080516020610a9083398151915290600090a150565b600054600160a060020a03163314610712576040805160e560020a62461bcd02815260206004820152602a6024820152600080516020610a708339815191526044820152600080516020610a50833981519152606482015290519081900360840190fd5b60078054600160a060020a031916600160a060020a038316179055604051600080516020610a9083398151915290600090a150565b600254600160a060020a031681565b600054600160a060020a031681565b600054600160a060020a031633146107c9576040805160e560020a62461bcd02815260206004820152602a6024820152600080516020610a708339815191526044820152600080516020610a50833981519152606482015290519081900360840190fd5b60068054600160a060020a031916600160a060020a038316179055604051600080516020610a9083398151915290600090a150565b600154600160a060020a031681565b600754600160a060020a031681565b600054600160a060020a03163314610880576040805160e560020a62461bcd02815260206004820152602a6024820152600080516020610a708339815191526044820152600080516020610a50833981519152606482015290519081900360840190fd5b60058054600160a060020a031916600160a060020a038316179055604051600080516020610a9083398151915290600090a150565b600354600160a060020a031681565b600554600160a060020a031681565b600654600160a060020a031681565b600054600160a060020a03163314610946576040805160e560020a62461bcd02815260206004820152602a6024820152600080516020610a708339815191526044820152600080516020610a50833981519152606482015290519081900360840190fd5b600160a060020a038116151561095b57600080fd5b60008054604051600160a060020a03808516939216917f8be0079c531659141344cd1fd0a4f28419497f9722a3daafe3b4186f6b6457e091a360008054600160a060020a031916600160a060020a0392909216919091179055565b600054600160a060020a03163314610a1a576040805160e560020a62461bcd02815260206004820152602a6024820152600080516020610a708339815191526044820152600080516020610a50833981519152606482015290519081900360840190fd5b60038054600160a060020a031916600160a060020a038316179055604051600080516020610a9083398151915290600090a1505600732066756e6374696f6e000000000000000000000000000000000000000000004f6e6c7920636f6e7472616374206f776e65722063616e2063616c6c2074686928914ac9a6b0dbfdb15f37605b815f088e8ceac8029c476e7917be779ecb9b1aa165627a7a7230582032af0fb046d81c9a3cb1f36be895afc26a1d70f7f6157f4842106d4b67145c930029",
  "source": "pragma solidity ^0.4.23;\n\n/**\n* @title Ownable\n* @dev The Ownable contract has an owner address, and provides basic authorization control\n* functions, this simplifies the implementation of \"user permissions\".\n*/\ncontract Ownable {\n    address public owner;\n\n    event OwnershipTransferred(address indexed previousOwner, address indexed newOwner);\n\n    /**\n    * @dev The Ownable constructor sets the original `owner` of the contract to the sender\n    * account.\n    */\n    constructor () public {\n        owner = msg.sender;\n    }\n\n    /**\n    * @dev Throws if called by any account other than the owner.\n    */\n    modifier onlyOwner() {\n        require(msg.sender == owner, \"Only contract owner can call this function\");\n        _;\n    }\n\n    /**\n    * @dev Allows the current owner to transfer control of the contract to a newOwner.\n    * @param newOwner The address to transfer ownership to.\n    */\n    function transferOwnership(address newOwner) public onlyOwner {\n        require(newOwner != address(0));\n        emit OwnershipTransferred(owner, newOwner);\n        owner = newOwner;\n    }\n\n}\n\ncontract OldHub is Ownable{\n    address public tokenAddress;\n    address public profileAddress;\n    address public holdingAddress;\n    address public readingAddress;\n    address public approvalAddress;\n\n    address public profileStorageAddress;\n    address public holdingStorageAddress;\n    address public readingStorageAddress;\n\n    event ContractsChanged();\n\n    function setTokenAddress(address newTokenAddress)\n    public onlyOwner {\n        tokenAddress = newTokenAddress;\n        emit ContractsChanged();\n    }\n\n    function setProfileAddress(address newProfileAddress)\n    public onlyOwner {\n        profileAddress = newProfileAddress;\n        emit ContractsChanged();\n    }\n\n    function setHoldingAddress(address newHoldingAddress)\n    public onlyOwner {\n        holdingAddress = newHoldingAddress;\n        emit ContractsChanged();\n    }\n\n    function setReadingAddress(address newReadingAddress)\n    public onlyOwner {\n        readingAddress = newReadingAddress;\n        emit ContractsChanged();\n    }\n\n    function setApprovalAddress(address newApprovalAddress)\n    public onlyOwner {\n        approvalAddress = newApprovalAddress;\n        emit ContractsChanged();\n    }\n\n\n    function setProfileStorageAddress(address newpPofileStorageAddress)\n    public onlyOwner {\n        profileStorageAddress = newpPofileStorageAddress;\n        emit ContractsChanged();\n    }\n\n    function setHoldingStorageAddress(address newHoldingStorageAddress)\n    public onlyOwner {\n        holdingStorageAddress = newHoldingStorageAddress;\n        emit ContractsChanged();\n    }\n\n    function setReadingStorageAddress(address newReadingStorageAddress)\n    public onlyOwner {\n        readingStorageAddress = newReadingStorageAddress;\n        emit ContractsChanged();\n    }\n\n    function isContract(address sender)\n    public view returns (bool) {\n        if(sender == owner ||\n        sender == tokenAddress ||\n        sender == profileAddress ||\n        sender == holdingAddress ||\n        sender == readingAddress ||\n        sender == approvalAddress ||\n        sender == profileStorageAddress ||\n        sender == holdingStorageAddress ||\n        sender == readingStorageAddress) {\n            return true;\n        }\n        return false;\n    }\n}",
  "sourcePath": "/Users/miloskotlar/ot-node/modules/Blockchain/Polygon/contracts/OldHub.sol",
  "compiler": {
    "name": "solc",
    "version": "0.4.25+commit.59dbf8f1.Emscripten.clang"
  },
  "schemaVersion": "3.0.0-beta.1",
  "updatedAt": "2021-08-16T09:42:48.416Z"
}