{
  "contractName": "ProfileStorage",
  "abi": [
    {
      "constant": true,
      "inputs": [],
      "name": "activeNodes",
      "outputs": [
        {
          "name": "",
          "type": "uint256"
        }
      ],
      "payable": false,
      "stateMutability": "view",
      "type": "function",
      "signature": "0x07f19651"
    },
    {
      "constant": true,
      "inputs": [],
      "name": "hub",
      "outputs": [
        {
          "name": "",
          "type": "address"
        }
      ],
      "payable": false,
      "stateMutability": "view",
      "type": "function",
      "signature": "0x365a86fc"
    },
    {
      "constant": true,
      "inputs": [
        {
          "name": "",
          "type": "address"
        }
      ],
      "name": "profile",
      "outputs": [
        {
          "name": "stake",
          "type": "uint256"
        },
        {
          "name": "stakeReserved",
          "type": "uint256"
        },
        {
          "name": "reputation",
          "type": "uint256"
        },
        {
          "name": "withdrawalPending",
          "type": "bool"
        },
        {
          "name": "withdrawalTimestamp",
          "type": "uint256"
        },
        {
          "name": "withdrawalAmount",
          "type": "uint256"
        },
        {
          "name": "nodeId",
          "type": "bytes32"
        }
      ],
      "payable": false,
      "stateMutability": "view",
      "type": "function",
      "signature": "0x9dd9d0fd"
    },
    {
      "inputs": [
        {
          "name": "hubAddress",
          "type": "address"
        }
      ],
      "payable": false,
      "stateMutability": "nonpayable",
      "type": "constructor",
      "signature": "constructor"
    },
    {
      "constant": false,
      "inputs": [
        {
          "name": "newHubAddress",
          "type": "address"
        }
      ],
      "name": "setHubAddress",
      "outputs": [],
      "payable": false,
      "stateMutability": "nonpayable",
      "type": "function",
      "signature": "0xc7eb4522"
    },
    {
      "constant": false,
      "inputs": [
        {
          "name": "newActiveNodes",
          "type": "uint256"
        }
      ],
      "name": "setActiveNodes",
      "outputs": [],
      "payable": false,
      "stateMutability": "nonpayable",
      "type": "function",
      "signature": "0x48fd564b"
    },
    {
      "constant": true,
      "inputs": [
        {
          "name": "identity",
          "type": "address"
        }
      ],
      "name": "getStake",
      "outputs": [
        {
          "name": "",
          "type": "uint256"
        }
      ],
      "payable": false,
      "stateMutability": "view",
      "type": "function",
      "signature": "0x7a766460"
    },
    {
      "constant": true,
      "inputs": [
        {
          "name": "identity",
          "type": "address"
        }
      ],
      "name": "getStakeReserved",
      "outputs": [
        {
          "name": "",
          "type": "uint256"
        }
      ],
      "payable": false,
      "stateMutability": "view",
      "type": "function",
      "signature": "0x5ffe0282"
    },
    {
      "constant": true,
      "inputs": [
        {
          "name": "identity",
          "type": "address"
        }
      ],
      "name": "getReputation",
      "outputs": [
        {
          "name": "",
          "type": "uint256"
        }
      ],
      "payable": false,
      "stateMutability": "view",
      "type": "function",
      "signature": "0x9c89a0e2"
    },
    {
      "constant": true,
      "inputs": [
        {
          "name": "identity",
          "type": "address"
        }
      ],
      "name": "getWithdrawalPending",
      "outputs": [
        {
          "name": "",
          "type": "bool"
        }
      ],
      "payable": false,
      "stateMutability": "view",
      "type": "function",
      "signature": "0x2ba97595"
    },
    {
      "constant": true,
      "inputs": [
        {
          "name": "identity",
          "type": "address"
        }
      ],
      "name": "getWithdrawalTimestamp",
      "outputs": [
        {
          "name": "",
          "type": "uint256"
        }
      ],
      "payable": false,
      "stateMutability": "view",
      "type": "function",
      "signature": "0x9344ea6e"
    },
    {
      "constant": true,
      "inputs": [
        {
          "name": "identity",
          "type": "address"
        }
      ],
      "name": "getWithdrawalAmount",
      "outputs": [
        {
          "name": "",
          "type": "uint256"
        }
      ],
      "payable": false,
      "stateMutability": "view",
      "type": "function",
      "signature": "0x56582bf9"
    },
    {
      "constant": true,
      "inputs": [
        {
          "name": "identity",
          "type": "address"
        }
      ],
      "name": "getNodeId",
      "outputs": [
        {
          "name": "",
          "type": "bytes32"
        }
      ],
      "payable": false,
      "stateMutability": "view",
      "type": "function",
      "signature": "0xb56e4129"
    },
    {
      "constant": false,
      "inputs": [
        {
          "name": "identity",
          "type": "address"
        },
        {
          "name": "stake",
          "type": "uint256"
        }
      ],
      "name": "setStake",
      "outputs": [],
      "payable": false,
      "stateMutability": "nonpayable",
      "type": "function",
      "signature": "0xbd3cd525"
    },
    {
      "constant": false,
      "inputs": [
        {
          "name": "identity",
          "type": "address"
        },
        {
          "name": "stakeReserved",
          "type": "uint256"
        }
      ],
      "name": "setStakeReserved",
      "outputs": [],
      "payable": false,
      "stateMutability": "nonpayable",
      "type": "function",
      "signature": "0x50c3ff57"
    },
    {
      "constant": false,
      "inputs": [
        {
          "name": "identity",
          "type": "address"
        },
        {
          "name": "reputation",
          "type": "uint256"
        }
      ],
      "name": "setReputation",
      "outputs": [],
      "payable": false,
      "stateMutability": "nonpayable",
      "type": "function",
      "signature": "0xb120c16a"
    },
    {
      "constant": false,
      "inputs": [
        {
          "name": "identity",
          "type": "address"
        },
        {
          "name": "withdrawalPending",
          "type": "bool"
        }
      ],
      "name": "setWithdrawalPending",
      "outputs": [],
      "payable": false,
      "stateMutability": "nonpayable",
      "type": "function",
      "signature": "0x9385067f"
    },
    {
      "constant": false,
      "inputs": [
        {
          "name": "identity",
          "type": "address"
        },
        {
          "name": "withdrawalTimestamp",
          "type": "uint256"
        }
      ],
      "name": "setWithdrawalTimestamp",
      "outputs": [],
      "payable": false,
      "stateMutability": "nonpayable",
      "type": "function",
      "signature": "0x67b6d271"
    },
    {
      "constant": false,
      "inputs": [
        {
          "name": "identity",
          "type": "address"
        },
        {
          "name": "withdrawalAmount",
          "type": "uint256"
        }
      ],
      "name": "setWithdrawalAmount",
      "outputs": [],
      "payable": false,
      "stateMutability": "nonpayable",
      "type": "function",
      "signature": "0x82aa2928"
    },
    {
      "constant": false,
      "inputs": [
        {
          "name": "identity",
          "type": "address"
        },
        {
          "name": "nodeId",
          "type": "bytes32"
        }
      ],
      "name": "setNodeId",
      "outputs": [],
      "payable": false,
      "stateMutability": "nonpayable",
      "type": "function",
      "signature": "0x7fdc3676"
    },
    {
      "constant": false,
      "inputs": [
        {
          "name": "payer",
          "type": "address"
        },
        {
          "name": "identity1",
          "type": "address"
        },
        {
          "name": "identity2",
          "type": "address"
        },
        {
          "name": "identity3",
          "type": "address"
        },
        {
          "name": "amount",
          "type": "uint256"
        }
      ],
      "name": "increaseStakesReserved",
      "outputs": [],
      "payable": false,
      "stateMutability": "nonpayable",
      "type": "function",
      "signature": "0xa6748ef5"
    },
    {
      "constant": false,
      "inputs": [
        {
          "name": "wallet",
          "type": "address"
        },
        {
          "name": "amount",
          "type": "uint256"
        }
      ],
      "name": "transferTokens",
      "outputs": [],
      "payable": false,
      "stateMutability": "nonpayable",
      "type": "function",
      "signature": "0xbec3fa17"
    }
  ],
  "bytecode": "0x608060405234801561001057600080fd5b5060405160208061126f833981016040525160008054600160a060020a03909216600160a060020a031990921691909117905560018055611219806100566000396000f30060806040526004361061011c5763ffffffff7c010000000000000000000000000000000000000000000000000000000060003504166307f1965181146101215780632ba9759514610148578063365a86fc1461017d57806348fd564b146101ae57806350c3ff57146101c857806356582bf9146101ec5780635ffe02821461020d57806367b6d2711461022e5780637a766460146102525780637fdc36761461027357806382aa2928146102975780639344ea6e146102bb5780639385067f146102dc5780639c89a0e2146103025780639dd9d0fd14610323578063a6748ef51461037c578063b120c16a146103b2578063b56e4129146103d6578063bd3cd525146103f7578063bec3fa171461041b578063c7eb45221461043f575b600080fd5b34801561012d57600080fd5b50610136610460565b60408051918252519081900360200190f35b34801561015457600080fd5b50610169600160a060020a0360043516610466565b604080519115158252519081900360200190f35b34801561018957600080fd5b50610192610487565b60408051600160a060020a039092168252519081900360200190f35b3480156101ba57600080fd5b506101c6600435610496565b005b3480156101d457600080fd5b506101c6600160a060020a0360043516602435610570565b3480156101f857600080fd5b50610136600160a060020a0360043516610664565b34801561021957600080fd5b50610136600160a060020a0360043516610682565b34801561023a57600080fd5b506101c6600160a060020a03600435166024356106a0565b34801561025e57600080fd5b50610136600160a060020a0360043516610794565b34801561027f57600080fd5b506101c6600160a060020a03600435166024356107af565b3480156102a357600080fd5b506101c6600160a060020a03600435166024356108a3565b3480156102c757600080fd5b50610136600160a060020a0360043516610997565b3480156102e857600080fd5b506101c6600160a060020a036004351660243515156109b5565b34801561030e57600080fd5b50610136600160a060020a0360043516610ab8565b34801561032f57600080fd5b50610344600160a060020a0360043516610ad7565b604080519788526020880196909652868601949094529115156060860152608085015260a084015260c0830152519081900360e00190f35b34801561038857600080fd5b506101c6600160a060020a0360043581169060243581169060443581169060643516608435610b18565b3480156103be57600080fd5b506101c6600160a060020a0360043516602435610c85565b3480156103e257600080fd5b50610136600160a060020a0360043516610d7a565b34801561040357600080fd5b506101c6600160a060020a0360043516602435610d98565b34801561042757600080fd5b506101c6600160a060020a0360043516602435610e89565b34801561044b57600080fd5b506101c6600160a060020a0360043516611094565b60015481565b600160a060020a031660009081526002602052604090206003015460ff1690565b600054600160a060020a031681565b600080546040805160e060020a63162790550281523360048201529051600160a060020a03909216926316279055926024808401936020939083900390910190829087803b1580156104e757600080fd5b505af11580156104fb573d6000803e3d6000fd5b505050506040513d602081101561051157600080fd5b5051151561056b576040805160e560020a62461bcd02815260206004820152602960248201526000805160206111ce83398151915260448201526000805160206111ae833981519152606482015290519081900360840190fd5b600155565b600080546040805160e060020a63162790550281523360048201529051600160a060020a03909216926316279055926024808401936020939083900390910190829087803b1580156105c157600080fd5b505af11580156105d5573d6000803e3d6000fd5b505050506040513d60208110156105eb57600080fd5b50511515610645576040805160e560020a62461bcd02815260206004820152602960248201526000805160206111ce83398151915260448201526000805160206111ae833981519152606482015290519081900360840190fd5b600160a060020a03909116600090815260026020526040902060010155565b600160a060020a031660009081526002602052604090206005015490565b600160a060020a031660009081526002602052604090206001015490565b600080546040805160e060020a63162790550281523360048201529051600160a060020a03909216926316279055926024808401936020939083900390910190829087803b1580156106f157600080fd5b505af1158015610705573d6000803e3d6000fd5b505050506040513d602081101561071b57600080fd5b50511515610775576040805160e560020a62461bcd02815260206004820152602960248201526000805160206111ce83398151915260448201526000805160206111ae833981519152606482015290519081900360840190fd5b600160a060020a03909116600090815260026020526040902060040155565b600160a060020a031660009081526002602052604090205490565b600080546040805160e060020a63162790550281523360048201529051600160a060020a03909216926316279055926024808401936020939083900390910190829087803b15801561080057600080fd5b505af1158015610814573d6000803e3d6000fd5b505050506040513d602081101561082a57600080fd5b50511515610884576040805160e560020a62461bcd02815260206004820152602960248201526000805160206111ce83398151915260448201526000805160206111ae833981519152606482015290519081900360840190fd5b600160a060020a03909116600090815260026020526040902060060155565b600080546040805160e060020a63162790550281523360048201529051600160a060020a03909216926316279055926024808401936020939083900390910190829087803b1580156108f457600080fd5b505af1158015610908573d6000803e3d6000fd5b505050506040513d602081101561091e57600080fd5b50511515610978576040805160e560020a62461bcd02815260206004820152602960248201526000805160206111ce83398151915260448201526000805160206111ae833981519152606482015290519081900360840190fd5b600160a060020a03909116600090815260026020526040902060050155565b600160a060020a031660009081526002602052604090206004015490565b600080546040805160e060020a63162790550281523360048201529051600160a060020a03909216926316279055926024808401936020939083900390910190829087803b158015610a0657600080fd5b505af1158015610a1a573d6000803e3d6000fd5b505050506040513d6020811015610a3057600080fd5b50511515610a8a576040805160e560020a62461bcd02815260206004820152602960248201526000805160206111ce83398151915260448201526000805160206111ae833981519152606482015290519081900360840190fd5b600160a060020a03919091166000908152600260205260409020600301805460ff1916911515919091179055565b600160a060020a03166000908152600260208190526040909120015490565b60026020819052600091825260409091208054600182015492820154600383015460048401546005850154600690950154939594929360ff90921692909187565b600080546040805160e060020a63162790550281523360048201529051600160a060020a03909216926316279055926024808401936020939083900390910190829087803b158015610b6957600080fd5b505af1158015610b7d573d6000803e3d6000fd5b505050506040513d6020811015610b9357600080fd5b50511515610bed576040805160e560020a62461bcd02815260206004820152602960248201526000805160206111ce83398151915260448201526000805160206111ae833981519152606482015290519081900360840190fd5b600160a060020a03841615801590610c0d5750600160a060020a03831615155b8015610c215750600160a060020a03821615155b1515610c2c57600080fd5b600160a060020a0394851660009081526002602052604080822060019081018054600386020190559587168252808220860180548401905593861681528381208501805483019055919094168152200180549091019055565b600080546040805160e060020a63162790550281523360048201529051600160a060020a03909216926316279055926024808401936020939083900390910190829087803b158015610cd657600080fd5b505af1158015610cea573d6000803e3d6000fd5b505050506040513d6020811015610d0057600080fd5b50511515610d5a576040805160e560020a62461bcd02815260206004820152602960248201526000805160206111ce83398151915260448201526000805160206111ae833981519152606482015290519081900360840190fd5b600160a060020a0390911660009081526002602081905260409091200155565b600160a060020a031660009081526002602052604090206006015490565b600080546040805160e060020a63162790550281523360048201529051600160a060020a03909216926316279055926024808401936020939083900390910190829087803b158015610de957600080fd5b505af1158015610dfd573d6000803e3d6000fd5b505050506040513d6020811015610e1357600080fd5b50511515610e6d576040805160e560020a62461bcd02815260206004820152602960248201526000805160206111ce83398151915260448201526000805160206111ae833981519152606482015290519081900360840190fd5b600160a060020a03909116600090815260026020526040902055565b600080546040805160e060020a63162790550281523360048201529051600160a060020a039092169163162790559160248082019260209290919082900301818787803b158015610ed957600080fd5b505af1158015610eed573d6000803e3d6000fd5b505050506040513d6020811015610f0357600080fd5b50511515610f5d576040805160e560020a62461bcd02815260206004820152602960248201526000805160206111ce83398151915260448201526000805160206111ae833981519152606482015290519081900360840190fd5b6000809054906101000a9004600160a060020a0316600160a060020a0316639d76ea586040518163ffffffff167c0100000000000000000000000000000000000000000000000000000000028152600401602060405180830381600087803b158015610fc857600080fd5b505af1158015610fdc573d6000803e3d6000fd5b505050506040513d6020811015610ff257600080fd5b5051604080517fa9059cbb000000000000000000000000000000000000000000000000000000008152600160a060020a0386811660048301526024820186905291519293509083169163a9059cbb916044808201926020929091908290030181600087803b15801561106357600080fd5b505af1158015611077573d6000803e3d6000fd5b505050506040513d602081101561108d57600080fd5b5050505050565b600080546040805160e060020a63162790550281523360048201529051600160a060020a03909216926316279055926024808401936020939083900390910190829087803b1580156110e557600080fd5b505af11580156110f9573d6000803e3d6000fd5b505050506040513d602081101561110f57600080fd5b50511515611169576040805160e560020a62461bcd02815260206004820152602960248201526000805160206111ce83398151915260448201526000805160206111ae833981519152606482015290519081900360840190fd5b600160a060020a038116151561117e57600080fd5b6000805473ffffffffffffffffffffffffffffffffffffffff1916600160a060020a039290921691909117905556006f6e74726163747321000000000000000000000000000000000000000000000046756e6374696f6e2063616e206f6e6c792062652063616c6c65642062792063a165627a7a7230582040e6137d993b910b1bb89fb2df87d7b67f0e38976f735fd349fc320e5b115d550029",
  "source": "pragma solidity ^0.4.24;\n\nimport {ERC20} from './TracToken.sol';\nimport {Hub} from './Hub.sol';\n\ncontract ProfileStorage {\n    Hub public hub;\n    \n    constructor(address hubAddress) public {\n        hub = Hub(hubAddress);\n        activeNodes = 1;\n    }\n\n    function setHubAddress(address newHubAddress)\n    public onlyContracts {\n        require(newHubAddress != address(0));\n        hub = Hub(newHubAddress);\n    }\n    \n    modifier onlyContracts(){\n        require(hub.isContract(msg.sender),\n        \"Function can only be called by contracts!\");\n        _;\n    }\n\n    uint256 public activeNodes;\n\n    function setActiveNodes(uint256 newActiveNodes) \n    public onlyContracts {\n        activeNodes = newActiveNodes;\n    }\n\n    struct ProfileDefinition{\n        uint256 stake;\n        uint256 stakeReserved;\n        uint256 reputation;\n        bool withdrawalPending;\n        uint256 withdrawalTimestamp;\n        uint256 withdrawalAmount;\n        bytes32 nodeId;\n    }\n    mapping(address => ProfileDefinition) public profile;\n\n    function getStake(address identity) \n    public view returns(uint256) {\n        return profile[identity].stake;\n    }\n    function getStakeReserved(address identity) \n    public view returns(uint256) {\n        return profile[identity].stakeReserved;\n    }\n    function getReputation(address identity) \n    public view returns(uint256) {\n        return profile[identity].reputation;\n    }\n    function getWithdrawalPending(address identity) \n    public view returns(bool) {\n        return profile[identity].withdrawalPending;\n    }\n    function getWithdrawalTimestamp(address identity) \n    public view returns(uint256) {\n        return profile[identity].withdrawalTimestamp;\n    }\n    function getWithdrawalAmount(address identity) \n    public view returns(uint256) {\n        return profile[identity].withdrawalAmount;\n    }\n    function getNodeId(address identity) \n    public view returns(bytes32) {\n        return profile[identity].nodeId;\n    }\n    \n    function setStake(address identity, uint256 stake) \n    public onlyContracts {\n        profile[identity].stake = stake;\n    }\n    function setStakeReserved(address identity, uint256 stakeReserved) \n    public onlyContracts {\n        profile[identity].stakeReserved = stakeReserved;\n    }\n    function setReputation(address identity, uint256 reputation) \n    public onlyContracts {\n        profile[identity].reputation = reputation;\n    }\n    function setWithdrawalPending(address identity, bool withdrawalPending) \n    public onlyContracts {\n        profile[identity].withdrawalPending = withdrawalPending;\n    }\n    function setWithdrawalTimestamp(address identity, uint256 withdrawalTimestamp) \n    public onlyContracts {\n        profile[identity].withdrawalTimestamp = withdrawalTimestamp;\n    }\n    function setWithdrawalAmount(address identity, uint256 withdrawalAmount) \n    public onlyContracts {\n        profile[identity].withdrawalAmount = withdrawalAmount;\n    }\n    function setNodeId(address identity, bytes32 nodeId)\n    public onlyContracts {\n        profile[identity].nodeId = nodeId;\n    }\n\n    function increaseStakesReserved(\n        address payer,\n        address identity1,\n        address identity2,\n        address identity3,\n        uint256 amount)\n    public onlyContracts {\n        require(identity1!=address(0) && identity2!=address(0) && identity3!=address(0));\n        profile[payer].stakeReserved += (amount * 3);\n        profile[identity1].stakeReserved += amount;\n        profile[identity2].stakeReserved += amount;\n        profile[identity3].stakeReserved += amount;\n    }\n\n    function transferTokens(address wallet, uint256 amount)\n    public onlyContracts {\n        ERC20 token = ERC20(hub.tokenAddress());\n        token.transfer(wallet, amount);\n    }\n}\n",
  "sourcePath": "/Users/miloskotlar/ot-node/modules/Blockchain/Polygon/contracts/ProfileStorage.sol",
  "compiler": {
    "name": "solc",
    "version": "0.4.25+commit.59dbf8f1.Emscripten.clang"
  },
  "schemaVersion": "3.0.0-beta.1",
  "updatedAt": "2021-08-16T09:42:48.496Z"
}