{
  "contractName": "Profile",
  "abi": [
    {
      "constant": true,
      "inputs": [],
      "name": "hub",
      "outputs": [
        {
          "name": "",
          "type": "address"
        }
      ],
      "payable": false,
      "stateMutability": "view",
      "type": "function",
      "signature": "0x365a86fc"
    },
    {
      "constant": true,
      "inputs": [],
      "name": "withdrawalTime",
      "outputs": [
        {
          "name": "",
          "type": "uint256"
        }
      ],
      "payable": false,
      "stateMutability": "view",
      "type": "function",
      "signature": "0x389eb9f9"
    },
    {
      "constant": true,
      "inputs": [],
      "name": "version",
      "outputs": [
        {
          "name": "",
          "type": "uint256"
        }
      ],
      "payable": false,
      "stateMutability": "view",
      "type": "function",
      "signature": "0x54fd4d50"
    },
    {
      "constant": true,
      "inputs": [],
      "name": "minimalStake",
      "outputs": [
        {
          "name": "",
          "type": "uint256"
        }
      ],
      "payable": false,
      "stateMutability": "view",
      "type": "function",
      "signature": "0x9ec41a2d"
    },
    {
      "inputs": [
        {
          "name": "hubAddress",
          "type": "address"
        }
      ],
      "payable": false,
      "stateMutability": "nonpayable",
      "type": "constructor",
      "signature": "constructor"
    },
    {
      "anonymous": false,
      "inputs": [
        {
          "indexed": false,
          "name": "profile",
          "type": "address"
        },
        {
          "indexed": false,
          "name": "initialBalance",
          "type": "uint256"
        }
      ],
      "name": "ProfileCreated",
      "type": "event",
      "signature": "0xcb939889322fed25104a5d8945bde5162563412a1fd718946cdcacb03088ea08"
    },
    {
      "anonymous": false,
      "inputs": [
        {
          "indexed": false,
          "name": "profile",
          "type": "address"
        },
        {
          "indexed": false,
          "name": "newIdentity",
          "type": "address"
        }
      ],
      "name": "IdentityCreated",
      "type": "event",
      "signature": "0x45afe31e3a48a54e27da1d1f2ec6c6e272ce5838616e0d61071b223bceb5c690"
    },
    {
      "anonymous": false,
      "inputs": [
        {
          "indexed": false,
          "name": "nodeId",
          "type": "bytes20"
        },
        {
          "indexed": false,
          "name": "oldIdentity",
          "type": "address"
        },
        {
          "indexed": false,
          "name": "newIdentity",
          "type": "address"
        }
      ],
      "name": "IdentityTransferred",
      "type": "event",
      "signature": "0x13e9f84e9beb70c3cf04fa0c394e1a3559ad94dae6414adbdadbfac11097719b"
    },
    {
      "anonymous": false,
      "inputs": [
        {
          "indexed": false,
          "name": "profile",
          "type": "address"
        },
        {
          "indexed": false,
          "name": "amount",
          "type": "uint256"
        }
      ],
      "name": "TokenDeposit",
      "type": "event",
      "signature": "0x20b3fc91390f6ceba342f697a9490734680fd3556633f40efa146f1dbe79d05f"
    },
    {
      "anonymous": false,
      "inputs": [
        {
          "indexed": false,
          "name": "profile",
          "type": "address"
        },
        {
          "indexed": false,
          "name": "amountDeposited",
          "type": "uint256"
        },
        {
          "indexed": false,
          "name": "newBalance",
          "type": "uint256"
        }
      ],
      "name": "TokensDeposited",
      "type": "event",
      "signature": "0xfdfdcf596161b0e81e3161597d46888dcc88bd83b22dcfb341c76377ca3bbc9e"
    },
    {
      "anonymous": false,
      "inputs": [
        {
          "indexed": false,
          "name": "profile",
          "type": "address"
        },
        {
          "indexed": false,
          "name": "amountReserved",
          "type": "uint256"
        }
      ],
      "name": "TokensReserved",
      "type": "event",
      "signature": "0x115f86274303a1ad09d313ad400df566440ba65c9967fccf4f0bd2edbd09a3a0"
    },
    {
      "anonymous": false,
      "inputs": [
        {
          "indexed": false,
          "name": "profile",
          "type": "address"
        },
        {
          "indexed": false,
          "name": "amount",
          "type": "uint256"
        },
        {
          "indexed": false,
          "name": "withdrawalDelayInSeconds",
          "type": "uint256"
        }
      ],
      "name": "WithdrawalInitiated",
      "type": "event",
      "signature": "0x31f69201fab7912e3ec9850e3ab705964bf46d9d4276bdcbb6d05e965e5f5401"
    },
    {
      "anonymous": false,
      "inputs": [
        {
          "indexed": false,
          "name": "profile",
          "type": "address"
        }
      ],
      "name": "TokenWithdrawalCancelled",
      "type": "event",
      "signature": "0xe620a5cd1939f914498389c738a277970e529ecdc3b0418781cb8ae7e4e85e4b"
    },
    {
      "anonymous": false,
      "inputs": [
        {
          "indexed": false,
          "name": "profile",
          "type": "address"
        },
        {
          "indexed": false,
          "name": "amountWithdrawn",
          "type": "uint256"
        },
        {
          "indexed": false,
          "name": "newBalance",
          "type": "uint256"
        }
      ],
      "name": "TokensWithdrawn",
      "type": "event",
      "signature": "0xffe903c0abe6b2dbb2f3474ef43d7a3c1fca49e5a774453423ca8e1952aabffa"
    },
    {
      "anonymous": false,
      "inputs": [
        {
          "indexed": false,
          "name": "profile",
          "type": "address"
        },
        {
          "indexed": false,
          "name": "amount",
          "type": "uint256"
        }
      ],
      "name": "TokensReleased",
      "type": "event",
      "signature": "0xc7798891864187665ac6dd119286e44ec13f014527aeeb2b8eb3fd413df93179"
    },
    {
      "anonymous": false,
      "inputs": [
        {
          "indexed": false,
          "name": "sender",
          "type": "address"
        },
        {
          "indexed": false,
          "name": "receiver",
          "type": "address"
        },
        {
          "indexed": false,
          "name": "amount",
          "type": "uint256"
        }
      ],
      "name": "TokensTransferred",
      "type": "event",
      "signature": "0x1b89874203ff7f0bba87c969ada3f32fda22ed38a6706d35199d21280c7811b1"
    },
    {
      "constant": false,
      "inputs": [
        {
          "name": "managementWallet",
          "type": "address"
        },
        {
          "name": "profileNodeId",
          "type": "bytes32"
        },
        {
          "name": "initialBalance",
          "type": "uint256"
        },
        {
          "name": "senderHas725",
          "type": "bool"
        },
        {
          "name": "identity",
          "type": "address"
        }
      ],
      "name": "createProfile",
      "outputs": [],
      "payable": false,
      "stateMutability": "nonpayable",
      "type": "function",
      "signature": "0x793b1203"
    },
    {
      "constant": false,
      "inputs": [
        {
          "name": "oldIdentity",
          "type": "address"
        },
        {
          "name": "managementWallet",
          "type": "address"
        }
      ],
      "name": "transferProfile",
      "outputs": [
        {
          "name": "",
          "type": "address"
        }
      ],
      "payable": false,
      "stateMutability": "nonpayable",
      "type": "function",
      "signature": "0x4e7e5f98"
    },
    {
      "constant": false,
      "inputs": [
        {
          "name": "identity",
          "type": "address"
        },
        {
          "name": "amount",
          "type": "uint256"
        }
      ],
      "name": "depositTokens",
      "outputs": [],
      "payable": false,
      "stateMutability": "nonpayable",
      "type": "function",
      "signature": "0x66168bd7"
    },
    {
      "constant": false,
      "inputs": [
        {
          "name": "identity",
          "type": "address"
        },
        {
          "name": "amount",
          "type": "uint256"
        }
      ],
      "name": "startTokenWithdrawal",
      "outputs": [],
      "payable": false,
      "stateMutability": "nonpayable",
      "type": "function",
      "signature": "0x07ab5e84"
    },
    {
      "constant": false,
      "inputs": [
        {
          "name": "identity",
          "type": "address"
        }
      ],
      "name": "withdrawTokens",
      "outputs": [],
      "payable": false,
      "stateMutability": "nonpayable",
      "type": "function",
      "signature": "0x49df728c"
    },
    {
      "constant": false,
      "inputs": [
        {
          "name": "identity",
          "type": "address"
        },
        {
          "name": "newNodeId",
          "type": "bytes32"
        }
      ],
      "name": "setNodeId",
      "outputs": [],
      "payable": false,
      "stateMutability": "nonpayable",
      "type": "function",
      "signature": "0x7fdc3676"
    },
    {
      "constant": false,
      "inputs": [
        {
          "name": "profile",
          "type": "address"
        },
        {
          "name": "amount",
          "type": "uint256"
        }
      ],
      "name": "releaseTokens",
      "outputs": [],
      "payable": false,
      "stateMutability": "nonpayable",
      "type": "function",
      "signature": "0xf40d71f1"
    },
    {
      "constant": false,
      "inputs": [
        {
          "name": "sender",
          "type": "address"
        },
        {
          "name": "receiver",
          "type": "address"
        },
        {
          "name": "amount",
          "type": "uint256"
        }
      ],
      "name": "transferTokens",
      "outputs": [],
      "payable": false,
      "stateMutability": "nonpayable",
      "type": "function",
      "signature": "0xa64b6e5f"
    },
    {
      "constant": false,
      "inputs": [
        {
          "name": "newMinimalStake",
          "type": "uint256"
        }
      ],
      "name": "setMinimalStake",
      "outputs": [],
      "payable": false,
      "stateMutability": "nonpayable",
      "type": "function",
      "signature": "0x3d6ec65e"
    },
    {
      "constant": false,
      "inputs": [
        {
          "name": "newWithdrawalTime",
          "type": "uint256"
        }
      ],
      "name": "setWithdrawalTime",
      "outputs": [],
      "payable": false,
      "stateMutability": "nonpayable",
      "type": "function",
      "signature": "0xb6af3643"
    }
  ],
  "bytecode": "0x6080604052606560015568a2a15d09519be0000060025561012c60035534801561002857600080fd5b5060405160208062005cb78339810160405251600160a060020a038116151561005057600080fd5b60008054600160a060020a03909216600160a060020a0319909216919091179055615c3680620000816000396000f300608060405260043610620000c55763ffffffff60e060020a60003504166307ab5e848114620000ca578063365a86fc14620000f3578063389eb9f914620001275780633d6ec65e146200015157806349df728c146200016c5780634e7e5f98146200019057806354fd4d5014620001ba57806366168bd714620001d2578063793b120314620001f95780637fdc367614620002315780639ec41a2d1462000258578063a64b6e5f1462000270578063b6af3643146200029d578063f40d71f114620002b8575b600080fd5b348015620000d757600080fd5b50620000f1600160a060020a0360043516602435620002df565b005b3480156200010057600080fd5b506200010b620009d0565b60408051600160a060020a039092168252519081900360200190f35b3480156200013457600080fd5b506200013f620009df565b60408051918252519081900360200190f35b3480156200015e57600080fd5b50620000f1600435620009e5565b3480156200017957600080fd5b50620000f1600160a060020a036004351662000aff565b3480156200019d57600080fd5b506200010b600160a060020a036004358116906024351662001360565b348015620001c757600080fd5b506200013f62001e2d565b348015620001df57600080fd5b50620000f1600160a060020a036004351660243562001e33565b3480156200020657600080fd5b50620000f1600160a060020a036004358116906024359060443590606435151590608435166200259d565b3480156200023e57600080fd5b50620000f1600160a060020a036004351660243562003374565b3480156200026557600080fd5b506200013f62003671565b3480156200027d57600080fd5b50620000f1600160a060020a036004358116906024351660443562003677565b348015620002aa57600080fd5b50620000f160043562003d63565b348015620002c557600080fd5b50620000f1600160a060020a036004351660243562003e79565b60008083600160a060020a031663d202158d336040516020018082600160a060020a0316600160a060020a03166c010000000000000000000000000281526014019150506040516020818303038152906040526040518082805190602001908083835b60208310620003635780518252601f19909201916020918201910162000342565b51815160209384036101000a60001901801990921691161790526040805192909401829003822063ffffffff881660e060020a028352600483015260016024830152925160448083019650939450929083900301905081600087803b158015620003cc57600080fd5b505af1158015620003e1573d6000803e3d6000fd5b505050506040513d6020811015620003f857600080fd5b5051151562000455576040805160e560020a62461bcd028152602060048201526038602482015260008051602062005bab833981519152604482015260008051602062005bcb833981519152606482015290519081900360840190fd5b600080546040805160e260020a630110ceef028152602060048201819052600e602483015260008051602062005beb83398151915260448301529151600160a060020a03909316936304433bbc93606480840194939192918390030190829087803b158015620004c457600080fd5b505af1158015620004d9573d6000803e3d6000fd5b505050506040513d6020811015620004f057600080fd5b5051604080517f2ba97595000000000000000000000000000000000000000000000000000000008152600160a060020a038781166004830152915192945090841691632ba97595916024808201926020929091908290030181600087803b1580156200055b57600080fd5b505af115801562000570573d6000803e3d6000fd5b505050506040513d60208110156200058757600080fd5b50511562000604576040805160e560020a62461bcd028152602060048201526024808201527f576974687264726177616c2070726f6365737320616c72656164792070656e6460448201527f696e672100000000000000000000000000000000000000000000000000000000606482015290519081900360840190fd5b6200071d82600160a060020a0316635ffe0282866040518263ffffffff1660e060020a0281526004018082600160a060020a0316600160a060020a03168152602001915050602060405180830381600087803b1580156200066457600080fd5b505af115801562000679573d6000803e3d6000fd5b505050506040513d60208110156200069057600080fd5b50516040805160e560020a6303d3b323028152600160a060020a038881166004830152915191861691637a766460916024808201926020929091908290030181600087803b158015620006e257600080fd5b505af1158015620006f7573d6000803e3d6000fd5b505050506040513d60208110156200070e57600080fd5b50519063ffffffff6200429a16565b604080517f9385067f000000000000000000000000000000000000000000000000000000008152600160a060020a03878116600483015260016024830152915192935090841691639385067f9160448082019260009290919082900301818387803b1580156200078c57600080fd5b505af1158015620007a1573d6000803e3d6000fd5b5050505081600160a060020a03166367b6d2718560035442016040518363ffffffff1660e060020a0281526004018083600160a060020a0316600160a060020a0316815260200182815260200192505050600060405180830381600087803b1580156200080d57600080fd5b505af115801562000822573d6000803e3d6000fd5b5050508382109050620008ff5781600160a060020a03166382aa292885856040518363ffffffff1660e060020a0281526004018083600160a060020a0316600160a060020a0316815260200182815260200192505050600060405180830381600087803b1580156200089357600080fd5b505af1158015620008a8573d6000803e3d6000fd5b505060035460408051600160a060020a03891681526020810188905280820192909252517f31f69201fab7912e3ec9850e3ab705964bf46d9d4276bdcbb6d05e965e5f54019350908190036060019150a1620009ca565b81600160a060020a03166382aa292885836040518363ffffffff1660e060020a0281526004018083600160a060020a0316600160a060020a0316815260200182815260200192505050600060405180830381600087803b1580156200096357600080fd5b505af115801562000978573d6000803e3d6000fd5b505060035460408051600160a060020a03891681526020810186905280820192909252517f31f69201fab7912e3ec9850e3ab705964bf46d9d4276bdcbb6d05e965e5f54019350908190036060019150a15b50505050565b600054600160a060020a031681565b60035481565b6000809054906101000a9004600160a060020a0316600160a060020a0316638da5cb5b6040518163ffffffff1660e060020a028152600401602060405180830381600087803b15801562000a3857600080fd5b505af115801562000a4d573d6000803e3d6000fd5b505050506040513d602081101562000a6457600080fd5b5051600160a060020a0316331462000aec576040805160e560020a62461bcd02815260206004820152602960248201527f46756e6374696f6e2063616e206f6e6c792062652063616c6c6564206279206860448201527f7562206f776e6572210000000000000000000000000000000000000000000000606482015290519081900360840190fd5b600254811462000afc5760028190555b50565b600081600160a060020a031663d202158d336040516020018082600160a060020a0316600160a060020a03166c010000000000000000000000000281526014019150506040516020818303038152906040526040518082805190602001908083835b6020831062000b825780518252601f19909201916020918201910162000b61565b51815160209384036101000a60001901801990921691161790526040805192909401829003822063ffffffff881660e060020a028352600483015260016024830152925160448083019650939450929083900301905081600087803b15801562000beb57600080fd5b505af115801562000c00573d6000803e3d6000fd5b505050506040513d602081101562000c1757600080fd5b5051151562000c74576040805160e560020a62461bcd028152602060048201526038602482015260008051602062005bab833981519152604482015260008051602062005bcb833981519152606482015290519081900360840190fd5b600080546040805160e260020a630110ceef028152602060048201819052600e602483015260008051602062005beb83398151915260448301529151600160a060020a03909316936304433bbc93606480840194939192918390030190829087803b15801562000ce357600080fd5b505af115801562000cf8573d6000803e3d6000fd5b505050506040513d602081101562000d0f57600080fd5b5051604080517f2ba97595000000000000000000000000000000000000000000000000000000008152600160a060020a038581166004830152915192935090831691632ba97595916024808201926020929091908290030181600087803b15801562000d7a57600080fd5b505af115801562000d8f573d6000803e3d6000fd5b505050506040513d602081101562000da657600080fd5b5051151560011462000e28576040805160e560020a62461bcd02815260206004820152603860248201527f43616e6e6f7420776974686472617720746f6b656e73206265666f726520737460448201527f617274696e6720746f6b656e207769746864726177616c210000000000000000606482015290519081900360840190fd5b4281600160a060020a0316639344ea6e846040518263ffffffff1660e060020a0281526004018082600160a060020a0316600160a060020a03168152602001915050602060405180830381600087803b15801562000e8557600080fd5b505af115801562000e9a573d6000803e3d6000fd5b505050506040513d602081101562000eb157600080fd5b50511062000f2f576040805160e560020a62461bcd02815260206004820152603360248201527f43616e6e6f7420776974686472617720746f6b656e73206265666f726520776960448201527f746864726177616c2074696d657374616d702100000000000000000000000000606482015290519081900360840190fd5b80600160a060020a031663bec3fa173383600160a060020a03166356582bf9866040518263ffffffff1660e060020a0281526004018082600160a060020a0316600160a060020a03168152602001915050602060405180830381600087803b15801562000f9b57600080fd5b505af115801562000fb0573d6000803e3d6000fd5b505050506040513d602081101562000fc757600080fd5b50516040805160e060020a63ffffffff8616028152600160a060020a039093166004840152602483019190915251604480830192600092919082900301818387803b1580156200101657600080fd5b505af11580156200102b573d6000803e3d6000fd5b5050505080600160a060020a031663bd3cd525836200111d84600160a060020a03166356582bf9876040518263ffffffff1660e060020a0281526004018082600160a060020a0316600160a060020a03168152602001915050602060405180830381600087803b1580156200109f57600080fd5b505af1158015620010b4573d6000803e3d6000fd5b505050506040513d6020811015620010cb57600080fd5b50516040805160e560020a6303d3b323028152600160a060020a038981166004830152915191881691637a766460916024808201926020929091908290030181600087803b158015620006e257600080fd5b6040518363ffffffff1660e060020a0281526004018083600160a060020a0316600160a060020a0316815260200182815260200192505050600060405180830381600087803b1580156200117057600080fd5b505af115801562001185573d6000803e3d6000fd5b5050604080517f9385067f000000000000000000000000000000000000000000000000000000008152600160a060020a03868116600483015260006024830181905292519086169450639385067f93506044808301939282900301818387803b158015620011f257600080fd5b505af115801562001207573d6000803e3d6000fd5b505050507fffe903c0abe6b2dbb2f3474ef43d7a3c1fca49e5a774453423ca8e1952aabffa8282600160a060020a03166356582bf9856040518263ffffffff1660e060020a0281526004018082600160a060020a0316600160a060020a03168152602001915050602060405180830381600087803b1580156200128957600080fd5b505af11580156200129e573d6000803e3d6000fd5b505050506040513d6020811015620012b557600080fd5b50516040805160e560020a6303d3b323028152600160a060020a038781166004830152915191861691637a766460916024808201926020929091908290030181600087803b1580156200130757600080fd5b505af11580156200131c573d6000803e3d6000fd5b505050506040513d60208110156200133357600080fd5b505160408051600160a060020a039094168452602084019290925282820152519081900360600190a15050565b600080600084600160a060020a031663d202158d336040516020018082600160a060020a0316600160a060020a03166c010000000000000000000000000281526014019150506040516020818303038152906040526040518082805190602001908083835b60208310620013e65780518252601f199092019160209182019101620013c5565b51815160209384036101000a60001901801990921691161790526040805192909401829003822063ffffffff881660e060020a028352600483015260016024830152925160448083019650939450929083900301905081600087803b1580156200144f57600080fd5b505af115801562001464573d6000803e3d6000fd5b505050506040513d60208110156200147b57600080fd5b50511515620014d8576040805160e560020a62461bcd028152602060048201526038602482015260008051602062005bab833981519152604482015260008051602062005bcb833981519152606482015290519081900360840190fd5b600160a060020a0384161515620014ee57600080fd5b3384620014fa620042c4565b600160a060020a03928316815291166020820152604080519182900301906000f0801580156200152e573d6000803e3d6000fd5b5060408051338152600160a060020a038316602082015281519294507f45afe31e3a48a54e27da1d1f2ec6c6e272ce5838616e0d61071b223bceb5c690929081900390910190a1600080546040805160e260020a630110ceef028152602060048201819052600e602483015260008051602062005beb83398151915260448301529151600160a060020a03909316936304433bbc93606480840194939192918390030190829087803b158015620015e457600080fd5b505af1158015620015f9573d6000803e3d6000fd5b505050506040513d60208110156200161057600080fd5b50516040805160e560020a6303d3b323028152600160a060020a03888116600483015291519293509083169163bd3cd5259185918491637a7664609160248083019260209291908290030181600087803b1580156200166e57600080fd5b505af115801562001683573d6000803e3d6000fd5b505050506040513d60208110156200169a57600080fd5b50516040805160e060020a63ffffffff8616028152600160a060020a039093166004840152602483019190915251604480830192600092919082900301818387803b158015620016e957600080fd5b505af1158015620016fe573d6000803e3d6000fd5b5050505080600160a060020a03166350c3ff578383600160a060020a0316635ffe0282896040518263ffffffff1660e060020a0281526004018082600160a060020a0316600160a060020a03168152602001915050602060405180830381600087803b1580156200176e57600080fd5b505af115801562001783573d6000803e3d6000fd5b505050506040513d60208110156200179a57600080fd5b50516040805160e060020a63ffffffff8616028152600160a060020a039093166004840152602483019190915251604480830192600092919082900301818387803b158015620017e957600080fd5b505af1158015620017fe573d6000803e3d6000fd5b5050505080600160a060020a0316637fdc36768383600160a060020a031663b56e4129896040518263ffffffff1660e060020a0281526004018082600160a060020a0316600160a060020a03168152602001915050602060405180830381600087803b1580156200186e57600080fd5b505af115801562001883573d6000803e3d6000fd5b505050506040513d60208110156200189a57600080fd5b50516040805160e060020a63ffffffff8616028152600160a060020a039093166004840152602483019190915251604480830192600092919082900301818387803b158015620018e957600080fd5b505af1158015620018fe573d6000803e3d6000fd5b5050505080600160a060020a031663b120c16a8383600160a060020a0316639c89a0e2896040518263ffffffff1660e060020a0281526004018082600160a060020a0316600160a060020a03168152602001915050602060405180830381600087803b1580156200196e57600080fd5b505af115801562001983573d6000803e3d6000fd5b505050506040513d60208110156200199a57600080fd5b50516040805160e060020a63ffffffff8616028152600160a060020a039093166004840152602483019190915251604480830192600092919082900301818387803b158015620019e957600080fd5b505af1158015620019fe573d6000803e3d6000fd5b5050505080600160a060020a0316632ba97595866040518263ffffffff1660e060020a0281526004018082600160a060020a0316600160a060020a03168152602001915050602060405180830381600087803b15801562001a5e57600080fd5b505af115801562001a73573d6000803e3d6000fd5b505050506040513d602081101562001a8a57600080fd5b50511562001b515760408051600160a060020a038716815290517fe620a5cd1939f914498389c738a277970e529ecdc3b0418781cb8ae7e4e85e4b9181900360200190a1604080517f9385067f000000000000000000000000000000000000000000000000000000008152600160a060020a038781166004830152600060248301819052925190841692639385067f926044808201939182900301818387803b15801562001b3757600080fd5b505af115801562001b4c573d6000803e3d6000fd5b505050505b604080517fbd3cd525000000000000000000000000000000000000000000000000000000008152600160a060020a03878116600483015260006024830181905292519084169263bd3cd525926044808201939182900301818387803b15801562001bba57600080fd5b505af115801562001bcf573d6000803e3d6000fd5b5050604080517f50c3ff57000000000000000000000000000000000000000000000000000000008152600160a060020a038981166004830152600060248301819052925190861694506350c3ff5793506044808301939282900301818387803b15801562001c3c57600080fd5b505af115801562001c51573d6000803e3d6000fd5b50506040805160e160020a633fee1b3b028152600160a060020a03898116600483015260006024830181905292519086169450637fdc367693506044808301939282900301818387803b15801562001ca857600080fd5b505af115801562001cbd573d6000803e3d6000fd5b5050604080517fb120c16a000000000000000000000000000000000000000000000000000000008152600160a060020a0389811660048301526000602483018190529251908616945063b120c16a93506044808301939282900301818387803b15801562001d2a57600080fd5b505af115801562001d3f573d6000803e3d6000fd5b505050507f13e9f84e9beb70c3cf04fa0c394e1a3559ad94dae6414adbdadbfac11097719b81600160a060020a031663b56e4129846040518263ffffffff1660e060020a0281526004018082600160a060020a0316600160a060020a03168152602001915050602060405180830381600087803b15801562001dc057600080fd5b505af115801562001dd5573d6000803e3d6000fd5b505050506040513d602081101562001dec57600080fd5b5051604080516bffffffffffffffffffffffff199092168252600160a060020a038089166020840152851682820152519081900360600190a1509392505050565b60015481565b60008083600160a060020a031663d202158d336040516020018082600160a060020a0316600160a060020a03166c010000000000000000000000000281526014019150506040516020818303038152906040526040518082805190602001908083835b6020831062001eb75780518252601f19909201916020918201910162001e96565b51815160209384036101000a60001901801990921691161790526040805192909401829003822063ffffffff881660e060020a028352600483015260016024830152925160448083019650939450929083900301905081600087803b15801562001f2057600080fd5b505af115801562001f35573d6000803e3d6000fd5b505050506040513d602081101562001f4c57600080fd5b5051151562001fa9576040805160e560020a62461bcd028152602060048201526038602482015260008051602062005bab833981519152604482015260008051602062005bcb833981519152606482015290519081900360840190fd5b600080546040805160e260020a630110ceef028152602060048201819052600e602483015260008051602062005beb83398151915260448301529151600160a060020a03909316936304433bbc93606480840194939192918390030190829087803b1580156200201857600080fd5b505af11580156200202d573d6000803e3d6000fd5b505050506040513d60208110156200204457600080fd5b5051600080546040805160e260020a630110ceef028152602060048201819052600560248301527f546f6b656e00000000000000000000000000000000000000000000000000000060448301529151949650600160a060020a03909216936304433bbc936064808501948390030190829087803b158015620020c557600080fd5b505af1158015620020da573d6000803e3d6000fd5b505050506040513d6020811015620020f157600080fd5b5051604080517fdd62ed3e00000000000000000000000000000000000000000000000000000000815233600482015230602482015290519192508491600160a060020a0384169163dd62ed3e9160448083019260209291908290030181600087803b1580156200216057600080fd5b505af115801562002175573d6000803e3d6000fd5b505050506040513d60208110156200218c57600080fd5b505110156200220b576040805160e560020a62461bcd02815260206004820152603e60248201527f53656e64657220616c6c6f77616e6365206d75737420626520657175616c207460448201527f6f206f7220686967686572207468616e2063686f73656e20616d6f756e740000606482015290519081900360840190fd5b604080517f70a0823100000000000000000000000000000000000000000000000000000000815233600482015290518491600160a060020a038416916370a08231916024808201926020929091908290030181600087803b1580156200227057600080fd5b505af115801562002285573d6000803e3d6000fd5b505050506040513d60208110156200229c57600080fd5b505110156200231b576040805160e560020a62461bcd02815260206004820152603d60248201527f53656e6465722062616c616e6365206d75737420626520657175616c20746f2060448201527f6f7220686967686572207468616e2063686f73656e20616d6f756e7421000000606482015290519081900360840190fd5b604080517f23b872dd000000000000000000000000000000000000000000000000000000008152336004820152600160a060020a038481166024830152604482018690529151918316916323b872dd916064808201926020929091908290030181600087803b1580156200238e57600080fd5b505af1158015620023a3573d6000803e3d6000fd5b505050506040513d6020811015620023ba57600080fd5b50506040805160e560020a6303d3b323028152600160a060020a03868116600483015291519184169163bd3cd525918791620024579188918691637a7664609160248083019260209291908290030181600087803b1580156200241c57600080fd5b505af115801562002431573d6000803e3d6000fd5b505050506040513d60208110156200244857600080fd5b50519063ffffffff620042ad16565b6040518363ffffffff1660e060020a0281526004018083600160a060020a0316600160a060020a0316815260200182815260200192505050600060405180830381600087803b158015620024aa57600080fd5b505af1158015620024bf573d6000803e3d6000fd5b505050507ffdfdcf596161b0e81e3161597d46888dcc88bd83b22dcfb341c76377ca3bbc9e848484600160a060020a0316637a766460886040518263ffffffff1660e060020a0281526004018082600160a060020a0316600160a060020a03168152602001915050602060405180830381600087803b1580156200254257600080fd5b505af115801562002557573d6000803e3d6000fd5b505050506040513d60208110156200256e57600080fd5b505160408051600160a060020a039094168452602084019290925282820152519081900360600190a150505050565b60008080600160a060020a0388161515620025b757600080fd5b6000809054906101000a9004600160a060020a0316600160a060020a0316639d76ea586040518163ffffffff1660e060020a028152600401602060405180830381600087803b1580156200260a57600080fd5b505af11580156200261f573d6000803e3d6000fd5b505050506040513d60208110156200263657600080fd5b5051604080517fdd62ed3e00000000000000000000000000000000000000000000000000000000815233600482015230602482015290519194508791600160a060020a0386169163dd62ed3e9160448083019260209291908290030181600087803b158015620026a557600080fd5b505af1158015620026ba573d6000803e3d6000fd5b505050506040513d6020811015620026d157600080fd5b5051101562002750576040805160e560020a62461bcd02815260206004820152602481018290527f53656e64657220616c6c6f77616e6365206d75737420626520657175616c207460448201527f6f206f7220686967686572207468616e20696e697469616c2062616c616e6365606482015290519081900360840190fd5b604080517f70a0823100000000000000000000000000000000000000000000000000000000815233600482015290518791600160a060020a038616916370a08231916024808201926020929091908290030181600087803b158015620027b557600080fd5b505af1158015620027ca573d6000803e3d6000fd5b505050506040513d6020811015620027e157600080fd5b5051101562002860576040805160e560020a62461bcd02815260206004820152603f60248201527f53656e6465722062616c616e6365206d75737420626520657175616c20746f2060448201527f6f7220686967686572207468616e20696e697469616c2062616c616e63652100606482015290519081900360840190fd5b861515620028de576040805160e560020a62461bcd02815260206004820152603260248201527f43616e6e6f742063726561746520612070726f66696c6520776974686f75742060448201527f61206e6f64654964207375626d69747465640000000000000000000000000000606482015290519081900360840190fd5b600080546040805160e260020a630110ceef028152602060048201819052600e602483015260008051602062005beb83398151915260448301529151600160a060020a03808916956323b872dd9533959216936304433bbc936064808301949391928390030190829087803b1580156200295757600080fd5b505af11580156200296c573d6000803e3d6000fd5b505050506040513d60208110156200298357600080fd5b50516040805160e060020a63ffffffff8616028152600160a060020a039384166004820152929091166024830152604482018a90525160648083019260209291908290030181600087803b158015620029db57600080fd5b505af1158015620029f0573d6000803e3d6000fd5b505050506040513d602081101562002a0757600080fd5b505084151562002d1057338862002a1d620042c4565b600160a060020a03928316815291166020820152604080519182900301906000f08015801562002a51573d6000803e3d6000fd5b5060408051338152600160a060020a038316602082015281519294507f45afe31e3a48a54e27da1d1f2ec6c6e272ce5838616e0d61071b223bceb5c690929081900390910190a1600080546040805160e260020a630110ceef028152602060048201819052600e602483015260008051602062005beb83398151915260448301529151600160a060020a03909316936304433bbc93606480840194939192918390030190829087803b15801562002b0757600080fd5b505af115801562002b1c573d6000803e3d6000fd5b505050506040513d602081101562002b3357600080fd5b5051604080517fbd3cd525000000000000000000000000000000000000000000000000000000008152600160a060020a038581166004830152602482018a90529151919092169163bd3cd52591604480830192600092919082900301818387803b15801562002ba157600080fd5b505af115801562002bb6573d6000803e3d6000fd5b5050600080546040805160e260020a630110ceef028152602060048201819052600e602483015260008051602062005beb83398151915260448301529151600160a060020a0390931695506304433bbc9450606480820194929392918390030190829087803b15801562002c2957600080fd5b505af115801562002c3e573d6000803e3d6000fd5b505050506040513d602081101562002c5557600080fd5b50516040805160e160020a633fee1b3b028152600160a060020a038581166004830152602482018b905291519190921691637fdc367691604480830192600092919082900301818387803b15801562002cad57600080fd5b505af115801562002cc2573d6000803e3d6000fd5b505060408051600160a060020a0386168152602081018a905281517fcb939889322fed25104a5d8945bde5162563412a1fd718946cdcacb03088ea089450908190039091019150a162003118565b83600160a060020a031663d202158d336040516020018082600160a060020a0316600160a060020a03166c010000000000000000000000000281526014019150506040516020818303038152906040526040518082805190602001908083835b6020831062002d915780518252601f19909201916020918201910162002d70565b51815160209384036101000a60001901801990921691161790526040805192909401829003822063ffffffff881660e060020a028352600483015260026024830152925160448083019650939450929083900301905081600087803b15801562002dfa57600080fd5b505af115801562002e0f573d6000803e3d6000fd5b505050506040513d602081101562002e2657600080fd5b5051151562002ea5576040805160e560020a62461bcd02815260206004820152603460248201527f53656e64657220646f6573206e6f74206861766520616374696f6e207065726d60448201527f697373696f6e20666f72206964656e7469747921000000000000000000000000606482015290519081900360840190fd5b600080546040805160e260020a630110ceef028152602060048201819052600e602483015260008051602062005beb83398151915260448301529151600160a060020a03909316936304433bbc93606480840194939192918390030190829087803b15801562002f1457600080fd5b505af115801562002f29573d6000803e3d6000fd5b505050506040513d602081101562002f4057600080fd5b5051604080517fbd3cd525000000000000000000000000000000000000000000000000000000008152600160a060020a038781166004830152602482018a90529151919092169163bd3cd52591604480830192600092919082900301818387803b15801562002fae57600080fd5b505af115801562002fc3573d6000803e3d6000fd5b5050600080546040805160e260020a630110ceef028152602060048201819052600e602483015260008051602062005beb83398151915260448301529151600160a060020a0390931695506304433bbc9450606480820194929392918390030190829087803b1580156200303657600080fd5b505af11580156200304b573d6000803e3d6000fd5b505050506040513d60208110156200306257600080fd5b50516040805160e160020a633fee1b3b028152600160a060020a038781166004830152602482018b905291519190921691637fdc367691604480830192600092919082900301818387803b158015620030ba57600080fd5b505af1158015620030cf573d6000803e3d6000fd5b505060408051600160a060020a0388168152602081018a905281517fcb939889322fed25104a5d8945bde5162563412a1fd718946cdcacb03088ea089450908190039091019150a15b6002548611156200336a57600080546040805160e260020a630110ceef028152602060048201819052600e602483015260008051602062005beb83398151915260448301529151600160a060020a03909316936304433bbc93606480840194939192918390030190829087803b1580156200319257600080fd5b505af1158015620031a7573d6000803e3d6000fd5b505050506040513d6020811015620031be57600080fd5b5051604080517f07f196510000000000000000000000000000000000000000000000000000000081529051600160a060020a03909216916307f19651916004808201926020929091908290030181600087803b1580156200321e57600080fd5b505af115801562003233573d6000803e3d6000fd5b505050506040513d60208110156200324a57600080fd5b5051600080546040805160e260020a630110ceef028152602060048201819052600e602483015260008051602062005beb8339815191526044830152915160019095019550600160a060020a03909216936304433bbc936064808501948390030190829087803b158015620032be57600080fd5b505af1158015620032d3573d6000803e3d6000fd5b505050506040513d6020811015620032ea57600080fd5b5051604080517f48fd564b000000000000000000000000000000000000000000000000000000008152600481018490529051600160a060020a03909216916348fd564b9160248082019260009290919082900301818387803b1580156200335057600080fd5b505af115801562003365573d6000803e3d6000fd5b505050505b5050505050505050565b81600160a060020a031663d202158d336040516020018082600160a060020a0316600160a060020a03166c010000000000000000000000000281526014019150506040516020818303038152906040526040518082805190602001908083835b60208310620033f55780518252601f199092019160209182019101620033d4565b51815160209384036101000a60001901801990921691161790526040805192909401829003822063ffffffff881660e060020a028352600483015260026024830152925160448083019650939450929083900301905081600087803b1580156200345e57600080fd5b505af115801562003473573d6000803e3d6000fd5b505050506040513d60208110156200348a57600080fd5b5051151562003509576040805160e560020a62461bcd02815260206004820152603d60248201527f53656e64657220646f6573206e6f74206861766520616374696f6e207065726d60448201527f697373696f6e20666f72207375626d6974746564206964656e74697479000000606482015290519081900360840190fd5b80151562003561576040805160e560020a62461bcd02815260206004820152601960248201527f43616e6e6f7420736574206120626c616e6b206e6f6465496400000000000000604482015290519081900360640190fd5b600080546040805160e260020a630110ceef028152602060048201819052600e602483015260008051602062005beb83398151915260448301529151600160a060020a03909316936304433bbc93606480840194939192918390030190829087803b158015620035d057600080fd5b505af1158015620035e5573d6000803e3d6000fd5b505050506040513d6020811015620035fc57600080fd5b50516040805160e160020a633fee1b3b028152600160a060020a0385811660048301526024820185905291519190921691637fdc367691604480830192600092919082900301818387803b1580156200365457600080fd5b505af115801562003669573d6000803e3d6000fd5b505050505050565b60025481565b600080546040805160e260020a630110ceef028152602060048201819052600760248301527f486f6c64696e670000000000000000000000000000000000000000000000000060448301529151600160a060020a03909316926304433bbc9260648084019391929182900301818787803b158015620036f557600080fd5b505af11580156200370a573d6000803e3d6000fd5b505050506040513d60208110156200372157600080fd5b5051600160a060020a03163314620037a9576040805160e560020a62461bcd02815260206004820152603060248201527f46756e6374696f6e2063616e206f6e6c792062652063616c6c6564206279204860448201527f6f6c64696e6720636f6e74726163742100000000000000000000000000000000606482015290519081900360840190fd5b600160a060020a03841615801590620037ca5750600160a060020a03831615155b1515620037d657600080fd5b600080546040805160e260020a630110ceef028152602060048201819052600e602483015260008051602062005beb83398151915260448301529151600160a060020a03909316936304433bbc93606480840194939192918390030190829087803b1580156200384557600080fd5b505af11580156200385a573d6000803e3d6000fd5b505050506040513d60208110156200387157600080fd5b50516040805160e560020a6303d3b323028152600160a060020a0387811660048301529151929350849291841691637a766460916024808201926020929091908290030181600087803b158015620038c857600080fd5b505af1158015620038dd573d6000803e3d6000fd5b505050506040513d6020811015620038f457600080fd5b5051101562003973576040805160e560020a62461bcd02815260206004820152602f60248201527f53656e64657220646f6573206e6f74206861766520656e6f75676820746f6b6560448201527f6e7320746f207472616e73666572210000000000000000000000000000000000606482015290519081900360840190fd5b8181600160a060020a0316635ffe0282866040518263ffffffff1660e060020a0281526004018082600160a060020a0316600160a060020a03168152602001915050602060405180830381600087803b158015620039d057600080fd5b505af1158015620039e5573d6000803e3d6000fd5b505050506040513d6020811015620039fc57600080fd5b5051101562003a7b576040805160e560020a62461bcd02815260206004820152603860248201527f53656e64657220646f6573206e6f74206861766520656e6f75676820746f6b6560448201527f6e7320726573657276656420746f207472616e73666572210000000000000000606482015290519081900360840190fd5b80600160a060020a03166350c3ff578562003aec8585600160a060020a0316635ffe02828a6040518263ffffffff1660e060020a0281526004018082600160a060020a0316600160a060020a03168152602001915050602060405180830381600087803b158015620006e257600080fd5b6040518363ffffffff1660e060020a0281526004018083600160a060020a0316600160a060020a0316815260200182815260200192505050600060405180830381600087803b15801562003b3f57600080fd5b505af115801562003b54573d6000803e3d6000fd5b5050505080600160a060020a031663bd3cd5258562003bc98585600160a060020a0316637a7664608a6040518263ffffffff1660e060020a0281526004018082600160a060020a0316600160a060020a03168152602001915050602060405180830381600087803b158015620006e257600080fd5b6040518363ffffffff1660e060020a0281526004018083600160a060020a0316600160a060020a0316815260200182815260200192505050600060405180830381600087803b15801562003c1c57600080fd5b505af115801562003c31573d6000803e3d6000fd5b5050505080600160a060020a031663bd3cd5258462003ca68585600160a060020a0316637a766460896040518263ffffffff1660e060020a0281526004018082600160a060020a0316600160a060020a03168152602001915050602060405180830381600087803b1580156200241c57600080fd5b6040518363ffffffff1660e060020a0281526004018083600160a060020a0316600160a060020a0316815260200182815260200192505050600060405180830381600087803b15801562003cf957600080fd5b505af115801562003d0e573d6000803e3d6000fd5b505060408051600160a060020a0380891682528716602082015280820186905290517f1b89874203ff7f0bba87c969ada3f32fda22ed38a6706d35199d21280c7811b19350908190036060019150a150505050565b6000809054906101000a9004600160a060020a0316600160a060020a0316638da5cb5b6040518163ffffffff1660e060020a028152600401602060405180830381600087803b15801562003db657600080fd5b505af115801562003dcb573d6000803e3d6000fd5b505050506040513d602081101562003de257600080fd5b5051600160a060020a0316331462003e6a576040805160e560020a62461bcd02815260206004820152602960248201527f46756e6374696f6e2063616e206f6e6c792062652063616c6c6564206279206860448201527f7562206f776e6572210000000000000000000000000000000000000000000000606482015290519081900360840190fd5b600354811462000afc57600355565b600080546040805160e260020a630110ceef028152602060048201819052600760248301527f486f6c64696e670000000000000000000000000000000000000000000000000060448301529151600160a060020a03909316926304433bbc9260648084019391929182900301818787803b15801562003ef757600080fd5b505af115801562003f0c573d6000803e3d6000fd5b505050506040513d602081101562003f2357600080fd5b5051600160a060020a0316331462003fab576040805160e560020a62461bcd02815260206004820152603060248201527f46756e6374696f6e2063616e206f6e6c792062652063616c6c6564206279204860448201527f6f6c64696e6720636f6e74726163742100000000000000000000000000000000606482015290519081900360840190fd5b600160a060020a038316151562003fc157600080fd5b600080546040805160e260020a630110ceef028152602060048201819052600e602483015260008051602062005beb83398151915260448301529151600160a060020a03909316936304433bbc93606480840194939192918390030190829087803b1580156200403057600080fd5b505af115801562004045573d6000803e3d6000fd5b505050506040513d60208110156200405c57600080fd5b5051604080517f5ffe0282000000000000000000000000000000000000000000000000000000008152600160a060020a0386811660048301529151929350849291841691635ffe0282916024808201926020929091908290030181600087803b158015620040c957600080fd5b505af1158015620040de573d6000803e3d6000fd5b505050506040513d6020811015620040f557600080fd5b5051101562004174576040805160e560020a62461bcd02815260206004820152603260248201527f43616e6e6f742072656c65617365206d6f726520746f6b656e73207468616e2060448201527f7468657265206172652072657365727665640000000000000000000000000000606482015290519081900360840190fd5b80600160a060020a03166350c3ff5784620041e58585600160a060020a0316635ffe0282896040518263ffffffff1660e060020a0281526004018082600160a060020a0316600160a060020a03168152602001915050602060405180830381600087803b158015620006e257600080fd5b6040518363ffffffff1660e060020a0281526004018083600160a060020a0316600160a060020a0316815260200182815260200192505050600060405180830381600087803b1580156200423857600080fd5b505af11580156200424d573d6000803e3d6000fd5b505060408051600160a060020a03871681526020810186905281517fc7798891864187665ac6dd119286e44ec13f014527aeeb2b8eb3fd413df931799450908190039091019150a1505050565b600082821115620042a757fe5b50900390565b600082820183811015620042bd57fe5b9392505050565b6040516118d580620042d683390190560060806040523480156200001157600080fd5b50604051604080620018d5833981016040528051602090910151600080600160a060020a038416158015906200004f5750600160a060020a03831615155b15156200005b57600080fd5b6001600055604080516c01000000000000000000000000600160a060020a0386160260208083019190915282518083036014018152603490920192839052815191929182918401908083835b60208310620000c85780518252601f199092019160209182019101620000a7565b51815160209384036101000a60001901801990921691161790526040805192909401829003822060008181526002808452868220808201849055600180820181905560808701895286528585018290526003978601979097526004606086018190529183905290925297506200014595509293509190506200047b565b507fa15bc60c955c405d20d9149c709e2460f1c2d9a497496a7f46004d1772c3054c805460018181019092557f2c644dcf44e265ba93879b2da89e1b16ab48fc5eb8e31bc16b0612d6da8463f10183905560008051602062001835833981519152805480830190915560008051602062001875833981519152018390557fcbc4e5fb02c3d1de23a9f1e014b4d2ee5aeaea9505df5e855c9210bf472495af80548083019091557ffa8d260207fe657f2346775cc7df9e07ba0a08e64ccd28972b30bb03ba9b295b018390556000805160206200185583398151915280548083019091556000805160206200189583398151915201839055600083815260026020908152604091829020825182815281549281018390528693600080516020620018b583398151915293829182019084908015620002a257602002820191906000526020600020905b8154815260200190600101908083116200028d575b50509250505060405180910390a3600160a060020a03848116908416146200047157836040516020018082600160a060020a0316600160a060020a03166c010000000000000000000000000281526014019150506040516020818303038152906040526040518082805190602001908083835b60208310620003365780518252601f19909201916020918201910162000315565b51815160209384036101000a6000190180199092169116179052604080519290940182900382206000818152600280845286822080820184905560018082015585880190975280855260048585015290829052918290529650620003a195509293509190506200047b565b50600080516020620018358339815191528054600181810190925560008051602062001875833981519152018290556000805160206200185583398151915280548083019091556000805160206200189583398151915201829055600082815260026020908152604091829020825182815281549281018390528593600080516020620018b5833981519152938291820190849080156200046257602002820191906000526020600020905b8154815260200190600101908083116200044d575b50509250505060405180910390a35b50505050620004f0565b828054828255906000526020600020908101928215620004be579160200282015b82811115620004be578251829060ff169055916020019190600101906200049c565b50620004cc929150620004d0565b5090565b620004ed91905b80821115620004cc5760008155600101620004d7565b90565b61133580620005006000396000f3006080604052600436106100985763ffffffff7c010000000000000000000000000000000000000000000000000000000060003504166312aaac70811461009d57806322a2133014610116578063747442d31461013d578063862642f51461016e5780639010f72614610186578063a820f50a146101ee578063b61d27f614610215578063d202158d1461027e578063fb307b3414610299575b600080fd5b3480156100a957600080fd5b506100b56004356102b1565b60408051602080820185905291810183905260608082528551908201528451909182916080830191878101910280838360005b838110156101005781810151838201526020016100e8565b5050505090500194505050505060405180910390f35b34801561012257600080fd5b5061012b61032d565b60408051918252519081900360200190f35b34801561014957600080fd5b5061015a6004356024351515610333565b604080519115158252519081900360200190f35b34801561017a57600080fd5b5061015a600435610859565b34801561019257600080fd5b5061019e600435610b5c565b60408051602080825283518183015283519192839290830191858101910280838360005b838110156101da5781810151838201526020016101c2565b505050509050019250505060405180910390f35b3480156101fa57600080fd5b5061015a600480359060248035908101910135604435610bbf565b34801561022157600080fd5b50604080516020600460443581810135601f810184900484028501840190955284845261012b948235600160a060020a0316946024803595369594606494920191908190840183828082843750949750610d589650505050505050565b34801561028a57600080fd5b5061015a600435602435610f73565b3480156102a557600080fd5b5061019e600435610f9c565b60008181526002602081815260408084206001810154938101548154835181860281018601909452808452606096958695939490939091859183018282801561031957602002820191906000526020600020905b815481526020019060010190808311610305575b505050505092509250925092509193909250565b60005481565b600082815260046020908152604080832080546002918201805484516101006001831615026000190190911693909304601f8101869004860284018601909452838352600160a060020a039091169385936103e59392918301828280156103db5780601f106103b0576101008083540402835291602001916103db565b820191906000526020600020905b8154815290600101906020018083116103be57829003601f168201915b5050505050610ffd565b9050600160a060020a0382163014156105d0577fa820f50a000000000000000000000000000000000000000000000000000000007bffffffffffffffffffffffffffffffffffffffffffffffffffffffff198216148061048357507f862642f5000000000000000000000000000000000000000000000000000000007bffffffffffffffffffffffffffffffffffffffffffffffffffffffff198216145b1561052c57604080516c01000000000000000000000000330260208083019190915282518083036014018152603490920192839052815161051c93918291908401908083835b602083106104e85780518252601f1990920191602091820191016104c9565b6001836020036101000a03801982511681845116808217855250505050505090500191505060405180910390206001610f73565b151561052757600080fd5b6105cb565b604080516c0100000000000000000000000033026020808301919091528251808303601401815260349092019283905281516105c093918291908401908083835b6020831061058c5780518252601f19909201916020918201910161056d565b6001836020036101000a03801982511681845116808217855250505050505090500191505060405180910390206002610f73565b15156105cb57600080fd5b61063a565b604080516c01000000000000000000000000330260208083019190915282518083036014018152603490920192839052815161062f93918291908401908083836020831061058c5780518252601f19909201916020918201910161056d565b151561063a57600080fd5b604080518515158152905186917fb3932da477fe5d6c8ff2eafef050c0f3a1af18fc07121001482600f36f3715d8919081900360200190a260018415151415610833576000858152600460205260409081902060038101805460ff19166001908117909155815482820154935160029384018054600160a060020a03909316959490939192839285926000199183161561010002919091019091160480156107235780601f106106f857610100808354040283529160200191610723565b820191906000526020600020905b81548152906001019060200180831161070657829003601f168201915b505091505060006040518083038185875af1925050509250821561082e5760008581526004602090815260409182902060038101805461010061ff00199091168117909155600180830154835486518681526002958601805494851615909502600019019093169490940494820185905294600160a060020a03909316938a937f1f920dbda597d7bf95035464170fa58d0a4b57f13a1c315ace6793b9f63688b893929182918201908490801561081b5780601f106107f05761010080835404028352916020019161081b565b820191906000526020600020905b8154815290600101906020018083116107fe57829003601f168201915b50509250505060405180910390a4610851565b610851565b6000858152600460205260409020600301805460ff19169055600192505b505092915050565b60008060006108d0336040516020018082600160a060020a0316600160a060020a03166c01000000000000000000000000028152601401915050604051602081830303815290604052604051808280519060200190808383602083106104e85780518252601f1990920191602091820191016104c9565b15156108db57600080fd5b8315156108e757600080fd5b60008481526002602081905260409091200154841461090557600080fd5b6001600081905260036020527fa15bc60c955c405d20d9149c709e2460f1c2d9a497496a7f46004d1772c3054c541480156109465750610946846001610f73565b156109d857604080517f08c379a000000000000000000000000000000000000000000000000000000000815260206004820152602260248201527f43616e6e6f742064656c657465206f6e6c79206d616e6167656d656e74206b6560448201527f7921000000000000000000000000000000000000000000000000000000000000606482015290519081900360840190fd5b60008481526002602081815260409283902060018101549281015484518381528254938101849052939490937f8b4b1134f379fbe0fcf31b9ff43aa8003df39c09d09bd06671288e1b0a1f2b4a93909182919082019084908015610a5b57602002820191906000526020600020905b815481526020019060010190808311610a47575b50509250505060405180910390a3600091505b600084815260026020526040902054821015610b2a5760008481526002602052604081208054610ace92879260039287908110610aa757fe5b9060005260206000200154815260200190815260200160002061108890919063ffffffff16565b5060008581526002602052604081208054929350610b1e928492600392909187908110610af757fe5b906000526020600020015481526020019081526020016000206110dc90919063ffffffff16565b50600190910190610a6e565b600084815260026020526040812090610b4382826111e9565b5060006001828101829055600290920155949350505050565b600081815260036020908152604091829020805483518184028101840190945280845260609392830182828015610bb357602002820191906000526020600020905b81548152600190910190602001808311610b9e575b50505050509050919050565b600080610c34336040516020018082600160a060020a0316600160a060020a03166c01000000000000000000000000028152601401915050604051602081830303815290604052604051808280519060200190808383602083106104e85780518252601f1990920191602091820191016104c9565b1515610c3f57600080fd5b851515610c4b57600080fd5b60008681526002602081905260409091200154861415610c6a57600080fd5b6000868152600260208190526040909120908101879055610c8c90868661120a565b505060008581526002602052604081206001018390555b83811015610cf35760036000868684818110610cbb57fe5b602090810292909201358352508181019290925260400160009081208054600181810183559183529290912090910187905501610ca3565b8286600019167fe5b96345754b4b918f72e77b7ab261725bce3e956dc95888b754048d13f608de87876040518080602001828103825284848281815260200192506020028082843760405192018290039550909350505050a350600195945050505050565b600154600090815260046020526040812060030154610100900460ff1615610d7f57600080fd5b600180546000908152600460209081526040808320805473ffffffffffffffffffffffffffffffffffffffff1916600160a060020a038a16179055835483528083208401879055925482529190208351610de192600290920191850190611255565b50604080516c010000000000000000000000003302602080830191909152825180830360140181526034909201928390528151610e419391829190840190808383602083106104e85780518252601f1990920191602091820191016104c9565b80610ea65750604080516c010000000000000000000000003302602080830191909152825180830360140181526034909201928390528151610ea693918291908401908083836020831061058c5780518252601f19909201916020918201910161056d565b15610eba57610eb86001546001610333565b505b8284600160a060020a03166001547f8afcfabcb00e47a53a8fc3e9f23ff47ee1926194bb1350dd007c50b412a6cee8856040518080602001828103825283818151815260200191508051906020019080838360005b83811015610f27578181015183820152602001610f0f565b50505050905090810190601f168015610f545780820380516001836020036101000a031916815260200191505b509250505060405180910390a450600180548082019091559392505050565b60008281526002602052604081208190610f93908463ffffffff6111a716565b95945050505050565b600081815260026020908152604091829020805483518184028101840190945280845260609392830182828015610bb357602002820191906000526020600020905b815481526020019060010190808311610fde5750505050509050919050565b600080805b60048110156110815780600802848281518110151561101d57fe5b60209101015160029190910a7f0100000000000000000000000000000000000000000000000000000000000000918290049091027fff0000000000000000000000000000000000000000000000000000000000000016049190911790600101611002565b5092915050565b600080805b84548110156110cc57845484908690839081106110a657fe5b60009182526020909120015414156110c457806001925092506110d4565b60010161108d565b600092508291505b509250929050565b815460609082106110ec576111a1565b8254839060001981019081106110fe57fe5b9060005260206000200154838381548110151561111757fe5b60009182526020909120015582548390600019810190811061113557fe5b600091825260208220015582546000190161115084826112c3565b5082546040805160208084028201810190925282815291859183018282801561119957602002820191906000526020600020905b81548152600190910190602001808311611184575b505050505090505b92915050565b600080805b84548110156110cc578385828154811015156111c457fe5b906000526020600020015414156111e157806001925092506110d4565b6001016111ac565b508054600082559060005260206000209081019061120791906112ec565b50565b828054828255906000526020600020908101928215611245579160200282015b8281111561124557823582559160200191906001019061122a565b506112519291506112ec565b5090565b828054600181600116156101000203166002900490600052602060002090601f016020900481019282601f1061129657805160ff1916838001178555611245565b82800160010185558215611245579182015b828111156112455782518255916020019190600101906112a8565b8154818355818111156112e7576000838152602090206112e79181019083016112ec565b505050565b61130691905b8082111561125157600081556001016112f2565b905600a165627a7a723058209b85a69be328a3b41c0cfb57651680038c028f68cfff1dba5ab5019d4ef60da10029c3a24b0501bd2c13a7e57f2db4369ec4c223447539fc0724a9d55ac4a06ebd4d83ec6a1f0257b830b5e016457c9cf1435391bf56cc98f369a58a54fe9377246519b5847ec9d8983e32da86b2c2bedc7b0bcabd1d214557fda78706fe7ba568ce5fa3dab1e0e1070445c119c6fd10edd16d6aa2f25a5899217f919c041d474318e5b96345754b4b918f72e77b7ab261725bce3e956dc95888b754048d13f608de53656e64657220646f6573206e6f742068617665206d616e6167656d656e74207065726d697373696f6e20666f72206964656e7469747921000000000000000050726f66696c6553746f72616765000000000000000000000000000000000000a165627a7a72305820dcf13ac4ec2297eed0c40c691b9e1d0fe8d231e042b233c29bb957cf0010fda80029",
  "source": "pragma solidity ^0.4.23;\n\nimport {SafeMath} from './SafeMath.sol';\nimport {ProfileStorage} from './ProfileStorage.sol';\nimport {Ownable, Hub} from './Hub.sol';\nimport {Identity, ERC725} from './Identity.sol';\nimport {ERC20} from './TracToken.sol';\n\n\ncontract Profile {\n    using SafeMath for uint256;\n    Hub public hub;\n\n    uint256 public version = 101;\n\n    uint256 public minimalStake = 3*10**21;\n    uint256 public withdrawalTime = 5 minutes;\n\n    constructor(address hubAddress) public {\n        require(hubAddress != address(0));\n        hub = Hub(hubAddress);\n    }\n\n    modifier onlyHolding(){\n        require(msg.sender == hub.getContractAddress(\"Holding\"),\n        \"Function can only be called by Holding contract!\");\n        _;\n    }\n\n    event ProfileCreated(address profile, uint256 initialBalance);\n    event IdentityCreated(address profile, address newIdentity);\n    event IdentityTransferred(bytes20 nodeId, address oldIdentity, address newIdentity);\n    event TokenDeposit(address profile, uint256 amount);\n\n    event TokensDeposited(address profile, uint256 amountDeposited, uint256 newBalance);\n    event TokensReserved(address profile, uint256 amountReserved);\n\n    event WithdrawalInitiated(address profile, uint256 amount, uint256 withdrawalDelayInSeconds);\n    event TokenWithdrawalCancelled(address profile);\n    event TokensWithdrawn(address profile, uint256 amountWithdrawn, uint256 newBalance);\n\n    event TokensReleased(address profile, uint256 amount);\n    event TokensTransferred(address sender, address receiver, uint256 amount);\n\n    function createProfile(address managementWallet, bytes32 profileNodeId, uint256 initialBalance, bool senderHas725, address identity) public {\n        require(managementWallet!=address(0));\n        ERC20 tokenContract = ERC20(hub.tokenAddress());\n        require(tokenContract.allowance(msg.sender, this) >= initialBalance, \"Sender allowance must be equal to or higher than initial balance\");\n        require(tokenContract.balanceOf(msg.sender) >= initialBalance, \"Sender balance must be equal to or higher than initial balance!\");\n        require(uint256(profileNodeId) != 0, \"Cannot create a profile without a nodeId submitted\");\n\n        tokenContract.transferFrom(msg.sender, hub.getContractAddress(\"ProfileStorage\"), initialBalance);\n\n        if(!senderHas725) {\n            Identity newIdentity = new Identity(msg.sender, managementWallet);\n            emit IdentityCreated(msg.sender, address(newIdentity));\n\n            ProfileStorage(hub.getContractAddress(\"ProfileStorage\")).setStake(address(newIdentity), initialBalance);\n            ProfileStorage(hub.getContractAddress(\"ProfileStorage\")).setNodeId(address(newIdentity), profileNodeId);\n\n            emit ProfileCreated(address(newIdentity), initialBalance);\n        }\n        else {\n            // Verify sender\n            require(ERC725(identity).keyHasPurpose(keccak256(abi.encodePacked(msg.sender)), 2),  \"Sender does not have action permission for identity!\");\n\n            ProfileStorage(hub.getContractAddress(\"ProfileStorage\")).setStake(identity, initialBalance);\n            ProfileStorage(hub.getContractAddress(\"ProfileStorage\")).setNodeId(identity, profileNodeId);\n\n            emit ProfileCreated(identity, initialBalance);\n        }\n\n        if(initialBalance > minimalStake) {\n            uint256 activeNodes = ProfileStorage(hub.getContractAddress(\"ProfileStorage\")).activeNodes();\n            activeNodes += 1;\n            ProfileStorage(hub.getContractAddress(\"ProfileStorage\")).setActiveNodes(activeNodes);\n        }\n    }\n\n    function transferProfile(address oldIdentity, address managementWallet) public returns(address){\n        require(ERC725(oldIdentity).keyHasPurpose(keccak256(abi.encodePacked(msg.sender)), 1),  \"Sender does not have management permission for identity!\");\n        require(managementWallet != address(0));\n\n        Identity newIdentity = new Identity(msg.sender, managementWallet);\n        emit IdentityCreated(msg.sender, address(newIdentity));\n\n        ProfileStorage profileStorage = ProfileStorage(hub.getContractAddress(\"ProfileStorage\"));\n\n        profileStorage.setStake(address(newIdentity), profileStorage.getStake(oldIdentity));\n        profileStorage.setStakeReserved(address(newIdentity), profileStorage.getStakeReserved(oldIdentity));\n        profileStorage.setNodeId(address(newIdentity), profileStorage.getNodeId(oldIdentity));\n        profileStorage.setReputation(address(newIdentity), profileStorage.getReputation(oldIdentity));\n\n        if(profileStorage.getWithdrawalPending(oldIdentity)){\n            emit TokenWithdrawalCancelled(oldIdentity);\n            profileStorage.setWithdrawalPending(oldIdentity, false);\n        }\n\n        profileStorage.setStake(oldIdentity, 0);\n        profileStorage.setStakeReserved(oldIdentity, 0);\n        profileStorage.setNodeId(oldIdentity, bytes32(0));\n        profileStorage.setReputation(oldIdentity, 0);\n\n        emit IdentityTransferred(bytes20(profileStorage.getNodeId(address(newIdentity))), oldIdentity, address(newIdentity));\n        return address(newIdentity);\n    }\n\n    function depositTokens(address identity, uint256 amount) public {\n        // Verify sender\n        require(ERC725(identity).keyHasPurpose(keccak256(abi.encodePacked(msg.sender)), 1),  \"Sender does not have management permission for identity!\");\n\n        ProfileStorage profileStorage = ProfileStorage(hub.getContractAddress(\"ProfileStorage\"));\n\n        ERC20 tokenContract = ERC20(hub.getContractAddress(\"Token\"));\n        require(tokenContract.allowance(msg.sender, this) >= amount, \"Sender allowance must be equal to or higher than chosen amount\");\n        require(tokenContract.balanceOf(msg.sender) >= amount, \"Sender balance must be equal to or higher than chosen amount!\");\n\n        tokenContract.transferFrom(msg.sender, address(profileStorage), amount);\n\n        profileStorage.setStake(identity, profileStorage.getStake(identity).add(amount));\n\n        emit TokensDeposited(identity, amount, profileStorage.getStake(identity));\n    }\n\n    function startTokenWithdrawal(address identity, uint256 amount) public {\n        // Verify sender\n        require(ERC725(identity).keyHasPurpose(keccak256(abi.encodePacked(msg.sender)), 1),  \"Sender does not have management permission for identity!\");\n\n        ProfileStorage profileStorage = ProfileStorage(hub.getContractAddress(\"ProfileStorage\"));\n\n        require(profileStorage.getWithdrawalPending(identity) == false, \"Withrdrawal process already pending!\");\n\n        uint256 availableBalance = profileStorage.getStake(identity).sub(profileStorage.getStakeReserved(identity));\n\n        profileStorage.setWithdrawalPending(identity, true);\n        profileStorage.setWithdrawalTimestamp(identity, block.timestamp + withdrawalTime);\n        if(availableBalance >= amount) {\n            // Reserve chosen token amount\n            profileStorage.setWithdrawalAmount(identity, amount);\n            emit WithdrawalInitiated(identity, amount, withdrawalTime);\n        }\n        else {\n            // Reserve only the available balance\n            profileStorage.setWithdrawalAmount(identity, availableBalance);\n            emit WithdrawalInitiated(identity, availableBalance, withdrawalTime);\n        }\n    }\n\n    function withdrawTokens(address identity) public {\n        // Verify sender\n        require(ERC725(identity).keyHasPurpose(keccak256(abi.encodePacked(msg.sender)), 1),  \"Sender does not have management permission for identity!\");\n\n        ProfileStorage profileStorage = ProfileStorage(hub.getContractAddress(\"ProfileStorage\"));\n\n        require(profileStorage.getWithdrawalPending(identity) == true, \"Cannot withdraw tokens before starting token withdrawal!\");\n        require(profileStorage.getWithdrawalTimestamp(identity) < block.timestamp, \"Cannot withdraw tokens before withdrawal timestamp!\");\n\n        // Transfer already reserved tokens to user identity\n        profileStorage.transferTokens(msg.sender, profileStorage.getWithdrawalAmount(identity));\n        \n        profileStorage.setStake(\n            identity,\n            profileStorage.getStake(identity).sub(profileStorage.getWithdrawalAmount(identity))\n        );\n\n        profileStorage.setWithdrawalPending(identity, false);\n        \n        emit TokensWithdrawn(\n            identity,\n            profileStorage.getWithdrawalAmount(identity),\n            profileStorage.getStake(identity)\n        );\n    }\n\n    function setNodeId(address identity, bytes32 newNodeId)\n    public {\n         // Verify sender\n        require(ERC725(identity).keyHasPurpose(keccak256(abi.encodePacked(msg.sender)), 2),\n            \"Sender does not have action permission for submitted identity\");\n        require(uint256(newNodeId) != 0, \"Cannot set a blank nodeId\");\n\n        ProfileStorage(hub.getContractAddress(\"ProfileStorage\")).setNodeId(identity, newNodeId);\n    }\n\n    function releaseTokens(address profile, uint256 amount)\n    public onlyHolding {\n        require(profile!=address(0));\n        ProfileStorage profileStorage = ProfileStorage(hub.getContractAddress(\"ProfileStorage\"));\n\n        require(profileStorage.getStakeReserved(profile) >= amount, \"Cannot release more tokens than there are reserved\");\n\n        profileStorage.setStakeReserved(profile, profileStorage.getStakeReserved(profile).sub(amount));\n\n        emit TokensReleased(profile, amount);\n    }\n    \n    function transferTokens(address sender, address receiver, uint256 amount)\n    public onlyHolding {\n        require(sender!=address(0) && receiver!=address(0));\n        ProfileStorage profileStorage = ProfileStorage(hub.getContractAddress(\"ProfileStorage\"));\n\n        require(profileStorage.getStake(sender) >= amount, \"Sender does not have enough tokens to transfer!\");\n        require(profileStorage.getStakeReserved(sender) >= amount, \"Sender does not have enough tokens reserved to transfer!\");\n\n        profileStorage.setStakeReserved(sender, profileStorage.getStakeReserved(sender).sub(amount));\n        profileStorage.setStake(sender, profileStorage.getStake(sender).sub(amount));\n        profileStorage.setStake(receiver, profileStorage.getStake(receiver).add(amount));\n\n        emit TokensTransferred(sender, receiver, amount);\n    }\n\n    function setMinimalStake(uint256 newMinimalStake) \n    public {\n        require (msg.sender == hub.owner(), \"Function can only be called by hub owner!\");\n        if(minimalStake != newMinimalStake) minimalStake = newMinimalStake;\n    }\n\n    function setWithdrawalTime(uint256 newWithdrawalTime) \n    public {\n        require (msg.sender == hub.owner(), \"Function can only be called by hub owner!\");\n        if(withdrawalTime != newWithdrawalTime) withdrawalTime = newWithdrawalTime;\n    }\n}",
  "sourcePath": "/Users/miloskotlar/ot-node/modules/Blockchain/Polygon/contracts/Profile.sol",
  "compiler": {
    "name": "solc",
    "version": "0.4.25+commit.59dbf8f1.Emscripten.clang"
  },
  "schemaVersion": "3.0.0-beta.1",
  "updatedAt": "2021-08-16T09:42:48.432Z"
}