{
  "contractName": "Reading",
  "abi": [
    {
      "constant": true,
      "inputs": [
        {
          "name": "",
          "type": "bytes32"
        },
        {
          "name": "",
          "type": "address"
        }
      ],
      "name": "purchased_data",
      "outputs": [
        {
          "name": "DC_wallet",
          "type": "address"
        },
        {
          "name": "distribution_root_hash",
          "type": "bytes32"
        },
        {
          "name": "checksum",
          "type": "uint256"
        }
      ],
      "payable": false,
      "stateMutability": "view",
      "type": "function"
    },
    {
      "constant": true,
      "inputs": [],
      "name": "owner",
      "outputs": [
        {
          "name": "",
          "type": "address"
        }
      ],
      "payable": false,
      "stateMutability": "view",
      "type": "function"
    },
    {
      "constant": true,
      "inputs": [
        {
          "name": "",
          "type": "address"
        },
        {
          "name": "",
          "type": "address"
        },
        {
          "name": "",
          "type": "bytes32"
        }
      ],
      "name": "purchase",
      "outputs": [
        {
          "name": "token_amount",
          "type": "uint256"
        },
        {
          "name": "stake_factor",
          "type": "uint256"
        },
        {
          "name": "commitment",
          "type": "bytes32"
        },
        {
          "name": "encrypted_block",
          "type": "uint256"
        },
        {
          "name": "time_of_sending",
          "type": "uint256"
        },
        {
          "name": "purchase_status",
          "type": "uint8"
        }
      ],
      "payable": false,
      "stateMutability": "view",
      "type": "function"
    },
    {
      "constant": false,
      "inputs": [
        {
          "name": "newOwner",
          "type": "address"
        }
      ],
      "name": "transferOwnership",
      "outputs": [],
      "payable": false,
      "stateMutability": "nonpayable",
      "type": "function"
    },
    {
      "inputs": [
        {
          "name": "escrow_address",
          "type": "address"
        }
      ],
      "payable": false,
      "stateMutability": "nonpayable",
      "type": "constructor"
    },
    {
      "anonymous": false,
      "inputs": [
        {
          "indexed": false,
          "name": "import_id",
          "type": "bytes32"
        },
        {
          "indexed": false,
          "name": "DH_wallet",
          "type": "address"
        },
        {
          "indexed": false,
          "name": "DV_wallet",
          "type": "address"
        }
      ],
      "name": "PurchaseInitiated",
      "type": "event"
    },
    {
      "anonymous": false,
      "inputs": [
        {
          "indexed": false,
          "name": "import_id",
          "type": "bytes32"
        },
        {
          "indexed": false,
          "name": "DH_wallet",
          "type": "address"
        },
        {
          "indexed": false,
          "name": "DV_wallet",
          "type": "address"
        }
      ],
      "name": "CommitmentSent",
      "type": "event"
    },
    {
      "anonymous": false,
      "inputs": [
        {
          "indexed": false,
          "name": "import_id",
          "type": "bytes32"
        },
        {
          "indexed": false,
          "name": "DH_wallet",
          "type": "address"
        },
        {
          "indexed": false,
          "name": "DV_wallet",
          "type": "address"
        }
      ],
      "name": "PurchaseConfirmed",
      "type": "event"
    },
    {
      "anonymous": false,
      "inputs": [
        {
          "indexed": false,
          "name": "import_id",
          "type": "bytes32"
        },
        {
          "indexed": false,
          "name": "DH_wallet",
          "type": "address"
        },
        {
          "indexed": false,
          "name": "DV_wallet",
          "type": "address"
        }
      ],
      "name": "PurchaseCancelled",
      "type": "event"
    },
    {
      "anonymous": false,
      "inputs": [
        {
          "indexed": false,
          "name": "import_id",
          "type": "bytes32"
        },
        {
          "indexed": false,
          "name": "DH_wallet",
          "type": "address"
        },
        {
          "indexed": false,
          "name": "DV_wallet",
          "type": "address"
        }
      ],
      "name": "EncryptedBlockSent",
      "type": "event"
    },
    {
      "anonymous": false,
      "inputs": [
        {
          "indexed": false,
          "name": "import_id",
          "type": "bytes32"
        },
        {
          "indexed": false,
          "name": "DH_wallet",
          "type": "address"
        },
        {
          "indexed": false,
          "name": "DV_wallet",
          "type": "address"
        }
      ],
      "name": "PurchaseDisputed",
      "type": "event"
    },
    {
      "anonymous": false,
      "inputs": [
        {
          "indexed": false,
          "name": "import_id",
          "type": "bytes32"
        },
        {
          "indexed": false,
          "name": "DH_wallet",
          "type": "address"
        },
        {
          "indexed": false,
          "name": "DV_wallet",
          "type": "address"
        },
        {
          "indexed": false,
          "name": "proof_was_correct",
          "type": "bool"
        }
      ],
      "name": "PurchaseDisputeCompleted",
      "type": "event"
    },
    {
      "anonymous": false,
      "inputs": [
        {
          "indexed": false,
          "name": "import_id",
          "type": "bytes32"
        },
        {
          "indexed": false,
          "name": "DH_wallet",
          "type": "address"
        },
        {
          "indexed": false,
          "name": "DV_wallet",
          "type": "address"
        },
        {
          "indexed": false,
          "name": "amount",
          "type": "uint256"
        }
      ],
      "name": "PurchasePayment",
      "type": "event"
    },
    {
      "anonymous": false,
      "inputs": [
        {
          "indexed": true,
          "name": "previousOwner",
          "type": "address"
        },
        {
          "indexed": true,
          "name": "newOwner",
          "type": "address"
        }
      ],
      "name": "OwnershipTransferred",
      "type": "event"
    },
    {
      "constant": false,
      "inputs": [
        {
          "name": "bidding_address",
          "type": "address"
        }
      ],
      "name": "setBidding",
      "outputs": [],
      "payable": false,
      "stateMutability": "nonpayable",
      "type": "function"
    },
    {
      "constant": false,
      "inputs": [
        {
          "name": "import_id",
          "type": "bytes32"
        },
        {
          "name": "DH_wallet",
          "type": "address"
        },
        {
          "name": "DC_wallet",
          "type": "address"
        },
        {
          "name": "distribution_root_hash",
          "type": "bytes32"
        },
        {
          "name": "checksum",
          "type": "uint256"
        }
      ],
      "name": "addReadData",
      "outputs": [],
      "payable": false,
      "stateMutability": "nonpayable",
      "type": "function"
    },
    {
      "constant": false,
      "inputs": [
        {
          "name": "import_id",
          "type": "bytes32"
        },
        {
          "name": "DH_wallet",
          "type": "address"
        }
      ],
      "name": "removeReadData",
      "outputs": [],
      "payable": false,
      "stateMutability": "nonpayable",
      "type": "function"
    },
    {
      "constant": false,
      "inputs": [
        {
          "name": "import_id",
          "type": "bytes32"
        },
        {
          "name": "DH_wallet",
          "type": "address"
        },
        {
          "name": "token_amount",
          "type": "uint256"
        },
        {
          "name": "stake_factor",
          "type": "uint256"
        }
      ],
      "name": "initiatePurchase",
      "outputs": [],
      "payable": false,
      "stateMutability": "nonpayable",
      "type": "function"
    },
    {
      "constant": false,
      "inputs": [
        {
          "name": "import_id",
          "type": "bytes32"
        },
        {
          "name": "DV_wallet",
          "type": "address"
        },
        {
          "name": "commitment",
          "type": "bytes32"
        }
      ],
      "name": "sendCommitment",
      "outputs": [],
      "payable": false,
      "stateMutability": "nonpayable",
      "type": "function"
    },
    {
      "constant": false,
      "inputs": [
        {
          "name": "import_id",
          "type": "bytes32"
        },
        {
          "name": "DH_wallet",
          "type": "address"
        }
      ],
      "name": "confirmPurchase",
      "outputs": [],
      "payable": false,
      "stateMutability": "nonpayable",
      "type": "function"
    },
    {
      "constant": false,
      "inputs": [
        {
          "name": "import_id",
          "type": "bytes32"
        },
        {
          "name": "correspondent_wallet",
          "type": "address"
        },
        {
          "name": "sender_is_DH",
          "type": "bool"
        }
      ],
      "name": "cancelPurchase",
      "outputs": [],
      "payable": false,
      "stateMutability": "nonpayable",
      "type": "function"
    },
    {
      "constant": false,
      "inputs": [
        {
          "name": "import_id",
          "type": "bytes32"
        },
        {
          "name": "DV_wallet",
          "type": "address"
        },
        {
          "name": "encrypted_block",
          "type": "uint256"
        }
      ],
      "name": "sendEncryptedBlock",
      "outputs": [],
      "payable": false,
      "stateMutability": "nonpayable",
      "type": "function"
    },
    {
      "constant": false,
      "inputs": [
        {
          "name": "import_id",
          "type": "bytes32"
        },
        {
          "name": "DV_wallet",
          "type": "address"
        }
      ],
      "name": "payOut",
      "outputs": [],
      "payable": false,
      "stateMutability": "nonpayable",
      "type": "function"
    },
    {
      "constant": false,
      "inputs": [
        {
          "name": "import_id",
          "type": "bytes32"
        },
        {
          "name": "DH_wallet",
          "type": "address"
        }
      ],
      "name": "initiateDispute",
      "outputs": [],
      "payable": false,
      "stateMutability": "nonpayable",
      "type": "function"
    },
    {
      "constant": false,
      "inputs": [
        {
          "name": "import_id",
          "type": "bytes32"
        },
        {
          "name": "DV_wallet",
          "type": "address"
        },
        {
          "name": "checksum_left",
          "type": "uint256"
        },
        {
          "name": "checksum_right",
          "type": "uint256"
        },
        {
          "name": "checksum_hash",
          "type": "bytes32"
        },
        {
          "name": "random_number_1",
          "type": "uint256"
        },
        {
          "name": "random_number_2",
          "type": "uint256"
        },
        {
          "name": "decryption_key",
          "type": "uint256"
        },
        {
          "name": "block_index",
          "type": "uint256"
        }
      ],
      "name": "sendProofData",
      "outputs": [],
      "payable": false,
      "stateMutability": "nonpayable",
      "type": "function"
    }
  ],
  "bytecode": "0x608060405234801561001057600080fd5b50604051602080611b60833981016040525160008054600160a060020a03191633179055600160a060020a038116151561004957600080fd5b60028054600160a060020a031916600160a060020a0392909216919091179055611ae8806100786000396000f3006080604052600436106100c15763ffffffff60e060020a6000350416630220154381146100c657806319144a00146101125780633277b37f146101385780633c0890aa146101625780634010fbbe146101865780635cc86aae146101aa57806363701834146101ce5780638da5cb5b146101f5578063a868451d14610226578063ab0b6d3314610260578063ce122fd314610289578063cea86225146102fe578063e4da133d14610325578063ee3df46814610346578063f2fde38b14610376575b600080fd5b3480156100d257600080fd5b506100ea600435600160a060020a0360243516610397565b60408051600160a060020a039094168452602084019290925282820152519081900360600190f35b34801561011e57600080fd5b50610136600435600160a060020a03602435166103cd565b005b34801561014457600080fd5b50610136600435600160a060020a03602435166044356064356104bb565b34801561016e57600080fd5b50610136600435600160a060020a03602435166107cc565b34801561019257600080fd5b50610136600435600160a060020a0360243516610b45565b3480156101b657600080fd5b50610136600435600160a060020a0360243516610c49565b3480156101da57600080fd5b50610136600435600160a060020a0360243516604435610cf2565b34801561020157600080fd5b5061020a610f3a565b60408051600160a060020a039092168252519081900360200190f35b34801561023257600080fd5b50610136600435600160a060020a036024351660443560643560843560a43560c43560e43561010435610f49565b34801561026c57600080fd5b50610136600435600160a060020a0360243516604435151561147c565b34801561029557600080fd5b506102b3600160a060020a0360043581169060243516604435611728565b6040805187815260208101879052908101859052606081018490526080810183905260a081018260078111156102e557fe5b60ff168152602001965050505050505060405180910390f35b34801561030a57600080fd5b50610136600435600160a060020a036024351660443561176f565b34801561033157600080fd5b50610136600160a060020a03600435166118c3565b34801561035257600080fd5b50610136600435600160a060020a0360243581169060443516606435608435611963565b34801561038257600080fd5b50610136600160a060020a03600435166119ce565b6003602090815260009283526040808420909152908252902080546001820154600290920154600160a060020a03909116919083565b6000331515610414576040805160e560020a62461bcd02815260206004820152601a6024820152600080516020611a9d833981519152604482015290519081900360640190fd5b50600160a060020a0381166000908152600460209081526040808320338452825280832085845290915290206002600582015460ff16600781111561045557fe5b1461045f57600080fd5b60058101805460ff1916600317905560408051848152600160a060020a0384166020820152338183015290517ffbce064ad8bdcc84266a9c1beaabb63aa7cf703c5ec0d18953b47b9c17f6eae7916060908290030190a1505050565b6000808080331515610505576040805160e560020a62461bcd02815260206004820152601a6024820152600080516020611a9d833981519152604482015290519081900360640190fd5b600160a060020a038716600090815260046020908152604080832033845282528083208b845290915281209450600585015460ff16600781111561054557fe5b148061056357506007600585015460ff16600781111561056157fe5b145b151561056e57600080fd5b600154604080517ff8b2cb4f000000000000000000000000000000000000000000000000000000008152600160a060020a038a811660048301529151919092169163f8b2cb4f9160248083019260209291908290030181600087803b1580156105d657600080fd5b505af11580156105ea573d6000803e3d6000fd5b505050506040513d602081101561060057600080fd5b5051600154604080517ff8b2cb4f0000000000000000000000000000000000000000000000000000000081523360048201529051929550600160a060020a039091169163f8b2cb4f916024808201926020929091908290030181600087803b15801561066b57600080fd5b505af115801561067f573d6000803e3d6000fd5b505050506040513d602081101561069557600080fd5b505191506106a9868663ffffffff611a6216565b90508083101580156106ca57506106c6868263ffffffff611a8d16565b8210155b15156106d557600080fd5b600154600160a060020a031663ff056949336106f7898563ffffffff611a8d16565b6040518363ffffffff1660e060020a0281526004018083600160a060020a0316600160a060020a0316815260200182815260200192505050600060405180830381600087803b15801561074957600080fd5b505af115801561075d573d6000803e3d6000fd5b50505086855550600180850186905560058501805460ff1916909117905560408051898152600160a060020a0389166020820152338183015290517f9fbafee25eee75a7ca4b2fb08cf42994b620a14dda70afbd5d7004021234a7569181900360600190a15050505050505050565b6000331515610813576040805160e560020a62461bcd02815260206004820152601a6024820152600080516020611a9d833981519152604482015290519081900360640190fd5b50336000908152600460208181526040808420600160a060020a0386168552825280842086855290915290912090600582015460ff16600781111561085457fe5b148015610869575042816004015461012c0111155b151561087457600080fd5b60018054825491830154600160a060020a0390911691635b86f5999133916108b3916108a790829063ffffffff611a6216565b9063ffffffff611a8d16565b6040518363ffffffff1660e060020a0281526004018083600160a060020a0316600160a060020a0316815260200182815260200192505050600060405180830381600087803b15801561090557600080fd5b505af1158015610919573d6000803e3d6000fd5b505060018054908401548454600160a060020a039092169350635b86f5999250859161094a9163ffffffff611a6216565b6040518363ffffffff1660e060020a0281526004018083600160a060020a0316600160a060020a0316815260200182815260200192505050600060405180830381600087803b15801561099c57600080fd5b505af11580156109b0573d6000803e3d6000fd5b5050825460408051878152336020820152600160a060020a038716818301526060810192909252517f165958a20298dff5e3654c897aece7494451ae6bb6bd95bc276cf0f2c6e948a49350908190036080019150a160018054908201548254600160a060020a0390921691635b86f599913391610a329163ffffffff611a6216565b6040518363ffffffff1660e060020a0281526004018083600160a060020a0316600160a060020a0316815260200182815260200192505050600060405180830381600087803b158015610a8457600080fd5b505af1158015610a98573d6000803e3d6000fd5b505060018054908401548454600160a060020a039092169350635b86f59992508591610ac99163ffffffff611a6216565b6040518363ffffffff1660e060020a0281526004018083600160a060020a0316600160a060020a0316815260200182815260200192505050600060405180830381600087803b158015610b1b57600080fd5b505af1158015610b2f573d6000803e3d6000fd5b50505050600501805460ff191660071790555050565b6000331515610b8c576040805160e560020a62461bcd02815260206004820152601a6024820152600080516020611a9d833981519152604482015290519081900360640190fd5b50600160a060020a0381166000908152600460208181526040808420338552825280842086855290915290912090600582015460ff166007811115610bcd57fe5b148015610be2575042816004015461012c0110155b1515610bed57600080fd5b6005818101805460ff1916909117905560408051848152600160a060020a0384166020820152338183015290517feed8d5a21e1abbc1a3be11a802087d64f72268b0fd20f38264e41061e58e128a9181900360600190a1505050565b60008054600160a060020a03163314610c6157600080fd5b331515610ca6576040805160e560020a62461bcd02815260206004820152601a6024820152600080516020611a9d833981519152604482015290519081900360640190fd5b506000918252600360209081526040808420600160a060020a0390931684529190528120805473ffffffffffffffffffffffffffffffffffffffff191681556001810182905560020155565b600080331515610d3a576040805160e560020a62461bcd02815260206004820152601a6024820152600080516020611a9d833981519152604482015290519081900360640190fd5b336000908152600460209081526040808320600160a060020a03881684528252808320888452909152902091506001600583015460ff166007811115610d7c57fe5b14610d8657600080fd5b600154604080517ff8b2cb4f0000000000000000000000000000000000000000000000000000000081523360048201529051600160a060020a039092169163f8b2cb4f916024808201926020929091908290030181600087803b158015610dec57600080fd5b505af1158015610e00573d6000803e3d6000fd5b505050506040513d6020811015610e1657600080fd5b505160018301548354919250610e32919063ffffffff611a6216565b811015610e3e57600080fd5b60018054908301548354600160a060020a039092169163ff056949913391610e6b9163ffffffff611a6216565b6040518363ffffffff1660e060020a0281526004018083600160a060020a0316600160a060020a0316815260200182815260200192505050600060405180830381600087803b158015610ebd57600080fd5b505af1158015610ed1573d6000803e3d6000fd5b50505050600282810184905560058301805460ff1916909117905560408051868152336020820152600160a060020a0386168183015290517faadadcc0a083a81e32c43535dd0b35c7249c3ec0b1799f96b0fcf3d48d74e0239181900360600190a15050505050565b600054600160a060020a031681565b60008080331515610f92576040805160e560020a62461bcd02815260206004820152601a6024820152600080516020611a9d833981519152604482015290519081900360640190fd5b336000908152600460209081526040808320600160a060020a038f16845282528083208f845282529182902082518083018e90528084018d9052606081018c9052608081018b905260a081018a905260c0810189905260e08082018990528451808303909101815261010090910193849052805191965092918291908401908083835b602083106110345780518252601f199092019160209182019101611015565b51815160209384036101000a60001901801990921691161790526040805192909401829003822060028a015460038b01548d1884840152855180850384018152938601958690528351911498508c96508f95508d9470010000000000000000000000000000000094506001938c93909282918401908083835b602083106110cc5780518252601f1990920191602091820191016110ad565b51815160209384036101000a600019018019909216911617905260408051929094018290038220969096039690960386860152508051808603850181529481019081905284519093849350850191508083835b6020831061113e5780518252601f19909201916020918201910161111f565b5181516020939093036101000a600019018019909116921691909117905260405192018290039091209250505081151561117457fe5b068d010101036001026040516020018082600019166000191681526020019150506040516020818303038152906040526040518082805190602001908083835b602083106111d35780518252601f1990920191602091820191016111b4565b5181516020939093036101000a600019018019909116921691909117905260405192018290039091208b14935050600184151514915050801561121857506001811515145b1561137b5760018054845491850154600160a060020a0390911691635b86f599913391611257916112499190611a62565b87549063ffffffff611a8d16565b6040518363ffffffff1660e060020a0281526004018083600160a060020a0316600160a060020a0316815260200182815260200192505050600060405180830381600087803b1580156112a957600080fd5b505af11580156112bd573d6000803e3d6000fd5b505050507f165958a20298dff5e3654c897aece7494451ae6bb6bd95bc276cf0f2c6e948a48c338d6112f787600001548860010154611a62565b60408051948552600160a060020a03938416602086015291909216838201526060830191909152519081900360800190a1604080518d8152336020820152600160a060020a038d16818301526001606082015290517f6d49a8efc3e2999aaf5536128409147b0d44fc27ad511586254e77a2dd02da9e9181900360800190a1611461565b60018054845491850154600160a060020a0390911691635b86f599918e916113a7916112499190611a62565b6040518363ffffffff1660e060020a0281526004018083600160a060020a0316600160a060020a0316815260200182815260200192505050600060405180830381600087803b1580156113f957600080fd5b505af115801561140d573d6000803e3d6000fd5b5050604080518f8152336020820152600160a060020a038f16818301526000606082015290517f6d49a8efc3e2999aaf5536128409147b0d44fc27ad511586254e77a2dd02da9e9350908190036080019150a15b5050600501805460ff19166007179055505050505050505050565b600080803315156114c5576040805160e560020a62461bcd02815260206004820152601a6024820152600080516020611a9d833981519152604482015290519081900360640190fd5b600184151514156114db573392508491506114e2565b8492503391505b50600160a060020a03808316600090815260046020908152604080832093851683529281528282208883529052206001600582015460ff16600781111561152557fe5b148061154357506002600582015460ff16600781111561154157fe5b145b8061156057506003600582015460ff16600781111561155e57fe5b145b151561156b57600080fd5b60058101805460ff1916600617905560018054908201548254600160a060020a0390921691635b86f5999185916115b4916115a69190611a62565b85549063ffffffff611a8d16565b6040518363ffffffff1660e060020a0281526004018083600160a060020a0316600160a060020a0316815260200182815260200192505050600060405180830381600087803b15801561160657600080fd5b505af115801561161a573d6000803e3d6000fd5b5060019250611627915050565b600582015460ff16600781111561163a57fe5b146116d75760018054908201548254600160a060020a0390921691635b86f59991869161166c9163ffffffff611a6216565b6040518363ffffffff1660e060020a0281526004018083600160a060020a0316600160a060020a0316815260200182815260200192505050600060405180830381600087803b1580156116be57600080fd5b505af11580156116d2573d6000803e3d6000fd5b505050505b60408051878152600160a060020a03808616602083015284168183015290517f7a4ec8645635492ca2c99759596ac5b00661e38ef7ac7f1d9d2640460e0fa8fe9181900360600190a1505050505050565b600460208181526000948552604080862082529385528385209052908352912080546001820154600283015460038401549484015460059094015492949193909260ff1686565b600080803315156117b8576040805160e560020a62461bcd02815260206004820152601a6024820152600080516020611a9d833981519152604482015290519081900360640190fd5b5050336000818152600460209081526040808320600160a060020a0388168085529083528184208985528352818420600380855283862092865291909352818420948452922090935090600584015460ff16600781111561181557fe5b1461181f57600080fd5b600383018490558054825473ffffffffffffffffffffffffffffffffffffffff1916600160a060020a0391821617835560018083015490840155600280830154908401554260048086019190915560058501805460ff191690911790556040805188815233602082015291871682820152517ff59b9c06a2c05386e47d266b10d12249e877babd2ecd6ccbf1cf3a8fce07b4869181900360600190a1505050505050565b600054600160a060020a031633146118da57600080fd5b33151561191f576040805160e560020a62461bcd02815260206004820152601a6024820152600080516020611a9d833981519152604482015290519081900360640190fd5b600160a060020a038116151561193457600080fd5b6001805473ffffffffffffffffffffffffffffffffffffffff1916600160a060020a0392909216919091179055565b60008054600160a060020a0316331461197b57600080fd5b506000948552600360209081526040808720600160a060020a039687168852909152909420805473ffffffffffffffffffffffffffffffffffffffff191692909316919091178255600182015560020155565b600054600160a060020a031633146119e557600080fd5b600160a060020a03811615156119fa57600080fd5b60008054604051600160a060020a03808516939216917f8be0079c531659141344cd1fd0a4f28419497f9722a3daafe3b4186f6b6457e091a36000805473ffffffffffffffffffffffffffffffffffffffff1916600160a060020a0392909216919091179055565b6000828202831580611a7e5750828482811515611a7b57fe5b04145b1515611a8657fe5b9392505050565b600082820183811015611a8657fe0053656e64657220616464726573732063616e6e6f742062652030000000000000a165627a7a723058208947dbb9f3bf707da10a4459825d0b5f17382957f586f2a1ceacaf4512fc546c0029",
  "source": "pragma solidity ^0.4.21;\n\nlibrary SafeMath {\n\tfunction mul(uint256 a, uint256 b) internal pure returns (uint256) {\n\t\tuint256 c = a * b;\n\t\tassert(a == 0 || c / a == b);\n\t\treturn c;\n\t}\n\n\tfunction div(uint256 a, uint256 b) internal pure returns (uint256) {\n\t\t// assert(b > 0); // Solidity automatically throws when dividing by 0\n\t\tuint256 c = a / b;\n\t\t// assert(a == b * c + a % b); // There is no case in which this doesn't hold\n\t\treturn c;\n\t}\n\n\tfunction sub(uint256 a, uint256 b) internal pure returns (uint256) {\n\t\tassert(b <= a);\n\t\treturn a - b;\n\t}\n\n\tfunction add(uint256 a, uint256 b) internal pure returns (uint256) {\n\t\tuint256 c = a + b;\n\t\tassert(c >= a);\n\t\treturn c;\n\t}\n}\n\ncontract Bidding{\n\tfunction increaseBalance(address wallet, uint amount) public;\n\tfunction decreaseBalance(address wallet, uint amount) public;\n\tfunction increaseReputation(address wallet, uint amount) public;\n\tfunction getBalance(address wallet) public view returns (uint256);\n}\n\n/**\n * @title Ownable\n * @dev The Ownable contract has an owner address, and provides basic authorization control\n * functions, this simplifies the implementation of \"user permissions\".\n */\ncontract Ownable {\n \taddress public owner;\n\n \tevent OwnershipTransferred(address indexed previousOwner, address indexed newOwner);\n\n\t/**\n     * @dev The Ownable constructor sets the original `owner` of the contract to the sender\n     * account.\n     */\n    constructor () public {\n     \towner = msg.sender;\n    }\n\n\t/**\n     * @dev Throws if called by any account other than the owner.\n     */\n     modifier onlyOwner() {\n     \trequire(msg.sender == owner);\n     \t_;\n     }\n\n\t/**\n     * @dev Allows the current owner to transfer control of the contract to a newOwner.\n     * @param newOwner The address to transfer ownership to.\n     */\n     function transferOwnership(address newOwner) public onlyOwner {\n     \trequire(newOwner != address(0));\n     \temit OwnershipTransferred(owner, newOwner);\n     \towner = newOwner;\n     }\n\n }\n\ncontract Reading is Ownable{\n\tusing SafeMath for uint256;\n\n\tBidding bidding;\n\taddress escrow;\n\n    modifier senderNotZero() {\n          require(msg.sender != address(0), \"Sender address cannot be 0\");\n          _;\n     }\n\n \tenum PurchaseStatus {inactive, initiated, commited, confirmed, sent, disputed, cancelled, completed}\n\n\tstruct PurchaseDefinition{\n \t\tuint token_amount;\n \t\tuint stake_factor;\n\n \t\tbytes32 commitment;\n\t\tuint256 encrypted_block;\n\n \t\tuint256 time_of_sending;\n\n \t\tPurchaseStatus purchase_status;\n \t}\n\n \tstruct PurchasedDataDefinition {\n \t\taddress DC_wallet;\n \t\tbytes32 distribution_root_hash;\n \t\tuint256 checksum;\n \t}\n\n \tmapping(bytes32 => mapping(address => PurchasedDataDefinition)) public purchased_data;\n \tmapping(address => mapping(address => mapping(bytes32 => PurchaseDefinition))) public purchase;\n\n\tevent PurchaseInitiated(bytes32 import_id, address DH_wallet, address DV_wallet);\n\tevent CommitmentSent(bytes32 import_id, address DH_wallet, address DV_wallet);\n\tevent PurchaseConfirmed(bytes32 import_id, address DH_wallet, address DV_wallet);\n\tevent PurchaseCancelled(bytes32 import_id, address DH_wallet, address DV_wallet);\n\tevent EncryptedBlockSent(bytes32 import_id, address DH_wallet, address DV_wallet);\n\tevent PurchaseDisputed(bytes32 import_id, address DH_wallet, address DV_wallet);\n\tevent PurchaseDisputeCompleted(bytes32 import_id, address DH_wallet, address DV_wallet, bool proof_was_correct);\n    event PurchasePayment(bytes32 import_id, address DH_wallet, address DV_wallet, uint256 amount);\n\n\tconstructor(address escrow_address)\n\tpublic{\n\t\trequire(escrow_address != address(0));\n\t\tescrow = escrow_address;\n\t}\n\n\tfunction setBidding(address bidding_address)\n\tpublic onlyOwner senderNotZero{\n\t\trequire(bidding_address != address(0));\n\t\tbidding = Bidding(bidding_address);\n\t}\n\n\tfunction addReadData (bytes32 import_id, address DH_wallet, address DC_wallet, bytes32 distribution_root_hash, uint256 checksum)\n\tpublic onlyOwner {\n\t\tPurchasedDataDefinition storage this_purchased_data = purchased_data[import_id][DH_wallet];\n\n\t\tthis_purchased_data.DC_wallet = DC_wallet;\n\t\tthis_purchased_data.distribution_root_hash = distribution_root_hash;\n\t\tthis_purchased_data.checksum = checksum;\n\t}\n\n\tfunction removeReadData (bytes32 import_id, address DH_wallet)\n\tpublic onlyOwner senderNotZero{\n\t\tPurchasedDataDefinition storage this_purchased_data = purchased_data[import_id][DH_wallet];\n\n\t\tthis_purchased_data.DC_wallet = address(0);\n\t\tthis_purchased_data.distribution_root_hash = bytes32(0);\n\t\tthis_purchased_data.checksum = 0;\n\t}\n\n\tfunction initiatePurchase(bytes32 import_id, address DH_wallet, uint token_amount, uint stake_factor)\n\tpublic senderNotZero{\n\t\tPurchaseDefinition storage this_purchase = purchase[DH_wallet][msg.sender][import_id];\n\t\trequire(this_purchase.purchase_status == PurchaseStatus.inactive\n\t\t\t|| \tthis_purchase.purchase_status == PurchaseStatus.completed);\n\n\t\tuint256 DH_balance = bidding.getBalance(DH_wallet);\n\t\tuint256 DV_balance = bidding.getBalance(msg.sender);\n\t\tuint256 stake_amount = token_amount.mul(stake_factor);\n\t\trequire(DH_balance >= stake_amount && DV_balance >= token_amount.add(stake_amount));\n\n\t\tbidding.decreaseBalance(msg.sender, token_amount.add(stake_amount));\n\n\t\tthis_purchase.token_amount = token_amount;\n\t\tthis_purchase.stake_factor = stake_factor;\n\n\t\tthis_purchase.purchase_status = PurchaseStatus.initiated;\n\t\temit PurchaseInitiated(import_id, DH_wallet, msg.sender);\n\t}\n\n\tfunction sendCommitment(bytes32 import_id, address DV_wallet, bytes32 commitment)\n\tpublic senderNotZero{\n\t\tPurchaseDefinition storage this_purchase = purchase[msg.sender][DV_wallet][import_id];\n\t\trequire(this_purchase.purchase_status == PurchaseStatus.initiated);\n\n\t\tuint256 DH_balance = bidding.getBalance(msg.sender);\n\t\trequire(DH_balance >= this_purchase.token_amount.mul(this_purchase.stake_factor));\n\t\tbidding.decreaseBalance(msg.sender, this_purchase.token_amount.mul(this_purchase.stake_factor));\n\n\t\tthis_purchase.commitment = commitment;\n\t\tthis_purchase.purchase_status = PurchaseStatus.commited;\n\n\t\temit CommitmentSent(import_id, msg.sender, DV_wallet);\n\t}\n\n\tfunction confirmPurchase(bytes32 import_id, address DH_wallet)\n\tpublic senderNotZero{\n\t\tPurchaseDefinition storage this_purchase = purchase[DH_wallet][msg.sender][import_id];\n\t\trequire(this_purchase.purchase_status == PurchaseStatus.commited);\n\n\t\tthis_purchase.purchase_status = PurchaseStatus.confirmed;\n\t\temit PurchaseConfirmed(import_id, DH_wallet, msg.sender);\n\t}\n\n\tfunction cancelPurchase(bytes32 import_id, address correspondent_wallet, bool sender_is_DH)\n\tpublic senderNotZero{\n\t\taddress DH_wallet;\n\t\taddress DV_wallet;\n\n\t\tif (sender_is_DH  == true) {\n\t\t\tDH_wallet = msg.sender;\n\t\t\tDV_wallet = correspondent_wallet;\n\t\t}\n\t\telse{\n\t\t\tDH_wallet = correspondent_wallet;\n\t\t\tDV_wallet = msg.sender;\n\t\t}\n\t\tPurchaseDefinition storage this_purchase = purchase[DH_wallet][DV_wallet][import_id];\n\n\t\trequire(this_purchase.purchase_status == PurchaseStatus.initiated\n\t\t\t||  this_purchase.purchase_status == PurchaseStatus.commited\n\t\t\t||  this_purchase.purchase_status == PurchaseStatus.confirmed);\n\n\t\tthis_purchase.purchase_status = PurchaseStatus.cancelled;\n\n\t\tbidding.increaseBalance(DV_wallet, this_purchase.token_amount.add(this_purchase.token_amount.mul(this_purchase.stake_factor)));\n\t\tif(this_purchase.purchase_status != PurchaseStatus.initiated){\n\t\t\tbidding.increaseBalance(DH_wallet, this_purchase.token_amount.mul(this_purchase.stake_factor));\n\t\t}\n\t\temit PurchaseCancelled(import_id, DH_wallet, DV_wallet);\n\t}\n\n\tfunction sendEncryptedBlock(bytes32 import_id, address DV_wallet, uint256 encrypted_block)\n\tpublic senderNotZero{\n\t\tPurchaseDefinition storage this_purchase = purchase[msg.sender][DV_wallet][import_id];\n\t\tPurchasedDataDefinition storage this_purchased_data = purchased_data[import_id][DV_wallet];\n\t\tPurchasedDataDefinition storage previous_purchase = purchased_data[import_id][msg.sender];\n\n\t\trequire(this_purchase.purchase_status == PurchaseStatus.confirmed);\n\n\t\tthis_purchase.encrypted_block = encrypted_block;\n\n\t\tthis_purchased_data.DC_wallet = previous_purchase.DC_wallet;\n\t\tthis_purchased_data.distribution_root_hash = previous_purchase.distribution_root_hash;\n\t\tthis_purchased_data.checksum = previous_purchase.checksum;\n\n\t\tthis_purchase.time_of_sending = block.timestamp;\n\n\t\tthis_purchase.purchase_status = PurchaseStatus.sent;\n\t\temit EncryptedBlockSent(import_id, msg.sender, DV_wallet);\n\t}\n\n\tfunction payOut(bytes32 import_id, address DV_wallet)\n\tpublic senderNotZero{\n\t\tPurchaseDefinition storage this_purchase = purchase[msg.sender][DV_wallet][import_id];\n\n\t\trequire(this_purchase.purchase_status == PurchaseStatus.sent\n\t\t\t&&  this_purchase.time_of_sending + 5 minutes <= block.timestamp);\n\n\t\tbidding.increaseBalance(msg.sender, this_purchase.token_amount.mul(this_purchase.stake_factor).add(this_purchase.token_amount));\n\t\tbidding.increaseBalance(DV_wallet, this_purchase.token_amount.mul(this_purchase.stake_factor));\n\t\temit PurchasePayment(import_id, msg.sender, DV_wallet, this_purchase.token_amount);\n\n\t\tbidding.increaseBalance(msg.sender, this_purchase.token_amount.mul(this_purchase.stake_factor));\n\t\tbidding.increaseBalance(DV_wallet, this_purchase.token_amount.mul(this_purchase.stake_factor));\n\n\t\tthis_purchase.purchase_status = PurchaseStatus.completed;\n\t}\n\n\tfunction initiateDispute(bytes32 import_id, address DH_wallet)\n\tpublic senderNotZero{\n\t\tPurchaseDefinition storage this_purchase = purchase[DH_wallet][msg.sender][import_id];\n\n\t\trequire(this_purchase.purchase_status == PurchaseStatus.sent\n\t\t\t&&  this_purchase.time_of_sending + 5 minutes >= block.timestamp);\n\n\t\tthis_purchase.purchase_status = PurchaseStatus.disputed;\n\t\temit PurchaseDisputed(import_id, DH_wallet, msg.sender);\n\t}\n\n\tfunction sendProofData(bytes32 import_id, address DV_wallet,\n\t\t\tuint256 checksum_left, uint256 checksum_right, bytes32 checksum_hash,\n\t\t\tuint256 random_number_1, uint256 random_number_2,\n\t\t\tuint256 decryption_key, uint256 block_index)\n\tpublic senderNotZero{\n\t\tPurchaseDefinition storage this_purchase = purchase[msg.sender][DV_wallet][import_id];\n\n\t\tbool commitment_proof = this_purchase.commitment == keccak256(abi.encodePacked(checksum_left, checksum_right, checksum_hash, random_number_1, random_number_2, decryption_key, block_index));\n\t\tbool checksum_hash_proof =\n\t\t\tchecksum_hash == keccak256(abi.encodePacked(bytes32(checksum_left + uint256(keccak256(abi.encodePacked(uint256(uint256(keccak256(abi.encodePacked(decryption_key ^ this_purchase.encrypted_block))) - block_index - 1)))) % (2**128) + random_number_1 + checksum_right - random_number_2)));\n\n\t\tif(commitment_proof == true && checksum_hash_proof == true) {\n\t\t\tbidding.increaseBalance(msg.sender, this_purchase.token_amount.add(SafeMath.mul(this_purchase.token_amount,this_purchase.stake_factor)));\n\t\t\temit PurchasePayment(import_id, msg.sender, DV_wallet, SafeMath.mul(this_purchase.token_amount,this_purchase.stake_factor));\n\t\t\temit PurchaseDisputeCompleted(import_id, msg.sender, DV_wallet, true);\n\t\t}\n\t\telse {\n\t\t\tbidding.increaseBalance(DV_wallet, this_purchase.token_amount.add(SafeMath.mul(this_purchase.token_amount,this_purchase.stake_factor)));\n\t\t\temit PurchaseDisputeCompleted(import_id, msg.sender, DV_wallet, false);\n\t\t}\n\t\tthis_purchase.purchase_status = PurchaseStatus.completed;\n\t}\n}",
  "sourcePath": "/Users/miloskotlar/ot-node/modules/Blockchain/Polygon/contracts/Reading.sol",
  "compiler": {
    "name": "solc",
    "version": "0.4.25+commit.59dbf8f1.Emscripten.clang"
  },
  "schemaVersion": "3.0.0-beta.1",
  "updatedAt": "2021-08-16T08:50:09.270Z"
}