{
  "contractName": "Replacement",
  "abi": [
    {
      "constant": true,
      "inputs": [],
      "name": "hub",
      "outputs": [
        {
          "name": "",
          "type": "address"
        }
      ],
      "payable": false,
      "stateMutability": "view",
      "type": "function",
      "signature": "0x365a86fc"
    },
    {
      "inputs": [
        {
          "name": "hubAddress",
          "type": "address"
        }
      ],
      "payable": false,
      "stateMutability": "nonpayable",
      "type": "constructor",
      "signature": "constructor"
    },
    {
      "anonymous": false,
      "inputs": [
        {
          "indexed": false,
          "name": "offerId",
          "type": "bytes32"
        },
        {
          "indexed": false,
          "name": "challengerIdentity",
          "type": "address"
        },
        {
          "indexed": false,
          "name": "chosenHolder",
          "type": "address"
        }
      ],
      "name": "ReplacementCompleted",
      "type": "event",
      "signature": "0x1cd15ea0fd5fd6b6f560ec5688d3b159b93ad46ab229a3e4936baf5c98bb9454"
    },
    {
      "constant": false,
      "inputs": [
        {
          "name": "offerId",
          "type": "bytes32"
        },
        {
          "name": "holderIdentity",
          "type": "address"
        },
        {
          "name": "litigatorIdentity",
          "type": "address"
        },
        {
          "name": "shift",
          "type": "uint256"
        },
        {
          "name": "confirmation1",
          "type": "bytes"
        },
        {
          "name": "confirmation2",
          "type": "bytes"
        },
        {
          "name": "confirmation3",
          "type": "bytes"
        },
        {
          "name": "replacementHolderIdentity",
          "type": "address[]"
        }
      ],
      "name": "replaceHolder",
      "outputs": [],
      "payable": false,
      "stateMutability": "nonpayable",
      "type": "function",
      "signature": "0x3c736155"
    }
  ],
  "bytecode": "0x608060405234801561001057600080fd5b50604051602080612bd38339810160405251600160a060020a03811615156100bf57604080517f08c379a000000000000000000000000000000000000000000000000000000000815260206004820152602160248201527f48756220636f6e747261637420616464726573732063616e6e6f74206265203060448201527f2100000000000000000000000000000000000000000000000000000000000000606482015290519081900360840190fd5b60008054600160a060020a03909216600160a060020a0319909216919091179055612ae4806100ef6000396000f3006080604052600436106100325763ffffffff60e060020a600035041663365a86fc81146100375780633c73615514610068575b600080fd5b34801561004357600080fd5b5061004c610198565b60408051600160a060020a039092168252519081900360200190f35b34801561007457600080fd5b50604080516020600460843581810135601f81018490048402850184019095528484526101969482359460248035600160a060020a039081169660443590911695606435953695919460a494909391019190819084018382808284375050604080516020601f89358b018035918201839004830284018301909452808352979a99988101979196509182019450925082915084018382808284375050604080516020601f89358b018035918201839004830284018301909452808352979a999881019791965091820194509250829150840183828082843750506040805187358901803560208181028481018201909552818452989b9a9989019892975090820195509350839250850190849080828437509497506101a79650505050505050565b005b600054600160a060020a031681565b600080546040805160e260020a630110ceef028152602060048201819052600e60248301527f486f6c64696e6753746f7261676500000000000000000000000000000000000060448301529151849384938493600160a060020a03909216926304433bbc92606480820193929182900301818787803b15801561022957600080fd5b505af115801561023d573d6000803e3d6000fd5b505050506040513d602081101561025357600080fd5b5051600080546040805160e260020a630110ceef028152602060048201819052601160248301527f4c697469676174696f6e53746f7261676500000000000000000000000000000060448301529151949850600160a060020a03909216936304433bbc936064808501948390030190829087803b1580156102d357600080fd5b505af11580156102e7573d6000803e3d6000fd5b505050506040513d60208110156102fd57600080fd5b5051600080546040805160e260020a630110ceef028152602060048201819052600e60248301527f50726f66696c6553746f7261676500000000000000000000000000000000000060448301529151949750600160a060020a03909216936304433bbc936064808501948390030190829087803b15801561037d57600080fd5b505af1158015610391573d6000803e3d6000fd5b505050506040513d60208110156103a757600080fd5b5051604080517fa2657315000000000000000000000000000000000000000000000000000000008152600481018f90529051919350600160a060020a03808d16929087169163a26573159160248083019260209291908290030181600087803b15801561041357600080fd5b505af1158015610427573d6000803e3d6000fd5b505050506040513d602081101561043d57600080fd5b5051600160a060020a0316146104c3576040805160e560020a62461bcd02815260206004820152603860248201527f4368616c6c656e676572206964656e74697479206e6f7420657175616c20746f60448201527f206f666665722063726561746f72206964656e74697479210000000000000000606482015290519081900360840190fd5b89600160a060020a031663d202158d336040516020018082600160a060020a0316600160a060020a03166c010000000000000000000000000281526014019150506040516020818303038152906040526040518082805190602001908083835b602083106105425780518252601f199092019160209182019101610523565b51815160209384036101000a60001901801990921691161790526040805192909401829003822063ffffffff881660e060020a028352600483015260026024830152925160448083019650939450929083900301905081600087803b1580156105aa57600080fd5b505af11580156105be573d6000803e3d6000fd5b505050506040513d60208110156105d457600080fd5b50511515610652576040805160e560020a62461bcd02815260206004820152602860248201527f53656e64657220646f6573206e6f74206861766520616374696f6e207075727060448201527f6f73652073657421000000000000000000000000000000000000000000000000606482015290519081900360840190fd5b604080517fd817da56000000000000000000000000000000000000000000000000000000008152600481018e9052600160a060020a038d811660248301529151828d169286169163d817da569160448083019260209291908290030181600087803b1580156106c057600080fd5b505af11580156106d4573d6000803e3d6000fd5b505050506040513d60208110156106ea57600080fd5b5051600160a060020a031614610796576040805160e560020a62461bcd02815260206004820152604a60248201527f486f6c6465722063616e206f6e6c79206265207265706c61636564206279207460448201527f6865206c6974696761746f722077686f20696e6974696174656420746865206c60648201527f697469676174696f6e2100000000000000000000000000000000000000000000608482015290519081900360a40190fd5b604080517f59485c7e000000000000000000000000000000000000000000000000000000008152600481018e9052600160a060020a038d811660248301529151918516916359485c7e916044808201926020929091908290030181600087803b15801561080257600080fd5b505af1158015610816573d6000803e3d6000fd5b505050506040513d602081101561082c57600080fd5b50519050600381600481111561083e57fe5b146108b9576040805160e560020a62461bcd02815260206004820152603a60248201527f4c697469676174696f6e206e6f7420696e20737461747573207265706c61636960448201527f6e672c2063616e6e6f74207265706c61636520686f6c64657221000000000000606482015290519081900360840190fd5b8460008151811015156108c857fe5b90602001906020020151600160a060020a031663d202158d61098a8e8860008151811015156108f357fe5b60209081029091018101516040805180840194909452600160a060020a0390911683820152805180840382018152606090930190819052825190918291908401908083835b602083106109575780518252601f199092019160209182019101610938565b6001836020036101000a03801982511681845116808217855250505050505090500191505060405180910390208b6117bb565b6040516020018082600160a060020a0316600160a060020a03166c010000000000000000000000000281526014019150506040516020818303038152906040526040518082805190602001908083835b602083106109f95780518252601f1990920191602091820191016109da565b51815160209384036101000a60001901801990921691161790526040805192909401829003822063ffffffff881660e060020a0283526004808401919091526024830152925160448083019650939450929083900301905081600087803b158015610a6357600080fd5b505af1158015610a77573d6000803e3d6000fd5b505050506040513d6020811015610a8d57600080fd5b50511515610b0b576040805160e560020a62461bcd02815260206004820152603760248201527f57616c6c65742066726f6d20686f6c646572203120646f6573206e6f7420686160448201527f766520656e6372797074696f6e20617070726f76616c21000000000000000000606482015290519081900360840190fd5b846001815181101515610b1a57fe5b90602001906020020151600160a060020a031663d202158d610bdc8e886001815181101515610b4557fe5b60209081029091018101516040805180840194909452600160a060020a0390911683820152805180840382018152606090930190819052825190918291908401908083835b60208310610ba95780518252601f199092019160209182019101610b8a565b6001836020036101000a03801982511681845116808217855250505050505090500191505060405180910390208a6117bb565b6040516020018082600160a060020a0316600160a060020a03166c010000000000000000000000000281526014019150506040516020818303038152906040526040518082805190602001908083835b60208310610c4b5780518252601f199092019160209182019101610c2c565b51815160209384036101000a60001901801990921691161790526040805192909401829003822063ffffffff881660e060020a0283526004808401919091526024830152925160448083019650939450929083900301905081600087803b158015610cb557600080fd5b505af1158015610cc9573d6000803e3d6000fd5b505050506040513d6020811015610cdf57600080fd5b50511515610d5d576040805160e560020a62461bcd02815260206004820152603760248201527f57616c6c65742066726f6d20686f6c646572203220646f6573206e6f7420686160448201527f766520656e6372797074696f6e20617070726f76616c21000000000000000000606482015290519081900360840190fd5b846002815181101515610d6c57fe5b90602001906020020151600160a060020a031663d202158d610e2e8e886002815181101515610d9757fe5b60209081029091018101516040805180840194909452600160a060020a0390911683820152805180840382018152606090930190819052825190918291908401908083835b60208310610dfb5780518252601f199092019160209182019101610ddc565b6001836020036101000a0380198251168184511680821785525050505050509050019150506040518091039020896117bb565b6040516020018082600160a060020a0316600160a060020a03166c010000000000000000000000000281526014019150506040516020818303038152906040526040518082805190602001908083835b60208310610e9d5780518252601f199092019160209182019101610e7e565b51815160209384036101000a60001901801990921691161790526040805192909401829003822063ffffffff881660e060020a0283526004808401919091526024830152925160448083019650939450929083900301905081600087803b158015610f0757600080fd5b505af1158015610f1b573d6000803e3d6000fd5b505050506040513d6020811015610f3157600080fd5b50511515610faf576040805160e560020a62461bcd02815260206004820152603760248201527f57616c6c65742066726f6d20686f6c646572203320646f6573206e6f7420686160448201527f766520656e6372797074696f6e20617070726f76616c21000000000000000000606482015290519081900360840190fd5b610fbb8c868d8c611997565b604080517f530bde3d000000000000000000000000000000000000000000000000000000008152600481018e9052600160a060020a038d8116602483015291516111079287169163530bde3d9160448083019260209291908290030181600087803b15801561102957600080fd5b505af115801561103d573d6000803e3d6000fd5b505050506040513d602081101561105357600080fd5b810190808051906020019092919050505085600160a060020a03166338d525f18f8f6040518363ffffffff1660e060020a02815260040180836000191660001916815260200182600160a060020a0316600160a060020a0316815260200192505050602060405180830381600087803b1580156110cf57600080fd5b505af11580156110e3573d6000803e3d6000fd5b505050506040513d60208110156110f957600080fd5b50519063ffffffff6120c916565b611220600160a060020a038416635ffe0282886003420681518110151561112a57fe5b906020019060200201516040518263ffffffff1660e060020a0281526004018082600160a060020a0316600160a060020a03168152602001915050602060405180830381600087803b15801561117f57600080fd5b505af1158015611193573d6000803e3d6000fd5b505050506040513d60208110156111a957600080fd5b5051600160a060020a038516637a76646089600342068151811015156111cb57fe5b906020019060200201516040518263ffffffff1660e060020a0281526004018082600160a060020a0316600160a060020a03168152602001915050602060405180830381600087803b1580156110cf57600080fd5b10156112c2576040805160e560020a62461bcd02815260206004820152604260248201527f5265706c6163656d656e7420686f6c64657220646f6573206e6f74206861766560448201527f207374616b6520617661696c61626c6520746f2074616b652074686973206a6f60648201527f6221000000000000000000000000000000000000000000000000000000000000608482015290519081900360a40190fd5b600080546040805160e260020a630110ceef028152602060048201819052600760248301527f50726f66696c650000000000000000000000000000000000000000000000000060448301529151600160a060020a03909316936304433bbc93606480840194939192918390030190829087803b15801561134157600080fd5b505af1158015611355573d6000803e3d6000fd5b505050506040513d602081101561136b57600080fd5b5051604080517f9ec41a2d0000000000000000000000000000000000000000000000000000000081529051600160a060020a0390921691639ec41a2d916004808201926020929091908290030181600087803b1580156113ca57600080fd5b505af11580156113de573d6000803e3d6000fd5b505050506040513d60208110156113f457600080fd5b5051600160a060020a038316637a766460876003420681518110151561141657fe5b906020019060200201516040518263ffffffff1660e060020a0281526004018082600160a060020a0316600160a060020a03168152602001915050602060405180830381600087803b15801561146b57600080fd5b505af115801561147f573d6000803e3d6000fd5b505050506040513d602081101561149557600080fd5b50511015611539576040805160e560020a62461bcd02815260206004820152605a60248201527f5265706c6163656d656e7420686f6c64657220646f6573206e6f74206861766560448201527f20746865206d696e696d616c207265717569726564207374616b65206176616960648201527f6c61626c6520746f2074616b6520616e79206e6577206a6f6221000000000000608482015290519081900360a40190fd5b600160a060020a0384166338d525f18d876003420681518110151561155a57fe5b60209081029091018101516040805160e060020a63ffffffff87160281526004810194909452600160a060020a039091166024840152516044808401938290030181600087803b1580156115ad57600080fd5b505af11580156115c1573d6000803e3d6000fd5b505050506040513d60208110156115d757600080fd5b50511561167a576040805160e560020a62461bcd02815260206004820152605b60248201527f5265706c6163656d656e7420686f6c64657220776173206f7220697320616c7260448201527f65616479206120686f6c64657220666f72207468697320646174612c2063616e60648201527f6e6f74206265207365742061732061206e657720686f6c646572210000000000608482015290519081900360a40190fd5b6116a08c8c8c886003420681518110151561169157fe5b906020019060200201516120db565b82600160a060020a03166357e0306a8d8d60046040518463ffffffff1660e060020a02815260040180846000191660001916815260200183600160a060020a0316600160a060020a031681526020018260048111156116fb57fe5b60ff1681526020019350505050600060405180830381600087803b15801561172257600080fd5b505af1158015611736573d6000803e3d6000fd5b505050507f1cd15ea0fd5fd6b6f560ec5688d3b159b93ad46ab229a3e4936baf5c98bb94548c8b8760034281151561176a57fe5b0681518110151561177757fe5b602090810290910181015160408051948552600160a060020a03938416928501929092529190911682820152519081900360600190a1505050505050505050505050565b60008060008060606000865160411415156117d9576000955061198c565b6040805190810160405280601c81526020017f19457468657265756d205369676e6564204d6573736167653a0a333200000000815250915081886040516020018083805190602001908083835b602083106118455780518252601f199092019160209182019101611826565b51815160209384036101000a600019018019909216911617905292019384525060408051808503815293820190819052835193945092839250908401908083835b602083106118a55780518252601f199092019160209182019101611886565b6001836020036101000a038019825116818451168082178552505050505050905001915050604051809103902090506020870151945060408701519350606087015160001a9250601b8360ff1610156118ff57601b830192505b8260ff16601b1415801561191757508260ff16601c14155b15611925576000955061198c565b604080516000808252602080830180855285905260ff8716838501526060830189905260808301889052925160019360a0808501949193601f19840193928390039091019190865af115801561197f573d6000803e3d6000fd5b5050506020604051035195505b505050505092915050565b60006119a1612a99565b600080546040805160e260020a630110ceef028152602060048201819052601160248301527f4c697469676174696f6e53746f7261676500000000000000000000000000000060448301529151600160a060020a03909316936304433bbc93606480840194939192918390030190829087803b158015611a2057600080fd5b505af1158015611a34573d6000803e3d6000fd5b505050506040513d6020811015611a4a57600080fd5b5051855190925085906000908110611a5e57fe5b60209081029091018101516040805160e060020a63b3a81b65028152600481018a9052600160a060020a038881166024830152915192939186169263b3a81b65926044808401939192918290030181600087803b158015611abe57600080fd5b505af1158015611ad2573d6000803e3d6000fd5b505050506040513d6020811015611ae857600080fd5b505160408051600160a060020a03939093166c01000000000000000000000000026020808501919091526034808501939093528151808503909301835260549093019081905281519192909182918401908083835b60208310611b5c5780518252601f199092019160209182019101611b3d565b5181516020939093036101000a600019018019909116921691909117905260405192018290039091208452505085518691506001908110611b9957fe5b60209081029091018101516040805160e060020a63b3a81b65028152600481018a9052600160a060020a038881166024830152915192939186169263b3a81b65926044808401939192918290030181600087803b158015611bf957600080fd5b505af1158015611c0d573d6000803e3d6000fd5b505050506040513d6020811015611c2357600080fd5b505160408051600160a060020a03939093166c01000000000000000000000000026020808501919091526034808501939093528151808503909301835260549093019081905281519192909182918401908083835b60208310611c975780518252601f199092019160209182019101611c78565b51815160001960209485036101000a01908116901990911617905260405191909301819003902091850191909152505085518691506002908110611cd757fe5b60209081029091018101516040805160e060020a63b3a81b65028152600481018a9052600160a060020a038881166024830152915192939186169263b3a81b65926044808401939192918290030181600087803b158015611d3757600080fd5b505af1158015611d4b573d6000803e3d6000fd5b505050506040513d6020811015611d6157600080fd5b505160408051600160a060020a03939093166c01000000000000000000000000026020808501919091526034808501939093528151808503909301835260549093019081905281519192909182918401908083835b60208310611dd55780518252601f199092019160209182019101611db6565b51815160209384036101000a6000190180199092169116179052604080519490920184900390932090860152508301518351109150508015611e1e575060408101516020820151105b1515611e74576040805160e560020a62461bcd02815260206004820152601f60248201527f536f6c7574696f6e2068617368657320617265206e6f7420736f727465642100604482015290519081900360640190fd5b6040805160e060020a63b3a81b6502815260048101889052600160a060020a03868116602483015291519184169163b3a81b65916044808201926020929091908290030181600087803b158015611eca57600080fd5b505af1158015611ede573d6000803e3d6000fd5b505050506040513d6020811015611ef457600080fd5b5051604080517f5006398b00000000000000000000000000000000000000000000000000000000815260048101899052600160a060020a0387811660248301529151600192861691635006398b9160448083019260209291908290030181600087803b158015611f6357600080fd5b505af1158015611f77573d6000803e3d6000fd5b505050506040513d6020811015611f8d57600080fd5b5051835160208086015160408088015181518085019590955284820192909252606080850192909252805180850390920182526080909301928390528051600494850260020a9590950394938902939092918291908401908083835b602083106120085780518252601f199092019160209182019101611fe9565b6001836020036101000a0380198251168184511680821785525050505050509050019150506040518091039020600019169060020a900416600019161415156120c1576040805160e560020a62461bcd02815260206004820152603660248201527f5375626d6974746564206964656e74697469657320646f206e6f7420616e737760448201527f657220746865207461736b20636f72726563746c792100000000000000000000606482015290519081900360840190fd5b505050505050565b6000828211156120d557fe5b50900390565b600080546040805160e260020a630110ceef028152602060048201819052600e60248301527f50726f66696c6553746f726167650000000000000000000000000000000000006044830152915184938493600160a060020a03909116926304433bbc926064808301939282900301818787803b15801561215a57600080fd5b505af115801561216e573d6000803e3d6000fd5b505050506040513d602081101561218457600080fd5b5051600080546040805160e260020a630110ceef028152602060048201819052600e60248301527f486f6c64696e6753746f7261676500000000000000000000000000000000000060448301529151949750600160a060020a03909216936304433bbc936064808501948390030190829087803b15801561220457600080fd5b505af1158015612218573d6000803e3d6000fd5b505050506040513d602081101561222e57600080fd5b5051604080517f1aa063a7000000000000000000000000000000000000000000000000000000008152600481018a9052600160a060020a03898116602483015291519294509084169163d38be5a0918a9188918591631aa063a7916044808201926020929091908290030181600087803b1580156122ab57600080fd5b505af11580156122bf573d6000803e3d6000fd5b505050506040513d60208110156122d557600080fd5b50516040805160e060020a63ffffffff87160281526004810194909452600160a060020a039092166024840152604483015251606480830192600092919082900301818387803b15801561232857600080fd5b505af115801561233c573d6000803e3d6000fd5b5050604080517f530bde3d000000000000000000000000000000000000000000000000000000008152600481018b9052600160a060020a038a8116602483015291516124319450918616925063530bde3d9160448083019260209291908290030181600087803b1580156123af57600080fd5b505af11580156123c3573d6000803e3d6000fd5b505050506040513d60208110156123d957600080fd5b50516040805160e060020a6338d525f1028152600481018b9052600160a060020a038a811660248301529151918616916338d525f1916044808201926020929091908290030181600087803b1580156110cf57600080fd5b905082600160a060020a03166350c3ff57856124da8487600160a060020a0316635ffe02828a6040518263ffffffff1660e060020a0281526004018082600160a060020a0316600160a060020a03168152602001915050602060405180830381600087803b1580156124a257600080fd5b505af11580156124b6573d6000803e3d6000fd5b505050506040513d60208110156124cc57600080fd5b50519063ffffffff612a8316565b6040518363ffffffff1660e060020a0281526004018083600160a060020a0316600160a060020a0316815260200182815260200192505050600060405180830381600087803b15801561252c57600080fd5b505af1158015612540573d6000803e3d6000fd5b50506040805160e060020a6338d525f1028152600481018b9052600160a060020a038a81166024830152915182881694506350c3ff5793508a9261263b92908816916338d525f1916044808201926020929091908290030181600087803b1580156125aa57600080fd5b505af11580156125be573d6000803e3d6000fd5b505050506040513d60208110156125d457600080fd5b5051604080517f5ffe0282000000000000000000000000000000000000000000000000000000008152600160a060020a038d811660048301529151918a1691635ffe0282916024808201926020929091908290030181600087803b1580156110cf57600080fd5b6040518363ffffffff1660e060020a0281526004018083600160a060020a0316600160a060020a0316815260200182815260200192505050600060405180830381600087803b15801561268d57600080fd5b505af11580156126a1573d6000803e3d6000fd5b50506040805160e060020a6338d525f1028152600481018b9052600160a060020a038a811660248301529151828816945063bd3cd52593508a9261279c92908816916338d525f1916044808201926020929091908290030181600087803b15801561270b57600080fd5b505af115801561271f573d6000803e3d6000fd5b505050506040513d602081101561273557600080fd5b5051604080517f7a766460000000000000000000000000000000000000000000000000000000008152600160a060020a038d811660048301529151918a1691637a766460916024808201926020929091908290030181600087803b1580156110cf57600080fd5b6040518363ffffffff1660e060020a0281526004018083600160a060020a0316600160a060020a0316815260200182815260200192505050600060405180830381600087803b1580156127ee57600080fd5b505af1158015612802573d6000803e3d6000fd5b50506040805160e060020a6338d525f1028152600481018b9052600160a060020a038a811660248301529151828816945063bd3cd525935089926128fd92908816916338d525f1916044808201926020929091908290030181600087803b15801561286c57600080fd5b505af1158015612880573d6000803e3d6000fd5b505050506040513d602081101561289657600080fd5b5051604080517f7a766460000000000000000000000000000000000000000000000000000000008152600160a060020a038c811660048301529151918a1691637a766460916024808201926020929091908290030181600087803b1580156124a257600080fd5b6040518363ffffffff1660e060020a0281526004018083600160a060020a0316600160a060020a0316815260200182815260200192505050600060405180830381600087803b15801561294f57600080fd5b505af1158015612963573d6000803e3d6000fd5b5050604080517f324310ee000000000000000000000000000000000000000000000000000000008152600481018b9052600160a060020a038881166024830152604482018690529151918616935063324310ee925060648082019260009290919082900301818387803b1580156129d957600080fd5b505af11580156129ed573d6000803e3d6000fd5b5050604080517f91a70e4f000000000000000000000000000000000000000000000000000000008152600481018b9052600160a060020a038881166024830152426044830152915191861693506391a70e4f925060648082019260009290919082900301818387803b158015612a6257600080fd5b505af1158015612a76573d6000803e3d6000fd5b5050505050505050505050565b600082820183811015612a9257fe5b9392505050565b60606040519081016040528060039060208202803883395091929150505600a165627a7a723058205821e3d50293b7ac9cfd7300654c6683109ff84d812fd76b8fe7c13ea895ab170029",
  "source": "pragma solidity ^0.4.25;\n\nimport {SafeMath} from \"./SafeMath.sol\";\nimport {ERC725} from './ERC725.sol';\nimport {Hub} from \"./Hub.sol\";\nimport {Holding} from \"./Holding.sol\";\nimport {Profile} from \"./Profile.sol\";\nimport {HoldingStorage} from \"./HoldingStorage.sol\";\nimport {ProfileStorage} from \"./ProfileStorage.sol\";\nimport {LitigationStorage} from \"./LitigationStorage.sol\";\n\n/**\n * The Replacement contract\n * Used for replacing a holder after a successful litigation\n */\ncontract Replacement {\n\tusing SafeMath for uint256;\n\n\tHub public hub;\n\tconstructor (address hubAddress) public {\n\t\trequire (hubAddress != address(0), \"Hub contract address cannot be 0!\");\n\t\thub = Hub(hubAddress);\n\t}\n\n\tevent ReplacementCompleted(bytes32 offerId, address challengerIdentity, address chosenHolder);\n\n    function replaceHolder(bytes32 offerId, address holderIdentity, address litigatorIdentity, uint256 shift,\n        bytes confirmation1, bytes confirmation2, bytes confirmation3, address[] replacementHolderIdentity)\n    public {\n        HoldingStorage holdingStorage = HoldingStorage(hub.getContractAddress(\"HoldingStorage\"));\n        LitigationStorage litigationStorage = LitigationStorage(hub.getContractAddress(\"LitigationStorage\"));\n        ProfileStorage profileStorage = ProfileStorage(hub.getContractAddress(\"ProfileStorage\"));\n        \n        require(holdingStorage.getOfferCreator(offerId) == litigatorIdentity, \"Challenger identity not equal to offer creator identity!\");\n        require(ERC725(litigatorIdentity).keyHasPurpose(keccak256(abi.encodePacked(msg.sender)), 2), \"Sender does not have action purpose set!\");\n        require(litigationStorage.getLitigationLitigatorIdentity(offerId, holderIdentity) == litigatorIdentity, \"Holder can only be replaced by the litigator who initiated the litigation!\");\n\n        LitigationStorage.LitigationStatus litigationStatus = litigationStorage.getLitigationStatus(offerId, holderIdentity);\n\n        require(litigationStatus == LitigationStorage.LitigationStatus.replacing, \"Litigation not in status replacing, cannot replace holder!\");\n\n        // Check if signatures match identities\n        require(ERC725(replacementHolderIdentity[0]).keyHasPurpose(keccak256(abi.encodePacked(ecrecovery(keccak256(abi.encodePacked(offerId,uint256(replacementHolderIdentity[0]))), confirmation1))), 4), \"Wallet from holder 1 does not have encryption approval!\");\n        require(ERC725(replacementHolderIdentity[1]).keyHasPurpose(keccak256(abi.encodePacked(ecrecovery(keccak256(abi.encodePacked(offerId,uint256(replacementHolderIdentity[1]))), confirmation2))), 4), \"Wallet from holder 2 does not have encryption approval!\");\n        require(ERC725(replacementHolderIdentity[2]).keyHasPurpose(keccak256(abi.encodePacked(ecrecovery(keccak256(abi.encodePacked(offerId,uint256(replacementHolderIdentity[2]))), confirmation3))), 4), \"Wallet from holder 3 does not have encryption approval!\");\n\n        checkTask(offerId, replacementHolderIdentity, holderIdentity, shift);\n\n        // Set new holders\n        require(profileStorage.getStake(replacementHolderIdentity[block.timestamp % 3]).sub(profileStorage.getStakeReserved(replacementHolderIdentity[block.timestamp % 3])) \n            >= holdingStorage.getHolderStakedAmount(offerId, holderIdentity).sub(holdingStorage.getHolderPaidAmount(offerId, holderIdentity)),\n            \"Replacement holder does not have stake available to take this job!\");\n        require(profileStorage.getStake(replacementHolderIdentity[block.timestamp % 3]) >= Profile(hub.getContractAddress(\"Profile\")).minimalStake(),\n            \"Replacement holder does not have the minimal required stake available to take any new job!\");\n        \n        require(holdingStorage.getHolderStakedAmount(offerId, replacementHolderIdentity[block.timestamp % 3]) == 0, \n            \"Replacement holder was or is already a holder for this data, cannot be set as a new holder!\");\n    \n        setUpHolders(offerId, holderIdentity, litigatorIdentity, replacementHolderIdentity[block.timestamp % 3]);\n        // Set litigation status\n        litigationStorage.setLitigationStatus(offerId, holderIdentity, LitigationStorage.LitigationStatus.replaced);\n        emit ReplacementCompleted(offerId, litigatorIdentity, replacementHolderIdentity[block.timestamp % 3]);\n    }\n\n    function checkTask(bytes32 offerId, address[] replacementHolderIdentity, address holderIdentity, uint256 shift)\n    internal {\n        LitigationStorage litigationStorage = LitigationStorage(hub.getContractAddress(\"LitigationStorage\"));\n\n        bytes32[3] memory hashes;\n\n        hashes[0] = keccak256(abi.encodePacked(replacementHolderIdentity[0], litigationStorage.getLitigationReplacementTask(bytes32(offerId), holderIdentity)));\n        hashes[1] = keccak256(abi.encodePacked(replacementHolderIdentity[1], litigationStorage.getLitigationReplacementTask(bytes32(offerId), holderIdentity)));\n        hashes[2] = keccak256(abi.encodePacked(replacementHolderIdentity[2], litigationStorage.getLitigationReplacementTask(bytes32(offerId), holderIdentity)));\n\n        require(uint256(hashes[0]) < uint256(hashes[1]) && uint256(hashes[1]) < uint256(hashes[2]), \"Solution hashes are not sorted!\");\n\n        // Verify task answer\n        require(((keccak256(abi.encodePacked(hashes[0], hashes[1], hashes[2])) >> (shift * 4)) & bytes32((2 ** (4 * litigationStorage.getLitigationReplacementDifficulty(bytes32(offerId), holderIdentity))) - 1)) == litigationStorage.getLitigationReplacementTask(bytes32(offerId), holderIdentity), \"Submitted identities do not answer the task correctly!\");\n    }\n\n    function setUpHolders(bytes32 offerId, address holderIdentity, address litigatorIdentity, address replacementHolderIdentity)\n    internal {\n        ProfileStorage profileStorage = ProfileStorage(hub.getContractAddress(\"ProfileStorage\"));\n        HoldingStorage holdingStorage = HoldingStorage(hub.getContractAddress(\"HoldingStorage\"));\n\n        holdingStorage.setHolderLitigationEncryptionType(offerId, replacementHolderIdentity, holdingStorage.getHolderLitigationEncryptionType(offerId, holderIdentity));\n\n        uint256 newStakedAmount = holdingStorage.getHolderStakedAmount(offerId, holderIdentity).sub(holdingStorage.getHolderPaidAmount(offerId, holderIdentity));\n        // Reserve new holder stake in their profile\n        profileStorage.setStakeReserved(\n            replacementHolderIdentity,\n            profileStorage.getStakeReserved(replacementHolderIdentity).add(newStakedAmount)\n        );\n        \n        // Remove the previous holder's stake and move it to the litigator\n        // Remove holder stake from reserved\n        profileStorage.setStakeReserved(\n            holderIdentity,\n            profileStorage.getStakeReserved(holderIdentity).sub(holdingStorage.getHolderStakedAmount(offerId, holderIdentity))\n        );\n        // Remove holder stake\n        profileStorage.setStake(\n            holderIdentity,\n            profileStorage.getStake(holderIdentity).sub(holdingStorage.getHolderStakedAmount(offerId, holderIdentity))\n        );\n        // Add stake to litigator\n        profileStorage.setStake(\n            litigatorIdentity,\n            profileStorage.getStake(litigatorIdentity).add(holdingStorage.getHolderStakedAmount(offerId, holderIdentity))\n        );\n        \n        // Set new holder staked amounts\n        holdingStorage.setHolderStakedAmount(offerId, replacementHolderIdentity, newStakedAmount);\n      \n        // Set payment timestamps for new holders\n        holdingStorage.setHolderPaymentTimestamp(offerId, replacementHolderIdentity, block.timestamp);\n    }\n\n    function ecrecovery(bytes32 hash, bytes sig) internal pure returns (address) {\n        bytes32 r;\n        bytes32 s;\n        uint8 v;\n\n        if (sig.length != 65)\n          return address(0);\n\n        bytes memory prefix = \"\\x19Ethereum Signed Message:\\n32\";\n        bytes32 prefixedHash = keccak256(abi.encodePacked(prefix, hash));\n    \n        // The signature format is a compact form of:\n        //   {bytes32 r}{bytes32 s}{uint8 v}\n        // Compact means, uint8 is not padded to 32 bytes.\n        assembly {\n            r := mload(add(sig, 32))\n            s := mload(add(sig, 64))\n\n            // Here we are loading the last 32 bytes. We exploit the fact that\n            // 'mload' will pad with zeroes if we overread.\n            // There is no 'mload8' to do this, but that would be nicer.\n            v := byte(0, mload(add(sig, 96)))\n        }\n\n        // geth uses [0, 1] and some clients have followed. This might change, see:\n        //  https://github.com/ethereum/go-ethereum/issues/2053\n        if (v < 27) v += 27;\n\n        if (v != 27 && v != 28) return address(0);\n\n        return ecrecover(prefixedHash, v, r, s);\n    }\n\n    function logs2(uint x) internal pure returns (uint y){\n        require(x > 0, \"log(0) not allowed\");\n        assembly {\n            let arg := x\n            x := sub(x,1)\n            x := or(x, div(x, 0x02))\n            x := or(x, div(x, 0x04))\n            x := or(x, div(x, 0x10))\n            x := or(x, div(x, 0x100))\n            x := or(x, div(x, 0x10000))\n            x := or(x, div(x, 0x100000000))\n            x := or(x, div(x, 0x10000000000000000))\n            x := or(x, div(x, 0x100000000000000000000000000000000))\n            x := add(x, 1)\n            let m := mload(0x40)\n            mstore(m,           0xf8f9cbfae6cc78fbefe7cdc3a1793dfcf4f0e8bbd8cec470b6a28a7a5a3e1efd)\n            mstore(add(m,0x20), 0xf5ecf1b3e9debc68e1d9cfabc5997135bfb7a7a3938b7b606b5b4b3f2f1f0ffe)\n            mstore(add(m,0x40), 0xf6e4ed9ff2d6b458eadcdf97bd91692de2d4da8fd2d0ac50c6ae9a8272523616)\n            mstore(add(m,0x60), 0xc8c0b887b0a8a4489c948c7f847c6125746c645c544c444038302820181008ff)\n            mstore(add(m,0x80), 0xf7cae577eec2a03cf3bad76fb589591debb2dd67e0aa9834bea6925f6a4a2e0e)\n            mstore(add(m,0xa0), 0xe39ed557db96902cd38ed14fad815115c786af479b7e83247363534337271707)\n            mstore(add(m,0xc0), 0xc976c13bb96e881cb166a933a55e490d9d56952b8d4e801485467d2362422606)\n            mstore(add(m,0xe0), 0x753a6d1b65325d0c552a4d1345224105391a310b29122104190a110309020100)\n            mstore(0x40, add(m, 0x100))\n            let magic := 0x818283848586878898a8b8c8d8e8f929395969799a9b9d9e9faaeb6bedeeff\n            let shift := 0x100000000000000000000000000000000000000000000000000000000000000\n            let a := div(mul(x, magic), shift)\n            y := div(mload(add(m,sub(255,a))), shift)\n            y := add(y, mul(256, gt(arg, 0x8000000000000000000000000000000000000000000000000000000000000000)))\n        }\n    }\n\n\n}\n",
  "sourcePath": "/Users/miloskotlar/ot-node/modules/Blockchain/Polygon/contracts/Replacement.sol",
  "compiler": {
    "name": "solc",
    "version": "0.4.25+commit.59dbf8f1.Emscripten.clang"
  },
  "schemaVersion": "3.0.0-beta.1",
  "updatedAt": "2021-08-16T09:42:48.487Z"
}