{
  "contractName": "TestingUtilities",
  "abi": [
    {
      "anonymous": false,
      "inputs": [
        {
          "indexed": false,
          "name": "a",
          "type": "uint256"
        }
      ],
      "name": "PreIPosle",
      "type": "event"
    },
    {
      "constant": true,
      "inputs": [
        {
          "name": "message",
          "type": "bytes32"
        },
        {
          "name": "signature",
          "type": "bytes"
        }
      ],
      "name": "ecrecovery",
      "outputs": [
        {
          "name": "",
          "type": "address"
        }
      ],
      "payable": false,
      "stateMutability": "pure",
      "type": "function"
    },
    {
      "constant": true,
      "inputs": [
        {
          "name": "holderIdentity0",
          "type": "address"
        },
        {
          "name": "holderIdentity1",
          "type": "address"
        },
        {
          "name": "holderIdentity2",
          "type": "address"
        },
        {
          "name": "shift",
          "type": "uint256"
        }
      ],
      "name": "getSolution",
      "outputs": [
        {
          "name": "",
          "type": "bytes32"
        }
      ],
      "payable": false,
      "stateMutability": "pure",
      "type": "function"
    },
    {
      "constant": true,
      "inputs": [
        {
          "name": "a",
          "type": "bytes32"
        },
        {
          "name": "b",
          "type": "address"
        }
      ],
      "name": "keccakBytesAddress",
      "outputs": [
        {
          "name": "",
          "type": "bytes32"
        }
      ],
      "payable": false,
      "stateMutability": "pure",
      "type": "function"
    },
    {
      "constant": true,
      "inputs": [
        {
          "name": "a",
          "type": "bytes32"
        },
        {
          "name": "b",
          "type": "address"
        },
        {
          "name": "c",
          "type": "uint256"
        }
      ],
      "name": "keccakBytesAddressNumber",
      "outputs": [
        {
          "name": "",
          "type": "bytes32"
        }
      ],
      "payable": false,
      "stateMutability": "pure",
      "type": "function"
    },
    {
      "constant": true,
      "inputs": [
        {
          "name": "a",
          "type": "address"
        },
        {
          "name": "b",
          "type": "address"
        },
        {
          "name": "c",
          "type": "address"
        }
      ],
      "name": "keccakAddressAddressAddress",
      "outputs": [
        {
          "name": "",
          "type": "bytes32"
        }
      ],
      "payable": false,
      "stateMutability": "pure",
      "type": "function"
    },
    {
      "constant": true,
      "inputs": [
        {
          "name": "a",
          "type": "bytes32"
        },
        {
          "name": "b",
          "type": "bytes32"
        },
        {
          "name": "c",
          "type": "bytes32"
        }
      ],
      "name": "keccakBytesBytesBytes",
      "outputs": [
        {
          "name": "",
          "type": "bytes32"
        }
      ],
      "payable": false,
      "stateMutability": "pure",
      "type": "function"
    },
    {
      "constant": true,
      "inputs": [
        {
          "name": "a",
          "type": "bytes32"
        },
        {
          "name": "b",
          "type": "bytes32"
        }
      ],
      "name": "keccakBytesBytes",
      "outputs": [
        {
          "name": "",
          "type": "bytes32"
        }
      ],
      "payable": false,
      "stateMutability": "pure",
      "type": "function"
    },
    {
      "constant": true,
      "inputs": [
        {
          "name": "_index",
          "type": "uint256"
        },
        {
          "name": "key",
          "type": "bytes32"
        },
        {
          "name": "_ciphertext",
          "type": "bytes32"
        }
      ],
      "name": "decryptCiphertext",
      "outputs": [
        {
          "name": "",
          "type": "bytes32"
        }
      ],
      "payable": false,
      "stateMutability": "pure",
      "type": "function"
    },
    {
      "constant": true,
      "inputs": [
        {
          "name": "a",
          "type": "address"
        }
      ],
      "name": "keccakAddress",
      "outputs": [
        {
          "name": "",
          "type": "bytes32"
        }
      ],
      "payable": false,
      "stateMutability": "pure",
      "type": "function"
    },
    {
      "constant": true,
      "inputs": [
        {
          "name": "a",
          "type": "bytes32"
        },
        {
          "name": "b",
          "type": "bytes32"
        }
      ],
      "name": "keccak2hashes",
      "outputs": [
        {
          "name": "",
          "type": "bytes32"
        }
      ],
      "payable": false,
      "stateMutability": "pure",
      "type": "function"
    },
    {
      "constant": true,
      "inputs": [
        {
          "name": "a",
          "type": "string"
        }
      ],
      "name": "keccakString",
      "outputs": [
        {
          "name": "",
          "type": "bytes32"
        }
      ],
      "payable": false,
      "stateMutability": "pure",
      "type": "function"
    },
    {
      "constant": true,
      "inputs": [
        {
          "name": "a",
          "type": "bytes32"
        },
        {
          "name": "b",
          "type": "uint256"
        }
      ],
      "name": "keccakIndex",
      "outputs": [
        {
          "name": "",
          "type": "bytes32"
        }
      ],
      "payable": false,
      "stateMutability": "pure",
      "type": "function"
    },
    {
      "constant": true,
      "inputs": [
        {
          "name": "a",
          "type": "bytes32"
        },
        {
          "name": "b",
          "type": "uint256"
        },
        {
          "name": "c",
          "type": "uint256"
        }
      ],
      "name": "keccakIndexIndex",
      "outputs": [
        {
          "name": "",
          "type": "bytes32"
        }
      ],
      "payable": false,
      "stateMutability": "pure",
      "type": "function"
    },
    {
      "constant": true,
      "inputs": [],
      "name": "keccakSender",
      "outputs": [
        {
          "name": "",
          "type": "bytes32"
        }
      ],
      "payable": false,
      "stateMutability": "view",
      "type": "function"
    },
    {
      "constant": true,
      "inputs": [
        {
          "name": "adr",
          "type": "address"
        },
        {
          "name": "byt",
          "type": "bytes32"
        }
      ],
      "name": "keccakAddressBytes",
      "outputs": [
        {
          "name": "",
          "type": "bytes32"
        }
      ],
      "payable": false,
      "stateMutability": "pure",
      "type": "function"
    },
    {
      "constant": true,
      "inputs": [
        {
          "name": "adr",
          "type": "address"
        },
        {
          "name": "nod_id",
          "type": "bytes32"
        },
        {
          "name": "data_id",
          "type": "uint256"
        }
      ],
      "name": "keccakOffer",
      "outputs": [
        {
          "name": "",
          "type": "bytes32"
        }
      ],
      "payable": false,
      "stateMutability": "pure",
      "type": "function"
    },
    {
      "constant": true,
      "inputs": [],
      "name": "getBlockTimestamp",
      "outputs": [
        {
          "name": "",
          "type": "uint256"
        }
      ],
      "payable": false,
      "stateMutability": "view",
      "type": "function"
    },
    {
      "constant": true,
      "inputs": [],
      "name": "getBlockNumber",
      "outputs": [
        {
          "name": "",
          "type": "uint256"
        }
      ],
      "payable": false,
      "stateMutability": "view",
      "type": "function"
    },
    {
      "constant": true,
      "inputs": [
        {
          "name": "byt1",
          "type": "bytes32"
        },
        {
          "name": "byt2",
          "type": "bytes32"
        }
      ],
      "name": "xorBytes",
      "outputs": [
        {
          "name": "",
          "type": "bytes32"
        }
      ],
      "payable": false,
      "stateMutability": "pure",
      "type": "function"
    },
    {
      "constant": false,
      "inputs": [],
      "name": "moveTheBlock",
      "outputs": [],
      "payable": false,
      "stateMutability": "nonpayable",
      "type": "function"
    },
    {
      "constant": true,
      "inputs": [
        {
          "name": "offer_hash",
          "type": "bytes32"
        },
        {
          "name": "DH_wallet",
          "type": "address"
        },
        {
          "name": "DH_node_id",
          "type": "bytes32"
        }
      ],
      "name": "escrowHash",
      "outputs": [
        {
          "name": "",
          "type": "bytes32"
        }
      ],
      "payable": false,
      "stateMutability": "pure",
      "type": "function"
    },
    {
      "constant": false,
      "inputs": [],
      "name": "error",
      "outputs": [],
      "payable": false,
      "stateMutability": "nonpayable",
      "type": "function"
    }
  ],
  "bytecode": "0x608060405234801561001057600080fd5b50610cb0806100206000396000f3006080604052600436106101275763ffffffff7c01000000000000000000000000000000000000000000000000000000006000350416632a2a6e25811461012c578063375bbfd3146101655780633db213e41461018657806342cbb15c1461019d57806355725171146101b25780636fdfb93f146101cd57806373227221146101fa57806377d32e9414610215578063796b89b91461028f5780638443d090146102a45780638ab4ac5d146102fd5780638e2b86a8146103215780638ec04df01461034857806392b775c61461035d578063b8f185971461037b578063bd1b04011461039f578063be0b3cc6146101b2578063bf86ba6c146103c6578063c79f8b62146103e4578063c941d3b5146103c6578063eab7b4cb146103f9578063efa5ed17146101b2575b600080fd5b34801561013857600080fd5b50610153600435600160a060020a0360243516604435610429565b60408051918252519081900360200190f35b34801561017157600080fd5b50610153600160a060020a03600435166104d0565b34801561019257600080fd5b5061019b610574565b005b3480156101a957600080fd5b50610153610588565b3480156101be57600080fd5b5061015360043560243561058c565b3480156101d957600080fd5b50610153600160a060020a0360043581169060243581169060443516610612565b34801561020657600080fd5b50610153600435602435610690565b34801561022157600080fd5b5060408051602060046024803582810135601f81018590048502860185019096528585526102739583359536956044949193909101919081908401838280828437509497506106949650505050505050565b60408051600160a060020a039092168252519081900360200190f35b34801561029b57600080fd5b50610153610870565b3480156102b057600080fd5b506040805160206004803580820135601f81018490048402850184019095528484526101539436949293602493928401919081908401838280828437509497506108749650505050505050565b34801561030957600080fd5b50610153600435600160a060020a036024351661090b565b34801561032d57600080fd5b50610153600435600160a060020a0360243516604435610965565b34801561035457600080fd5b506101536109c8565b34801561036957600080fd5b50610153600435602435604435610a59565b34801561038757600080fd5b50610153600160a060020a0360043516602435610ae6565b3480156103ab57600080fd5b50610153600160a060020a0360043516602435604435610b55565b3480156103d257600080fd5b50610153600435602435604435610bcb565b3480156103f057600080fd5b5061019b610c26565b34801561040557600080fd5b50610153600160a060020a0360043581169060243581169060443516606435610c5f565b6040805160208082018690526c01000000000000000000000000600160a060020a03861602828401526054808301859052835180840390910181526074909201928390528151600093918291908401908083835b6020831061049c5780518252601f19909201916020918201910161047d565b5181516020939093036101000a60001901801990911692169190911790526040519201829003909120979650505050505050565b6000816040516020018082600160a060020a0316600160a060020a03166c010000000000000000000000000281526014019150506040516020818303038152906040526040518082805190602001908083835b602083106105425780518252601f199092019160209182019101610523565b5181516020939093036101000a6000190180199091169216919091179052604051920182900390912095945050505050565b6000805460ff19811660ff90911615179055565b4390565b6040805160208082018590528183018490528251808303840181526060909201928390528151600093918291908401908083835b602083106105df5780518252601f1990920191602091820191016105c0565b5181516020939093036101000a600019018019909116921691909117905260405192018290039091209695505050505050565b604080516c01000000000000000000000000600160a060020a0380871682026020808501919091528187168302603485015290851690910260488301528251603c818403018152605c909201928390528151600093918291908401908083836020831061049c5780518252601f19909201916020918201910161047d565b1890565b60008060008060606000865160411415156106b25760009550610865565b6040805190810160405280601c81526020017f19457468657265756d205369676e6564204d6573736167653a0a333200000000815250915081886040516020018083805190602001908083835b6020831061071e5780518252601f1990920191602091820191016106ff565b51815160209384036101000a600019018019909216911617905292019384525060408051808503815293820190819052835193945092839250908401908083835b6020831061077e5780518252601f19909201916020918201910161075f565b6001836020036101000a038019825116818451168082178552505050505050905001915050604051809103902090506020870151945060408701519350606087015160001a9250601b8360ff1610156107d857601b830192505b8260ff16601b141580156107f057508260ff16601c14155b156107fe5760009550610865565b604080516000808252602080830180855285905260ff8716838501526060830189905260808301889052925160019360a0808501949193601f19840193928390039091019190865af1158015610858573d6000803e3d6000fd5b5050506020604051035195505b505050505092915050565b4290565b6000816040516020018082805190602001908083835b602083106108a95780518252601f19909201916020918201910161088a565b6001836020036101000a038019825116818451168082178552505050505050905001915050604051602081830303815290604052604051808280519060200190808383602083106105425780518252601f199092019160209182019101610523565b604080516020808201859052600160a060020a03841682840152825180830384018152606090920192839052815160009391829190840190808383602083106105df5780518252601f1990920191602091820191016105c0565b604080516020808201869052600160a060020a038516828401526060808301859052835180840390910181526080909201928390528151600093918291908401908083836020831061049c5780518252601f19909201916020918201910161047d565b604080516c010000000000000000000000003302602080830191909152825180830360140181526034909201928390528151600093918291908401908083835b60208310610a275780518252601f199092019160209182019101610a08565b6001836020036101000a0380198251168184511680821785525050505050509050019150506040518091039020905090565b6040805160208082018590528183018690528251808303840181526060909201928390528151600093859392909182918401908083835b60208310610aaf5780518252601f199092019160209182019101610a90565b6001836020036101000a03801982511681845116808217855250505050505090500191505060405180910390201890509392505050565b604080516c01000000000000000000000000600160a060020a03851602602080830191909152603480830185905283518084039091018152605490920192839052815160009391829190840190808383602083106105df5780518252601f1990920191602091820191016105c0565b604080516c01000000000000000000000000600160a060020a03861602602080830191909152603482018590526054808301859052835180840390910181526074909201928390528151600093918291908401908083836020831061049c5780518252601f19909201916020918201910161047d565b6040805160208082018690528183018590526060808301859052835180840390910181526080909201928390528151600093918291908401908083836020831061049c5780518252601f19909201916020918201910161047d565b604080516001815290517fd0afe8a5781ad1f86b9bafa159b57fea1d193fcc61b83185d84108027294784e9181900360200190a1600080fd5b6000600f60048302610c72878787610612565b60029190910a900416959450505050505600a165627a7a72305820a64b7777f3f0128127d325572fdbc750e6301cba0dd9d574ab1c22a53b12c1860029",
  "source": "pragma solidity ^0.4.19;\n\ncontract TestingUtilities{\n\tbool internalData;\n\n\tfunction ecrecovery(bytes32 message, bytes signature) \n\tpublic pure returns (address) {\n\t\tbytes32 r;\n        bytes32 s;\n        uint8 v;\n\n        if (signature.length != 65)\n          return address(0);\n\n        bytes memory prefix = \"\\x19Ethereum Signed Message:\\n32\";\n        bytes32 prefixedHash = keccak256(abi.encodePacked(prefix, message));\n  \n        // The signature format is a compact form of:\n        //   {bytes32 r}{bytes32 s}{uint8 v}\n        // Compact means, uint8 is not padded to 32 bytes.\n        assembly {\n            r := mload(add(signature, 32))\n            s := mload(add(signature, 64))\n\n            // Here we are loading the last 32 bytes. We exploit the fact that\n            // 'mload' will pad with zeroes if we overread.\n            // There is no 'mload8' to do this, but that would be nicer.\n            v := byte(0, mload(add(signature, 96)))\n        }\n\n        // geth uses [0, 1] and some clients have followed. This might change, see:\n        //  https://github.com/ethereum/go-ethereum/issues/2053\n        if (v < 27) v += 27;\n\n        if (v != 27 && v != 28) return address(0);\n\n        return ecrecover(prefixedHash, v, r, s);\n\t}\n\n\tfunction getSolution(address holderIdentity0, address holderIdentity1, address holderIdentity2, uint256 shift)\n\tpublic pure returns (bytes32) {\n\t\treturn ( (keccakAddressAddressAddress(holderIdentity0, holderIdentity1, holderIdentity2) >> (shift * 4)) & bytes32( 2 ** (4 * 1) - 1));\n\t}\n\n\n\tfunction keccakBytesAddress(bytes32 a, address b)\n\tpublic pure returns (bytes32) {\n\t\treturn keccak256(abi.encodePacked(uint256(a),uint256(b)));\n\t}\n\n\tfunction keccakBytesAddressNumber(bytes32 a, address b, uint256 c)\n\tpublic pure returns (bytes32) {\n\t\treturn keccak256(abi.encodePacked(uint256(a),uint256(b),uint256(c)));\n\t}\n\n\tfunction keccakAddressAddressAddress(address a, address b, address c)\n\tpublic pure returns (bytes32) {\n\t\treturn keccak256(abi.encodePacked(a,b,c));\n\t}\n\n\tfunction keccakBytesBytesBytes(bytes32 a, bytes32 b, bytes32 c)\n\tpublic pure returns (bytes32) {\n\t\treturn keccak256(abi.encodePacked(a,b,c));\n\t}\n\n\tfunction keccakBytesBytes(bytes32 a, bytes32 b)\n\tpublic pure returns (bytes32) {\n\t\treturn keccak256(abi.encodePacked(a,b));\n\t}\n\n\t// function to decrypt hashes of the merkle tree\n\tfunction decryptCiphertext(uint _index, bytes32 key, bytes32 _ciphertext) public pure returns (bytes32){\n\t\treturn keccak256(abi.encodePacked(key, _index)) ^ _ciphertext;\n\t}\n\n\tfunction keccakAddress(address a)\n\tpublic pure returns (bytes32) {\n\t\treturn keccak256(abi.encodePacked(a));\n\t}\n\n\tfunction keccak2hashes(bytes32 a, bytes32 b)\n\tpublic pure returns (bytes32){\n\t\treturn keccak256(abi.encodePacked(a,b));\n\t}\n\n\tfunction keccakString(string a)\n\tpublic pure returns (bytes32){\n\t\treturn keccak256(abi.encodePacked(a));\n\t}\n\n\tfunction keccakIndex(bytes32 a, uint b)\n\tpublic pure returns (bytes32){\n\t\treturn keccak256(abi.encodePacked(a,b));\n\t}\n\n\tfunction keccakIndexIndex(bytes32 a, uint b, uint c)\n\tpublic pure returns (bytes32){\n\t\treturn keccak256(abi.encodePacked(a,b,c));\n\t}\n\n\tfunction keccakSender()\n\tpublic view returns (bytes32){\n\t\treturn keccak256(abi.encodePacked(msg.sender));\n\t}\n\n\tfunction keccakAddressBytes(address adr, bytes32 byt)\n\tpublic pure returns (bytes32){\n\t\treturn keccak256(abi.encodePacked(adr, byt));\n\t}\n\n\tfunction keccakOffer(address adr, bytes32 nod_id, uint data_id)\n\tpublic pure returns (bytes32){\n\t\treturn keccak256(abi.encodePacked(adr, nod_id, data_id));\n\t}\n\n\tfunction getBlockTimestamp()\n\tpublic view returns (uint){\n\t\treturn block.timestamp;\n\t}\n\n\tfunction getBlockNumber()\n\tpublic view returns (uint){\n\t\treturn block.number;\n\t}\n\n\tfunction xorBytes(bytes32 byt1, bytes32 byt2)\n\tpublic pure returns (bytes32){\n\t\treturn byt1 ^ byt2;\n\t}\n\n\tfunction moveTheBlock()\n\tpublic{\n\t\tinternalData = !internalData;\n\t}\n\n\tfunction escrowHash(bytes32 offer_hash, address DH_wallet, bytes32 DH_node_id)\n\tpublic pure returns (bytes32){\n\t\treturn keccak256(abi.encodePacked(offer_hash, DH_wallet, DH_node_id));\n\t}\n\n\tevent PreIPosle(uint a);\n\n\tfunction error()\n\tpublic{\n\t\temit PreIPosle(1);\n\t\trequire(false);\n\t\temit PreIPosle(2);\n\t}\n}",
  "sourcePath": "/Users/miloskotlar/ot-node/modules/Blockchain/Polygon/contracts/TestingUtilities.sol",
  "compiler": {
    "name": "solc",
    "version": "0.4.25+commit.59dbf8f1.Emscripten.clang"
  },
  "schemaVersion": "3.0.0-beta.1",
  "updatedAt": "2021-08-16T09:42:48.608Z"
}