{
  "contractName": "TracToken",
  "abi": [
    {
      "constant": true,
      "inputs": [],
      "name": "mintingFinished",
      "outputs": [
        {
          "name": "",
          "type": "bool"
        }
      ],
      "payable": false,
      "stateMutability": "view",
      "type": "function",
      "signature": "0x05d2035b"
    },
    {
      "constant": true,
      "inputs": [
        {
          "name": "",
          "type": "uint256"
        }
      ],
      "name": "preicoAndAdvisorsAmounts",
      "outputs": [
        {
          "name": "",
          "type": "uint256"
        }
      ],
      "payable": false,
      "stateMutability": "view",
      "type": "function",
      "signature": "0x0688ec24"
    },
    {
      "constant": true,
      "inputs": [],
      "name": "name",
      "outputs": [
        {
          "name": "",
          "type": "string"
        }
      ],
      "payable": false,
      "stateMutability": "view",
      "type": "function",
      "signature": "0x06fdde03"
    },
    {
      "constant": false,
      "inputs": [
        {
          "name": "_spender",
          "type": "address"
        },
        {
          "name": "_value",
          "type": "uint256"
        }
      ],
      "name": "approve",
      "outputs": [
        {
          "name": "",
          "type": "bool"
        }
      ],
      "payable": false,
      "stateMutability": "nonpayable",
      "type": "function",
      "signature": "0x095ea7b3"
    },
    {
      "constant": true,
      "inputs": [],
      "name": "totalSupply",
      "outputs": [
        {
          "name": "",
          "type": "uint256"
        }
      ],
      "payable": false,
      "stateMutability": "view",
      "type": "function",
      "signature": "0x18160ddd"
    },
    {
      "constant": true,
      "inputs": [],
      "name": "decimals",
      "outputs": [
        {
          "name": "",
          "type": "uint8"
        }
      ],
      "payable": false,
      "stateMutability": "view",
      "type": "function",
      "signature": "0x313ce567"
    },
    {
      "constant": true,
      "inputs": [],
      "name": "wallet",
      "outputs": [
        {
          "name": "",
          "type": "address"
        }
      ],
      "payable": false,
      "stateMutability": "view",
      "type": "function",
      "signature": "0x521eb273"
    },
    {
      "constant": false,
      "inputs": [
        {
          "name": "_spender",
          "type": "address"
        },
        {
          "name": "_subtractedValue",
          "type": "uint256"
        }
      ],
      "name": "decreaseApproval",
      "outputs": [
        {
          "name": "success",
          "type": "bool"
        }
      ],
      "payable": false,
      "stateMutability": "nonpayable",
      "type": "function",
      "signature": "0x66188463"
    },
    {
      "constant": true,
      "inputs": [],
      "name": "liquidityPool",
      "outputs": [
        {
          "name": "",
          "type": "uint256"
        }
      ],
      "payable": false,
      "stateMutability": "view",
      "type": "function",
      "signature": "0x665a11ca"
    },
    {
      "constant": true,
      "inputs": [
        {
          "name": "_owner",
          "type": "address"
        }
      ],
      "name": "balanceOf",
      "outputs": [
        {
          "name": "balance",
          "type": "uint256"
        }
      ],
      "payable": false,
      "stateMutability": "view",
      "type": "function",
      "signature": "0x70a08231"
    },
    {
      "constant": true,
      "inputs": [],
      "name": "startTime",
      "outputs": [
        {
          "name": "",
          "type": "uint256"
        }
      ],
      "payable": false,
      "stateMutability": "view",
      "type": "function",
      "signature": "0x78e97925"
    },
    {
      "constant": false,
      "inputs": [],
      "name": "finishMinting",
      "outputs": [
        {
          "name": "",
          "type": "bool"
        }
      ],
      "payable": false,
      "stateMutability": "nonpayable",
      "type": "function",
      "signature": "0x7d64bcb4"
    },
    {
      "constant": true,
      "inputs": [],
      "name": "preicoAndAdvisors",
      "outputs": [
        {
          "name": "",
          "type": "uint256"
        }
      ],
      "payable": false,
      "stateMutability": "view",
      "type": "function",
      "signature": "0x8883478e"
    },
    {
      "constant": true,
      "inputs": [],
      "name": "teamAndFoundersWallet",
      "outputs": [
        {
          "name": "",
          "type": "address"
        }
      ],
      "payable": false,
      "stateMutability": "view",
      "type": "function",
      "signature": "0x8b8ecffa"
    },
    {
      "constant": true,
      "inputs": [],
      "name": "owner",
      "outputs": [
        {
          "name": "",
          "type": "address"
        }
      ],
      "payable": false,
      "stateMutability": "view",
      "type": "function",
      "signature": "0x8da5cb5b"
    },
    {
      "constant": true,
      "inputs": [],
      "name": "symbol",
      "outputs": [
        {
          "name": "",
          "type": "string"
        }
      ],
      "payable": false,
      "stateMutability": "view",
      "type": "function",
      "signature": "0x95d89b41"
    },
    {
      "constant": true,
      "inputs": [],
      "name": "bountyReward",
      "outputs": [
        {
          "name": "",
          "type": "uint256"
        }
      ],
      "payable": false,
      "stateMutability": "view",
      "type": "function",
      "signature": "0xa10f43a3"
    },
    {
      "constant": true,
      "inputs": [],
      "name": "futureDevelopment",
      "outputs": [
        {
          "name": "",
          "type": "uint256"
        }
      ],
      "payable": false,
      "stateMutability": "view",
      "type": "function",
      "signature": "0xa2948cdf"
    },
    {
      "constant": true,
      "inputs": [],
      "name": "advisorsAndPreICO",
      "outputs": [
        {
          "name": "",
          "type": "address"
        }
      ],
      "payable": false,
      "stateMutability": "view",
      "type": "function",
      "signature": "0xc2572c51"
    },
    {
      "constant": true,
      "inputs": [],
      "name": "teamAndFounders",
      "outputs": [
        {
          "name": "",
          "type": "uint256"
        }
      ],
      "payable": false,
      "stateMutability": "view",
      "type": "function",
      "signature": "0xc519099d"
    },
    {
      "constant": true,
      "inputs": [],
      "name": "TOTAL_NUM_TOKENS",
      "outputs": [
        {
          "name": "",
          "type": "uint256"
        }
      ],
      "payable": false,
      "stateMutability": "view",
      "type": "function",
      "signature": "0xc8e7e5ef"
    },
    {
      "constant": true,
      "inputs": [],
      "name": "CORRECTION",
      "outputs": [
        {
          "name": "",
          "type": "uint256"
        }
      ],
      "payable": false,
      "stateMutability": "view",
      "type": "function",
      "signature": "0xce5e9ffb"
    },
    {
      "constant": false,
      "inputs": [
        {
          "name": "_spender",
          "type": "address"
        },
        {
          "name": "_addedValue",
          "type": "uint256"
        }
      ],
      "name": "increaseApproval",
      "outputs": [
        {
          "name": "success",
          "type": "bool"
        }
      ],
      "payable": false,
      "stateMutability": "nonpayable",
      "type": "function",
      "signature": "0xd73dd623"
    },
    {
      "constant": true,
      "inputs": [
        {
          "name": "_owner",
          "type": "address"
        },
        {
          "name": "_spender",
          "type": "address"
        }
      ],
      "name": "allowance",
      "outputs": [
        {
          "name": "remaining",
          "type": "uint256"
        }
      ],
      "payable": false,
      "stateMutability": "view",
      "type": "function",
      "signature": "0xdd62ed3e"
    },
    {
      "constant": false,
      "inputs": [
        {
          "name": "newOwner",
          "type": "address"
        }
      ],
      "name": "transferOwnership",
      "outputs": [],
      "payable": false,
      "stateMutability": "nonpayable",
      "type": "function",
      "signature": "0xf2fde38b"
    },
    {
      "constant": true,
      "inputs": [
        {
          "name": "",
          "type": "uint256"
        }
      ],
      "name": "founderAmounts",
      "outputs": [
        {
          "name": "",
          "type": "uint256"
        }
      ],
      "payable": false,
      "stateMutability": "view",
      "type": "function",
      "signature": "0xfff83edf"
    },
    {
      "inputs": [
        {
          "name": "_wallet",
          "type": "address"
        },
        {
          "name": "_teamAndFoundersWallet",
          "type": "address"
        },
        {
          "name": "_advisorsAndPreICO",
          "type": "address"
        }
      ],
      "payable": false,
      "stateMutability": "nonpayable",
      "type": "constructor",
      "signature": "constructor"
    },
    {
      "anonymous": false,
      "inputs": [
        {
          "indexed": true,
          "name": "from",
          "type": "address"
        },
        {
          "indexed": true,
          "name": "to",
          "type": "address"
        },
        {
          "indexed": false,
          "name": "value",
          "type": "uint256"
        }
      ],
      "name": "Transfer",
      "type": "event",
      "signature": "0xddf252ad1be2c89b69c2b068fc378daa952ba7f163c4a11628f55a4df523b3ef"
    },
    {
      "anonymous": false,
      "inputs": [
        {
          "indexed": false,
          "name": "transferIsAllowed",
          "type": "bool"
        }
      ],
      "name": "TransferAllowed",
      "type": "event",
      "signature": "0x09453fb3c77c88037c1b664345201b4e2c2e71c35ef789fb3f61972c140e0ac5"
    },
    {
      "anonymous": false,
      "inputs": [
        {
          "indexed": true,
          "name": "to",
          "type": "address"
        },
        {
          "indexed": false,
          "name": "amount",
          "type": "uint256"
        }
      ],
      "name": "Mint",
      "type": "event",
      "signature": "0x0f6798a560793a54c3bcfe86a93cde1e73087d944c0ea20544137d4121396885"
    },
    {
      "anonymous": false,
      "inputs": [],
      "name": "MintFinished",
      "type": "event",
      "signature": "0xae5184fba832cb2b1f702aca6117b8d265eaf03ad33eb133f19dde0f5920fa08"
    },
    {
      "anonymous": false,
      "inputs": [
        {
          "indexed": true,
          "name": "previousOwner",
          "type": "address"
        },
        {
          "indexed": true,
          "name": "newOwner",
          "type": "address"
        }
      ],
      "name": "OwnershipTransferred",
      "type": "event",
      "signature": "0x8be0079c531659141344cd1fd0a4f28419497f9722a3daafe3b4186f6b6457e0"
    },
    {
      "anonymous": false,
      "inputs": [
        {
          "indexed": true,
          "name": "owner",
          "type": "address"
        },
        {
          "indexed": true,
          "name": "spender",
          "type": "address"
        },
        {
          "indexed": false,
          "name": "value",
          "type": "uint256"
        }
      ],
      "name": "Approval",
      "type": "event",
      "signature": "0x8c5be1e5ebec7d5bd14f71427d1e84f3dd0314c0f7b2291e5b200ac8c7c3b925"
    },
    {
      "constant": false,
      "inputs": [
        {
          "name": "from",
          "type": "address"
        },
        {
          "name": "to",
          "type": "address"
        },
        {
          "name": "value",
          "type": "uint256"
        }
      ],
      "name": "transferFrom",
      "outputs": [
        {
          "name": "",
          "type": "bool"
        }
      ],
      "payable": false,
      "stateMutability": "nonpayable",
      "type": "function",
      "signature": "0x23b872dd"
    },
    {
      "constant": false,
      "inputs": [
        {
          "name": "to",
          "type": "address"
        },
        {
          "name": "value",
          "type": "uint256"
        }
      ],
      "name": "transfer",
      "outputs": [
        {
          "name": "",
          "type": "bool"
        }
      ],
      "payable": false,
      "stateMutability": "nonpayable",
      "type": "function",
      "signature": "0xa9059cbb"
    },
    {
      "constant": false,
      "inputs": [
        {
          "name": "contributor",
          "type": "address"
        },
        {
          "name": "amount",
          "type": "uint256"
        }
      ],
      "name": "mint",
      "outputs": [
        {
          "name": "",
          "type": "bool"
        }
      ],
      "payable": false,
      "stateMutability": "nonpayable",
      "type": "function",
      "signature": "0x40c10f19"
    },
    {
      "constant": false,
      "inputs": [
        {
          "name": "contributors",
          "type": "address[]"
        },
        {
          "name": "amounts",
          "type": "uint256[]"
        }
      ],
      "name": "mintMany",
      "outputs": [
        {
          "name": "",
          "type": "bool"
        }
      ],
      "payable": false,
      "stateMutability": "nonpayable",
      "type": "function",
      "signature": "0x4029a3ce"
    },
    {
      "constant": false,
      "inputs": [],
      "name": "endMinting",
      "outputs": [
        {
          "name": "",
          "type": "bool"
        }
      ],
      "payable": false,
      "stateMutability": "nonpayable",
      "type": "function",
      "signature": "0xef70aebf"
    }
  ],
  "bytecode": "0x6003805460a060020a60ff0219169055635a5cc1f06004556101806040526080806200006a690208b876aacb38796200620000556a3e09de2596099e2b000000600864010000000062000fbb6200030e82021704565b9064010000000062000eb76200032682021704565b8152602001620000956a3e09de2596099e2b000000600864010000000062000fbb6200030e82021704565b8152602001620000c06a3e09de2596099e2b000000600864010000000062000fbb6200030e82021704565b8152602001620000eb6a3e09de2596099e2b000000600864010000000062000fbb6200030e82021704565b8152602001620001166a3e09de2596099e2b000000600864010000000062000fbb6200030e82021704565b8152602001620001416a3e09de2596099e2b000000600864010000000062000fbb6200030e82021704565b81526020016200016c6a3e09de2596099e2b000000600864010000000062000fbb6200030e82021704565b8152602001620001976a3e09de2596099e2b000000600864010000000062000fbb6200030e82021704565b9052620001a990600590600862000367565b506040805180820190915280620001f66005620001e16a2116545850052128000000600264010000000062000fd26200033982021704565b9064010000000062000fbb6200030e82021704565b8152602001620002276005620001e16a2116545850052128000000600264010000000062000fd26200033982021704565b90526200023990600d906002620003aa565b506b019d971e4fe8401e740000006012553480156200025757600080fd5b506040516060806200142c83398101604090815281516020830151919092015160038054600160a060020a03191633179055600160a060020a03831615156200029f57600080fd5b600160a060020a0382161515620002b557600080fd5b600160a060020a0381161515620002cb57600080fd5b600f8054600160a060020a03948516600160a060020a031991821617909155601080549385169382169390931790925560118054919093169116179055620003fa565b60008082848115156200031d57fe5b04949350505050565b6000828211156200033357fe5b50900390565b60008282028315806200035757508284828115156200035457fe5b04145b15156200036057fe5b9392505050565b826008810192821562000398579160200282015b82811115620003985782518255916020019190600101906200037b565b50620003a6929150620003da565b5090565b8260028101928215620003985791602002820182811115620003985782518255916020019190600101906200037b565b620003f791905b80821115620003a65760008155600101620003e1565b90565b611022806200040a6000396000f30060806040526004361061018a5763ffffffff7c010000000000000000000000000000000000000000000000000000000060003504166305d2035b811461018f5780630688ec24146101b857806306fdde03146101e2578063095ea7b31461026c57806318160ddd1461029057806323b872dd146102a5578063313ce567146102cf5780634029a3ce146102fa57806340c10f1914610388578063521eb273146103ac57806366188463146103dd578063665a11ca1461040157806370a082311461041657806378e97925146104375780637d64bcb41461044c5780638883478e146104615780638b8ecffa146104765780638da5cb5b1461048b57806395d89b41146104a0578063a10f43a3146104b5578063a2948cdf146104ca578063a9059cbb146104df578063c2572c5114610503578063c519099d14610518578063c8e7e5ef1461052d578063ce5e9ffb14610542578063d73dd62314610557578063dd62ed3e1461057b578063ef70aebf146105a2578063f2fde38b146105b7578063fff83edf146105da575b600080fd5b34801561019b57600080fd5b506101a46105f2565b604080519115158252519081900360200190f35b3480156101c457600080fd5b506101d0600435610602565b60408051918252519081900360200190f35b3480156101ee57600080fd5b506101f7610616565b6040805160208082528351818301528351919283929083019185019080838360005b83811015610231578181015183820152602001610219565b50505050905090810190601f16801561025e5780820380516001836020036101000a031916815260200191505b509250505060405180910390f35b34801561027857600080fd5b506101a4600160a060020a036004351660243561064d565b34801561029c57600080fd5b506101d06106ea565b3480156102b157600080fd5b506101a4600160a060020a03600435811690602435166044356106f0565b3480156102db57600080fd5b506102e461071e565b6040805160ff9092168252519081900360200190f35b34801561030657600080fd5b50604080516020600480358082013583810280860185019096528085526101a495369593946024949385019291829185019084908082843750506040805187358901803560208181028481018201909552818452989b9a9989019892975090820195509350839250850190849080828437509497506107239650505050505050565b34801561039457600080fd5b506101a4600160a060020a03600435166024356107bb565b3480156103b857600080fd5b506103c16107e6565b60408051600160a060020a039092168252519081900360200190f35b3480156103e957600080fd5b506101a4600160a060020a03600435166024356107f5565b34801561040d57600080fd5b506101d06108e5565b34801561042257600080fd5b506101d0600160a060020a03600435166108f4565b34801561044357600080fd5b506101d061090f565b34801561045857600080fd5b506101a4610915565b34801561046d57600080fd5b506101d0610982565b34801561048257600080fd5b506103c1610991565b34801561049757600080fd5b506103c16109a0565b3480156104ac57600080fd5b506101f76109af565b3480156104c157600080fd5b506101d06109e6565b3480156104d657600080fd5b506101d06109f5565b3480156104eb57600080fd5b506101a4600160a060020a0360043516602435610a04565b34801561050f57600080fd5b506103c1610a29565b34801561052457600080fd5b506101d0610a38565b34801561053957600080fd5b506101d0610a47565b34801561054e57600080fd5b506101d0610a4d565b34801561056357600080fd5b506101a4600160a060020a0360043516602435610a5b565b34801561058757600080fd5b506101d0600160a060020a0360043581169060243516610af4565b3480156105ae57600080fd5b506101a4610b1f565b3480156105c357600080fd5b506105d8600160a060020a0360043516610b91565b005b3480156105e657600080fd5b506101d0600435610c26565b60035460a060020a900460ff1681565b600d816002811061060f57fe5b0154905081565b60408051808201909152601081527f5465737420547261636520546f6b656e00000000000000000000000000000000602082015281565b336000908152600260209081526040808320600160a060020a0386168452909152812054158061067b575081155b151561068357fe5b336000818152600260209081526040808320600160a060020a03881680855290835292819020869055805186815290519293927f8c5be1e5ebec7d5bd14f71427d1e84f3dd0314c0f7b2291e5b200ac8c7c3b925929181900390910190a350600192915050565b60005481565b60035460009060a060020a900460ff16151561070b57600080fd5b610716848484610c33565b949350505050565b601281565b600354600090819081908190600160a060020a0316331461074357600080fd5b845186511461075157600080fd5b5060005b85518110156107af57858181518110151561076c57fe5b906020019060200201519250848181518110151561078657fe5b90602001906020020151915061079c83836107bb565b15156107a757600080fd5b600101610755565b50600195945050505050565b600354600090600160a060020a031633146107d557600080fd5b6107df8383610dac565b9392505050565b600f54600160a060020a031681565b336000908152600260209081526040808320600160a060020a03861684529091528120548083111561084a57336000908152600260209081526040808320600160a060020a038816845290915281205561087f565b61085a818463ffffffff610eb716565b336000908152600260209081526040808320600160a060020a03891684529091529020555b336000818152600260209081526040808320600160a060020a0389168085529083529281902054815190815290519293927f8c5be1e5ebec7d5bd14f71427d1e84f3dd0314c0f7b2291e5b200ac8c7c3b925929181900390910190a35060019392505050565b6a14adf4b7320334b900000081565b600160a060020a031660009081526001602052604090205490565b60045481565b600354600090600160a060020a0316331461092f57600080fd5b6003805474ff0000000000000000000000000000000000000000191660a060020a1790556040517fae5184fba832cb2b1f702aca6117b8d265eaf03ad33eb133f19dde0f5920fa0890600090a150600190565b6a211654585005212800000081565b601054600160a060020a031681565b600354600160a060020a031681565b60408051808201909152600581527f5454524143000000000000000000000000000000000000000000000000000000602082015281565b6a084595161401484a00000081565b6a52b7d2dcc80cd2e400000081565b60035460009060a060020a900460ff161515610a1f57600080fd5b6107df8383610ec9565b601154600160a060020a031681565b6a3e09de2596099e2b00000081565b60125481565b690208b876aacb3879620081565b336000908152600260209081526040808320600160a060020a0386168452909152812054610a8f908363ffffffff610fac16565b336000818152600260209081526040808320600160a060020a0389168085529083529281902085905580519485525191937f8c5be1e5ebec7d5bd14f71427d1e84f3dd0314c0f7b2291e5b200ac8c7c3b925929081900390910190a350600192915050565b600160a060020a03918216600090815260026020908152604080832093909416825291909152205490565b600354600090600160a060020a03163314610b3957600080fd5b60035460a060020a900460ff1615610b5057600080fd5b604080516001815290517f09453fb3c77c88037c1b664345201b4e2c2e71c35ef789fb3f61972c140e0ac59181900360200190a1610b8c610915565b905090565b600354600160a060020a03163314610ba857600080fd5b600160a060020a0381161515610bbd57600080fd5b600354604051600160a060020a038084169216907f8be0079c531659141344cd1fd0a4f28419497f9722a3daafe3b4186f6b6457e090600090a36003805473ffffffffffffffffffffffffffffffffffffffff1916600160a060020a0392909216919091179055565b6005816008811061060f57fe5b6000600160a060020a0383161515610c4a57600080fd5b600160a060020a038416600090815260016020526040902054821115610c6f57600080fd5b600160a060020a0384166000908152600260209081526040808320338452909152902054821115610c9f57600080fd5b600160a060020a038416600090815260016020526040902054610cc8908363ffffffff610eb716565b600160a060020a038086166000908152600160205260408082209390935590851681522054610cfd908363ffffffff610fac16565b600160a060020a038085166000908152600160209081526040808320949094559187168152600282528281203382529091522054610d41908363ffffffff610eb716565b600160a060020a03808616600081815260026020908152604080832033845282529182902094909455805186815290519287169391927fddf252ad1be2c89b69c2b068fc378daa952ba7f163c4a11628f55a4df523b3ef929181900390910190a35060019392505050565b600354600090600160a060020a03163314610dc657600080fd5b60035460a060020a900460ff1615610ddd57600080fd5b600054610df0908363ffffffff610fac16565b6000908155600160a060020a038416815260016020526040902054610e1b908363ffffffff610fac16565b600160a060020a038416600081815260016020908152604091829020939093558051858152905191927f0f6798a560793a54c3bcfe86a93cde1e73087d944c0ea20544137d412139688592918290030190a2604080518381529051600160a060020a038516916000917fddf252ad1be2c89b69c2b068fc378daa952ba7f163c4a11628f55a4df523b3ef9181900360200190a350600192915050565b600082821115610ec357fe5b50900390565b6000600160a060020a0383161515610ee057600080fd5b33600090815260016020526040902054821115610efc57600080fd5b33600090815260016020526040902054610f1c908363ffffffff610eb716565b3360009081526001602052604080822092909255600160a060020a03851681522054610f4e908363ffffffff610fac16565b600160a060020a0384166000818152600160209081526040918290209390935580518581529051919233927fddf252ad1be2c89b69c2b068fc378daa952ba7f163c4a11628f55a4df523b3ef9281900390910190a350600192915050565b6000828201838110156107df57fe5b6000808284811515610fc957fe5b04949350505050565b6000828202831580610fee5750828482811515610feb57fe5b04145b15156107df57fe00a165627a7a723058201f0615b4c71b30b76a9ff1db8b013f2834bcce72bb50d479e8eb1a3e0d91211a0029",
  "source": "pragma solidity ^0.4.18;\n\n/**\n * @title SafeMath\n * @dev Math operations with safety checks that throw on error\n */\n\n\nlibrary SafeMath {\n\tfunction mul(uint256 a, uint256 b) internal pure returns (uint256) {\n\t\tuint256 c = a * b;\n\t\tassert(a == 0 || c / a == b);\n\t\treturn c;\n\t}\n\n\tfunction div(uint256 a, uint256 b) internal pure returns (uint256) {\n\t\t// assert(b > 0); // Solidity automatically throws when dividing by 0\n\t\tuint256 c = a / b;\n\t\t// assert(a == b * c + a % b); // There is no case in which this doesn't hold\n\t\treturn c;\n\t}\n\n\tfunction sub(uint256 a, uint256 b) internal pure returns (uint256) {\n\t\tassert(b <= a);\n\t\treturn a - b;\n\t}\n\n\tfunction add(uint256 a, uint256 b) internal pure returns (uint256) {\n\t\tuint256 c = a + b;\n\t\tassert(c >= a);\n\t\treturn c;\n\t}\n}\n\n/**\n * @title Ownable\n * @dev The Ownable contract has an owner address, and provides basic authorization control\n * functions, this simplifies the implementation of \"user permissions\".\n */\ncontract Ownable {\n\taddress public owner;\n\tevent OwnershipTransferred(address indexed previousOwner, address indexed newOwner);\n\n\t/**\n\t * @dev The Ownable constructor sets the original `owner` of the contract to the sender\n\t * account.\n\t */\n\tfunction Ownable() public { owner = msg.sender; }\n\n\t/**\n\t * @dev Throws if called by any account other than the owner.\n\t */\n\tmodifier onlyOwner() { require(msg.sender == owner); _; }\n\n\n\t/**\n\t * @dev Allows the current owner to transfer control of the contract to a newOwner.\n\t * @param newOwner The address to transfer ownership to.\n\t */\n\tfunction transferOwnership(address newOwner) onlyOwner public {\n\t\trequire(newOwner != address(0));\n\t\tOwnershipTransferred(owner, newOwner);\n\t\towner = newOwner;\n\t}\n\n}\n\n/**\n * @title ERC20Basic\n * @dev Simpler version of ERC20 interface\n * @dev see https://github.com/ethereum/EIPs/issues/179\n */\ncontract ERC20Basic {\n\tuint256 public totalSupply;\n\tfunction balanceOf(address who) public constant returns (uint256);\n\tfunction transfer(address to, uint256 value) public returns (bool);\n\tevent Transfer(address indexed from, address indexed to, uint256 value);\n}\n\n\n/**\n * @title Basic token\n * @dev Basic version of StandardToken, with no allowances.\n */\ncontract BasicToken is ERC20Basic {\n\tusing SafeMath for uint256;\n\n\tmapping(address => uint256) balances;\n\n\t/**\n\t* @dev transfer token for a specified address\n\t* @param _to The address to transfer to.\n\t* @param _value The amount to be transferred.\n\t*/\n\tfunction transfer(address _to, uint256 _value) public returns (bool) {\n\t\trequire(_to != address(0));\n\t\trequire(_value <= balances[msg.sender]);\n\n\t\t// SafeMath.sub will throw if there is not enough balance.\n\t\tbalances[msg.sender] = balances[msg.sender].sub(_value);\n\t\tbalances[_to] = balances[_to].add(_value);\n\t\tTransfer(msg.sender, _to, _value);\n\t\treturn true;\n\t}\n\n\t/**\n\t* @dev Gets the balance of the specified address.\n\t* @param _owner The address to query the the balance of.\n\t* @return An uint256 representing the amount owned by the passed address.\n\t*/\n\tfunction balanceOf(address _owner) public constant returns (uint256 balance) {\n\t\treturn balances[_owner];\n\t}\n\n}\n\n\n/**\n * @title ERC20 interface\n * @dev see https://github.com/ethereum/EIPs/issues/20\n */\ncontract ERC20 is ERC20Basic {\n\tfunction allowance(address owner, address spender) public constant returns (uint256);\n\tfunction transferFrom(address from, address to, uint256 value) public returns (bool);\n\tfunction approve(address spender, uint256 value) public returns (bool);\n\tevent Approval(address indexed owner, address indexed spender, uint256 value);\n}\n\n/**\n * @title Standard ERC20 token\n *\n * @dev Implementation of the basic standard token.\n * @dev https://github.com/ethereum/EIPs/issues/20\n * @dev Based on code by FirstBlood: https://github.com/Firstbloodio/token/blob/master/smart_contract/FirstBloodToken.sol\n */\ncontract StandardToken is ERC20, BasicToken {\n\n\tmapping (address => mapping (address => uint256)) internal allowed;\n\n\n\t/**\n\t * @dev Transfer tokens from one address to another\n\t * @param _from address The address which you want to send tokens from\n\t * @param _to address The address which you want to transfer to\n\t * @param _value uint256 the amount of tokens to be transferred\n\t */\n\tfunction transferFrom(address _from, address _to, uint256 _value) public returns (bool) {\n\t\trequire(_to != address(0));\n\t\trequire(_value <= balances[_from]);\n\t\trequire(_value <= allowed[_from][msg.sender]);\n\n\t\tbalances[_from] = balances[_from].sub(_value);\n\t\tbalances[_to] = balances[_to].add(_value);\n\t\tallowed[_from][msg.sender] = allowed[_from][msg.sender].sub(_value);\n\t\tTransfer(_from, _to, _value);\n\t\treturn true;\n\t}\n\n\t/**\n\t * @dev Approve the passed address to spend the specified amount of tokens on behalf of msg.sender.\n\t *\n\t * Beware that changing an allowance with this method brings the risk that someone may use both the old\n\t * and the new allowance by unfortunate transaction ordering. One possible solution to mitigate this\n\t * race condition is to first reduce the spender's allowance to 0 and set the desired value afterwards:\n\t * https://github.com/ethereum/EIPs/issues/20#issuecomment-263524729\n\t * @param _spender The address which will spend the funds.\n\t * @param _value The amount of tokens to be spent.\n\t */\n\tfunction approve(address _spender, uint256 _value) public returns (bool) {\n\t\t// mitigating the race condition\n\t\tassert(allowed[msg.sender][_spender] == 0 || _value == 0);\n\n\t\tallowed[msg.sender][_spender] = _value;\n\t\tApproval(msg.sender, _spender, _value);\n\t\treturn true;\n\t}\n\n\t/**\n\t * @dev Function to check the amount of tokens that an owner allowed to a spender.\n\t * @param _owner address The address which owns the funds.\n\t * @param _spender address The address which will spend the funds.\n\t * @return A uint256 specifying the amount of tokens still available for the spender.\n\t */\n\tfunction allowance(address _owner, address _spender) public constant returns (uint256 remaining) {\n\t\treturn allowed[_owner][_spender];\n\t}\n\n\t/**\n\t * approve should be called when allowed[_spender] == 0. To increment\n\t * allowed value is better to use this function to avoid 2 calls (and wait until\n\t * the first transaction is mined)\n\t * From MonolithDAO Token.sol\n\t */\n\tfunction increaseApproval (address _spender, uint _addedValue) public returns (bool success) {\n\t\tallowed[msg.sender][_spender] = allowed[msg.sender][_spender].add(_addedValue);\n\t\tApproval(msg.sender, _spender, allowed[msg.sender][_spender]);\n\t\treturn true;\n\t}\n\n\tfunction decreaseApproval (address _spender, uint _subtractedValue) public returns (bool success) {\n\t\tuint oldValue = allowed[msg.sender][_spender];\n\t\tif (_subtractedValue > oldValue) {\n\t\t\tallowed[msg.sender][_spender] = 0;\n\t\t} else {\n\t\t\tallowed[msg.sender][_spender] = oldValue.sub(_subtractedValue);\n\t\t}\n\t\tApproval(msg.sender, _spender, allowed[msg.sender][_spender]);\n\t\treturn true;\n\t}\n\n}\n\n/**\n * @title Mintable token\n * @dev Simple ERC20 Token example, with mintable token creation\n * @dev Issue: * https://github.com/OpenZeppelin/zeppelin-solidity/issues/120\n * Based on code by TokenMarketNet: https://github.com/TokenMarketNet/ico/blob/master/contracts/MintableToken.sol\n */\n\ncontract MintableToken is StandardToken, Ownable {\n\tevent Mint(address indexed to, uint256 amount);\n\tevent MintFinished();\n\n\tbool public mintingFinished = false;\n\n\n\tmodifier canMint() {\n\t\trequire(!mintingFinished);\n\t\t_;\n\t}\n\n\t/**\n\t * @dev Function to mint tokens\n\t * @param _to The address that will receive the minted tokens.\n\t * @param _amount The amount of tokens to mint.\n\t * @return A boolean that indicates if the operation was successful.\n\t */\n\tfunction mint(address _to, uint256 _amount) onlyOwner canMint public returns (bool) {\n\t\ttotalSupply = totalSupply.add(_amount);\n\t\tbalances[_to] = balances[_to].add(_amount);\n\t\tMint(_to, _amount);\n\t\tTransfer(0x0, _to, _amount);\n\t\treturn true;\n\t}\n\n\t/**\n\t * @dev Function to stop minting new tokens.\n\t * @return True if the operation was successful.\n\t */\n\tfunction finishMinting() onlyOwner public returns (bool) {\n\t\tmintingFinished = true;\n\t\tMintFinished();\n\t\treturn true;\n\t}\n}\n\ncontract TracToken is MintableToken {\n\n\tstring public constant name = 'Test Trace Token';\n\tstring public constant symbol = 'TTRAC';\n\tuint8 public constant decimals = 18; // one TRAC = 10^18 Tracks\n\tuint256 public startTime = 1516028400; // initial startTime from tokensale contract\n\tuint256 public constant bountyReward = 1e25;\n\tuint256 public constant preicoAndAdvisors = 4e25;\n\tuint256 public constant liquidityPool = 25e24;\n\tuint256 public constant futureDevelopment = 1e26;\n\tuint256 public constant teamAndFounders = 75e24;\n\tuint256 public constant CORRECTION = 9605598917469000000000;  // overrun tokens\n\n\t// Notice: Including compensation for the overminting in initial contract for 9605598917469000000000 TRACKs (~9605.6 Trace tokens)\n\tuint256[8] public founderAmounts = [uint256( teamAndFounders.div(8).sub(CORRECTION) ),teamAndFounders.div(8),teamAndFounders.div(8),teamAndFounders.div(8),teamAndFounders.div(8),teamAndFounders.div(8),teamAndFounders.div(8),teamAndFounders.div(8)];\n\tuint256[2] public preicoAndAdvisorsAmounts = [ uint256(preicoAndAdvisors.mul(2).div(5)),preicoAndAdvisors.mul(2).div(5)];\n\n\t// Withdraw multisig wallet\n\taddress public wallet;\n\n\t// Withdraw multisig wallet\n\taddress public teamAndFoundersWallet;\n\n\t// Withdraw multisig wallet\n\taddress public advisorsAndPreICO;\n\tuint256 public TOTAL_NUM_TOKENS = 5e26;\n\n\n\tfunction TracToken(address _wallet,address _teamAndFoundersWallet,address _advisorsAndPreICO) public {\n\t\trequire(_wallet!=0x0);\n\t\trequire(_teamAndFoundersWallet!=0x0);\n\t\trequire(_advisorsAndPreICO!=0x0);\n\t\twallet = _wallet;\n\t\tteamAndFoundersWallet = _teamAndFoundersWallet;\n\t\tadvisorsAndPreICO = _advisorsAndPreICO;\n\t}\n\n\n\tevent Transfer(address indexed from, address indexed to, uint256 value);\n\tevent TransferAllowed(bool transferIsAllowed);\n\n\tmodifier canTransfer() {\n\t\trequire(mintingFinished);\n\t\t_;\n\t}\n\n\tfunction transferFrom(address from, address to, uint256 value) canTransfer public returns (bool) {\n\t\treturn super.transferFrom(from, to, value);\n\t}\n\n\tfunction transfer(address to, uint256 value) canTransfer public returns (bool) {\n\t\treturn super.transfer(to, value);\n\t}\n\n\tfunction mint(address contributor, uint256 amount) onlyOwner public returns (bool) {\n\t\treturn super.mint(contributor, amount);\n\t}\n\n\tfunction mintMany(address[] contributors, uint256[] amounts) onlyOwner public returns (bool) {\n\t\taddress contributor;\n\t\tuint256 amount;\n\t\trequire(contributors.length == amounts.length);\n\n\t\tfor (uint i = 0; i < contributors.length; i++) {\n\t\t\tcontributor = contributors[i];\n\t\t\tamount = amounts[i];\n\t\t\trequire(mint(contributor, amount));\n\t\t}\n\t\treturn true;\n\t}\n\n\tfunction endMinting() onlyOwner public returns (bool) {\n\t\trequire(!mintingFinished);\n\t\tTransferAllowed(true);\n\t\treturn super.finishMinting();\n\t}\n\n\n}",
  "sourcePath": "/Users/miloskotlar/ot-node/modules/Blockchain/Polygon/contracts/TracToken.sol",
  "compiler": {
    "name": "solc",
    "version": "0.4.25+commit.59dbf8f1.Emscripten.clang"
  },
  "schemaVersion": "3.0.0-beta.1",
  "updatedAt": "2021-08-16T09:42:48.422Z"
}