{
  "contractName": "XDAITestTrac",
  "abi": [
    {
      "constant": true,
      "inputs": [],
      "name": "mintingFinished",
      "outputs": [
        {
          "name": "",
          "type": "bool"
        }
      ],
      "payable": false,
      "stateMutability": "view",
      "type": "function"
    },
    {
      "constant": true,
      "inputs": [
        {
          "name": "",
          "type": "uint256"
        }
      ],
      "name": "preicoAndAdvisorsAmounts",
      "outputs": [
        {
          "name": "",
          "type": "uint256"
        }
      ],
      "payable": false,
      "stateMutability": "view",
      "type": "function"
    },
    {
      "constant": true,
      "inputs": [],
      "name": "name",
      "outputs": [
        {
          "name": "",
          "type": "string"
        }
      ],
      "payable": false,
      "stateMutability": "view",
      "type": "function"
    },
    {
      "constant": false,
      "inputs": [
        {
          "name": "_spender",
          "type": "address"
        },
        {
          "name": "_value",
          "type": "uint256"
        }
      ],
      "name": "approve",
      "outputs": [
        {
          "name": "",
          "type": "bool"
        }
      ],
      "payable": false,
      "stateMutability": "nonpayable",
      "type": "function"
    },
    {
      "constant": true,
      "inputs": [],
      "name": "totalSupply",
      "outputs": [
        {
          "name": "",
          "type": "uint256"
        }
      ],
      "payable": false,
      "stateMutability": "view",
      "type": "function"
    },
    {
      "constant": false,
      "inputs": [
        {
          "name": "from",
          "type": "address"
        },
        {
          "name": "to",
          "type": "address"
        },
        {
          "name": "value",
          "type": "uint256"
        }
      ],
      "name": "transferFrom",
      "outputs": [
        {
          "name": "",
          "type": "bool"
        }
      ],
      "payable": false,
      "stateMutability": "nonpayable",
      "type": "function"
    },
    {
      "constant": true,
      "inputs": [],
      "name": "decimals",
      "outputs": [
        {
          "name": "",
          "type": "uint8"
        }
      ],
      "payable": false,
      "stateMutability": "view",
      "type": "function"
    },
    {
      "constant": false,
      "inputs": [
        {
          "name": "contributors",
          "type": "address[]"
        },
        {
          "name": "amounts",
          "type": "uint256[]"
        }
      ],
      "name": "mintMany",
      "outputs": [
        {
          "name": "",
          "type": "bool"
        }
      ],
      "payable": false,
      "stateMutability": "nonpayable",
      "type": "function"
    },
    {
      "constant": false,
      "inputs": [
        {
          "name": "contributor",
          "type": "address"
        },
        {
          "name": "amount",
          "type": "uint256"
        }
      ],
      "name": "mint",
      "outputs": [
        {
          "name": "",
          "type": "bool"
        }
      ],
      "payable": false,
      "stateMutability": "nonpayable",
      "type": "function"
    },
    {
      "constant": true,
      "inputs": [],
      "name": "wallet",
      "outputs": [
        {
          "name": "",
          "type": "address"
        }
      ],
      "payable": false,
      "stateMutability": "view",
      "type": "function"
    },
    {
      "constant": false,
      "inputs": [
        {
          "name": "_spender",
          "type": "address"
        },
        {
          "name": "_subtractedValue",
          "type": "uint256"
        }
      ],
      "name": "decreaseApproval",
      "outputs": [
        {
          "name": "success",
          "type": "bool"
        }
      ],
      "payable": false,
      "stateMutability": "nonpayable",
      "type": "function"
    },
    {
      "constant": true,
      "inputs": [],
      "name": "liquidityPool",
      "outputs": [
        {
          "name": "",
          "type": "uint256"
        }
      ],
      "payable": false,
      "stateMutability": "view",
      "type": "function"
    },
    {
      "constant": true,
      "inputs": [
        {
          "name": "_owner",
          "type": "address"
        }
      ],
      "name": "balanceOf",
      "outputs": [
        {
          "name": "balance",
          "type": "uint256"
        }
      ],
      "payable": false,
      "stateMutability": "view",
      "type": "function"
    },
    {
      "constant": true,
      "inputs": [],
      "name": "startTime",
      "outputs": [
        {
          "name": "",
          "type": "uint256"
        }
      ],
      "payable": false,
      "stateMutability": "view",
      "type": "function"
    },
    {
      "constant": false,
      "inputs": [],
      "name": "finishMinting",
      "outputs": [
        {
          "name": "",
          "type": "bool"
        }
      ],
      "payable": false,
      "stateMutability": "nonpayable",
      "type": "function"
    },
    {
      "constant": true,
      "inputs": [],
      "name": "preicoAndAdvisors",
      "outputs": [
        {
          "name": "",
          "type": "uint256"
        }
      ],
      "payable": false,
      "stateMutability": "view",
      "type": "function"
    },
    {
      "constant": true,
      "inputs": [],
      "name": "teamAndFoundersWallet",
      "outputs": [
        {
          "name": "",
          "type": "address"
        }
      ],
      "payable": false,
      "stateMutability": "view",
      "type": "function"
    },
    {
      "constant": true,
      "inputs": [],
      "name": "owner",
      "outputs": [
        {
          "name": "",
          "type": "address"
        }
      ],
      "payable": false,
      "stateMutability": "view",
      "type": "function"
    },
    {
      "constant": true,
      "inputs": [],
      "name": "symbol",
      "outputs": [
        {
          "name": "",
          "type": "string"
        }
      ],
      "payable": false,
      "stateMutability": "view",
      "type": "function"
    },
    {
      "constant": true,
      "inputs": [],
      "name": "bountyReward",
      "outputs": [
        {
          "name": "",
          "type": "uint256"
        }
      ],
      "payable": false,
      "stateMutability": "view",
      "type": "function"
    },
    {
      "constant": true,
      "inputs": [],
      "name": "futureDevelopment",
      "outputs": [
        {
          "name": "",
          "type": "uint256"
        }
      ],
      "payable": false,
      "stateMutability": "view",
      "type": "function"
    },
    {
      "constant": false,
      "inputs": [
        {
          "name": "to",
          "type": "address"
        },
        {
          "name": "value",
          "type": "uint256"
        }
      ],
      "name": "transfer",
      "outputs": [
        {
          "name": "",
          "type": "bool"
        }
      ],
      "payable": false,
      "stateMutability": "nonpayable",
      "type": "function"
    },
    {
      "constant": true,
      "inputs": [],
      "name": "advisorsAndPreICO",
      "outputs": [
        {
          "name": "",
          "type": "address"
        }
      ],
      "payable": false,
      "stateMutability": "view",
      "type": "function"
    },
    {
      "constant": true,
      "inputs": [],
      "name": "teamAndFounders",
      "outputs": [
        {
          "name": "",
          "type": "uint256"
        }
      ],
      "payable": false,
      "stateMutability": "view",
      "type": "function"
    },
    {
      "constant": true,
      "inputs": [],
      "name": "TOTAL_NUM_TOKENS",
      "outputs": [
        {
          "name": "",
          "type": "uint256"
        }
      ],
      "payable": false,
      "stateMutability": "view",
      "type": "function"
    },
    {
      "constant": true,
      "inputs": [],
      "name": "CORRECTION",
      "outputs": [
        {
          "name": "",
          "type": "uint256"
        }
      ],
      "payable": false,
      "stateMutability": "view",
      "type": "function"
    },
    {
      "constant": false,
      "inputs": [
        {
          "name": "_spender",
          "type": "address"
        },
        {
          "name": "_addedValue",
          "type": "uint256"
        }
      ],
      "name": "increaseApproval",
      "outputs": [
        {
          "name": "success",
          "type": "bool"
        }
      ],
      "payable": false,
      "stateMutability": "nonpayable",
      "type": "function"
    },
    {
      "constant": true,
      "inputs": [
        {
          "name": "_owner",
          "type": "address"
        },
        {
          "name": "_spender",
          "type": "address"
        }
      ],
      "name": "allowance",
      "outputs": [
        {
          "name": "remaining",
          "type": "uint256"
        }
      ],
      "payable": false,
      "stateMutability": "view",
      "type": "function"
    },
    {
      "constant": false,
      "inputs": [],
      "name": "endMinting",
      "outputs": [
        {
          "name": "",
          "type": "bool"
        }
      ],
      "payable": false,
      "stateMutability": "nonpayable",
      "type": "function"
    },
    {
      "constant": false,
      "inputs": [
        {
          "name": "newOwner",
          "type": "address"
        }
      ],
      "name": "transferOwnership",
      "outputs": [],
      "payable": false,
      "stateMutability": "nonpayable",
      "type": "function"
    },
    {
      "constant": true,
      "inputs": [
        {
          "name": "",
          "type": "uint256"
        }
      ],
      "name": "founderAmounts",
      "outputs": [
        {
          "name": "",
          "type": "uint256"
        }
      ],
      "payable": false,
      "stateMutability": "view",
      "type": "function"
    },
    {
      "inputs": [
        {
          "name": "_initialAccount",
          "type": "address"
        },
        {
          "name": "_initialBalance",
          "type": "uint256"
        }
      ],
      "payable": false,
      "stateMutability": "nonpayable",
      "type": "constructor"
    },
    {
      "anonymous": false,
      "inputs": [
        {
          "indexed": true,
          "name": "from",
          "type": "address"
        },
        {
          "indexed": true,
          "name": "to",
          "type": "address"
        },
        {
          "indexed": false,
          "name": "value",
          "type": "uint256"
        },
        {
          "indexed": false,
          "name": "data",
          "type": "bytes"
        }
      ],
      "name": "Transfer",
      "type": "event"
    },
    {
      "anonymous": false,
      "inputs": [
        {
          "indexed": true,
          "name": "from",
          "type": "address"
        },
        {
          "indexed": true,
          "name": "to",
          "type": "address"
        },
        {
          "indexed": false,
          "name": "value",
          "type": "uint256"
        }
      ],
      "name": "Transfer",
      "type": "event"
    },
    {
      "anonymous": false,
      "inputs": [
        {
          "indexed": false,
          "name": "transferIsAllowed",
          "type": "bool"
        }
      ],
      "name": "TransferAllowed",
      "type": "event"
    },
    {
      "anonymous": false,
      "inputs": [
        {
          "indexed": true,
          "name": "to",
          "type": "address"
        },
        {
          "indexed": false,
          "name": "amount",
          "type": "uint256"
        }
      ],
      "name": "Mint",
      "type": "event"
    },
    {
      "anonymous": false,
      "inputs": [],
      "name": "MintFinished",
      "type": "event"
    },
    {
      "anonymous": false,
      "inputs": [
        {
          "indexed": true,
          "name": "previousOwner",
          "type": "address"
        },
        {
          "indexed": true,
          "name": "newOwner",
          "type": "address"
        }
      ],
      "name": "OwnershipTransferred",
      "type": "event"
    },
    {
      "anonymous": false,
      "inputs": [
        {
          "indexed": true,
          "name": "owner",
          "type": "address"
        },
        {
          "indexed": true,
          "name": "spender",
          "type": "address"
        },
        {
          "indexed": false,
          "name": "value",
          "type": "uint256"
        }
      ],
      "name": "Approval",
      "type": "event"
    },
    {
      "constant": false,
      "inputs": [
        {
          "name": "_to",
          "type": "address"
        },
        {
          "name": "_value",
          "type": "uint256"
        },
        {
          "name": "_data",
          "type": "bytes"
        }
      ],
      "name": "transferAndCall",
      "outputs": [
        {
          "name": "",
          "type": "bool"
        }
      ],
      "payable": false,
      "stateMutability": "nonpayable",
      "type": "function"
    }
  ],
  "bytecode": "0x6003805460a060020a60ff0219169055635a5cc1f06004556101806040526080806200006a690208b876aacb38796200620000556a3e09de2596099e2b0000006008640100000000620012156200032382021704565b90640100000000620011116200033b82021704565b8152602001620000956a3e09de2596099e2b0000006008640100000000620012156200032382021704565b8152602001620000c06a3e09de2596099e2b0000006008640100000000620012156200032382021704565b8152602001620000eb6a3e09de2596099e2b0000006008640100000000620012156200032382021704565b8152602001620001166a3e09de2596099e2b0000006008640100000000620012156200032382021704565b8152602001620001416a3e09de2596099e2b0000006008640100000000620012156200032382021704565b81526020016200016c6a3e09de2596099e2b0000006008640100000000620012156200032382021704565b8152602001620001976a3e09de2596099e2b0000006008640100000000620012156200032382021704565b9052620001a9906005906008620004f3565b506040805180820190915280620001f66005620001e16a211654585005212800000060026401000000006200122c6200034e82021704565b90640100000000620012156200032382021704565b8152602001620002276005620001e16a211654585005212800000060026401000000006200122c6200034e82021704565b90526200023990600d90600262000536565b506b019d971e4fe8401e740000006012553480156200025757600080fd5b506040516040806200181283398101604052805160209091015160038054600160a060020a03191633179055818080600160a060020a03811615156200029c57600080fd5b600160a060020a0382161515620002b257600080fd5b600160a060020a0381161515620002c857600080fd5b600f8054600160a060020a03948516600160a060020a0319918216179091556010805493851693821693909317909255601180549190931691161790556200031a82826401000000006200037c810204565b50505062000586565b60008082848115156200033257fe5b04949350505050565b6000828211156200034857fe5b50900390565b60008282028315806200036c57508284828115156200036957fe5b04145b15156200037557fe5b9392505050565b600354600090600160a060020a031633146200039757600080fd5b62000375838364010000000062001006620003b182021704565b600354600090600160a060020a03163314620003cc57600080fd5b60035474010000000000000000000000000000000000000000900460ff1615620003f557600080fd5b60005462000412908364010000000062001206620004e382021704565b6000908155600160a060020a03841681526001602052604090205462000447908364010000000062001206620004e382021704565b600160a060020a038416600081815260016020908152604091829020939093558051858152905191927f0f6798a560793a54c3bcfe86a93cde1e73087d944c0ea20544137d412139688592918290030190a2604080518381529051600160a060020a038516916000917fddf252ad1be2c89b69c2b068fc378daa952ba7f163c4a11628f55a4df523b3ef9181900360200190a350600192915050565b6000828201838110156200037557fe5b826008810192821562000524579160200282015b828111156200052457825182559160200191906001019062000507565b506200053292915062000566565b5090565b82600281019282156200052457916020028201828111156200052457825182559160200191906001019062000507565b6200058391905b808211156200053257600081556001016200056d565b90565b61127c80620005966000396000f3006080604052600436106101955763ffffffff7c010000000000000000000000000000000000000000000000000000000060003504166305d2035b811461019a5780630688ec24146101c357806306fdde03146101ed578063095ea7b31461027757806318160ddd1461029b57806323b872dd146102b0578063313ce567146102da5780634000aea0146103055780634029a3ce1461036e57806340c10f19146103fc578063521eb273146104205780636618846314610451578063665a11ca1461047557806370a082311461048a57806378e97925146104ab5780637d64bcb4146104c05780638883478e146104d55780638b8ecffa146104ea5780638da5cb5b146104ff57806395d89b4114610514578063a10f43a314610529578063a2948cdf1461053e578063a9059cbb14610553578063c2572c5114610577578063c519099d1461058c578063c8e7e5ef146105a1578063ce5e9ffb146105b6578063d73dd623146105cb578063dd62ed3e146105ef578063ef70aebf14610616578063f2fde38b1461062b578063fff83edf1461064e575b600080fd5b3480156101a657600080fd5b506101af610666565b604080519115158252519081900360200190f35b3480156101cf57600080fd5b506101db600435610676565b60408051918252519081900360200190f35b3480156101f957600080fd5b5061020261068a565b6040805160208082528351818301528351919283929083019185019080838360005b8381101561023c578181015183820152602001610224565b50505050905090810190601f1680156102695780820380516001836020036101000a031916815260200191505b509250505060405180910390f35b34801561028357600080fd5b506101af600160a060020a03600435166024356106c1565b3480156102a757600080fd5b506101db61075e565b3480156102bc57600080fd5b506101af600160a060020a0360043581169060243516604435610764565b3480156102e657600080fd5b506102ef610792565b6040805160ff9092168252519081900360200190f35b34801561031157600080fd5b50604080516020600460443581810135601f81018490048402850184019095528484526101af948235600160a060020a03169460248035953695946064949201919081908401838280828437509497506107979650505050505050565b34801561037a57600080fd5b50604080516020600480358082013583810280860185019096528085526101af95369593946024949385019291829185019084908082843750506040805187358901803560208181028481018201909552818452989b9a99890198929750908201955093508392508501908490808284375094975061097d9650505050505050565b34801561040857600080fd5b506101af600160a060020a0360043516602435610a15565b34801561042c57600080fd5b50610435610a40565b60408051600160a060020a039092168252519081900360200190f35b34801561045d57600080fd5b506101af600160a060020a0360043516602435610a4f565b34801561048157600080fd5b506101db610b3f565b34801561049657600080fd5b506101db600160a060020a0360043516610b4e565b3480156104b757600080fd5b506101db610b69565b3480156104cc57600080fd5b506101af610b6f565b3480156104e157600080fd5b506101db610bdc565b3480156104f657600080fd5b50610435610beb565b34801561050b57600080fd5b50610435610bfa565b34801561052057600080fd5b50610202610c09565b34801561053557600080fd5b506101db610c40565b34801561054a57600080fd5b506101db610c4f565b34801561055f57600080fd5b506101af600160a060020a0360043516602435610c5e565b34801561058357600080fd5b50610435610c83565b34801561059857600080fd5b506101db610c92565b3480156105ad57600080fd5b506101db610ca1565b3480156105c257600080fd5b506101db610ca7565b3480156105d757600080fd5b506101af600160a060020a0360043516602435610cb5565b3480156105fb57600080fd5b506101db600160a060020a0360043581169060243516610d4e565b34801561062257600080fd5b506101af610d79565b34801561063757600080fd5b5061064c600160a060020a0360043516610deb565b005b34801561065a57600080fd5b506101db600435610e80565b60035460a060020a900460ff1681565b600d816002811061068357fe5b0154905081565b60408051808201909152601081527f5465737420547261636520546f6b656e00000000000000000000000000000000602082015281565b336000908152600260209081526040808320600160a060020a038616845290915281205415806106ef575081155b15156106f757fe5b336000818152600260209081526040808320600160a060020a03881680855290835292819020869055805186815290519293927f8c5be1e5ebec7d5bd14f71427d1e84f3dd0314c0f7b2291e5b200ac8c7c3b925929181900390910190a350600192915050565b60005481565b60035460009060a060020a900460ff16151561077f57600080fd5b61078a848484610e8d565b949350505050565b601281565b60008060006107a68686610c5e565b91508115156107b85760009250610974565b85600160a060020a031633600160a060020a03167fe19260aff97b920c7df27010903aeb9c8d2be5d310a2c67824cf3f15396e4c1687876040518083815260200180602001828103825283818151815260200191508051906020019080838360005b8381101561083257818101518382015260200161081a565b50505050905090810190601f16801561085f5780820380516001836020036101000a031916815260200191505b50935050505060405180910390a3506040517fc0ee0b8a0000000000000000000000000000000000000000000000000000000081523360048201818152602483018790526060604484019081528651606485015286518994600160a060020a0386169463c0ee0b8a9490938b938b9360840190602085019080838360005b838110156108f55781810151838201526020016108dd565b50505050905090810190601f1680156109225780820380516001836020036101000a031916815260200191505b50945050505050602060405180830381600087803b15801561094357600080fd5b505af1158015610957573d6000803e3d6000fd5b505050506040513d602081101561096d57600080fd5b5060019350505b50509392505050565b600354600090819081908190600160a060020a0316331461099d57600080fd5b84518651146109ab57600080fd5b5060005b8551811015610a095785818151811015156109c657fe5b90602001906020020151925084818151811015156109e057fe5b9060200190602002015191506109f68383610a15565b1515610a0157600080fd5b6001016109af565b50600195945050505050565b600354600090600160a060020a03163314610a2f57600080fd5b610a398383611006565b9392505050565b600f54600160a060020a031681565b336000908152600260209081526040808320600160a060020a038616845290915281205480831115610aa457336000908152600260209081526040808320600160a060020a0388168452909152812055610ad9565b610ab4818463ffffffff61111116565b336000908152600260209081526040808320600160a060020a03891684529091529020555b336000818152600260209081526040808320600160a060020a0389168085529083529281902054815190815290519293927f8c5be1e5ebec7d5bd14f71427d1e84f3dd0314c0f7b2291e5b200ac8c7c3b925929181900390910190a35060019392505050565b6a14adf4b7320334b900000081565b600160a060020a031660009081526001602052604090205490565b60045481565b600354600090600160a060020a03163314610b8957600080fd5b6003805474ff0000000000000000000000000000000000000000191660a060020a1790556040517fae5184fba832cb2b1f702aca6117b8d265eaf03ad33eb133f19dde0f5920fa0890600090a150600190565b6a211654585005212800000081565b601054600160a060020a031681565b600354600160a060020a031681565b60408051808201909152600681527f5458545241430000000000000000000000000000000000000000000000000000602082015281565b6a084595161401484a00000081565b6a52b7d2dcc80cd2e400000081565b60035460009060a060020a900460ff161515610c7957600080fd5b610a398383611123565b601154600160a060020a031681565b6a3e09de2596099e2b00000081565b60125481565b690208b876aacb3879620081565b336000908152600260209081526040808320600160a060020a0386168452909152812054610ce9908363ffffffff61120616565b336000818152600260209081526040808320600160a060020a0389168085529083529281902085905580519485525191937f8c5be1e5ebec7d5bd14f71427d1e84f3dd0314c0f7b2291e5b200ac8c7c3b925929081900390910190a350600192915050565b600160a060020a03918216600090815260026020908152604080832093909416825291909152205490565b600354600090600160a060020a03163314610d9357600080fd5b60035460a060020a900460ff1615610daa57600080fd5b604080516001815290517f09453fb3c77c88037c1b664345201b4e2c2e71c35ef789fb3f61972c140e0ac59181900360200190a1610de6610b6f565b905090565b600354600160a060020a03163314610e0257600080fd5b600160a060020a0381161515610e1757600080fd5b600354604051600160a060020a038084169216907f8be0079c531659141344cd1fd0a4f28419497f9722a3daafe3b4186f6b6457e090600090a36003805473ffffffffffffffffffffffffffffffffffffffff1916600160a060020a0392909216919091179055565b6005816008811061068357fe5b6000600160a060020a0383161515610ea457600080fd5b600160a060020a038416600090815260016020526040902054821115610ec957600080fd5b600160a060020a0384166000908152600260209081526040808320338452909152902054821115610ef957600080fd5b600160a060020a038416600090815260016020526040902054610f22908363ffffffff61111116565b600160a060020a038086166000908152600160205260408082209390935590851681522054610f57908363ffffffff61120616565b600160a060020a038085166000908152600160209081526040808320949094559187168152600282528281203382529091522054610f9b908363ffffffff61111116565b600160a060020a03808616600081815260026020908152604080832033845282529182902094909455805186815290519287169391927fddf252ad1be2c89b69c2b068fc378daa952ba7f163c4a11628f55a4df523b3ef929181900390910190a35060019392505050565b600354600090600160a060020a0316331461102057600080fd5b60035460a060020a900460ff161561103757600080fd5b60005461104a908363ffffffff61120616565b6000908155600160a060020a038416815260016020526040902054611075908363ffffffff61120616565b600160a060020a038416600081815260016020908152604091829020939093558051858152905191927f0f6798a560793a54c3bcfe86a93cde1e73087d944c0ea20544137d412139688592918290030190a2604080518381529051600160a060020a038516916000917fddf252ad1be2c89b69c2b068fc378daa952ba7f163c4a11628f55a4df523b3ef9181900360200190a350600192915050565b60008282111561111d57fe5b50900390565b6000600160a060020a038316151561113a57600080fd5b3360009081526001602052604090205482111561115657600080fd5b33600090815260016020526040902054611176908363ffffffff61111116565b3360009081526001602052604080822092909255600160a060020a038516815220546111a8908363ffffffff61120616565b600160a060020a0384166000818152600160209081526040918290209390935580518581529051919233927fddf252ad1be2c89b69c2b068fc378daa952ba7f163c4a11628f55a4df523b3ef9281900390910190a350600192915050565b600082820183811015610a3957fe5b600080828481151561122357fe5b04949350505050565b6000828202831580611248575082848281151561124557fe5b04145b1515610a3957fe00a165627a7a72305820c7b61284dba50d3e3aec78b79a277e1f74b97e85019d28da1dab7ef62f1f646d0029",
  "source": "pragma solidity 0.4.25;\n\n// Use only for testing reasons\n\nimport \"./ERC677TransferReceiver.sol\";\nimport \"./TracToken.sol\";\n\ncontract XDAITestTrac is TracToken {\n    string public constant symbol = 'TXTRAC';\n\n    event Transfer(address indexed from, address indexed to, uint256 value, bytes data);\n\n    constructor(\n        address _initialAccount,\n        uint256 _initialBalance\n    ) TracToken(_initialAccount, _initialAccount, _initialAccount) public {\n        mint(_initialAccount, _initialBalance);\n    }\n\n    /**\n     * ERC-677's only method implementation\n     * See https://github.com/ethereum/EIPs/issues/677 for details\n     */\n    function transferAndCall(address _to, uint _value, bytes memory _data) public returns (bool) {\n        bool result = super.transfer(_to, _value);\n        if (!result) return false;\n\n        emit Transfer(msg.sender, _to, _value, _data);\n\n        ERC677TransferReceiver receiver = ERC677TransferReceiver(_to);\n        receiver.tokenFallback(msg.sender, _value, _data);\n\n        // IMPORTANT: the ERC-677 specification does not say\n        // anything about the use of the receiver contract's\n        // tokenFallback method return value. Given\n        // its return type matches with this method's return\n        // type, returning it could be a possibility.\n        // We here take the more conservative approach and\n        // ignore the return value, returning true\n        // to signal a succesful transfer despite tokenFallback's\n        // return value -- fact being tokens are transferred\n        // in any case.\n        return true;\n    }\n}",
  "sourcePath": "/Users/miloskotlar/ot-node/modules/Blockchain/Polygon/contracts/XDAITestTrac.sol",
  "compiler": {
    "name": "solc",
    "version": "0.4.25+commit.59dbf8f1.Emscripten.clang"
  },
  "schemaVersion": "3.0.0-beta.1",
  "updatedAt": "2021-08-16T08:50:09.335Z"
}