{
  "contractName": "Bidding",
  "abi": [
    {
      "constant": true,
      "inputs": [
        {
          "name": "",
          "type": "address"
        },
        {
          "name": "",
          "type": "uint256"
        },
        {
          "name": "",
          "type": "uint256"
        }
      ],
      "name": "bid",
      "outputs": [
        {
          "name": "bid_hash",
          "type": "bytes32"
        },
        {
          "name": "DH_wallet",
          "type": "address"
        },
        {
          "name": "node_id",
          "type": "uint256"
        },
        {
          "name": "token_amount",
          "type": "uint256"
        },
        {
          "name": "stake_amount",
          "type": "uint256"
        },
        {
          "name": "chance",
          "type": "uint256"
        },
        {
          "name": "active",
          "type": "bool"
        },
        {
          "name": "chosen",
          "type": "bool"
        }
      ],
      "payable": false,
      "stateMutability": "view",
      "type": "function"
    },
    {
      "constant": true,
      "inputs": [
        {
          "name": "",
          "type": "address"
        },
        {
          "name": "",
          "type": "uint256"
        }
      ],
      "name": "offer",
      "outputs": [
        {
          "name": "total_escrow_time",
          "type": "uint256"
        },
        {
          "name": "max_token_amount",
          "type": "uint256"
        },
        {
          "name": "min_stake_amount",
          "type": "uint256"
        },
        {
          "name": "reveal_start_time",
          "type": "uint256"
        },
        {
          "name": "choose_start_time",
          "type": "uint256"
        },
        {
          "name": "min_number_of_bids",
          "type": "uint256"
        },
        {
          "name": "data_size",
          "type": "uint256"
        },
        {
          "name": "replication_factor",
          "type": "uint256"
        },
        {
          "name": "number_of_bids",
          "type": "uint256"
        },
        {
          "name": "number_of_bids_revealed",
          "type": "uint256"
        },
        {
          "name": "total_bid_chance",
          "type": "uint256"
        },
        {
          "name": "random_number_seed",
          "type": "uint256"
        },
        {
          "name": "active",
          "type": "bool"
        },
        {
          "name": "finalized",
          "type": "bool"
        }
      ],
      "payable": false,
      "stateMutability": "view",
      "type": "function"
    },
    {
      "constant": true,
      "inputs": [],
      "name": "escrow",
      "outputs": [
        {
          "name": "",
          "type": "address"
        }
      ],
      "payable": false,
      "stateMutability": "view",
      "type": "function"
    },
    {
      "constant": true,
      "inputs": [],
      "name": "token",
      "outputs": [
        {
          "name": "",
          "type": "address"
        }
      ],
      "payable": false,
      "stateMutability": "view",
      "type": "function"
    },
    {
      "inputs": [
        {
          "name": "tokenAddress",
          "type": "address"
        },
        {
          "name": "escrowAddress",
          "type": "address"
        }
      ],
      "payable": false,
      "stateMutability": "nonpayable",
      "type": "constructor"
    },
    {
      "anonymous": false,
      "inputs": [
        {
          "indexed": false,
          "name": "DC_wallet",
          "type": "address"
        },
        {
          "indexed": false,
          "name": "DC_node_id",
          "type": "uint256"
        },
        {
          "indexed": false,
          "name": "data_id",
          "type": "uint256"
        },
        {
          "indexed": false,
          "name": "total_escrow_time",
          "type": "uint256"
        },
        {
          "indexed": false,
          "name": "max_token_amount",
          "type": "uint256"
        },
        {
          "indexed": false,
          "name": "min_stake_amount",
          "type": "uint256"
        },
        {
          "indexed": false,
          "name": "data_size",
          "type": "uint256"
        }
      ],
      "name": "OfferCreated",
      "type": "event"
    },
    {
      "anonymous": false,
      "inputs": [
        {
          "indexed": false,
          "name": "DC_wallet",
          "type": "address"
        },
        {
          "indexed": false,
          "name": "data_id",
          "type": "uint256"
        }
      ],
      "name": "OfferCanceled",
      "type": "event"
    },
    {
      "anonymous": false,
      "inputs": [
        {
          "indexed": false,
          "name": "DC_wallet",
          "type": "address"
        },
        {
          "indexed": false,
          "name": "data_id",
          "type": "uint256"
        },
        {
          "indexed": false,
          "name": "bidIndex",
          "type": "uint256"
        },
        {
          "indexed": false,
          "name": "DH_wallet",
          "type": "address"
        },
        {
          "indexed": false,
          "name": "node_id",
          "type": "uint256"
        },
        {
          "indexed": false,
          "name": "bid_hash",
          "type": "bytes32"
        }
      ],
      "name": "AddedBid",
      "type": "event"
    },
    {
      "anonymous": false,
      "inputs": [
        {
          "indexed": false,
          "name": "DC_wallet",
          "type": "address"
        },
        {
          "indexed": false,
          "name": "DH_wallet",
          "type": "address"
        },
        {
          "indexed": false,
          "name": "data_id",
          "type": "uint256"
        }
      ],
      "name": "BidTaken",
      "type": "event"
    },
    {
      "anonymous": false,
      "inputs": [
        {
          "indexed": false,
          "name": "DC_wallet",
          "type": "address"
        },
        {
          "indexed": false,
          "name": "DH_wallet",
          "type": "address"
        },
        {
          "indexed": false,
          "name": "node_id",
          "type": "uint256"
        },
        {
          "indexed": false,
          "name": "data_id",
          "type": "uint256"
        },
        {
          "indexed": false,
          "name": "token_amount",
          "type": "uint256"
        },
        {
          "indexed": false,
          "name": "stake_amount",
          "type": "uint256"
        }
      ],
      "name": "RevealedBid",
      "type": "event"
    },
    {
      "anonymous": false,
      "inputs": [
        {
          "indexed": false,
          "name": "DC_wallet",
          "type": "address"
        },
        {
          "indexed": false,
          "name": "data_id",
          "type": "uint256"
        }
      ],
      "name": "OfferFinalized",
      "type": "event"
    },
    {
      "anonymous": false,
      "inputs": [
        {
          "indexed": false,
          "name": "x",
          "type": "uint256"
        }
      ],
      "name": "XwasSet",
      "type": "event"
    },
    {
      "constant": false,
      "inputs": [
        {
          "name": "data_id",
          "type": "uint256"
        },
        {
          "name": "DC_node_id",
          "type": "uint256"
        },
        {
          "name": "total_escrow_time",
          "type": "uint256"
        },
        {
          "name": "max_token_amount",
          "type": "uint256"
        },
        {
          "name": "min_stake_amount",
          "type": "uint256"
        },
        {
          "name": "bidding_phase_time",
          "type": "uint256"
        },
        {
          "name": "min_number_of_bids",
          "type": "uint256"
        },
        {
          "name": "data_size",
          "type": "uint256"
        },
        {
          "name": "replication_factor",
          "type": "uint256"
        }
      ],
      "name": "createOffer",
      "outputs": [
        {
          "name": "choose_start_time",
          "type": "uint256"
        }
      ],
      "payable": false,
      "stateMutability": "nonpayable",
      "type": "function"
    },
    {
      "constant": false,
      "inputs": [
        {
          "name": "data_id",
          "type": "uint256"
        }
      ],
      "name": "cancelOffer",
      "outputs": [],
      "payable": false,
      "stateMutability": "nonpayable",
      "type": "function"
    },
    {
      "constant": true,
      "inputs": [
        {
          "name": "DC_wallet",
          "type": "address"
        },
        {
          "name": "data_id",
          "type": "uint256"
        },
        {
          "name": "bidIndex",
          "type": "uint256"
        }
      ],
      "name": "isBidChosen",
      "outputs": [
        {
          "name": "_isBidChosen",
          "type": "bool"
        }
      ],
      "payable": false,
      "stateMutability": "view",
      "type": "function"
    },
    {
      "constant": true,
      "inputs": [
        {
          "name": "DC_wallet",
          "type": "address"
        },
        {
          "name": "data_id",
          "type": "uint256"
        }
      ],
      "name": "getOfferStatus",
      "outputs": [
        {
          "name": "isOfferFinal",
          "type": "bool"
        }
      ],
      "payable": false,
      "stateMutability": "view",
      "type": "function"
    },
    {
      "constant": false,
      "inputs": [
        {
          "name": "DC_wallet",
          "type": "address"
        },
        {
          "name": "data_id",
          "type": "uint256"
        },
        {
          "name": "node_id",
          "type": "uint256"
        },
        {
          "name": "bid_hash",
          "type": "bytes32"
        }
      ],
      "name": "addBid",
      "outputs": [
        {
          "name": "bidIndex",
          "type": "uint256"
        }
      ],
      "payable": false,
      "stateMutability": "nonpayable",
      "type": "function"
    },
    {
      "constant": false,
      "inputs": [
        {
          "name": "DC_wallet",
          "type": "address"
        },
        {
          "name": "data_id",
          "type": "uint256"
        },
        {
          "name": "node_id",
          "type": "uint256"
        },
        {
          "name": "token_amount",
          "type": "uint256"
        },
        {
          "name": "stake_amount",
          "type": "uint256"
        },
        {
          "name": "bidIndex",
          "type": "uint256"
        }
      ],
      "name": "revealBid",
      "outputs": [],
      "payable": false,
      "stateMutability": "nonpayable",
      "type": "function"
    },
    {
      "constant": false,
      "inputs": [
        {
          "name": "DC_wallet",
          "type": "address"
        },
        {
          "name": "data_id",
          "type": "uint256"
        },
        {
          "name": "bidIndex",
          "type": "uint256"
        }
      ],
      "name": "cancelBid",
      "outputs": [],
      "payable": false,
      "stateMutability": "nonpayable",
      "type": "function"
    },
    {
      "constant": false,
      "inputs": [
        {
          "name": "data_id",
          "type": "uint256"
        }
      ],
      "name": "chooseBids",
      "outputs": [
        {
          "name": "chosen_data_holders",
          "type": "uint256[]"
        }
      ],
      "payable": false,
      "stateMutability": "nonpayable",
      "type": "function"
    }
  ],
  "bytecode": "0x6060604052631dcd6500600255341561001757600080fd5b6040516040806126bf83398101604052808051906020019091908051906020019091905050600073ffffffffffffffffffffffffffffffffffffffff168273ffffffffffffffffffffffffffffffffffffffff16141580156100a65750600073ffffffffffffffffffffffffffffffffffffffff168173ffffffffffffffffffffffffffffffffffffffff1614155b15156100b157600080fd5b816000806101000a81548173ffffffffffffffffffffffffffffffffffffffff021916908373ffffffffffffffffffffffffffffffffffffffff16021790555080600160006101000a81548173ffffffffffffffffffffffffffffffffffffffff021916908373ffffffffffffffffffffffffffffffffffffffff160217905550505061257c806101436000396000f3006060604052600436106100ba576000357c0100000000000000000000000000000000000000000000000000000000900463ffffffff16806303b31c15146100bf5780630a094dd0146101255780630f41ba4b1461019d5780633290463b1461026957806352cb44fc146102b45780636b2129601461030e5780638f573d9c146103c7578063c15bd4cb1461042a578063c932512914610496578063e2fdcc1714610515578063ef706adf1461056a578063fc0c546a1461058d575b600080fd5b34156100ca57600080fd5b610123600480803573ffffffffffffffffffffffffffffffffffffffff169060200190919080359060200190919080359060200190919080359060200190919080359060200190919080359060200190919050506105e2565b005b341561013057600080fd5b6101466004808035906020019091905050610c95565b6040518080602001828103825283818151815260200191508051906020019060200280838360005b8381101561018957808201518184015260208101905061016e565b505050509050019250505060405180910390f35b34156101a857600080fd5b6101e6600480803573ffffffffffffffffffffffffffffffffffffffff169060200190919080359060200190919080359060200190919050506114f5565b6040518089600019166000191681526020018873ffffffffffffffffffffffffffffffffffffffff1673ffffffffffffffffffffffffffffffffffffffff16815260200187815260200186815260200185815260200184815260200183151515158152602001821515151581526020019850505050505050505060405180910390f35b341561027457600080fd5b6102b2600480803573ffffffffffffffffffffffffffffffffffffffff16906020019091908035906020019091908035906020019091905050611591565b005b34156102bf57600080fd5b6102f4600480803573ffffffffffffffffffffffffffffffffffffffff16906020019091908035906020019091905050611997565b604051808215151515815260200191505060405180910390f35b341561031957600080fd5b61034e600480803573ffffffffffffffffffffffffffffffffffffffff16906020019091908035906020019091905050611a02565b604051808f81526020018e81526020018d81526020018c81526020018b81526020018a815260200189815260200188815260200187815260200186815260200185815260200184815260200183151515158152602001821515151581526020019e50505050505050505050505050505060405180910390f35b34156103d257600080fd5b610410600480803573ffffffffffffffffffffffffffffffffffffffff16906020019091908035906020019091908035906020019091905050611a95565b604051808215151515815260200191505060405180910390f35b341561043557600080fd5b610480600480803573ffffffffffffffffffffffffffffffffffffffff1690602001909190803590602001909190803590602001909190803560001916906020019091905050611b12565b6040518082815260200191505060405180910390f35b34156104a157600080fd5b6104ff6004808035906020019091908035906020019091908035906020019091908035906020019091908035906020019091908035906020019091908035906020019091908035906020019091908035906020019091905050611e2c565b6040518082815260200191505060405180910390f35b341561052057600080fd5b6105286123e0565b604051808273ffffffffffffffffffffffffffffffffffffffff1673ffffffffffffffffffffffffffffffffffffffff16815260200191505060405180910390f35b341561057557600080fd5b61058b6004808035906020019091905050612406565b005b341561059857600080fd5b6105a06124e0565b604051808273ffffffffffffffffffffffffffffffffffffffff1673ffffffffffffffffffffffffffffffffffffffff16815260200191505060405180910390f35b6000600360008873ffffffffffffffffffffffffffffffffffffffff1673ffffffffffffffffffffffffffffffffffffffff1681526020019081526020016000206000878152602001908152602001600020600c0160009054906101000a900460ff16151561065057600080fd5b42600360008973ffffffffffffffffffffffffffffffffffffffff1673ffffffffffffffffffffffffffffffffffffffff168152602001908152602001600020600088815260200190815260200160002060030154111515156106b257600080fd5b42600360008973ffffffffffffffffffffffffffffffffffffffff1673ffffffffffffffffffffffffffffffffffffffff16815260200190815260200160002060008881526020019081526020016000206004015411151561071357600080fd5b83600360008973ffffffffffffffffffffffffffffffffffffffff1673ffffffffffffffffffffffffffffffffffffffff1681526020019081526020016000206000888152602001908152602001600020600101541015151561077557600080fd5b33858585604051808573ffffffffffffffffffffffffffffffffffffffff1673ffffffffffffffffffffffffffffffffffffffff166c01000000000000000000000000028152601401848152602001838152602001828152602001945050505050604051809103902060001916600460008973ffffffffffffffffffffffffffffffffffffffff1673ffffffffffffffffffffffffffffffffffffffff16815260200190815260200160002060008881526020019081526020016000206000848152602001908152602001600020600001546000191614151561085757600080fd5b33600460008973ffffffffffffffffffffffffffffffffffffffff1673ffffffffffffffffffffffffffffffffffffffff1681526020019081526020016000206000888152602001908152602001600020600084815260200190815260200160002060010160006101000a81548173ffffffffffffffffffffffffffffffffffffffff021916908373ffffffffffffffffffffffffffffffffffffffff16021790555084600460008973ffffffffffffffffffffffffffffffffffffffff1673ffffffffffffffffffffffffffffffffffffffff168152602001908152602001600020600088815260200190815260200160002060008481526020019081526020016000206002018190555083600460008973ffffffffffffffffffffffffffffffffffffffff1673ffffffffffffffffffffffffffffffffffffffff168152602001908152602001600020600088815260200190815260200160002060008481526020019081526020016000206003018190555082600460008973ffffffffffffffffffffffffffffffffffffffff1673ffffffffffffffffffffffffffffffffffffffff168152602001908152602001600020600088815260200190815260200160002060008481526020019081526020016000206004018190555083600254811515610a4257fe5b04600460008973ffffffffffffffffffffffffffffffffffffffff1673ffffffffffffffffffffffffffffffffffffffff16815260200190815260200160002060008881526020019081526020016000206000848152602001908152602001600020600501819055506001600460008973ffffffffffffffffffffffffffffffffffffffff1673ffffffffffffffffffffffffffffffffffffffff1681526020019081526020016000206000888152602001908152602001600020600084815260200190815260200160002060060160006101000a81548160ff021916908315150217905550600360008873ffffffffffffffffffffffffffffffffffffffff1673ffffffffffffffffffffffffffffffffffffffff16815260200190815260200160002060008781526020019081526020016000209050610b9e84600254811515610b8a57fe5b0482600a015461250590919063ffffffff16565b81600a0181905550610bbe6001826009015461250590919063ffffffff16565b81600901819055504381600b01540181600b01819055507fefd438b1966b5984f9c065e1473677494dc718928f53405fcaa8d223dc4e90f1873387898888604051808773ffffffffffffffffffffffffffffffffffffffff1673ffffffffffffffffffffffffffffffffffffffff1681526020018673ffffffffffffffffffffffffffffffffffffffff1673ffffffffffffffffffffffffffffffffffffffff168152602001858152602001848152602001838152602001828152602001965050505050505060405180910390a150505050505050565b610c9d61253c565b6000806000806000806000806000600360003373ffffffffffffffffffffffffffffffffffffffff1673ffffffffffffffffffffffffffffffffffffffff16815260200190815260200160002060008c815260200190815260200160002098508860090154896005015411151515610d1457600080fd5b42896004015411151515610d2757600080fd5b8860070154975087604051805910610d3c5750595b908082528060200260200182016040525099506000965088600b015495505b8787108015610d6e575088600901548811155b156114105788600a0154428a60080154880201811515610d8a57fe5b06945060009350600460003373ffffffffffffffffffffffffffffffffffffffff1673ffffffffffffffffffffffffffffffffffffffff16815260200190815260200160002060008c815260200190815260200160002060008581526020019081526020016000206005015492505b84831015610e87578380600101945050610e80600460003373ffffffffffffffffffffffffffffffffffffffff1673ffffffffffffffffffffffffffffffffffffffff16815260200190815260200160002060008d81526020019081526020016000206000868152602001908152602001600020600501548461250590919063ffffffff16565b9250610df9565b600460003373ffffffffffffffffffffffffffffffffffffffff1673ffffffffffffffffffffffffffffffffffffffff16815260200190815260200160002060008c81526020019081526020016000206000858152602001908152602001600020915081600401546000809054906101000a900473ffffffffffffffffffffffffffffffffffffffff1673ffffffffffffffffffffffffffffffffffffffff1663dd62ed3e8460010160009054906101000a900473ffffffffffffffffffffffffffffffffffffffff16306040518363ffffffff167c0100000000000000000000000000000000000000000000000000000000028152600401808373ffffffffffffffffffffffffffffffffffffffff1673ffffffffffffffffffffffffffffffffffffffff1681526020018273ffffffffffffffffffffffffffffffffffffffff1673ffffffffffffffffffffffffffffffffffffffff16815260200192505050602060405180830381600087803b151561100257600080fd5b5af1151561100f57600080fd5b5050506040518051905010158015611120575081600401546000809054906101000a900473ffffffffffffffffffffffffffffffffffffffff1673ffffffffffffffffffffffffffffffffffffffff166370a082318460010160009054906101000a900473ffffffffffffffffffffffffffffffffffffffff166040518263ffffffff167c0100000000000000000000000000000000000000000000000000000000028152600401808273ffffffffffffffffffffffffffffffffffffffff1673ffffffffffffffffffffffffffffffffffffffff168152602001915050602060405180830381600087803b151561110657600080fd5b5af1151561111357600080fd5b5050506040518051905010155b1561139657816004015490506000826004018190555060008260050181905550600160009054906101000a900473ffffffffffffffffffffffffffffffffffffffff1673ffffffffffffffffffffffffffffffffffffffff166395b9df2b338460010160009054906101000a900473ffffffffffffffffffffffffffffffffffffffff168e8660030154868f600001546040518763ffffffff167c0100000000000000000000000000000000000000000000000000000000028152600401808773ffffffffffffffffffffffffffffffffffffffff1673ffffffffffffffffffffffffffffffffffffffff1681526020018673ffffffffffffffffffffffffffffffffffffffff1673ffffffffffffffffffffffffffffffffffffffff1681526020018581526020018481526020018381526020018281526020019650505050505050600060405180830381600087803b151561127c57600080fd5b5af1151561128957600080fd5b50505060018260060160016101000a81548160ff021916908315150217905550838a888151811015156112b857fe5b906020019060200201818152505086806001019750507f317718fddb55bc6c03b3519e1be57b8f4dc97663268ddbce56748913919390c9338360010160009054906101000a900473ffffffffffffffffffffffffffffffffffffffff168d604051808473ffffffffffffffffffffffffffffffffffffffff1673ffffffffffffffffffffffffffffffffffffffff1681526020018373ffffffffffffffffffffffffffffffffffffffff1673ffffffffffffffffffffffffffffffffffffffff168152602001828152602001935050505060405180910390a16113de565b6113ae60018a6009015461252390919063ffffffff16565b89600901819055506000826005018190555060008260060160006101000a81548160ff0219169083151502179055505b6000826005018190555061140382600501548a600a015461252390919063ffffffff16565b89600a0181905550610d5b565b6001600360003373ffffffffffffffffffffffffffffffffffffffff1673ffffffffffffffffffffffffffffffffffffffff16815260200190815260200160002060008d8152602001908152602001600020600c0160016101000a81548160ff0219169083151502179055507f064d50203237a65dcd9810ba5ec04a2028896bd1480ae79852d640ca58e4f6d0338c604051808373ffffffffffffffffffffffffffffffffffffffff1673ffffffffffffffffffffffffffffffffffffffff1681526020018281526020019250505060405180910390a1505050505050505050919050565b600460205282600052604060002060205281600052604060002060205280600052604060002060009250925050508060000154908060010160009054906101000a900473ffffffffffffffffffffffffffffffffffffffff16908060020154908060030154908060040154908060050154908060060160009054906101000a900460ff16908060060160019054906101000a900460ff16905088565b3373ffffffffffffffffffffffffffffffffffffffff16600460008573ffffffffffffffffffffffffffffffffffffffff1673ffffffffffffffffffffffffffffffffffffffff1681526020019081526020016000206000848152602001908152602001600020600083815260200190815260200160002060010160009054906101000a900473ffffffffffffffffffffffffffffffffffffffff1673ffffffffffffffffffffffffffffffffffffffff1614151561164f57600080fd5b600460008473ffffffffffffffffffffffffffffffffffffffff1673ffffffffffffffffffffffffffffffffffffffff1681526020019081526020016000206000838152602001908152602001600020600082815260200190815260200160002060060160009054906101000a900460ff1615156116cc57600080fd5b611796600460008573ffffffffffffffffffffffffffffffffffffffff1673ffffffffffffffffffffffffffffffffffffffff1681526020019081526020016000206000848152602001908152602001600020600083815260200190815260200160002060050154600360008673ffffffffffffffffffffffffffffffffffffffff1673ffffffffffffffffffffffffffffffffffffffff1681526020019081526020016000206000858152602001908152602001600020600a015461252390919063ffffffff16565b600360008573ffffffffffffffffffffffffffffffffffffffff1673ffffffffffffffffffffffffffffffffffffffff1681526020019081526020016000206000848152602001908152602001600020600a01819055506118546001600360008673ffffffffffffffffffffffffffffffffffffffff1673ffffffffffffffffffffffffffffffffffffffff16815260200190815260200160002060008581526020019081526020016000206009015461252390919063ffffffff16565b600360008573ffffffffffffffffffffffffffffffffffffffff1673ffffffffffffffffffffffffffffffffffffffff1681526020019081526020016000206000848152602001908152602001600020600901819055506000600460008573ffffffffffffffffffffffffffffffffffffffff1673ffffffffffffffffffffffffffffffffffffffff16815260200190815260200160002060008481526020019081526020016000206000838152602001908152602001600020600501819055506000600460008573ffffffffffffffffffffffffffffffffffffffff1673ffffffffffffffffffffffffffffffffffffffff1681526020019081526020016000206000848152602001908152602001600020600083815260200190815260200160002060060160006101000a81548160ff021916908315150217905550505050565b6000600360008473ffffffffffffffffffffffffffffffffffffffff1673ffffffffffffffffffffffffffffffffffffffff1681526020019081526020016000206000838152602001908152602001600020600c0160019054906101000a900460ff16905092915050565b60036020528160005260406000206020528060005260406000206000915091505080600001549080600101549080600201549080600301549080600401549080600501549080600601549080600701549080600801549080600901549080600a01549080600b01549080600c0160009054906101000a900460ff169080600c0160019054906101000a900460ff1690508e565b6000600460008573ffffffffffffffffffffffffffffffffffffffff1673ffffffffffffffffffffffffffffffffffffffff1681526020019081526020016000206000848152602001908152602001600020600083815260200190815260200160002060060160019054906101000a900460ff1690509392505050565b6000600360008673ffffffffffffffffffffffffffffffffffffffff1673ffffffffffffffffffffffffffffffffffffffff1681526020019081526020016000206000858152602001908152602001600020600c0160009054906101000a900460ff161515611b8057600080fd5b42600360008773ffffffffffffffffffffffffffffffffffffffff1673ffffffffffffffffffffffffffffffffffffffff168152602001908152602001600020600086815260200190815260200160002060030154111515611be157600080fd5b600360008673ffffffffffffffffffffffffffffffffffffffff1673ffffffffffffffffffffffffffffffffffffffff1681526020019081526020016000206000858152602001908152602001600020600801549050611c9e6001600360008873ffffffffffffffffffffffffffffffffffffffff1673ffffffffffffffffffffffffffffffffffffffff16815260200190815260200160002060008781526020019081526020016000206008015461250590919063ffffffff16565b600360008773ffffffffffffffffffffffffffffffffffffffff1673ffffffffffffffffffffffffffffffffffffffff16815260200190815260200160002060008681526020019081526020016000206008018190555081600460008773ffffffffffffffffffffffffffffffffffffffff1673ffffffffffffffffffffffffffffffffffffffff1681526020019081526020016000206000868152602001908152602001600020600083815260200190815260200160002060000181600019169055507ff5376361bc5b311271bd72143b9d96f479075f09b9afe0b442f6af8239ba2212858583338787604051808773ffffffffffffffffffffffffffffffffffffffff1673ffffffffffffffffffffffffffffffffffffffff1681526020018681526020018581526020018473ffffffffffffffffffffffffffffffffffffffff1673ffffffffffffffffffffffffffffffffffffffff1681526020018381526020018260001916600019168152602001965050505050505060405180910390a1809050949350505050565b60008087118015611e3d5750600088115b8015611e495750600084115b8015611e555750600085115b8015611e615750600082115b1515611e6c57600080fd5b838211151515611e7b57600080fd5b60001515600360003373ffffffffffffffffffffffffffffffffffffffff1673ffffffffffffffffffffffffffffffffffffffff16815260200190815260200160002060008c8152602001908152602001600020600c0160009054906101000a900460ff161515141515611eee57600080fd5b87600360003373ffffffffffffffffffffffffffffffffffffffff1673ffffffffffffffffffffffffffffffffffffffff16815260200190815260200160002060008c81526020019081526020016000206000018190555086600360003373ffffffffffffffffffffffffffffffffffffffff1673ffffffffffffffffffffffffffffffffffffffff16815260200190815260200160002060008c81526020019081526020016000206001018190555085600360003373ffffffffffffffffffffffffffffffffffffffff1673ffffffffffffffffffffffffffffffffffffffff16815260200190815260200160002060008c815260200190815260200160002060020181905550844201600360003373ffffffffffffffffffffffffffffffffffffffff1673ffffffffffffffffffffffffffffffffffffffff16815260200190815260200160002060008c815260200190815260200160002060030181905550846002024201600360003373ffffffffffffffffffffffffffffffffffffffff1673ffffffffffffffffffffffffffffffffffffffff16815260200190815260200160002060008c8152602001908152602001600020600401819055905083600360003373ffffffffffffffffffffffffffffffffffffffff1673ffffffffffffffffffffffffffffffffffffffff16815260200190815260200160002060008c81526020019081526020016000206005018190555082600360003373ffffffffffffffffffffffffffffffffffffffff1673ffffffffffffffffffffffffffffffffffffffff16815260200190815260200160002060008c81526020019081526020016000206006018190555081600360003373ffffffffffffffffffffffffffffffffffffffff1673ffffffffffffffffffffffffffffffffffffffff16815260200190815260200160002060008c8152602001908152602001600020600701819055506000600360003373ffffffffffffffffffffffffffffffffffffffff1673ffffffffffffffffffffffffffffffffffffffff16815260200190815260200160002060008c8152602001908152602001600020600801819055506000600360003373ffffffffffffffffffffffffffffffffffffffff1673ffffffffffffffffffffffffffffffffffffffff16815260200190815260200160002060008c8152602001908152602001600020600901819055506001600360003373ffffffffffffffffffffffffffffffffffffffff1673ffffffffffffffffffffffffffffffffffffffff16815260200190815260200160002060008c8152602001908152602001600020600c0160006101000a81548160ff0219169083151502179055506000600360003373ffffffffffffffffffffffffffffffffffffffff1673ffffffffffffffffffffffffffffffffffffffff16815260200190815260200160002060008c8152602001908152602001600020600c0160016101000a81548160ff0219169083151502179055507f623b4c671f8767711f2158cec69be01f8212cd521cff76563ca2c0fec199ccbd338a8c8b8b8b89604051808873ffffffffffffffffffffffffffffffffffffffff1673ffffffffffffffffffffffffffffffffffffffff16815260200187815260200186815260200185815260200184815260200183815260200182815260200197505050505050505060405180910390a19998505050505050505050565b600160009054906101000a900473ffffffffffffffffffffffffffffffffffffffff1681565b6000600360003373ffffffffffffffffffffffffffffffffffffffff1673ffffffffffffffffffffffffffffffffffffffff1681526020019081526020016000206000838152602001908152602001600020600c0160006101000a81548160ff0219169083151502179055507f871dc347e88ef58454c9f69d734469ed3f59dd31fd0d6b7960d092da71f4454d3382604051808373ffffffffffffffffffffffffffffffffffffffff1673ffffffffffffffffffffffffffffffffffffffff1681526020018281526020019250505060405180910390a150565b6000809054906101000a900473ffffffffffffffffffffffffffffffffffffffff1681565b600080828401905083811015151561251957fe5b8091505092915050565b600082821115151561253157fe5b818303905092915050565b6020604051908101604052806000815250905600a165627a7a723058206a3c0909c3c8e8f72b7c05824053006d2bfab4128bae416983bb41195ffa56560029",
  "source": "pragma solidity ^0.4.18;\r\n\r\nlibrary SafeMath {\r\n\tfunction mul(uint256 a, uint256 b) internal pure returns (uint256) {\r\n\t\tuint256 c = a * b;\r\n\t\tassert(a == 0 || c / a == b);\r\n\t\treturn c;\r\n\t}\r\n\r\n\tfunction div(uint256 a, uint256 b) internal pure returns (uint256) {\r\n\t\t// assert(b > 0); // Solidity automatically throws when dividing by 0\r\n\t\tuint256 c = a / b;\r\n\t\t// assert(a == b * c + a % b); // There is no case in which this doesn't hold\r\n\t\treturn c;\r\n\t}\r\n\r\n\tfunction sub(uint256 a, uint256 b) internal pure returns (uint256) {\r\n\t\tassert(b <= a);\r\n\t\treturn a - b;\r\n\t}\r\n\r\n\tfunction add(uint256 a, uint256 b) internal pure returns (uint256) {\r\n\t\tuint256 c = a + b;\r\n\t\tassert(c >= a);\r\n\t\treturn c;\r\n\t}\r\n}\r\n\r\ncontract ERC20Basic {\r\n\tuint256 public totalSupply;\r\n\tfunction balanceOf(address who) public constant returns (uint256);\r\n\tfunction transfer(address to, uint256 value) public returns (bool);\r\n\tevent Transfer(address indexed from, address indexed to, uint256 value);\r\n}\r\n\r\ncontract ERC20 is ERC20Basic {\r\n\tfunction allowance(address owner, address spender) public constant returns (uint256);\r\n\tfunction transferFrom(address from, address to, uint256 value) public returns (bool);\r\n\tfunction approve(address spender, uint256 value) public returns (bool);\r\n\tevent Approval(address indexed owner, address indexed spender, uint256 value);\r\n}\r\n\r\ncontract EscrowHolder {\r\n\tfunction initiateEscrow(address DC_wallet, address DH_wallet, uint data_id, uint token_amount,uint stake_amount, uint total_time) public;\r\n}\r\n\r\ncontract Bidding {\r\n\tusing SafeMath for uint256;\r\n\r\n\tERC20 public token;\r\n\tEscrowHolder public escrow;\r\n\tuint TOTAL_NUM_TOKENS = 500000000;\r\n\r\n\tfunction Bidding(address tokenAddress, address escrowAddress)\r\n\tpublic{\r\n\t\trequire ( tokenAddress != address(0) && escrowAddress != address(0));\r\n\t\ttoken = ERC20(tokenAddress);\r\n\t\tescrow = EscrowHolder(escrowAddress);\r\n\t}\r\n\r\n\r\n\t/*    ----------------------------- BIDDING -----------------------------     */\r\n\r\n\r\n\tstruct OfferDefinition{\r\n\t\t//Parameters of one escrow\r\n\t\tuint total_escrow_time;\r\n\t\tuint max_token_amount;\r\n\t\tuint min_stake_amount;\r\n\r\n\t\t//Parameters for the bidding \r\n\t\tuint reveal_start_time;\r\n\t\tuint choose_start_time;\r\n\t\tuint min_number_of_bids;\r\n\r\n\t\t//Parameters of the data\r\n\t\tuint data_size;\r\n\t\tuint replication_factor; //Number of DH's required\r\n\r\n\r\n\t\t//Parameters for use during the bidding mechanism\r\n\t\tuint256 number_of_bids;\r\n\t\tuint256 number_of_bids_revealed;\r\n\t\tuint total_bid_chance;\r\n\t\tuint random_number_seed;\r\n\t\tbool active;\r\n\t\tbool finalized;\r\n\t}\r\n\r\n\tstruct BidDefinition{\r\n\t\tbytes32 bid_hash;\r\n\t\taddress DH_wallet;\r\n\t\tuint node_id;\r\n\t\tuint token_amount;\r\n\t\tuint stake_amount;\r\n\t\tuint chance;\r\n\t\tbool active;\r\n\t\tbool chosen;\r\n\t}\r\n\r\n\tmapping(address => mapping(uint => OfferDefinition)) public offer;\r\n\tmapping(address => mapping(uint => mapping(uint => BidDefinition))) public bid;\r\n\r\n\tuint256 x;\r\n\r\n\tevent OfferCreated(address DC_wallet,uint DC_node_id, uint data_id, uint total_escrow_time, uint max_token_amount, uint min_stake_amount, uint data_size);\r\n\tevent OfferCanceled(address DC_wallet, uint data_id);\r\n\t// event RevealPhaseStarted(address DC_wallet, uint data_id);\r\n\t// event ChoosingPhaseStarted(address DC_wallet, uint data_id);\r\n\tevent AddedBid(address DC_wallet,uint data_id, uint bidIndex, address DH_wallet, uint node_id, bytes32 bid_hash);\r\n\tevent BidTaken(address DC_wallet, address DH_wallet, uint data_id);\r\n\tevent RevealedBid(address DC_wallet, address DH_wallet,  uint node_id,uint data_id,  uint token_amount, uint stake_amount);\r\n\tevent OfferFinalized(address DC_wallet,uint data_id);\r\n\tevent XwasSet(uint x);\r\n\r\n\tfunction createOffer(\r\n\t\tuint data_id,\r\n\t\tuint DC_node_id,\r\n\t\tuint total_escrow_time,\r\n\t\tuint max_token_amount,\r\n\t\tuint min_stake_amount,\r\n\t\tuint bidding_phase_time,\r\n\t\tuint min_number_of_bids,\r\n\t\tuint data_size,\r\n\t\tuint replication_factor)\r\n\tpublic returns (uint choose_start_time){\r\n\r\n\t\trequire(max_token_amount > 0 && total_escrow_time > 0 && min_number_of_bids > 0 && bidding_phase_time > 0 && replication_factor > 0);\r\n\t\trequire(replication_factor <= min_number_of_bids);\r\n\t\trequire(offer[msg.sender][data_id].active == false);\r\n\r\n\t\t// require(token.allowance(msg.sender,this) >= SafeMath.mul(tokens_per_DH,replication_factor));\r\n\t\t// token.transferFrom(msg.sender,this,SafeMath.mul(tokens_per_DH,replication_factor));\r\n\r\n\t\toffer[msg.sender][data_id].total_escrow_time = total_escrow_time;\r\n\t\toffer[msg.sender][data_id].max_token_amount = max_token_amount;\r\n\t\toffer[msg.sender][data_id].min_stake_amount = min_stake_amount;\r\n\r\n\t\toffer[msg.sender][data_id].reveal_start_time = block.timestamp + bidding_phase_time;\r\n\t\tchoose_start_time = offer[msg.sender][data_id].choose_start_time = block.timestamp + 2 * bidding_phase_time;\r\n\t\toffer[msg.sender][data_id].min_number_of_bids = min_number_of_bids;\r\n\r\n\t\toffer[msg.sender][data_id].data_size = data_size;\r\n\t\toffer[msg.sender][data_id].replication_factor = replication_factor;\r\n\r\n\t\toffer[msg.sender][data_id].number_of_bids = 0;\r\n\t\toffer[msg.sender][data_id].number_of_bids_revealed = 0;\r\n\t\toffer[msg.sender][data_id].active = true;\r\n\t\toffer[msg.sender][data_id].finalized = false;\r\n\t\tOfferCreated(msg.sender, DC_node_id, data_id, total_escrow_time,max_token_amount, min_stake_amount, data_size);\r\n\t}\r\n\r\n\r\n\t//Da li vraca pare? Kada sme da uradi cancel?\r\n\tfunction cancelOffer(uint data_id)\r\n\tpublic{\r\n\t\toffer[msg.sender][data_id].active = false;\r\n\r\n\t\tOfferCanceled(msg.sender, data_id);\r\n\t}\r\n\r\n\tfunction isBidChosen(address DC_wallet, uint data_id, uint bidIndex) public constant returns (bool _isBidChosen){\r\n\t\treturn bid[DC_wallet][data_id][bidIndex].chosen;\r\n\t}\r\n\tfunction getOfferStatus(address DC_wallet, uint data_id) public constant returns (bool isOfferFinal){\r\n\t\treturn offer[DC_wallet][data_id].finalized;\r\n\t}\r\n\r\n\tfunction addBid(address DC_wallet, uint data_id, uint node_id, bytes32 bid_hash)\r\n\tpublic returns (uint bidIndex){\r\n\t\trequire(offer[DC_wallet][data_id].active);\r\n\t\trequire(offer[DC_wallet][data_id].reveal_start_time > block.timestamp);\r\n\r\n\t\tbidIndex = offer[DC_wallet][data_id].number_of_bids;\r\n\t\toffer[DC_wallet][data_id].number_of_bids = offer[DC_wallet][data_id].number_of_bids.add(1);\r\n\r\n\t\t// fix\r\n\t\tbid[DC_wallet][data_id][bidIndex].bid_hash = bid_hash;\r\n\r\n\t\t// bid[DC_wallet][data_id][bidIndex].bid_hash = keccak256(msg.sender, node_id, token_amount, stake_amount);\r\n\t\tAddedBid(DC_wallet,data_id, bidIndex, msg.sender, node_id, bid_hash );\r\n\t\treturn bidIndex;\r\n\t}\r\n\r\n\tfunction revealBid(address DC_wallet, uint data_id, uint node_id, uint token_amount, uint stake_amount, uint bidIndex)\r\n\tpublic {\r\n\r\n\t\trequire(offer[DC_wallet][data_id].active);\r\n\t\trequire(offer[DC_wallet][data_id].reveal_start_time <= block.timestamp);\r\n\t\trequire(offer[DC_wallet][data_id].choose_start_time > block.timestamp);\r\n\t\trequire(offer[DC_wallet][data_id].max_token_amount >= token_amount);\r\n\r\n\t\trequire(bid[DC_wallet][data_id][bidIndex].bid_hash == keccak256(msg.sender, node_id, token_amount, stake_amount));\r\n\r\n\t\tbid[DC_wallet][data_id][bidIndex].DH_wallet = msg.sender;\r\n\t\tbid[DC_wallet][data_id][bidIndex].node_id = node_id;\r\n\t\tbid[DC_wallet][data_id][bidIndex].token_amount = token_amount;\r\n\t\tbid[DC_wallet][data_id][bidIndex].stake_amount = stake_amount;\r\n\t\tbid[DC_wallet][data_id][bidIndex].chance = TOTAL_NUM_TOKENS / token_amount;\r\n\t\tbid[DC_wallet][data_id][bidIndex].active = true;\r\n\r\n\t\tOfferDefinition storage this_offer = offer[DC_wallet][data_id];\r\n\r\n\t\tthis_offer.total_bid_chance = this_offer.total_bid_chance.add(TOTAL_NUM_TOKENS / token_amount);\r\n\t\tthis_offer.number_of_bids_revealed = this_offer.number_of_bids_revealed.add(1);\r\n\t\tthis_offer.random_number_seed = this_offer.random_number_seed + block.number;//FIX\r\n\r\n\t\tRevealedBid(DC_wallet,msg.sender, node_id,data_id, token_amount, stake_amount);\r\n\r\n\t}\r\n\r\n\tfunction cancelBid(address DC_wallet, uint data_id, uint bidIndex)\r\n\tpublic{\r\n\t\trequire(bid[DC_wallet][data_id][bidIndex].DH_wallet == msg.sender);\r\n\t\trequire(bid[DC_wallet][data_id][bidIndex].active);\r\n\r\n\t\toffer[DC_wallet][data_id].total_bid_chance = offer[DC_wallet][data_id].total_bid_chance.sub(bid[DC_wallet][data_id][bidIndex].chance);\r\n\t\toffer[DC_wallet][data_id].number_of_bids_revealed = offer[DC_wallet][data_id].number_of_bids_revealed.sub(1);\r\n\r\n\t\tbid[DC_wallet][data_id][bidIndex].chance = 0;\r\n\t\tbid[DC_wallet][data_id][bidIndex].active = false;\r\n\t}\r\n\r\n\tfunction chooseBids(uint data_id) public returns (uint256[] chosen_data_holders){\r\n\r\n\t\tOfferDefinition storage this_offer = offer[msg.sender][data_id];\r\n\r\n\t\trequire(this_offer.min_number_of_bids <= this_offer.number_of_bids_revealed);\r\n\t\trequire(this_offer.choose_start_time <= block.timestamp);\r\n\r\n\t\tuint N = this_offer.replication_factor;\r\n\t\tchosen_data_holders = new uint256[](N);\r\n\r\n\t\tuint256 i = 0;\r\n\t\tuint256 seed = this_offer.random_number_seed;\r\n\r\n\t\twhile(i < N && N <= this_offer.number_of_bids_revealed){\t//FIX: Should be hash(block.hash)\r\n\r\n\t\t\tuint nextIndex = (seed * this_offer.number_of_bids + block.timestamp) % this_offer.total_bid_chance;\r\n\t\t\tuint256 j = 0;\r\n\t\t\tuint256 sum = bid[msg.sender][data_id][j].chance;\r\n\t\t\twhile(sum < nextIndex){\r\n\t\t\t\tj++;\r\n\t\t\t\tsum = sum.add(bid[msg.sender][data_id][j].chance);\r\n\t\t\t}\r\n\t\t\tBidDefinition storage chosenBid = bid[msg.sender][data_id][j];\r\n\t\t\tif(token.allowance(chosenBid.DH_wallet,this) >= chosenBid.stake_amount\r\n\t\t\t&& token.balanceOf(chosenBid.DH_wallet) >= chosenBid.stake_amount){\r\n\r\n\t\t\t\tuint stake_to_transfer = chosenBid.stake_amount;\r\n\t\t\t\tchosenBid.stake_amount = 0;\r\n\t\t\t\tchosenBid.chance = 0;\r\n\t\t\t\t// // transfering stake\r\n\t\t\t\t// if(stake_to_transfer > 0) token.transferFrom(chosenBid.DH_wallet,escrow,stake_to_transfer);    \r\n\r\n\t\t\t\t//Initiating new escrow\r\n\t\t\t\tescrow.initiateEscrow(msg.sender, chosenBid.DH_wallet, data_id, chosenBid.token_amount, stake_to_transfer, this_offer.total_escrow_time);\r\n\t\t\t\t//TODO Ako DC odmah salje pare ovde racunati koliko treba da mu se vrati\r\n\t\t\t\tchosenBid.chosen = true;\r\n\t\t\t\tchosen_data_holders[i] = j;\r\n\t\t\t\ti++;\r\n\t\t\t\tBidTaken(msg.sender, chosenBid.DH_wallet, data_id);\r\n\t\t\t}\r\n\t\t\telse{\r\n\t\t\t\tthis_offer.number_of_bids_revealed = this_offer.number_of_bids_revealed.sub(1);\r\n\t\t\t\tchosenBid.chance = 0;\r\n\t\t\t\tchosenBid.active = false;\r\n\r\n\t\t\t}\r\n\t\t\tchosenBid.chance = 0;\r\n\t\t\tthis_offer.total_bid_chance = this_offer.total_bid_chance.sub(chosenBid.chance);\r\n\t\t}\r\n\r\n\r\n\r\n\t\toffer[msg.sender][data_id].finalized = true;\r\n\t\tOfferFinalized(msg.sender,data_id);\r\n\r\n\t}\r\n\r\n}",
  "sourcePath": "C:\\Users\\Uros\\Downloads\\OriginTrail\\ot-node\\modules\\Blockchain\\Ethereum\\contracts\\Bidding.sol",
  "compiler": {
    "name": "solc",
    "version": "0.4.21+commit.dfe3193c.Emscripten.clang"
  },
  "schemaVersion": "2.0.0",
  "updatedAt": "2018-04-25T10:31:46.102Z"
}