{
  "contractName": "EscrowHolder",
  "abi": [
    {
      "constant": true,
      "inputs": [
        {
          "name": "",
          "type": "address"
        },
        {
          "name": "",
          "type": "address"
        },
        {
          "name": "",
          "type": "uint256"
        }
      ],
      "name": "escrow",
      "outputs": [
        {
          "name": "token_amount",
          "type": "uint256"
        },
        {
          "name": "tokens_sent",
          "type": "uint256"
        },
        {
          "name": "stake_amount",
          "type": "uint256"
        },
        {
          "name": "last_confirmation_time",
          "type": "uint256"
        },
        {
          "name": "end_time",
          "type": "uint256"
        },
        {
          "name": "total_time",
          "type": "uint256"
        },
        {
          "name": "escrow_status",
          "type": "uint8"
        }
      ],
      "payable": false,
      "stateMutability": "view",
      "type": "function"
    },
    {
      "constant": true,
      "inputs": [],
      "name": "owner",
      "outputs": [
        {
          "name": "",
          "type": "address"
        }
      ],
      "payable": false,
      "stateMutability": "view",
      "type": "function"
    },
    {
      "constant": false,
      "inputs": [
        {
          "name": "newOwner",
          "type": "address"
        }
      ],
      "name": "transferOwnership",
      "outputs": [],
      "payable": false,
      "stateMutability": "nonpayable",
      "type": "function"
    },
    {
      "constant": true,
      "inputs": [],
      "name": "token",
      "outputs": [
        {
          "name": "",
          "type": "address"
        }
      ],
      "payable": false,
      "stateMutability": "view",
      "type": "function"
    },
    {
      "inputs": [
        {
          "name": "tokenAddress",
          "type": "address"
        }
      ],
      "payable": false,
      "stateMutability": "nonpayable",
      "type": "constructor"
    },
    {
      "anonymous": false,
      "inputs": [
        {
          "indexed": false,
          "name": "DC_wallet",
          "type": "address"
        },
        {
          "indexed": false,
          "name": "DH_wallet",
          "type": "address"
        },
        {
          "indexed": false,
          "name": "data_id",
          "type": "uint256"
        },
        {
          "indexed": false,
          "name": "token_amount",
          "type": "uint256"
        },
        {
          "indexed": false,
          "name": "stake_amount",
          "type": "uint256"
        },
        {
          "indexed": false,
          "name": "total_time",
          "type": "uint256"
        }
      ],
      "name": "EscrowInitated",
      "type": "event"
    },
    {
      "anonymous": false,
      "inputs": [
        {
          "indexed": false,
          "name": "DC_wallet",
          "type": "address"
        },
        {
          "indexed": false,
          "name": "DH_wallet",
          "type": "address"
        },
        {
          "indexed": false,
          "name": "data_id",
          "type": "uint256"
        },
        {
          "indexed": false,
          "name": "verification_successful",
          "type": "bool"
        }
      ],
      "name": "EscrowVerified",
      "type": "event"
    },
    {
      "anonymous": false,
      "inputs": [
        {
          "indexed": false,
          "name": "DC_wallet",
          "type": "address"
        },
        {
          "indexed": false,
          "name": "DH_wallet",
          "type": "address"
        },
        {
          "indexed": false,
          "name": "data_id",
          "type": "uint256"
        }
      ],
      "name": "EscrowCanceled",
      "type": "event"
    },
    {
      "anonymous": false,
      "inputs": [
        {
          "indexed": false,
          "name": "DC_wallet",
          "type": "address"
        },
        {
          "indexed": false,
          "name": "DH_wallet",
          "type": "address"
        },
        {
          "indexed": false,
          "name": "data_id",
          "type": "uint256"
        }
      ],
      "name": "EscrowCompleted",
      "type": "event"
    },
    {
      "anonymous": false,
      "inputs": [
        {
          "indexed": true,
          "name": "previousOwner",
          "type": "address"
        },
        {
          "indexed": true,
          "name": "newOwner",
          "type": "address"
        }
      ],
      "name": "OwnershipTransferred",
      "type": "event"
    },
    {
      "constant": false,
      "inputs": [
        {
          "name": "DC_wallet",
          "type": "address"
        },
        {
          "name": "DH_wallet",
          "type": "address"
        },
        {
          "name": "data_id",
          "type": "uint256"
        },
        {
          "name": "token_amount",
          "type": "uint256"
        },
        {
          "name": "stake_amount",
          "type": "uint256"
        },
        {
          "name": "total_time",
          "type": "uint256"
        }
      ],
      "name": "initiateEscrow",
      "outputs": [],
      "payable": false,
      "stateMutability": "nonpayable",
      "type": "function"
    },
    {
      "constant": false,
      "inputs": [
        {
          "name": "DC_wallet",
          "type": "address"
        },
        {
          "name": "data_id",
          "type": "uint256"
        },
        {
          "name": "token_amount",
          "type": "uint256"
        },
        {
          "name": "stake_amount",
          "type": "uint256"
        },
        {
          "name": "total_time",
          "type": "uint256"
        }
      ],
      "name": "verifyEscrow",
      "outputs": [
        {
          "name": "isVerified",
          "type": "bool"
        }
      ],
      "payable": false,
      "stateMutability": "nonpayable",
      "type": "function"
    },
    {
      "constant": false,
      "inputs": [
        {
          "name": "DC_wallet",
          "type": "address"
        },
        {
          "name": "data_id",
          "type": "uint256"
        }
      ],
      "name": "payOut",
      "outputs": [],
      "payable": false,
      "stateMutability": "nonpayable",
      "type": "function"
    },
    {
      "constant": false,
      "inputs": [
        {
          "name": "DH_wallet",
          "type": "address"
        },
        {
          "name": "data_id",
          "type": "uint256"
        }
      ],
      "name": "cancelEscrow",
      "outputs": [],
      "payable": false,
      "stateMutability": "nonpayable",
      "type": "function"
    }
  ],
  "bytecode": "0x6060604052341561000f57600080fd5b604051602080611bf583398101604052808051906020019091905050336000806101000a81548173ffffffffffffffffffffffffffffffffffffffff021916908373ffffffffffffffffffffffffffffffffffffffff160217905550600073ffffffffffffffffffffffffffffffffffffffff168173ffffffffffffffffffffffffffffffffffffffff16141515156100a757600080fd5b80600160006101000a81548173ffffffffffffffffffffffffffffffffffffffff021916908373ffffffffffffffffffffffffffffffffffffffff16021790555050611afd806100f86000396000f30060606040526004361061008e576000357c0100000000000000000000000000000000000000000000000000000000900463ffffffff1680630221038a14610093578063048b1bd4146100d557806382b9be1a146101175780638da5cb5b146101c457806395b9df2b14610219578063cf724ed714610295578063f2fde38b1461030a578063fc0c546a14610343575b600080fd5b341561009e57600080fd5b6100d3600480803573ffffffffffffffffffffffffffffffffffffffff16906020019091908035906020019091905050610398565b005b34156100e057600080fd5b610115600480803573ffffffffffffffffffffffffffffffffffffffff16906020019091908035906020019091905050610892565b005b341561012257600080fd5b610176600480803573ffffffffffffffffffffffffffffffffffffffff1690602001909190803573ffffffffffffffffffffffffffffffffffffffff16906020019091908035906020019091905050610e31565b604051808881526020018781526020018681526020018581526020018481526020018381526020018260038111156101aa57fe5b60ff16815260200197505050505050505060405180910390f35b34156101cf57600080fd5b6101d7610e9a565b604051808273ffffffffffffffffffffffffffffffffffffffff1673ffffffffffffffffffffffffffffffffffffffff16815260200191505060405180910390f35b341561022457600080fd5b610293600480803573ffffffffffffffffffffffffffffffffffffffff1690602001909190803573ffffffffffffffffffffffffffffffffffffffff16906020019091908035906020019091908035906020019091908035906020019091908035906020019091905050610ebf565b005b34156102a057600080fd5b6102f0600480803573ffffffffffffffffffffffffffffffffffffffff169060200190919080359060200190919080359060200190919080359060200190919080359060200190919050506114d4565b604051808215151515815260200191505060405180910390f35b341561031557600080fd5b610341600480803573ffffffffffffffffffffffffffffffffffffffff169060200190919050506118ec565b005b341561034e57600080fd5b610356611a41565b604051808273ffffffffffffffffffffffffffffffffffffffff1673ffffffffffffffffffffffffffffffffffffffff16815260200191505060405180910390f35b600080600080600260008773ffffffffffffffffffffffffffffffffffffffff1673ffffffffffffffffffffffffffffffffffffffff16815260200190815260200160002060003373ffffffffffffffffffffffffffffffffffffffff1673ffffffffffffffffffffffffffffffffffffffff168152602001908152602001600020600086815260200190815260200160002093506001600381111561043a57fe5b8460060160009054906101000a900460ff16600381111561045757fe5b14151561046357600080fd5b6001600381111561047057fe5b8460060160009054906101000a900460ff16600381111561048d57fe5b14156106b2574291508360040154821115610677578360020154905060008460020181905550600081111561059957600160009054906101000a900473ffffffffffffffffffffffffffffffffffffffff1673ffffffffffffffffffffffffffffffffffffffff1663a9059cbb33836040518363ffffffff167c0100000000000000000000000000000000000000000000000000000000028152600401808373ffffffffffffffffffffffffffffffffffffffff1673ffffffffffffffffffffffffffffffffffffffff16815260200182815260200192505050602060405180830381600087803b151561058057600080fd5b5af1151561058d57600080fd5b50505060405180519050505b6105ab84600001548560010154611a67565b925060038460060160006101000a81548160ff021916908360038111156105ce57fe5b02179055507f7c536285ed58c4a6427ffae76ff5e2f308320390e247d10710b96944a531ae7f863387604051808473ffffffffffffffffffffffffffffffffffffffff1673ffffffffffffffffffffffffffffffffffffffff1681526020018373ffffffffffffffffffffffffffffffffffffffff1673ffffffffffffffffffffffffffffffffffffffff168152602001828152602001935050505060405180910390a16106ad565b83600501546106978560000154610692858860030154611a67565b611a80565b8115156106a057fe5b0492508184600301819055505b61078c565b6106c484600001548560010154611a67565b925060038460060160006101000a81548160ff021916908360038111156106e757fe5b02179055507f7c536285ed58c4a6427ffae76ff5e2f308320390e247d10710b96944a531ae7f863387604051808473ffffffffffffffffffffffffffffffffffffffff1673ffffffffffffffffffffffffffffffffffffffff1681526020018373ffffffffffffffffffffffffffffffffffffffff1673ffffffffffffffffffffffffffffffffffffffff168152602001828152602001935050505060405180910390a15b600083111561088a576107ac838560010154611ab390919063ffffffff16565b50600160009054906101000a900473ffffffffffffffffffffffffffffffffffffffff1673ffffffffffffffffffffffffffffffffffffffff1663a9059cbb33856040518363ffffffff167c0100000000000000000000000000000000000000000000000000000000028152600401808373ffffffffffffffffffffffffffffffffffffffff1673ffffffffffffffffffffffffffffffffffffffff16815260200182815260200192505050602060405180830381600087803b151561087157600080fd5b5af1151561087e57600080fd5b50505060405180519050505b505050505050565b600080600080600260003373ffffffffffffffffffffffffffffffffffffffff1673ffffffffffffffffffffffffffffffffffffffff16815260200190815260200160002060008773ffffffffffffffffffffffffffffffffffffffff1673ffffffffffffffffffffffffffffffffffffffff1681526020019081526020016000206000868152602001908152602001600020935060038081111561093357fe5b8460060160009054906101000a900460ff16600381111561095057fe5b1415801561098657506002600381111561096657fe5b8460060160009054906101000a900460ff16600381111561098357fe5b14155b151561099157600080fd5b6001600381111561099e57fe5b8460060160009054906101000a900460ff1660038111156109bb57fe5b1415610a2f5742915042846004015410156109d857836004015491505b83600501546109f885600001546109f3876004015486611a67565b611a80565b811515610a0157fe5b04925060028460060160006101000a81548160ff02191690836003811115610a2557fe5b0217905550610a5d565b8360000154925060038460060160006101000a81548160ff02191690836003811115610a5757fe5b02179055505b6000831115610b5b57610a7d838560010154611ab390919063ffffffff16565b50600160009054906101000a900473ffffffffffffffffffffffffffffffffffffffff1673ffffffffffffffffffffffffffffffffffffffff1663a9059cbb33856040518363ffffffff167c0100000000000000000000000000000000000000000000000000000000028152600401808373ffffffffffffffffffffffffffffffffffffffff1673ffffffffffffffffffffffffffffffffffffffff16815260200182815260200192505050602060405180830381600087803b1515610b4257600080fd5b5af11515610b4f57600080fd5b50505060405180519050505b610b6d84600001548560010154611a67565b92506000831115610c6d57610b8f838560010154611ab390919063ffffffff16565b50600160009054906101000a900473ffffffffffffffffffffffffffffffffffffffff1673ffffffffffffffffffffffffffffffffffffffff1663a9059cbb33856040518363ffffffff167c0100000000000000000000000000000000000000000000000000000000028152600401808373ffffffffffffffffffffffffffffffffffffffff1673ffffffffffffffffffffffffffffffffffffffff16815260200182815260200192505050602060405180830381600087803b1515610c5457600080fd5b5af11515610c6157600080fd5b50505060405180519050505b83600201549050600084600201819055506000811115610d6457600160009054906101000a900473ffffffffffffffffffffffffffffffffffffffff1673ffffffffffffffffffffffffffffffffffffffff1663a9059cbb87836040518363ffffffff167c0100000000000000000000000000000000000000000000000000000000028152600401808373ffffffffffffffffffffffffffffffffffffffff1673ffffffffffffffffffffffffffffffffffffffff16815260200182815260200192505050602060405180830381600087803b1515610d4b57600080fd5b5af11515610d5857600080fd5b50505060405180519050505b60038460060160006101000a81548160ff02191690836003811115610d8557fe5b02179055507fe346e1f49ea333b13c3167ec512b5461ece2524e753dc7886347aaffb5029f81338787604051808473ffffffffffffffffffffffffffffffffffffffff1673ffffffffffffffffffffffffffffffffffffffff1681526020018373ffffffffffffffffffffffffffffffffffffffff1673ffffffffffffffffffffffffffffffffffffffff168152602001828152602001935050505060405180910390a1505050505050565b600260205282600052604060002060205281600052604060002060205280600052604060002060009250925050508060000154908060010154908060020154908060030154908060040154908060050154908060060160009054906101000a900460ff16905087565b6000809054906101000a900473ffffffffffffffffffffffffffffffffffffffff1681565b6000809054906101000a900473ffffffffffffffffffffffffffffffffffffffff1673ffffffffffffffffffffffffffffffffffffffff163373ffffffffffffffffffffffffffffffffffffffff16141515610f1a57600080fd5b60016003811115610f2757fe5b600260008873ffffffffffffffffffffffffffffffffffffffff1673ffffffffffffffffffffffffffffffffffffffff16815260200190815260200160002060008773ffffffffffffffffffffffffffffffffffffffff1673ffffffffffffffffffffffffffffffffffffffff168152602001908152602001600020600086815260200190815260200160002060060160009054906101000a900460ff166003811115610fd057fe5b14158015611092575060026003811115610fe657fe5b600260008873ffffffffffffffffffffffffffffffffffffffff1673ffffffffffffffffffffffffffffffffffffffff16815260200190815260200160002060008773ffffffffffffffffffffffffffffffffffffffff1673ffffffffffffffffffffffffffffffffffffffff168152602001908152602001600020600086815260200190815260200160002060060160009054906101000a900460ff16600381111561108f57fe5b14155b151561109d57600080fd5b6000831180156110ad5750600081115b15156110b857600080fd5b82600160009054906101000a900473ffffffffffffffffffffffffffffffffffffffff1673ffffffffffffffffffffffffffffffffffffffff1663dd62ed3e88306040518363ffffffff167c0100000000000000000000000000000000000000000000000000000000028152600401808373ffffffffffffffffffffffffffffffffffffffff1673ffffffffffffffffffffffffffffffffffffffff1681526020018273ffffffffffffffffffffffffffffffffffffffff1673ffffffffffffffffffffffffffffffffffffffff16815260200192505050602060405180830381600087803b15156111a957600080fd5b5af115156111b657600080fd5b50505060405180519050101515156111cd57600080fd5b600160009054906101000a900473ffffffffffffffffffffffffffffffffffffffff1673ffffffffffffffffffffffffffffffffffffffff166323b872dd8730866040518463ffffffff167c0100000000000000000000000000000000000000000000000000000000028152600401808473ffffffffffffffffffffffffffffffffffffffff1673ffffffffffffffffffffffffffffffffffffffff1681526020018373ffffffffffffffffffffffffffffffffffffffff1673ffffffffffffffffffffffffffffffffffffffff1681526020018281526020019350505050602060405180830381600087803b15156112c557600080fd5b5af115156112d257600080fd5b505050604051805190505060e0604051908101604052808481526020016000815260200183815260200160008152602001600081526020018281526020016000600381111561131d57fe5b815250600260008873ffffffffffffffffffffffffffffffffffffffff1673ffffffffffffffffffffffffffffffffffffffff16815260200190815260200160002060008773ffffffffffffffffffffffffffffffffffffffff1673ffffffffffffffffffffffffffffffffffffffff1681526020019081526020016000206000868152602001908152602001600020600082015181600001556020820151816001015560408201518160020155606082015181600301556080820151816004015560a0820151816005015560c08201518160060160006101000a81548160ff0219169083600381111561140d57fe5b02179055509050507f23f818acf4b173d25f3d95286be10f439ed828a237bdfaaf9f71e58af806be67868686868686604051808773ffffffffffffffffffffffffffffffffffffffff1673ffffffffffffffffffffffffffffffffffffffff1681526020018673ffffffffffffffffffffffffffffffffffffffff1673ffffffffffffffffffffffffffffffffffffffff168152602001858152602001848152602001838152602001828152602001965050505050505060405180910390a1505050505050565b60008060009150600260008873ffffffffffffffffffffffffffffffffffffffff1673ffffffffffffffffffffffffffffffffffffffff16815260200190815260200160002060003373ffffffffffffffffffffffffffffffffffffffff1673ffffffffffffffffffffffffffffffffffffffff168152602001908152602001600020600087815260200190815260200160002090508481600001541480156115805750838160020154145b80156115b357506000600381111561159457fe5b8160060160009054906101000a900460ff1660038111156115b157fe5b145b80156115c25750828160050154145b15156115cd57600080fd5b83600160009054906101000a900473ffffffffffffffffffffffffffffffffffffffff1673ffffffffffffffffffffffffffffffffffffffff1663dd62ed3e33306040518363ffffffff167c0100000000000000000000000000000000000000000000000000000000028152600401808373ffffffffffffffffffffffffffffffffffffffff1673ffffffffffffffffffffffffffffffffffffffff1681526020018273ffffffffffffffffffffffffffffffffffffffff1673ffffffffffffffffffffffffffffffffffffffff16815260200192505050602060405180830381600087803b15156116be57600080fd5b5af115156116cb57600080fd5b50505060405180519050101515156116e257600080fd5b600160009054906101000a900473ffffffffffffffffffffffffffffffffffffffff1673ffffffffffffffffffffffffffffffffffffffff166323b872dd3330876040518463ffffffff167c0100000000000000000000000000000000000000000000000000000000028152600401808473ffffffffffffffffffffffffffffffffffffffff1673ffffffffffffffffffffffffffffffffffffffff1681526020018373ffffffffffffffffffffffffffffffffffffffff1673ffffffffffffffffffffffffffffffffffffffff1681526020018281526020019350505050602060405180830381600087803b15156117da57600080fd5b5af115156117e757600080fd5b50505060405180519050504281600301819055506118054284611ab3565b816004018190555060018160060160006101000a81548160ff0219169083600381111561182e57fe5b0217905550600191507f138aac3210958d3b799bd641b31f3d5880d90976008dedf5a11b110c63f87af587338885604051808573ffffffffffffffffffffffffffffffffffffffff1673ffffffffffffffffffffffffffffffffffffffff1681526020018473ffffffffffffffffffffffffffffffffffffffff1673ffffffffffffffffffffffffffffffffffffffff1681526020018381526020018215151515815260200194505050505060405180910390a15095945050505050565b6000809054906101000a900473ffffffffffffffffffffffffffffffffffffffff1673ffffffffffffffffffffffffffffffffffffffff163373ffffffffffffffffffffffffffffffffffffffff1614151561194757600080fd5b600073ffffffffffffffffffffffffffffffffffffffff168173ffffffffffffffffffffffffffffffffffffffff161415151561198357600080fd5b8073ffffffffffffffffffffffffffffffffffffffff166000809054906101000a900473ffffffffffffffffffffffffffffffffffffffff1673ffffffffffffffffffffffffffffffffffffffff167f8be0079c531659141344cd1fd0a4f28419497f9722a3daafe3b4186f6b6457e060405160405180910390a3806000806101000a81548173ffffffffffffffffffffffffffffffffffffffff021916908373ffffffffffffffffffffffffffffffffffffffff16021790555050565b600160009054906101000a900473ffffffffffffffffffffffffffffffffffffffff1681565b6000828211151515611a7557fe5b818303905092915050565b60008082840290506000841480611aa15750828482811515611a9e57fe5b04145b1515611aa957fe5b8091505092915050565b6000808284019050838110151515611ac757fe5b80915050929150505600a165627a7a72305820e185cf070cabc786faae571d1215460c5f0465b7f651ea6c94f0a67e474e3fd70029",
  "source": "pragma solidity ^0.4.18;\r\n\r\nlibrary SafeMath {\r\n\tfunction mul(uint256 a, uint256 b) internal pure returns (uint256) {\r\n\t\tuint256 c = a * b;\r\n\t\tassert(a == 0 || c / a == b);\r\n\t\treturn c;\r\n\t}\r\n\r\n\tfunction div(uint256 a, uint256 b) internal pure returns (uint256) {\r\n\t\t// assert(b > 0); // Solidity automatically throws when dividing by 0\r\n\t\tuint256 c = a / b;\r\n\t\t// assert(a == b * c + a % b); // There is no case in which this doesn't hold\r\n\t\treturn c;\r\n\t}\r\n\r\n\tfunction sub(uint256 a, uint256 b) internal pure returns (uint256) {\r\n\t\tassert(b <= a);\r\n\t\treturn a - b;\r\n\t}\r\n\r\n\tfunction add(uint256 a, uint256 b) internal pure returns (uint256) {\r\n\t\tuint256 c = a + b;\r\n\t\tassert(c >= a);\r\n\t\treturn c;\r\n\t}\r\n}\r\n/**\r\n * @title Ownable\r\n * @dev The Ownable contract has an owner address, and provides basic authorization control\r\n * functions, this simplifies the implementation of \"user permissions\".\r\n */\r\ncontract Ownable {\r\n\taddress public owner;\r\n\r\n\r\n\tevent OwnershipTransferred(address indexed previousOwner, address indexed newOwner);\r\n\r\n\r\n\t/**\r\n     * @dev The Ownable constructor sets the original `owner` of the contract to the sender\r\n     * account.\r\n     */\r\n\tfunction Ownable() public {\r\n\t\towner = msg.sender;\r\n\t}\r\n\r\n\t/**\r\n     * @dev Throws if called by any account other than the owner.\r\n     */\r\n\tmodifier onlyOwner() {\r\n\t\trequire(msg.sender == owner);\r\n\t\t_;\r\n\t}\r\n\r\n\t/**\r\n     * @dev Allows the current owner to transfer control of the contract to a newOwner.\r\n     * @param newOwner The address to transfer ownership to.\r\n     */\r\n\tfunction transferOwnership(address newOwner) public onlyOwner {\r\n\t\trequire(newOwner != address(0));\r\n\t\temit OwnershipTransferred(owner, newOwner);\r\n\t\towner = newOwner;\r\n\t}\r\n\r\n}\r\ncontract ERC20Basic {\r\n\tuint256 public totalSupply;\r\n\tfunction balanceOf(address who) public constant returns (uint256);\r\n\tfunction transfer(address to, uint256 value) public returns (bool);\r\n\tevent Transfer(address indexed from, address indexed to, uint256 value);\r\n}\r\n\r\ncontract ERC20 is ERC20Basic {\r\n\tfunction allowance(address owner, address spender) public constant returns (uint256);\r\n\tfunction transferFrom(address from, address to, uint256 value) public returns (bool);\r\n\tfunction approve(address spender, uint256 value) public returns (bool);\r\n\tevent Approval(address indexed owner, address indexed spender, uint256 value);\r\n}\r\n\r\ncontract EscrowHolder is Ownable{\r\n\tusing SafeMath for uint256;\r\n\r\n\tERC20 public token;\r\n\r\n\tfunction EscrowHolder(address tokenAddress)\r\n\tpublic{\r\n\t\trequire ( tokenAddress != address(0) );\r\n\t\ttoken = ERC20(tokenAddress);\r\n\t}\r\n\r\n\r\n\t/*    ----------------------------- ESCROW -----------------------------     */\r\n\r\n\r\n\tenum EscrowStatus {initiated, active, canceled, completed}\r\n\r\n\tstruct EscrowDefinition{\r\n\t\tuint token_amount;\r\n\t\tuint tokens_sent;\r\n\r\n\t\tuint stake_amount;\r\n\r\n\t\tuint last_confirmation_time;\r\n\t\tuint end_time;\r\n\t\tuint total_time;\r\n\r\n\t\tEscrowStatus escrow_status;\r\n\t}\r\n\r\n\tmapping(address => mapping(address => mapping(uint => EscrowDefinition))) public escrow;\r\n\r\n\tevent EscrowInitated(address DC_wallet, address DH_wallet, uint data_id, uint token_amount, uint stake_amount,  uint total_time);\r\n\tevent EscrowVerified(address DC_wallet, address DH_wallet, uint data_id, bool verification_successful);\r\n\tevent EscrowCanceled(address DC_wallet, address DH_wallet, uint data_id);\r\n\tevent EscrowCompleted(address DC_wallet, address DH_wallet, uint data_id);\r\n\r\n\tfunction initiateEscrow(address DC_wallet, address DH_wallet, uint data_id, uint token_amount, uint stake_amount,  uint total_time)\r\n\tpublic onlyOwner{\r\n\t\trequire(escrow[DC_wallet][DH_wallet][data_id].escrow_status != EscrowStatus.active\r\n\t\t&&  escrow[DC_wallet][DH_wallet][data_id].escrow_status != EscrowStatus.canceled);\r\n\r\n\t\trequire(token_amount > 0 && total_time > 0);\r\n\r\n\t\trequire(token.allowance(DC_wallet,this) >= token_amount);\r\n\t\ttoken.transferFrom(DC_wallet, this, token_amount);\r\n\r\n\t\tescrow[DC_wallet][DH_wallet][data_id] = EscrowDefinition(token_amount, 0, stake_amount, 0, 0, total_time, EscrowStatus.initiated);\r\n\r\n\t\tEscrowInitated(DC_wallet, DH_wallet, data_id, token_amount, stake_amount, total_time);\r\n\t}\r\n\r\n\tfunction verifyEscrow(address DC_wallet, uint data_id, uint token_amount, uint stake_amount, uint total_time)\r\n\tpublic returns (bool isVerified){\r\n\t\tisVerified = false;\r\n\r\n\t\tEscrowDefinition storage escrow_def = escrow[DC_wallet][msg.sender][data_id];\r\n\r\n\t\trequire(escrow_def.token_amount == token_amount &&\r\n\t\tescrow_def.stake_amount == stake_amount &&\r\n\t\tescrow_def.escrow_status == EscrowStatus.initiated &&\r\n\t\tescrow_def.total_time == total_time);\r\n\r\n\t\t//Transfer the stake_amount to the escrow\r\n\t\trequire(token.allowance(msg.sender,this) >= stake_amount);\r\n\t\ttoken.transferFrom(msg.sender, this, stake_amount);\r\n\r\n\t\tescrow_def.last_confirmation_time = block.timestamp;\r\n\t\tescrow_def.end_time = SafeMath.add(block.timestamp, total_time);\r\n\r\n\t\tescrow_def.escrow_status = EscrowStatus.active;\r\n\t\tisVerified = true;\r\n\t\tEscrowVerified(DC_wallet, msg.sender, data_id, isVerified);\r\n\t}\r\n\r\n\tfunction payOut(address DC_wallet, uint data_id)\r\n\tpublic{\r\n\t\tEscrowDefinition storage this_escrow = escrow[DC_wallet][msg.sender][data_id];\r\n\r\n\t\trequire(this_escrow.escrow_status == EscrowStatus.active);\r\n\r\n\t\tuint256 amount_to_send;\r\n\t\tif(this_escrow.escrow_status == EscrowStatus.active){\r\n\t\t\tuint end_time = block.timestamp;\r\n\t\t\tif(end_time > this_escrow.end_time){\r\n\t\t\t\tuint stake_to_send = this_escrow.stake_amount;\r\n\t\t\t\tthis_escrow.stake_amount = 0;\r\n\t\t\t\tif(stake_to_send > 0) token.transfer(msg.sender, stake_to_send);\r\n\r\n\t\t\t\tamount_to_send = SafeMath.sub(this_escrow.token_amount, this_escrow.tokens_sent);\r\n\t\t\t\tthis_escrow.escrow_status = EscrowStatus.completed;\r\n\t\t\t\tEscrowCompleted(DC_wallet, msg.sender, data_id);\r\n\t\t\t}\r\n\t\t\telse{\r\n\t\t\t\tamount_to_send = SafeMath.mul(this_escrow.token_amount,SafeMath.sub(end_time,this_escrow.last_confirmation_time)) / this_escrow.total_time;\r\n\t\t\t\tthis_escrow.last_confirmation_time = end_time;\r\n\t\t\t}\r\n\t\t}\r\n\t\telse {\r\n\t\t\tamount_to_send = SafeMath.sub(this_escrow.token_amount, this_escrow.tokens_sent);\r\n\t\t\tthis_escrow.escrow_status = EscrowStatus.completed;\r\n\t\t\tEscrowCompleted(DC_wallet, msg.sender, data_id);\r\n\t\t}\r\n\r\n\t\tif(amount_to_send > 0) {\r\n\t\t\tthis_escrow.tokens_sent.add(amount_to_send);\r\n\t\t\ttoken.transfer(msg.sender,amount_to_send);\r\n\t\t}\r\n\t}\r\n\r\n\tfunction cancelEscrow(address DH_wallet, uint256 data_id)\r\n\tpublic {\r\n\t\tEscrowDefinition storage this_escrow = escrow[msg.sender][DH_wallet][data_id];\r\n\r\n\t\trequire(this_escrow.escrow_status != EscrowStatus.completed &&\r\n\t\tthis_escrow.escrow_status != EscrowStatus.canceled);\r\n\r\n\t\tuint256 amount_to_send;\r\n\t\tif(this_escrow.escrow_status == EscrowStatus.active){\r\n\r\n\t\t\tuint cancelation_time = block.timestamp;\r\n\t\t\tif(this_escrow.end_time < block.timestamp) cancelation_time = this_escrow.end_time;\r\n\r\n\t\t\tamount_to_send = SafeMath.mul(this_escrow.token_amount, SafeMath.sub(this_escrow.end_time,cancelation_time)) / this_escrow.total_time;\r\n\t\t\tthis_escrow.escrow_status = EscrowStatus.canceled;\r\n\t\t}\r\n\t\telse {\r\n\t\t\tamount_to_send = this_escrow.token_amount;\r\n\t\t\tthis_escrow.escrow_status = EscrowStatus.completed;\r\n\t\t}\r\n\r\n\t\t//Transfer the amount_to_send to DC \r\n\t\tif(amount_to_send > 0) {\r\n\t\t\tthis_escrow.tokens_sent.add(amount_to_send);\r\n\t\t\ttoken.transfer(msg.sender, amount_to_send);\r\n\t\t}\r\n\r\n\t\t//Calculate the amount to send back to DH and transfer the money back\r\n\t\tamount_to_send = SafeMath.sub(this_escrow.token_amount, this_escrow.tokens_sent);\r\n\t\tif(amount_to_send > 0) {\r\n\t\t\tthis_escrow.tokens_sent.add(amount_to_send);\r\n\t\t\ttoken.transfer(msg.sender,amount_to_send);\r\n\t\t}\r\n\r\n\t\tuint stake_to_send = this_escrow.stake_amount;\r\n\t\tthis_escrow.stake_amount = 0;\r\n\t\tif(stake_to_send > 0) token.transfer(DH_wallet, stake_to_send);\r\n\r\n\t\tthis_escrow.escrow_status = EscrowStatus.completed;\r\n\t\tEscrowCanceled(msg.sender, DH_wallet, data_id);\r\n\t}\r\n\r\n}",
  "sourcePath": "C:\\Users\\Uros\\Downloads\\OriginTrail\\ot-node\\modules\\Blockchain\\Ethereum\\contracts\\Escrow.sol",
  "compiler": {
    "name": "solc",
    "version": "0.4.21+commit.dfe3193c.Emscripten.clang"
  },
  "schemaVersion": "2.0.0",
  "updatedAt": "2018-04-25T10:33:58.538Z"
}