{
  "contractName": "OTFingerprintStore",
  "abi": [
    {
      "constant": true,
      "inputs": [],
      "name": "_version",
      "outputs": [
        {
          "name": "",
          "type": "uint256"
        }
      ],
      "payable": false,
      "stateMutability": "view",
      "type": "function"
    },
    {
      "constant": true,
      "inputs": [
        {
          "name": "",
          "type": "address"
        },
        {
          "name": "",
          "type": "address"
        },
        {
          "name": "",
          "type": "uint256"
        }
      ],
      "name": "agreements",
      "outputs": [
        {
          "name": "startTime",
          "type": "uint256"
        },
        {
          "name": "endTime",
          "type": "uint256"
        },
        {
          "name": "data_hash",
          "type": "bytes32"
        }
      ],
      "payable": false,
      "stateMutability": "view",
      "type": "function"
    },
    {
      "constant": true,
      "inputs": [
        {
          "name": "",
          "type": "address"
        },
        {
          "name": "",
          "type": "uint256"
        }
      ],
      "name": "agreementPartiesList",
      "outputs": [
        {
          "name": "",
          "type": "address"
        }
      ],
      "payable": false,
      "stateMutability": "view",
      "type": "function"
    },
    {
      "constant": true,
      "inputs": [],
      "name": "owner",
      "outputs": [
        {
          "name": "",
          "type": "address"
        }
      ],
      "payable": false,
      "stateMutability": "view",
      "type": "function"
    },
    {
      "constant": true,
      "inputs": [
        {
          "name": "",
          "type": "address"
        },
        {
          "name": "",
          "type": "bytes32"
        },
        {
          "name": "",
          "type": "uint256"
        }
      ],
      "name": "DHFS",
      "outputs": [
        {
          "name": "",
          "type": "bytes32"
        }
      ],
      "payable": false,
      "stateMutability": "view",
      "type": "function"
    },
    {
      "constant": false,
      "inputs": [
        {
          "name": "newOwner",
          "type": "address"
        }
      ],
      "name": "transferOwnership",
      "outputs": [],
      "payable": false,
      "stateMutability": "nonpayable",
      "type": "function"
    },
    {
      "anonymous": false,
      "inputs": [
        {
          "indexed": true,
          "name": "dataHolder",
          "type": "address"
        },
        {
          "indexed": true,
          "name": "batch_id",
          "type": "string"
        },
        {
          "indexed": true,
          "name": "batch_id_hash",
          "type": "bytes32"
        },
        {
          "indexed": false,
          "name": "graph_hash",
          "type": "bytes32"
        }
      ],
      "name": "Fingerprint",
      "type": "event"
    },
    {
      "anonymous": false,
      "inputs": [
        {
          "indexed": true,
          "name": "dataCreator",
          "type": "address"
        },
        {
          "indexed": true,
          "name": "dataHolder",
          "type": "address"
        },
        {
          "indexed": true,
          "name": "batch_id_hash",
          "type": "bytes32"
        },
        {
          "indexed": false,
          "name": "graph_hash",
          "type": "bytes32"
        },
        {
          "indexed": false,
          "name": "startTime",
          "type": "uint256"
        },
        {
          "indexed": false,
          "name": "endTime",
          "type": "uint256"
        }
      ],
      "name": "Agreed",
      "type": "event"
    },
    {
      "anonymous": false,
      "inputs": [
        {
          "indexed": true,
          "name": "previousOwner",
          "type": "address"
        },
        {
          "indexed": true,
          "name": "newOwner",
          "type": "address"
        }
      ],
      "name": "OwnershipTransferred",
      "type": "event"
    },
    {
      "constant": false,
      "inputs": [
        {
          "name": "version",
          "type": "uint256"
        }
      ],
      "name": "OTHashStore",
      "outputs": [],
      "payable": false,
      "stateMutability": "nonpayable",
      "type": "function"
    },
    {
      "constant": true,
      "inputs": [],
      "name": "getVersion",
      "outputs": [
        {
          "name": "",
          "type": "uint256"
        }
      ],
      "payable": false,
      "stateMutability": "view",
      "type": "function"
    },
    {
      "constant": false,
      "inputs": [
        {
          "name": "batch_id",
          "type": "string"
        },
        {
          "name": "batch_id_hash",
          "type": "bytes32"
        },
        {
          "name": "graph_hash",
          "type": "bytes32"
        }
      ],
      "name": "addFingerPrint",
      "outputs": [
        {
          "name": "",
          "type": "bool"
        }
      ],
      "payable": false,
      "stateMutability": "nonpayable",
      "type": "function"
    },
    {
      "constant": true,
      "inputs": [
        {
          "name": "dataHolder",
          "type": "address"
        },
        {
          "name": "batch_id_hash",
          "type": "bytes32"
        }
      ],
      "name": "getFingerprintByBatchHash",
      "outputs": [
        {
          "name": "fingerprint",
          "type": "bytes32"
        }
      ],
      "payable": false,
      "stateMutability": "view",
      "type": "function"
    },
    {
      "constant": false,
      "inputs": [
        {
          "name": "dataHolder",
          "type": "address"
        },
        {
          "name": "startTime",
          "type": "uint256"
        },
        {
          "name": "endTime",
          "type": "uint256"
        },
        {
          "name": "batch_id_hash",
          "type": "bytes32"
        },
        {
          "name": "data_hash",
          "type": "bytes32"
        }
      ],
      "name": "createAgreement",
      "outputs": [
        {
          "name": "",
          "type": "bool"
        }
      ],
      "payable": false,
      "stateMutability": "nonpayable",
      "type": "function"
    },
    {
      "constant": true,
      "inputs": [],
      "name": "getAgreementPartiesCount",
      "outputs": [
        {
          "name": "partiesCount",
          "type": "uint256"
        }
      ],
      "payable": false,
      "stateMutability": "view",
      "type": "function"
    },
    {
      "constant": true,
      "inputs": [
        {
          "name": "party",
          "type": "address"
        }
      ],
      "name": "getNumberOfAgreements",
      "outputs": [
        {
          "name": "agreementCount",
          "type": "uint256"
        }
      ],
      "payable": false,
      "stateMutability": "view",
      "type": "function"
    }
  ],
  "bytecode": "0x606060405262093a80600155336000806101000a81548173ffffffffffffffffffffffffffffffffffffffff021916908373ffffffffffffffffffffffffffffffffffffffff160217905550610fda8061005a6000396000f3006060604052600436106100c5576000357c0100000000000000000000000000000000000000000000000000000000900463ffffffff168063037a4c38146100ca5780630d8e6e2c146101595780631984d2ab146101825780633a7941f8146101cf5780633e118dbe14610231578063441437671461025a5780638c39c3a9146102e55780638da5cb5b14610367578063931b290f146103bc578063b67858a814610439578063df93176414610462578063e911c26e14610485578063f2fde38b146104f0575b600080fd5b34156100d557600080fd5b61013f600480803590602001908201803590602001908080601f016020809104026020016040519081016040528093929190818152602001838380828437820191505050505050919080356000191690602001909190803560001916906020019091905050610529565b604051808215151515815260200191505060405180910390f35b341561016457600080fd5b61016c6106de565b6040518082815260200191505060405180910390f35b341561018d57600080fd5b6101b9600480803573ffffffffffffffffffffffffffffffffffffffff169060200190919050506106e8565b6040518082815260200191505060405180910390f35b34156101da57600080fd5b610213600480803573ffffffffffffffffffffffffffffffffffffffff16906020019091908035600019169060200190919050506107e8565b60405180826000191660001916815260200191505060405180910390f35b341561023c57600080fd5b610244610913565b6040518082815260200191505060405180910390f35b341561026557600080fd5b6102b9600480803573ffffffffffffffffffffffffffffffffffffffff1690602001909190803573ffffffffffffffffffffffffffffffffffffffff16906020019091908035906020019091905050610919565b604051808481526020018381526020018260001916600019168152602001935050505060405180910390f35b34156102f057600080fd5b610325600480803573ffffffffffffffffffffffffffffffffffffffff1690602001909190803590602001909190505061096c565b604051808273ffffffffffffffffffffffffffffffffffffffff1673ffffffffffffffffffffffffffffffffffffffff16815260200191505060405180910390f35b341561037257600080fd5b61037a6109ba565b604051808273ffffffffffffffffffffffffffffffffffffffff1673ffffffffffffffffffffffffffffffffffffffff16815260200191505060405180910390f35b34156103c757600080fd5b61041f600480803573ffffffffffffffffffffffffffffffffffffffff1690602001909190803590602001909190803590602001909190803560001916906020019091908035600019169060200190919050506109df565b604051808215151515815260200191505060405180910390f35b341561044457600080fd5b61044c610c97565b6040518082815260200191505060405180910390f35b341561046d57600080fd5b6104836004808035906020019091905050610ce1565b005b341561049057600080fd5b6104d2600480803573ffffffffffffffffffffffffffffffffffffffff1690602001909190803560001916906020019091908035906020019091905050610ceb565b60405180826000191660001916815260200191505060405180910390f35b34156104fb57600080fd5b610527600480803573ffffffffffffffffffffffffffffffffffffffff16906020019091905050610d29565b005b60008073ffffffffffffffffffffffffffffffffffffffff163373ffffffffffffffffffffffffffffffffffffffff161415151561056657600080fd5b600060010283600019161415151561057d57600080fd5b600060010282600019161415151561059457600080fd5b600360003373ffffffffffffffffffffffffffffffffffffffff1673ffffffffffffffffffffffffffffffffffffffff1681526020019081526020016000206000846000191660001916815260200190815260200160002080548060010182816105fe9190610e7e565b9160005260206000209001600084909190915090600019169055508260001916846040518082805190602001908083835b602083101515610654578051825260208201915060208101905060208303925061062f565b6001836020036101000a03801982511681845116808217855250505050505090500191505060405180910390203373ffffffffffffffffffffffffffffffffffffffff167f2a87ffb089688d8430d27ae416aac00c02c0a287c0764d29018525e4ff01da458560405180826000191660001916815260200191505060405180910390a49392505050565b6000600254905090565b60008073ffffffffffffffffffffffffffffffffffffffff163373ffffffffffffffffffffffffffffffffffffffff161415151561072557600080fd5b600073ffffffffffffffffffffffffffffffffffffffff168273ffffffffffffffffffffffffffffffffffffffff161415151561076157600080fd5b600460003373ffffffffffffffffffffffffffffffffffffffff1673ffffffffffffffffffffffffffffffffffffffff16815260200190815260200160002060008373ffffffffffffffffffffffffffffffffffffffff1673ffffffffffffffffffffffffffffffffffffffff168152602001908152602001600020805490509050919050565b60008073ffffffffffffffffffffffffffffffffffffffff168373ffffffffffffffffffffffffffffffffffffffff161415151561082557600080fd5b600060010282600019161415151561083c57600080fd5b600360008473ffffffffffffffffffffffffffffffffffffffff1673ffffffffffffffffffffffffffffffffffffffff168152602001908152602001600020600083600019166000191681526020019081526020016000206001600360008673ffffffffffffffffffffffffffffffffffffffff1673ffffffffffffffffffffffffffffffffffffffff1681526020019081526020016000206000856000191660001916815260200190815260200160002080549050038154811015156108ff57fe5b906000526020600020900154905092915050565b60025481565b60046020528260005260406000206020528160005260406000208181548110151561094057fe5b906000526020600020906003020160009250925050508060000154908060010154908060020154905083565b60056020528160005260406000208181548110151561098757fe5b90600052602060002090016000915091509054906101000a900473ffffffffffffffffffffffffffffffffffffffff1681565b6000809054906101000a900473ffffffffffffffffffffffffffffffffffffffff1681565b60006109e9610eaa565b600073ffffffffffffffffffffffffffffffffffffffff163373ffffffffffffffffffffffffffffffffffffffff1614151515610a2557600080fd5b600073ffffffffffffffffffffffffffffffffffffffff168773ffffffffffffffffffffffffffffffffffffffff1614151515610a6157600080fd5b428610151515610a7057600080fd5b8585111515610a7e57600080fd5b60606040519081016040528087815260200186815260200184600019168152509050600560003373ffffffffffffffffffffffffffffffffffffffff1673ffffffffffffffffffffffffffffffffffffffff1681526020019081526020016000208054806001018281610af19190610ecf565b9160005260206000209001600089909190916101000a81548173ffffffffffffffffffffffffffffffffffffffff021916908373ffffffffffffffffffffffffffffffffffffffff16021790555050600460003373ffffffffffffffffffffffffffffffffffffffff1673ffffffffffffffffffffffffffffffffffffffff16815260200190815260200160002060008873ffffffffffffffffffffffffffffffffffffffff1673ffffffffffffffffffffffffffffffffffffffff1681526020019081526020016000208054806001018281610bce9190610efb565b9160005260206000209060030201600083909190915060008201518160000155602082015181600101556040820151816002019060001916905550505083600019168773ffffffffffffffffffffffffffffffffffffffff163373ffffffffffffffffffffffffffffffffffffffff167fe23b5151698e80c8993c8dd6fd25685c3e8c261c7113cb67f7a319bfe1fae3c8868a8a604051808460001916600019168152602001838152602001828152602001935050505060405180910390a45095945050505050565b6000600560003373ffffffffffffffffffffffffffffffffffffffff1673ffffffffffffffffffffffffffffffffffffffff16815260200190815260200160002080549050905090565b8060028190555050565b600360205282600052604060002060205281600052604060002081815481101515610d1257fe5b906000526020600020900160009250925050505481565b6000809054906101000a900473ffffffffffffffffffffffffffffffffffffffff1673ffffffffffffffffffffffffffffffffffffffff163373ffffffffffffffffffffffffffffffffffffffff16141515610d8457600080fd5b600073ffffffffffffffffffffffffffffffffffffffff168173ffffffffffffffffffffffffffffffffffffffff1614151515610dc057600080fd5b8073ffffffffffffffffffffffffffffffffffffffff166000809054906101000a900473ffffffffffffffffffffffffffffffffffffffff1673ffffffffffffffffffffffffffffffffffffffff167f8be0079c531659141344cd1fd0a4f28419497f9722a3daafe3b4186f6b6457e060405160405180910390a3806000806101000a81548173ffffffffffffffffffffffffffffffffffffffff021916908373ffffffffffffffffffffffffffffffffffffffff16021790555050565b815481835581811511610ea557818360005260206000209182019101610ea49190610f2d565b5b505050565b6060604051908101604052806000815260200160008152602001600080191681525090565b815481835581811511610ef657818360005260206000209182019101610ef59190610f52565b5b505050565b815481835581811511610f2857600302816003028360005260206000209182019101610f279190610f77565b5b505050565b610f4f91905b80821115610f4b576000816000905550600101610f33565b5090565b90565b610f7491905b80821115610f70576000816000905550600101610f58565b5090565b90565b610fab91905b80821115610fa7576000808201600090556001820160009055600282016000905550600301610f7d565b5090565b905600a165627a7a7230582013268f7aae689d901c4d91dffd25cd75f637224c7342b78f3f629dcb0f1aed1a0029",
  "source": "pragma solidity ^0.4.18;\r\ncontract Ownable {\r\n  address public owner;\r\n  event OwnershipTransferred(address indexed previousOwner, address indexed newOwner);\r\n  /**\r\n   * @dev The Ownable constructor sets the original `owner` of the contract to the sender\r\n   * account.\r\n   */\r\n  function Ownable() { owner = msg.sender; }\r\n  /**\r\n   * @dev Throws if called by any account other than the owner.\r\n   */\r\n  modifier onlyOwner() { require(msg.sender == owner); _; }\r\n  /**\r\n   * @dev Allows the current owner to transfer control of the contract to a newOwner.\r\n   * @param newOwner The address to transfer ownership to.\r\n   */\r\n  function transferOwnership(address newOwner) onlyOwner public {\r\n    require(newOwner != address(0));\r\n    OwnershipTransferred(owner, newOwner);\r\n    owner = newOwner;\r\n  }\r\n}\r\ncontract OTFingerprintStore is Ownable{\r\n    /* utilities */\r\n    uint256 private weekInSeconds = 86400 * 7;\r\n    uint256 public _version;\r\n    /* Data Holder Fingerprint Store */ \r\n    // mapping(address => mapping (bytes32 => bytes32)) public DHFS; \r\n    mapping(address => mapping (bytes32 => bytes32[])) public DHFS; \r\n    /* Agreement store */\r\n    struct Agreement {\r\n        uint256 startTime;\r\n        uint256 endTime;\r\n        bytes32 data_hash;\r\n    }\r\n    \r\n    mapping (address => mapping (address => Agreement[])) public agreements;\r\n    mapping (address => address[]) public agreementPartiesList;\r\n    event Fingerprint(address indexed dataHolder, string indexed batch_id, bytes32 indexed batch_id_hash, bytes32 graph_hash);\r\n    event Agreed(address indexed dataCreator, address indexed dataHolder, bytes32 indexed batch_id_hash, bytes32 graph_hash, uint256 startTime, uint256 endTime);\r\n    \r\n    \r\n    function OTHashStore(uint256 version){\r\n        _version = version;\r\n    }\r\n    function getVersion() public constant returns (uint256){\r\n        return _version;\r\n    }\r\n    /* Fingerprinting */\r\n    /* Store a fingerpring of a graph identified by batch_id and hash of batch_id */\r\n    function addFingerPrint(string batch_id, bytes32 batch_id_hash, bytes32 graph_hash) public returns (bool){\r\n        require(msg.sender!=address(0));\r\n        require(batch_id_hash!=0x0);\r\n        require(graph_hash!=0x0);\r\n        DHFS[msg.sender][batch_id_hash].push(graph_hash);\r\n        Fingerprint(msg.sender,batch_id,batch_id_hash,graph_hash);      \r\n    }\r\n    function getFingerprintByBatchHash(address dataHolder, bytes32 batch_id_hash) public constant returns (bytes32 fingerprint){\r\n        require(dataHolder!=address(0));\r\n        require(batch_id_hash!=0x0);\r\n        return DHFS[dataHolder][batch_id_hash][DHFS[dataHolder][batch_id_hash].length - 1];\r\n    }\r\n    /* Agreements */ \r\n    function createAgreement(address dataHolder, uint256 startTime, uint256 endTime,bytes32 batch_id_hash, bytes32 data_hash) public returns (bool){\r\n        require(msg.sender!=address(0));\r\n        require(dataHolder!=address(0));\r\n        require(startTime>= now);\r\n        require(endTime > startTime);\r\n        Agreement memory newAgreement = Agreement({\r\n            startTime: startTime,\r\n            endTime: endTime,\r\n            data_hash: data_hash\r\n            });\r\n        agreementPartiesList[msg.sender].push(dataHolder);\r\n        agreements[msg.sender][dataHolder].push(newAgreement);\r\n        Agreed(msg.sender, dataHolder,batch_id_hash, data_hash, startTime,endTime);\r\n    }\r\n    \r\n    function getAgreementPartiesCount() public constant returns(uint partiesCount) {\r\n        return agreementPartiesList[msg.sender].length;\r\n    }\r\n    function getNumberOfAgreements(address party) public constant returns (uint agreementCount){\r\n        require(msg.sender!=address(0));\r\n        require(party!=address(0));\r\n        return agreements[msg.sender][party].length;\r\n    }\r\n}",
  "sourcePath": "C:\\Users\\Uros\\Downloads\\OriginTrail\\ot-node\\modules\\Blockchain\\Ethereum\\contracts\\OT-contract.sol",
  "compiler": {
    "name": "solc",
    "version": "0.4.21+commit.dfe3193c.Emscripten.clang"
  },
  "schemaVersion": "2.0.0",
  "updatedAt": "2018-04-25T11:38:36.688Z"
}