{
  "contractName": "TestingUtilities",
  "abi": [
    {
      "constant": true,
      "inputs": [
        {
          "name": "a",
          "type": "bytes32"
        },
        {
          "name": "b",
          "type": "bytes32"
        }
      ],
      "name": "keccak2",
      "outputs": [
        {
          "name": "",
          "type": "bytes32"
        }
      ],
      "payable": false,
      "stateMutability": "pure",
      "type": "function"
    },
    {
      "constant": true,
      "inputs": [
        {
          "name": "a",
          "type": "string"
        },
        {
          "name": "i",
          "type": "string"
        }
      ],
      "name": "keccakString",
      "outputs": [
        {
          "name": "",
          "type": "bytes32"
        }
      ],
      "payable": false,
      "stateMutability": "pure",
      "type": "function"
    },
    {
      "constant": true,
      "inputs": [],
      "name": "getBlockNumber",
      "outputs": [
        {
          "name": "",
          "type": "uint256"
        }
      ],
      "payable": false,
      "stateMutability": "view",
      "type": "function"
    },
    {
      "constant": false,
      "inputs": [],
      "name": "moveTheBlock",
      "outputs": [],
      "payable": false,
      "stateMutability": "nonpayable",
      "type": "function"
    }
  ],
  "bytecode": "0x6060604052341561000f57600080fd5b6103098061001e6000396000f300606060405260043610610062576000357c0100000000000000000000000000000000000000000000000000000000900463ffffffff1680630d33595d146100675780633db213e41461012357806342cbb15c14610138578063e511300914610161575b600080fd5b341561007257600080fd5b610105600480803590602001908201803590602001908080601f0160208091040260200160405190810160405280939291908181526020018383808284378201915050505050509190803590602001908201803590602001908080601f016020809104026020016040519081016040528093929190818152602001838380828437820191505050505050919050506101b1565b60405180826000191660001916815260200191505060405180910390f35b341561012e57600080fd5b610136610273565b005b341561014357600080fd5b61014b61029d565b6040518082815260200191505060405180910390f35b341561016c57600080fd5b610193600480803560001916906020019091908035600019169060200190919050506102a5565b60405180826000191660001916815260200191505060405180910390f35b600082826040518083805190602001908083835b6020831015156101ea57805182526020820191506020810190506020830392506101c5565b6001836020036101000a03801982511681845116808217855250505050505090500182805190602001908083835b60208310151561023d5780518252602082019150602081019050602083039250610218565b6001836020036101000a038019825116818451168082178552505050505050905001925050506040518091039020905092915050565b6000809054906101000a900460ff16156000806101000a81548160ff021916908315150217905550565b600043905090565b6000828260405180836000191660001916815260200182600019166000191681526020019250505060405180910390209050929150505600a165627a7a72305820d9c35b1466de21189d307b8764550b2e3ede547e5dc74c7dedf9e286c31300a60029",
  "source": "pragma solidity ^0.4.19;\r\n\r\ncontract TestingUtilities{\r\n\tbool internalData;\r\n\r\n\tfunction keccak2(bytes32 a, bytes32 b)\r\n\tpublic pure returns (bytes32){\r\n\t\treturn keccak256(a,b);\r\n\t}\r\n\r\n\tfunction keccakString(string a, string i)\r\n\tpublic pure returns (bytes32){\r\n\t\treturn keccak256(a, i);\r\n\t}\r\n\r\n\tfunction getBlockNumber()\r\n\tpublic view returns (uint){\r\n\t\treturn block.number;\r\n\t}\r\n\r\n\tfunction moveTheBlock()\r\n\tpublic{\r\n\t\tinternalData = !internalData;\r\n\t}\r\n}",
  "sourcePath": "C:\\Users\\Uros\\Downloads\\OriginTrail\\ot-node\\modules\\Blockchain\\Ethereum\\contracts\\TestingUtilities.sol",
  "compiler": {
    "name": "solc",
    "version": "0.4.21+commit.dfe3193c.Emscripten.clang"
  },
  "schemaVersion": "2.0.0",
  "updatedAt": "2018-04-25T13:22:29.891Z"
}