{
  "contractName": "DKGcontract",
  "abi": [
    {
      "inputs": [
        {
          "internalType": "address",
          "name": "token_address",
          "type": "address"
        }
      ],
      "stateMutability": "nonpayable",
      "type": "constructor"
    },
    {
      "anonymous": false,
      "inputs": [
        {
          "indexed": true,
          "internalType": "bytes32",
          "name": "assertionID",
          "type": "bytes32"
        },
        {
          "indexed": true,
          "internalType": "bytes32",
          "name": "rootHash",
          "type": "bytes32"
        },
        {
          "indexed": true,
          "internalType": "address",
          "name": "assertionIssuer",
          "type": "address"
        },
        {
          "indexed": false,
          "internalType": "uint256",
          "name": "numberOfEpochs",
          "type": "uint256"
        },
        {
          "indexed": false,
          "internalType": "uint256",
          "name": "assertionTimeToLive",
          "type": "uint256"
        }
      ],
      "name": "AssertionCreated",
      "type": "event"
    },
    {
      "anonymous": false,
      "inputs": [
        {
          "indexed": true,
          "internalType": "address",
          "name": "previousOwner",
          "type": "address"
        },
        {
          "indexed": true,
          "internalType": "address",
          "name": "newOwner",
          "type": "address"
        }
      ],
      "name": "OwnershipTransferred",
      "type": "event"
    },
    {
      "anonymous": false,
      "inputs": [
        {
          "indexed": true,
          "internalType": "address",
          "name": "token",
          "type": "address"
        }
      ],
      "name": "TokenAddressSet",
      "type": "event"
    },
    {
      "anonymous": false,
      "inputs": [
        {
          "indexed": true,
          "internalType": "bytes32",
          "name": "assertionID",
          "type": "bytes32"
        },
        {
          "indexed": true,
          "internalType": "address",
          "name": "prover",
          "type": "address"
        },
        {
          "indexed": true,
          "internalType": "uint256",
          "name": "epoch",
          "type": "uint256"
        },
        {
          "indexed": false,
          "internalType": "uint256",
          "name": "amount",
          "type": "uint256"
        }
      ],
      "name": "TokensCollected",
      "type": "event"
    },
    {
      "anonymous": false,
      "inputs": [
        {
          "indexed": true,
          "internalType": "bytes32",
          "name": "assertionID",
          "type": "bytes32"
        },
        {
          "indexed": true,
          "internalType": "address",
          "name": "prover",
          "type": "address"
        },
        {
          "indexed": true,
          "internalType": "uint256",
          "name": "epoch",
          "type": "uint256"
        }
      ],
      "name": "VerificationFailed",
      "type": "event"
    },
    {
      "inputs": [],
      "name": "TRAC_TOKEN_ADDRESS",
      "outputs": [
        {
          "internalType": "address",
          "name": "",
          "type": "address"
        }
      ],
      "stateMutability": "view",
      "type": "function",
      "constant": true
    },
    {
      "inputs": [],
      "name": "owner",
      "outputs": [
        {
          "internalType": "address",
          "name": "",
          "type": "address"
        }
      ],
      "stateMutability": "view",
      "type": "function",
      "constant": true
    },
    {
      "inputs": [],
      "name": "renounceOwnership",
      "outputs": [],
      "stateMutability": "nonpayable",
      "type": "function"
    },
    {
      "inputs": [
        {
          "internalType": "address",
          "name": "newOwner",
          "type": "address"
        }
      ],
      "name": "transferOwnership",
      "outputs": [],
      "stateMutability": "nonpayable",
      "type": "function"
    },
    {
      "inputs": [
        {
          "internalType": "bytes32",
          "name": "assertionID",
          "type": "bytes32"
        },
        {
          "internalType": "bytes32",
          "name": "rootHash",
          "type": "bytes32"
        },
        {
          "internalType": "address",
          "name": "issuer",
          "type": "address"
        },
        {
          "internalType": "uint256",
          "name": "numberOfEpochs",
          "type": "uint256"
        },
        {
          "internalType": "uint256",
          "name": "assertionTimeToLive",
          "type": "uint256"
        }
      ],
      "name": "createAssertionRecord",
      "outputs": [],
      "stateMutability": "nonpayable",
      "type": "function"
    },
    {
      "inputs": [
        {
          "internalType": "bytes32",
          "name": "assertionID",
          "type": "bytes32"
        },
        {
          "internalType": "bytes32",
          "name": "epochAssertionProof",
          "type": "bytes32"
        },
        {
          "internalType": "uint256",
          "name": "epochNumber",
          "type": "uint256"
        }
      ],
      "name": "submitHoldingProof",
      "outputs": [],
      "stateMutability": "nonpayable",
      "type": "function"
    },
    {
      "inputs": [
        {
          "internalType": "bytes32",
          "name": "assertionID",
          "type": "bytes32"
        },
        {
          "internalType": "bytes32",
          "name": "epochAssertionProof",
          "type": "bytes32"
        }
      ],
      "name": "verifyAssertionProof",
      "outputs": [
        {
          "internalType": "bool",
          "name": "proofValid",
          "type": "bool"
        }
      ],
      "stateMutability": "nonpayable",
      "type": "function"
    },
    {
      "inputs": [
        {
          "internalType": "bytes32",
          "name": "assertionID",
          "type": "bytes32"
        }
      ],
      "name": "getAssertionIssuer",
      "outputs": [
        {
          "internalType": "address",
          "name": "creator",
          "type": "address"
        }
      ],
      "stateMutability": "view",
      "type": "function",
      "constant": true
    },
    {
      "inputs": [
        {
          "internalType": "bytes32",
          "name": "assertionID",
          "type": "bytes32"
        }
      ],
      "name": "getAssertionRootHash",
      "outputs": [
        {
          "internalType": "bytes32",
          "name": "rootHash",
          "type": "bytes32"
        }
      ],
      "stateMutability": "view",
      "type": "function",
      "constant": true
    },
    {
      "inputs": [
        {
          "internalType": "bytes32",
          "name": "assertionID",
          "type": "bytes32"
        }
      ],
      "name": "getAssertionTimeToLive",
      "outputs": [
        {
          "internalType": "uint256",
          "name": "timeToLive",
          "type": "uint256"
        }
      ],
      "stateMutability": "view",
      "type": "function",
      "constant": true
    },
    {
      "inputs": [
        {
          "internalType": "bytes32",
          "name": "assertionID",
          "type": "bytes32"
        }
      ],
      "name": "getAssertionNumberOfEpochs",
      "outputs": [
        {
          "internalType": "uint256",
          "name": "numberOfEpochs",
          "type": "uint256"
        }
      ],
      "stateMutability": "view",
      "type": "function",
      "constant": true
    },
    {
      "inputs": [
        {
          "internalType": "bytes32",
          "name": "assertionID",
          "type": "bytes32"
        },
        {
          "internalType": "uint256",
          "name": "epoch",
          "type": "uint256"
        }
      ],
      "name": "getAssertionTask",
      "outputs": [
        {
          "internalType": "uint256",
          "name": "task",
          "type": "uint256"
        }
      ],
      "stateMutability": "view",
      "type": "function",
      "constant": true
    }
  ],
  "bytecode": "0x608060405234801561001057600080fd5b506040516110423803806110428339818101604052602081101561003357600080fd5b810190808051906020019092919050505060006100546101f760201b60201c565b9050806000806101000a81548173ffffffffffffffffffffffffffffffffffffffff021916908373ffffffffffffffffffffffffffffffffffffffff1602179055508073ffffffffffffffffffffffffffffffffffffffff16600073ffffffffffffffffffffffffffffffffffffffff167f8be0079c531659141344cd1fd0a4f28419497f9722a3daafe3b4186f6b6457e060405160405180910390a350600073ffffffffffffffffffffffffffffffffffffffff168173ffffffffffffffffffffffffffffffffffffffff16141561012c57600080fd5b80600160006101000a81548173ffffffffffffffffffffffffffffffffffffffff021916908373ffffffffffffffffffffffffffffffffffffffff16021790555080600260006101000a81548173ffffffffffffffffffffffffffffffffffffffff021916908373ffffffffffffffffffffffffffffffffffffffff1602179055508073ffffffffffffffffffffffffffffffffffffffff167fd82cad5fdc98633445b90f806f2e1a61a5409f92187ee9cd87f1da18c906926660405160405180910390a2506101ff565b600033905090565b610e348061020e6000396000f3fe608060405234801561001057600080fd5b50600436106100b45760003560e01c80638f9cd32b116100715780638f9cd32b1461022b5780639e50e72c1461025f578063b934b4e4146102a1578063ce64c643146102e3578063f164c43614610325578063f2fde38b14610391576100b4565b80630828e9f3146100b957806308c4933b14610111578063193f9c7e1461015d5780636988bc03146101ab578063715018a6146101ed5780638da5cb5b146101f7575b600080fd5b6100e5600480360360208110156100cf57600080fd5b81019080803590602001909291905050506103d5565b604051808273ffffffffffffffffffffffffffffffffffffffff16815260200191505060405180910390f35b6101476004803603604081101561012757600080fd5b810190808035906020019092919080359060200190929190505050610412565b6040518082815260200191505060405180910390f35b6101936004803603604081101561017357600080fd5b81019080803590602001909291908035906020019092919050505061041d565b60405180821515815260200191505060405180910390f35b6101d7600480360360208110156101c157600080fd5b8101908080359060200190929190505050610429565b6040518082815260200191505060405180910390f35b6101f5610449565b005b6101ff6105b6565b604051808273ffffffffffffffffffffffffffffffffffffffff16815260200191505060405180910390f35b6102336105df565b604051808273ffffffffffffffffffffffffffffffffffffffff16815260200191505060405180910390f35b61028b6004803603602081101561027557600080fd5b8101908080359060200190929190505050610605565b6040518082815260200191505060405180910390f35b6102cd600480360360208110156102b757600080fd5b8101908080359060200190929190505050610625565b6040518082815260200191505060405180910390f35b610323600480360360608110156102f957600080fd5b81019080803590602001909291908035906020019092919080359060200190929190505050610645565b005b61038f600480360360a081101561033b57600080fd5b810190808035906020019092919080359060200190929190803573ffffffffffffffffffffffffffffffffffffffff16906020019092919080359060200190929190803590602001909291905050506107ca565b005b6103d3600480360360208110156103a757600080fd5b81019080803573ffffffffffffffffffffffffffffffffffffffff169060200190929190505050610b6e565b005b60006004600083815260200190815260200160002060009054906101000a900473ffffffffffffffffffffffffffffffffffffffff169050919050565b600043905092915050565b60006001905092915050565b600060036000838152602001908152602001600020600001549050919050565b610451610d60565b73ffffffffffffffffffffffffffffffffffffffff1661046f6105b6565b73ffffffffffffffffffffffffffffffffffffffff16146104f8576040517f08c379a00000000000000000000000000000000000000000000000000000000081526004018080602001828103825260208152602001807f4f776e61626c653a2063616c6c6572206973206e6f7420746865206f776e657281525060200191505060405180910390fd5b600073ffffffffffffffffffffffffffffffffffffffff1660008054906101000a900473ffffffffffffffffffffffffffffffffffffffff1673ffffffffffffffffffffffffffffffffffffffff167f8be0079c531659141344cd1fd0a4f28419497f9722a3daafe3b4186f6b6457e060405160405180910390a360008060006101000a81548173ffffffffffffffffffffffffffffffffffffffff021916908373ffffffffffffffffffffffffffffffffffffffff160217905550565b60008060009054906101000a900473ffffffffffffffffffffffffffffffffffffffff16905090565b600260009054906101000a900473ffffffffffffffffffffffffffffffffffffffff1681565b600060036000838152602001908152602001600020600101549050919050565b600060036000838152602001908152602001600020600401549050919050565b6000801b8314156106be576040517f08c379a000000000000000000000000000000000000000000000000000000000815260040180806020018281038252601f8152602001807f617373657274696f6e494420686173682063616e6e6f74206265207a65726f0081525060200191505060405180910390fd5b6000801b82141561071a576040517f08c379a0000000000000000000000000000000000000000000000000000000008152600401808060200182810382526027815260200180610db66027913960400191505060405180910390fd5b610724838361041d565b1561077f57803373ffffffffffffffffffffffffffffffffffffffff16847fce001fcd900079c312eaa96f5c1c389ffe207eb41e90197f5a011668b58ef598607b6040518082815260200191505060405180910390a46107c5565b803373ffffffffffffffffffffffffffffffffffffffff16847f37d4188105d31e43e2177257c4e9cc2c8eda5c0783943eb00abe942ac687b03a60405160405180910390a45b505050565b6000801b851415610843576040517f08c379a000000000000000000000000000000000000000000000000000000000815260040180806020018281038252601f8152602001807f617373657274696f6e494420686173682063616e6e6f74206265207a65726f0081525060200191505060405180910390fd5b6000801b8414156108bc576040517f08c379a000000000000000000000000000000000000000000000000000000000815260040180806020018281038252601c8152602001807f726f6f744861736820686173682063616e6e6f74206265207a65726f0000000081525060200191505060405180910390fd5b6000821415610916576040517f08c379a0000000000000000000000000000000000000000000000000000000008152600401808060200182810382526022815260200180610ddd6022913960400191505060405180910390fd5b6000811415610970576040517f08c379a0000000000000000000000000000000000000000000000000000000008152600401808060200182810382526027815260200180610d696027913960400191505060405180910390fd5b60006003600087815260200190815260200160002060020154146109fc576040517f08c379a00000000000000000000000000000000000000000000000000000000081526004018080602001828103825260198152602001807f417373657274696f6e20616c726561647920657869737473210000000000000081525060200191505060405180910390fd5b816003600087815260200190815260200160002060010181905550806003600087815260200190815260200160002060000181905550426003600087815260200190815260200160002060020181905550836003600087815260200190815260200160002060040181905550826003600087815260200190815260200160002060030160006101000a81548173ffffffffffffffffffffffffffffffffffffffff021916908373ffffffffffffffffffffffffffffffffffffffff160217905550826004600087815260200190815260200160002060006101000a81548173ffffffffffffffffffffffffffffffffffffffff021916908373ffffffffffffffffffffffffffffffffffffffff1602179055508273ffffffffffffffffffffffffffffffffffffffff1684867f25e2604032d2f5a218a9bed084fc10fd98b83e3b86a79ba39c214095984250168585604051808381526020018281526020019250505060405180910390a45050505050565b610b76610d60565b73ffffffffffffffffffffffffffffffffffffffff16610b946105b6565b73ffffffffffffffffffffffffffffffffffffffff1614610c1d576040517f08c379a00000000000000000000000000000000000000000000000000000000081526004018080602001828103825260208152602001807f4f776e61626c653a2063616c6c6572206973206e6f7420746865206f776e657281525060200191505060405180910390fd5b600073ffffffffffffffffffffffffffffffffffffffff168173ffffffffffffffffffffffffffffffffffffffff161415610ca3576040517f08c379a0000000000000000000000000000000000000000000000000000000008152600401808060200182810382526026815260200180610d906026913960400191505060405180910390fd5b8073ffffffffffffffffffffffffffffffffffffffff1660008054906101000a900473ffffffffffffffffffffffffffffffffffffffff1673ffffffffffffffffffffffffffffffffffffffff167f8be0079c531659141344cd1fd0a4f28419497f9722a3daafe3b4186f6b6457e060405160405180910390a3806000806101000a81548173ffffffffffffffffffffffffffffffffffffffff021916908373ffffffffffffffffffffffffffffffffffffffff16021790555050565b60003390509056fe617373657274696f6e54696d65546f4c69766520686173682063616e6e6f74206265207a65726f4f776e61626c653a206e6577206f776e657220697320746865207a65726f206164647265737365706f6368417373657274696f6e50726f6f6620686173682063616e6e6f74206265207a65726f6e756d6265724f6645706f63687320686173682063616e6e6f74206265207a65726fa2646970667358221220152e1139f6922ba82f151b38f91761c9b96c2f0c3be8314e4fb01b519122451964736f6c63430007060033",
  "immutableReferences": {},
  "source": "pragma solidity >=0.6.0 <0.8.0;\n\nimport \"openzeppelin-solidity/contracts/token/ERC20/IERC20.sol\";\nimport \"openzeppelin-solidity/contracts/math/SafeMath.sol\";\nimport \"openzeppelin-solidity/contracts/access/Ownable.sol\";\n\n\n// mock contract for now, we will add the hub and the rest later\ncontract DKGcontract is Ownable {\n\n\n\tusing SafeMath for uint256;\n\tIERC20 token;\n\n\taddress public TRAC_TOKEN_ADDRESS;\n\n\tstruct AssertionRecord{\n\t\t// bytes32 assertionID; // hash (multihash) of the assertion\n\t\tuint256 assertionTimeToLive;\n\t\tuint256 numberOfEpochs;\n\t\tuint256 creationTime;\n\t\taddress issuer;\n\t\tbytes32 rootHash;\n\t\tbytes32 data; // for extensibility\n\t\t// TODO: include Token management\n\t}\n\n\tmapping(bytes32 => AssertionRecord) internal assertionRecord; // assertionRecord[assertionID] , formerly offer[offerID]\n\tmapping(bytes32 => address) internal assertionIssuer; // mapping assertionID -> assertionIssuer\n\n\n\t// events\n\tevent TokenAddressSet(address indexed token);\n\tevent AssertionCreated(bytes32 indexed assertionID, bytes32 indexed rootHash, address indexed assertionIssuer, uint256 numberOfEpochs, uint256 assertionTimeToLive);\n\tevent TokensCollected(bytes32 indexed assertionID, address indexed prover, uint256 indexed epoch, uint256 amount);\n\tevent VerificationFailed(bytes32 indexed assertionID, address indexed prover, uint256 indexed epoch);\n\n\n\n\tconstructor(address token_address)  public {\n\t\trequire(token_address!=address(0));\n\t\ttoken = IERC20(token_address);\n\t\tTRAC_TOKEN_ADDRESS = token_address;\n\t\t\n\t\temit TokenAddressSet(token_address);\n\n\t}\n\n\t/* DC */\n\tfunction createAssertionRecord(bytes32 assertionID, bytes32 rootHash, address issuer, uint256 numberOfEpochs, uint256 assertionTimeToLive) public {\n\t\trequire(assertionID != 0, \"assertionID hash cannot be zero\");\n\t\trequire(rootHash != 0, \"rootHash hash cannot be zero\");\n\t\trequire(numberOfEpochs != 0, \"numberOfEpochs hash cannot be zero\");\n\t\trequire(assertionTimeToLive != 0, \"assertionTimeToLive hash cannot be zero\");\n\t\trequire(assertionRecord[assertionID].creationTime==0, \"Assertion already exists!\");\n\n\t\t// transfer token to contract here (next version)\n\n\t\tassertionRecord[assertionID].numberOfEpochs = numberOfEpochs;\n\t\tassertionRecord[assertionID].assertionTimeToLive = assertionTimeToLive;\n\t\tassertionRecord[assertionID].creationTime = block.timestamp;\n\t\tassertionRecord[assertionID].rootHash = rootHash;\n\t\tassertionRecord[assertionID].issuer = issuer;\n\t\tassertionIssuer[assertionID] = issuer;\n\n\t\temit AssertionCreated(assertionID,rootHash,issuer,numberOfEpochs,assertionTimeToLive);\n\t}\n\n\n\t/* DH */\n\n\tfunction submitHoldingProof(bytes32 assertionID, bytes32 epochAssertionProof, uint256 epochNumber) \n\tpublic {\n\t\trequire(assertionID != 0, \"assertionID hash cannot be zero\");\n\t\trequire(epochAssertionProof != 0, \"epochAssertionProof hash cannot be zero\");\n\n\t\tif (verifyAssertionProof(assertionID, epochAssertionProof)){\n\t\t\temit TokensCollected(assertionID,msg.sender,epochNumber, 123);\n\t\t\t} else {\n\t\t\t\temit VerificationFailed(assertionID,msg.sender,epochNumber);\n\t\t\t}\n\n\t}\n\n\n\n\tfunction verifyAssertionProof(bytes32 assertionID, bytes32 epochAssertionProof) \n\t\tpublic returns(bool proofValid){\n\t\treturn true;\n\n\t}\n\n\n\n\tfunction getAssertionIssuer(bytes32 assertionID)\n\tpublic view returns(address creator){\n\t\treturn assertionIssuer[assertionID];\n\t}\n\tfunction getAssertionRootHash(bytes32 assertionID)\n\tpublic view returns(bytes32 rootHash){\n\t\treturn assertionRecord[assertionID].rootHash;\n\t}\n\tfunction getAssertionTimeToLive(bytes32 assertionID)\n\tpublic view returns(uint256 timeToLive){\n\t\treturn assertionRecord[assertionID].assertionTimeToLive;\n\t}\n\tfunction getAssertionNumberOfEpochs(bytes32 assertionID)\n\tpublic view returns(uint256 numberOfEpochs){\n\t\treturn assertionRecord[assertionID].numberOfEpochs;\n\t}\n\n\tfunction getAssertionTask(bytes32 assertionID, uint256 epoch)\n\tpublic view returns(uint256 task){\n\t\treturn block.number;\n\t}\n\n}",
  "sourcePath": "/Users/miloskotlar/dkg-onchain-module-v6/contracts/DKGcontract.sol",
  "compiler": {
    "name": "solc",
    "version": "0.7.6+commit.7338295f.Emscripten.clang"
  },
  "schemaVersion": "3.4.3",
  "updatedAt": "2022-02-11T10:13:46.687Z",
  "networkType": "ethereum",
  "devdoc": {
    "kind": "dev",
    "methods": {
      "owner()": {
        "details": "Returns the address of the current owner."
      },
      "renounceOwnership()": {
        "details": "Leaves the contract without owner. It will not be possible to call `onlyOwner` functions anymore. Can only be called by the current owner. NOTE: Renouncing ownership will leave the contract without an owner, thereby removing any functionality that is only available to the owner."
      },
      "transferOwnership(address)": {
        "details": "Transfers ownership of the contract to a new account (`newOwner`). Can only be called by the current owner."
      }
    },
    "version": 1
  },
  "userdoc": {
    "kind": "user",
    "methods": {},
    "version": 1
  }
}