{
  "contractName": "AssertionRegistry",
  "abi": [
    {
      "inputs": [
        {
          "internalType": "address",
          "name": "hubAddress",
          "type": "address"
        }
      ],
      "stateMutability": "nonpayable",
      "type": "constructor"
    },
    {
      "anonymous": false,
      "inputs": [
        {
          "indexed": true,
          "internalType": "bytes32",
          "name": "assertionId",
          "type": "bytes32"
        },
        {
          "indexed": false,
          "internalType": "address",
          "name": "issuer",
          "type": "address"
        },
        {
          "indexed": false,
          "internalType": "uint256",
          "name": "size",
          "type": "uint256"
        },
        {
          "indexed": false,
          "internalType": "uint256",
          "name": "visibility",
          "type": "uint256"
        }
      ],
      "name": "AssertionCreated",
      "type": "event"
    },
    {
      "anonymous": false,
      "inputs": [
        {
          "indexed": true,
          "internalType": "address",
          "name": "previousOwner",
          "type": "address"
        },
        {
          "indexed": true,
          "internalType": "address",
          "name": "newOwner",
          "type": "address"
        }
      ],
      "name": "OwnershipTransferred",
      "type": "event"
    },
    {
      "inputs": [],
      "name": "TRAC_TOKEN_ADDRESS",
      "outputs": [
        {
          "internalType": "address",
          "name": "",
          "type": "address"
        }
      ],
      "stateMutability": "view",
      "type": "function",
      "constant": true
    },
    {
      "inputs": [],
      "name": "hub",
      "outputs": [
        {
          "internalType": "contract Hub",
          "name": "",
          "type": "address"
        }
      ],
      "stateMutability": "view",
      "type": "function",
      "constant": true
    },
    {
      "inputs": [],
      "name": "owner",
      "outputs": [
        {
          "internalType": "address",
          "name": "",
          "type": "address"
        }
      ],
      "stateMutability": "view",
      "type": "function",
      "constant": true
    },
    {
      "inputs": [],
      "name": "renounceOwnership",
      "outputs": [],
      "stateMutability": "nonpayable",
      "type": "function"
    },
    {
      "inputs": [
        {
          "internalType": "address",
          "name": "newOwner",
          "type": "address"
        }
      ],
      "name": "transferOwnership",
      "outputs": [],
      "stateMutability": "nonpayable",
      "type": "function"
    },
    {
      "inputs": [
        {
          "internalType": "bytes32",
          "name": "assertionId",
          "type": "bytes32"
        },
        {
          "internalType": "address",
          "name": "issuer",
          "type": "address"
        },
        {
          "internalType": "uint256",
          "name": "size",
          "type": "uint256"
        },
        {
          "internalType": "uint256",
          "name": "visibility",
          "type": "uint256"
        }
      ],
      "name": "createAssertionRecord",
      "outputs": [],
      "stateMutability": "nonpayable",
      "type": "function"
    },
    {
      "inputs": [
        {
          "internalType": "bytes32",
          "name": "assertionId",
          "type": "bytes32"
        }
      ],
      "name": "getIssuer",
      "outputs": [
        {
          "internalType": "address",
          "name": "issuer",
          "type": "address"
        }
      ],
      "stateMutability": "view",
      "type": "function",
      "constant": true
    },
    {
      "inputs": [
        {
          "internalType": "bytes32",
          "name": "assertionId",
          "type": "bytes32"
        }
      ],
      "name": "getTimestamp",
      "outputs": [
        {
          "internalType": "uint256",
          "name": "timestamp",
          "type": "uint256"
        }
      ],
      "stateMutability": "view",
      "type": "function",
      "constant": true
    }
  ],
  "bytecode": "0x60806040523480156200001157600080fd5b50604051620010883803806200108883398181016040528101906200003791906200020f565b620000576200004b620000d960201b60201c565b620000e160201b60201c565b600073ffffffffffffffffffffffffffffffffffffffff168173ffffffffffffffffffffffffffffffffffffffff16036200009157600080fd5b80600160006101000a81548173ffffffffffffffffffffffffffffffffffffffff021916908373ffffffffffffffffffffffffffffffffffffffff1602179055505062000241565b600033905090565b60008060009054906101000a900473ffffffffffffffffffffffffffffffffffffffff169050816000806101000a81548173ffffffffffffffffffffffffffffffffffffffff021916908373ffffffffffffffffffffffffffffffffffffffff1602179055508173ffffffffffffffffffffffffffffffffffffffff168173ffffffffffffffffffffffffffffffffffffffff167f8be0079c531659141344cd1fd0a4f28419497f9722a3daafe3b4186f6b6457e060405160405180910390a35050565b600080fd5b600073ffffffffffffffffffffffffffffffffffffffff82169050919050565b6000620001d782620001aa565b9050919050565b620001e981620001ca565b8114620001f557600080fd5b50565b6000815190506200020981620001de565b92915050565b600060208284031215620002285762000227620001a5565b5b60006200023884828501620001f8565b91505092915050565b610e3780620002516000396000f3fe608060405234801561001057600080fd5b50600436106100885760003560e01c80638da5cb5b1161005b5780638da5cb5b146101015780638f9cd32b1461011f578063d45c44351461013d578063f2fde38b1461016d57610088565b80632216f5591461008d5780632341c963146100a9578063365a86fc146100d9578063715018a6146100f7575b600080fd5b6100a760048036038101906100a2919061085f565b610189565b005b6100c360048036038101906100be91906108c6565b610470565b6040516100d09190610902565b60405180910390f35b6100e16104b0565b6040516100ee919061097c565b60405180910390f35b6100ff6104d6565b005b61010961055e565b6040516101169190610902565b60405180910390f35b610127610587565b6040516101349190610902565b60405180910390f35b610157600480360381019061015291906108c6565b6105ad565b60405161016491906109a6565b60405180910390f35b610187600480360381019061018291906109c1565b6105cd565b005b600160009054906101000a900473ffffffffffffffffffffffffffffffffffffffff1673ffffffffffffffffffffffffffffffffffffffff166316279055336040518263ffffffff1660e01b81526004016101e49190610902565b602060405180830381865afa158015610201573d6000803e3d6000fd5b505050506040513d601f19601f820116820180604052508101906102259190610a26565b610264576040517f08c379a000000000000000000000000000000000000000000000000000000000815260040161025b90610ad6565b60405180910390fd5b6000801b84036102a9576040517f08c379a00000000000000000000000000000000000000000000000000000000081526004016102a090610b42565b60405180910390fd5b600082036102ec576040517f08c379a00000000000000000000000000000000000000000000000000000000081526004016102e390610bae565b60405180910390fd5b6002811061032f576040517f08c379a000000000000000000000000000000000000000000000000000000000815260040161032690610c40565b60405180910390fd5b6000600460008681526020019081526020016000206001015414610388576040517f08c379a000000000000000000000000000000000000000000000000000000000815260040161037f90610cac565b60405180910390fd5b426004600086815260200190815260200160002060010181905550826004600086815260200190815260200160002060020160006101000a81548173ffffffffffffffffffffffffffffffffffffffff021916908373ffffffffffffffffffffffffffffffffffffffff160217905550816004600086815260200190815260200160002060030181905550806004600086815260200190815260200160002060000181905550837f0c177bb8b3f155a57c433fdcc966bc2bada4220a5f02921bf45c3d3b6c454d3d84848460405161046293929190610ccc565b60405180910390a250505050565b60006004600083815260200190815260200160002060020160009054906101000a900473ffffffffffffffffffffffffffffffffffffffff169050919050565b600160009054906101000a900473ffffffffffffffffffffffffffffffffffffffff1681565b6104de6106c4565b73ffffffffffffffffffffffffffffffffffffffff166104fc61055e565b73ffffffffffffffffffffffffffffffffffffffff1614610552576040517f08c379a000000000000000000000000000000000000000000000000000000000815260040161054990610d4f565b60405180910390fd5b61055c60006106cc565b565b60008060009054906101000a900473ffffffffffffffffffffffffffffffffffffffff16905090565b600360009054906101000a900473ffffffffffffffffffffffffffffffffffffffff1681565b600060046000838152602001908152602001600020600101549050919050565b6105d56106c4565b73ffffffffffffffffffffffffffffffffffffffff166105f361055e565b73ffffffffffffffffffffffffffffffffffffffff1614610649576040517f08c379a000000000000000000000000000000000000000000000000000000000815260040161064090610d4f565b60405180910390fd5b600073ffffffffffffffffffffffffffffffffffffffff168173ffffffffffffffffffffffffffffffffffffffff16036106b8576040517f08c379a00000000000000000000000000000000000000000000000000000000081526004016106af90610de1565b60405180910390fd5b6106c1816106cc565b50565b600033905090565b60008060009054906101000a900473ffffffffffffffffffffffffffffffffffffffff169050816000806101000a81548173ffffffffffffffffffffffffffffffffffffffff021916908373ffffffffffffffffffffffffffffffffffffffff1602179055508173ffffffffffffffffffffffffffffffffffffffff168173ffffffffffffffffffffffffffffffffffffffff167f8be0079c531659141344cd1fd0a4f28419497f9722a3daafe3b4186f6b6457e060405160405180910390a35050565b600080fd5b6000819050919050565b6107a881610795565b81146107b357600080fd5b50565b6000813590506107c58161079f565b92915050565b600073ffffffffffffffffffffffffffffffffffffffff82169050919050565b60006107f6826107cb565b9050919050565b610806816107eb565b811461081157600080fd5b50565b600081359050610823816107fd565b92915050565b6000819050919050565b61083c81610829565b811461084757600080fd5b50565b60008135905061085981610833565b92915050565b6000806000806080858703121561087957610878610790565b5b6000610887878288016107b6565b945050602061089887828801610814565b93505060406108a98782880161084a565b92505060606108ba8782880161084a565b91505092959194509250565b6000602082840312156108dc576108db610790565b5b60006108ea848285016107b6565b91505092915050565b6108fc816107eb565b82525050565b600060208201905061091760008301846108f3565b92915050565b6000819050919050565b600061094261093d610938846107cb565b61091d565b6107cb565b9050919050565b600061095482610927565b9050919050565b600061096682610949565b9050919050565b6109768161095b565b82525050565b6000602082019050610991600083018461096d565b92915050565b6109a081610829565b82525050565b60006020820190506109bb6000830184610997565b92915050565b6000602082840312156109d7576109d6610790565b5b60006109e584828501610814565b91505092915050565b60008115159050919050565b610a03816109ee565b8114610a0e57600080fd5b50565b600081519050610a20816109fa565b92915050565b600060208284031215610a3c57610a3b610790565b5b6000610a4a84828501610a11565b91505092915050565b600082825260208201905092915050565b7f46756e6374696f6e2063616e206f6e6c792062652063616c6c6564206279206360008201527f6f6e747261637473210000000000000000000000000000000000000000000000602082015250565b6000610ac0602983610a53565b9150610acb82610a64565b604082019050919050565b60006020820190508181036000830152610aef81610ab3565b9050919050565b7f617373657274696f6e49642063616e6e6f74206265207a65726f000000000000600082015250565b6000610b2c601a83610a53565b9150610b3782610af6565b602082019050919050565b60006020820190508181036000830152610b5b81610b1f565b9050919050565b7f73697a652063616e6e6f74206265207a65726f00000000000000000000000000600082015250565b6000610b98601383610a53565b9150610ba382610b62565b602082019050919050565b60006020820190508181036000830152610bc781610b8b565b9050919050565b7f7669736962696c6974792063616e206265206f6e6c792030202870726976617460008201527f6529206f72203120287075626c69632900000000000000000000000000000000602082015250565b6000610c2a603083610a53565b9150610c3582610bce565b604082019050919050565b60006020820190508181036000830152610c5981610c1d565b9050919050565b7f417373657274696f6e20616c7265616479206578697374730000000000000000600082015250565b6000610c96601883610a53565b9150610ca182610c60565b602082019050919050565b60006020820190508181036000830152610cc581610c89565b9050919050565b6000606082019050610ce160008301866108f3565b610cee6020830185610997565b610cfb6040830184610997565b949350505050565b7f4f776e61626c653a2063616c6c6572206973206e6f7420746865206f776e6572600082015250565b6000610d39602083610a53565b9150610d4482610d03565b602082019050919050565b60006020820190508181036000830152610d6881610d2c565b9050919050565b7f4f776e61626c653a206e6577206f776e657220697320746865207a65726f206160008201527f6464726573730000000000000000000000000000000000000000000000000000602082015250565b6000610dcb602683610a53565b9150610dd682610d6f565b604082019050919050565b60006020820190508181036000830152610dfa81610dbe565b905091905056fea26469706673582212203bfd37f25b884db6b4d709aa9f6657c2a4afac27769a1b380f6a0753f38fdd9164736f6c634300080e0033",
  "immutableReferences": {},
  "source": "// SPDX-License-Identifier: MIT\n\npragma solidity ^0.8.0;\n\nimport \"@openzeppelin/contracts/token/ERC20/IERC20.sol\";\nimport \"@openzeppelin/contracts/access/Ownable.sol\";\nimport \"./Hub.sol\";\n\n\ncontract AssertionRegistry is Ownable {\n\tHub public hub;\n\tIERC20 token;\n\n\taddress public TRAC_TOKEN_ADDRESS;\n\n\tstruct AssertionRecord{\n\t\tuint256 visibility; // 0 - private, 1 - public\n\t\tuint256 timestamp;\n\t\taddress issuer;\n\t\tuint256 size;\n\t\tbytes32 data; // for extensibility\n\t}\n\n\tmapping(bytes32 => AssertionRecord) internal assertionRecords;\n\n\t// events\n\tevent AssertionCreated(bytes32 indexed assertionId, address issuer, uint256 size, uint256 visibility);\n\n\tconstructor(address hubAddress) {\n\t\trequire(hubAddress != address(0));\n\t\thub = Hub(hubAddress);\n\t}\n\n\n\tmodifier onlyContracts() {\n\t\trequire(hub.isContract(msg.sender),\n\t\t\t\"Function can only be called by contracts!\");\n\t\t_;\n\t}\n\n\tfunction createAssertionRecord(bytes32 assertionId, address issuer, uint256 size, uint256 visibility) public onlyContracts {\n\t\trequire(assertionId != 0, \"assertionId cannot be zero\");\n\t\trequire(size != 0, \"size cannot be zero\");\n\t\trequire(visibility < 2, \"visibility can be only 0 (private) or 1 (public)\");\n\t\trequire(assertionRecords[assertionId].timestamp == 0, \"Assertion already exists\");\n\n\t\tassertionRecords[assertionId].timestamp = block.timestamp;\n\t\tassertionRecords[assertionId].issuer = issuer;\n\t\tassertionRecords[assertionId].size = size;\n\t\tassertionRecords[assertionId].visibility = visibility;\n\n\t\temit AssertionCreated(assertionId, issuer, size, visibility);\n\t}\n\n\tfunction getIssuer(bytes32 assertionId)\n\tpublic view returns(address issuer){\n\t\treturn assertionRecords[assertionId].issuer;\n\t}\n\n\tfunction getTimestamp(bytes32 assertionId)\n\tpublic view returns(uint256 timestamp){\n\t\treturn assertionRecords[assertionId].timestamp;\n\t}\n}",
  "sourcePath": "/Users/max/IdeaProjects/dkg-onchain-module-v6/contracts/AssertionRegistry.sol",
  "compiler": {
    "name": "solc",
    "version": "0.8.14+commit.80d49f37.Emscripten.clang"
  },
  "schemaVersion": "3.4.3",
  "updatedAt": "2022-08-02T08:02:36.382Z",
  "networkType": "ethereum",
  "devdoc": {
    "kind": "dev",
    "methods": {
      "owner()": {
        "details": "Returns the address of the current owner."
      },
      "renounceOwnership()": {
        "details": "Leaves the contract without owner. It will not be possible to call `onlyOwner` functions anymore. Can only be called by the current owner. NOTE: Renouncing ownership will leave the contract without an owner, thereby removing any functionality that is only available to the owner."
      },
      "transferOwnership(address)": {
        "details": "Transfers ownership of the contract to a new account (`newOwner`). Can only be called by the current owner."
      }
    },
    "version": 1
  },
  "userdoc": {
    "kind": "user",
    "methods": {},
    "version": 1
  }
}