{
  "contractName": "DKGcontract",
  "abi": [
    {
      "inputs": [
        {
          "internalType": "address",
          "name": "token_address",
          "type": "address"
        }
      ],
      "stateMutability": "nonpayable",
      "type": "constructor"
    },
    {
      "anonymous": false,
      "inputs": [
        {
          "indexed": true,
          "internalType": "bytes32",
          "name": "assertionID",
          "type": "bytes32"
        },
        {
          "indexed": true,
          "internalType": "bytes32",
          "name": "rootHash",
          "type": "bytes32"
        },
        {
          "indexed": true,
          "internalType": "address",
          "name": "assertionIssuer",
          "type": "address"
        },
        {
          "indexed": false,
          "internalType": "uint256",
          "name": "numberOfEpochs",
          "type": "uint256"
        },
        {
          "indexed": false,
          "internalType": "uint256",
          "name": "assertionTimeToLive",
          "type": "uint256"
        }
      ],
      "name": "AssertionCreated",
      "type": "event"
    },
    {
      "anonymous": false,
      "inputs": [
        {
          "indexed": true,
          "internalType": "address",
          "name": "previousOwner",
          "type": "address"
        },
        {
          "indexed": true,
          "internalType": "address",
          "name": "newOwner",
          "type": "address"
        }
      ],
      "name": "OwnershipTransferred",
      "type": "event"
    },
    {
      "anonymous": false,
      "inputs": [
        {
          "indexed": true,
          "internalType": "address",
          "name": "token",
          "type": "address"
        }
      ],
      "name": "TokenAddressSet",
      "type": "event"
    },
    {
      "anonymous": false,
      "inputs": [
        {
          "indexed": true,
          "internalType": "bytes32",
          "name": "assertionID",
          "type": "bytes32"
        },
        {
          "indexed": true,
          "internalType": "address",
          "name": "prover",
          "type": "address"
        },
        {
          "indexed": true,
          "internalType": "uint256",
          "name": "epoch",
          "type": "uint256"
        },
        {
          "indexed": false,
          "internalType": "uint256",
          "name": "amount",
          "type": "uint256"
        }
      ],
      "name": "TokensCollected",
      "type": "event"
    },
    {
      "anonymous": false,
      "inputs": [
        {
          "indexed": true,
          "internalType": "bytes32",
          "name": "assertionID",
          "type": "bytes32"
        },
        {
          "indexed": true,
          "internalType": "address",
          "name": "prover",
          "type": "address"
        },
        {
          "indexed": true,
          "internalType": "uint256",
          "name": "epoch",
          "type": "uint256"
        }
      ],
      "name": "VerificationFailed",
      "type": "event"
    },
    {
      "inputs": [],
      "name": "TRAC_TOKEN_ADDRESS",
      "outputs": [
        {
          "internalType": "address",
          "name": "",
          "type": "address"
        }
      ],
      "stateMutability": "view",
      "type": "function",
      "constant": true
    },
    {
      "inputs": [],
      "name": "owner",
      "outputs": [
        {
          "internalType": "address",
          "name": "",
          "type": "address"
        }
      ],
      "stateMutability": "view",
      "type": "function",
      "constant": true
    },
    {
      "inputs": [],
      "name": "renounceOwnership",
      "outputs": [],
      "stateMutability": "nonpayable",
      "type": "function"
    },
    {
      "inputs": [
        {
          "internalType": "address",
          "name": "newOwner",
          "type": "address"
        }
      ],
      "name": "transferOwnership",
      "outputs": [],
      "stateMutability": "nonpayable",
      "type": "function"
    },
    {
      "inputs": [
        {
          "internalType": "bytes32",
          "name": "assertionID",
          "type": "bytes32"
        },
        {
          "internalType": "bytes32",
          "name": "rootHash",
          "type": "bytes32"
        },
        {
          "internalType": "address",
          "name": "issuer",
          "type": "address"
        },
        {
          "internalType": "uint256",
          "name": "numberOfEpochs",
          "type": "uint256"
        },
        {
          "internalType": "uint256",
          "name": "assertionTimeToLive",
          "type": "uint256"
        }
      ],
      "name": "createAssertionRecord",
      "outputs": [],
      "stateMutability": "nonpayable",
      "type": "function"
    },
    {
      "inputs": [
        {
          "internalType": "bytes32",
          "name": "assertionID",
          "type": "bytes32"
        },
        {
          "internalType": "bytes32",
          "name": "epochAssertionProof",
          "type": "bytes32"
        },
        {
          "internalType": "uint256",
          "name": "epochNumber",
          "type": "uint256"
        }
      ],
      "name": "submitHoldingProof",
      "outputs": [],
      "stateMutability": "nonpayable",
      "type": "function"
    },
    {
      "inputs": [
        {
          "internalType": "bytes32",
          "name": "assertionID",
          "type": "bytes32"
        },
        {
          "internalType": "bytes32",
          "name": "epochAssertionProof",
          "type": "bytes32"
        }
      ],
      "name": "verifyAssertionProof",
      "outputs": [
        {
          "internalType": "bool",
          "name": "proofValid",
          "type": "bool"
        }
      ],
      "stateMutability": "nonpayable",
      "type": "function"
    },
    {
      "inputs": [
        {
          "internalType": "bytes32",
          "name": "assertionID",
          "type": "bytes32"
        }
      ],
      "name": "getAssertionIssuer",
      "outputs": [
        {
          "internalType": "address",
          "name": "creator",
          "type": "address"
        }
      ],
      "stateMutability": "view",
      "type": "function",
      "constant": true
    },
    {
      "inputs": [
        {
          "internalType": "bytes32",
          "name": "assertionID",
          "type": "bytes32"
        }
      ],
      "name": "getAssertionRootHash",
      "outputs": [
        {
          "internalType": "bytes32",
          "name": "rootHash",
          "type": "bytes32"
        }
      ],
      "stateMutability": "view",
      "type": "function",
      "constant": true
    },
    {
      "inputs": [
        {
          "internalType": "bytes32",
          "name": "assertionID",
          "type": "bytes32"
        }
      ],
      "name": "getAssertionTimeToLive",
      "outputs": [
        {
          "internalType": "uint256",
          "name": "timeToLive",
          "type": "uint256"
        }
      ],
      "stateMutability": "view",
      "type": "function",
      "constant": true
    },
    {
      "inputs": [
        {
          "internalType": "bytes32",
          "name": "assertionID",
          "type": "bytes32"
        }
      ],
      "name": "getAssertionNumberOfEpochs",
      "outputs": [
        {
          "internalType": "uint256",
          "name": "numberOfEpochs",
          "type": "uint256"
        }
      ],
      "stateMutability": "view",
      "type": "function",
      "constant": true
    },
    {
      "inputs": [
        {
          "internalType": "bytes32",
          "name": "assertionID",
          "type": "bytes32"
        },
        {
          "internalType": "uint256",
          "name": "epoch",
          "type": "uint256"
        }
      ],
      "name": "getAssertionTask",
      "outputs": [
        {
          "internalType": "uint256",
          "name": "task",
          "type": "uint256"
        }
      ],
      "stateMutability": "view",
      "type": "function",
      "constant": true
    }
  ],
  "bytecode": "0x60806040523480156200001157600080fd5b50604051620013f4380380620013f4833981810160405281019062000037919062000241565b620000576200004b6200015e60201b60201c565b6200016660201b60201c565b600073ffffffffffffffffffffffffffffffffffffffff168173ffffffffffffffffffffffffffffffffffffffff1614156200009257600080fd5b80600160006101000a81548173ffffffffffffffffffffffffffffffffffffffff021916908373ffffffffffffffffffffffffffffffffffffffff16021790555080600260006101000a81548173ffffffffffffffffffffffffffffffffffffffff021916908373ffffffffffffffffffffffffffffffffffffffff1602179055508073ffffffffffffffffffffffffffffffffffffffff167fd82cad5fdc98633445b90f806f2e1a61a5409f92187ee9cd87f1da18c906926660405160405180910390a250620002bb565b600033905090565b60008060009054906101000a900473ffffffffffffffffffffffffffffffffffffffff169050816000806101000a81548173ffffffffffffffffffffffffffffffffffffffff021916908373ffffffffffffffffffffffffffffffffffffffff1602179055508173ffffffffffffffffffffffffffffffffffffffff168173ffffffffffffffffffffffffffffffffffffffff167f8be0079c531659141344cd1fd0a4f28419497f9722a3daafe3b4186f6b6457e060405160405180910390a35050565b6000815190506200023b81620002a1565b92915050565b6000602082840312156200025457600080fd5b600062000264848285016200022a565b91505092915050565b60006200027a8262000281565b9050919050565b600073ffffffffffffffffffffffffffffffffffffffff82169050919050565b620002ac816200026d565b8114620002b857600080fd5b50565b61112980620002cb6000396000f3fe608060405234801561001057600080fd5b50600436106100b45760003560e01c80638f9cd32b116100715780638f9cd32b146101a15780639e50e72c146101bf578063b934b4e4146101ef578063ce64c6431461021f578063f164c4361461023b578063f2fde38b14610257576100b4565b80630828e9f3146100b957806308c4933b146100e9578063193f9c7e146101195780636988bc0314610149578063715018a6146101795780638da5cb5b14610183575b600080fd5b6100d360048036038101906100ce9190610a3f565b610273565b6040516100e09190610e89565b60405180910390f35b61010360048036038101906100fe9190610b6a565b6102b0565b6040516101109190610ff5565b60405180910390f35b610133600480360381019061012e9190610a68565b6102bb565b6040516101409190610ea4565b60405180910390f35b610163600480360381019061015e9190610a3f565b6102c7565b6040516101709190610ff5565b60405180910390f35b6101816102e7565b005b61018b61036f565b6040516101989190610e89565b60405180910390f35b6101a9610398565b6040516101b69190610e89565b60405180910390f35b6101d960048036038101906101d49190610a3f565b6103be565b6040516101e69190610ff5565b60405180910390f35b61020960048036038101906102049190610a3f565b6103de565b6040516102169190610ebf565b60405180910390f35b61023960048036038101906102349190610b1b565b6103fe565b005b61025560048036038101906102509190610aa4565b61053a565b005b610271600480360381019061026c9190610a16565b610813565b005b60006004600083815260200190815260200160002060009054906101000a900473ffffffffffffffffffffffffffffffffffffffff169050919050565b600043905092915050565b60006001905092915050565b600060036000838152602001908152602001600020600001549050919050565b6102ef61090b565b73ffffffffffffffffffffffffffffffffffffffff1661030d61036f565b73ffffffffffffffffffffffffffffffffffffffff1614610363576040517f08c379a000000000000000000000000000000000000000000000000000000000815260040161035a90610fb5565b60405180910390fd5b61036d6000610913565b565b60008060009054906101000a900473ffffffffffffffffffffffffffffffffffffffff16905090565b600260009054906101000a900473ffffffffffffffffffffffffffffffffffffffff1681565b600060036000838152602001908152602001600020600101549050919050565b600060036000838152602001908152602001600020600401549050919050565b6000801b831415610444576040517f08c379a000000000000000000000000000000000000000000000000000000000815260040161043b90610f95565b60405180910390fd5b6000801b82141561048a576040517f08c379a000000000000000000000000000000000000000000000000000000000815260040161048190610f55565b60405180910390fd5b61049483836102bb565b156104ef57803373ffffffffffffffffffffffffffffffffffffffff16847fce001fcd900079c312eaa96f5c1c389ffe207eb41e90197f5a011668b58ef598607b6040516104e29190610eda565b60405180910390a4610535565b803373ffffffffffffffffffffffffffffffffffffffff16847f37d4188105d31e43e2177257c4e9cc2c8eda5c0783943eb00abe942ac687b03a60405160405180910390a45b505050565b6000801b851415610580576040517f08c379a000000000000000000000000000000000000000000000000000000000815260040161057790610f95565b60405180910390fd5b6000801b8414156105c6576040517f08c379a00000000000000000000000000000000000000000000000000000000081526004016105bd90610f15565b60405180910390fd5b600082141561060a576040517f08c379a000000000000000000000000000000000000000000000000000000000815260040161060190610fd5565b60405180910390fd5b600081141561064e576040517f08c379a000000000000000000000000000000000000000000000000000000000815260040161064590610ef5565b60405180910390fd5b60006003600087815260200190815260200160002060020154146106a7576040517f08c379a000000000000000000000000000000000000000000000000000000000815260040161069e90610f75565b60405180910390fd5b816003600087815260200190815260200160002060010181905550806003600087815260200190815260200160002060000181905550426003600087815260200190815260200160002060020181905550836003600087815260200190815260200160002060040181905550826003600087815260200190815260200160002060030160006101000a81548173ffffffffffffffffffffffffffffffffffffffff021916908373ffffffffffffffffffffffffffffffffffffffff160217905550826004600087815260200190815260200160002060006101000a81548173ffffffffffffffffffffffffffffffffffffffff021916908373ffffffffffffffffffffffffffffffffffffffff1602179055508273ffffffffffffffffffffffffffffffffffffffff1684867f25e2604032d2f5a218a9bed084fc10fd98b83e3b86a79ba39c214095984250168585604051610804929190611010565b60405180910390a45050505050565b61081b61090b565b73ffffffffffffffffffffffffffffffffffffffff1661083961036f565b73ffffffffffffffffffffffffffffffffffffffff161461088f576040517f08c379a000000000000000000000000000000000000000000000000000000000815260040161088690610fb5565b60405180910390fd5b600073ffffffffffffffffffffffffffffffffffffffff168173ffffffffffffffffffffffffffffffffffffffff1614156108ff576040517f08c379a00000000000000000000000000000000000000000000000000000000081526004016108f690610f35565b60405180910390fd5b61090881610913565b50565b600033905090565b60008060009054906101000a900473ffffffffffffffffffffffffffffffffffffffff169050816000806101000a81548173ffffffffffffffffffffffffffffffffffffffff021916908373ffffffffffffffffffffffffffffffffffffffff1602179055508173ffffffffffffffffffffffffffffffffffffffff168173ffffffffffffffffffffffffffffffffffffffff167f8be0079c531659141344cd1fd0a4f28419497f9722a3daafe3b4186f6b6457e060405160405180910390a35050565b6000813590506109e6816110ae565b92915050565b6000813590506109fb816110c5565b92915050565b600081359050610a10816110dc565b92915050565b600060208284031215610a2857600080fd5b6000610a36848285016109d7565b91505092915050565b600060208284031215610a5157600080fd5b6000610a5f848285016109ec565b91505092915050565b60008060408385031215610a7b57600080fd5b6000610a89858286016109ec565b9250506020610a9a858286016109ec565b9150509250929050565b600080600080600060a08688031215610abc57600080fd5b6000610aca888289016109ec565b9550506020610adb888289016109ec565b9450506040610aec888289016109d7565b9350506060610afd88828901610a01565b9250506080610b0e88828901610a01565b9150509295509295909350565b600080600060608486031215610b3057600080fd5b6000610b3e868287016109ec565b9350506020610b4f868287016109ec565b9250506040610b6086828701610a01565b9150509250925092565b60008060408385031215610b7d57600080fd5b6000610b8b858286016109ec565b9250506020610b9c85828601610a01565b9150509250929050565b610baf8161104a565b82525050565b610bbe8161105c565b82525050565b610bcd81611068565b82525050565b610bdc8161109c565b82525050565b6000610bef602783611039565b91507f617373657274696f6e54696d65546f4c69766520686173682063616e6e6f742060008301527f6265207a65726f000000000000000000000000000000000000000000000000006020830152604082019050919050565b6000610c55601c83611039565b91507f726f6f744861736820686173682063616e6e6f74206265207a65726f000000006000830152602082019050919050565b6000610c95602683611039565b91507f4f776e61626c653a206e6577206f776e657220697320746865207a65726f206160008301527f64647265737300000000000000000000000000000000000000000000000000006020830152604082019050919050565b6000610cfb602783611039565b91507f65706f6368417373657274696f6e50726f6f6620686173682063616e6e6f742060008301527f6265207a65726f000000000000000000000000000000000000000000000000006020830152604082019050919050565b6000610d61601983611039565b91507f417373657274696f6e20616c72656164792065786973747321000000000000006000830152602082019050919050565b6000610da1601f83611039565b91507f617373657274696f6e494420686173682063616e6e6f74206265207a65726f006000830152602082019050919050565b6000610de1602083611039565b91507f4f776e61626c653a2063616c6c6572206973206e6f7420746865206f776e65726000830152602082019050919050565b6000610e21602283611039565b91507f6e756d6265724f6645706f63687320686173682063616e6e6f74206265207a6560008301527f726f0000000000000000000000000000000000000000000000000000000000006020830152604082019050919050565b610e8381611092565b82525050565b6000602082019050610e9e6000830184610ba6565b92915050565b6000602082019050610eb96000830184610bb5565b92915050565b6000602082019050610ed46000830184610bc4565b92915050565b6000602082019050610eef6000830184610bd3565b92915050565b60006020820190508181036000830152610f0e81610be2565b9050919050565b60006020820190508181036000830152610f2e81610c48565b9050919050565b60006020820190508181036000830152610f4e81610c88565b9050919050565b60006020820190508181036000830152610f6e81610cee565b9050919050565b60006020820190508181036000830152610f8e81610d54565b9050919050565b60006020820190508181036000830152610fae81610d94565b9050919050565b60006020820190508181036000830152610fce81610dd4565b9050919050565b60006020820190508181036000830152610fee81610e14565b9050919050565b600060208201905061100a6000830184610e7a565b92915050565b60006040820190506110256000830185610e7a565b6110326020830184610e7a565b9392505050565b600082825260208201905092915050565b600061105582611072565b9050919050565b60008115159050919050565b6000819050919050565b600073ffffffffffffffffffffffffffffffffffffffff82169050919050565b6000819050919050565b60006110a782611092565b9050919050565b6110b78161104a565b81146110c257600080fd5b50565b6110ce81611068565b81146110d957600080fd5b50565b6110e581611092565b81146110f057600080fd5b5056fea2646970667358221220243b4b8cfb8cd340ecb5ae2e67662adb287c7c6dc24a5601eeb9c7166960aff264736f6c63430008000033",
  "immutableReferences": {},
  "source": "// SPDX-License-Identifier: UNLICENSED\npragma solidity ^0.8.0;\n\nimport \"openzeppelin-solidity/contracts/token/ERC20/IERC20.sol\";\nimport \"openzeppelin-solidity/contracts/utils/math/SafeMath.sol\";\nimport \"openzeppelin-solidity/contracts/access/Ownable.sol\";\n\n\n// mock contract for now, we will add the hub and the rest later\ncontract DKGcontract is Ownable {\n\n\n\tusing SafeMath for uint256;\n\tIERC20 token;\n\n\taddress public TRAC_TOKEN_ADDRESS;\n\n\tstruct AssertionRecord{\n\t\t// bytes32 assertionID; // hash (multihash) of the assertion\n\t\tuint256 assertionTimeToLive;\n\t\tuint256 numberOfEpochs;\n\t\tuint256 creationTime;\n\t\taddress issuer;\n\t\tbytes32 rootHash;\n\t\tbytes32 data; // for extensibility\n\t\t// TODO: include Token management\n\t}\n\n\tmapping(bytes32 => AssertionRecord) internal assertionRecord; // assertionRecord[assertionID] , formerly offer[offerID]\n\tmapping(bytes32 => address) internal assertionIssuer; // mapping assertionID -> assertionIssuer\n\n\n\t// events\n\tevent TokenAddressSet(address indexed token);\n\tevent AssertionCreated(bytes32 indexed assertionID, bytes32 indexed rootHash, address indexed assertionIssuer, uint256 numberOfEpochs, uint256 assertionTimeToLive);\n\tevent TokensCollected(bytes32 indexed assertionID, address indexed prover, uint256 indexed epoch, uint256 amount);\n\tevent VerificationFailed(bytes32 indexed assertionID, address indexed prover, uint256 indexed epoch);\n\n\n\n\tconstructor(address token_address)  public {\n\t\trequire(token_address!=address(0));\n\t\ttoken = IERC20(token_address);\n\t\tTRAC_TOKEN_ADDRESS = token_address;\n\t\t\n\t\temit TokenAddressSet(token_address);\n\n\t}\n\n\t/* DC */\n\tfunction createAssertionRecord(bytes32 assertionID, bytes32 rootHash, address issuer, uint256 numberOfEpochs, uint256 assertionTimeToLive) public {\n\t\trequire(assertionID != 0, \"assertionID hash cannot be zero\");\n\t\trequire(rootHash != 0, \"rootHash hash cannot be zero\");\n\t\trequire(numberOfEpochs != 0, \"numberOfEpochs hash cannot be zero\");\n\t\trequire(assertionTimeToLive != 0, \"assertionTimeToLive hash cannot be zero\");\n\t\trequire(assertionRecord[assertionID].creationTime==0, \"Assertion already exists!\");\n\n\t\t// transfer token to contract here (next version)\n\n\t\tassertionRecord[assertionID].numberOfEpochs = numberOfEpochs;\n\t\tassertionRecord[assertionID].assertionTimeToLive = assertionTimeToLive;\n\t\tassertionRecord[assertionID].creationTime = block.timestamp;\n\t\tassertionRecord[assertionID].rootHash = rootHash;\n\t\tassertionRecord[assertionID].issuer = issuer;\n\t\tassertionIssuer[assertionID] = issuer;\n\n\t\temit AssertionCreated(assertionID,rootHash,issuer,numberOfEpochs,assertionTimeToLive);\n\t}\n\n\n\t/* DH */\n\n\tfunction submitHoldingProof(bytes32 assertionID, bytes32 epochAssertionProof, uint256 epochNumber) \n\tpublic {\n\t\trequire(assertionID != 0, \"assertionID hash cannot be zero\");\n\t\trequire(epochAssertionProof != 0, \"epochAssertionProof hash cannot be zero\");\n\n\t\tif (verifyAssertionProof(assertionID, epochAssertionProof)){\n\t\t\temit TokensCollected(assertionID,msg.sender,epochNumber, 123);\n\t\t\t} else {\n\t\t\t\temit VerificationFailed(assertionID,msg.sender,epochNumber);\n\t\t\t}\n\n\t}\n\n\n\n\tfunction verifyAssertionProof(bytes32 assertionID, bytes32 epochAssertionProof) \n\t\tpublic returns(bool proofValid){\n\t\treturn true;\n\n\t}\n\n\n\n\tfunction getAssertionIssuer(bytes32 assertionID)\n\tpublic view returns(address creator){\n\t\treturn assertionIssuer[assertionID];\n\t}\n\tfunction getAssertionRootHash(bytes32 assertionID)\n\tpublic view returns(bytes32 rootHash){\n\t\treturn assertionRecord[assertionID].rootHash;\n\t}\n\tfunction getAssertionTimeToLive(bytes32 assertionID)\n\tpublic view returns(uint256 timeToLive){\n\t\treturn assertionRecord[assertionID].assertionTimeToLive;\n\t}\n\tfunction getAssertionNumberOfEpochs(bytes32 assertionID)\n\tpublic view returns(uint256 numberOfEpochs){\n\t\treturn assertionRecord[assertionID].numberOfEpochs;\n\t}\n\n\tfunction getAssertionTask(bytes32 assertionID, uint256 epoch)\n\tpublic view returns(uint256 task){\n\t\treturn block.number;\n\t}\n\n}",
  "sourcePath": "/Users/max/IdeaProjects/dkg-onchain-module-v6/contracts/DKGcontract.sol",
  "compiler": {
    "name": "solc",
    "version": "0.8.0+commit.c7dfd78e.Emscripten.clang"
  },
  "schemaVersion": "3.4.3",
  "updatedAt": "2022-05-08T13:26:06.984Z",
  "networkType": "ethereum",
  "devdoc": {
    "kind": "dev",
    "methods": {
      "owner()": {
        "details": "Returns the address of the current owner."
      },
      "renounceOwnership()": {
        "details": "Leaves the contract without owner. It will not be possible to call `onlyOwner` functions anymore. Can only be called by the current owner. NOTE: Renouncing ownership will leave the contract without an owner, thereby removing any functionality that is only available to the owner."
      },
      "transferOwnership(address)": {
        "details": "Transfers ownership of the contract to a new account (`newOwner`). Can only be called by the current owner."
      }
    },
    "version": 1
  },
  "userdoc": {
    "kind": "user",
    "methods": {},
    "version": 1
  }
}