{
  "contractName": "Hub",
  "abi": [
    {
      "anonymous": false,
      "inputs": [],
      "name": "ContractsChanged",
      "type": "event"
    },
    {
      "anonymous": false,
      "inputs": [
        {
          "indexed": true,
          "internalType": "address",
          "name": "previousOwner",
          "type": "address"
        },
        {
          "indexed": true,
          "internalType": "address",
          "name": "newOwner",
          "type": "address"
        }
      ],
      "name": "OwnershipTransferred",
      "type": "event"
    },
    {
      "inputs": [],
      "name": "owner",
      "outputs": [
        {
          "internalType": "address",
          "name": "",
          "type": "address"
        }
      ],
      "stateMutability": "view",
      "type": "function",
      "constant": true
    },
    {
      "inputs": [],
      "name": "renounceOwnership",
      "outputs": [],
      "stateMutability": "nonpayable",
      "type": "function"
    },
    {
      "inputs": [
        {
          "internalType": "address",
          "name": "newOwner",
          "type": "address"
        }
      ],
      "name": "transferOwnership",
      "outputs": [],
      "stateMutability": "nonpayable",
      "type": "function"
    },
    {
      "inputs": [
        {
          "internalType": "string",
          "name": "contractName",
          "type": "string"
        },
        {
          "internalType": "address",
          "name": "newContractAddress",
          "type": "address"
        }
      ],
      "name": "setContractAddress",
      "outputs": [],
      "stateMutability": "nonpayable",
      "type": "function"
    },
    {
      "inputs": [
        {
          "internalType": "string",
          "name": "contractName",
          "type": "string"
        }
      ],
      "name": "getContractAddress",
      "outputs": [
        {
          "internalType": "address",
          "name": "selectedContractAddress",
          "type": "address"
        }
      ],
      "stateMutability": "view",
      "type": "function",
      "constant": true
    },
    {
      "inputs": [
        {
          "internalType": "address",
          "name": "selectedContractAddress",
          "type": "address"
        }
      ],
      "name": "isContract",
      "outputs": [
        {
          "internalType": "bool",
          "name": "",
          "type": "bool"
        }
      ],
      "stateMutability": "view",
      "type": "function",
      "constant": true
    }
  ],
  "bytecode": "0x608060405234801561001057600080fd5b5061002d61002261003260201b60201c565b61003a60201b60201c565b6100fe565b600033905090565b60008060009054906101000a900473ffffffffffffffffffffffffffffffffffffffff169050816000806101000a81548173ffffffffffffffffffffffffffffffffffffffff021916908373ffffffffffffffffffffffffffffffffffffffff1602179055508173ffffffffffffffffffffffffffffffffffffffff168173ffffffffffffffffffffffffffffffffffffffff167f8be0079c531659141344cd1fd0a4f28419497f9722a3daafe3b4186f6b6457e060405160405180910390a35050565b610bc98061010d6000396000f3fe608060405234801561001057600080fd5b50600436106100625760003560e01c806304433bbc146100675780631627905514610097578063534e785c146100c7578063715018a6146100e35780638da5cb5b146100ed578063f2fde38b1461010b575b600080fd5b610081600480360381019061007c9190610863565b610127565b60405161008e91906108ed565b60405180910390f35b6100b160048036038101906100ac9190610934565b61018f565b6040516100be919061097c565b60405180910390f35b6100e160048036038101906100dc9190610997565b6101e5565b005b6100eb610495565b005b6100f561051d565b60405161010291906108ed565b60405180910390f35b61012560048036038101906101209190610934565b610546565b005b6000808260405160200161013b9190610a6d565b6040516020818303038152906040528051906020012090506001600082815260200190815260200160002060009054906101000a900473ffffffffffffffffffffffffffffffffffffffff16915050919050565b6000600260008373ffffffffffffffffffffffffffffffffffffffff1673ffffffffffffffffffffffffffffffffffffffff16815260200190815260200160002060009054906101000a900460ff169050919050565b6101ed61063d565b73ffffffffffffffffffffffffffffffffffffffff1661020b61051d565b73ffffffffffffffffffffffffffffffffffffffff1614610261576040517f08c379a000000000000000000000000000000000000000000000000000000000815260040161025890610ae1565b60405180910390fd5b6000826040516020016102749190610a6d565b604051602081830303815290604052805190602001209050600073ffffffffffffffffffffffffffffffffffffffff166001600083815260200190815260200160002060009054906101000a900473ffffffffffffffffffffffffffffffffffffffff1673ffffffffffffffffffffffffffffffffffffffff16146103855760006001600083815260200190815260200160002060009054906101000a900473ffffffffffffffffffffffffffffffffffffffff1690506000600260008373ffffffffffffffffffffffffffffffffffffffff1673ffffffffffffffffffffffffffffffffffffffff16815260200190815260200160002060006101000a81548160ff021916908315150217905550505b816001600083815260200190815260200160002060006101000a81548173ffffffffffffffffffffffffffffffffffffffff021916908373ffffffffffffffffffffffffffffffffffffffff160217905550600073ffffffffffffffffffffffffffffffffffffffff168273ffffffffffffffffffffffffffffffffffffffff1614610464576001600260008473ffffffffffffffffffffffffffffffffffffffff1673ffffffffffffffffffffffffffffffffffffffff16815260200190815260200160002060006101000a81548160ff0219169083151502179055505b7f28914ac9a6b0dbfdb15f37605b815f088e8ceac8029c476e7917be779ecb9b1a60405160405180910390a1505050565b61049d61063d565b73ffffffffffffffffffffffffffffffffffffffff166104bb61051d565b73ffffffffffffffffffffffffffffffffffffffff1614610511576040517f08c379a000000000000000000000000000000000000000000000000000000000815260040161050890610ae1565b60405180910390fd5b61051b6000610645565b565b60008060009054906101000a900473ffffffffffffffffffffffffffffffffffffffff16905090565b61054e61063d565b73ffffffffffffffffffffffffffffffffffffffff1661056c61051d565b73ffffffffffffffffffffffffffffffffffffffff16146105c2576040517f08c379a00000000000000000000000000000000000000000000000000000000081526004016105b990610ae1565b60405180910390fd5b600073ffffffffffffffffffffffffffffffffffffffff168173ffffffffffffffffffffffffffffffffffffffff1603610631576040517f08c379a000000000000000000000000000000000000000000000000000000000815260040161062890610b73565b60405180910390fd5b61063a81610645565b50565b600033905090565b60008060009054906101000a900473ffffffffffffffffffffffffffffffffffffffff169050816000806101000a81548173ffffffffffffffffffffffffffffffffffffffff021916908373ffffffffffffffffffffffffffffffffffffffff1602179055508173ffffffffffffffffffffffffffffffffffffffff168173ffffffffffffffffffffffffffffffffffffffff167f8be0079c531659141344cd1fd0a4f28419497f9722a3daafe3b4186f6b6457e060405160405180910390a35050565b6000604051905090565b600080fd5b600080fd5b600080fd5b600080fd5b6000601f19601f8301169050919050565b7f4e487b7100000000000000000000000000000000000000000000000000000000600052604160045260246000fd5b61077082610727565b810181811067ffffffffffffffff8211171561078f5761078e610738565b5b80604052505050565b60006107a2610709565b90506107ae8282610767565b919050565b600067ffffffffffffffff8211156107ce576107cd610738565b5b6107d782610727565b9050602081019050919050565b82818337600083830152505050565b6000610806610801846107b3565b610798565b90508281526020810184848401111561082257610821610722565b5b61082d8482856107e4565b509392505050565b600082601f83011261084a5761084961071d565b5b813561085a8482602086016107f3565b91505092915050565b60006020828403121561087957610878610713565b5b600082013567ffffffffffffffff81111561089757610896610718565b5b6108a384828501610835565b91505092915050565b600073ffffffffffffffffffffffffffffffffffffffff82169050919050565b60006108d7826108ac565b9050919050565b6108e7816108cc565b82525050565b600060208201905061090260008301846108de565b92915050565b610911816108cc565b811461091c57600080fd5b50565b60008135905061092e81610908565b92915050565b60006020828403121561094a57610949610713565b5b60006109588482850161091f565b91505092915050565b60008115159050919050565b61097681610961565b82525050565b6000602082019050610991600083018461096d565b92915050565b600080604083850312156109ae576109ad610713565b5b600083013567ffffffffffffffff8111156109cc576109cb610718565b5b6109d885828601610835565b92505060206109e98582860161091f565b9150509250929050565b600081519050919050565b600081905092915050565b60005b83811015610a27578082015181840152602081019050610a0c565b83811115610a36576000848401525b50505050565b6000610a47826109f3565b610a5181856109fe565b9350610a61818560208601610a09565b80840191505092915050565b6000610a798284610a3c565b915081905092915050565b600082825260208201905092915050565b7f4f776e61626c653a2063616c6c6572206973206e6f7420746865206f776e6572600082015250565b6000610acb602083610a84565b9150610ad682610a95565b602082019050919050565b60006020820190508181036000830152610afa81610abe565b9050919050565b7f4f776e61626c653a206e6577206f776e657220697320746865207a65726f206160008201527f6464726573730000000000000000000000000000000000000000000000000000602082015250565b6000610b5d602683610a84565b9150610b6882610b01565b604082019050919050565b60006020820190508181036000830152610b8c81610b50565b905091905056fea26469706673582212205e3c649646cb86cee850522dc67148945090e39c904941a4e8e4c67eb2d3ed1c64736f6c634300080e0033",
  "immutableReferences": {},
  "source": "// SPDX-License-Identifier: MIT\n\npragma solidity ^0.8.0;\n\nimport \"@openzeppelin/contracts/access/Ownable.sol\";\n\ncontract Hub is Ownable{\n    mapping(bytes32 => address) contractAddress;\n    mapping(address => bool) contractList;\n\n    event ContractsChanged();\n\n    function setContractAddress(string memory contractName, address newContractAddress)\n    public onlyOwner {\n        bytes32 index = keccak256(abi.encodePacked(contractName));\n\n        if(contractAddress[index] != address(0)) {\n            address oldContractAddress = contractAddress[index];\n            contractList[oldContractAddress] = false;\n        }\n        contractAddress[index] = newContractAddress;\n\n        if(newContractAddress != address(0)){\n            contractList[newContractAddress] = true;\n        }\n\n        emit ContractsChanged();\n    }\n\n    function getContractAddress(string memory contractName)  public view returns(address selectedContractAddress) {\n        bytes32 index = keccak256(abi.encodePacked(contractName));\n        return contractAddress[index];\n    }\n    \n    function isContract(address selectedContractAddress) public view returns (bool) {\n        return contractList[selectedContractAddress];\n    }\n}\n\n",
  "sourcePath": "/Users/max/IdeaProjects/dkg-onchain-module-v6/contracts/Hub.sol",
  "compiler": {
    "name": "solc",
    "version": "0.8.14+commit.80d49f37.Emscripten.clang"
  },
  "schemaVersion": "3.4.3",
  "updatedAt": "2022-08-02T08:02:36.374Z",
  "networkType": "ethereum",
  "devdoc": {
    "kind": "dev",
    "methods": {
      "owner()": {
        "details": "Returns the address of the current owner."
      },
      "renounceOwnership()": {
        "details": "Leaves the contract without owner. It will not be possible to call `onlyOwner` functions anymore. Can only be called by the current owner. NOTE: Renouncing ownership will leave the contract without an owner, thereby removing any functionality that is only available to the owner."
      },
      "transferOwnership(address)": {
        "details": "Transfers ownership of the contract to a new account (`newOwner`). Can only be called by the current owner."
      }
    },
    "version": 1
  },
  "userdoc": {
    "kind": "user",
    "methods": {},
    "version": 1
  }
}