{
  "contractName": "AssertionRegistry",
  "abi": [
    {
      "inputs": [
        {
          "internalType": "address",
          "name": "hubAddress",
          "type": "address"
        }
      ],
      "stateMutability": "nonpayable",
      "type": "constructor"
    },
    {
      "anonymous": false,
      "inputs": [
        {
          "indexed": true,
          "internalType": "bytes32",
          "name": "assertionId",
          "type": "bytes32"
        },
        {
          "indexed": true,
          "internalType": "address",
          "name": "assertionIssuer",
          "type": "address"
        },
        {
          "indexed": false,
          "internalType": "uint256",
          "name": "numberOfEpochs",
          "type": "uint256"
        }
      ],
      "name": "AssertionCreated",
      "type": "event"
    },
    {
      "anonymous": false,
      "inputs": [
        {
          "indexed": true,
          "internalType": "address",
          "name": "previousOwner",
          "type": "address"
        },
        {
          "indexed": true,
          "internalType": "address",
          "name": "newOwner",
          "type": "address"
        }
      ],
      "name": "OwnershipTransferred",
      "type": "event"
    },
    {
      "inputs": [],
      "name": "TRAC_TOKEN_ADDRESS",
      "outputs": [
        {
          "internalType": "address",
          "name": "",
          "type": "address"
        }
      ],
      "stateMutability": "view",
      "type": "function",
      "constant": true
    },
    {
      "inputs": [],
      "name": "hub",
      "outputs": [
        {
          "internalType": "contract Hub",
          "name": "",
          "type": "address"
        }
      ],
      "stateMutability": "view",
      "type": "function",
      "constant": true
    },
    {
      "inputs": [],
      "name": "owner",
      "outputs": [
        {
          "internalType": "address",
          "name": "",
          "type": "address"
        }
      ],
      "stateMutability": "view",
      "type": "function",
      "constant": true
    },
    {
      "inputs": [],
      "name": "renounceOwnership",
      "outputs": [],
      "stateMutability": "nonpayable",
      "type": "function"
    },
    {
      "inputs": [
        {
          "internalType": "address",
          "name": "newOwner",
          "type": "address"
        }
      ],
      "name": "transferOwnership",
      "outputs": [],
      "stateMutability": "nonpayable",
      "type": "function"
    },
    {
      "inputs": [
        {
          "internalType": "bytes32",
          "name": "assertionId",
          "type": "bytes32"
        },
        {
          "internalType": "address",
          "name": "issuer",
          "type": "address"
        },
        {
          "internalType": "uint256",
          "name": "numberOfEpochs",
          "type": "uint256"
        },
        {
          "internalType": "bytes32",
          "name": "signature",
          "type": "bytes32"
        }
      ],
      "name": "createAssertionRecord",
      "outputs": [],
      "stateMutability": "nonpayable",
      "type": "function"
    },
    {
      "inputs": [
        {
          "internalType": "bytes32",
          "name": "assertionId",
          "type": "bytes32"
        }
      ],
      "name": "getAssertionIssuer",
      "outputs": [
        {
          "internalType": "address",
          "name": "issuer",
          "type": "address"
        }
      ],
      "stateMutability": "view",
      "type": "function",
      "constant": true
    },
    {
      "inputs": [
        {
          "internalType": "bytes32",
          "name": "assertionId",
          "type": "bytes32"
        }
      ],
      "name": "getAssertionNumberOfEpochs",
      "outputs": [
        {
          "internalType": "uint256",
          "name": "numberOfEpochs",
          "type": "uint256"
        }
      ],
      "stateMutability": "view",
      "type": "function",
      "constant": true
    },
    {
      "inputs": [
        {
          "internalType": "bytes32",
          "name": "assertionId",
          "type": "bytes32"
        }
      ],
      "name": "getAssertionCreationTimestamp",
      "outputs": [
        {
          "internalType": "uint256",
          "name": "numberOfEpochs",
          "type": "uint256"
        }
      ],
      "stateMutability": "view",
      "type": "function",
      "constant": true
    }
  ],
  "bytecode": "0x60806040523480156200001157600080fd5b5060405162000e3e38038062000e3e83398181016040528101906200003791906200020f565b620000576200004b620000d960201b60201c565b620000e160201b60201c565b600073ffffffffffffffffffffffffffffffffffffffff168173ffffffffffffffffffffffffffffffffffffffff16036200009157600080fd5b80600160006101000a81548173ffffffffffffffffffffffffffffffffffffffff021916908373ffffffffffffffffffffffffffffffffffffffff1602179055505062000241565b600033905090565b60008060009054906101000a900473ffffffffffffffffffffffffffffffffffffffff169050816000806101000a81548173ffffffffffffffffffffffffffffffffffffffff021916908373ffffffffffffffffffffffffffffffffffffffff1602179055508173ffffffffffffffffffffffffffffffffffffffff168173ffffffffffffffffffffffffffffffffffffffff167f8be0079c531659141344cd1fd0a4f28419497f9722a3daafe3b4186f6b6457e060405160405180910390a35050565b600080fd5b600073ffffffffffffffffffffffffffffffffffffffff82169050919050565b6000620001d782620001aa565b9050919050565b620001e981620001ca565b8114620001f557600080fd5b50565b6000815190506200020981620001de565b92915050565b600060208284031215620002285762000227620001a5565b5b60006200023884828501620001f8565b91505092915050565b610bed80620002516000396000f3fe608060405234801561001057600080fd5b50600436106100935760003560e01c80638f9cd32b116100665780638f9cd32b1461010e5780639e50e72c1461012c578063a7943efc1461015c578063f2fde38b1461018c578063f52f138a146101a857610093565b80630828e9f314610098578063365a86fc146100c8578063715018a6146100e65780638da5cb5b146100f0575b600080fd5b6100b260048036038101906100ad919061071b565b6101c4565b6040516100bf9190610789565b60405180910390f35b6100d0610204565b6040516100dd9190610803565b60405180910390f35b6100ee61022a565b005b6100f86102b2565b6040516101059190610789565b60405180910390f35b6101166102db565b6040516101239190610789565b60405180910390f35b6101466004803603810190610141919061071b565b610301565b6040516101539190610837565b60405180910390f35b6101766004803603810190610171919061071b565b610321565b6040516101839190610837565b60405180910390f35b6101a660048036038101906101a1919061087e565b610341565b005b6101c260048036038101906101bd91906108d7565b610438565b005b60006004600083815260200190815260200160002060020160009054906101000a900473ffffffffffffffffffffffffffffffffffffffff169050919050565b600160009054906101000a900473ffffffffffffffffffffffffffffffffffffffff1681565b610232610614565b73ffffffffffffffffffffffffffffffffffffffff166102506102b2565b73ffffffffffffffffffffffffffffffffffffffff16146102a6576040517f08c379a000000000000000000000000000000000000000000000000000000000815260040161029d9061099b565b60405180910390fd5b6102b0600061061c565b565b60008060009054906101000a900473ffffffffffffffffffffffffffffffffffffffff16905090565b600360009054906101000a900473ffffffffffffffffffffffffffffffffffffffff1681565b600060046000838152602001908152602001600020600001549050919050565b600060046000838152602001908152602001600020600101549050919050565b610349610614565b73ffffffffffffffffffffffffffffffffffffffff166103676102b2565b73ffffffffffffffffffffffffffffffffffffffff16146103bd576040517f08c379a00000000000000000000000000000000000000000000000000000000081526004016103b49061099b565b60405180910390fd5b600073ffffffffffffffffffffffffffffffffffffffff168173ffffffffffffffffffffffffffffffffffffffff160361042c576040517f08c379a000000000000000000000000000000000000000000000000000000000815260040161042390610a2d565b60405180910390fd5b6104358161061c565b50565b6000801b840361047d576040517f08c379a000000000000000000000000000000000000000000000000000000000815260040161047490610a99565b60405180910390fd5b600082036104c0576040517f08c379a00000000000000000000000000000000000000000000000000000000081526004016104b790610b2b565b60405180910390fd5b6000600460008681526020019081526020016000206001015414610519576040517f08c379a000000000000000000000000000000000000000000000000000000000815260040161051090610b97565b60405180910390fd5b426004600086815260200190815260200160002060010181905550826004600086815260200190815260200160002060020160006101000a81548173ffffffffffffffffffffffffffffffffffffffff021916908373ffffffffffffffffffffffffffffffffffffffff1602179055508160046000868152602001908152602001600020600001819055508060046000868152602001908152602001600020600301819055508273ffffffffffffffffffffffffffffffffffffffff16847f15a8c334a100ee764c8aa7e728c35c591343fe7a34edeb0e8688e9cc3cc501ea846040516106069190610837565b60405180910390a350505050565b600033905090565b60008060009054906101000a900473ffffffffffffffffffffffffffffffffffffffff169050816000806101000a81548173ffffffffffffffffffffffffffffffffffffffff021916908373ffffffffffffffffffffffffffffffffffffffff1602179055508173ffffffffffffffffffffffffffffffffffffffff168173ffffffffffffffffffffffffffffffffffffffff167f8be0079c531659141344cd1fd0a4f28419497f9722a3daafe3b4186f6b6457e060405160405180910390a35050565b600080fd5b6000819050919050565b6106f8816106e5565b811461070357600080fd5b50565b600081359050610715816106ef565b92915050565b600060208284031215610731576107306106e0565b5b600061073f84828501610706565b91505092915050565b600073ffffffffffffffffffffffffffffffffffffffff82169050919050565b600061077382610748565b9050919050565b61078381610768565b82525050565b600060208201905061079e600083018461077a565b92915050565b6000819050919050565b60006107c96107c46107bf84610748565b6107a4565b610748565b9050919050565b60006107db826107ae565b9050919050565b60006107ed826107d0565b9050919050565b6107fd816107e2565b82525050565b600060208201905061081860008301846107f4565b92915050565b6000819050919050565b6108318161081e565b82525050565b600060208201905061084c6000830184610828565b92915050565b61085b81610768565b811461086657600080fd5b50565b60008135905061087881610852565b92915050565b600060208284031215610894576108936106e0565b5b60006108a284828501610869565b91505092915050565b6108b48161081e565b81146108bf57600080fd5b50565b6000813590506108d1816108ab565b92915050565b600080600080608085870312156108f1576108f06106e0565b5b60006108ff87828801610706565b945050602061091087828801610869565b9350506040610921878288016108c2565b925050606061093287828801610706565b91505092959194509250565b600082825260208201905092915050565b7f4f776e61626c653a2063616c6c6572206973206e6f7420746865206f776e6572600082015250565b600061098560208361093e565b91506109908261094f565b602082019050919050565b600060208201905081810360008301526109b481610978565b9050919050565b7f4f776e61626c653a206e6577206f776e657220697320746865207a65726f206160008201527f6464726573730000000000000000000000000000000000000000000000000000602082015250565b6000610a1760268361093e565b9150610a22826109bb565b604082019050919050565b60006020820190508181036000830152610a4681610a0a565b9050919050565b7f617373657274696f6e494420686173682063616e6e6f74206265207a65726f00600082015250565b6000610a83601f8361093e565b9150610a8e82610a4d565b602082019050919050565b60006020820190508181036000830152610ab281610a76565b9050919050565b7f6e756d6265724f6645706f63687320686173682063616e6e6f74206265207a6560008201527f726f000000000000000000000000000000000000000000000000000000000000602082015250565b6000610b1560228361093e565b9150610b2082610ab9565b604082019050919050565b60006020820190508181036000830152610b4481610b08565b9050919050565b7f417373657274696f6e20616c7265616479206578697374732100000000000000600082015250565b6000610b8160198361093e565b9150610b8c82610b4b565b602082019050919050565b60006020820190508181036000830152610bb081610b74565b905091905056fea264697066735822122002ebbc09f0dac6ce6e2c37e7d994a7e8d557f627e1822d0f4bbebc5c52ae3f5f64736f6c634300080e0033",
  "immutableReferences": {},
  "source": "// SPDX-License-Identifier: MIT\n\npragma solidity ^0.8.0;\n\nimport \"@openzeppelin/contracts/token/ERC20/IERC20.sol\";\nimport \"@openzeppelin/contracts/access/Ownable.sol\";\nimport \"./Hub.sol\";\n\n\ncontract AssertionRegistry is Ownable {\n\tHub public hub;\n\tIERC20 token;\n\n\taddress public TRAC_TOKEN_ADDRESS;\n\n\tstruct AssertionRecord{\n\t\tuint256 numberOfEpochs;\n\t\tuint256 creationTimestamp;\n\t\taddress issuer;\n\t\tbytes32 signature;\n\t\tbytes32 data; // for extensibility\n\t\t// TODO: include Token management\n\t}\n\n\tmapping(bytes32 => AssertionRecord) internal assertionRecords;\n\n\t// events\n\tevent AssertionCreated(bytes32 indexed assertionId, address indexed assertionIssuer, uint256 numberOfEpochs);\n//\tevent TokensCollected(bytes32 indexed assertionId, address indexed prover, uint256 indexed epoch, uint256 amount);\n//\tevent VerificationFailed(bytes32 indexed assertionId, address indexed prover, uint256 indexed epoch);\n\n\tconstructor(address hubAddress) {\n\t\trequire(hubAddress != address(0));\n\t\thub = Hub(hubAddress);\n\t}\n\n\t/* Sender */\n\tfunction createAssertionRecord(bytes32 assertionId, address issuer, uint256 numberOfEpochs, bytes32 signature) public {\n\t\trequire(assertionId != 0, \"assertionID hash cannot be zero\");\n\t\trequire(numberOfEpochs != 0, \"numberOfEpochs hash cannot be zero\");\n\t\trequire(assertionRecords[assertionId].creationTimestamp == 0, \"Assertion already exists!\");\n\n\t\tassertionRecords[assertionId].creationTimestamp = block.timestamp;\n\t\tassertionRecords[assertionId].issuer = issuer;\n\t\tassertionRecords[assertionId].numberOfEpochs = numberOfEpochs;\n\t\tassertionRecords[assertionId].signature = signature;\n\n\t\temit AssertionCreated(assertionId, issuer, numberOfEpochs);\n\t}\n\n\n\t/* Receiver */\n//\tfunction submitHoldingProof(bytes32 assertionID, bytes32 epochAssertionProof, uint256 epochNumber)\n//\tpublic {\n//\t\trequire(assertionID != 0, \"assertionID hash cannot be zero\");\n//\t\trequire(epochAssertionProof != 0, \"epochAssertionProof hash cannot be zero\");\n//\n//\t\tif (verifyAssertionProof(assertionID, epochAssertionProof)){\n//\t\t\temit TokensCollected(assertionID,msg.sender,epochNumber, 123);\n//\t\t\t} else {\n//\t\t\t\temit VerificationFailed(assertionID,msg.sender,epochNumber);\n//\t\t\t}\n//\n//\t}\n//\n//\tfunction verifyAssertionProof(bytes32 assertionID, bytes32 epochAssertionProof)\n//\t\tpublic returns(bool proofValid){\n//\t\treturn true;\n//\n//\t}\n\n\n\n\tfunction getAssertionIssuer(bytes32 assertionId)\n\tpublic view returns(address issuer){\n\t\treturn assertionRecords[assertionId].issuer;\n\t}\n\tfunction getAssertionNumberOfEpochs(bytes32 assertionId)\n\tpublic view returns(uint256 numberOfEpochs){\n\t\treturn assertionRecords[assertionId].numberOfEpochs;\n\t}\n\tfunction getAssertionCreationTimestamp(bytes32 assertionId)\n\tpublic view returns(uint256 numberOfEpochs){\n\t\treturn assertionRecords[assertionId].creationTimestamp;\n\t}\n\n}",
  "sourcePath": "/Users/miloskotlar/dkg-onchain-module-v6/contracts/AssertionRegistry.sol",
  "compiler": {
    "name": "solc",
    "version": "0.8.14+commit.80d49f37.Emscripten.clang"
  },
  "schemaVersion": "3.4.3",
  "updatedAt": "2022-06-29T08:34:14.335Z",
  "networkType": "ethereum",
  "devdoc": {
    "kind": "dev",
    "methods": {
      "owner()": {
        "details": "Returns the address of the current owner."
      },
      "renounceOwnership()": {
        "details": "Leaves the contract without owner. It will not be possible to call `onlyOwner` functions anymore. Can only be called by the current owner. NOTE: Renouncing ownership will leave the contract without an owner, thereby removing any functionality that is only available to the owner."
      },
      "transferOwnership(address)": {
        "details": "Transfers ownership of the contract to a new account (`newOwner`). Can only be called by the current owner."
      }
    },
    "version": 1
  },
  "userdoc": {
    "kind": "user",
    "methods": {},
    "version": 1
  }
}