{
  "contractName": "AssetRegistry",
  "abi": [
    {
      "inputs": [
        {
          "internalType": "address",
          "name": "hubAddress",
          "type": "address"
        }
      ],
      "stateMutability": "nonpayable",
      "type": "constructor"
    },
    {
      "anonymous": false,
      "inputs": [
        {
          "indexed": true,
          "internalType": "uint256",
          "name": "UAI",
          "type": "uint256"
        },
        {
          "indexed": true,
          "internalType": "bytes32",
          "name": "stateCommitHash",
          "type": "bytes32"
        }
      ],
      "name": "AssetCreated",
      "type": "event"
    },
    {
      "anonymous": false,
      "inputs": [
        {
          "indexed": true,
          "internalType": "uint256",
          "name": "UAI",
          "type": "uint256"
        },
        {
          "indexed": true,
          "internalType": "bytes32",
          "name": "stateCommitHash",
          "type": "bytes32"
        }
      ],
      "name": "AssetUpdated",
      "type": "event"
    },
    {
      "anonymous": false,
      "inputs": [
        {
          "indexed": true,
          "internalType": "address",
          "name": "previousOwner",
          "type": "address"
        },
        {
          "indexed": true,
          "internalType": "address",
          "name": "newOwner",
          "type": "address"
        }
      ],
      "name": "OwnershipTransferred",
      "type": "event"
    },
    {
      "anonymous": false,
      "inputs": [
        {
          "indexed": true,
          "internalType": "bytes32",
          "name": "UAI",
          "type": "bytes32"
        },
        {
          "indexed": true,
          "internalType": "uint256",
          "name": "amount",
          "type": "uint256"
        },
        {
          "indexed": true,
          "internalType": "address",
          "name": "depositor",
          "type": "address"
        }
      ],
      "name": "TokensDepositedToAsset",
      "type": "event"
    },
    {
      "inputs": [
        {
          "internalType": "uint256",
          "name": "",
          "type": "uint256"
        }
      ],
      "name": "assetRecords",
      "outputs": [
        {
          "internalType": "uint256",
          "name": "timestamp",
          "type": "uint256"
        },
        {
          "internalType": "uint256",
          "name": "holdingTimeInYears",
          "type": "uint256"
        },
        {
          "internalType": "uint256",
          "name": "assetStake",
          "type": "uint256"
        },
        {
          "internalType": "uint256",
          "name": "priceLimit",
          "type": "uint256"
        }
      ],
      "stateMutability": "view",
      "type": "function",
      "constant": true
    },
    {
      "inputs": [
        {
          "internalType": "bytes32",
          "name": "",
          "type": "bytes32"
        }
      ],
      "name": "assetStake",
      "outputs": [
        {
          "internalType": "uint256",
          "name": "",
          "type": "uint256"
        }
      ],
      "stateMutability": "view",
      "type": "function",
      "constant": true
    },
    {
      "inputs": [],
      "name": "hub",
      "outputs": [
        {
          "internalType": "contract Hub",
          "name": "",
          "type": "address"
        }
      ],
      "stateMutability": "view",
      "type": "function",
      "constant": true
    },
    {
      "inputs": [],
      "name": "owner",
      "outputs": [
        {
          "internalType": "address",
          "name": "",
          "type": "address"
        }
      ],
      "stateMutability": "view",
      "type": "function",
      "constant": true
    },
    {
      "inputs": [],
      "name": "renounceOwnership",
      "outputs": [],
      "stateMutability": "nonpayable",
      "type": "function"
    },
    {
      "inputs": [
        {
          "internalType": "address",
          "name": "newOwner",
          "type": "address"
        }
      ],
      "name": "transferOwnership",
      "outputs": [],
      "stateMutability": "nonpayable",
      "type": "function"
    },
    {
      "inputs": [
        {
          "internalType": "bytes32",
          "name": "assertionId",
          "type": "bytes32"
        },
        {
          "internalType": "uint256",
          "name": "size",
          "type": "uint256"
        },
        {
          "internalType": "uint256",
          "name": "visibility",
          "type": "uint256"
        },
        {
          "internalType": "uint256",
          "name": "holdingTimeInYears",
          "type": "uint256"
        },
        {
          "internalType": "uint256",
          "name": "tokenAmount",
          "type": "uint256"
        }
      ],
      "name": "createAsset",
      "outputs": [
        {
          "internalType": "uint256",
          "name": "",
          "type": "uint256"
        }
      ],
      "stateMutability": "nonpayable",
      "type": "function"
    },
    {
      "inputs": [
        {
          "internalType": "uint256",
          "name": "UAI",
          "type": "uint256"
        },
        {
          "internalType": "bytes32",
          "name": "assertionId",
          "type": "bytes32"
        },
        {
          "internalType": "uint256",
          "name": "size",
          "type": "uint256"
        },
        {
          "internalType": "uint256",
          "name": "visibility",
          "type": "uint256"
        },
        {
          "internalType": "uint256",
          "name": "tokenAmount",
          "type": "uint256"
        }
      ],
      "name": "updateAsset",
      "outputs": [],
      "stateMutability": "nonpayable",
      "type": "function"
    },
    {
      "inputs": [
        {
          "internalType": "uint256",
          "name": "blockNumber",
          "type": "uint256"
        },
        {
          "internalType": "uint256",
          "name": "numberOfEpochs",
          "type": "uint256"
        },
        {
          "internalType": "uint256",
          "name": "blockTime",
          "type": "uint256"
        },
        {
          "internalType": "uint256",
          "name": "holdingTimeInYears",
          "type": "uint256"
        }
      ],
      "name": "generateEpochs",
      "outputs": [
        {
          "internalType": "uint256[]",
          "name": "",
          "type": "uint256[]"
        }
      ],
      "stateMutability": "pure",
      "type": "function",
      "constant": true
    },
    {
      "inputs": [
        {
          "internalType": "uint256",
          "name": "UAI",
          "type": "uint256"
        },
        {
          "internalType": "uint256",
          "name": "offset",
          "type": "uint256"
        }
      ],
      "name": "getCommitHash",
      "outputs": [
        {
          "internalType": "bytes32",
          "name": "commitHash",
          "type": "bytes32"
        }
      ],
      "stateMutability": "view",
      "type": "function",
      "constant": true
    },
    {
      "inputs": [
        {
          "internalType": "uint256",
          "name": "UAI",
          "type": "uint256"
        }
      ],
      "name": "getAssetOwner",
      "outputs": [
        {
          "internalType": "address",
          "name": "owner",
          "type": "address"
        }
      ],
      "stateMutability": "view",
      "type": "function",
      "constant": true
    },
    {
      "inputs": [
        {
          "internalType": "uint256",
          "name": "UAI",
          "type": "uint256"
        }
      ],
      "name": "getAssetTimestamp",
      "outputs": [
        {
          "internalType": "uint256",
          "name": "timestamp",
          "type": "uint256"
        }
      ],
      "stateMutability": "view",
      "type": "function",
      "constant": true
    },
    {
      "inputs": [],
      "name": "getNumberOfEpochs",
      "outputs": [
        {
          "internalType": "uint256",
          "name": "",
          "type": "uint256"
        }
      ],
      "stateMutability": "view",
      "type": "function",
      "constant": true
    },
    {
      "inputs": [
        {
          "internalType": "uint256",
          "name": "numberOfEpochs",
          "type": "uint256"
        }
      ],
      "name": "setNumberOfEpochs",
      "outputs": [],
      "stateMutability": "nonpayable",
      "type": "function"
    },
    {
      "inputs": [],
      "name": "getBlockTime",
      "outputs": [
        {
          "internalType": "uint256",
          "name": "",
          "type": "uint256"
        }
      ],
      "stateMutability": "view",
      "type": "function",
      "constant": true
    },
    {
      "inputs": [
        {
          "internalType": "uint256",
          "name": "blockTime",
          "type": "uint256"
        }
      ],
      "name": "setBlockTime",
      "outputs": [],
      "stateMutability": "nonpayable",
      "type": "function"
    },
    {
      "inputs": [],
      "name": "getNumberOfHolders",
      "outputs": [
        {
          "internalType": "uint256",
          "name": "",
          "type": "uint256"
        }
      ],
      "stateMutability": "view",
      "type": "function",
      "constant": true
    },
    {
      "inputs": [
        {
          "internalType": "uint256",
          "name": "numberOfHolders",
          "type": "uint256"
        }
      ],
      "name": "setNumberOfHolders",
      "outputs": [],
      "stateMutability": "nonpayable",
      "type": "function"
    },
    {
      "inputs": [],
      "name": "getEpochValidityInBlocks",
      "outputs": [
        {
          "internalType": "uint256",
          "name": "",
          "type": "uint256"
        }
      ],
      "stateMutability": "view",
      "type": "function",
      "constant": true
    },
    {
      "inputs": [
        {
          "internalType": "uint256",
          "name": "epochValidityInBlocks",
          "type": "uint256"
        }
      ],
      "name": "setEpochValidityInBlocks",
      "outputs": [],
      "stateMutability": "nonpayable",
      "type": "function"
    }
  ],
  "bytecode": "0x60806040523480156200001157600080fd5b50604051620034e6380380620034e683398181016040528101906200003791906200061c565b620000576200004b620004e660201b60201c565b620004ee60201b60201c565b600073ffffffffffffffffffffffffffffffffffffffff168173ffffffffffffffffffffffffffffffffffffffff16036200009157600080fd5b80600160006101000a81548173ffffffffffffffffffffffffffffffffffffffff021916908373ffffffffffffffffffffffffffffffffffffffff1602179055506000600460008060f81b7effffffffffffffffffffffffffffffffffffffffffffffffffffffffffffff1916815260200190815260200160002081905550600160046000600160f81b7effffffffffffffffffffffffffffffffffffffffffffffffffffffffffffff1916815260200190815260200160002081905550600160046000600260f81b7effffffffffffffffffffffffffffffffffffffffffffffffffffffffffffff1916815260200190815260200160002081905550600260046000600360f81b7effffffffffffffffffffffffffffffffffffffffffffffffffffffffffffff1916815260200190815260200160002081905550600160046000600460f81b7effffffffffffffffffffffffffffffffffffffffffffffffffffffffffffff1916815260200190815260200160002081905550600260046000600560f81b7effffffffffffffffffffffffffffffffffffffffffffffffffffffffffffff1916815260200190815260200160002081905550600260046000600660f81b7effffffffffffffffffffffffffffffffffffffffffffffffffffffffffffff1916815260200190815260200160002081905550600360046000600760f81b7effffffffffffffffffffffffffffffffffffffffffffffffffffffffffffff1916815260200190815260200160002081905550600160046000600860f81b7effffffffffffffffffffffffffffffffffffffffffffffffffffffffffffff1916815260200190815260200160002081905550600260046000600960f81b7effffffffffffffffffffffffffffffffffffffffffffffffffffffffffffff1916815260200190815260200160002081905550600260046000600a60f81b7effffffffffffffffffffffffffffffffffffffffffffffffffffffffffffff1916815260200190815260200160002081905550600360046000600b60f81b7effffffffffffffffffffffffffffffffffffffffffffffffffffffffffffff1916815260200190815260200160002081905550600260046000600c60f81b7effffffffffffffffffffffffffffffffffffffffffffffffffffffffffffff1916815260200190815260200160002081905550600360046000600d60f81b7effffffffffffffffffffffffffffffffffffffffffffffffffffffffffffff1916815260200190815260200160002081905550600360046000600e60f81b7effffffffffffffffffffffffffffffffffffffffffffffffffffffffffffff19168152602001908152602001600020819055506004806000600f60f81b7effffffffffffffffffffffffffffffffffffffffffffffffffffffffffffff191681526020019081526020016000208190555060058081905550600c60078190555060036008819055506014600681905550506200064e565b600033905090565b60008060009054906101000a900473ffffffffffffffffffffffffffffffffffffffff169050816000806101000a81548173ffffffffffffffffffffffffffffffffffffffff021916908373ffffffffffffffffffffffffffffffffffffffff1602179055508173ffffffffffffffffffffffffffffffffffffffff168173ffffffffffffffffffffffffffffffffffffffff167f8be0079c531659141344cd1fd0a4f28419497f9722a3daafe3b4186f6b6457e060405160405180910390a35050565b600080fd5b600073ffffffffffffffffffffffffffffffffffffffff82169050919050565b6000620005e482620005b7565b9050919050565b620005f681620005d7565b81146200060257600080fd5b50565b6000815190506200061681620005eb565b92915050565b600060208284031215620006355762000634620005b2565b5b6000620006458482850162000605565b91505092915050565b612e88806200065e6000396000f3fe608060405234801561001057600080fd5b506004361061012c5760003560e01c80638da5cb5b116100ad578063d9a7a2d511610071578063d9a7a2d514610322578063dffc093e14610352578063eeaf6c7914610382578063f2fde38b1461039e578063fafeba46146103ba5761012c565b80638da5cb5b1461027957806390247808146102975780639f5a9a54146102b5578063a88dc956146102d3578063bc7a5944146103065761012c565b80636ec6be9a116100f45780636ec6be9a146101d5578063715018a614610205578063758b1ce31461020f57806387ceff091461022b5780638d5802e2146102495761012c565b8063089d5b77146101315780631ca5ca4b1461014d578063308feec31461016957806334e5197b14610187578063365a86fc146101b7575b600080fd5b61014b60048036038101906101469190612043565b6103ea565b005b61016760048036038101906101629190612043565b610470565b005b6101716104f6565b60405161017e919061207f565b60405180910390f35b6101a1600480360381019061019c91906120d0565b610500565b6040516101ae919061207f565b60405180910390f35b6101bf610518565b6040516101cc919061217c565b60405180910390f35b6101ef60048036038101906101ea9190612197565b61053e565b6040516101fc91906122bc565b60405180910390f35b61020d61064c565b005b61022960048036038101906102249190612043565b6106d4565b005b61023361075a565b604051610240919061207f565b60405180910390f35b610263600480360381019061025e9190612043565b610764565b60405161027091906122ff565b60405180910390f35b610281610880565b60405161028e91906122ff565b60405180910390f35b61029f6108a9565b6040516102ac919061207f565b60405180910390f35b6102bd6108b3565b6040516102ca919061207f565b60405180910390f35b6102ed60048036038101906102e89190612043565b6108bd565b6040516102fd949392919061231a565b60405180910390f35b610320600480360381019061031b919061235f565b6108ed565b005b61033c600480360381019061033791906123da565b610ed6565b604051610349919061207f565b60405180910390f35b61036c60048036038101906103679190612455565b611ab9565b60405161037991906124a4565b60405180910390f35b61039c60048036038101906103979190612043565b611b81565b005b6103b860048036038101906103b391906124eb565b611c07565b005b6103d460048036038101906103cf9190612043565b611cfe565b6040516103e1919061207f565b60405180910390f35b6103f2611d1e565b73ffffffffffffffffffffffffffffffffffffffff16610410610880565b73ffffffffffffffffffffffffffffffffffffffff1614610466576040517f08c379a000000000000000000000000000000000000000000000000000000000815260040161045d90612575565b60405180910390fd5b8060068190555050565b610478611d1e565b73ffffffffffffffffffffffffffffffffffffffff16610496610880565b73ffffffffffffffffffffffffffffffffffffffff16146104ec576040517f08c379a00000000000000000000000000000000000000000000000000000000081526004016104e390612575565b60405180910390fd5b8060058190555050565b6000600854905090565b60036020528060005260406000206000915090505481565b600160009054906101000a900473ffffffffffffffffffffffffffffffffffffffff1681565b6060600060018561054f91906125c4565b67ffffffffffffffff8111156105685761056761261a565b5b6040519080825280602002602001820160405280156105965781602001602082028036833780820191505090505b50905060005b6001866105a991906125c4565b81101561063f578585603c80601861016d89876105c69190612649565b6105d09190612649565b6105da9190612649565b6105e49190612649565b6105ee9190612649565b6105f891906126d2565b61060291906126d2565b8761060d91906125c4565b8282815181106106205761061f612703565b5b602002602001018181525050808061063790612732565b91505061059c565b5080915050949350505050565b610654611d1e565b73ffffffffffffffffffffffffffffffffffffffff16610672610880565b73ffffffffffffffffffffffffffffffffffffffff16146106c8576040517f08c379a00000000000000000000000000000000000000000000000000000000081526004016106bf90612575565b60405180910390fd5b6106d26000611d26565b565b6106dc611d1e565b73ffffffffffffffffffffffffffffffffffffffff166106fa610880565b73ffffffffffffffffffffffffffffffffffffffff1614610750576040517f08c379a000000000000000000000000000000000000000000000000000000000815260040161074790612575565b60405180910390fd5b8060078190555050565b6000600754905090565b6000600160009054906101000a900473ffffffffffffffffffffffffffffffffffffffff1673ffffffffffffffffffffffffffffffffffffffff166304433bbc6040518163ffffffff1660e01b81526004016107bf906127c6565b602060405180830381865afa1580156107dc573d6000803e3d6000fd5b505050506040513d601f19601f8201168201806040525081019061080091906127fb565b73ffffffffffffffffffffffffffffffffffffffff16636352211e836040518263ffffffff1660e01b8152600401610838919061207f565b602060405180830381865afa158015610855573d6000803e3d6000fd5b505050506040513d601f19601f8201168201806040525081019061087991906127fb565b9050919050565b60008060009054906101000a900473ffffffffffffffffffffffffffffffffffffffff16905090565b6000600554905090565b6000600654905090565b60026020528060005260406000206000915090508060000154908060010154908060020154908060050154905084565b6000801b8403610932576040517f08c379a000000000000000000000000000000000000000000000000000000000815260040161092990612874565b60405180910390fd5b6000600160009054906101000a900473ffffffffffffffffffffffffffffffffffffffff1673ffffffffffffffffffffffffffffffffffffffff166304433bbc6040518163ffffffff1660e01b815260040161098d906128e0565b602060405180830381865afa1580156109aa573d6000803e3d6000fd5b505050506040513d601f19601f820116820180604052508101906109ce91906127fb565b73ffffffffffffffffffffffffffffffffffffffff1663d45c4435866040518263ffffffff1660e01b8152600401610a0691906124a4565b602060405180830381865afa158015610a23573d6000803e3d6000fd5b505050506040513d601f19601f82011682018060405250810190610a479190612915565b14610a87576040517f08c379a0000000000000000000000000000000000000000000000000000000008152600401610a7e9061298e565b60405180910390fd5b6000600160009054906101000a900473ffffffffffffffffffffffffffffffffffffffff1673ffffffffffffffffffffffffffffffffffffffff166304433bbc6040518163ffffffff1660e01b8152600401610ae2906127c6565b602060405180830381865afa158015610aff573d6000803e3d6000fd5b505050506040513d601f19601f82011682018060405250810190610b2391906127fb565b73ffffffffffffffffffffffffffffffffffffffff16636352211e876040518263ffffffff1660e01b8152600401610b5b919061207f565b602060405180830381865afa158015610b78573d6000803e3d6000fd5b505050506040513d601f19601f82011682018060405250810190610b9c91906127fb565b90503373ffffffffffffffffffffffffffffffffffffffff168173ffffffffffffffffffffffffffffffffffffffff1614610c0c576040517f08c379a0000000000000000000000000000000000000000000000000000000008152600401610c03906129fa565b60405180910390fd5b600160009054906101000a900473ffffffffffffffffffffffffffffffffffffffff1673ffffffffffffffffffffffffffffffffffffffff166304433bbc6040518163ffffffff1660e01b8152600401610c65906128e0565b602060405180830381865afa158015610c82573d6000803e3d6000fd5b505050506040513d601f19601f82011682018060405250810190610ca691906127fb565b73ffffffffffffffffffffffffffffffffffffffff16632216f559863387876040518563ffffffff1660e01b8152600401610ce49493929190612a1a565b600060405180830381600087803b158015610cfe57600080fd5b505af1158015610d12573d6000803e3d6000fd5b505050506000600160009054906101000a900473ffffffffffffffffffffffffffffffffffffffff1673ffffffffffffffffffffffffffffffffffffffff166304433bbc6040518163ffffffff1660e01b8152600401610d7190612aab565b602060405180830381865afa158015610d8e573d6000803e3d6000fd5b505050506040513d601f19601f82011682018060405250810190610db291906127fb565b90508073ffffffffffffffffffffffffffffffffffffffff166323b872dd3330866040518463ffffffff1660e01b8152600401610df193929190612acb565b6020604051808303816000875af1158015610e10573d6000803e3d6000fd5b505050506040513d601f19601f82011682018060405250810190610e349190612b3a565b5082600260008981526020019081526020016000206002016000828254610e5b91906125c4565b925050819055506002600088815260200190815260200160002060030186908060018154018082558091505060019003906000526020600020016000909190919091505585877fd8802cf5c11ee22bbcf303218874618686a09bcd94bbb441916d708f3e8b16e360405160405180910390a350505050505050565b60008060001b8603610f1d576040517f08c379a0000000000000000000000000000000000000000000000000000000008152600401610f1490612874565b60405180910390fd5b6000600160009054906101000a900473ffffffffffffffffffffffffffffffffffffffff1673ffffffffffffffffffffffffffffffffffffffff166304433bbc6040518163ffffffff1660e01b8152600401610f78906128e0565b602060405180830381865afa158015610f95573d6000803e3d6000fd5b505050506040513d601f19601f82011682018060405250810190610fb991906127fb565b73ffffffffffffffffffffffffffffffffffffffff1663d45c4435886040518263ffffffff1660e01b8152600401610ff191906124a4565b602060405180830381865afa15801561100e573d6000803e3d6000fd5b505050506040513d601f19601f820116820180604052508101906110329190612915565b14611072576040517f08c379a00000000000000000000000000000000000000000000000000000000081526004016110699061298e565b60405180910390fd5b6000600160009054906101000a900473ffffffffffffffffffffffffffffffffffffffff1673ffffffffffffffffffffffffffffffffffffffff166304433bbc6040518163ffffffff1660e01b81526004016110cd90612aab565b602060405180830381865afa1580156110ea573d6000803e3d6000fd5b505050506040513d601f19601f8201168201806040525081019061110e91906127fb565b9050828173ffffffffffffffffffffffffffffffffffffffff1663dd62ed3e33306040518363ffffffff1660e01b815260040161114c929190612b67565b602060405180830381865afa158015611169573d6000803e3d6000fd5b505050506040513d601f19601f8201168201806040525081019061118d9190612915565b10156111ce576040517f08c379a00000000000000000000000000000000000000000000000000000000081526004016111c590612c02565b60405180910390fd5b828173ffffffffffffffffffffffffffffffffffffffff166370a08231336040518263ffffffff1660e01b815260040161120891906122ff565b602060405180830381865afa158015611225573d6000803e3d6000fd5b505050506040513d601f19601f820116820180604052508101906112499190612915565b101561128a576040517f08c379a000000000000000000000000000000000000000000000000000000000815260040161128190612c94565b60405180910390fd5b6000600160009054906101000a900473ffffffffffffffffffffffffffffffffffffffff1673ffffffffffffffffffffffffffffffffffffffff166304433bbc6040518163ffffffff1660e01b81526004016112e5906127c6565b602060405180830381865afa158015611302573d6000803e3d6000fd5b505050506040513d601f19601f8201168201806040525081019061132691906127fb565b73ffffffffffffffffffffffffffffffffffffffff1663a61788ba336040518263ffffffff1660e01b815260040161135e91906122ff565b6020604051808303816000875af115801561137d573d6000803e3d6000fd5b505050506040513d601f19601f820116820180604052508101906113a19190612915565b905060006002600083815260200190815260200160002060000154146113fc576040517f08c379a00000000000000000000000000000000000000000000000000000000081526004016113f390612d00565b60405180910390fd5b600160009054906101000a900473ffffffffffffffffffffffffffffffffffffffff1673ffffffffffffffffffffffffffffffffffffffff166304433bbc6040518163ffffffff1660e01b8152600401611455906128e0565b602060405180830381865afa158015611472573d6000803e3d6000fd5b505050506040513d601f19601f8201168201806040525081019061149691906127fb565b73ffffffffffffffffffffffffffffffffffffffff16632216f55989338a8a6040518563ffffffff1660e01b81526004016114d49493929190612a1a565b600060405180830381600087803b1580156114ee57600080fd5b505af1158015611502573d6000803e3d6000fd5b505050508173ffffffffffffffffffffffffffffffffffffffff166323b872dd3330876040518463ffffffff1660e01b815260040161154393929190612acb565b6020604051808303816000875af1158015611562573d6000803e3d6000fd5b505050506040513d601f19601f820116820180604052508101906115869190612b3a565b50836002600083815260200190815260200160002060020160008282546115ad91906125c4565b9250508190555060026000828152602001908152602001600020600301889080600181540180825580915050600190039060005260206000200160009091909190915055846002600083815260200190815260200160002060010181905550426002600083815260200190815260200160002060000181905550611637436005546007548861053e565b600260008381526020019081526020016000206004019080519060200190611660929190611dea565b506008546005548561167291906126d2565b61167c91906126d2565b6002600083815260200190815260200160002060050181905550600567ffffffffffffffff8111156116b1576116b061261a565b5b6040519080825280602002602001820160405280156116e457816020015b60608152602001906001900390816116cf5790505b5060026000838152602001908152602001600020600601908051906020019061170e929190611e37565b50600567ffffffffffffffff81111561172a5761172961261a565b5b60405190808252806020026020018201604052801561175d57816020015b60608152602001906001900390816117485790505b50600260008381526020019081526020016000206007019080519060200190611787929190611e97565b50600567ffffffffffffffff8111156117a3576117a261261a565b5b6040519080825280602002602001820160405280156117d657816020015b60608152602001906001900390816117c15790505b50600260008381526020019081526020016000206008019080519060200190611800929190611e97565b50600567ffffffffffffffff81111561181c5761181b61261a565b5b60405190808252806020026020018201604052801561184a5781602001602082028036833780820191505090505b50600260008381526020019081526020016000206009019080519060200190611874929190611dea565b5060005b6005811015611a7c57600367ffffffffffffffff81111561189c5761189b61261a565b5b6040519080825280602002602001820160405280156118ca5781602001602082028036833780820191505090505b506002600084815260200190815260200160002060060182815481106118f3576118f2612703565b5b906000526020600020019080519060200190611910929190611ef7565b50600367ffffffffffffffff81111561192c5761192b61261a565b5b60405190808252806020026020018201604052801561195a5781602001602082028036833780820191505090505b5060026000848152602001908152602001600020600701828154811061198357611982612703565b5b9060005260206000200190805190602001906119a0929190611dea565b50600367ffffffffffffffff8111156119bc576119bb61261a565b5b6040519080825280602002602001820160405280156119ea5781602001602082028036833780820191505090505b50600260008481526020019081526020016000206008018281548110611a1357611a12612703565b5b906000526020600020019080519060200190611a30929190611dea565b506000600260008481526020019081526020016000206009018281548110611a5b57611a5a612703565b5b90600052602060002001819055508080611a7490612732565b915050611878565b5087817f5863c932b4caa63f7e8856a49b4d0a438e7c26163d5553ecbcd67dee29a8907160405160405180910390a3809250505095945050505050565b600081600260008581526020019081526020016000206003018054905011611b16576040517f08c379a0000000000000000000000000000000000000000000000000000000008152600401611b0d90612d6c565b60405180910390fd5b600260008481526020019081526020016000206003018260016002600087815260200190815260200160002060030180549050611b539190612d8c565b611b5d9190612d8c565b81548110611b6e57611b6d612703565b5b9060005260206000200154905092915050565b611b89611d1e565b73ffffffffffffffffffffffffffffffffffffffff16611ba7610880565b73ffffffffffffffffffffffffffffffffffffffff1614611bfd576040517f08c379a0000000000000000000000000000000000000000000000000000000008152600401611bf490612575565b60405180910390fd5b8060088190555050565b611c0f611d1e565b73ffffffffffffffffffffffffffffffffffffffff16611c2d610880565b73ffffffffffffffffffffffffffffffffffffffff1614611c83576040517f08c379a0000000000000000000000000000000000000000000000000000000008152600401611c7a90612575565b60405180910390fd5b600073ffffffffffffffffffffffffffffffffffffffff168173ffffffffffffffffffffffffffffffffffffffff1603611cf2576040517f08c379a0000000000000000000000000000000000000000000000000000000008152600401611ce990612e32565b60405180910390fd5b611cfb81611d26565b50565b600060026000838152602001908152602001600020600001549050919050565b600033905090565b60008060009054906101000a900473ffffffffffffffffffffffffffffffffffffffff169050816000806101000a81548173ffffffffffffffffffffffffffffffffffffffff021916908373ffffffffffffffffffffffffffffffffffffffff1602179055508173ffffffffffffffffffffffffffffffffffffffff168173ffffffffffffffffffffffffffffffffffffffff167f8be0079c531659141344cd1fd0a4f28419497f9722a3daafe3b4186f6b6457e060405160405180910390a35050565b828054828255906000526020600020908101928215611e26579160200282015b82811115611e25578251825591602001919060010190611e0a565b5b509050611e339190611f44565b5090565b828054828255906000526020600020908101928215611e86579160200282015b82811115611e85578251829080519060200190611e75929190611ef7565b5091602001919060010190611e57565b5b509050611e939190611f61565b5090565b828054828255906000526020600020908101928215611ee6579160200282015b82811115611ee5578251829080519060200190611ed5929190611dea565b5091602001919060010190611eb7565b5b509050611ef39190611f85565b5090565b828054828255906000526020600020908101928215611f33579160200282015b82811115611f32578251825591602001919060010190611f17565b5b509050611f409190611fa9565b5090565b5b80821115611f5d576000816000905550600101611f45565b5090565b5b80821115611f815760008181611f789190611fc6565b50600101611f62565b5090565b5b80821115611fa55760008181611f9c9190611fe7565b50600101611f86565b5090565b5b80821115611fc2576000816000905550600101611faa565b5090565b5080546000825590600052602060002090810190611fe49190611fa9565b50565b50805460008255906000526020600020908101906120059190611f44565b50565b600080fd5b6000819050919050565b6120208161200d565b811461202b57600080fd5b50565b60008135905061203d81612017565b92915050565b60006020828403121561205957612058612008565b5b60006120678482850161202e565b91505092915050565b6120798161200d565b82525050565b60006020820190506120946000830184612070565b92915050565b6000819050919050565b6120ad8161209a565b81146120b857600080fd5b50565b6000813590506120ca816120a4565b92915050565b6000602082840312156120e6576120e5612008565b5b60006120f4848285016120bb565b91505092915050565b600073ffffffffffffffffffffffffffffffffffffffff82169050919050565b6000819050919050565b600061214261213d612138846120fd565b61211d565b6120fd565b9050919050565b600061215482612127565b9050919050565b600061216682612149565b9050919050565b6121768161215b565b82525050565b6000602082019050612191600083018461216d565b92915050565b600080600080608085870312156121b1576121b0612008565b5b60006121bf8782880161202e565b94505060206121d08782880161202e565b93505060406121e18782880161202e565b92505060606121f28782880161202e565b91505092959194509250565b600081519050919050565b600082825260208201905092915050565b6000819050602082019050919050565b6122338161200d565b82525050565b6000612245838361222a565b60208301905092915050565b6000602082019050919050565b6000612269826121fe565b6122738185612209565b935061227e8361221a565b8060005b838110156122af5781516122968882612239565b97506122a183612251565b925050600181019050612282565b5085935050505092915050565b600060208201905081810360008301526122d6818461225e565b905092915050565b60006122e9826120fd565b9050919050565b6122f9816122de565b82525050565b600060208201905061231460008301846122f0565b92915050565b600060808201905061232f6000830187612070565b61233c6020830186612070565b6123496040830185612070565b6123566060830184612070565b95945050505050565b600080600080600060a0868803121561237b5761237a612008565b5b60006123898882890161202e565b955050602061239a888289016120bb565b94505060406123ab8882890161202e565b93505060606123bc8882890161202e565b92505060806123cd8882890161202e565b9150509295509295909350565b600080600080600060a086880312156123f6576123f5612008565b5b6000612404888289016120bb565b95505060206124158882890161202e565b94505060406124268882890161202e565b93505060606124378882890161202e565b92505060806124488882890161202e565b9150509295509295909350565b6000806040838503121561246c5761246b612008565b5b600061247a8582860161202e565b925050602061248b8582860161202e565b9150509250929050565b61249e8161209a565b82525050565b60006020820190506124b96000830184612495565b92915050565b6124c8816122de565b81146124d357600080fd5b50565b6000813590506124e5816124bf565b92915050565b60006020828403121561250157612500612008565b5b600061250f848285016124d6565b91505092915050565b600082825260208201905092915050565b7f4f776e61626c653a2063616c6c6572206973206e6f7420746865206f776e6572600082015250565b600061255f602083612518565b915061256a82612529565b602082019050919050565b6000602082019050818103600083015261258e81612552565b9050919050565b7f4e487b7100000000000000000000000000000000000000000000000000000000600052601160045260246000fd5b60006125cf8261200d565b91506125da8361200d565b9250827fffffffffffffffffffffffffffffffffffffffffffffffffffffffffffffffff0382111561260f5761260e612595565b5b828201905092915050565b7f4e487b7100000000000000000000000000000000000000000000000000000000600052604160045260246000fd5b60006126548261200d565b915061265f8361200d565b9250817fffffffffffffffffffffffffffffffffffffffffffffffffffffffffffffffff048311821515161561269857612697612595565b5b828202905092915050565b7f4e487b7100000000000000000000000000000000000000000000000000000000600052601260045260246000fd5b60006126dd8261200d565b91506126e88361200d565b9250826126f8576126f76126a3565b5b828204905092915050565b7f4e487b7100000000000000000000000000000000000000000000000000000000600052603260045260246000fd5b600061273d8261200d565b91507fffffffffffffffffffffffffffffffffffffffffffffffffffffffffffffffff820361276f5761276e612595565b5b600182019050919050565b7f5541495265676973747279000000000000000000000000000000000000000000600082015250565b60006127b0600b83612518565b91506127bb8261277a565b602082019050919050565b600060208201905081810360008301526127df816127a3565b9050919050565b6000815190506127f5816124bf565b92915050565b60006020828403121561281157612810612008565b5b600061281f848285016127e6565b91505092915050565b7f617373657274696f6e49642063616e6e6f74206265207a65726f000000000000600082015250565b600061285e601a83612518565b915061286982612828565b602082019050919050565b6000602082019050818103600083015261288d81612851565b9050919050565b7f417373657274696f6e5265676973747279000000000000000000000000000000600082015250565b60006128ca601183612518565b91506128d582612894565b602082019050919050565b600060208201905081810360008301526128f9816128bd565b9050919050565b60008151905061290f81612017565b92915050565b60006020828403121561292b5761292a612008565b5b600061293984828501612900565b91505092915050565b7f617373657274696f6e496420616c726561647920657869737473210000000000600082015250565b6000612978601b83612518565b915061298382612942565b602082019050919050565b600060208201905081810360008301526129a78161296b565b9050919050565b7f4f6e6c79206f776e65722063616e2075706461746520616e2061737365740000600082015250565b60006129e4601e83612518565b91506129ef826129ae565b602082019050919050565b60006020820190508181036000830152612a13816129d7565b9050919050565b6000608082019050612a2f6000830187612495565b612a3c60208301866122f0565b612a496040830185612070565b612a566060830184612070565b95945050505050565b7f546f6b656e000000000000000000000000000000000000000000000000000000600082015250565b6000612a95600583612518565b9150612aa082612a5f565b602082019050919050565b60006020820190508181036000830152612ac481612a88565b9050919050565b6000606082019050612ae060008301866122f0565b612aed60208301856122f0565b612afa6040830184612070565b949350505050565b60008115159050919050565b612b1781612b02565b8114612b2257600080fd5b50565b600081519050612b3481612b0e565b92915050565b600060208284031215612b5057612b4f612008565b5b6000612b5e84828501612b25565b91505092915050565b6000604082019050612b7c60008301856122f0565b612b8960208301846122f0565b9392505050565b7f53656e64657220616c6c6f77616e6365206d75737420626520657175616c207460008201527f6f206f7220686967686572207468616e2063686f73656e20616d6f756e740000602082015250565b6000612bec603e83612518565b9150612bf782612b90565b604082019050919050565b60006020820190508181036000830152612c1b81612bdf565b9050919050565b7f53656e6465722062616c616e6365206d75737420626520657175616c20746f2060008201527f6f7220686967686572207468616e2063686f73656e20616d6f756e7421000000602082015250565b6000612c7e603d83612518565b9150612c8982612c22565b604082019050919050565b60006020820190508181036000830152612cad81612c71565b9050919050565b7f55414920616c7265616479206578697374732100000000000000000000000000600082015250565b6000612cea601383612518565b9150612cf582612cb4565b602082019050919050565b60006020820190508181036000830152612d1981612cdd565b9050919050565b7f4f666673657420697320696e76616c6964000000000000000000000000000000600082015250565b6000612d56601183612518565b9150612d6182612d20565b602082019050919050565b60006020820190508181036000830152612d8581612d49565b9050919050565b6000612d978261200d565b9150612da28361200d565b925082821015612db557612db4612595565b5b828203905092915050565b7f4f776e61626c653a206e6577206f776e657220697320746865207a65726f206160008201527f6464726573730000000000000000000000000000000000000000000000000000602082015250565b6000612e1c602683612518565b9150612e2782612dc0565b604082019050919050565b60006020820190508181036000830152612e4b81612e0f565b905091905056fea264697066735822122054a913deed9481092d709e36a058bce240560c6013c7b0f53226bd194984e80b64736f6c634300080e0033",
  "immutableReferences": {},
  "source": "// SPDX-License-Identifier: MIT\n\npragma solidity ^0.8.0;\n\nimport \"@openzeppelin/contracts/token/ERC20/IERC20.sol\";\nimport \"@openzeppelin/contracts/access/Ownable.sol\";\nimport \"@openzeppelin/contracts/utils/cryptography/MerkleProof.sol\";\nimport \"./AssertionRegistry.sol\";\nimport \"./UAIRegistry.sol\";\nimport \"./Hub.sol\";\nimport \"./Identity.sol\";\nimport \"./storage/ProfileStorage.sol\";\n\n// TODO linked assertions\n// TODO storages\n// TODO contributions\n// TODO challenges\n\ncontract AssetRegistry is Ownable {\n    Hub public hub;\n\n    struct AssetRecord {\n        uint256 timestamp;\n        uint256 holdingTimeInYears;\n        uint256 assetStake;\n        bytes32 [] assertions;\n\n        uint256 [] epochs;\n        uint256 priceLimit;\n        bytes32 [][] holderIds;\n        uint256 [][] holderDistances;\n        uint256 [][] holderPrices;\n        uint256 [] holderCount;\n    }\n\n    mapping(uint256 => AssetRecord) public assetRecords;\n    mapping(bytes32 => uint256) public assetStake;\n\n    mapping(bytes1 => uint) bytesLookup;\n\n    uint256 _numberOfEpochs;\n    uint256 _epochValidityInBlocks;\n    uint256 _blockTime;\n    uint256 _numberOfHolders;\n\n    // events\n    event AssetCreated(uint256 indexed UAI, bytes32 indexed stateCommitHash);\n    event AssetUpdated(uint256 indexed UAI, bytes32 indexed stateCommitHash);\n    event TokensDepositedToAsset(bytes32 indexed UAI, uint256 indexed amount, address indexed depositor);\n\n    constructor(address hubAddress) {\n        require(hubAddress != address(0));\n        hub = Hub(hubAddress);\n\n        bytesLookup[0x00] = 0;\n        bytesLookup[0x01] = 1;\n        bytesLookup[0x02] = 1;\n        bytesLookup[0x03] = 2;\n        bytesLookup[0x04] = 1;\n        bytesLookup[0x05] = 2;\n        bytesLookup[0x06] = 2;\n        bytesLookup[0x07] = 3;\n        bytesLookup[0x08] = 1;\n        bytesLookup[0x09] = 2;\n        bytesLookup[0x0a] = 2;\n        bytesLookup[0x0b] = 3;\n        bytesLookup[0x0c] = 2;\n        bytesLookup[0x0d] = 3;\n        bytesLookup[0x0e] = 3;\n        bytesLookup[0x0f] = 4;\n\n        _numberOfEpochs = 5;\n        _blockTime = 12;\n        _numberOfHolders = 3;\n        _epochValidityInBlocks = 20;\n    }\n\n    function createAsset(bytes32 assertionId, uint256 size, uint256 visibility, uint256 holdingTimeInYears, uint256 tokenAmount) public returns (uint256) {\n        require(assertionId != 0, \"assertionId cannot be zero\");\n        require(AssertionRegistry(hub.getContractAddress(\"AssertionRegistry\")).getTimestamp(assertionId) == 0, \"assertionId already exists!\");\n\n        IERC20 tokenContract = IERC20(hub.getContractAddress(\"Token\"));\n        require(tokenContract.allowance(msg.sender, address(this)) >= tokenAmount, \"Sender allowance must be equal to or higher than chosen amount\");\n        require(tokenContract.balanceOf(msg.sender) >= tokenAmount, \"Sender balance must be equal to or higher than chosen amount!\");\n\n        // TODO ERC 1155?\n        uint256 UAI = UAIRegistry(hub.getContractAddress(\"UAIRegistry\")).mintUAI(msg.sender);\n        require(assetRecords[UAI].timestamp == 0, \"UAI already exists!\");\n\n        // TODO introduce old holding contract?\n        AssertionRegistry(hub.getContractAddress(\"AssertionRegistry\")).createAssertionRecord(assertionId, msg.sender, size, visibility);\n        tokenContract.transferFrom(msg.sender, address(this), tokenAmount);\n        assetRecords[UAI].assetStake += tokenAmount;\n\n        assetRecords[UAI].assertions.push(assertionId);\n        assetRecords[UAI].holdingTimeInYears = holdingTimeInYears;\n        assetRecords[UAI].timestamp = block.timestamp;\n\n        assetRecords[UAI].epochs = generateEpochs(block.number, _numberOfEpochs, _blockTime, holdingTimeInYears);\n        assetRecords[UAI].priceLimit = tokenAmount / _numberOfEpochs / _numberOfHolders;\n\n        assetRecords[UAI].holderIds = new bytes32[][](5);\n        assetRecords[UAI].holderDistances = new uint256[][](5);\n        assetRecords[UAI].holderPrices = new uint256[][](5);\n        assetRecords[UAI].holderCount = new uint256[](5);\n        for (uint i = 0; i < 5; i++) {\n            assetRecords[UAI].holderIds[i] = new bytes32[](3);\n            assetRecords[UAI].holderDistances[i] = new uint256[](3);\n            assetRecords[UAI].holderPrices[i] = new uint256[](3);\n            assetRecords[UAI].holderCount[i] = 0;\n        }\n\n        emit AssetCreated(UAI, assertionId);\n\n        return UAI;\n    }\n\n    function updateAsset(uint256 UAI, bytes32 assertionId, uint256 size, uint256 visibility, uint256 tokenAmount) public {\n        require(assertionId != 0, \"assertionId cannot be zero\");\n        require(AssertionRegistry(hub.getContractAddress(\"AssertionRegistry\")).getTimestamp(assertionId) == 0, \"assertionId already exists!\");\n\n        address owner = UAIRegistry(hub.getContractAddress(\"UAIRegistry\")).ownerOf(UAI);\n        require(owner == msg.sender, \"Only owner can update an asset\");\n\n        AssertionRegistry(hub.getContractAddress(\"AssertionRegistry\")).createAssertionRecord(assertionId, msg.sender, size, visibility);\n\n        IERC20 tokenContract = IERC20(hub.getContractAddress(\"Token\"));\n        tokenContract.transferFrom(msg.sender, address(this), tokenAmount);\n        assetRecords[UAI].assetStake += tokenAmount;\n\n        assetRecords[UAI].assertions.push(assertionId);\n\n        emit AssetUpdated(UAI, assertionId);\n    }\n\n\n    function generateEpochs(uint blockNumber, uint256 numberOfEpochs, uint256 blockTime, uint256 holdingTimeInYears) public pure returns (uint256 [] memory) {\n        uint256 [] memory epochs = new uint256[](numberOfEpochs + 1);\n        for (uint i = 0; i < numberOfEpochs + 1; i++) {\n            epochs[i] = blockNumber + i * holdingTimeInYears * 365 * 24 * 60 * 60 / blockTime / numberOfEpochs;\n        }\n\n        return epochs;\n    }\n\n//    function getEpochs(uint256 UAI) public view returns (uint256 [] memory) {\n//        return assetRecords[UAI].epochs;\n//    }\n//\n//    function getEpoch(uint256 UAI) public view returns (uint) {\n//        uint i;\n//        require(block.number >= assetRecords[UAI].epochs[0] && block.number <= assetRecords[UAI].epochs[assetRecords[UAI].epochs.length - 1], \"UAI has expired.\");\n//        for (i = 1; i < assetRecords[UAI].epochs.length - 1; i++) {\n//            if (block.number < assetRecords[UAI].epochs[i]) {\n//                return i - 1;\n//            }\n//        }\n//\n//        return i - 1;\n//    }\n//\n//    function getEpoch(uint256 UAI, uint256 blockNumber) public view returns (uint256) {\n//        uint i;\n//        require(block.number >= assetRecords[UAI].epochs[0] && block.number <= assetRecords[UAI].epochs[assetRecords[UAI].epochs.length - 1], \"UAI has expired.\");\n//        for (i = 1; i < assetRecords[UAI].epochs.length - 1; i++) {\n//            if (blockNumber < assetRecords[UAI].epochs[i]) {\n//                return i - 1;\n//            }\n//        }\n//\n//        return i - 1;\n//    }\n//\n//    function isEpochActive(uint256 UAI, uint256 epoch) public view returns (bool) {\n//        if (assetRecords[UAI].epochs.length - 1 > epoch) {\n//            if (assetRecords[UAI].epochs[epoch] <= block.number && assetRecords[UAI].epochs[epoch] + _epochValidityInBlocks >= block.number) {\n//                return true;\n//            }\n//        }\n//        return false;\n//    }\n//\n//    function hammingDistance(bytes32 x, bytes32 y) public view returns (uint) {\n//        bytes32 xor = x ^ y;\n//        uint distance = 0;\n//        for (uint i = 0; i < xor.length; i++) {\n//            distance += bytesLookup[xor[i] >> 4];\n//            distance += bytesLookup[(xor[i] << 4) >> 4];\n//        }\n//\n//        return distance;\n//    }\n//\n//    function getChallenge(uint256 UAI, uint256 blockNumber, address identity) public view returns (uint256) {\n////        require(ERC734(identity).keyHasPurpose(keccak256(abi.encodePacked(msg.sender)), 2), \"Sender does not have action permission for identity!\");\n//        uint256 epoch = getEpoch(UAI, blockNumber);\n//        bool isActive = isEpochActive(UAI, epoch);\n//\n//        if (isActive) {\n//            return calculateChallenge(UAI, blockNumber, identity);\n//        } else {\n//            return 0;\n//        }\n//    }\n//\n//    function calculateChallenge(uint256 UAI, uint256 blockNumber, address identity) public view returns (uint256) {\n//        return uint256(sha256(abi.encodePacked(blockhash(blockNumber), identity))) % assetRecords[UAI].size;\n//    }\n//\n//\n//    function getContributionRank(uint256 UAI, uint256 epoch, address identity) public view returns (uint256) {\n//        ProfileStorage profileStorage = ProfileStorage(hub.getContractAddress(\"ProfileStorage\"));\n//        bytes32 nodeId = profileStorage.getNodeId(identity);\n//        uint256 distance = hammingDistance(nodeId, sha256(abi.encodePacked(UAI)));\n//        uint i;\n//        for (i = 0; i < assetRecords[UAI].holderCount[epoch]; i++) {\n//            if (assetRecords[UAI].holderDistances[epoch][i] > distance)\n//            {\n//                return i;\n//            }\n//        }\n//        return i;\n//    }\n//\n//    function getContributors(uint256 UAI) public view returns (bytes32 [][] memory, uint256[][] memory, uint256[][] memory, uint256 [] memory) {\n//        return (assetRecords[UAI].holderIds, assetRecords[UAI].holderDistances, assetRecords[UAI].holderPrices, assetRecords[UAI].holderCount);\n//    }\n//\n//\n//    function addContributor(uint256 UAI, uint256 epoch, uint rank, uint256 price, address identity) internal {\n//        uint256 length = assetRecords[UAI].holderCount[epoch];\n//        for (uint i = length; i >= rank + 1; i--) {\n//            if (i == 3) {\n//                continue;\n//            }\n//            assetRecords[UAI].holderIds[epoch][i] = assetRecords[UAI].holderIds[epoch][i - 1];\n//            assetRecords[UAI].holderDistances[epoch][i] = assetRecords[UAI].holderDistances[epoch][i - 1];\n//            assetRecords[UAI].holderPrices[epoch][i] = assetRecords[UAI].holderPrices[epoch][i - 1];\n//        }\n//\n//        ProfileStorage profileStorage = ProfileStorage(hub.getContractAddress(\"ProfileStorage\"));\n//        bytes32 nodeId = profileStorage.getNodeId(identity);\n//\n//        assetRecords[UAI].holderIds[epoch][rank] = nodeId;\n//        assetRecords[UAI].holderDistances[epoch][rank] = hammingDistance(nodeId, sha256(abi.encodePacked(UAI)));\n//        assetRecords[UAI].holderPrices[epoch][rank] = price;\n//\n//        if (length < 3) {\n\n//            assetRecords[UAI].holderCount[epoch] += 1;\n//        }\n//    }\n//\n//    function answerChallenge(uint256 UAI, uint256 blockNumber, bytes32 [] memory proof, bytes32 leaf, uint256 price, address identity) public {\n//        require(UAIRegistry(hub.getContractAddress(\"UAIRegistry\")).exists(UAI) == true, \"ERC721 token doesn't exist!\");\n//        require(price <= assetRecords[UAI].priceLimit, \"Price limit has been exceeded!\");\n//        require(UAIRegistry(hub.getContractAddress(\"UAIRegistry\")).exists(UAI) == true, \"ERC721 token doesn't exist!\");\n////        require(ERC734(identity).keyHasPurpose(keccak256(abi.encodePacked(msg.sender)), 2), \"Sender does not have action permission for identity!\");\n//\n//        uint256 epoch = getEpoch(UAI, blockNumber);\n//        bool isActive = isEpochActive(UAI, epoch);\n//\n//        require(isActive);\n//\n//        // TODO Bid with lower price\n//        ProfileStorage profileStorage = ProfileStorage(hub.getContractAddress(\"ProfileStorage\"));\n//        bytes32 nodeId = profileStorage.getNodeId(identity);\n//        for (uint256 i = 0; i < assetRecords[UAI].holderCount[epoch]; i++) {\n//            require(nodeId != assetRecords[UAI].holderIds[epoch][i], \"Node has already answered the challenge!\");\n//        }\n//\n//        uint256 challenge = calculateChallenge(UAI, blockNumber, identity);\n//        uint256 rank = getContributionRank(UAI, epoch, identity);\n//        // 0, 1, 2, 3\n//        require(rank < 3, \"Contribution rank is too low\");\n//\n//        require(MerkleProof.verify(proof, assetRecords[UAI].stateCommitHash, keccak256(abi.encodePacked(leaf, challenge))), \"Root hash doesn't match\");\n//        addContributor(UAI, epoch, rank, price, identity);\n//    }\n//\n//\n//    function getReward(uint256 UAI, uint256 epoch, address identity) public {\n//        require(ERC734(identity).keyHasPurpose(keccak256(abi.encodePacked(msg.sender)), 2), \"Sender does not have action permission for identity!\");\n//        require(UAIRegistry(hub.getContractAddress(\"UAIRegistry\")).exists(UAI) == true, \"ERC721 token doesn't exist!\");\n//\n//        bool isActive = isEpochActive(UAI, epoch);\n//\n//        require(isActive == false);\n//\n//        ProfileStorage profileStorage = ProfileStorage(hub.getContractAddress(\"ProfileStorage\"));\n//        bytes32 nodeId = profileStorage.getNodeId(identity);\n//\n//        for (uint i = 0; i < assetRecords[UAI].holderCount[epoch]; i++) {\n//            if (assetRecords[UAI].holderIds[epoch][i] == nodeId) {\n//                uint256 amount = assetRecords[UAI].holderPrices[epoch][i];\n//                require(amount > 0);\n//                assetRecords[UAI].holderPrices[epoch][i] = 0;\n//                assetRecords[UAI].stake -= amount;\n//                profileStorage.setStake(identity, profileStorage.getStake(identity) + amount);\n//                IERC20 tokenContract = IERC20(hub.getContractAddress(\"Token\"));\n//                //                require(tokenContract.allowance(msg.sender, address(this)) >= tokenAmount, \"Sender allowance must be equal to or higher than chosen amount\");\n//                //                require(tokenContract.balanceOf(msg.sender) >= tokenAmount, \"Sender balance must be equal to or higher than chosen amount!\");\n//                tokenContract.transfer(hub.getContractAddress(\"ProfileStorage\"), amount);\n//\n//                break;\n//            }\n//        }\n//    }\n\n    // getters\n    function getCommitHash(uint256 UAI, uint256 offset) public view returns (bytes32 commitHash){\n        require(assetRecords[UAI].assertions.length > offset, \"Offset is invalid\");\n        return assetRecords[UAI].assertions[assetRecords[UAI].assertions.length - 1 - offset];\n    }\n\n    function getAssetOwner(uint256 UAI) public view returns (address owner){\n        return UAIRegistry(hub.getContractAddress(\"UAIRegistry\")).ownerOf(UAI);\n    }\n\n    function getAssetTimestamp(uint256 UAI) public view returns (uint256 timestamp){\n        return assetRecords[UAI].timestamp;\n    }\n\n    function getNumberOfEpochs() public view returns (uint256) {\n        return _numberOfEpochs;\n    }\n\n    function setNumberOfEpochs(uint256 numberOfEpochs) public onlyOwner {\n        _numberOfEpochs = numberOfEpochs;\n    }\n\n    function getBlockTime() public view returns (uint256) {\n        return _blockTime;\n    }\n\n    function setBlockTime(uint256 blockTime) public onlyOwner {\n        _blockTime = blockTime;\n    }\n\n    function getNumberOfHolders() public view returns (uint256) {\n        return _numberOfHolders;\n    }\n\n    function setNumberOfHolders(uint256 numberOfHolders) public onlyOwner {\n        _numberOfHolders = numberOfHolders;\n    }\n\n    function getEpochValidityInBlocks() public view returns (uint256) {\n        return _epochValidityInBlocks;\n    }\n\n    function setEpochValidityInBlocks(uint256 epochValidityInBlocks) public onlyOwner {\n        _epochValidityInBlocks = epochValidityInBlocks;\n    }\n}",
  "sourcePath": "/Users/miloskotlar/dkg-onchain-module-v6/contracts/AssetRegistry.sol",
  "compiler": {
    "name": "solc",
    "version": "0.8.14+commit.80d49f37.Emscripten.clang"
  },
  "schemaVersion": "3.4.3",
  "updatedAt": "2022-07-26T12:56:43.038Z",
  "networkType": "ethereum",
  "devdoc": {
    "kind": "dev",
    "methods": {
      "owner()": {
        "details": "Returns the address of the current owner."
      },
      "renounceOwnership()": {
        "details": "Leaves the contract without owner. It will not be possible to call `onlyOwner` functions anymore. Can only be called by the current owner. NOTE: Renouncing ownership will leave the contract without an owner, thereby removing any functionality that is only available to the owner."
      },
      "transferOwnership(address)": {
        "details": "Transfers ownership of the contract to a new account (`newOwner`). Can only be called by the current owner."
      }
    },
    "version": 1
  },
  "userdoc": {
    "kind": "user",
    "methods": {},
    "version": 1
  }
}