{
  "contractName": "AssertionRegistry",
  "abi": [
    {
      "inputs": [
        {
          "internalType": "address",
          "name": "hubAddress",
          "type": "address"
        }
      ],
      "stateMutability": "nonpayable",
      "type": "constructor"
    },
    {
      "anonymous": false,
      "inputs": [
        {
          "indexed": true,
          "internalType": "bytes32",
          "name": "assertionId",
          "type": "bytes32"
        },
        {
          "indexed": true,
          "internalType": "address",
          "name": "assertionIssuer",
          "type": "address"
        },
        {
          "indexed": false,
          "internalType": "uint256",
          "name": "numberOfEpochs",
          "type": "uint256"
        }
      ],
      "name": "AssertionCreated",
      "type": "event"
    },
    {
      "anonymous": false,
      "inputs": [
        {
          "indexed": true,
          "internalType": "address",
          "name": "previousOwner",
          "type": "address"
        },
        {
          "indexed": true,
          "internalType": "address",
          "name": "newOwner",
          "type": "address"
        }
      ],
      "name": "OwnershipTransferred",
      "type": "event"
    },
    {
      "inputs": [],
      "name": "TRAC_TOKEN_ADDRESS",
      "outputs": [
        {
          "internalType": "address",
          "name": "",
          "type": "address"
        }
      ],
      "stateMutability": "view",
      "type": "function",
      "constant": true
    },
    {
      "inputs": [],
      "name": "hub",
      "outputs": [
        {
          "internalType": "contract Hub",
          "name": "",
          "type": "address"
        }
      ],
      "stateMutability": "view",
      "type": "function",
      "constant": true
    },
    {
      "inputs": [],
      "name": "owner",
      "outputs": [
        {
          "internalType": "address",
          "name": "",
          "type": "address"
        }
      ],
      "stateMutability": "view",
      "type": "function",
      "constant": true
    },
    {
      "inputs": [],
      "name": "renounceOwnership",
      "outputs": [],
      "stateMutability": "nonpayable",
      "type": "function"
    },
    {
      "inputs": [
        {
          "internalType": "address",
          "name": "newOwner",
          "type": "address"
        }
      ],
      "name": "transferOwnership",
      "outputs": [],
      "stateMutability": "nonpayable",
      "type": "function"
    },
    {
      "inputs": [
        {
          "internalType": "bytes32",
          "name": "assertionId",
          "type": "bytes32"
        },
        {
          "internalType": "address",
          "name": "issuer",
          "type": "address"
        },
        {
          "internalType": "uint256",
          "name": "numberOfEpochs",
          "type": "uint256"
        }
      ],
      "name": "createAssertionRecord",
      "outputs": [],
      "stateMutability": "nonpayable",
      "type": "function"
    },
    {
      "inputs": [
        {
          "internalType": "bytes32",
          "name": "assertionId",
          "type": "bytes32"
        }
      ],
      "name": "getAssertionIssuer",
      "outputs": [
        {
          "internalType": "address",
          "name": "issuer",
          "type": "address"
        }
      ],
      "stateMutability": "view",
      "type": "function",
      "constant": true
    },
    {
      "inputs": [
        {
          "internalType": "bytes32",
          "name": "assertionId",
          "type": "bytes32"
        }
      ],
      "name": "getAssertionNumberOfEpochs",
      "outputs": [
        {
          "internalType": "uint256",
          "name": "numberOfEpochs",
          "type": "uint256"
        }
      ],
      "stateMutability": "view",
      "type": "function",
      "constant": true
    },
    {
      "inputs": [
        {
          "internalType": "bytes32",
          "name": "assertionId",
          "type": "bytes32"
        }
      ],
      "name": "getAssertionCreationTimestamp",
      "outputs": [
        {
          "internalType": "uint256",
          "name": "numberOfEpochs",
          "type": "uint256"
        }
      ],
      "stateMutability": "view",
      "type": "function",
      "constant": true
    }
  ],
  "bytecode": "0x608060405234801561001057600080fd5b5060405162000df938038062000df9833981810160405281019061003491906101ff565b6100506100456100d060201b60201c565b6100d860201b60201c565b600073ffffffffffffffffffffffffffffffffffffffff168173ffffffffffffffffffffffffffffffffffffffff160361008957600080fd5b80600160006101000a81548173ffffffffffffffffffffffffffffffffffffffff021916908373ffffffffffffffffffffffffffffffffffffffff1602179055505061022c565b600033905090565b60008060009054906101000a900473ffffffffffffffffffffffffffffffffffffffff169050816000806101000a81548173ffffffffffffffffffffffffffffffffffffffff021916908373ffffffffffffffffffffffffffffffffffffffff1602179055508173ffffffffffffffffffffffffffffffffffffffff168173ffffffffffffffffffffffffffffffffffffffff167f8be0079c531659141344cd1fd0a4f28419497f9722a3daafe3b4186f6b6457e060405160405180910390a35050565b600080fd5b600073ffffffffffffffffffffffffffffffffffffffff82169050919050565b60006101cc826101a1565b9050919050565b6101dc816101c1565b81146101e757600080fd5b50565b6000815190506101f9816101d3565b92915050565b6000602082840312156102155761021461019c565b5b6000610223848285016101ea565b91505092915050565b610bbd806200023c6000396000f3fe608060405234801561001057600080fd5b50600436106100935760003560e01c80638f9cd32b116100665780638f9cd32b1461010e5780639e50e72c1461012c578063a7943efc1461015c578063b3138cb81461018c578063f2fde38b146101a857610093565b80630828e9f314610098578063365a86fc146100c8578063715018a6146100e65780638da5cb5b146100f0575b600080fd5b6100b260048036038101906100ad91906106ff565b6101c4565b6040516100bf919061076d565b60405180910390f35b6100d0610204565b6040516100dd91906107e7565b60405180910390f35b6100ee61022a565b005b6100f86102b2565b604051610105919061076d565b60405180910390f35b6101166102db565b604051610123919061076d565b60405180910390f35b610146600480360381019061014191906106ff565b610301565b604051610153919061081b565b60405180910390f35b610176600480360381019061017191906106ff565b610321565b604051610183919061081b565b60405180910390f35b6101a660048036038101906101a1919061088e565b610341565b005b6101c260048036038101906101bd91906108e1565b610501565b005b60006004600083815260200190815260200160002060020160009054906101000a900473ffffffffffffffffffffffffffffffffffffffff169050919050565b600160009054906101000a900473ffffffffffffffffffffffffffffffffffffffff1681565b6102326105f8565b73ffffffffffffffffffffffffffffffffffffffff166102506102b2565b73ffffffffffffffffffffffffffffffffffffffff16146102a6576040517f08c379a000000000000000000000000000000000000000000000000000000000815260040161029d9061096b565b60405180910390fd5b6102b06000610600565b565b60008060009054906101000a900473ffffffffffffffffffffffffffffffffffffffff16905090565b600360009054906101000a900473ffffffffffffffffffffffffffffffffffffffff1681565b600060046000838152602001908152602001600020600001549050919050565b600060046000838152602001908152602001600020600101549050919050565b6000801b8303610386576040517f08c379a000000000000000000000000000000000000000000000000000000000815260040161037d906109d7565b60405180910390fd5b600081036103c9576040517f08c379a00000000000000000000000000000000000000000000000000000000081526004016103c090610a69565b60405180910390fd5b6000600460008581526020019081526020016000206001015414610422576040517f08c379a000000000000000000000000000000000000000000000000000000000815260040161041990610ad5565b60405180910390fd5b426004600085815260200190815260200160002060010181905550816004600085815260200190815260200160002060020160006101000a81548173ffffffffffffffffffffffffffffffffffffffff021916908373ffffffffffffffffffffffffffffffffffffffff1602179055508060046000858152602001908152602001600020600001819055508173ffffffffffffffffffffffffffffffffffffffff16837f15a8c334a100ee764c8aa7e728c35c591343fe7a34edeb0e8688e9cc3cc501ea836040516104f4919061081b565b60405180910390a3505050565b6105096105f8565b73ffffffffffffffffffffffffffffffffffffffff166105276102b2565b73ffffffffffffffffffffffffffffffffffffffff161461057d576040517f08c379a00000000000000000000000000000000000000000000000000000000081526004016105749061096b565b60405180910390fd5b600073ffffffffffffffffffffffffffffffffffffffff168173ffffffffffffffffffffffffffffffffffffffff16036105ec576040517f08c379a00000000000000000000000000000000000000000000000000000000081526004016105e390610b67565b60405180910390fd5b6105f581610600565b50565b600033905090565b60008060009054906101000a900473ffffffffffffffffffffffffffffffffffffffff169050816000806101000a81548173ffffffffffffffffffffffffffffffffffffffff021916908373ffffffffffffffffffffffffffffffffffffffff1602179055508173ffffffffffffffffffffffffffffffffffffffff168173ffffffffffffffffffffffffffffffffffffffff167f8be0079c531659141344cd1fd0a4f28419497f9722a3daafe3b4186f6b6457e060405160405180910390a35050565b600080fd5b6000819050919050565b6106dc816106c9565b81146106e757600080fd5b50565b6000813590506106f9816106d3565b92915050565b600060208284031215610715576107146106c4565b5b6000610723848285016106ea565b91505092915050565b600073ffffffffffffffffffffffffffffffffffffffff82169050919050565b60006107578261072c565b9050919050565b6107678161074c565b82525050565b6000602082019050610782600083018461075e565b92915050565b6000819050919050565b60006107ad6107a86107a38461072c565b610788565b61072c565b9050919050565b60006107bf82610792565b9050919050565b60006107d1826107b4565b9050919050565b6107e1816107c6565b82525050565b60006020820190506107fc60008301846107d8565b92915050565b6000819050919050565b61081581610802565b82525050565b6000602082019050610830600083018461080c565b92915050565b61083f8161074c565b811461084a57600080fd5b50565b60008135905061085c81610836565b92915050565b61086b81610802565b811461087657600080fd5b50565b60008135905061088881610862565b92915050565b6000806000606084860312156108a7576108a66106c4565b5b60006108b5868287016106ea565b93505060206108c68682870161084d565b92505060406108d786828701610879565b9150509250925092565b6000602082840312156108f7576108f66106c4565b5b60006109058482850161084d565b91505092915050565b600082825260208201905092915050565b7f4f776e61626c653a2063616c6c6572206973206e6f7420746865206f776e6572600082015250565b600061095560208361090e565b91506109608261091f565b602082019050919050565b6000602082019050818103600083015261098481610948565b9050919050565b7f617373657274696f6e494420686173682063616e6e6f74206265207a65726f00600082015250565b60006109c1601f8361090e565b91506109cc8261098b565b602082019050919050565b600060208201905081810360008301526109f0816109b4565b9050919050565b7f6e756d6265724f6645706f63687320686173682063616e6e6f74206265207a6560008201527f726f000000000000000000000000000000000000000000000000000000000000602082015250565b6000610a5360228361090e565b9150610a5e826109f7565b604082019050919050565b60006020820190508181036000830152610a8281610a46565b9050919050565b7f417373657274696f6e20616c7265616479206578697374732100000000000000600082015250565b6000610abf60198361090e565b9150610aca82610a89565b602082019050919050565b60006020820190508181036000830152610aee81610ab2565b9050919050565b7f4f776e61626c653a206e6577206f776e657220697320746865207a65726f206160008201527f6464726573730000000000000000000000000000000000000000000000000000602082015250565b6000610b5160268361090e565b9150610b5c82610af5565b604082019050919050565b60006020820190508181036000830152610b8081610b44565b905091905056fea2646970667358221220db2489cae2d7588ef0695bb12b8840d9b6f218079872bbcbc8b7f51e6562e40a64736f6c634300080e0033",
  "immutableReferences": {},
  "source": "// SPDX-License-Identifier: MIT\n\npragma solidity ^0.8.0;\n\nimport \"@openzeppelin/contracts/token/ERC20/IERC20.sol\";\nimport \"@openzeppelin/contracts/access/Ownable.sol\";\nimport \"./Hub.sol\";\n\n\ncontract AssertionRegistry is Ownable {\n\tHub public hub;\n\tIERC20 token;\n\n\taddress public TRAC_TOKEN_ADDRESS;\n\n\tstruct AssertionRecord{\n\t\tuint256 numberOfEpochs;\n\t\tuint256 creationTimestamp;\n\t\taddress issuer;\n\t\tbytes32 data; // for extensibility\n\t\t// TODO: include Token management\n\t}\n\n\tmapping(bytes32 => AssertionRecord) internal assertionRecords;\n\n\t// events\n\tevent AssertionCreated(bytes32 indexed assertionId, address indexed assertionIssuer, uint256 numberOfEpochs);\n//\tevent TokensCollected(bytes32 indexed assertionId, address indexed prover, uint256 indexed epoch, uint256 amount);\n//\tevent VerificationFailed(bytes32 indexed assertionId, address indexed prover, uint256 indexed epoch);\n\n\tconstructor(address hubAddress) {\n\t\trequire(hubAddress != address(0));\n\t\thub = Hub(hubAddress);\n\t}\n\n\t/* Sender */\n\tfunction createAssertionRecord(bytes32 assertionId, address issuer, uint256 numberOfEpochs) public {\n\t\trequire(assertionId != 0, \"assertionID hash cannot be zero\");\n\t\trequire(numberOfEpochs != 0, \"numberOfEpochs hash cannot be zero\");\n\t\trequire(assertionRecords[assertionId].creationTimestamp == 0, \"Assertion already exists!\");\n\n\t\tassertionRecords[assertionId].creationTimestamp = block.timestamp;\n\t\tassertionRecords[assertionId].issuer = issuer;\n\t\tassertionRecords[assertionId].numberOfEpochs = numberOfEpochs;\n\n\t\temit AssertionCreated(assertionId, issuer, numberOfEpochs);\n\t}\n\n\n\t/* Receiver */\n//\tfunction submitHoldingProof(bytes32 assertionID, bytes32 epochAssertionProof, uint256 epochNumber)\n//\tpublic {\n//\t\trequire(assertionID != 0, \"assertionID hash cannot be zero\");\n//\t\trequire(epochAssertionProof != 0, \"epochAssertionProof hash cannot be zero\");\n//\n//\t\tif (verifyAssertionProof(assertionID, epochAssertionProof)){\n//\t\t\temit TokensCollected(assertionID,msg.sender,epochNumber, 123);\n//\t\t\t} else {\n//\t\t\t\temit VerificationFailed(assertionID,msg.sender,epochNumber);\n//\t\t\t}\n//\n//\t}\n//\n//\tfunction verifyAssertionProof(bytes32 assertionID, bytes32 epochAssertionProof)\n//\t\tpublic returns(bool proofValid){\n//\t\treturn true;\n//\n//\t}\n\n\n\n\tfunction getAssertionIssuer(bytes32 assertionId)\n\tpublic view returns(address issuer){\n\t\treturn assertionRecords[assertionId].issuer;\n\t}\n\tfunction getAssertionNumberOfEpochs(bytes32 assertionId)\n\tpublic view returns(uint256 numberOfEpochs){\n\t\treturn assertionRecords[assertionId].numberOfEpochs;\n\t}\n\tfunction getAssertionCreationTimestamp(bytes32 assertionId)\n\tpublic view returns(uint256 numberOfEpochs){\n\t\treturn assertionRecords[assertionId].creationTimestamp;\n\t}\n\n}",
  "sourcePath": "/Users/miloskotlar/dkg-onchain-module-v6/contracts/AssertionRegistry.sol",
  "compiler": {
    "name": "solc",
    "version": "0.8.14+commit.80d49f37.Emscripten.clang"
  },
  "schemaVersion": "3.4.3",
  "updatedAt": "2022-07-01T16:38:23.976Z",
  "networkType": "ethereum",
  "devdoc": {
    "kind": "dev",
    "methods": {
      "owner()": {
        "details": "Returns the address of the current owner."
      },
      "renounceOwnership()": {
        "details": "Leaves the contract without owner. It will not be possible to call `onlyOwner` functions anymore. Can only be called by the current owner. NOTE: Renouncing ownership will leave the contract without an owner, thereby removing any functionality that is only available to the owner."
      },
      "transferOwnership(address)": {
        "details": "Transfers ownership of the contract to a new account (`newOwner`). Can only be called by the current owner."
      }
    },
    "version": 1
  },
  "userdoc": {
    "kind": "user",
    "methods": {},
    "version": 1
  }
}