{
  "contractName": "AssertionRegistry",
  "abi": [
    {
      "inputs": [],
      "stateMutability": "nonpayable",
      "type": "constructor"
    },
    {
      "anonymous": false,
      "inputs": [
        {
          "indexed": true,
          "internalType": "bytes32",
          "name": "assertionId",
          "type": "bytes32"
        },
        {
          "indexed": true,
          "internalType": "address",
          "name": "assertionIssuer",
          "type": "address"
        },
        {
          "indexed": false,
          "internalType": "uint256",
          "name": "numberOfEpochs",
          "type": "uint256"
        }
      ],
      "name": "AssertionCreated",
      "type": "event"
    },
    {
      "anonymous": false,
      "inputs": [
        {
          "indexed": true,
          "internalType": "address",
          "name": "previousOwner",
          "type": "address"
        },
        {
          "indexed": true,
          "internalType": "address",
          "name": "newOwner",
          "type": "address"
        }
      ],
      "name": "OwnershipTransferred",
      "type": "event"
    },
    {
      "inputs": [],
      "name": "TRAC_TOKEN_ADDRESS",
      "outputs": [
        {
          "internalType": "address",
          "name": "",
          "type": "address"
        }
      ],
      "stateMutability": "view",
      "type": "function",
      "constant": true
    },
    {
      "inputs": [],
      "name": "owner",
      "outputs": [
        {
          "internalType": "address",
          "name": "",
          "type": "address"
        }
      ],
      "stateMutability": "view",
      "type": "function",
      "constant": true
    },
    {
      "inputs": [],
      "name": "renounceOwnership",
      "outputs": [],
      "stateMutability": "nonpayable",
      "type": "function"
    },
    {
      "inputs": [
        {
          "internalType": "address",
          "name": "newOwner",
          "type": "address"
        }
      ],
      "name": "transferOwnership",
      "outputs": [],
      "stateMutability": "nonpayable",
      "type": "function"
    },
    {
      "inputs": [
        {
          "internalType": "bytes32",
          "name": "assertionId",
          "type": "bytes32"
        },
        {
          "internalType": "address",
          "name": "issuer",
          "type": "address"
        },
        {
          "internalType": "uint256",
          "name": "numberOfEpochs",
          "type": "uint256"
        }
      ],
      "name": "createAssertionRecord",
      "outputs": [],
      "stateMutability": "nonpayable",
      "type": "function"
    },
    {
      "inputs": [
        {
          "internalType": "bytes32",
          "name": "assertionId",
          "type": "bytes32"
        }
      ],
      "name": "getAssertionIssuer",
      "outputs": [
        {
          "internalType": "address",
          "name": "issuer",
          "type": "address"
        }
      ],
      "stateMutability": "view",
      "type": "function",
      "constant": true
    },
    {
      "inputs": [
        {
          "internalType": "bytes32",
          "name": "assertionId",
          "type": "bytes32"
        }
      ],
      "name": "getAssertionNumberOfEpochs",
      "outputs": [
        {
          "internalType": "uint256",
          "name": "numberOfEpochs",
          "type": "uint256"
        }
      ],
      "stateMutability": "view",
      "type": "function",
      "constant": true
    },
    {
      "inputs": [
        {
          "internalType": "bytes32",
          "name": "assertionId",
          "type": "bytes32"
        }
      ],
      "name": "getAssertionCreationTimestamp",
      "outputs": [
        {
          "internalType": "uint256",
          "name": "numberOfEpochs",
          "type": "uint256"
        }
      ],
      "stateMutability": "view",
      "type": "function",
      "constant": true
    },
    {
      "inputs": [
        {
          "internalType": "bytes32",
          "name": "assertionID",
          "type": "bytes32"
        },
        {
          "internalType": "uint256",
          "name": "epoch",
          "type": "uint256"
        }
      ],
      "name": "getAssertionTask",
      "outputs": [
        {
          "internalType": "uint256",
          "name": "task",
          "type": "uint256"
        }
      ],
      "stateMutability": "view",
      "type": "function",
      "constant": true
    }
  ],
  "bytecode": "0x608060405234801561001057600080fd5b5060006100216100c460201b60201c565b9050806000806101000a81548173ffffffffffffffffffffffffffffffffffffffff021916908373ffffffffffffffffffffffffffffffffffffffff1602179055508073ffffffffffffffffffffffffffffffffffffffff16600073ffffffffffffffffffffffffffffffffffffffff167f8be0079c531659141344cd1fd0a4f28419497f9722a3daafe3b4186f6b6457e060405160405180910390a3506100cc565b600033905090565b6109cb806100db6000396000f3fe608060405234801561001057600080fd5b50600436106100935760003560e01c80638f9cd32b116100665780638f9cd32b1461017a5780639e50e72c146101ae578063a7943efc146101f0578063b3138cb814610232578063f2fde38b1461028a57610093565b80630828e9f31461009857806308c4933b146100f0578063715018a61461013c5780638da5cb5b14610146575b600080fd5b6100c4600480360360208110156100ae57600080fd5b81019080803590602001909291905050506102ce565b604051808273ffffffffffffffffffffffffffffffffffffffff16815260200191505060405180910390f35b6101266004803603604081101561010657600080fd5b81019080803590602001909291908035906020019092919050505061030e565b6040518082815260200191505060405180910390f35b610144610319565b005b61014e610486565b604051808273ffffffffffffffffffffffffffffffffffffffff16815260200191505060405180910390f35b6101826104af565b604051808273ffffffffffffffffffffffffffffffffffffffff16815260200191505060405180910390f35b6101da600480360360208110156101c457600080fd5b81019080803590602001909291905050506104d5565b6040518082815260200191505060405180910390f35b61021c6004803603602081101561020657600080fd5b81019080803590602001909291905050506104f5565b6040518082815260200191505060405180910390f35b6102886004803603606081101561024857600080fd5b8101908080359060200190929190803573ffffffffffffffffffffffffffffffffffffffff16906020019092919080359060200190929190505050610515565b005b6102cc600480360360208110156102a057600080fd5b81019080803573ffffffffffffffffffffffffffffffffffffffff169060200190929190505050610753565b005b60006003600083815260200190815260200160002060020160009054906101000a900473ffffffffffffffffffffffffffffffffffffffff169050919050565b600043905092915050565b610321610945565b73ffffffffffffffffffffffffffffffffffffffff1661033f610486565b73ffffffffffffffffffffffffffffffffffffffff16146103c8576040517f08c379a00000000000000000000000000000000000000000000000000000000081526004018080602001828103825260208152602001807f4f776e61626c653a2063616c6c6572206973206e6f7420746865206f776e657281525060200191505060405180910390fd5b600073ffffffffffffffffffffffffffffffffffffffff1660008054906101000a900473ffffffffffffffffffffffffffffffffffffffff1673ffffffffffffffffffffffffffffffffffffffff167f8be0079c531659141344cd1fd0a4f28419497f9722a3daafe3b4186f6b6457e060405160405180910390a360008060006101000a81548173ffffffffffffffffffffffffffffffffffffffff021916908373ffffffffffffffffffffffffffffffffffffffff160217905550565b60008060009054906101000a900473ffffffffffffffffffffffffffffffffffffffff16905090565b600260009054906101000a900473ffffffffffffffffffffffffffffffffffffffff1681565b600060036000838152602001908152602001600020600001549050919050565b600060036000838152602001908152602001600020600101549050919050565b6000801b83141561058e576040517f08c379a000000000000000000000000000000000000000000000000000000000815260040180806020018281038252601f8152602001807f617373657274696f6e494420686173682063616e6e6f74206265207a65726f0081525060200191505060405180910390fd5b60008114156105e8576040517f08c379a00000000000000000000000000000000000000000000000000000000081526004018080602001828103825260228152602001806109746022913960400191505060405180910390fd5b6000600360008581526020019081526020016000206001015414610674576040517f08c379a00000000000000000000000000000000000000000000000000000000081526004018080602001828103825260198152602001807f417373657274696f6e20616c726561647920657869737473210000000000000081525060200191505060405180910390fd5b426003600085815260200190815260200160002060010181905550816003600085815260200190815260200160002060020160006101000a81548173ffffffffffffffffffffffffffffffffffffffff021916908373ffffffffffffffffffffffffffffffffffffffff1602179055508060036000858152602001908152602001600020600001819055508173ffffffffffffffffffffffffffffffffffffffff16837f15a8c334a100ee764c8aa7e728c35c591343fe7a34edeb0e8688e9cc3cc501ea836040518082815260200191505060405180910390a3505050565b61075b610945565b73ffffffffffffffffffffffffffffffffffffffff16610779610486565b73ffffffffffffffffffffffffffffffffffffffff1614610802576040517f08c379a00000000000000000000000000000000000000000000000000000000081526004018080602001828103825260208152602001807f4f776e61626c653a2063616c6c6572206973206e6f7420746865206f776e657281525060200191505060405180910390fd5b600073ffffffffffffffffffffffffffffffffffffffff168173ffffffffffffffffffffffffffffffffffffffff161415610888576040517f08c379a000000000000000000000000000000000000000000000000000000000815260040180806020018281038252602681526020018061094e6026913960400191505060405180910390fd5b8073ffffffffffffffffffffffffffffffffffffffff1660008054906101000a900473ffffffffffffffffffffffffffffffffffffffff1673ffffffffffffffffffffffffffffffffffffffff167f8be0079c531659141344cd1fd0a4f28419497f9722a3daafe3b4186f6b6457e060405160405180910390a3806000806101000a81548173ffffffffffffffffffffffffffffffffffffffff021916908373ffffffffffffffffffffffffffffffffffffffff16021790555050565b60003390509056fe4f776e61626c653a206e6577206f776e657220697320746865207a65726f20616464726573736e756d6265724f6645706f63687320686173682063616e6e6f74206265207a65726fa2646970667358221220dda614211b5ff30f874e825c2f00deb50bcc1778d0066fbadc0f250f71b192d264736f6c63430007060033",
  "immutableReferences": {},
  "source": "pragma solidity >=0.6.0 <0.8.0;\n\nimport \"openzeppelin-solidity/contracts/token/ERC20/IERC20.sol\";\nimport \"openzeppelin-solidity/contracts/math/SafeMath.sol\";\nimport \"openzeppelin-solidity/contracts/access/Ownable.sol\";\n\n\ncontract AssertionRegistry is Ownable {\n\tusing SafeMath for uint256;\n\tIERC20 token;\n\n\taddress public TRAC_TOKEN_ADDRESS;\n\n\tstruct AssertionRecord{\n\t\tuint256 numberOfEpochs;\n\t\tuint256 creationTimestamp;\n\t\taddress issuer;\n\t\tbytes32 data; // for extensibility\n\t\t// TODO: include Token management\n\t}\n\n\tmapping(bytes32 => AssertionRecord) internal assertionRecords;\n\n\t// events\n\tevent AssertionCreated(bytes32 indexed assertionId, address indexed assertionIssuer, uint256 numberOfEpochs);\n//\tevent TokensCollected(bytes32 indexed assertionId, address indexed prover, uint256 indexed epoch, uint256 amount);\n//\tevent VerificationFailed(bytes32 indexed assertionId, address indexed prover, uint256 indexed epoch);\n\n\tconstructor() public {\n\n\t}\n\n\t/* Sender */\n\tfunction createAssertionRecord(bytes32 assertionId, address issuer, uint256 numberOfEpochs) public {\n\t\trequire(assertionId != 0, \"assertionID hash cannot be zero\");\n\t\trequire(numberOfEpochs != 0, \"numberOfEpochs hash cannot be zero\");\n\t\trequire(assertionRecords[assertionId].creationTimestamp== 0, \"Assertion already exists!\");\n\n\t\tassertionRecords[assertionId].creationTimestamp = block.timestamp;\n\t\tassertionRecords[assertionId].issuer = issuer;\n\t\tassertionRecords[assertionId].numberOfEpochs = numberOfEpochs;\n\n\t\temit AssertionCreated(assertionId, issuer, numberOfEpochs);\n\t}\n\n\n\t/* Receiver */\n//\tfunction submitHoldingProof(bytes32 assertionID, bytes32 epochAssertionProof, uint256 epochNumber)\n//\tpublic {\n//\t\trequire(assertionID != 0, \"assertionID hash cannot be zero\");\n//\t\trequire(epochAssertionProof != 0, \"epochAssertionProof hash cannot be zero\");\n//\n//\t\tif (verifyAssertionProof(assertionID, epochAssertionProof)){\n//\t\t\temit TokensCollected(assertionID,msg.sender,epochNumber, 123);\n//\t\t\t} else {\n//\t\t\t\temit VerificationFailed(assertionID,msg.sender,epochNumber);\n//\t\t\t}\n//\n//\t}\n//\n//\tfunction verifyAssertionProof(bytes32 assertionID, bytes32 epochAssertionProof)\n//\t\tpublic returns(bool proofValid){\n//\t\treturn true;\n//\n//\t}\n\n\n\n\tfunction getAssertionIssuer(bytes32 assertionId)\n\tpublic view returns(address issuer){\n\t\treturn assertionRecords[assertionId].issuer;\n\t}\n\tfunction getAssertionNumberOfEpochs(bytes32 assertionId)\n\tpublic view returns(uint256 numberOfEpochs){\n\t\treturn assertionRecords[assertionId].numberOfEpochs;\n\t}\n\tfunction getAssertionCreationTimestamp(bytes32 assertionId)\n\tpublic view returns(uint256 numberOfEpochs){\n\t\treturn assertionRecords[assertionId].creationTimestamp;\n\t}\n\tfunction getAssertionTask(bytes32 assertionID, uint256 epoch)\n\tpublic view returns(uint256 task){\n\t\treturn block.number;\n\t}\n\n}",
  "sourcePath": "/Users/miloskotlar/dkg-onchain-module-v6/contracts/AssertionRegistry.sol",
  "compiler": {
    "name": "solc",
    "version": "0.7.6+commit.7338295f.Emscripten.clang"
  },
  "schemaVersion": "3.4.3",
  "updatedAt": "2022-04-28T15:58:17.599Z",
  "networkType": "ethereum",
  "devdoc": {
    "kind": "dev",
    "methods": {
      "owner()": {
        "details": "Returns the address of the current owner."
      },
      "renounceOwnership()": {
        "details": "Leaves the contract without owner. It will not be possible to call `onlyOwner` functions anymore. Can only be called by the current owner. NOTE: Renouncing ownership will leave the contract without an owner, thereby removing any functionality that is only available to the owner."
      },
      "transferOwnership(address)": {
        "details": "Transfers ownership of the contract to a new account (`newOwner`). Can only be called by the current owner."
      }
    },
    "version": 1
  },
  "userdoc": {
    "kind": "user",
    "methods": {},
    "version": 1
  }
}