{
  "contractName": "DKGcontract",
  "abi": [
    {
      "inputs": [
        {
          "internalType": "address",
          "name": "token_address",
          "type": "address"
        }
      ],
      "stateMutability": "nonpayable",
      "type": "constructor"
    },
    {
      "anonymous": false,
      "inputs": [
        {
          "indexed": true,
          "internalType": "bytes32",
          "name": "assertionID",
          "type": "bytes32"
        },
        {
          "indexed": true,
          "internalType": "bytes32",
          "name": "rootHash",
          "type": "bytes32"
        },
        {
          "indexed": true,
          "internalType": "address",
          "name": "assertionIssuer",
          "type": "address"
        },
        {
          "indexed": false,
          "internalType": "uint256",
          "name": "numberOfEpochs",
          "type": "uint256"
        },
        {
          "indexed": false,
          "internalType": "uint256",
          "name": "assertionTimeToLive",
          "type": "uint256"
        }
      ],
      "name": "AssertionCreated",
      "type": "event"
    },
    {
      "anonymous": false,
      "inputs": [
        {
          "indexed": true,
          "internalType": "address",
          "name": "previousOwner",
          "type": "address"
        },
        {
          "indexed": true,
          "internalType": "address",
          "name": "newOwner",
          "type": "address"
        }
      ],
      "name": "OwnershipTransferred",
      "type": "event"
    },
    {
      "anonymous": false,
      "inputs": [
        {
          "indexed": true,
          "internalType": "address",
          "name": "token",
          "type": "address"
        }
      ],
      "name": "TokenAddressSet",
      "type": "event"
    },
    {
      "anonymous": false,
      "inputs": [
        {
          "indexed": true,
          "internalType": "bytes32",
          "name": "assertionID",
          "type": "bytes32"
        },
        {
          "indexed": true,
          "internalType": "address",
          "name": "prover",
          "type": "address"
        },
        {
          "indexed": true,
          "internalType": "uint256",
          "name": "epoch",
          "type": "uint256"
        },
        {
          "indexed": false,
          "internalType": "uint256",
          "name": "amount",
          "type": "uint256"
        }
      ],
      "name": "TokensCollected",
      "type": "event"
    },
    {
      "anonymous": false,
      "inputs": [
        {
          "indexed": true,
          "internalType": "bytes32",
          "name": "assertionID",
          "type": "bytes32"
        },
        {
          "indexed": true,
          "internalType": "address",
          "name": "prover",
          "type": "address"
        },
        {
          "indexed": true,
          "internalType": "uint256",
          "name": "epoch",
          "type": "uint256"
        }
      ],
      "name": "VerificationFailed",
      "type": "event"
    },
    {
      "inputs": [],
      "name": "TRAC_TOKEN_ADDRESS",
      "outputs": [
        {
          "internalType": "address",
          "name": "",
          "type": "address"
        }
      ],
      "stateMutability": "view",
      "type": "function",
      "constant": true
    },
    {
      "inputs": [],
      "name": "owner",
      "outputs": [
        {
          "internalType": "address",
          "name": "",
          "type": "address"
        }
      ],
      "stateMutability": "view",
      "type": "function",
      "constant": true
    },
    {
      "inputs": [],
      "name": "renounceOwnership",
      "outputs": [],
      "stateMutability": "nonpayable",
      "type": "function"
    },
    {
      "inputs": [
        {
          "internalType": "address",
          "name": "newOwner",
          "type": "address"
        }
      ],
      "name": "transferOwnership",
      "outputs": [],
      "stateMutability": "nonpayable",
      "type": "function"
    },
    {
      "inputs": [
        {
          "internalType": "bytes32",
          "name": "assertionID",
          "type": "bytes32"
        },
        {
          "internalType": "bytes32",
          "name": "rootHash",
          "type": "bytes32"
        },
        {
          "internalType": "uint256",
          "name": "numberOfEpochs",
          "type": "uint256"
        },
        {
          "internalType": "uint256",
          "name": "assertionTimeToLive",
          "type": "uint256"
        }
      ],
      "name": "createAssertionRecord",
      "outputs": [],
      "stateMutability": "nonpayable",
      "type": "function"
    },
    {
      "inputs": [
        {
          "internalType": "bytes32",
          "name": "assertionID",
          "type": "bytes32"
        },
        {
          "internalType": "bytes32",
          "name": "epochAssertionProof",
          "type": "bytes32"
        },
        {
          "internalType": "uint256",
          "name": "epochNumber",
          "type": "uint256"
        }
      ],
      "name": "submitHoldingProof",
      "outputs": [],
      "stateMutability": "nonpayable",
      "type": "function"
    },
    {
      "inputs": [
        {
          "internalType": "bytes32",
          "name": "assertionID",
          "type": "bytes32"
        },
        {
          "internalType": "bytes32",
          "name": "epochAssertionProof",
          "type": "bytes32"
        }
      ],
      "name": "verifyAssertionProof",
      "outputs": [
        {
          "internalType": "bool",
          "name": "proofValid",
          "type": "bool"
        }
      ],
      "stateMutability": "nonpayable",
      "type": "function"
    },
    {
      "inputs": [
        {
          "internalType": "bytes32",
          "name": "assertionID",
          "type": "bytes32"
        }
      ],
      "name": "getAssertionIssuer",
      "outputs": [
        {
          "internalType": "address",
          "name": "creator",
          "type": "address"
        }
      ],
      "stateMutability": "view",
      "type": "function",
      "constant": true
    },
    {
      "inputs": [
        {
          "internalType": "bytes32",
          "name": "assertionID",
          "type": "bytes32"
        }
      ],
      "name": "getAssertionRootHash",
      "outputs": [
        {
          "internalType": "bytes32",
          "name": "rootHash",
          "type": "bytes32"
        }
      ],
      "stateMutability": "view",
      "type": "function",
      "constant": true
    },
    {
      "inputs": [
        {
          "internalType": "bytes32",
          "name": "assertionID",
          "type": "bytes32"
        }
      ],
      "name": "getAssertionTimeToLive",
      "outputs": [
        {
          "internalType": "uint256",
          "name": "timeToLive",
          "type": "uint256"
        }
      ],
      "stateMutability": "view",
      "type": "function",
      "constant": true
    },
    {
      "inputs": [
        {
          "internalType": "bytes32",
          "name": "assertionID",
          "type": "bytes32"
        }
      ],
      "name": "getAssertionNumberOfEpochs",
      "outputs": [
        {
          "internalType": "uint256",
          "name": "numberOfEpochs",
          "type": "uint256"
        }
      ],
      "stateMutability": "view",
      "type": "function",
      "constant": true
    },
    {
      "inputs": [
        {
          "internalType": "bytes32",
          "name": "assertionID",
          "type": "bytes32"
        },
        {
          "internalType": "uint256",
          "name": "epoch",
          "type": "uint256"
        }
      ],
      "name": "getAssertionTask",
      "outputs": [
        {
          "internalType": "uint256",
          "name": "task",
          "type": "uint256"
        }
      ],
      "stateMutability": "view",
      "type": "function",
      "constant": true
    }
  ],
  "bytecode": "0x608060405234801561001057600080fd5b506040516110673803806110678339818101604052602081101561003357600080fd5b810190808051906020019092919050505060006100546101f760201b60201c565b9050806000806101000a81548173ffffffffffffffffffffffffffffffffffffffff021916908373ffffffffffffffffffffffffffffffffffffffff1602179055508073ffffffffffffffffffffffffffffffffffffffff16600073ffffffffffffffffffffffffffffffffffffffff167f8be0079c531659141344cd1fd0a4f28419497f9722a3daafe3b4186f6b6457e060405160405180910390a350600073ffffffffffffffffffffffffffffffffffffffff168173ffffffffffffffffffffffffffffffffffffffff16141561012c57600080fd5b80600160006101000a81548173ffffffffffffffffffffffffffffffffffffffff021916908373ffffffffffffffffffffffffffffffffffffffff16021790555080600260006101000a81548173ffffffffffffffffffffffffffffffffffffffff021916908373ffffffffffffffffffffffffffffffffffffffff1602179055508073ffffffffffffffffffffffffffffffffffffffff167fd82cad5fdc98633445b90f806f2e1a61a5409f92187ee9cd87f1da18c906926660405160405180910390a2506101ff565b600033905090565b610e598061020e6000396000f3fe608060405234801561001057600080fd5b50600436106100b45760003560e01c80638da5cb5b116100715780638da5cb5b1461025b5780638f9cd32b146102a55780639e50e72c146102ef578063b934b4e414610331578063ce64c64314610373578063f2fde38b146103b5576100b4565b80630828e9f3146100b957806308c4933b14610127578063193f9c7e146101735780636988bc03146101c3578063715018a61461020557806373a773891461020f575b600080fd5b6100e5600480360360208110156100cf57600080fd5b81019080803590602001909291905050506103f9565b604051808273ffffffffffffffffffffffffffffffffffffffff1673ffffffffffffffffffffffffffffffffffffffff16815260200191505060405180910390f35b61015d6004803603604081101561013d57600080fd5b810190808035906020019092919080359060200190929190505050610436565b6040518082815260200191505060405180910390f35b6101a96004803603604081101561018957600080fd5b810190808035906020019092919080359060200190929190505050610441565b604051808215151515815260200191505060405180910390f35b6101ef600480360360208110156101d957600080fd5b810190808035906020019092919050505061044d565b6040518082815260200191505060405180910390f35b61020d61046d565b005b6102596004803603608081101561022557600080fd5b81019080803590602001909291908035906020019092919080359060200190929190803590602001909291905050506105db565b005b61026361097e565b604051808273ffffffffffffffffffffffffffffffffffffffff1673ffffffffffffffffffffffffffffffffffffffff16815260200191505060405180910390f35b6102ad6109a7565b604051808273ffffffffffffffffffffffffffffffffffffffff1673ffffffffffffffffffffffffffffffffffffffff16815260200191505060405180910390f35b61031b6004803603602081101561030557600080fd5b81019080803590602001909291905050506109cd565b6040518082815260200191505060405180910390f35b61035d6004803603602081101561034757600080fd5b81019080803590602001909291905050506109ed565b6040518082815260200191505060405180910390f35b6103b36004803603606081101561038957600080fd5b81019080803590602001909291908035906020019092919080359060200190929190505050610a0d565b005b6103f7600480360360208110156103cb57600080fd5b81019080803573ffffffffffffffffffffffffffffffffffffffff169060200190929190505050610b92565b005b60006004600083815260200190815260200160002060009054906101000a900473ffffffffffffffffffffffffffffffffffffffff169050919050565b600043905092915050565b60006001905092915050565b600060036000838152602001908152602001600020600001549050919050565b610475610d85565b73ffffffffffffffffffffffffffffffffffffffff1661049361097e565b73ffffffffffffffffffffffffffffffffffffffff161461051c576040517f08c379a00000000000000000000000000000000000000000000000000000000081526004018080602001828103825260208152602001807f4f776e61626c653a2063616c6c6572206973206e6f7420746865206f776e657281525060200191505060405180910390fd5b600073ffffffffffffffffffffffffffffffffffffffff166000809054906101000a900473ffffffffffffffffffffffffffffffffffffffff1673ffffffffffffffffffffffffffffffffffffffff167f8be0079c531659141344cd1fd0a4f28419497f9722a3daafe3b4186f6b6457e060405160405180910390a360008060006101000a81548173ffffffffffffffffffffffffffffffffffffffff021916908373ffffffffffffffffffffffffffffffffffffffff160217905550565b6000801b841415610654576040517f08c379a000000000000000000000000000000000000000000000000000000000815260040180806020018281038252601f8152602001807f617373657274696f6e494420686173682063616e6e6f74206265207a65726f0081525060200191505060405180910390fd5b6000801b8314156106cd576040517f08c379a000000000000000000000000000000000000000000000000000000000815260040180806020018281038252601c8152602001807f726f6f744861736820686173682063616e6e6f74206265207a65726f0000000081525060200191505060405180910390fd5b6000821415610727576040517f08c379a0000000000000000000000000000000000000000000000000000000008152600401808060200182810382526022815260200180610e026022913960400191505060405180910390fd5b6000811415610781576040517f08c379a0000000000000000000000000000000000000000000000000000000008152600401808060200182810382526027815260200180610d8e6027913960400191505060405180910390fd5b600060036000868152602001908152602001600020600201541461080d576040517f08c379a00000000000000000000000000000000000000000000000000000000081526004018080602001828103825260198152602001807f417373657274696f6e20616c726561647920657869737473210000000000000081525060200191505060405180910390fd5b816003600086815260200190815260200160002060010181905550806003600086815260200190815260200160002060000181905550426003600086815260200190815260200160002060020181905550826003600086815260200190815260200160002060040181905550336003600086815260200190815260200160002060030160006101000a81548173ffffffffffffffffffffffffffffffffffffffff021916908373ffffffffffffffffffffffffffffffffffffffff160217905550336004600086815260200190815260200160002060006101000a81548173ffffffffffffffffffffffffffffffffffffffff021916908373ffffffffffffffffffffffffffffffffffffffff1602179055503373ffffffffffffffffffffffffffffffffffffffff1683857f25e2604032d2f5a218a9bed084fc10fd98b83e3b86a79ba39c214095984250168585604051808381526020018281526020019250505060405180910390a450505050565b60008060009054906101000a900473ffffffffffffffffffffffffffffffffffffffff16905090565b600260009054906101000a900473ffffffffffffffffffffffffffffffffffffffff1681565b600060036000838152602001908152602001600020600101549050919050565b600060036000838152602001908152602001600020600401549050919050565b6000801b831415610a86576040517f08c379a000000000000000000000000000000000000000000000000000000000815260040180806020018281038252601f8152602001807f617373657274696f6e494420686173682063616e6e6f74206265207a65726f0081525060200191505060405180910390fd5b6000801b821415610ae2576040517f08c379a0000000000000000000000000000000000000000000000000000000008152600401808060200182810382526027815260200180610ddb6027913960400191505060405180910390fd5b610aec8383610441565b15610b4757803373ffffffffffffffffffffffffffffffffffffffff16847fce001fcd900079c312eaa96f5c1c389ffe207eb41e90197f5a011668b58ef598607b6040518082815260200191505060405180910390a4610b8d565b803373ffffffffffffffffffffffffffffffffffffffff16847f37d4188105d31e43e2177257c4e9cc2c8eda5c0783943eb00abe942ac687b03a60405160405180910390a45b505050565b610b9a610d85565b73ffffffffffffffffffffffffffffffffffffffff16610bb861097e565b73ffffffffffffffffffffffffffffffffffffffff1614610c41576040517f08c379a00000000000000000000000000000000000000000000000000000000081526004018080602001828103825260208152602001807f4f776e61626c653a2063616c6c6572206973206e6f7420746865206f776e657281525060200191505060405180910390fd5b600073ffffffffffffffffffffffffffffffffffffffff168173ffffffffffffffffffffffffffffffffffffffff161415610cc7576040517f08c379a0000000000000000000000000000000000000000000000000000000008152600401808060200182810382526026815260200180610db56026913960400191505060405180910390fd5b8073ffffffffffffffffffffffffffffffffffffffff166000809054906101000a900473ffffffffffffffffffffffffffffffffffffffff1673ffffffffffffffffffffffffffffffffffffffff167f8be0079c531659141344cd1fd0a4f28419497f9722a3daafe3b4186f6b6457e060405160405180910390a3806000806101000a81548173ffffffffffffffffffffffffffffffffffffffff021916908373ffffffffffffffffffffffffffffffffffffffff16021790555050565b60003390509056fe617373657274696f6e54696d65546f4c69766520686173682063616e6e6f74206265207a65726f4f776e61626c653a206e6577206f776e657220697320746865207a65726f206164647265737365706f6368417373657274696f6e50726f6f6620686173682063616e6e6f74206265207a65726f6e756d6265724f6645706f63687320686173682063616e6e6f74206265207a65726fa2646970667358221220d151e176ae4d67c504e535c636330af1f8b3721ef6dd169fa6e164193c3cb83164736f6c634300060a0033",
  "immutableReferences": {},
  "source": "pragma solidity 0.6.10;\n\nimport \"openzeppelin-solidity/contracts/token/ERC20/IERC20.sol\";\nimport \"openzeppelin-solidity/contracts/math/SafeMath.sol\";\nimport \"openzeppelin-solidity/contracts/access/Ownable.sol\";\n\n\n// mock contract for now, we will add the hub and the rest later\ncontract DKGcontract is Ownable {\n\n\n\tusing SafeMath for uint256;\n\tIERC20 token;\n\n\taddress public TRAC_TOKEN_ADDRESS;\n\n\tstruct AssertionRecord{\n\t\t// bytes32 assertionID; // hash (multihash) of the assertion\n\t\tuint256 assertionTimeToLive;\n\t\tuint256 numberOfEpochs;\n\t\tuint256 creationTime;\n\t\taddress issuer;\n\t\tbytes32 rootHash;\n\t\tbytes32 data; // for extensibility\n\t\t// TODO: include Token management\n\t}\n\n\tmapping(bytes32 => AssertionRecord) internal assertionRecord; // assertionRecord[assertionID] , formerly offer[offerID]\n\tmapping(bytes32 => address) internal assertionIssuer; // mapping assertionID -> assertionIssuer\n\n\n\t// events\n\tevent TokenAddressSet(address indexed token);\n\tevent AssertionCreated(bytes32 indexed assertionID, bytes32 indexed rootHash, address indexed assertionIssuer, uint256 numberOfEpochs, uint256 assertionTimeToLive);\n\tevent TokensCollected(bytes32 indexed assertionID, address indexed prover, uint256 indexed epoch, uint256 amount);\n\tevent VerificationFailed(bytes32 indexed assertionID, address indexed prover, uint256 indexed epoch);\n\n\n\n\tconstructor(address token_address)  public {\n\t\trequire(token_address!=address(0));\n\t\ttoken = IERC20(token_address);\n\t\tTRAC_TOKEN_ADDRESS = token_address;\n\t\t\n\t\temit TokenAddressSet(token_address);\n\n\t}\n\n\t/* DC */\n\tfunction createAssertionRecord(bytes32 assertionID, bytes32 rootHash, uint256 numberOfEpochs, uint256 assertionTimeToLive) public {\n\t\trequire(assertionID != 0, \"assertionID hash cannot be zero\");\n\t\trequire(rootHash != 0, \"rootHash hash cannot be zero\");\n\t\trequire(numberOfEpochs != 0, \"numberOfEpochs hash cannot be zero\");\n\t\trequire(assertionTimeToLive != 0, \"assertionTimeToLive hash cannot be zero\");\n\t\trequire(assertionRecord[assertionID].creationTime==0, \"Assertion already exists!\");\n\n\t\t// transfer token to contract here (next version)\n\n\t\tassertionRecord[assertionID].numberOfEpochs = numberOfEpochs;\n\t\tassertionRecord[assertionID].assertionTimeToLive = assertionTimeToLive;\n\t\tassertionRecord[assertionID].creationTime = block.timestamp;\n\t\tassertionRecord[assertionID].rootHash = rootHash;\n\t\tassertionRecord[assertionID].issuer = msg.sender;\n\t\tassertionIssuer[assertionID] = msg.sender;\n\n\t\temit AssertionCreated(assertionID,rootHash,msg.sender,numberOfEpochs,assertionTimeToLive);\n\t}\n\n\n\t/* DH */\n\n\tfunction submitHoldingProof(bytes32 assertionID, bytes32 epochAssertionProof, uint256 epochNumber) \n\tpublic {\n\t\trequire(assertionID != 0, \"assertionID hash cannot be zero\");\n\t\trequire(epochAssertionProof != 0, \"epochAssertionProof hash cannot be zero\");\n\n\t\tif (verifyAssertionProof(assertionID, epochAssertionProof)){\n\t\t\temit TokensCollected(assertionID,msg.sender,epochNumber, 123);\n\t\t\t} else {\n\t\t\t\temit VerificationFailed(assertionID,msg.sender,epochNumber);\n\t\t\t}\n\n\t}\n\n\n\n\tfunction verifyAssertionProof(bytes32 assertionID, bytes32 epochAssertionProof) \n\t\tpublic returns(bool proofValid){\n\t\treturn true;\n\n\t}\n\n\n\n\tfunction getAssertionIssuer(bytes32 assertionID)\n\tpublic view returns(address creator){\n\t\treturn assertionIssuer[assertionID];\n\t}\n\tfunction getAssertionRootHash(bytes32 assertionID)\n\tpublic view returns(bytes32 rootHash){\n\t\treturn assertionRecord[assertionID].rootHash;\n\t}\n\tfunction getAssertionTimeToLive(bytes32 assertionID)\n\tpublic view returns(uint256 timeToLive){\n\t\treturn assertionRecord[assertionID].assertionTimeToLive;\n\t}\n\tfunction getAssertionNumberOfEpochs(bytes32 assertionID)\n\tpublic view returns(uint256 numberOfEpochs){\n\t\treturn assertionRecord[assertionID].numberOfEpochs;\n\t}\n\n\tfunction getAssertionTask(bytes32 assertionID, uint256 epoch)\n\tpublic view returns(uint256 task){\n\t\treturn block.number;\n\t}\n\n}",
  "sourcePath": "/Users/miloskotlar/dkg-onchain-module-v6/contracts/DKGcontract.sol",
  "compiler": {
    "name": "solc",
    "version": "0.6.10+commit.00c0fcaf.Emscripten.clang"
  },
  "schemaVersion": "3.4.3",
  "updatedAt": "2021-12-23T09:55:43.111Z",
  "networkType": "ethereum",
  "devdoc": {
    "methods": {
      "owner()": {
        "details": "Returns the address of the current owner."
      },
      "renounceOwnership()": {
        "details": "Leaves the contract without owner. It will not be possible to call `onlyOwner` functions anymore. Can only be called by the current owner. NOTE: Renouncing ownership will leave the contract without an owner, thereby removing any functionality that is only available to the owner."
      },
      "transferOwnership(address)": {
        "details": "Transfers ownership of the contract to a new account (`newOwner`). Can only be called by the current owner."
      }
    }
  },
  "userdoc": {
    "methods": {}
  }
}