{
  "contractName": "Identity",
  "abi": [
    {
      "inputs": [
        {
          "internalType": "address",
          "name": "operational",
          "type": "address"
        },
        {
          "internalType": "address",
          "name": "management",
          "type": "address"
        }
      ],
      "stateMutability": "nonpayable",
      "type": "constructor"
    },
    {
      "anonymous": false,
      "inputs": [
        {
          "indexed": true,
          "internalType": "bytes32",
          "name": "key",
          "type": "bytes32"
        },
        {
          "indexed": true,
          "internalType": "uint256",
          "name": "purpose",
          "type": "uint256"
        },
        {
          "indexed": true,
          "internalType": "uint256",
          "name": "keyType",
          "type": "uint256"
        }
      ],
      "name": "KeyAdded",
      "type": "event"
    },
    {
      "anonymous": false,
      "inputs": [
        {
          "indexed": true,
          "internalType": "bytes32",
          "name": "key",
          "type": "bytes32"
        },
        {
          "indexed": true,
          "internalType": "uint256",
          "name": "purpose",
          "type": "uint256"
        },
        {
          "indexed": true,
          "internalType": "uint256",
          "name": "keyType",
          "type": "uint256"
        }
      ],
      "name": "KeyRemoved",
      "type": "event"
    },
    {
      "inputs": [
        {
          "internalType": "bytes32",
          "name": "_key",
          "type": "bytes32"
        }
      ],
      "name": "getKey",
      "outputs": [
        {
          "internalType": "uint256",
          "name": "purpose",
          "type": "uint256"
        },
        {
          "internalType": "uint256",
          "name": "keyType",
          "type": "uint256"
        },
        {
          "internalType": "bytes32",
          "name": "key",
          "type": "bytes32"
        }
      ],
      "stateMutability": "view",
      "type": "function"
    },
    {
      "inputs": [
        {
          "internalType": "bytes32",
          "name": "_key",
          "type": "bytes32"
        },
        {
          "internalType": "uint256",
          "name": "_purpose",
          "type": "uint256"
        }
      ],
      "name": "keyHasPurpose",
      "outputs": [
        {
          "internalType": "bool",
          "name": "result",
          "type": "bool"
        }
      ],
      "stateMutability": "view",
      "type": "function"
    },
    {
      "inputs": [
        {
          "internalType": "uint256",
          "name": "_purpose",
          "type": "uint256"
        }
      ],
      "name": "getKeysByPurpose",
      "outputs": [
        {
          "internalType": "bytes32[]",
          "name": "_keys",
          "type": "bytes32[]"
        }
      ],
      "stateMutability": "view",
      "type": "function"
    },
    {
      "inputs": [
        {
          "internalType": "bytes32",
          "name": "_key",
          "type": "bytes32"
        },
        {
          "internalType": "uint256",
          "name": "_purpose",
          "type": "uint256"
        },
        {
          "internalType": "uint256",
          "name": "_type",
          "type": "uint256"
        }
      ],
      "name": "addKey",
      "outputs": [
        {
          "internalType": "bool",
          "name": "",
          "type": "bool"
        }
      ],
      "stateMutability": "nonpayable",
      "type": "function"
    },
    {
      "inputs": [
        {
          "internalType": "bytes32",
          "name": "_key",
          "type": "bytes32"
        }
      ],
      "name": "removeKey",
      "outputs": [
        {
          "internalType": "bool",
          "name": "",
          "type": "bool"
        }
      ],
      "stateMutability": "nonpayable",
      "type": "function"
    }
  ],
  "bytecode": "0x6080604052600160005560026001553480156200001b57600080fd5b506040516200101638038062001016833981810160405281019062000041919062000360565b600073ffffffffffffffffffffffffffffffffffffffff168273ffffffffffffffffffffffffffffffffffffffff1614158015620000ac5750600073ffffffffffffffffffffffffffffffffffffffff168173ffffffffffffffffffffffffffffffffffffffff1614155b620000b657600080fd5b600081604051602001620000cb9190620003f7565b6040516020818303038152906040528051906020012090508060026000838152602001908152602001600020600201819055506001600260008381526020019081526020016000206001018190555060016002600083815260200190815260200160002060000181905550600360006001815260200190815260200160002081908060018154018082558091505060019003906000526020600020016000909190919091505560016002600083815260200190815260200160002060000154827f480000bb1edad8ca1470381cc334b1917fbd51c6531f3a623ea8e0ec7e38a6e960405160405180910390a48173ffffffffffffffffffffffffffffffffffffffff168373ffffffffffffffffffffffffffffffffffffffff1614620002ed57600083604051602001620002009190620003f7565b60405160208183030381529060405280519060200120905080600260008381526020019081526020016000206002018190555060016002600083815260200190815260200160002060010181905550600280600083815260200190815260200160002060000181905550600360006002815260200190815260200160002081908060018154018082558091505060019003906000526020600020016000909190919091505560016002600083815260200190815260200160002060000154827f480000bb1edad8ca1470381cc334b1917fbd51c6531f3a623ea8e0ec7e38a6e960405160405180910390a4505b50505062000414565b600080fd5b600073ffffffffffffffffffffffffffffffffffffffff82169050919050565b60006200032882620002fb565b9050919050565b6200033a816200031b565b81146200034657600080fd5b50565b6000815190506200035a816200032f565b92915050565b600080604083850312156200037a5762000379620002f6565b5b60006200038a8582860162000349565b92505060206200039d8582860162000349565b9150509250929050565b60008160601b9050919050565b6000620003c182620003a7565b9050919050565b6000620003d582620003b4565b9050919050565b620003f1620003eb826200031b565b620003c8565b82525050565b6000620004058284620003dc565b60148201915081905092915050565b610bf280620004246000396000f3fe608060405234801561001057600080fd5b50600436106100575760003560e01c806312aaac701461005c5780631d3812401461008e578063862642f5146100be5780639010f726146100ee578063d202158d1461011e575b600080fd5b610076600480360381019061007191906106ed565b61014e565b60405161008593929190610742565b60405180910390f35b6100a860048036038101906100a391906107a5565b6101a5565b6040516100b59190610813565b60405180910390f35b6100d860048036038101906100d391906106ed565b6102d7565b6040516100e59190610813565b60405180910390f35b6101086004803603810190610103919061082e565b6104de565b6040516101159190610919565b60405180910390f35b6101386004803603810190610133919061093b565b610549565b6040516101459190610813565b60405180910390f35b60008060006002600085815260200190815260200160002060000154600260008681526020019081526020016000206001015460026000878152602001908152602001600020600201549250925092509193909250565b60006101d8336040516020016101bb91906109f5565b604051602081830303815290604052805190602001206001610549565b6101e157600080fd5b6000801b84036101f057600080fd5b8360026000868152602001908152602001600020600201540361021257600080fd5b836002600086815260200190815260200160002060020181905550826002600086815260200190815260200160002060000181905550816002600086815260200190815260200160002060010181905550600360008481526020019081526020016000208490806001815401808255809150506001900390600052602060002001600090919091909150558183857f480000bb1edad8ca1470381cc334b1917fbd51c6531f3a623ea8e0ec7e38a6e960405160405180910390a4600190509392505050565b600061030a336040516020016102ed91906109f5565b604051602081830303815290604052805190602001206001610549565b61031357600080fd5b6000801b820361032257600080fd5b8160026000848152602001908152602001600020600201541461034457600080fd5b60016003600060018152602001908152602001600020805490501480156103725750610371826001610549565b5b156103b2576040517f08c379a00000000000000000000000000000000000000000000000000000000081526004016103a990610a93565b60405180910390fd5b6002600083815260200190815260200160002060010154600260008481526020019081526020016000206000015460026000858152602001908152602001600020600201547f585a4aef50f8267a92b32412b331b20f7f8b96f2245b253b9cc50dcc621d339760405160405180910390a460008061046184600360006002600089815260200190815260200160002060000154815260200190815260200160002061056c90919063ffffffff16565b80925081935050506104a48260036000600260008981526020019081526020016000206000015481526020019081526020016000206105d290919063ffffffff16565b5060026000858152602001908152602001600020600080820160009055600182016000905560028201600090555050600192505050919050565b60606003600083815260200190815260200160002080548060200260200160405190810160405280929190818152602001828054801561053d57602002820191906000526020600020905b815481526020019060010190808311610529575b50505050509050919050565b600081600260008581526020019081526020016000206000015414905092915050565b60008060005b84805490508110156105c2578385828154811061059257610591610ab3565b5b9060005260206000200154036105af5780600192509250506105cb565b80806105ba90610b11565b915050610572565b50600080915091505b9250929050565b6060828054905082106105e457600080fd5b82600184805490506105f69190610b59565b8154811061060757610606610ab3565b5b906000526020600020015483838154811061062557610624610ab3565b5b90600052602060002001819055508280548061064457610643610b8d565b5b60019003818190600052602060002001600090559055828054806020026020016040519081016040528092919081815260200182805480156106a557602002820191906000526020600020905b815481526020019060010190808311610691575b5050505050905092915050565b600080fd5b6000819050919050565b6106ca816106b7565b81146106d557600080fd5b50565b6000813590506106e7816106c1565b92915050565b600060208284031215610703576107026106b2565b5b6000610711848285016106d8565b91505092915050565b6000819050919050565b61072d8161071a565b82525050565b61073c816106b7565b82525050565b60006060820190506107576000830186610724565b6107646020830185610724565b6107716040830184610733565b949350505050565b6107828161071a565b811461078d57600080fd5b50565b60008135905061079f81610779565b92915050565b6000806000606084860312156107be576107bd6106b2565b5b60006107cc868287016106d8565b93505060206107dd86828701610790565b92505060406107ee86828701610790565b9150509250925092565b60008115159050919050565b61080d816107f8565b82525050565b60006020820190506108286000830184610804565b92915050565b600060208284031215610844576108436106b2565b5b600061085284828501610790565b91505092915050565b600081519050919050565b600082825260208201905092915050565b6000819050602082019050919050565b610890816106b7565b82525050565b60006108a28383610887565b60208301905092915050565b6000602082019050919050565b60006108c68261085b565b6108d08185610866565b93506108db83610877565b8060005b8381101561090c5781516108f38882610896565b97506108fe836108ae565b9250506001810190506108df565b5085935050505092915050565b6000602082019050818103600083015261093381846108bb565b905092915050565b60008060408385031215610952576109516106b2565b5b6000610960858286016106d8565b925050602061097185828601610790565b9150509250929050565b600073ffffffffffffffffffffffffffffffffffffffff82169050919050565b60006109a68261097b565b9050919050565b60008160601b9050919050565b60006109c5826109ad565b9050919050565b60006109d7826109ba565b9050919050565b6109ef6109ea8261099b565b6109cc565b82525050565b6000610a0182846109de565b60148201915081905092915050565b600082825260208201905092915050565b7f43616e6e6f742064656c657465206f6e6c79206d616e6167656d656e74206b6560008201527f7921000000000000000000000000000000000000000000000000000000000000602082015250565b6000610a7d602283610a10565b9150610a8882610a21565b604082019050919050565b60006020820190508181036000830152610aac81610a70565b9050919050565b7f4e487b7100000000000000000000000000000000000000000000000000000000600052603260045260246000fd5b7f4e487b7100000000000000000000000000000000000000000000000000000000600052601160045260246000fd5b6000610b1c8261071a565b91507fffffffffffffffffffffffffffffffffffffffffffffffffffffffffffffffff8203610b4e57610b4d610ae2565b5b600182019050919050565b6000610b648261071a565b9150610b6f8361071a565b925082821015610b8257610b81610ae2565b5b828203905092915050565b7f4e487b7100000000000000000000000000000000000000000000000000000000600052603160045260246000fdfea2646970667358221220a43395331f86d711cc141967b2c558d6d359f7022096184e73222a550949684b64736f6c634300080e0033",
  "immutableReferences": {},
  "source": "// SPDX-License-Identifier: MIT\n\npragma solidity ^0.8.0;\n\nimport './utils/ByteArr.sol';\nimport './interface/ERC734.sol';\n\ncontract Identity is ERC734 {\n    using ByteArr for bytes;\n    using ByteArr for bytes32[];\n    using ByteArr for uint256[];\n\n    uint256 MANAGEMENT_KEY = 1;\n    uint256 EXECUTION_KEY = 2;\n\n    mapping (bytes32 => Key) keys;\n    mapping (uint256 => bytes32[]) keysByPurpose;\n\n    constructor(address operational, address management) {\n        require(operational != address(0) && management != address(0));\n\n        bytes32 _management_key = keccak256(abi.encodePacked(management));\n\n        keys[_management_key].key = _management_key;\n\n        keys[_management_key].keyType = 1;\n        keys[_management_key].purpose = 1;\n\n        keysByPurpose[1].push(_management_key);\n        emit KeyAdded(_management_key, keys[_management_key].purpose, 1);\n\n        if(operational != management) {\n            bytes32 _operational_key = keccak256(abi.encodePacked(operational));\n\n            keys[_operational_key].key = _operational_key;\n\n            keys[_operational_key].keyType = 1;\n\n            keys[_operational_key].purpose = 2;\n\n            keysByPurpose[2].push(_operational_key);\n\n            emit KeyAdded(_operational_key, keys[_operational_key].purpose, 1);\n        }\n    }\n\n    function getKey(bytes32 _key) public view override returns (uint256 purpose, uint256 keyType, bytes32 key){\n        return (keys[_key].purpose, keys[_key].keyType, keys[_key].key);\n    }\n\n    function keyHasPurpose(bytes32 _key, uint256 _purpose) public view override returns (bool result) {\n        return keys[_key].purpose == _purpose;\n    }\n\n    function getKeysByPurpose(uint256 _purpose) public view override returns (bytes32[] memory _keys) {\n        return keysByPurpose[_purpose];\n    }\n\n    function addKey(bytes32 _key, uint256 _purpose, uint256 _type) public override returns (bool) {\n        require(keyHasPurpose(keccak256(abi.encodePacked(msg.sender)), 1));\n        require(_key != bytes32(0));\n        require(keys[_key].key != _key);\n\n        keys[_key].key = _key;\n        keys[_key].purpose = _purpose;\n        keys[_key].keyType = _type;\n\n        keysByPurpose[_purpose].push(_key);\n\n\n        emit KeyAdded(_key, _purpose, _type);\n        return true;\n    }\n\n    function removeKey(bytes32 _key) public override returns (bool) {\n        require(keyHasPurpose(keccak256(abi.encodePacked(msg.sender)), 1));\n        require(_key != bytes32(0));\n\n        require(keys[_key].key == _key);\n\n        require(!(keysByPurpose[1].length == 1 && keyHasPurpose(_key, 1)), \"Cannot delete only management key!\");\n\n        emit KeyRemoved(keys[_key].key, keys[_key].purpose, keys[_key].keyType);\n\n        uint index;\n        bool success;\n        (index, success) = keysByPurpose[keys[_key].purpose].indexOf(_key);\n        keysByPurpose[keys[_key].purpose].removeByIndex(index);\n\n        delete keys[_key];\n\n        return true;\n    }\n}",
  "sourcePath": "/Users/miloskotlar/dkg-onchain-module-v6/contracts/Identity.sol",
  "compiler": {
    "name": "solc",
    "version": "0.8.14+commit.80d49f37.Emscripten.clang"
  },
  "schemaVersion": "3.4.3",
  "updatedAt": "2022-06-23T06:15:39.226Z",
  "devdoc": {
    "kind": "dev",
    "methods": {},
    "version": 1
  },
  "userdoc": {
    "kind": "user",
    "methods": {},
    "version": 1
  }
}