{
  "contractName": "Profile",
  "abi": [
    {
      "inputs": [
        {
          "internalType": "address",
          "name": "hubAddress",
          "type": "address"
        }
      ],
      "stateMutability": "nonpayable",
      "type": "constructor"
    },
    {
      "anonymous": false,
      "inputs": [
        {
          "indexed": false,
          "internalType": "address",
          "name": "profile",
          "type": "address"
        },
        {
          "indexed": false,
          "internalType": "address",
          "name": "newIdentity",
          "type": "address"
        }
      ],
      "name": "IdentityCreated",
      "type": "event"
    },
    {
      "anonymous": false,
      "inputs": [
        {
          "indexed": false,
          "internalType": "bytes20",
          "name": "nodeId",
          "type": "bytes20"
        },
        {
          "indexed": false,
          "internalType": "address",
          "name": "oldIdentity",
          "type": "address"
        },
        {
          "indexed": false,
          "internalType": "address",
          "name": "newIdentity",
          "type": "address"
        }
      ],
      "name": "IdentityTransferred",
      "type": "event"
    },
    {
      "anonymous": false,
      "inputs": [
        {
          "indexed": false,
          "internalType": "address",
          "name": "profile",
          "type": "address"
        },
        {
          "indexed": false,
          "internalType": "uint256",
          "name": "initialBalance",
          "type": "uint256"
        }
      ],
      "name": "ProfileCreated",
      "type": "event"
    },
    {
      "anonymous": false,
      "inputs": [
        {
          "indexed": false,
          "internalType": "address",
          "name": "profile",
          "type": "address"
        },
        {
          "indexed": false,
          "internalType": "uint256",
          "name": "amount",
          "type": "uint256"
        }
      ],
      "name": "TokenDeposit",
      "type": "event"
    },
    {
      "anonymous": false,
      "inputs": [
        {
          "indexed": false,
          "internalType": "address",
          "name": "profile",
          "type": "address"
        }
      ],
      "name": "TokenWithdrawalCancelled",
      "type": "event"
    },
    {
      "anonymous": false,
      "inputs": [
        {
          "indexed": false,
          "internalType": "address",
          "name": "profile",
          "type": "address"
        },
        {
          "indexed": false,
          "internalType": "uint256",
          "name": "amountDeposited",
          "type": "uint256"
        },
        {
          "indexed": false,
          "internalType": "uint256",
          "name": "newBalance",
          "type": "uint256"
        }
      ],
      "name": "TokensDeposited",
      "type": "event"
    },
    {
      "anonymous": false,
      "inputs": [
        {
          "indexed": false,
          "internalType": "address",
          "name": "profile",
          "type": "address"
        },
        {
          "indexed": false,
          "internalType": "uint256",
          "name": "amount",
          "type": "uint256"
        }
      ],
      "name": "TokensReleased",
      "type": "event"
    },
    {
      "anonymous": false,
      "inputs": [
        {
          "indexed": false,
          "internalType": "address",
          "name": "profile",
          "type": "address"
        },
        {
          "indexed": false,
          "internalType": "uint256",
          "name": "amountReserved",
          "type": "uint256"
        }
      ],
      "name": "TokensReserved",
      "type": "event"
    },
    {
      "anonymous": false,
      "inputs": [
        {
          "indexed": false,
          "internalType": "address",
          "name": "sender",
          "type": "address"
        },
        {
          "indexed": false,
          "internalType": "address",
          "name": "receiver",
          "type": "address"
        },
        {
          "indexed": false,
          "internalType": "uint256",
          "name": "amount",
          "type": "uint256"
        }
      ],
      "name": "TokensTransferred",
      "type": "event"
    },
    {
      "anonymous": false,
      "inputs": [
        {
          "indexed": false,
          "internalType": "address",
          "name": "profile",
          "type": "address"
        },
        {
          "indexed": false,
          "internalType": "uint256",
          "name": "amountWithdrawn",
          "type": "uint256"
        },
        {
          "indexed": false,
          "internalType": "uint256",
          "name": "newBalance",
          "type": "uint256"
        }
      ],
      "name": "TokensWithdrawn",
      "type": "event"
    },
    {
      "anonymous": false,
      "inputs": [
        {
          "indexed": false,
          "internalType": "address",
          "name": "profile",
          "type": "address"
        },
        {
          "indexed": false,
          "internalType": "uint256",
          "name": "amount",
          "type": "uint256"
        },
        {
          "indexed": false,
          "internalType": "uint256",
          "name": "withdrawalDelayInSeconds",
          "type": "uint256"
        }
      ],
      "name": "WithdrawalInitiated",
      "type": "event"
    },
    {
      "inputs": [],
      "name": "hub",
      "outputs": [
        {
          "internalType": "contract Hub",
          "name": "",
          "type": "address"
        }
      ],
      "stateMutability": "view",
      "type": "function",
      "constant": true
    },
    {
      "inputs": [],
      "name": "minimalStake",
      "outputs": [
        {
          "internalType": "uint256",
          "name": "",
          "type": "uint256"
        }
      ],
      "stateMutability": "view",
      "type": "function",
      "constant": true
    },
    {
      "inputs": [],
      "name": "withdrawalTime",
      "outputs": [
        {
          "internalType": "uint256",
          "name": "",
          "type": "uint256"
        }
      ],
      "stateMutability": "view",
      "type": "function",
      "constant": true
    },
    {
      "inputs": [
        {
          "internalType": "address",
          "name": "managementWallet",
          "type": "address"
        },
        {
          "internalType": "bytes32",
          "name": "nodeId",
          "type": "bytes32"
        },
        {
          "internalType": "uint256",
          "name": "initialBalance",
          "type": "uint256"
        },
        {
          "internalType": "address",
          "name": "identity",
          "type": "address"
        }
      ],
      "name": "createProfile",
      "outputs": [],
      "stateMutability": "nonpayable",
      "type": "function"
    },
    {
      "inputs": [
        {
          "internalType": "address",
          "name": "identity",
          "type": "address"
        },
        {
          "internalType": "uint256",
          "name": "amount",
          "type": "uint256"
        }
      ],
      "name": "depositTokens",
      "outputs": [],
      "stateMutability": "nonpayable",
      "type": "function"
    },
    {
      "inputs": [
        {
          "internalType": "address",
          "name": "identity",
          "type": "address"
        },
        {
          "internalType": "uint256",
          "name": "amount",
          "type": "uint256"
        }
      ],
      "name": "startTokenWithdrawal",
      "outputs": [],
      "stateMutability": "nonpayable",
      "type": "function"
    },
    {
      "inputs": [
        {
          "internalType": "address",
          "name": "identity",
          "type": "address"
        }
      ],
      "name": "withdrawTokens",
      "outputs": [],
      "stateMutability": "nonpayable",
      "type": "function"
    },
    {
      "inputs": [
        {
          "internalType": "address",
          "name": "profile",
          "type": "address"
        },
        {
          "internalType": "uint256",
          "name": "amount",
          "type": "uint256"
        }
      ],
      "name": "releaseTokens",
      "outputs": [],
      "stateMutability": "nonpayable",
      "type": "function"
    },
    {
      "inputs": [
        {
          "internalType": "address",
          "name": "sender",
          "type": "address"
        },
        {
          "internalType": "address",
          "name": "receiver",
          "type": "address"
        },
        {
          "internalType": "uint256",
          "name": "amount",
          "type": "uint256"
        }
      ],
      "name": "transferTokens",
      "outputs": [],
      "stateMutability": "nonpayable",
      "type": "function"
    },
    {
      "inputs": [
        {
          "internalType": "uint256",
          "name": "newMinimalStake",
          "type": "uint256"
        }
      ],
      "name": "setMinimalStake",
      "outputs": [],
      "stateMutability": "nonpayable",
      "type": "function"
    },
    {
      "inputs": [
        {
          "internalType": "uint256",
          "name": "newWithdrawalTime",
          "type": "uint256"
        }
      ],
      "name": "setWithdrawalTime",
      "outputs": [],
      "stateMutability": "nonpayable",
      "type": "function"
    }
  ],
  "bytecode": "0x608060405268a2a15d09519be0000060015561012c6002553480156200002457600080fd5b5060405162003ac738038062003ac783398181016040528101906200004a919062000135565b600073ffffffffffffffffffffffffffffffffffffffff168173ffffffffffffffffffffffffffffffffffffffff16036200008457600080fd5b806000806101000a81548173ffffffffffffffffffffffffffffffffffffffff021916908373ffffffffffffffffffffffffffffffffffffffff1602179055505062000167565b600080fd5b600073ffffffffffffffffffffffffffffffffffffffff82169050919050565b6000620000fd82620000d0565b9050919050565b6200010f81620000f0565b81146200011b57600080fd5b50565b6000815190506200012f8162000104565b92915050565b6000602082840312156200014e576200014d620000cb565b5b60006200015e848285016200011e565b91505092915050565b61395080620001776000396000f3fe608060405234801561001057600080fd5b50600436106100a95760003560e01c806349df728c1161007157806349df728c1461013e57806366168bd71461015a5780639ec41a2d14610176578063a64b6e5f14610194578063b6af3643146101b0578063f40d71f1146101cc576100a9565b806307ab5e84146100ae5780632b9b4f46146100ca578063365a86fc146100e6578063389eb9f9146101045780633d6ec65e14610122575b600080fd5b6100c860048036038101906100c391906128e2565b6101e8565b005b6100e460048036038101906100df9190612958565b610778565b005b6100ee610ee7565b6040516100fb9190612a1e565b60405180910390f35b61010c610f0b565b6040516101199190612a48565b60405180910390f35b61013c60048036038101906101379190612a63565b610f11565b005b61015860048036038101906101539190612a90565b611021565b005b610174600480360381019061016f91906128e2565b61170a565b005b61017e611ccc565b60405161018b9190612a48565b60405180910390f35b6101ae60048036038101906101a99190612abd565b611cd2565b005b6101ca60048036038101906101c59190612a63565b612373565b005b6101e660048036038101906101e191906128e2565b612483565b005b8173ffffffffffffffffffffffffffffffffffffffff1663d202158d336040516020016102159190612b58565b6040516020818303038152906040528051906020012060016040518363ffffffff1660e01b815260040161024a929190612bbd565b602060405180830381865afa158015610267573d6000803e3d6000fd5b505050506040513d601f19601f8201168201806040525081019061028b9190612c1e565b6102ca576040517f08c379a00000000000000000000000000000000000000000000000000000000081526004016102c190612cce565b60405180910390fd5b60008060009054906101000a900473ffffffffffffffffffffffffffffffffffffffff1673ffffffffffffffffffffffffffffffffffffffff166304433bbc6040518163ffffffff1660e01b815260040161032490612d3a565b602060405180830381865afa158015610341573d6000803e3d6000fd5b505050506040513d601f19601f820116820180604052508101906103659190612d6f565b9050600015158173ffffffffffffffffffffffffffffffffffffffff16632ba97595856040518263ffffffff1660e01b81526004016103a49190612dab565b602060405180830381865afa1580156103c1573d6000803e3d6000fd5b505050506040513d601f19601f820116820180604052508101906103e59190612c1e565b151514610427576040517f08c379a000000000000000000000000000000000000000000000000000000000815260040161041e90612e38565b60405180910390fd5b60008173ffffffffffffffffffffffffffffffffffffffff16635ffe0282856040518263ffffffff1660e01b81526004016104629190612dab565b602060405180830381865afa15801561047f573d6000803e3d6000fd5b505050506040513d601f19601f820116820180604052508101906104a39190612e6d565b8273ffffffffffffffffffffffffffffffffffffffff16637a766460866040518263ffffffff1660e01b81526004016104dc9190612dab565b602060405180830381865afa1580156104f9573d6000803e3d6000fd5b505050506040513d601f19601f8201168201806040525081019061051d9190612e6d565b6105279190612ec9565b90508173ffffffffffffffffffffffffffffffffffffffff16639385067f8560016040518363ffffffff1660e01b8152600401610565929190612f0c565b600060405180830381600087803b15801561057f57600080fd5b505af1158015610593573d6000803e3d6000fd5b505050508173ffffffffffffffffffffffffffffffffffffffff166367b6d27185600254426105c29190612f35565b6040518363ffffffff1660e01b81526004016105df929190612f8b565b600060405180830381600087803b1580156105f957600080fd5b505af115801561060d573d6000803e3d6000fd5b505050508281106106c7578173ffffffffffffffffffffffffffffffffffffffff166382aa292885856040518363ffffffff1660e01b8152600401610653929190612f8b565b600060405180830381600087803b15801561066d57600080fd5b505af1158015610681573d6000803e3d6000fd5b505050507f31f69201fab7912e3ec9850e3ab705964bf46d9d4276bdcbb6d05e965e5f540184846002546040516106ba93929190612fb4565b60405180910390a1610772565b8173ffffffffffffffffffffffffffffffffffffffff166382aa292885836040518363ffffffff1660e01b8152600401610702929190612f8b565b600060405180830381600087803b15801561071c57600080fd5b505af1158015610730573d6000803e3d6000fd5b505050507f31f69201fab7912e3ec9850e3ab705964bf46d9d4276bdcbb6d05e965e5f5401848260025460405161076993929190612fb4565b60405180910390a15b50505050565b600073ffffffffffffffffffffffffffffffffffffffff168473ffffffffffffffffffffffffffffffffffffffff16036107b157600080fd5b60008060009054906101000a900473ffffffffffffffffffffffffffffffffffffffff1673ffffffffffffffffffffffffffffffffffffffff166304433bbc6040518163ffffffff1660e01b815260040161080b90613037565b602060405180830381865afa158015610828573d6000803e3d6000fd5b505050506040513d601f19601f8201168201806040525081019061084c9190612d6f565b9050828173ffffffffffffffffffffffffffffffffffffffff1663dd62ed3e3360008054906101000a900473ffffffffffffffffffffffffffffffffffffffff1673ffffffffffffffffffffffffffffffffffffffff166304433bbc6040518163ffffffff1660e01b81526004016108c390612d3a565b602060405180830381865afa1580156108e0573d6000803e3d6000fd5b505050506040513d601f19601f820116820180604052508101906109049190612d6f565b6040518363ffffffff1660e01b8152600401610921929190613057565b602060405180830381865afa15801561093e573d6000803e3d6000fd5b505050506040513d601f19601f820116820180604052508101906109629190612e6d565b10156109a3576040517f08c379a000000000000000000000000000000000000000000000000000000000815260040161099a906130f2565b60405180910390fd5b828173ffffffffffffffffffffffffffffffffffffffff166370a08231336040518263ffffffff1660e01b81526004016109dd9190612dab565b602060405180830381865afa1580156109fa573d6000803e3d6000fd5b505050506040513d601f19601f82011682018060405250810190610a1e9190612e6d565b1015610a5f576040517f08c379a0000000000000000000000000000000000000000000000000000000008152600401610a5690613184565b60405180910390fd5b60008460001c03610aa5576040517f08c379a0000000000000000000000000000000000000000000000000000000008152600401610a9c90613216565b60405180910390fd5b8073ffffffffffffffffffffffffffffffffffffffff166323b872dd3360008054906101000a900473ffffffffffffffffffffffffffffffffffffffff1673ffffffffffffffffffffffffffffffffffffffff166304433bbc6040518163ffffffff1660e01b8152600401610b1990612d3a565b602060405180830381865afa158015610b36573d6000803e3d6000fd5b505050506040513d601f19601f82011682018060405250810190610b5a9190612d6f565b866040518463ffffffff1660e01b8152600401610b7993929190613236565b6020604051808303816000875af1158015610b98573d6000803e3d6000fd5b505050506040513d601f19601f82011682018060405250810190610bbc9190612c1e565b508173ffffffffffffffffffffffffffffffffffffffff1663d202158d33604051602001610bea9190612b58565b6040516020818303038152906040528051906020012060026040518363ffffffff1660e01b8152600401610c1f9291906132a8565b602060405180830381865afa158015610c3c573d6000803e3d6000fd5b505050506040513d601f19601f82011682018060405250810190610c609190612c1e565b610c9f576040517f08c379a0000000000000000000000000000000000000000000000000000000008152600401610c9690613343565b60405180910390fd5b60008054906101000a900473ffffffffffffffffffffffffffffffffffffffff1673ffffffffffffffffffffffffffffffffffffffff166304433bbc6040518163ffffffff1660e01b8152600401610cf690612d3a565b602060405180830381865afa158015610d13573d6000803e3d6000fd5b505050506040513d601f19601f82011682018060405250810190610d379190612d6f565b73ffffffffffffffffffffffffffffffffffffffff1663bd3cd52583856040518363ffffffff1660e01b8152600401610d71929190612f8b565b600060405180830381600087803b158015610d8b57600080fd5b505af1158015610d9f573d6000803e3d6000fd5b5050505060008054906101000a900473ffffffffffffffffffffffffffffffffffffffff1673ffffffffffffffffffffffffffffffffffffffff166304433bbc6040518163ffffffff1660e01b8152600401610dfa90612d3a565b602060405180830381865afa158015610e17573d6000803e3d6000fd5b505050506040513d601f19601f82011682018060405250810190610e3b9190612d6f565b73ffffffffffffffffffffffffffffffffffffffff16637fdc367683866040518363ffffffff1660e01b8152600401610e75929190613363565b600060405180830381600087803b158015610e8f57600080fd5b505af1158015610ea3573d6000803e3d6000fd5b505050507fcb939889322fed25104a5d8945bde5162563412a1fd718946cdcacb03088ea088284604051610ed8929190612f8b565b60405180910390a15050505050565b60008054906101000a900473ffffffffffffffffffffffffffffffffffffffff1681565b60025481565b60008054906101000a900473ffffffffffffffffffffffffffffffffffffffff1673ffffffffffffffffffffffffffffffffffffffff16638da5cb5b6040518163ffffffff1660e01b8152600401602060405180830381865afa158015610f7c573d6000803e3d6000fd5b505050506040513d601f19601f82011682018060405250810190610fa09190612d6f565b73ffffffffffffffffffffffffffffffffffffffff163373ffffffffffffffffffffffffffffffffffffffff161461100d576040517f08c379a0000000000000000000000000000000000000000000000000000000008152600401611004906133fe565b60405180910390fd5b806001541461101e57806001819055505b50565b8073ffffffffffffffffffffffffffffffffffffffff1663d202158d3360405160200161104e9190612b58565b6040516020818303038152906040528051906020012060016040518363ffffffff1660e01b8152600401611083929190612bbd565b602060405180830381865afa1580156110a0573d6000803e3d6000fd5b505050506040513d601f19601f820116820180604052508101906110c49190612c1e565b611103576040517f08c379a00000000000000000000000000000000000000000000000000000000081526004016110fa90612cce565b60405180910390fd5b60008060009054906101000a900473ffffffffffffffffffffffffffffffffffffffff1673ffffffffffffffffffffffffffffffffffffffff166304433bbc6040518163ffffffff1660e01b815260040161115d90612d3a565b602060405180830381865afa15801561117a573d6000803e3d6000fd5b505050506040513d601f19601f8201168201806040525081019061119e9190612d6f565b9050600115158173ffffffffffffffffffffffffffffffffffffffff16632ba97595846040518263ffffffff1660e01b81526004016111dd9190612dab565b602060405180830381865afa1580156111fa573d6000803e3d6000fd5b505050506040513d601f19601f8201168201806040525081019061121e9190612c1e565b151514611260576040517f08c379a000000000000000000000000000000000000000000000000000000000815260040161125790613490565b60405180910390fd5b428173ffffffffffffffffffffffffffffffffffffffff16639344ea6e846040518263ffffffff1660e01b815260040161129a9190612dab565b602060405180830381865afa1580156112b7573d6000803e3d6000fd5b505050506040513d601f19601f820116820180604052508101906112db9190612e6d565b1061131b576040517f08c379a000000000000000000000000000000000000000000000000000000000815260040161131290613522565b60405180910390fd5b8073ffffffffffffffffffffffffffffffffffffffff1663bec3fa17338373ffffffffffffffffffffffffffffffffffffffff166356582bf9866040518263ffffffff1660e01b81526004016113719190612dab565b602060405180830381865afa15801561138e573d6000803e3d6000fd5b505050506040513d601f19601f820116820180604052508101906113b29190612e6d565b6040518363ffffffff1660e01b81526004016113cf929190612f8b565b600060405180830381600087803b1580156113e957600080fd5b505af11580156113fd573d6000803e3d6000fd5b505050508073ffffffffffffffffffffffffffffffffffffffff1663bd3cd525838373ffffffffffffffffffffffffffffffffffffffff166356582bf9866040518263ffffffff1660e01b81526004016114579190612dab565b602060405180830381865afa158015611474573d6000803e3d6000fd5b505050506040513d601f19601f820116820180604052508101906114989190612e6d565b8473ffffffffffffffffffffffffffffffffffffffff16637a766460876040518263ffffffff1660e01b81526004016114d19190612dab565b602060405180830381865afa1580156114ee573d6000803e3d6000fd5b505050506040513d601f19601f820116820180604052508101906115129190612e6d565b61151c9190612ec9565b6040518363ffffffff1660e01b8152600401611539929190612f8b565b600060405180830381600087803b15801561155357600080fd5b505af1158015611567573d6000803e3d6000fd5b505050508073ffffffffffffffffffffffffffffffffffffffff16639385067f8360006040518363ffffffff1660e01b81526004016115a7929190612f0c565b600060405180830381600087803b1580156115c157600080fd5b505af11580156115d5573d6000803e3d6000fd5b505050507fffe903c0abe6b2dbb2f3474ef43d7a3c1fca49e5a774453423ca8e1952aabffa828273ffffffffffffffffffffffffffffffffffffffff166356582bf9856040518263ffffffff1660e01b81526004016116349190612dab565b602060405180830381865afa158015611651573d6000803e3d6000fd5b505050506040513d601f19601f820116820180604052508101906116759190612e6d565b8373ffffffffffffffffffffffffffffffffffffffff16637a766460866040518263ffffffff1660e01b81526004016116ae9190612dab565b602060405180830381865afa1580156116cb573d6000803e3d6000fd5b505050506040513d601f19601f820116820180604052508101906116ef9190612e6d565b6040516116fe93929190612fb4565b60405180910390a15050565b8173ffffffffffffffffffffffffffffffffffffffff1663d202158d336040516020016117379190612b58565b6040516020818303038152906040528051906020012060016040518363ffffffff1660e01b815260040161176c929190612bbd565b602060405180830381865afa158015611789573d6000803e3d6000fd5b505050506040513d601f19601f820116820180604052508101906117ad9190612c1e565b6117ec576040517f08c379a00000000000000000000000000000000000000000000000000000000081526004016117e390612cce565b60405180910390fd5b60008060009054906101000a900473ffffffffffffffffffffffffffffffffffffffff1673ffffffffffffffffffffffffffffffffffffffff166304433bbc6040518163ffffffff1660e01b815260040161184690612d3a565b602060405180830381865afa158015611863573d6000803e3d6000fd5b505050506040513d601f19601f820116820180604052508101906118879190612d6f565b905060008060009054906101000a900473ffffffffffffffffffffffffffffffffffffffff1673ffffffffffffffffffffffffffffffffffffffff166304433bbc6040518163ffffffff1660e01b81526004016118e390613037565b602060405180830381865afa158015611900573d6000803e3d6000fd5b505050506040513d601f19601f820116820180604052508101906119249190612d6f565b9050828173ffffffffffffffffffffffffffffffffffffffff1663dd62ed3e33856040518363ffffffff1660e01b8152600401611962929190613057565b602060405180830381865afa15801561197f573d6000803e3d6000fd5b505050506040513d601f19601f820116820180604052508101906119a39190612e6d565b10156119e4576040517f08c379a00000000000000000000000000000000000000000000000000000000081526004016119db906135b4565b60405180910390fd5b828173ffffffffffffffffffffffffffffffffffffffff166370a08231336040518263ffffffff1660e01b8152600401611a1e9190612dab565b602060405180830381865afa158015611a3b573d6000803e3d6000fd5b505050506040513d601f19601f82011682018060405250810190611a5f9190612e6d565b1015611aa0576040517f08c379a0000000000000000000000000000000000000000000000000000000008152600401611a9790613646565b60405180910390fd5b8073ffffffffffffffffffffffffffffffffffffffff166323b872dd3384866040518463ffffffff1660e01b8152600401611add93929190613236565b6020604051808303816000875af1158015611afc573d6000803e3d6000fd5b505050506040513d601f19601f82011682018060405250810190611b209190612c1e565b508173ffffffffffffffffffffffffffffffffffffffff1663bd3cd52585858573ffffffffffffffffffffffffffffffffffffffff16637a766460896040518263ffffffff1660e01b8152600401611b789190612dab565b602060405180830381865afa158015611b95573d6000803e3d6000fd5b505050506040513d601f19601f82011682018060405250810190611bb99190612e6d565b611bc39190612f35565b6040518363ffffffff1660e01b8152600401611be0929190612f8b565b600060405180830381600087803b158015611bfa57600080fd5b505af1158015611c0e573d6000803e3d6000fd5b505050507ffdfdcf596161b0e81e3161597d46888dcc88bd83b22dcfb341c76377ca3bbc9e84848473ffffffffffffffffffffffffffffffffffffffff16637a766460886040518263ffffffff1660e01b8152600401611c6e9190612dab565b602060405180830381865afa158015611c8b573d6000803e3d6000fd5b505050506040513d601f19601f82011682018060405250810190611caf9190612e6d565b604051611cbe93929190612fb4565b60405180910390a150505050565b60015481565b60008054906101000a900473ffffffffffffffffffffffffffffffffffffffff1673ffffffffffffffffffffffffffffffffffffffff166304433bbc6040518163ffffffff1660e01b8152600401611d29906136b2565b602060405180830381865afa158015611d46573d6000803e3d6000fd5b505050506040513d601f19601f82011682018060405250810190611d6a9190612d6f565b73ffffffffffffffffffffffffffffffffffffffff163373ffffffffffffffffffffffffffffffffffffffff1614611dd7576040517f08c379a0000000000000000000000000000000000000000000000000000000008152600401611dce90613744565b60405180910390fd5b600073ffffffffffffffffffffffffffffffffffffffff168373ffffffffffffffffffffffffffffffffffffffff1614158015611e415750600073ffffffffffffffffffffffffffffffffffffffff168273ffffffffffffffffffffffffffffffffffffffff1614155b611e4a57600080fd5b60008060009054906101000a900473ffffffffffffffffffffffffffffffffffffffff1673ffffffffffffffffffffffffffffffffffffffff166304433bbc6040518163ffffffff1660e01b8152600401611ea490612d3a565b602060405180830381865afa158015611ec1573d6000803e3d6000fd5b505050506040513d601f19601f82011682018060405250810190611ee59190612d6f565b9050818173ffffffffffffffffffffffffffffffffffffffff16637a766460866040518263ffffffff1660e01b8152600401611f219190612dab565b602060405180830381865afa158015611f3e573d6000803e3d6000fd5b505050506040513d601f19601f82011682018060405250810190611f629190612e6d565b1015611fa3576040517f08c379a0000000000000000000000000000000000000000000000000000000008152600401611f9a906137d6565b60405180910390fd5b818173ffffffffffffffffffffffffffffffffffffffff16635ffe0282866040518263ffffffff1660e01b8152600401611fdd9190612dab565b602060405180830381865afa158015611ffa573d6000803e3d6000fd5b505050506040513d601f19601f8201168201806040525081019061201e9190612e6d565b101561205f576040517f08c379a000000000000000000000000000000000000000000000000000000000815260040161205690613868565b60405180910390fd5b8073ffffffffffffffffffffffffffffffffffffffff166350c3ff5785848473ffffffffffffffffffffffffffffffffffffffff16635ffe0282896040518263ffffffff1660e01b81526004016120b69190612dab565b602060405180830381865afa1580156120d3573d6000803e3d6000fd5b505050506040513d601f19601f820116820180604052508101906120f79190612e6d565b6121019190612ec9565b6040518363ffffffff1660e01b815260040161211e929190612f8b565b600060405180830381600087803b15801561213857600080fd5b505af115801561214c573d6000803e3d6000fd5b505050508073ffffffffffffffffffffffffffffffffffffffff1663bd3cd52585848473ffffffffffffffffffffffffffffffffffffffff16637a766460896040518263ffffffff1660e01b81526004016121a79190612dab565b602060405180830381865afa1580156121c4573d6000803e3d6000fd5b505050506040513d601f19601f820116820180604052508101906121e89190612e6d565b6121f29190612ec9565b6040518363ffffffff1660e01b815260040161220f929190612f8b565b600060405180830381600087803b15801561222957600080fd5b505af115801561223d573d6000803e3d6000fd5b505050508073ffffffffffffffffffffffffffffffffffffffff1663bd3cd52584848473ffffffffffffffffffffffffffffffffffffffff16637a766460886040518263ffffffff1660e01b81526004016122989190612dab565b602060405180830381865afa1580156122b5573d6000803e3d6000fd5b505050506040513d601f19601f820116820180604052508101906122d99190612e6d565b6122e39190612f35565b6040518363ffffffff1660e01b8152600401612300929190612f8b565b600060405180830381600087803b15801561231a57600080fd5b505af115801561232e573d6000803e3d6000fd5b505050507f1b89874203ff7f0bba87c969ada3f32fda22ed38a6706d35199d21280c7811b184848460405161236593929190613236565b60405180910390a150505050565b60008054906101000a900473ffffffffffffffffffffffffffffffffffffffff1673ffffffffffffffffffffffffffffffffffffffff16638da5cb5b6040518163ffffffff1660e01b8152600401602060405180830381865afa1580156123de573d6000803e3d6000fd5b505050506040513d601f19601f820116820180604052508101906124029190612d6f565b73ffffffffffffffffffffffffffffffffffffffff163373ffffffffffffffffffffffffffffffffffffffff161461246f576040517f08c379a0000000000000000000000000000000000000000000000000000000008152600401612466906133fe565b60405180910390fd5b806002541461248057806002819055505b50565b60008054906101000a900473ffffffffffffffffffffffffffffffffffffffff1673ffffffffffffffffffffffffffffffffffffffff166304433bbc6040518163ffffffff1660e01b81526004016124da906136b2565b602060405180830381865afa1580156124f7573d6000803e3d6000fd5b505050506040513d601f19601f8201168201806040525081019061251b9190612d6f565b73ffffffffffffffffffffffffffffffffffffffff163373ffffffffffffffffffffffffffffffffffffffff1614612588576040517f08c379a000000000000000000000000000000000000000000000000000000000815260040161257f90613744565b60405180910390fd5b600073ffffffffffffffffffffffffffffffffffffffff168273ffffffffffffffffffffffffffffffffffffffff16036125c157600080fd5b60008060009054906101000a900473ffffffffffffffffffffffffffffffffffffffff1673ffffffffffffffffffffffffffffffffffffffff166304433bbc6040518163ffffffff1660e01b815260040161261b90612d3a565b602060405180830381865afa158015612638573d6000803e3d6000fd5b505050506040513d601f19601f8201168201806040525081019061265c9190612d6f565b9050818173ffffffffffffffffffffffffffffffffffffffff16635ffe0282856040518263ffffffff1660e01b81526004016126989190612dab565b602060405180830381865afa1580156126b5573d6000803e3d6000fd5b505050506040513d601f19601f820116820180604052508101906126d99190612e6d565b101561271a576040517f08c379a0000000000000000000000000000000000000000000000000000000008152600401612711906138fa565b60405180910390fd5b8073ffffffffffffffffffffffffffffffffffffffff166350c3ff5784848473ffffffffffffffffffffffffffffffffffffffff16635ffe0282886040518263ffffffff1660e01b81526004016127719190612dab565b602060405180830381865afa15801561278e573d6000803e3d6000fd5b505050506040513d601f19601f820116820180604052508101906127b29190612e6d565b6127bc9190612ec9565b6040518363ffffffff1660e01b81526004016127d9929190612f8b565b600060405180830381600087803b1580156127f357600080fd5b505af1158015612807573d6000803e3d6000fd5b505050507fc7798891864187665ac6dd119286e44ec13f014527aeeb2b8eb3fd413df93179838360405161283c929190612f8b565b60405180910390a1505050565b600080fd5b600073ffffffffffffffffffffffffffffffffffffffff82169050919050565b60006128798261284e565b9050919050565b6128898161286e565b811461289457600080fd5b50565b6000813590506128a681612880565b92915050565b6000819050919050565b6128bf816128ac565b81146128ca57600080fd5b50565b6000813590506128dc816128b6565b92915050565b600080604083850312156128f9576128f8612849565b5b600061290785828601612897565b9250506020612918858286016128cd565b9150509250929050565b6000819050919050565b61293581612922565b811461294057600080fd5b50565b6000813590506129528161292c565b92915050565b6000806000806080858703121561297257612971612849565b5b600061298087828801612897565b945050602061299187828801612943565b93505060406129a2878288016128cd565b92505060606129b387828801612897565b91505092959194509250565b6000819050919050565b60006129e46129df6129da8461284e565b6129bf565b61284e565b9050919050565b60006129f6826129c9565b9050919050565b6000612a08826129eb565b9050919050565b612a18816129fd565b82525050565b6000602082019050612a336000830184612a0f565b92915050565b612a42816128ac565b82525050565b6000602082019050612a5d6000830184612a39565b92915050565b600060208284031215612a7957612a78612849565b5b6000612a87848285016128cd565b91505092915050565b600060208284031215612aa657612aa5612849565b5b6000612ab484828501612897565b91505092915050565b600080600060608486031215612ad657612ad5612849565b5b6000612ae486828701612897565b9350506020612af586828701612897565b9250506040612b06868287016128cd565b9150509250925092565b60008160601b9050919050565b6000612b2882612b10565b9050919050565b6000612b3a82612b1d565b9050919050565b612b52612b4d8261286e565b612b2f565b82525050565b6000612b648284612b41565b60148201915081905092915050565b612b7c81612922565b82525050565b6000819050919050565b6000612ba7612ba2612b9d84612b82565b6129bf565b6128ac565b9050919050565b612bb781612b8c565b82525050565b6000604082019050612bd26000830185612b73565b612bdf6020830184612bae565b9392505050565b60008115159050919050565b612bfb81612be6565b8114612c0657600080fd5b50565b600081519050612c1881612bf2565b92915050565b600060208284031215612c3457612c33612849565b5b6000612c4284828501612c09565b91505092915050565b600082825260208201905092915050565b7f53656e64657220646f6573206e6f742068617665206d616e6167656d656e742060008201527f7065726d697373696f6e20666f72206964656e74697479210000000000000000602082015250565b6000612cb8603883612c4b565b9150612cc382612c5c565b604082019050919050565b60006020820190508181036000830152612ce781612cab565b9050919050565b7f50726f66696c6553746f72616765000000000000000000000000000000000000600082015250565b6000612d24600e83612c4b565b9150612d2f82612cee565b602082019050919050565b60006020820190508181036000830152612d5381612d17565b9050919050565b600081519050612d6981612880565b92915050565b600060208284031215612d8557612d84612849565b5b6000612d9384828501612d5a565b91505092915050565b612da58161286e565b82525050565b6000602082019050612dc06000830184612d9c565b92915050565b7f576974687264726177616c2070726f6365737320616c72656164792070656e6460008201527f696e672100000000000000000000000000000000000000000000000000000000602082015250565b6000612e22602483612c4b565b9150612e2d82612dc6565b604082019050919050565b60006020820190508181036000830152612e5181612e15565b9050919050565b600081519050612e67816128b6565b92915050565b600060208284031215612e8357612e82612849565b5b6000612e9184828501612e58565b91505092915050565b7f4e487b7100000000000000000000000000000000000000000000000000000000600052601160045260246000fd5b6000612ed4826128ac565b9150612edf836128ac565b925082821015612ef257612ef1612e9a565b5b828203905092915050565b612f0681612be6565b82525050565b6000604082019050612f216000830185612d9c565b612f2e6020830184612efd565b9392505050565b6000612f40826128ac565b9150612f4b836128ac565b9250827fffffffffffffffffffffffffffffffffffffffffffffffffffffffffffffffff03821115612f8057612f7f612e9a565b5b828201905092915050565b6000604082019050612fa06000830185612d9c565b612fad6020830184612a39565b9392505050565b6000606082019050612fc96000830186612d9c565b612fd66020830185612a39565b612fe36040830184612a39565b949350505050565b7f546f6b656e000000000000000000000000000000000000000000000000000000600082015250565b6000613021600583612c4b565b915061302c82612feb565b602082019050919050565b6000602082019050818103600083015261305081613014565b9050919050565b600060408201905061306c6000830185612d9c565b6130796020830184612d9c565b9392505050565b7f53656e64657220616c6c6f77616e6365206d75737420626520657175616c207460008201527f6f206f7220686967686572207468616e20696e697469616c2062616c616e6365602082015250565b60006130dc604083612c4b565b91506130e782613080565b604082019050919050565b6000602082019050818103600083015261310b816130cf565b9050919050565b7f53656e6465722062616c616e6365206d75737420626520657175616c20746f2060008201527f6f7220686967686572207468616e20696e697469616c2062616c616e63652100602082015250565b600061316e603f83612c4b565b915061317982613112565b604082019050919050565b6000602082019050818103600083015261319d81613161565b9050919050565b7f43616e6e6f742063726561746520612070726f66696c6520776974686f75742060008201527f61206e6f64654964207375626d69747465640000000000000000000000000000602082015250565b6000613200603283612c4b565b915061320b826131a4565b604082019050919050565b6000602082019050818103600083015261322f816131f3565b9050919050565b600060608201905061324b6000830186612d9c565b6132586020830185612d9c565b6132656040830184612a39565b949350505050565b6000819050919050565b600061329261328d6132888461326d565b6129bf565b6128ac565b9050919050565b6132a281613277565b82525050565b60006040820190506132bd6000830185612b73565b6132ca6020830184613299565b9392505050565b7f53656e64657220646f6573206e6f74206861766520616374696f6e207065726d60008201527f697373696f6e20666f72206964656e7469747921000000000000000000000000602082015250565b600061332d603483612c4b565b9150613338826132d1565b604082019050919050565b6000602082019050818103600083015261335c81613320565b9050919050565b60006040820190506133786000830185612d9c565b6133856020830184612b73565b9392505050565b7f46756e6374696f6e2063616e206f6e6c792062652063616c6c6564206279206860008201527f7562206f776e6572210000000000000000000000000000000000000000000000602082015250565b60006133e8602983612c4b565b91506133f38261338c565b604082019050919050565b60006020820190508181036000830152613417816133db565b9050919050565b7f43616e6e6f7420776974686472617720746f6b656e73206265666f726520737460008201527f617274696e6720746f6b656e207769746864726177616c210000000000000000602082015250565b600061347a603883612c4b565b91506134858261341e565b604082019050919050565b600060208201905081810360008301526134a98161346d565b9050919050565b7f43616e6e6f7420776974686472617720746f6b656e73206265666f726520776960008201527f746864726177616c2074696d657374616d702100000000000000000000000000602082015250565b600061350c603383612c4b565b9150613517826134b0565b604082019050919050565b6000602082019050818103600083015261353b816134ff565b9050919050565b7f53656e64657220616c6c6f77616e6365206d75737420626520657175616c207460008201527f6f206f7220686967686572207468616e2063686f73656e20616d6f756e740000602082015250565b600061359e603e83612c4b565b91506135a982613542565b604082019050919050565b600060208201905081810360008301526135cd81613591565b9050919050565b7f53656e6465722062616c616e6365206d75737420626520657175616c20746f2060008201527f6f7220686967686572207468616e2063686f73656e20616d6f756e7421000000602082015250565b6000613630603d83612c4b565b915061363b826135d4565b604082019050919050565b6000602082019050818103600083015261365f81613623565b9050919050565b7f486f6c64696e6700000000000000000000000000000000000000000000000000600082015250565b600061369c600783612c4b565b91506136a782613666565b602082019050919050565b600060208201905081810360008301526136cb8161368f565b9050919050565b7f46756e6374696f6e2063616e206f6e6c792062652063616c6c6564206279204860008201527f6f6c64696e6720636f6e74726163742100000000000000000000000000000000602082015250565b600061372e603083612c4b565b9150613739826136d2565b604082019050919050565b6000602082019050818103600083015261375d81613721565b9050919050565b7f53656e64657220646f6573206e6f74206861766520656e6f75676820746f6b6560008201527f6e7320746f207472616e73666572210000000000000000000000000000000000602082015250565b60006137c0602f83612c4b565b91506137cb82613764565b604082019050919050565b600060208201905081810360008301526137ef816137b3565b9050919050565b7f53656e64657220646f6573206e6f74206861766520656e6f75676820746f6b6560008201527f6e7320726573657276656420746f207472616e73666572210000000000000000602082015250565b6000613852603883612c4b565b915061385d826137f6565b604082019050919050565b6000602082019050818103600083015261388181613845565b9050919050565b7f43616e6e6f742072656c65617365206d6f726520746f6b656e73207468616e2060008201527f7468657265206172652072657365727665640000000000000000000000000000602082015250565b60006138e4603283612c4b565b91506138ef82613888565b604082019050919050565b60006020820190508181036000830152613913816138d7565b905091905056fea2646970667358221220566dfa2a7556faec919416faa47abda789564b91fb98d2abe76c9c6b427ef56c64736f6c634300080e0033",
  "immutableReferences": {},
  "source": "// SPDX-License-Identifier: MIT\n\npragma solidity ^0.8.0;\n\nimport {ProfileStorage} from './storage/ProfileStorage.sol';\nimport {Ownable, Hub} from './Hub.sol';\nimport {Identity, ERC734} from './Identity.sol';\nimport \"@openzeppelin/contracts/token/ERC20/ERC20.sol\";\n\n\ncontract Profile {\n    Hub public hub;\n\n    uint256 public minimalStake = 3*10**21;\n    uint256 public withdrawalTime = 5 minutes;\n\n    constructor(address hubAddress) {\n        require(hubAddress != address(0));\n        hub = Hub(hubAddress);\n    }\n\n    modifier onlyHolding(){\n        require(msg.sender == hub.getContractAddress(\"Holding\"),\n        \"Function can only be called by Holding contract!\");\n        _;\n    }\n\n    event ProfileCreated(address profile, uint256 initialBalance);\n    event IdentityCreated(address profile, address newIdentity);\n    event IdentityTransferred(bytes20 nodeId, address oldIdentity, address newIdentity);\n    event TokenDeposit(address profile, uint256 amount);\n\n    event TokensDeposited(address profile, uint256 amountDeposited, uint256 newBalance);\n    event TokensReserved(address profile, uint256 amountReserved);\n\n    event WithdrawalInitiated(address profile, uint256 amount, uint256 withdrawalDelayInSeconds);\n    event TokenWithdrawalCancelled(address profile);\n    event TokensWithdrawn(address profile, uint256 amountWithdrawn, uint256 newBalance);\n\n    event TokensReleased(address profile, uint256 amount);\n    event TokensTransferred(address sender, address receiver, uint256 amount);\n\n    function createProfile(address managementWallet, bytes32 nodeId, uint256 initialBalance, address identity) public {\n        require(managementWallet!=address(0));\n        ERC20 tokenContract = ERC20(hub.getContractAddress(\"Token\"));\n        require(tokenContract.allowance(msg.sender, address(hub.getContractAddress(\"ProfileStorage\"))) >= initialBalance, \"Sender allowance must be equal to or higher than initial balance\");\n        require(tokenContract.balanceOf(msg.sender) >= initialBalance, \"Sender balance must be equal to or higher than initial balance!\");\n        require(uint256(nodeId) != 0, \"Cannot create a profile without a nodeId submitted\");\n\n        tokenContract.transferFrom(msg.sender, hub.getContractAddress(\"ProfileStorage\"), initialBalance);\n        require(ERC734(identity).keyHasPurpose(keccak256(abi.encodePacked(msg.sender)), 2),  \"Sender does not have action permission for identity!\");\n\n        ProfileStorage(hub.getContractAddress(\"ProfileStorage\")).setStake(identity, initialBalance);\n        ProfileStorage(hub.getContractAddress(\"ProfileStorage\")).setNodeId(identity, nodeId);\n\n        emit ProfileCreated(identity, initialBalance);\n    }\n\n    function depositTokens(address identity, uint256 amount) public {\n        require(ERC734(identity).keyHasPurpose(keccak256(abi.encodePacked(msg.sender)), 1),  \"Sender does not have management permission for identity!\");\n\n        ProfileStorage profileStorage = ProfileStorage(hub.getContractAddress(\"ProfileStorage\"));\n\n        ERC20 tokenContract = ERC20(hub.getContractAddress(\"Token\"));\n        require(tokenContract.allowance(msg.sender, address(profileStorage)) >= amount, \"Sender allowance must be equal to or higher than chosen amount\");\n        require(tokenContract.balanceOf(msg.sender) >= amount, \"Sender balance must be equal to or higher than chosen amount!\");\n\n        tokenContract.transferFrom(msg.sender, address(profileStorage), amount);\n\n        profileStorage.setStake(identity, profileStorage.getStake(identity) + amount);\n\n        emit TokensDeposited(identity, amount, profileStorage.getStake(identity));\n    }\n\n    function startTokenWithdrawal(address identity, uint256 amount) public {\n        require(ERC734(identity).keyHasPurpose(keccak256(abi.encodePacked(msg.sender)), 1),  \"Sender does not have management permission for identity!\");\n\n        ProfileStorage profileStorage = ProfileStorage(hub.getContractAddress(\"ProfileStorage\"));\n\n        require(profileStorage.getWithdrawalPending(identity) == false, \"Withrdrawal process already pending!\");\n\n        uint256 availableBalance = profileStorage.getStake(identity) - (profileStorage.getStakeReserved(identity));\n\n        profileStorage.setWithdrawalPending(identity, true);\n        profileStorage.setWithdrawalTimestamp(identity, block.timestamp + withdrawalTime);\n        if(availableBalance >= amount) {\n            // Reserve chosen token amount\n            profileStorage.setWithdrawalAmount(identity, amount);\n            emit WithdrawalInitiated(identity, amount, withdrawalTime);\n        }\n        else {\n            // Reserve only the available balance\n            profileStorage.setWithdrawalAmount(identity, availableBalance);\n            emit WithdrawalInitiated(identity, availableBalance, withdrawalTime);\n        }\n    }\n\n    function withdrawTokens(address identity) public {\n        // Verify sender\n        require(ERC734(identity).keyHasPurpose(keccak256(abi.encodePacked(msg.sender)), 1),  \"Sender does not have management permission for identity!\");\n\n        ProfileStorage profileStorage = ProfileStorage(hub.getContractAddress(\"ProfileStorage\"));\n\n        require(profileStorage.getWithdrawalPending(identity) == true, \"Cannot withdraw tokens before starting token withdrawal!\");\n        require(profileStorage.getWithdrawalTimestamp(identity) < block.timestamp, \"Cannot withdraw tokens before withdrawal timestamp!\");\n\n        // Transfer already reserved tokens to user identity\n        profileStorage.transferTokens(msg.sender, profileStorage.getWithdrawalAmount(identity));\n\n        profileStorage.setStake(\n            identity,\n            profileStorage.getStake(identity) - (profileStorage.getWithdrawalAmount(identity))\n        );\n\n        profileStorage.setWithdrawalPending(identity, false);\n\n        emit TokensWithdrawn(\n            identity,\n            profileStorage.getWithdrawalAmount(identity),\n            profileStorage.getStake(identity)\n        );\n    }\n\n    function releaseTokens(address profile, uint256 amount)\n    public onlyHolding {\n        require(profile!=address(0));\n        ProfileStorage profileStorage = ProfileStorage(hub.getContractAddress(\"ProfileStorage\"));\n\n        require(profileStorage.getStakeReserved(profile) >= amount, \"Cannot release more tokens than there are reserved\");\n\n        profileStorage.setStakeReserved(profile, profileStorage.getStakeReserved(profile) - (amount));\n\n        emit TokensReleased(profile, amount);\n    }\n\n    function transferTokens(address sender, address receiver, uint256 amount)\n    public onlyHolding {\n        require(sender!=address(0) && receiver!=address(0));\n        ProfileStorage profileStorage = ProfileStorage(hub.getContractAddress(\"ProfileStorage\"));\n\n        require(profileStorage.getStake(sender) >= amount, \"Sender does not have enough tokens to transfer!\");\n        require(profileStorage.getStakeReserved(sender) >= amount, \"Sender does not have enough tokens reserved to transfer!\");\n\n        profileStorage.setStakeReserved(sender, profileStorage.getStakeReserved(sender) - (amount));\n        profileStorage.setStake(sender, profileStorage.getStake(sender) - (amount));\n        profileStorage.setStake(receiver, profileStorage.getStake(receiver) + (amount));\n\n        emit TokensTransferred(sender, receiver, amount);\n    }\n\n    function setMinimalStake(uint256 newMinimalStake)\n    public {\n        require (msg.sender == hub.owner(), \"Function can only be called by hub owner!\");\n        if(minimalStake != newMinimalStake) minimalStake = newMinimalStake;\n    }\n\n    function setWithdrawalTime(uint256 newWithdrawalTime)\n    public {\n        require (msg.sender == hub.owner(), \"Function can only be called by hub owner!\");\n        if(withdrawalTime != newWithdrawalTime) withdrawalTime = newWithdrawalTime;\n    }\n}\n",
  "sourcePath": "/Users/miloskotlar/dkg-onchain-module-v6/contracts/Profile.sol",
  "compiler": {
    "name": "solc",
    "version": "0.8.14+commit.80d49f37.Emscripten.clang"
  },
  "schemaVersion": "3.4.3",
  "updatedAt": "2022-06-29T08:34:14.388Z",
  "networkType": "ethereum",
  "devdoc": {
    "kind": "dev",
    "methods": {},
    "version": 1
  },
  "userdoc": {
    "kind": "user",
    "methods": {},
    "version": 1
  }
}