{
  "contractName": "UAIRegistry",
  "abi": [
    {
      "inputs": [
        {
          "internalType": "address",
          "name": "tokenAddress",
          "type": "address"
        },
        {
          "internalType": "address",
          "name": "assertionRegistryAddress",
          "type": "address"
        }
      ],
      "stateMutability": "nonpayable",
      "type": "constructor"
    },
    {
      "anonymous": false,
      "inputs": [
        {
          "indexed": true,
          "internalType": "address",
          "name": "previousOwner",
          "type": "address"
        },
        {
          "indexed": true,
          "internalType": "address",
          "name": "newOwner",
          "type": "address"
        }
      ],
      "name": "OwnershipTransferred",
      "type": "event"
    },
    {
      "anonymous": false,
      "inputs": [
        {
          "indexed": true,
          "internalType": "bytes32",
          "name": "UAI",
          "type": "bytes32"
        },
        {
          "indexed": true,
          "internalType": "uint256",
          "name": "amount",
          "type": "uint256"
        },
        {
          "indexed": true,
          "internalType": "address",
          "name": "depositor",
          "type": "address"
        }
      ],
      "name": "TokensDepositedToAsset",
      "type": "event"
    },
    {
      "anonymous": false,
      "inputs": [
        {
          "indexed": true,
          "internalType": "bytes32",
          "name": "UAI",
          "type": "bytes32"
        },
        {
          "indexed": true,
          "internalType": "bytes32",
          "name": "stateCommitHash",
          "type": "bytes32"
        }
      ],
      "name": "UAICreated",
      "type": "event"
    },
    {
      "anonymous": false,
      "inputs": [
        {
          "indexed": true,
          "internalType": "address",
          "name": "assertionRegistryAddress",
          "type": "address"
        }
      ],
      "name": "UAIRegistryInit",
      "type": "event"
    },
    {
      "anonymous": false,
      "inputs": [
        {
          "indexed": true,
          "internalType": "bytes32",
          "name": "UAI",
          "type": "bytes32"
        },
        {
          "indexed": true,
          "internalType": "bytes32",
          "name": "stateCommitHash",
          "type": "bytes32"
        }
      ],
      "name": "UAIUpdatedState",
      "type": "event"
    },
    {
      "inputs": [
        {
          "internalType": "bytes32",
          "name": "",
          "type": "bytes32"
        }
      ],
      "name": "UAIstatus",
      "outputs": [
        {
          "internalType": "bool",
          "name": "",
          "type": "bool"
        }
      ],
      "stateMutability": "view",
      "type": "function",
      "constant": true
    },
    {
      "inputs": [
        {
          "internalType": "bytes32",
          "name": "",
          "type": "bytes32"
        }
      ],
      "name": "assetRecords",
      "outputs": [
        {
          "internalType": "uint256",
          "name": "creationTimestamp",
          "type": "uint256"
        },
        {
          "internalType": "bytes32",
          "name": "alsoKnownAs",
          "type": "bytes32"
        },
        {
          "internalType": "uint8",
          "name": "_type",
          "type": "uint8"
        },
        {
          "internalType": "address",
          "name": "controller",
          "type": "address"
        },
        {
          "internalType": "bytes32",
          "name": "stateCommitHash",
          "type": "bytes32"
        }
      ],
      "stateMutability": "view",
      "type": "function",
      "constant": true
    },
    {
      "inputs": [
        {
          "internalType": "bytes32",
          "name": "",
          "type": "bytes32"
        }
      ],
      "name": "assetStake",
      "outputs": [
        {
          "internalType": "uint256",
          "name": "",
          "type": "uint256"
        }
      ],
      "stateMutability": "view",
      "type": "function",
      "constant": true
    },
    {
      "inputs": [],
      "name": "owner",
      "outputs": [
        {
          "internalType": "address",
          "name": "",
          "type": "address"
        }
      ],
      "stateMutability": "view",
      "type": "function",
      "constant": true
    },
    {
      "inputs": [],
      "name": "renounceOwnership",
      "outputs": [],
      "stateMutability": "nonpayable",
      "type": "function"
    },
    {
      "inputs": [
        {
          "internalType": "address",
          "name": "newOwner",
          "type": "address"
        }
      ],
      "name": "transferOwnership",
      "outputs": [],
      "stateMutability": "nonpayable",
      "type": "function"
    },
    {
      "inputs": [
        {
          "internalType": "bytes32",
          "name": "UAI",
          "type": "bytes32"
        },
        {
          "internalType": "uint8",
          "name": "_type",
          "type": "uint8"
        },
        {
          "internalType": "bytes32",
          "name": "alsoKnownAs",
          "type": "bytes32"
        },
        {
          "internalType": "bytes32",
          "name": "stateCommitHash",
          "type": "bytes32"
        },
        {
          "internalType": "bytes32",
          "name": "rootHash",
          "type": "bytes32"
        },
        {
          "internalType": "uint256",
          "name": "tokenAmount",
          "type": "uint256"
        }
      ],
      "name": "registerAsset",
      "outputs": [
        {
          "internalType": "bytes32",
          "name": "",
          "type": "bytes32"
        }
      ],
      "stateMutability": "nonpayable",
      "type": "function"
    },
    {
      "inputs": [
        {
          "internalType": "bytes32",
          "name": "UAI",
          "type": "bytes32"
        },
        {
          "internalType": "bytes32",
          "name": "newStateCommitHash",
          "type": "bytes32"
        },
        {
          "internalType": "bytes32",
          "name": "rootHash",
          "type": "bytes32"
        }
      ],
      "name": "updateAssetState",
      "outputs": [
        {
          "internalType": "bytes32",
          "name": "",
          "type": "bytes32"
        }
      ],
      "stateMutability": "nonpayable",
      "type": "function"
    },
    {
      "inputs": [
        {
          "internalType": "bytes32",
          "name": "UAI",
          "type": "bytes32"
        }
      ],
      "name": "getAssetStateCommitHash",
      "outputs": [
        {
          "internalType": "bytes32",
          "name": "stateCommitHash",
          "type": "bytes32"
        }
      ],
      "stateMutability": "view",
      "type": "function",
      "constant": true
    },
    {
      "inputs": [
        {
          "internalType": "bytes32",
          "name": "UAI",
          "type": "bytes32"
        }
      ],
      "name": "getAssetController",
      "outputs": [
        {
          "internalType": "address",
          "name": "controller",
          "type": "address"
        }
      ],
      "stateMutability": "view",
      "type": "function",
      "constant": true
    },
    {
      "inputs": [
        {
          "internalType": "bytes32",
          "name": "UAI",
          "type": "bytes32"
        }
      ],
      "name": "getAssetAKA",
      "outputs": [
        {
          "internalType": "bytes32",
          "name": "alsoKnownAs",
          "type": "bytes32"
        }
      ],
      "stateMutability": "view",
      "type": "function",
      "constant": true
    },
    {
      "inputs": [
        {
          "internalType": "bytes32",
          "name": "UAI",
          "type": "bytes32"
        }
      ],
      "name": "getAssetCreationTimestamp",
      "outputs": [
        {
          "internalType": "uint256",
          "name": "creationTimestamp",
          "type": "uint256"
        }
      ],
      "stateMutability": "view",
      "type": "function",
      "constant": true
    },
    {
      "inputs": [],
      "name": "getAssertionRegistry",
      "outputs": [
        {
          "internalType": "address",
          "name": "assertionRegistry",
          "type": "address"
        }
      ],
      "stateMutability": "view",
      "type": "function",
      "constant": true
    },
    {
      "inputs": [
        {
          "internalType": "uint256",
          "name": "amount",
          "type": "uint256"
        },
        {
          "internalType": "bytes32",
          "name": "UAI",
          "type": "bytes32"
        }
      ],
      "name": "depositTokens",
      "outputs": [],
      "stateMutability": "nonpayable",
      "type": "function"
    }
  ],
  "bytecode": "0x608060405234801561001057600080fd5b506040516119733803806119738339818101604052604081101561003357600080fd5b810190808051906020019092919080519060200190929190505050600061005e61027d60201b60201c565b9050806000806101000a81548173ffffffffffffffffffffffffffffffffffffffff021916908373ffffffffffffffffffffffffffffffffffffffff1602179055508073ffffffffffffffffffffffffffffffffffffffff16600073ffffffffffffffffffffffffffffffffffffffff167f8be0079c531659141344cd1fd0a4f28419497f9722a3daafe3b4186f6b6457e060405160405180910390a350600073ffffffffffffffffffffffffffffffffffffffff168273ffffffffffffffffffffffffffffffffffffffff16141561013657600080fd5b600073ffffffffffffffffffffffffffffffffffffffff168173ffffffffffffffffffffffffffffffffffffffff16141561017057600080fd5b81600160006101000a81548173ffffffffffffffffffffffffffffffffffffffff021916908373ffffffffffffffffffffffffffffffffffffffff16021790555080600360006101000a81548173ffffffffffffffffffffffffffffffffffffffff021916908373ffffffffffffffffffffffffffffffffffffffff16021790555080600260006101000a81548173ffffffffffffffffffffffffffffffffffffffff021916908373ffffffffffffffffffffffffffffffffffffffff1602179055508073ffffffffffffffffffffffffffffffffffffffff167f52db5c2cb9235be3e8a3fe47f4ec4bc55b5e28aa119b750b0e766b1cb00c9aa760405160405180910390a25050610285565b600033905090565b6116df806102946000396000f3fe608060405234801561001057600080fd5b50600436106100ea5760003560e01c806377636d1d1161008c5780638da5cb5b116100665780638da5cb5b146103bf578063a9cd6a2d146103f3578063d15b223e14610449578063f2fde38b14610481576100ea565b806377636d1d146102ae57806378e98392146103065780637f58afc81461037d576100ea565b806334e5197b116100c857806334e5197b146101de57806352569b9d146102205780636f3a922914610262578063715018a6146102a4576100ea565b806309600fa6146100ef57806309added7146101665780632f1704bc146101aa575b600080fd5b61011b6004803603602081101561010557600080fd5b81019080803590602001909291905050506104c5565b604051808681526020018581526020018460ff1681526020018373ffffffffffffffffffffffffffffffffffffffff1681526020018281526020019550505050505060405180910390f35b6101926004803603602081101561017c57600080fd5b8101908080359060200190929190505050610528565b60405180821515815260200191505060405180910390f35b6101b2610548565b604051808273ffffffffffffffffffffffffffffffffffffffff16815260200191505060405180910390f35b61020a600480360360208110156101f457600080fd5b8101908080359060200190929190505050610572565b6040518082815260200191505060405180910390f35b61024c6004803603602081101561023657600080fd5b810190808035906020019092919050505061058a565b6040518082815260200191505060405180910390f35b61028e6004803603602081101561027857600080fd5b81019080803590602001909291905050506105aa565b6040518082815260200191505060405180910390f35b6102ac6105ca565b005b6102da600480360360208110156102c457600080fd5b8101908080359060200190929190505050610737565b604051808273ffffffffffffffffffffffffffffffffffffffff16815260200191505060405180910390f35b610367600480360360c081101561031c57600080fd5b8101908080359060200190929190803560ff16906020019092919080359060200190929190803590602001909291908035906020019092919080359060200190929190505050610777565b6040518082815260200191505060405180910390f35b6103a96004803603602081101561039357600080fd5b8101908080359060200190929190505050610b53565b6040518082815260200191505060405180910390f35b6103c7610b73565b604051808273ffffffffffffffffffffffffffffffffffffffff16815260200191505060405180910390f35b6104336004803603606081101561040957600080fd5b81019080803590602001909291908035906020019092919080359060200190929190505050610b9c565b6040518082815260200191505060405180910390f35b61047f6004803603604081101561045f57600080fd5b810190808035906020019092919080359060200190929190505050610e19565b005b6104c36004803603602081101561049757600080fd5b81019080803573ffffffffffffffffffffffffffffffffffffffff1690602001909291905050506112b2565b005b60046020528060005260406000206000915090508060000154908060010154908060020160009054906101000a900460ff16908060020160019054906101000a900473ffffffffffffffffffffffffffffffffffffffff16908060030154905085565b60056020528060005260406000206000915054906101000a900460ff1681565b6000600360009054906101000a900473ffffffffffffffffffffffffffffffffffffffff16905090565b60066020528060005260406000206000915090505481565b600060046000838152602001908152602001600020600301549050919050565b600060046000838152602001908152602001600020600101549050919050565b6105d26114a4565b73ffffffffffffffffffffffffffffffffffffffff166105f0610b73565b73ffffffffffffffffffffffffffffffffffffffff1614610679576040517f08c379a00000000000000000000000000000000000000000000000000000000081526004018080602001828103825260208152602001807f4f776e61626c653a2063616c6c6572206973206e6f7420746865206f776e657281525060200191505060405180910390fd5b600073ffffffffffffffffffffffffffffffffffffffff1660008054906101000a900473ffffffffffffffffffffffffffffffffffffffff1673ffffffffffffffffffffffffffffffffffffffff167f8be0079c531659141344cd1fd0a4f28419497f9722a3daafe3b4186f6b6457e060405160405180910390a360008060006101000a81548173ffffffffffffffffffffffffffffffffffffffff021916908373ffffffffffffffffffffffffffffffffffffffff160217905550565b60006004600083815260200190815260200160002060020160019054906101000a900473ffffffffffffffffffffffffffffffffffffffff169050919050565b60008060001b8714156107f2576040517f08c379a00000000000000000000000000000000000000000000000000000000081526004018080602001828103825260128152602001807f5541492063616e6e6f74206265207a65726f000000000000000000000000000081525060200191505060405180910390fd5b60038660ff161061084e576040517f08c379a00000000000000000000000000000000000000000000000000000000081526004018080602001828103825260218152602001806116686021913960400191505060405180910390fd5b6000801b8514156108c7576040517f08c379a000000000000000000000000000000000000000000000000000000000815260040180806020018281038252601a8152602001807f616c736f4b6e6f776e41732063616e6e6f74206265207a65726f00000000000081525060200191505060405180910390fd5b6000801b841415610940576040517f08c379a000000000000000000000000000000000000000000000000000000000815260040180806020018281038252601e8152602001807f7374617465436f6d6d6974486173682063616e6e6f74206265207a65726f000081525060200191505060405180910390fd5b600015156005600089815260200190815260200160002060009054906101000a900460ff1615151461097157600080fd5b600260009054906101000a900473ffffffffffffffffffffffffffffffffffffffff1673ffffffffffffffffffffffffffffffffffffffff166373a7738985856001806040518563ffffffff1660e01b815260040180858152602001848152602001838152602001828152602001945050505050600060405180830381600087803b1580156109ff57600080fd5b505af1158015610a13573d6000803e3d6000fd5b50505050836004600089815260200190815260200160002060030181905550856004600089815260200190815260200160002060020160006101000a81548160ff021916908360ff160217905550846004600089815260200190815260200160002060010181905550336004600089815260200190815260200160002060020160016101000a81548173ffffffffffffffffffffffffffffffffffffffff021916908373ffffffffffffffffffffffffffffffffffffffff16021790555042600460008981526020019081526020016000206000018190555060016005600089815260200190815260200160002060006101000a81548160ff02191690831515021790555083877f2f87578a4aeec4a0b61bbcea1767fec00fa79a35cf600b258509e25acdaba8e760405160405180910390a38690509695505050505050565b600060046000838152602001908152602001600020600001549050919050565b60008060009054906101000a900473ffffffffffffffffffffffffffffffffffffffff16905090565b60008060001b841415610c17576040517f08c379a00000000000000000000000000000000000000000000000000000000081526004018080602001828103825260128152602001807f5541492063616e6e6f74206265207a65726f000000000000000000000000000081525060200191505060405180910390fd5b600115156005600086815260200190815260200160002060009054906101000a900460ff16151514610cb1576040517f08c379a00000000000000000000000000000000000000000000000000000000081526004018080602001828103825260108152602001807f4173736574206d7573742065786973740000000000000000000000000000000081525060200191505060405180910390fd5b6000801b831415610d0d576040517f08c379a00000000000000000000000000000000000000000000000000000000081526004018080602001828103825260218152602001806116896021913960400191505060405180910390fd5b610d1784336114ac565b610d2057600080fd5b600260009054906101000a900473ffffffffffffffffffffffffffffffffffffffff1673ffffffffffffffffffffffffffffffffffffffff166373a7738984846001806040518563ffffffff1660e01b815260040180858152602001848152602001838152602001828152602001945050505050600060405180830381600087803b158015610dae57600080fd5b505af1158015610dc2573d6000803e3d6000fd5b5050505082600460008681526020019081526020016000206003018190555082847fa83f066abfa07a77196c29bd4b7aab88f194feaa03d9769ec2ceccf6701d06de60405160405180910390a38390509392505050565b60008211610e8f576040517f08c379a00000000000000000000000000000000000000000000000000000000081526004018080602001828103825260158152602001807f416d6f756e742063616e6e6f74206265207a65726f000000000000000000000081525060200191505060405180910390fd5b81600160009054906101000a900473ffffffffffffffffffffffffffffffffffffffff1673ffffffffffffffffffffffffffffffffffffffff1663dd62ed3e33306040518363ffffffff1660e01b8152600401808373ffffffffffffffffffffffffffffffffffffffff1681526020018273ffffffffffffffffffffffffffffffffffffffff1681526020019250505060206040518083038186803b158015610f3757600080fd5b505afa158015610f4b573d6000803e3d6000fd5b505050506040513d6020811015610f6157600080fd5b81019080805190602001909291905050501015610fc9576040517f08c379a000000000000000000000000000000000000000000000000000000000815260040180806020018281038252603e815260200180611607603e913960400191505060405180910390fd5b81600160009054906101000a900473ffffffffffffffffffffffffffffffffffffffff1673ffffffffffffffffffffffffffffffffffffffff166370a08231336040518263ffffffff1660e01b8152600401808273ffffffffffffffffffffffffffffffffffffffff16815260200191505060206040518083038186803b15801561105357600080fd5b505afa158015611067573d6000803e3d6000fd5b505050506040513d602081101561107d57600080fd5b810190808051906020019092919050505010156110e5576040517f08c379a000000000000000000000000000000000000000000000000000000000815260040180806020018281038252603d8152602001806115ca603d913960400191505060405180910390fd5b6000600160009054906101000a900473ffffffffffffffffffffffffffffffffffffffff1673ffffffffffffffffffffffffffffffffffffffff166323b872dd3330866040518463ffffffff1660e01b8152600401808473ffffffffffffffffffffffffffffffffffffffff1681526020018373ffffffffffffffffffffffffffffffffffffffff1681526020018281526020019350505050602060405180830381600087803b15801561119857600080fd5b505af11580156111ac573d6000803e3d6000fd5b505050506040513d60208110156111c257600080fd5b810190808051906020019092919050505090508061122b576040517f08c379a00000000000000000000000000000000000000000000000000000000081526004018080602001828103825260238152602001806116456023913960400191505060405180910390fd5b61125183600660008581526020019081526020016000205461151b90919063ffffffff16565b60066000848152602001908152602001600020819055503373ffffffffffffffffffffffffffffffffffffffff1683837f2460c4e801cd784222555963fc8a1f1497f9ce3b23446fa14da62d317098933360405160405180910390a4505050565b6112ba6114a4565b73ffffffffffffffffffffffffffffffffffffffff166112d8610b73565b73ffffffffffffffffffffffffffffffffffffffff1614611361576040517f08c379a00000000000000000000000000000000000000000000000000000000081526004018080602001828103825260208152602001807f4f776e61626c653a2063616c6c6572206973206e6f7420746865206f776e657281525060200191505060405180910390fd5b600073ffffffffffffffffffffffffffffffffffffffff168173ffffffffffffffffffffffffffffffffffffffff1614156113e7576040517f08c379a00000000000000000000000000000000000000000000000000000000081526004018080602001828103825260268152602001806115a46026913960400191505060405180910390fd5b8073ffffffffffffffffffffffffffffffffffffffff1660008054906101000a900473ffffffffffffffffffffffffffffffffffffffff1673ffffffffffffffffffffffffffffffffffffffff167f8be0079c531659141344cd1fd0a4f28419497f9722a3daafe3b4186f6b6457e060405160405180910390a3806000806101000a81548173ffffffffffffffffffffffffffffffffffffffff021916908373ffffffffffffffffffffffffffffffffffffffff16021790555050565b600033905090565b60006004600084815260200190815260200160002060020160019054906101000a900473ffffffffffffffffffffffffffffffffffffffff1673ffffffffffffffffffffffffffffffffffffffff168273ffffffffffffffffffffffffffffffffffffffff1614905092915050565b600080828401905083811015611599576040517f08c379a000000000000000000000000000000000000000000000000000000000815260040180806020018281038252601b8152602001807f536166654d6174683a206164646974696f6e206f766572666c6f77000000000081525060200191505060405180910390fd5b809150509291505056fe4f776e61626c653a206e6577206f776e657220697320746865207a65726f206164647265737353656e6465722062616c616e6365206d75737420626520657175616c20746f206f7220686967686572207468616e2063686f73656e20616d6f756e742153656e64657220616c6c6f77616e6365206d75737420626520657175616c20746f206f7220686967686572207468616e2063686f73656e20616d6f756e74546f6b656e207472616e73616374696f6e20657865637574696f6e206661696c6564215f7479706520616c6c6f7765642076616c7565733a20302c312c322028574950296e65775374617465436f6d6d6974486173682063616e6e6f74206265207a65726fa2646970667358221220ba0992a1275bbde52e5ec43a9e876357a0b660ab7a8a9001a6dd6b975bbe94bf64736f6c63430007060033",
  "immutableReferences": {},
  "source": "pragma solidity >=0.6.0 <0.8.0;\n\nimport \"openzeppelin-solidity/contracts/token/ERC20/IERC20.sol\";\nimport \"openzeppelin-solidity/contracts/token/ERC721/IERC721.sol\";\nimport \"openzeppelin-solidity/contracts/token/ERC1155/IERC1155.sol\";\nimport \"openzeppelin-solidity/contracts/math/SafeMath.sol\";\nimport \"openzeppelin-solidity/contracts/access/Ownable.sol\";\nimport \"./DKGcontract.sol\";\n\n/*\n\nUAI/UALs essentially are:\n\n- DID/DID URLs native to the OriginTrail DKG\n- uniquely identify physical or digital assets (DID subjects)\n- have one or more \"owners\" (DID controllers)\n\nThe specification for UAI/UALs is currently WIP.\n\n*/\n\ncontract UAIRegistry is Ownable {\n\n\tenum AssetType{\n\t\tNative,\n\t\tERC721,\n\t\tERC1155\n\t}\n\n\tusing SafeMath for uint256;\n\tIERC20 token;\n\tDKGcontract AssertionRegistry;\n\taddress AssertionRegistryAddress;\n\n\tstruct AssetRecord{\n\t\tuint256 creationTimestamp;\n\t\tbytes32 alsoKnownAs; // alternative ID, as defined in DID-core spec, PoC address + tokenURI\n\t\tuint8 _type;\n\t\taddress controller; // tbd \n\t\tbytes32 stateCommitHash;\n\t}\n\n\tmapping(bytes32 => AssetRecord) public assetRecords;\n\tmapping(bytes32 => bool) public UAIstatus; \n\tmapping(bytes32 => uint256) public assetStake; \n\t\n\n\t// events\n\tevent UAIRegistryInit(address indexed assertionRegistryAddress);\n\tevent UAICreated(bytes32 indexed UAI, bytes32 indexed stateCommitHash);\n\tevent UAIUpdatedState(bytes32 indexed UAI, bytes32 indexed stateCommitHash );\n\tevent TokensDepositedToAsset(bytes32 indexed UAI, uint256 indexed amount, address indexed depositor);\n\n\tconstructor(address tokenAddress, address assertionRegistryAddress)  public {\n\t\trequire(tokenAddress!=address(0));\n\t\trequire(assertionRegistryAddress!=address(0));\n\n\t\ttoken = IERC20(tokenAddress);\n\t\tAssertionRegistryAddress = assertionRegistryAddress;\n\t\tAssertionRegistry = DKGcontract(assertionRegistryAddress);\n\t\temit UAIRegistryInit(assertionRegistryAddress);\n\t}\n\n\tfunction registerAsset(bytes32 UAI, uint8 _type, bytes32 alsoKnownAs, bytes32 stateCommitHash, bytes32 rootHash, uint256 tokenAmount) public returns (bytes32){\n\n\t\trequire(UAI!=0, \"UAI cannot be zero\");\n\t\trequire(_type < 3, \"_type allowed values: 0,1,2 (WIP)\");\n\t\trequire(alsoKnownAs!=0, \"alsoKnownAs cannot be zero\");\n\t\trequire(stateCommitHash!=0, \"stateCommitHash cannot be zero\");\n\t\trequire(UAIstatus[UAI] == false ); // should not be possible to register existing asset again\n\n\t\t//bytes32 UAI = createUAI(_type,alsoKnownAs);\n\n\t\t// depositTokens(tokenAmount, UAI); // todo\n\n\t\tAssertionRegistry.createAssertionRecord(stateCommitHash, rootHash, 1, 1); // todo: update when DKGcontract is updated\n\t\tassetRecords[UAI].stateCommitHash = stateCommitHash;\n\t\tassetRecords[UAI]._type = _type;\n\t\tassetRecords[UAI].alsoKnownAs = alsoKnownAs;\n\t\tassetRecords[UAI].controller = msg.sender; // should update with AssetControllerProxy contract\n\t\tassetRecords[UAI].creationTimestamp = block.timestamp;\n\t\tUAIstatus[UAI] = true;\n\n\t\temit UAICreated(UAI, stateCommitHash);\n\n\t\treturn UAI;\n\t}\t\n\n\n\tfunction updateAssetState(bytes32 UAI, bytes32 newStateCommitHash, bytes32 rootHash) public returns (bytes32) {\n\n\t\trequire(UAI!=0, \"UAI cannot be zero\");\n\t\trequire(UAIstatus[UAI] == true, \"Asset must exist\" );\n\t\trequire(newStateCommitHash!=0, \"newStateCommitHash cannot be zero\");\n\t\trequire(isOwner(UAI,msg.sender));\n\t\t\n\t\tAssertionRegistry.createAssertionRecord(newStateCommitHash, rootHash, 1, 1); // UPDATE\n\t\tassetRecords[UAI].stateCommitHash =  newStateCommitHash;\n\t\t// todo: store old commits somewhere\n\n\t\temit UAIUpdatedState(UAI, newStateCommitHash);\n\n\t\treturn UAI;\n\t}\n\n\n\t// getters\n\tfunction getAssetStateCommitHash(bytes32 UAI) public view returns(bytes32 stateCommitHash){\n\t\treturn assetRecords[UAI].stateCommitHash;\n\t}\n\n\tfunction getAssetController(bytes32 UAI) public view returns(address controller){\n\t\treturn assetRecords[UAI].controller;\n\t}\n\n\tfunction getAssetAKA(bytes32 UAI) public view returns(bytes32 alsoKnownAs){\n\t\treturn assetRecords[UAI].alsoKnownAs;\n\t}\n\n\tfunction getAssetCreationTimestamp(bytes32 UAI) public view returns(uint256 creationTimestamp){\n\t\treturn assetRecords[UAI].creationTimestamp;\n\t}\n\n\tfunction getAssertionRegistry() public view returns(address assertionRegistry){\n\t\treturn AssertionRegistryAddress;\n\t}\n\n\t// internal\n\n\n\t/**\n     * @dev Should determine type of ``contractAddress``, if possible, returning enum AssetType\n     */\n     function determineType(address contractAddress, bytes32 id) internal returns (uint8){\n\t\treturn 0; // todo: implement detection of contract type\n\t}\n\n\t/**\n     * @dev Returns bool checking if ``owner`` is controller of ``UAI``\n     */\n     function isOwner(bytes32 UAI, address owner) internal returns (bool) {\n     \treturn owner == assetRecords[UAI].controller;\n     }\n\n\t/**\n     * @dev Deposits tokens in ``amount`` to specific ``UAI``\n     */\n     function depositTokens(uint256 amount, bytes32 UAI) public {\n\n     \trequire(amount>0, \"Amount cannot be zero\");\n     \trequire(token.allowance(msg.sender, address(this)) >= amount, \"Sender allowance must be equal to or higher than chosen amount\");\n     \trequire(token.balanceOf(msg.sender) >= amount, \"Sender balance must be equal to or higher than chosen amount!\");\n\n     \tbool transaction_result = token.transferFrom(msg.sender, address(this), amount);\n     \trequire(transaction_result, \"Token transaction execution failed!\");\n\n\t\t// if (stake[msg.sender] == 0){\n\t\t// \tparticipant_indexes[msg.sender] = participants.length;\n\t\t// \tparticipants.push(msg.sender);\n\t\t// }\n\n\t\tassetStake[UAI] = assetStake[UAI].add(amount);\n\t\temit TokensDepositedToAsset(UAI, amount,msg.sender);\n\n\t}\t\n\n\n}",
  "sourcePath": "/Users/miloskotlar/dkg-onchain-module-v6/contracts/UAIRegistry.sol",
  "compiler": {
    "name": "solc",
    "version": "0.7.6+commit.7338295f.Emscripten.clang"
  },
  "schemaVersion": "3.4.3",
  "updatedAt": "2022-02-10T19:25:20.340Z",
  "networkType": "ethereum",
  "devdoc": {
    "kind": "dev",
    "methods": {
      "depositTokens(uint256,bytes32)": {
        "details": "Deposits tokens in ``amount`` to specific ``UAI``"
      },
      "owner()": {
        "details": "Returns the address of the current owner."
      },
      "renounceOwnership()": {
        "details": "Leaves the contract without owner. It will not be possible to call `onlyOwner` functions anymore. Can only be called by the current owner. NOTE: Renouncing ownership will leave the contract without an owner, thereby removing any functionality that is only available to the owner."
      },
      "transferOwnership(address)": {
        "details": "Transfers ownership of the contract to a new account (`newOwner`). Can only be called by the current owner."
      }
    },
    "version": 1
  },
  "userdoc": {
    "kind": "user",
    "methods": {},
    "version": 1
  }
}