{
  "contractName": "UAIRegistry",
  "abi": [
    {
      "inputs": [
        {
          "internalType": "address",
          "name": "hubAddress",
          "type": "address"
        }
      ],
      "stateMutability": "nonpayable",
      "type": "constructor"
    },
    {
      "anonymous": false,
      "inputs": [
        {
          "indexed": true,
          "internalType": "uint256",
          "name": "UAI",
          "type": "uint256"
        },
        {
          "indexed": true,
          "internalType": "bytes32",
          "name": "stateCommitHash",
          "type": "bytes32"
        }
      ],
      "name": "AssetCreated",
      "type": "event"
    },
    {
      "anonymous": false,
      "inputs": [
        {
          "indexed": true,
          "internalType": "uint256",
          "name": "UAI",
          "type": "uint256"
        },
        {
          "indexed": true,
          "internalType": "bytes32",
          "name": "stateCommitHash",
          "type": "bytes32"
        }
      ],
      "name": "AssetUpdated",
      "type": "event"
    },
    {
      "anonymous": false,
      "inputs": [
        {
          "indexed": true,
          "internalType": "address",
          "name": "previousOwner",
          "type": "address"
        },
        {
          "indexed": true,
          "internalType": "address",
          "name": "newOwner",
          "type": "address"
        }
      ],
      "name": "OwnershipTransferred",
      "type": "event"
    },
    {
      "anonymous": false,
      "inputs": [
        {
          "indexed": true,
          "internalType": "bytes32",
          "name": "UAI",
          "type": "bytes32"
        },
        {
          "indexed": true,
          "internalType": "uint256",
          "name": "amount",
          "type": "uint256"
        },
        {
          "indexed": true,
          "internalType": "address",
          "name": "depositor",
          "type": "address"
        }
      ],
      "name": "TokensDepositedToAsset",
      "type": "event"
    },
    {
      "inputs": [
        {
          "internalType": "uint256",
          "name": "",
          "type": "uint256"
        }
      ],
      "name": "assetRecords",
      "outputs": [
        {
          "internalType": "uint256",
          "name": "creationTimestamp",
          "type": "uint256"
        },
        {
          "internalType": "address",
          "name": "controller",
          "type": "address"
        },
        {
          "internalType": "bytes32",
          "name": "stateCommitHash",
          "type": "bytes32"
        },
        {
          "internalType": "uint256",
          "name": "size",
          "type": "uint256"
        },
        {
          "internalType": "uint256",
          "name": "priceLimit",
          "type": "uint256"
        },
        {
          "internalType": "uint256",
          "name": "stake",
          "type": "uint256"
        }
      ],
      "stateMutability": "view",
      "type": "function",
      "constant": true
    },
    {
      "inputs": [
        {
          "internalType": "bytes32",
          "name": "",
          "type": "bytes32"
        }
      ],
      "name": "assetStake",
      "outputs": [
        {
          "internalType": "uint256",
          "name": "",
          "type": "uint256"
        }
      ],
      "stateMutability": "view",
      "type": "function",
      "constant": true
    },
    {
      "inputs": [],
      "name": "hub",
      "outputs": [
        {
          "internalType": "contract Hub",
          "name": "",
          "type": "address"
        }
      ],
      "stateMutability": "view",
      "type": "function",
      "constant": true
    },
    {
      "inputs": [],
      "name": "owner",
      "outputs": [
        {
          "internalType": "address",
          "name": "",
          "type": "address"
        }
      ],
      "stateMutability": "view",
      "type": "function",
      "constant": true
    },
    {
      "inputs": [],
      "name": "renounceOwnership",
      "outputs": [],
      "stateMutability": "nonpayable",
      "type": "function"
    },
    {
      "inputs": [
        {
          "internalType": "address",
          "name": "newOwner",
          "type": "address"
        }
      ],
      "name": "transferOwnership",
      "outputs": [],
      "stateMutability": "nonpayable",
      "type": "function"
    },
    {
      "inputs": [
        {
          "internalType": "bytes32",
          "name": "stateCommitHash",
          "type": "bytes32"
        },
        {
          "internalType": "uint256",
          "name": "tokenAmount",
          "type": "uint256"
        },
        {
          "internalType": "uint256",
          "name": "size",
          "type": "uint256"
        },
        {
          "internalType": "uint256",
          "name": "holdingTimeInSeconds",
          "type": "uint256"
        },
        {
          "internalType": "bytes32",
          "name": "signature",
          "type": "bytes32"
        }
      ],
      "name": "createAsset",
      "outputs": [
        {
          "internalType": "uint256",
          "name": "",
          "type": "uint256"
        }
      ],
      "stateMutability": "nonpayable",
      "type": "function"
    },
    {
      "inputs": [
        {
          "internalType": "uint256",
          "name": "blockNumber",
          "type": "uint256"
        },
        {
          "internalType": "uint256",
          "name": "numberOfEpochs",
          "type": "uint256"
        },
        {
          "internalType": "uint256",
          "name": "blockTime",
          "type": "uint256"
        },
        {
          "internalType": "uint256",
          "name": "holdingTimeInSeconds",
          "type": "uint256"
        }
      ],
      "name": "generateEpochs",
      "outputs": [
        {
          "internalType": "uint256[]",
          "name": "",
          "type": "uint256[]"
        }
      ],
      "stateMutability": "pure",
      "type": "function",
      "constant": true
    },
    {
      "inputs": [
        {
          "internalType": "uint256",
          "name": "UAI",
          "type": "uint256"
        }
      ],
      "name": "getEpochs",
      "outputs": [
        {
          "internalType": "uint256[]",
          "name": "",
          "type": "uint256[]"
        }
      ],
      "stateMutability": "view",
      "type": "function",
      "constant": true
    },
    {
      "inputs": [
        {
          "internalType": "uint256",
          "name": "UAI",
          "type": "uint256"
        },
        {
          "internalType": "uint256",
          "name": "blockNumber",
          "type": "uint256"
        }
      ],
      "name": "getEpoch",
      "outputs": [
        {
          "internalType": "uint256",
          "name": "",
          "type": "uint256"
        }
      ],
      "stateMutability": "view",
      "type": "function",
      "constant": true
    },
    {
      "inputs": [
        {
          "internalType": "uint256",
          "name": "UAI",
          "type": "uint256"
        }
      ],
      "name": "getEpoch",
      "outputs": [
        {
          "internalType": "uint256",
          "name": "",
          "type": "uint256"
        }
      ],
      "stateMutability": "view",
      "type": "function",
      "constant": true
    },
    {
      "inputs": [
        {
          "internalType": "uint256",
          "name": "UAI",
          "type": "uint256"
        },
        {
          "internalType": "uint256",
          "name": "epoch",
          "type": "uint256"
        }
      ],
      "name": "isEpochActive",
      "outputs": [
        {
          "internalType": "bool",
          "name": "",
          "type": "bool"
        }
      ],
      "stateMutability": "view",
      "type": "function",
      "constant": true
    },
    {
      "inputs": [
        {
          "internalType": "bytes32",
          "name": "x",
          "type": "bytes32"
        },
        {
          "internalType": "bytes32",
          "name": "y",
          "type": "bytes32"
        }
      ],
      "name": "hammingDistance",
      "outputs": [
        {
          "internalType": "uint256",
          "name": "",
          "type": "uint256"
        }
      ],
      "stateMutability": "view",
      "type": "function",
      "constant": true
    },
    {
      "inputs": [
        {
          "internalType": "uint256",
          "name": "UAI",
          "type": "uint256"
        },
        {
          "internalType": "uint256",
          "name": "blockNumber",
          "type": "uint256"
        },
        {
          "internalType": "address",
          "name": "identity",
          "type": "address"
        }
      ],
      "name": "getChallenge",
      "outputs": [
        {
          "internalType": "uint256",
          "name": "",
          "type": "uint256"
        }
      ],
      "stateMutability": "view",
      "type": "function",
      "constant": true
    },
    {
      "inputs": [
        {
          "internalType": "uint256",
          "name": "UAI",
          "type": "uint256"
        },
        {
          "internalType": "uint256",
          "name": "blockNumber",
          "type": "uint256"
        },
        {
          "internalType": "address",
          "name": "identity",
          "type": "address"
        }
      ],
      "name": "calculateChallenge",
      "outputs": [
        {
          "internalType": "uint256",
          "name": "",
          "type": "uint256"
        }
      ],
      "stateMutability": "view",
      "type": "function",
      "constant": true
    },
    {
      "inputs": [
        {
          "internalType": "uint256",
          "name": "UAI",
          "type": "uint256"
        },
        {
          "internalType": "uint256",
          "name": "epoch",
          "type": "uint256"
        },
        {
          "internalType": "address",
          "name": "identity",
          "type": "address"
        }
      ],
      "name": "getContributionRank",
      "outputs": [
        {
          "internalType": "uint256",
          "name": "",
          "type": "uint256"
        }
      ],
      "stateMutability": "view",
      "type": "function",
      "constant": true
    },
    {
      "inputs": [
        {
          "internalType": "uint256",
          "name": "UAI",
          "type": "uint256"
        }
      ],
      "name": "getContributors",
      "outputs": [
        {
          "internalType": "bytes32[][]",
          "name": "",
          "type": "bytes32[][]"
        },
        {
          "internalType": "uint256[][]",
          "name": "",
          "type": "uint256[][]"
        },
        {
          "internalType": "uint256[][]",
          "name": "",
          "type": "uint256[][]"
        },
        {
          "internalType": "uint256[]",
          "name": "",
          "type": "uint256[]"
        }
      ],
      "stateMutability": "view",
      "type": "function",
      "constant": true
    },
    {
      "inputs": [
        {
          "internalType": "uint256",
          "name": "UAI",
          "type": "uint256"
        },
        {
          "internalType": "uint256",
          "name": "blockNumber",
          "type": "uint256"
        },
        {
          "internalType": "bytes32[]",
          "name": "proof",
          "type": "bytes32[]"
        },
        {
          "internalType": "bytes32",
          "name": "leaf",
          "type": "bytes32"
        },
        {
          "internalType": "uint256",
          "name": "price",
          "type": "uint256"
        },
        {
          "internalType": "address",
          "name": "identity",
          "type": "address"
        }
      ],
      "name": "answerChallenge",
      "outputs": [],
      "stateMutability": "nonpayable",
      "type": "function"
    },
    {
      "inputs": [
        {
          "internalType": "uint256",
          "name": "UAI",
          "type": "uint256"
        },
        {
          "internalType": "uint256",
          "name": "epoch",
          "type": "uint256"
        },
        {
          "internalType": "address",
          "name": "identity",
          "type": "address"
        }
      ],
      "name": "getReward",
      "outputs": [],
      "stateMutability": "nonpayable",
      "type": "function"
    },
    {
      "inputs": [
        {
          "internalType": "uint256",
          "name": "UAI",
          "type": "uint256"
        },
        {
          "internalType": "bytes32",
          "name": "newStateCommitHash",
          "type": "bytes32"
        }
      ],
      "name": "updateAsset",
      "outputs": [
        {
          "internalType": "uint256",
          "name": "",
          "type": "uint256"
        }
      ],
      "stateMutability": "nonpayable",
      "type": "function"
    },
    {
      "inputs": [
        {
          "internalType": "uint256",
          "name": "UAI",
          "type": "uint256"
        }
      ],
      "name": "getAssetStateCommitHash",
      "outputs": [
        {
          "internalType": "bytes32",
          "name": "stateCommitHash",
          "type": "bytes32"
        }
      ],
      "stateMutability": "view",
      "type": "function",
      "constant": true
    },
    {
      "inputs": [
        {
          "internalType": "uint256",
          "name": "UAI",
          "type": "uint256"
        }
      ],
      "name": "getAssetOwner",
      "outputs": [
        {
          "internalType": "address",
          "name": "owner",
          "type": "address"
        }
      ],
      "stateMutability": "view",
      "type": "function",
      "constant": true
    },
    {
      "inputs": [
        {
          "internalType": "uint256",
          "name": "UAI",
          "type": "uint256"
        }
      ],
      "name": "getAssetCreationTimestamp",
      "outputs": [
        {
          "internalType": "uint256",
          "name": "creationTimestamp",
          "type": "uint256"
        }
      ],
      "stateMutability": "view",
      "type": "function",
      "constant": true
    },
    {
      "inputs": [],
      "name": "getNumberOfEpochs",
      "outputs": [
        {
          "internalType": "uint256",
          "name": "",
          "type": "uint256"
        }
      ],
      "stateMutability": "view",
      "type": "function",
      "constant": true
    },
    {
      "inputs": [
        {
          "internalType": "uint256",
          "name": "numberOfEpochs",
          "type": "uint256"
        }
      ],
      "name": "setNumberOfEpochs",
      "outputs": [],
      "stateMutability": "nonpayable",
      "type": "function"
    },
    {
      "inputs": [],
      "name": "getBlockTime",
      "outputs": [
        {
          "internalType": "uint256",
          "name": "",
          "type": "uint256"
        }
      ],
      "stateMutability": "view",
      "type": "function",
      "constant": true
    },
    {
      "inputs": [
        {
          "internalType": "uint256",
          "name": "blockTime",
          "type": "uint256"
        }
      ],
      "name": "setBlockTime",
      "outputs": [],
      "stateMutability": "nonpayable",
      "type": "function"
    },
    {
      "inputs": [],
      "name": "getNumberOfHolders",
      "outputs": [
        {
          "internalType": "uint256",
          "name": "",
          "type": "uint256"
        }
      ],
      "stateMutability": "view",
      "type": "function",
      "constant": true
    },
    {
      "inputs": [
        {
          "internalType": "uint256",
          "name": "numberOfHolders",
          "type": "uint256"
        }
      ],
      "name": "setNumberOfHolders",
      "outputs": [],
      "stateMutability": "nonpayable",
      "type": "function"
    },
    {
      "inputs": [],
      "name": "getEpochValidityInBlocks",
      "outputs": [
        {
          "internalType": "uint256",
          "name": "",
          "type": "uint256"
        }
      ],
      "stateMutability": "view",
      "type": "function",
      "constant": true
    },
    {
      "inputs": [
        {
          "internalType": "uint256",
          "name": "epochValidityInBlocks",
          "type": "uint256"
        }
      ],
      "name": "setEpochValidityInBlocks",
      "outputs": [],
      "stateMutability": "nonpayable",
      "type": "function"
    }
  ],
  "bytecode": "0x60806040523480156200001157600080fd5b50604051620063853803806200638583398181016040528101906200003791906200061c565b620000576200004b620004e660201b60201c565b620004ee60201b60201c565b600073ffffffffffffffffffffffffffffffffffffffff168173ffffffffffffffffffffffffffffffffffffffff16036200009157600080fd5b80600160006101000a81548173ffffffffffffffffffffffffffffffffffffffff021916908373ffffffffffffffffffffffffffffffffffffffff1602179055506000600460008060f81b7effffffffffffffffffffffffffffffffffffffffffffffffffffffffffffff1916815260200190815260200160002081905550600160046000600160f81b7effffffffffffffffffffffffffffffffffffffffffffffffffffffffffffff1916815260200190815260200160002081905550600160046000600260f81b7effffffffffffffffffffffffffffffffffffffffffffffffffffffffffffff1916815260200190815260200160002081905550600260046000600360f81b7effffffffffffffffffffffffffffffffffffffffffffffffffffffffffffff1916815260200190815260200160002081905550600160046000600460f81b7effffffffffffffffffffffffffffffffffffffffffffffffffffffffffffff1916815260200190815260200160002081905550600260046000600560f81b7effffffffffffffffffffffffffffffffffffffffffffffffffffffffffffff1916815260200190815260200160002081905550600260046000600660f81b7effffffffffffffffffffffffffffffffffffffffffffffffffffffffffffff1916815260200190815260200160002081905550600360046000600760f81b7effffffffffffffffffffffffffffffffffffffffffffffffffffffffffffff1916815260200190815260200160002081905550600160046000600860f81b7effffffffffffffffffffffffffffffffffffffffffffffffffffffffffffff1916815260200190815260200160002081905550600260046000600960f81b7effffffffffffffffffffffffffffffffffffffffffffffffffffffffffffff1916815260200190815260200160002081905550600260046000600a60f81b7effffffffffffffffffffffffffffffffffffffffffffffffffffffffffffff1916815260200190815260200160002081905550600360046000600b60f81b7effffffffffffffffffffffffffffffffffffffffffffffffffffffffffffff1916815260200190815260200160002081905550600260046000600c60f81b7effffffffffffffffffffffffffffffffffffffffffffffffffffffffffffff1916815260200190815260200160002081905550600360046000600d60f81b7effffffffffffffffffffffffffffffffffffffffffffffffffffffffffffff1916815260200190815260200160002081905550600360046000600e60f81b7effffffffffffffffffffffffffffffffffffffffffffffffffffffffffffff19168152602001908152602001600020819055506004806000600f60f81b7effffffffffffffffffffffffffffffffffffffffffffffffffffffffffffff191681526020019081526020016000208190555060058081905550600c60078190555060036008819055506014600681905550506200064e565b600033905090565b60008060009054906101000a900473ffffffffffffffffffffffffffffffffffffffff169050816000806101000a81548173ffffffffffffffffffffffffffffffffffffffff021916908373ffffffffffffffffffffffffffffffffffffffff1602179055508173ffffffffffffffffffffffffffffffffffffffff168173ffffffffffffffffffffffffffffffffffffffff167f8be0079c531659141344cd1fd0a4f28419497f9722a3daafe3b4186f6b6457e060405160405180910390a35050565b600080fd5b600073ffffffffffffffffffffffffffffffffffffffff82169050919050565b6000620005e482620005b7565b9050919050565b620005f681620005d7565b81146200060257600080fd5b50565b6000815190506200061681620005eb565b92915050565b600060208284031215620006355762000634620005b2565b5b6000620006458482850162000605565b91505092915050565b615d27806200065e6000396000f3fe608060405234801561001057600080fd5b50600436106101e55760003560e01c8063843231a81161010f578063bc0bc6ba116100a2578063eeaf6c7911610071578063eeaf6c791461060c578063f2fde38b14610628578063f665a20614610644578063f796eb8514610674576101e5565b8063bc0bc6ba14610560578063c35dd69c14610590578063d305de65146105c0578063e910e859146105f0576101e5565b806390247808116100de57806390247808146104bf5780639f5a9a54146104dd578063a88dc956146104fb578063b8f7b90b14610530576101e5565b8063843231a81461042357806387ceff09146104535780638d5802e2146104715780638da5cb5b146104a1576101e5565b806334e5197b116101875780635f7154bf116101565780635f7154bf1461039d5780636ec6be9a146103cd578063715018a6146103fd578063758b1ce314610407576101e5565b806334e5197b146102ec578063365a86fc1461031c5780633c1ab00f1461033a578063409638401461036d576101e5565b8063228a726a116101c3578063228a726a146102525780632b25a38b146102825780632d72402c146102b2578063308feec3146102ce576101e5565b8063089d5b77146101ea5780631b448328146102065780631ca5ca4b14610236575b600080fd5b61020460048036038101906101ff919061414a565b6106a4565b005b610220600480360381019061021b91906141d5565b61072a565b60405161022d9190614237565b60405180910390f35b610250600480360381019061024b919061414a565b61076f565b005b61026c6004803603810190610267919061414a565b6107f5565b604051610279919061426b565b60405180910390f35b61029c60048036038101906102979190614286565b610815565b6040516102a99190614237565b60405180910390f35b6102cc60048036038101906102c791906141d5565b61099c565b005b6102d661114f565b6040516102e39190614237565b60405180910390f35b610306600480360381019061030191906142f2565b611159565b6040516103139190614237565b60405180910390f35b610324611171565b604051610331919061437e565b60405180910390f35b610354600480360381019061034f919061414a565b611197565b6040516103649493929190614708565b60405180910390f35b610387600480360381019061038291906141d5565b611421565b6040516103949190614237565b60405180910390f35b6103b760048036038101906103b2919061414a565b61167b565b6040516103c49190614237565b60405180910390f35b6103e760048036038101906103e29190614769565b61169b565b6040516103f491906147d0565b60405180910390f35b610405611779565b005b610421600480360381019061041c919061414a565b611801565b005b61043d600480360381019061043891906147f2565b611887565b60405161044a9190614237565b60405180910390f35b61045b611de9565b6040516104689190614237565b60405180910390f35b61048b6004803603810190610486919061414a565b611df3565b6040516104989190614841565b60405180910390f35b6104a9611f0f565b6040516104b69190614841565b60405180910390f35b6104c7611f38565b6040516104d49190614237565b60405180910390f35b6104e5611f42565b6040516104f29190614237565b60405180910390f35b6105156004803603810190610510919061414a565b611f4c565b6040516105279695949392919061485c565b60405180910390f35b61054a600480360381019061054591906148bd565b611fa8565b6040516105579190614237565b60405180910390f35b61057a6004803603810190610575919061414a565b612b68565b6040516105879190614237565b60405180910390f35b6105aa60048036038101906105a59190614286565b612cee565b6040516105b79190614953565b60405180910390f35b6105da60048036038101906105d5919061496e565b612db8565b6040516105e79190614237565b60405180910390f35b61060a60048036038101906106059190614b07565b612f56565b005b6106266004803603810190610621919061414a565b613588565b005b610642600480360381019061063d9190614bb0565b61360e565b005b61065e6004803603810190610659919061414a565b613705565b60405161066b91906147d0565b60405180910390f35b61068e600480360381019061068991906141d5565b613773565b60405161069b9190614237565b60405180910390f35b6106ac613814565b73ffffffffffffffffffffffffffffffffffffffff166106ca611f0f565b73ffffffffffffffffffffffffffffffffffffffff1614610720576040517f08c379a000000000000000000000000000000000000000000000000000000000815260040161071790614c3a565b60405180910390fd5b8060068190555050565b6000806107378585610815565b905060006107458683612cee565b9050801561076157610758868686613773565b92505050610768565b6000925050505b9392505050565b610777613814565b73ffffffffffffffffffffffffffffffffffffffff16610795611f0f565b73ffffffffffffffffffffffffffffffffffffffff16146107eb576040517f08c379a00000000000000000000000000000000000000000000000000000000081526004016107e290614c3a565b60405180910390fd5b8060058190555050565b600060026000838152602001908152602001600020600201549050919050565b6000806002600085815260200190815260200160002060030160008154811061084157610840614c5a565b5b906000526020600020015443101580156108b2575060026000858152602001908152602001600020600301600160026000878152602001908152602001600020600301805490506108929190614cb8565b815481106108a3576108a2614c5a565b5b90600052602060002001544311155b6108f1576040517f08c379a00000000000000000000000000000000000000000000000000000000081526004016108e890614d38565b60405180910390fd5b600190505b6001600260008681526020019081526020016000206003018054905061091c9190614cb8565b8110156109855760026000858152602001908152602001600020600301818154811061094b5761094a614c5a565b5b90600052602060002001548310156109725760018161096a9190614cb8565b915050610996565b808061097d90614d58565b9150506108f6565b6001816109929190614cb8565b9150505b92915050565b8073ffffffffffffffffffffffffffffffffffffffff1663d202158d336040516020016109c99190614de8565b6040516020818303038152906040528051906020012060026040518363ffffffff1660e01b81526004016109fe929190614e3e565b602060405180830381865afa158015610a1b573d6000803e3d6000fd5b505050506040513d601f19601f82011682018060405250810190610a3f9190614e93565b610a7e576040517f08c379a0000000000000000000000000000000000000000000000000000000008152600401610a7590614f32565b60405180910390fd5b60011515600160009054906101000a900473ffffffffffffffffffffffffffffffffffffffff1673ffffffffffffffffffffffffffffffffffffffff166304433bbc6040518163ffffffff1660e01b8152600401610adb90614f9e565b602060405180830381865afa158015610af8573d6000803e3d6000fd5b505050506040513d601f19601f82011682018060405250810190610b1c9190614fd3565b73ffffffffffffffffffffffffffffffffffffffff16634f558e79856040518263ffffffff1660e01b8152600401610b549190614237565b602060405180830381865afa158015610b71573d6000803e3d6000fd5b505050506040513d601f19601f82011682018060405250810190610b959190614e93565b151514610bd7576040517f08c379a0000000000000000000000000000000000000000000000000000000008152600401610bce9061504c565b60405180910390fd5b6000610be38484612cee565b90506000151581151514610bf657600080fd5b6000600160009054906101000a900473ffffffffffffffffffffffffffffffffffffffff1673ffffffffffffffffffffffffffffffffffffffff166304433bbc6040518163ffffffff1660e01b8152600401610c51906150b8565b602060405180830381865afa158015610c6e573d6000803e3d6000fd5b505050506040513d601f19601f82011682018060405250810190610c929190614fd3565b905060008173ffffffffffffffffffffffffffffffffffffffff1663b56e4129856040518263ffffffff1660e01b8152600401610ccf9190614841565b602060405180830381865afa158015610cec573d6000803e3d6000fd5b505050506040513d601f19601f82011682018060405250810190610d1091906150ed565b905060005b600260008881526020019081526020016000206009018681548110610d3d57610d3c614c5a565b5b90600052602060002001548110156111465781600260008981526020019081526020016000206006018781548110610d7857610d77614c5a565b5b906000526020600020018281548110610d9457610d93614c5a565b5b906000526020600020015403611133576000600260008981526020019081526020016000206008018781548110610dce57610dcd614c5a565b5b906000526020600020018281548110610dea57610de9614c5a565b5b9060005260206000200154905060008111610e0457600080fd5b6000600260008a81526020019081526020016000206008018881548110610e2e57610e2d614c5a565b5b906000526020600020018381548110610e4a57610e49614c5a565b5b906000526020600020018190555080600260008a8152602001908152602001600020600a016000828254610e7e9190614cb8565b925050819055508373ffffffffffffffffffffffffffffffffffffffff1663bd3cd52587838773ffffffffffffffffffffffffffffffffffffffff16637a7664608b6040518263ffffffff1660e01b8152600401610edc9190614841565b602060405180830381865afa158015610ef9573d6000803e3d6000fd5b505050506040513d601f19601f82011682018060405250810190610f1d919061512f565b610f27919061515c565b6040518363ffffffff1660e01b8152600401610f449291906151b2565b600060405180830381600087803b158015610f5e57600080fd5b505af1158015610f72573d6000803e3d6000fd5b505050506000600160009054906101000a900473ffffffffffffffffffffffffffffffffffffffff1673ffffffffffffffffffffffffffffffffffffffff166304433bbc6040518163ffffffff1660e01b8152600401610fd190615227565b602060405180830381865afa158015610fee573d6000803e3d6000fd5b505050506040513d601f19601f820116820180604052508101906110129190614fd3565b90508073ffffffffffffffffffffffffffffffffffffffff1663a9059cbb600160009054906101000a900473ffffffffffffffffffffffffffffffffffffffff1673ffffffffffffffffffffffffffffffffffffffff166304433bbc6040518163ffffffff1660e01b8152600401611089906150b8565b602060405180830381865afa1580156110a6573d6000803e3d6000fd5b505050506040513d601f19601f820116820180604052508101906110ca9190614fd3565b846040518363ffffffff1660e01b81526004016110e89291906151b2565b6020604051808303816000875af1158015611107573d6000803e3d6000fd5b505050506040513d601f19601f8201168201806040525081019061112b9190614e93565b505050611146565b808061113e90614d58565b915050610d15565b50505050505050565b6000600854905090565b60036020528060005260406000206000915090505481565b600160009054906101000a900473ffffffffffffffffffffffffffffffffffffffff1681565b6060806060806002600086815260200190815260200160002060060160026000878152602001908152602001600020600701600260008881526020019081526020016000206008016002600089815260200190815260200160002060090183805480602002602001604051908101604052809291908181526020016000905b828210156112885783829060005260206000200180548060200260200160405190810160405280929190818152602001828054801561127457602002820191906000526020600020905b815481526020019060010190808311611260575b505050505081526020019060010190611216565b50505050935082805480602002602001604051908101604052809291908181526020016000905b828210156113215783829060005260206000200180548060200260200160405190810160405280929190818152602001828054801561130d57602002820191906000526020600020905b8154815260200190600101908083116112f9575b5050505050815260200190600101906112af565b50505050925081805480602002602001604051908101604052809291908181526020016000905b828210156113ba578382906000526020600020018054806020026020016040519081016040528092919081815260200182805480156113a657602002820191906000526020600020905b815481526020019060010190808311611392575b505050505081526020019060010190611348565b5050505091508080548060200260200160405190810160405280929190818152602001828054801561140b57602002820191906000526020600020905b8154815260200190600101908083116113f7575b5050505050905093509350935093509193509193565b600080600160009054906101000a900473ffffffffffffffffffffffffffffffffffffffff1673ffffffffffffffffffffffffffffffffffffffff166304433bbc6040518163ffffffff1660e01b815260040161147d906150b8565b602060405180830381865afa15801561149a573d6000803e3d6000fd5b505050506040513d601f19601f820116820180604052508101906114be9190614fd3565b905060008173ffffffffffffffffffffffffffffffffffffffff1663b56e4129856040518263ffffffff1660e01b81526004016114fb9190614841565b602060405180830381865afa158015611518573d6000803e3d6000fd5b505050506040513d601f19601f8201168201806040525081019061153c91906150ed565b905060006115b8826002896040516020016115579190615268565b60405160208183030381529060405260405161157391906152fd565b602060405180830381855afa158015611590573d6000803e3d6000fd5b5050506040513d601f19601f820116820180604052508101906115b391906150ed565b612db8565b905060005b6002600089815260200190815260200160002060090187815481106115e5576115e4614c5a565b5b906000526020600020015481101561166c5781600260008a815260200190815260200160002060070188815481106116205761161f614c5a565b5b90600052602060002001828154811061163c5761163b614c5a565b5b906000526020600020015411156116595780945050505050611674565b808061166490614d58565b9150506115bd565b809450505050505b9392505050565b600060026000838152602001908152602001600020600001549050919050565b606060006001856116ac919061515c565b67ffffffffffffffff8111156116c5576116c46149c4565b5b6040519080825280602002602001820160405280156116f35781602001602082028036833780820191505090505b50905060005b600186611706919061515c565b81101561176c578585858361171b9190615314565b611725919061539d565b61172f919061539d565b8761173a919061515c565b82828151811061174d5761174c614c5a565b5b602002602001018181525050808061176490614d58565b9150506116f9565b5080915050949350505050565b611781613814565b73ffffffffffffffffffffffffffffffffffffffff1661179f611f0f565b73ffffffffffffffffffffffffffffffffffffffff16146117f5576040517f08c379a00000000000000000000000000000000000000000000000000000000081526004016117ec90614c3a565b60405180910390fd5b6117ff600061381c565b565b611809613814565b73ffffffffffffffffffffffffffffffffffffffff16611827611f0f565b73ffffffffffffffffffffffffffffffffffffffff161461187d576040517f08c379a000000000000000000000000000000000000000000000000000000000815260040161187490614c3a565b60405180910390fd5b8060078190555050565b60008083036118cb576040517f08c379a00000000000000000000000000000000000000000000000000000000081526004016118c29061541a565b60405180910390fd5b6000801b8203611910576040517f08c379a0000000000000000000000000000000000000000000000000000000008152600401611907906154ac565b60405180910390fd5b6000600260008581526020019081526020016000206000015403611969576040517f08c379a000000000000000000000000000000000000000000000000000000000815260040161196090615518565b60405180910390fd5b60011515600160009054906101000a900473ffffffffffffffffffffffffffffffffffffffff1673ffffffffffffffffffffffffffffffffffffffff166304433bbc6040518163ffffffff1660e01b81526004016119c690614f9e565b602060405180830381865afa1580156119e3573d6000803e3d6000fd5b505050506040513d601f19601f82011682018060405250810190611a079190614fd3565b73ffffffffffffffffffffffffffffffffffffffff16634f558e79856040518263ffffffff1660e01b8152600401611a3f9190614237565b602060405180830381865afa158015611a5c573d6000803e3d6000fd5b505050506040513d601f19601f82011682018060405250810190611a809190614e93565b151514611ac2576040517f08c379a0000000000000000000000000000000000000000000000000000000008152600401611ab990615584565b60405180910390fd5b6000600160009054906101000a900473ffffffffffffffffffffffffffffffffffffffff1673ffffffffffffffffffffffffffffffffffffffff166304433bbc6040518163ffffffff1660e01b8152600401611b1d906155f0565b602060405180830381865afa158015611b3a573d6000803e3d6000fd5b505050506040513d601f19601f82011682018060405250810190611b5e9190614fd3565b73ffffffffffffffffffffffffffffffffffffffff1663a7943efc846040518263ffffffff1660e01b8152600401611b96919061426b565b602060405180830381865afa158015611bb3573d6000803e3d6000fd5b505050506040513d601f19601f82011682018060405250810190611bd7919061512f565b14611c17576040517f08c379a0000000000000000000000000000000000000000000000000000000008152600401611c0e9061565c565b60405180910390fd5b3373ffffffffffffffffffffffffffffffffffffffff16600160009054906101000a900473ffffffffffffffffffffffffffffffffffffffff1673ffffffffffffffffffffffffffffffffffffffff166304433bbc6040518163ffffffff1660e01b8152600401611c8790614f9e565b602060405180830381865afa158015611ca4573d6000803e3d6000fd5b505050506040513d601f19601f82011682018060405250810190611cc89190614fd3565b73ffffffffffffffffffffffffffffffffffffffff16636352211e856040518263ffffffff1660e01b8152600401611d009190614237565b602060405180830381865afa158015611d1d573d6000803e3d6000fd5b505050506040513d601f19601f82011682018060405250810190611d419190614fd3565b73ffffffffffffffffffffffffffffffffffffffff1614611d97576040517f08c379a0000000000000000000000000000000000000000000000000000000008152600401611d8e906156c8565b60405180910390fd5b81600260008581526020019081526020016000206002018190555081837fd8802cf5c11ee22bbcf303218874618686a09bcd94bbb441916d708f3e8b16e360405160405180910390a382905092915050565b6000600754905090565b6000600160009054906101000a900473ffffffffffffffffffffffffffffffffffffffff1673ffffffffffffffffffffffffffffffffffffffff166304433bbc6040518163ffffffff1660e01b8152600401611e4e90614f9e565b602060405180830381865afa158015611e6b573d6000803e3d6000fd5b505050506040513d601f19601f82011682018060405250810190611e8f9190614fd3565b73ffffffffffffffffffffffffffffffffffffffff16636352211e836040518263ffffffff1660e01b8152600401611ec79190614237565b602060405180830381865afa158015611ee4573d6000803e3d6000fd5b505050506040513d601f19601f82011682018060405250810190611f089190614fd3565b9050919050565b60008060009054906101000a900473ffffffffffffffffffffffffffffffffffffffff16905090565b6000600554905090565b6000600654905090565b60026020528060005260406000206000915090508060000154908060010160009054906101000a900473ffffffffffffffffffffffffffffffffffffffff169080600201549080600401549080600501549080600a0154905086565b60008060001b8603611fef576040517f08c379a0000000000000000000000000000000000000000000000000000000008152600401611fe690615734565b60405180910390fd5b6000600160009054906101000a900473ffffffffffffffffffffffffffffffffffffffff1673ffffffffffffffffffffffffffffffffffffffff166304433bbc6040518163ffffffff1660e01b815260040161204a906155f0565b602060405180830381865afa158015612067573d6000803e3d6000fd5b505050506040513d601f19601f8201168201806040525081019061208b9190614fd3565b73ffffffffffffffffffffffffffffffffffffffff1663a7943efc886040518263ffffffff1660e01b81526004016120c3919061426b565b602060405180830381865afa1580156120e0573d6000803e3d6000fd5b505050506040513d601f19601f82011682018060405250810190612104919061512f565b14612144576040517f08c379a000000000000000000000000000000000000000000000000000000000815260040161213b9061565c565b60405180910390fd5b6000600160009054906101000a900473ffffffffffffffffffffffffffffffffffffffff1673ffffffffffffffffffffffffffffffffffffffff166304433bbc6040518163ffffffff1660e01b815260040161219f90615227565b602060405180830381865afa1580156121bc573d6000803e3d6000fd5b505050506040513d601f19601f820116820180604052508101906121e09190614fd3565b9050858173ffffffffffffffffffffffffffffffffffffffff1663dd62ed3e33306040518363ffffffff1660e01b815260040161221e929190615754565b602060405180830381865afa15801561223b573d6000803e3d6000fd5b505050506040513d601f19601f8201168201806040525081019061225f919061512f565b10156122a0576040517f08c379a0000000000000000000000000000000000000000000000000000000008152600401612297906157ef565b60405180910390fd5b858173ffffffffffffffffffffffffffffffffffffffff166370a08231336040518263ffffffff1660e01b81526004016122da9190614841565b602060405180830381865afa1580156122f7573d6000803e3d6000fd5b505050506040513d601f19601f8201168201806040525081019061231b919061512f565b101561235c576040517f08c379a000000000000000000000000000000000000000000000000000000000815260040161235390615881565b60405180910390fd5b6000600160009054906101000a900473ffffffffffffffffffffffffffffffffffffffff1673ffffffffffffffffffffffffffffffffffffffff166304433bbc6040518163ffffffff1660e01b81526004016123b790614f9e565b602060405180830381865afa1580156123d4573d6000803e3d6000fd5b505050506040513d601f19601f820116820180604052508101906123f89190614fd3565b73ffffffffffffffffffffffffffffffffffffffff1663a61788ba336040518263ffffffff1660e01b81526004016124309190614841565b6020604051808303816000875af115801561244f573d6000803e3d6000fd5b505050506040513d601f19601f82011682018060405250810190612473919061512f565b905060006002600083815260200190815260200160002060000154146124ce576040517f08c379a00000000000000000000000000000000000000000000000000000000081526004016124c5906158ed565b60405180910390fd5b8173ffffffffffffffffffffffffffffffffffffffff166323b872dd33308a6040518463ffffffff1660e01b815260040161250b9392919061590d565b6020604051808303816000875af115801561252a573d6000803e3d6000fd5b505050506040513d601f19601f8201168201806040525081019061254e9190614e93565b508660026000838152602001908152602001600020600a016000828254612575919061515c565b92505081905550600160009054906101000a900473ffffffffffffffffffffffffffffffffffffffff1673ffffffffffffffffffffffffffffffffffffffff166304433bbc6040518163ffffffff1660e01b81526004016125d5906155f0565b602060405180830381865afa1580156125f2573d6000803e3d6000fd5b505050506040513d601f19601f820116820180604052508101906126169190614fd3565b73ffffffffffffffffffffffffffffffffffffffff1663b3138cb8893360016040518463ffffffff1660e01b81526004016126539392919061597f565b600060405180830381600087803b15801561266d57600080fd5b505af1158015612681573d6000803e3d6000fd5b505050508760026000838152602001908152602001600020600201819055504260026000838152602001908152602001600020600001819055508560026000838152602001908152602001600020600401819055506126e6436005546007548861169b565b60026000838152602001908152602001600020600301908051906020019061270f929190613ee2565b5060085460055488612721919061539d565b61272b919061539d565b6002600083815260200190815260200160002060050181905550600567ffffffffffffffff8111156127605761275f6149c4565b5b60405190808252806020026020018201604052801561279357816020015b606081526020019060019003908161277e5790505b506002600083815260200190815260200160002060060190805190602001906127bd929190613f2f565b50600567ffffffffffffffff8111156127d9576127d86149c4565b5b60405190808252806020026020018201604052801561280c57816020015b60608152602001906001900390816127f75790505b50600260008381526020019081526020016000206007019080519060200190612836929190613f8f565b50600567ffffffffffffffff811115612852576128516149c4565b5b60405190808252806020026020018201604052801561288557816020015b60608152602001906001900390816128705790505b506002600083815260200190815260200160002060080190805190602001906128af929190613f8f565b50600567ffffffffffffffff8111156128cb576128ca6149c4565b5b6040519080825280602002602001820160405280156128f95781602001602082028036833780820191505090505b50600260008381526020019081526020016000206009019080519060200190612923929190613ee2565b5060005b6005811015612b2b57600367ffffffffffffffff81111561294b5761294a6149c4565b5b6040519080825280602002602001820160405280156129795781602001602082028036833780820191505090505b506002600084815260200190815260200160002060060182815481106129a2576129a1614c5a565b5b9060005260206000200190805190602001906129bf929190613fef565b50600367ffffffffffffffff8111156129db576129da6149c4565b5b604051908082528060200260200182016040528015612a095781602001602082028036833780820191505090505b50600260008481526020019081526020016000206007018281548110612a3257612a31614c5a565b5b906000526020600020019080519060200190612a4f929190613ee2565b50600367ffffffffffffffff811115612a6b57612a6a6149c4565b5b604051908082528060200260200182016040528015612a995781602001602082028036833780820191505090505b50600260008481526020019081526020016000206008018281548110612ac257612ac1614c5a565b5b906000526020600020019080519060200190612adf929190613ee2565b506000600260008481526020019081526020016000206009018281548110612b0a57612b09614c5a565b5b90600052602060002001819055508080612b2390614d58565b915050612927565b5087817f5863c932b4caa63f7e8856a49b4d0a438e7c26163d5553ecbcd67dee29a8907160405160405180910390a3809250505095945050505050565b60008060026000848152602001908152602001600020600301600081548110612b9457612b93614c5a565b5b90600052602060002001544310158015612c0557506002600084815260200190815260200160002060030160016002600086815260200190815260200160002060030180549050612be59190614cb8565b81548110612bf657612bf5614c5a565b5b90600052602060002001544311155b612c44576040517f08c379a0000000000000000000000000000000000000000000000000000000008152600401612c3b90614d38565b60405180910390fd5b600190505b60016002600085815260200190815260200160002060030180549050612c6f9190614cb8565b811015612cd857600260008481526020019081526020016000206003018181548110612c9e57612c9d614c5a565b5b9060005260206000200154431015612cc557600181612cbd9190614cb8565b915050612ce9565b8080612cd090614d58565b915050612c49565b600181612ce59190614cb8565b9150505b919050565b60008160016002600086815260200190815260200160002060030180549050612d179190614cb8565b1115612dad5743600260008581526020019081526020016000206003018381548110612d4657612d45614c5a565b5b906000526020600020015411158015612d9e575043600654600260008681526020019081526020016000206003018481548110612d8657612d85614c5a565b5b9060005260206000200154612d9b919061515c565b10155b15612dac5760019050612db2565b5b600090505b92915050565b60008082841890506000805b602060ff16811015612f4a57600460006004858460208110612de957612de8614c5a565b5b1a60f81b7effffffffffffffffffffffffffffffffffffffffffffffffffffffffffffff1916901c7effffffffffffffffffffffffffffffffffffffffffffffffffffffffffffff19167effffffffffffffffffffffffffffffffffffffffffffffffffffffffffffff191681526020019081526020016000205482612e6f919061515c565b915060046000600480868560208110612e8b57612e8a614c5a565b5b1a60f81b7effffffffffffffffffffffffffffffffffffffffffffffffffffffffffffff1916901b7effffffffffffffffffffffffffffffffffffffffffffffffffffffffffffff1916901c7effffffffffffffffffffffffffffffffffffffffffffffffffffffffffffff19167effffffffffffffffffffffffffffffffffffffffffffffffffffffffffffff191681526020019081526020016000205482612f35919061515c565b91508080612f4290614d58565b915050612dc4565b50809250505092915050565b60011515600160009054906101000a900473ffffffffffffffffffffffffffffffffffffffff1673ffffffffffffffffffffffffffffffffffffffff166304433bbc6040518163ffffffff1660e01b8152600401612fb390614f9e565b602060405180830381865afa158015612fd0573d6000803e3d6000fd5b505050506040513d601f19601f82011682018060405250810190612ff49190614fd3565b73ffffffffffffffffffffffffffffffffffffffff16634f558e79886040518263ffffffff1660e01b815260040161302c9190614237565b602060405180830381865afa158015613049573d6000803e3d6000fd5b505050506040513d601f19601f8201168201806040525081019061306d9190614e93565b1515146130af576040517f08c379a00000000000000000000000000000000000000000000000000000000081526004016130a69061504c565b60405180910390fd5b6002600087815260200190815260200160002060050154821115613108576040517f08c379a00000000000000000000000000000000000000000000000000000000081526004016130ff90615a02565b60405180910390fd5b60011515600160009054906101000a900473ffffffffffffffffffffffffffffffffffffffff1673ffffffffffffffffffffffffffffffffffffffff166304433bbc6040518163ffffffff1660e01b815260040161316590614f9e565b602060405180830381865afa158015613182573d6000803e3d6000fd5b505050506040513d601f19601f820116820180604052508101906131a69190614fd3565b73ffffffffffffffffffffffffffffffffffffffff16634f558e79886040518263ffffffff1660e01b81526004016131de9190614237565b602060405180830381865afa1580156131fb573d6000803e3d6000fd5b505050506040513d601f19601f8201168201806040525081019061321f9190614e93565b151514613261576040517f08c379a00000000000000000000000000000000000000000000000000000000081526004016132589061504c565b60405180910390fd5b600061326d8787610815565b9050600061327b8883612cee565b90508061328757600080fd5b6000600160009054906101000a900473ffffffffffffffffffffffffffffffffffffffff1673ffffffffffffffffffffffffffffffffffffffff166304433bbc6040518163ffffffff1660e01b81526004016132e2906150b8565b602060405180830381865afa1580156132ff573d6000803e3d6000fd5b505050506040513d601f19601f820116820180604052508101906133239190614fd3565b905060008173ffffffffffffffffffffffffffffffffffffffff1663b56e4129866040518263ffffffff1660e01b81526004016133609190614841565b602060405180830381865afa15801561337d573d6000803e3d6000fd5b505050506040513d601f19601f820116820180604052508101906133a191906150ed565b905060005b600260008c815260200190815260200160002060090185815481106133ce576133cd614c5a565b5b906000526020600020015481101561348357600260008c8152602001908152602001600020600601858154811061340857613407614c5a565b5b90600052602060002001818154811061342457613423614c5a565b5b90600052602060002001548203613470576040517f08c379a000000000000000000000000000000000000000000000000000000000815260040161346790615a94565b60405180910390fd5b808061347b90614d58565b9150506133a6565b5060006134918b8b88613773565b905060006134a08c8789611421565b9050600381106134e5576040517f08c379a00000000000000000000000000000000000000000000000000000000081526004016134dc90615b00565b60405180910390fd5b61352e8a600260008f8152602001908152602001600020600201548b85604051602001613513929190615b41565b604051602081830303815290604052805190602001206138e0565b61356d576040517f08c379a000000000000000000000000000000000000000000000000000000000815260040161356490615bb9565b60405180910390fd5b61357a8c87838b8b6138f7565b505050505050505050505050565b613590613814565b73ffffffffffffffffffffffffffffffffffffffff166135ae611f0f565b73ffffffffffffffffffffffffffffffffffffffff1614613604576040517f08c379a00000000000000000000000000000000000000000000000000000000081526004016135fb90614c3a565b60405180910390fd5b8060088190555050565b613616613814565b73ffffffffffffffffffffffffffffffffffffffff16613634611f0f565b73ffffffffffffffffffffffffffffffffffffffff161461368a576040517f08c379a000000000000000000000000000000000000000000000000000000000815260040161368190614c3a565b60405180910390fd5b600073ffffffffffffffffffffffffffffffffffffffff168173ffffffffffffffffffffffffffffffffffffffff16036136f9576040517f08c379a00000000000000000000000000000000000000000000000000000000081526004016136f090615c4b565b60405180910390fd5b6137028161381c565b50565b60606002600083815260200190815260200160002060030180548060200260200160405190810160405280929190818152602001828054801561376757602002820191906000526020600020905b815481526020019060010190808311613753575b50505050509050919050565b6000600260008581526020019081526020016000206004015460028440846040516020016137a2929190615c6b565b6040516020818303038152906040526040516137be91906152fd565b602060405180830381855afa1580156137db573d6000803e3d6000fd5b5050506040513d601f19601f820116820180604052508101906137fe91906150ed565b60001c61380b9190615c97565b90509392505050565b600033905090565b60008060009054906101000a900473ffffffffffffffffffffffffffffffffffffffff169050816000806101000a81548173ffffffffffffffffffffffffffffffffffffffff021916908373ffffffffffffffffffffffffffffffffffffffff1602179055508173ffffffffffffffffffffffffffffffffffffffff168173ffffffffffffffffffffffffffffffffffffffff167f8be0079c531659141344cd1fd0a4f28419497f9722a3daafe3b4186f6b6457e060405160405180910390a35050565b6000826138ed8584613e56565b1490509392505050565b600060026000878152602001908152602001600020600901858154811061392157613920614c5a565b5b9060005260206000200154905060008190505b600185613941919061515c565b8110613b6b576003810315613b585760026000888152602001908152602001600020600601868154811061397857613977614c5a565b5b9060005260206000200160018261398f9190614cb8565b815481106139a05761399f614c5a565b5b90600052602060002001546002600089815260200190815260200160002060060187815481106139d3576139d2614c5a565b5b9060005260206000200182815481106139ef576139ee614c5a565b5b9060005260206000200181905550600260008881526020019081526020016000206007018681548110613a2557613a24614c5a565b5b90600052602060002001600182613a3c9190614cb8565b81548110613a4d57613a4c614c5a565b5b9060005260206000200154600260008981526020019081526020016000206007018781548110613a8057613a7f614c5a565b5b906000526020600020018281548110613a9c57613a9b614c5a565b5b9060005260206000200181905550600260008881526020019081526020016000206008018681548110613ad257613ad1614c5a565b5b90600052602060002001600182613ae99190614cb8565b81548110613afa57613af9614c5a565b5b9060005260206000200154600260008981526020019081526020016000206008018781548110613b2d57613b2c614c5a565b5b906000526020600020018281548110613b4957613b48614c5a565b5b90600052602060002001819055505b8080613b6390615cc8565b915050613934565b506000600160009054906101000a900473ffffffffffffffffffffffffffffffffffffffff1673ffffffffffffffffffffffffffffffffffffffff166304433bbc6040518163ffffffff1660e01b8152600401613bc7906150b8565b602060405180830381865afa158015613be4573d6000803e3d6000fd5b505050506040513d601f19601f82011682018060405250810190613c089190614fd3565b905060008173ffffffffffffffffffffffffffffffffffffffff1663b56e4129856040518263ffffffff1660e01b8152600401613c459190614841565b602060405180830381865afa158015613c62573d6000803e3d6000fd5b505050506040513d601f19601f82011682018060405250810190613c8691906150ed565b905080600260008a81526020019081526020016000206006018881548110613cb157613cb0614c5a565b5b906000526020600020018781548110613ccd57613ccc614c5a565b5b9060005260206000200181905550613d538160028a604051602001613cf29190615268565b604051602081830303815290604052604051613d0e91906152fd565b602060405180830381855afa158015613d2b573d6000803e3d6000fd5b5050506040513d601f19601f82011682018060405250810190613d4e91906150ed565b612db8565b600260008a81526020019081526020016000206007018881548110613d7b57613d7a614c5a565b5b906000526020600020018781548110613d9757613d96614c5a565b5b906000526020600020018190555084600260008a81526020019081526020016000206008018881548110613dce57613dcd614c5a565b5b906000526020600020018781548110613dea57613de9614c5a565b5b90600052602060002001819055506003831015613e4c576001600260008a81526020019081526020016000206009018881548110613e2b57613e2a614c5a565b5b906000526020600020016000828254613e44919061515c565b925050819055505b5050505050505050565b60008082905060005b8451811015613ec0576000858281518110613e7d57613e7c614c5a565b5b60200260200101519050808311613e9f57613e988382613ecb565b9250613eac565b613ea98184613ecb565b92505b508080613eb890614d58565b915050613e5f565b508091505092915050565b600082600052816020526040600020905092915050565b828054828255906000526020600020908101928215613f1e579160200282015b82811115613f1d578251825591602001919060010190613f02565b5b509050613f2b919061403c565b5090565b828054828255906000526020600020908101928215613f7e579160200282015b82811115613f7d578251829080519060200190613f6d929190613fef565b5091602001919060010190613f4f565b5b509050613f8b9190614059565b5090565b828054828255906000526020600020908101928215613fde579160200282015b82811115613fdd578251829080519060200190613fcd929190613ee2565b5091602001919060010190613faf565b5b509050613feb919061407d565b5090565b82805482825590600052602060002090810192821561402b579160200282015b8281111561402a57825182559160200191906001019061400f565b5b50905061403891906140a1565b5090565b5b8082111561405557600081600090555060010161403d565b5090565b5b80821115614079576000818161407091906140be565b5060010161405a565b5090565b5b8082111561409d576000818161409491906140df565b5060010161407e565b5090565b5b808211156140ba5760008160009055506001016140a2565b5090565b50805460008255906000526020600020908101906140dc91906140a1565b50565b50805460008255906000526020600020908101906140fd919061403c565b50565b6000604051905090565b600080fd5b600080fd5b6000819050919050565b61412781614114565b811461413257600080fd5b50565b6000813590506141448161411e565b92915050565b6000602082840312156141605761415f61410a565b5b600061416e84828501614135565b91505092915050565b600073ffffffffffffffffffffffffffffffffffffffff82169050919050565b60006141a282614177565b9050919050565b6141b281614197565b81146141bd57600080fd5b50565b6000813590506141cf816141a9565b92915050565b6000806000606084860312156141ee576141ed61410a565b5b60006141fc86828701614135565b935050602061420d86828701614135565b925050604061421e868287016141c0565b9150509250925092565b61423181614114565b82525050565b600060208201905061424c6000830184614228565b92915050565b6000819050919050565b61426581614252565b82525050565b6000602082019050614280600083018461425c565b92915050565b6000806040838503121561429d5761429c61410a565b5b60006142ab85828601614135565b92505060206142bc85828601614135565b9150509250929050565b6142cf81614252565b81146142da57600080fd5b50565b6000813590506142ec816142c6565b92915050565b6000602082840312156143085761430761410a565b5b6000614316848285016142dd565b91505092915050565b6000819050919050565b600061434461433f61433a84614177565b61431f565b614177565b9050919050565b600061435682614329565b9050919050565b60006143688261434b565b9050919050565b6143788161435d565b82525050565b6000602082019050614393600083018461436f565b92915050565b600081519050919050565b600082825260208201905092915050565b6000819050602082019050919050565b600081519050919050565b600082825260208201905092915050565b6000819050602082019050919050565b6143fa81614252565b82525050565b600061440c83836143f1565b60208301905092915050565b6000602082019050919050565b6000614430826143c5565b61443a81856143d0565b9350614445836143e1565b8060005b8381101561447657815161445d8882614400565b975061446883614418565b925050600181019050614449565b5085935050505092915050565b600061448f8383614425565b905092915050565b6000602082019050919050565b60006144af82614399565b6144b981856143a4565b9350836020820285016144cb856143b5565b8060005b8581101561450757848403895281516144e88582614483565b94506144f383614497565b925060208a019950506001810190506144cf565b50829750879550505050505092915050565b600081519050919050565b600082825260208201905092915050565b6000819050602082019050919050565b600081519050919050565b600082825260208201905092915050565b6000819050602082019050919050565b61457a81614114565b82525050565b600061458c8383614571565b60208301905092915050565b6000602082019050919050565b60006145b082614545565b6145ba8185614550565b93506145c583614561565b8060005b838110156145f65781516145dd8882614580565b97506145e883614598565b9250506001810190506145c9565b5085935050505092915050565b600061460f83836145a5565b905092915050565b6000602082019050919050565b600061462f82614519565b6146398185614524565b93508360208202850161464b85614535565b8060005b8581101561468757848403895281516146688582614603565b945061467383614617565b925060208a0199505060018101905061464f565b50829750879550505050505092915050565b600082825260208201905092915050565b60006146b582614545565b6146bf8185614699565b93506146ca83614561565b8060005b838110156146fb5781516146e28882614580565b97506146ed83614598565b9250506001810190506146ce565b5085935050505092915050565b6000608082019050818103600083015261472281876144a4565b905081810360208301526147368186614624565b9050818103604083015261474a8185614624565b9050818103606083015261475e81846146aa565b905095945050505050565b600080600080608085870312156147835761478261410a565b5b600061479187828801614135565b94505060206147a287828801614135565b93505060406147b387828801614135565b92505060606147c487828801614135565b91505092959194509250565b600060208201905081810360008301526147ea81846146aa565b905092915050565b600080604083850312156148095761480861410a565b5b600061481785828601614135565b9250506020614828858286016142dd565b9150509250929050565b61483b81614197565b82525050565b60006020820190506148566000830184614832565b92915050565b600060c0820190506148716000830189614228565b61487e6020830188614832565b61488b604083018761425c565b6148986060830186614228565b6148a56080830185614228565b6148b260a0830184614228565b979650505050505050565b600080600080600060a086880312156148d9576148d861410a565b5b60006148e7888289016142dd565b95505060206148f888828901614135565b945050604061490988828901614135565b935050606061491a88828901614135565b925050608061492b888289016142dd565b9150509295509295909350565b60008115159050919050565b61494d81614938565b82525050565b60006020820190506149686000830184614944565b92915050565b600080604083850312156149855761498461410a565b5b6000614993858286016142dd565b92505060206149a4858286016142dd565b9150509250929050565b600080fd5b6000601f19601f8301169050919050565b7f4e487b7100000000000000000000000000000000000000000000000000000000600052604160045260246000fd5b6149fc826149b3565b810181811067ffffffffffffffff82111715614a1b57614a1a6149c4565b5b80604052505050565b6000614a2e614100565b9050614a3a82826149f3565b919050565b600067ffffffffffffffff821115614a5a57614a596149c4565b5b602082029050602081019050919050565b600080fd5b6000614a83614a7e84614a3f565b614a24565b90508083825260208201905060208402830185811115614aa657614aa5614a6b565b5b835b81811015614acf5780614abb88826142dd565b845260208401935050602081019050614aa8565b5050509392505050565b600082601f830112614aee57614aed6149ae565b5b8135614afe848260208601614a70565b91505092915050565b60008060008060008060c08789031215614b2457614b2361410a565b5b6000614b3289828a01614135565b9650506020614b4389828a01614135565b955050604087013567ffffffffffffffff811115614b6457614b6361410f565b5b614b7089828a01614ad9565b9450506060614b8189828a016142dd565b9350506080614b9289828a01614135565b92505060a0614ba389828a016141c0565b9150509295509295509295565b600060208284031215614bc657614bc561410a565b5b6000614bd4848285016141c0565b91505092915050565b600082825260208201905092915050565b7f4f776e61626c653a2063616c6c6572206973206e6f7420746865206f776e6572600082015250565b6000614c24602083614bdd565b9150614c2f82614bee565b602082019050919050565b60006020820190508181036000830152614c5381614c17565b9050919050565b7f4e487b7100000000000000000000000000000000000000000000000000000000600052603260045260246000fd5b7f4e487b7100000000000000000000000000000000000000000000000000000000600052601160045260246000fd5b6000614cc382614114565b9150614cce83614114565b925082821015614ce157614ce0614c89565b5b828203905092915050565b7f5541492068617320657870697265642e00000000000000000000000000000000600082015250565b6000614d22601083614bdd565b9150614d2d82614cec565b602082019050919050565b60006020820190508181036000830152614d5181614d15565b9050919050565b6000614d6382614114565b91507fffffffffffffffffffffffffffffffffffffffffffffffffffffffffffffffff8203614d9557614d94614c89565b5b600182019050919050565b60008160601b9050919050565b6000614db882614da0565b9050919050565b6000614dca82614dad565b9050919050565b614de2614ddd82614197565b614dbf565b82525050565b6000614df48284614dd1565b60148201915081905092915050565b6000819050919050565b6000614e28614e23614e1e84614e03565b61431f565b614114565b9050919050565b614e3881614e0d565b82525050565b6000604082019050614e53600083018561425c565b614e606020830184614e2f565b9392505050565b614e7081614938565b8114614e7b57600080fd5b50565b600081519050614e8d81614e67565b92915050565b600060208284031215614ea957614ea861410a565b5b6000614eb784828501614e7e565b91505092915050565b7f53656e64657220646f6573206e6f74206861766520616374696f6e207065726d60008201527f697373696f6e20666f72206964656e7469747921000000000000000000000000602082015250565b6000614f1c603483614bdd565b9150614f2782614ec0565b604082019050919050565b60006020820190508181036000830152614f4b81614f0f565b9050919050565b7f4552433732315265676973747279000000000000000000000000000000000000600082015250565b6000614f88600e83614bdd565b9150614f9382614f52565b602082019050919050565b60006020820190508181036000830152614fb781614f7b565b9050919050565b600081519050614fcd816141a9565b92915050565b600060208284031215614fe957614fe861410a565b5b6000614ff784828501614fbe565b91505092915050565b7f45524337323120746f6b656e20646f65736e2774206578697374210000000000600082015250565b6000615036601b83614bdd565b915061504182615000565b602082019050919050565b6000602082019050818103600083015261506581615029565b9050919050565b7f50726f66696c6553746f72616765000000000000000000000000000000000000600082015250565b60006150a2600e83614bdd565b91506150ad8261506c565b602082019050919050565b600060208201905081810360008301526150d181615095565b9050919050565b6000815190506150e7816142c6565b92915050565b6000602082840312156151035761510261410a565b5b6000615111848285016150d8565b91505092915050565b6000815190506151298161411e565b92915050565b6000602082840312156151455761514461410a565b5b60006151538482850161511a565b91505092915050565b600061516782614114565b915061517283614114565b9250827fffffffffffffffffffffffffffffffffffffffffffffffffffffffffffffffff038211156151a7576151a6614c89565b5b828201905092915050565b60006040820190506151c76000830185614832565b6151d46020830184614228565b9392505050565b7f546f6b656e000000000000000000000000000000000000000000000000000000600082015250565b6000615211600583614bdd565b915061521c826151db565b602082019050919050565b6000602082019050818103600083015261524081615204565b9050919050565b6000819050919050565b61526261525d82614114565b615247565b82525050565b60006152748284615251565b60208201915081905092915050565b600081519050919050565b600081905092915050565b60005b838110156152b757808201518184015260208101905061529c565b838111156152c6576000848401525b50505050565b60006152d782615283565b6152e1818561528e565b93506152f1818560208601615299565b80840191505092915050565b600061530982846152cc565b915081905092915050565b600061531f82614114565b915061532a83614114565b9250817fffffffffffffffffffffffffffffffffffffffffffffffffffffffffffffffff048311821515161561536357615362614c89565b5b828202905092915050565b7f4e487b7100000000000000000000000000000000000000000000000000000000600052601260045260246000fd5b60006153a882614114565b91506153b383614114565b9250826153c3576153c261536e565b5b828204905092915050565b7f5541492063616e6e6f74206265207a65726f0000000000000000000000000000600082015250565b6000615404601283614bdd565b915061540f826153ce565b602082019050919050565b60006020820190508181036000830152615433816153f7565b9050919050565b7f6e65775374617465436f6d6d6974486173682063616e6e6f74206265207a657260008201527f6f00000000000000000000000000000000000000000000000000000000000000602082015250565b6000615496602183614bdd565b91506154a18261543a565b604082019050919050565b600060208201905081810360008301526154c581615489565b9050919050565b7f554149206d757374206578697374210000000000000000000000000000000000600082015250565b6000615502600f83614bdd565b915061550d826154cc565b602082019050919050565b60006020820190508181036000830152615531816154f5565b9050919050565b7f45524337323120746f6b656e206d757374206578697374210000000000000000600082015250565b600061556e601883614bdd565b915061557982615538565b602082019050919050565b6000602082019050818103600083015261559d81615561565b9050919050565b7f417373657274696f6e5265676973747279000000000000000000000000000000600082015250565b60006155da601183614bdd565b91506155e5826155a4565b602082019050919050565b60006020820190508181036000830152615609816155cd565b9050919050565b7f5374617465436f6d6d69744861736820616c7265616479206578697374732100600082015250565b6000615646601f83614bdd565b915061565182615610565b602082019050919050565b6000602082019050818103600083015261567581615639565b9050919050565b7f53656e646572206973206e6f74206f776e6572206f6620746865206173736574600082015250565b60006156b2602083614bdd565b91506156bd8261567c565b602082019050919050565b600060208201905081810360008301526156e1816156a5565b9050919050565b7f7374617465436f6d6d6974486173682063616e6e6f74206265207a65726f0000600082015250565b600061571e601e83614bdd565b9150615729826156e8565b602082019050919050565b6000602082019050818103600083015261574d81615711565b9050919050565b60006040820190506157696000830185614832565b6157766020830184614832565b9392505050565b7f53656e64657220616c6c6f77616e6365206d75737420626520657175616c207460008201527f6f206f7220686967686572207468616e2063686f73656e20616d6f756e740000602082015250565b60006157d9603e83614bdd565b91506157e48261577d565b604082019050919050565b60006020820190508181036000830152615808816157cc565b9050919050565b7f53656e6465722062616c616e6365206d75737420626520657175616c20746f2060008201527f6f7220686967686572207468616e2063686f73656e20616d6f756e7421000000602082015250565b600061586b603d83614bdd565b91506158768261580f565b604082019050919050565b6000602082019050818103600083015261589a8161585e565b9050919050565b7f55414920616c7265616479206578697374732100000000000000000000000000600082015250565b60006158d7601383614bdd565b91506158e2826158a1565b602082019050919050565b60006020820190508181036000830152615906816158ca565b9050919050565b60006060820190506159226000830186614832565b61592f6020830185614832565b61593c6040830184614228565b949350505050565b6000819050919050565b600061596961596461595f84615944565b61431f565b614114565b9050919050565b6159798161594e565b82525050565b6000606082019050615994600083018661425c565b6159a16020830185614832565b6159ae6040830184615970565b949350505050565b7f5072696365206c696d697420686173206265656e206578636565646564210000600082015250565b60006159ec601e83614bdd565b91506159f7826159b6565b602082019050919050565b60006020820190508181036000830152615a1b816159df565b9050919050565b7f4e6f64652068617320616c726561647920616e7377657265642074686520636860008201527f616c6c656e676521000000000000000000000000000000000000000000000000602082015250565b6000615a7e602883614bdd565b9150615a8982615a22565b604082019050919050565b60006020820190508181036000830152615aad81615a71565b9050919050565b7f436f6e747269627574696f6e2072616e6b20697320746f6f206c6f7700000000600082015250565b6000615aea601c83614bdd565b9150615af582615ab4565b602082019050919050565b60006020820190508181036000830152615b1981615add565b9050919050565b6000819050919050565b615b3b615b3682614252565b615b20565b82525050565b6000615b4d8285615b2a565b602082019150615b5d8284615251565b6020820191508190509392505050565b7f526f6f74206861736820646f65736e2774206d61746368000000000000000000600082015250565b6000615ba3601783614bdd565b9150615bae82615b6d565b602082019050919050565b60006020820190508181036000830152615bd281615b96565b9050919050565b7f4f776e61626c653a206e6577206f776e657220697320746865207a65726f206160008201527f6464726573730000000000000000000000000000000000000000000000000000602082015250565b6000615c35602683614bdd565b9150615c4082615bd9565b604082019050919050565b60006020820190508181036000830152615c6481615c28565b9050919050565b6000615c778285615b2a565b602082019150615c878284614dd1565b6014820191508190509392505050565b6000615ca282614114565b9150615cad83614114565b925082615cbd57615cbc61536e565b5b828206905092915050565b6000615cd382614114565b915060008203615ce657615ce5614c89565b5b60018203905091905056fea2646970667358221220c5d18aa367b451ae4cc51069872f101273d8e917379c255915d4308c53ee735d64736f6c634300080e0033",
  "immutableReferences": {},
  "source": "// SPDX-License-Identifier: MIT\n\npragma solidity ^0.8.0;\n\nimport \"@openzeppelin/contracts/token/ERC20/IERC20.sol\";\nimport \"@openzeppelin/contracts/access/Ownable.sol\";\nimport \"@openzeppelin/contracts/utils/cryptography/MerkleProof.sol\";\nimport \"./AssertionRegistry.sol\";\nimport \"./ERC721Registry.sol\";\nimport \"./Hub.sol\";\nimport \"./Identity.sol\";\nimport \"./storage/ProfileStorage.sol\";\n\n// TODO linked assertions\n// TODO storages\n// TODO contributions\n// TODO challenges\n\ncontract UAIRegistry is Ownable {\n    Hub public hub;\n\n    struct AssetRecord {\n        uint256 creationTimestamp;\n        address controller;\n        bytes32 stateCommitHash;\n        uint256 [] epochs;\n        uint256 size;\n        uint256 priceLimit;\n        bytes32 [][] holderIds;\n        uint256 [][] holderDistances;\n        uint256 [][] holderPrices;\n        uint256 [] holderCount;\n        uint256 stake;\n    }\n\n    mapping(uint256 => AssetRecord) public assetRecords;\n    mapping(bytes32 => uint256) public assetStake;\n\n    mapping(bytes1 => uint) bytesLookup;\n\n    uint256 _numberOfEpochs;\n    uint256 _epochValidityInBlocks;\n    uint256 _blockTime;\n    uint256 _numberOfHolders;\n\n    // events\n    event AssetCreated(uint256 indexed UAI, bytes32 indexed stateCommitHash);\n    event AssetUpdated(uint256 indexed UAI, bytes32 indexed stateCommitHash);\n    event TokensDepositedToAsset(bytes32 indexed UAI, uint256 indexed amount, address indexed depositor);\n\n    constructor(address hubAddress) {\n        require(hubAddress != address(0));\n        hub = Hub(hubAddress);\n\n        bytesLookup[0x00] = 0;\n        bytesLookup[0x01] = 1;\n        bytesLookup[0x02] = 1;\n        bytesLookup[0x03] = 2;\n        bytesLookup[0x04] = 1;\n        bytesLookup[0x05] = 2;\n        bytesLookup[0x06] = 2;\n        bytesLookup[0x07] = 3;\n        bytesLookup[0x08] = 1;\n        bytesLookup[0x09] = 2;\n        bytesLookup[0x0a] = 2;\n        bytesLookup[0x0b] = 3;\n        bytesLookup[0x0c] = 2;\n        bytesLookup[0x0d] = 3;\n        bytesLookup[0x0e] = 3;\n        bytesLookup[0x0f] = 4;\n\n        _numberOfEpochs = 5;\n        _blockTime = 12;\n        _numberOfHolders = 3;\n        _epochValidityInBlocks = 20;\n    }\n\n    function createAsset(bytes32 stateCommitHash, uint256 tokenAmount, uint256 size, uint holdingTimeInSeconds, bytes32 signature) public returns (uint256) {\n        require(stateCommitHash != 0, \"stateCommitHash cannot be zero\");\n        require(AssertionRegistry(hub.getContractAddress(\"AssertionRegistry\")).getAssertionCreationTimestamp(stateCommitHash) == 0, \"StateCommitHash already exists!\");\n\n        IERC20 tokenContract = IERC20(hub.getContractAddress(\"Token\"));\n        require(tokenContract.allowance(msg.sender, address(this)) >= tokenAmount, \"Sender allowance must be equal to or higher than chosen amount\");\n        require(tokenContract.balanceOf(msg.sender) >= tokenAmount, \"Sender balance must be equal to or higher than chosen amount!\");\n\n        // TODO ERC 1155?\n        uint256 UAI = ERC721Registry(hub.getContractAddress(\"ERC721Registry\")).mintUAI(msg.sender);\n        require(assetRecords[UAI].creationTimestamp == 0, \"UAI already exists!\");\n\n        // TODO introduce old holding contract?\n        tokenContract.transferFrom(msg.sender, address(this), tokenAmount);\n        assetRecords[UAI].stake += tokenAmount;\n\n        AssertionRegistry(hub.getContractAddress(\"AssertionRegistry\")).createAssertionRecord(stateCommitHash, msg.sender, 1);\n\n        // TODO reference na AssertionRegistry entry\n        assetRecords[UAI].stateCommitHash = stateCommitHash;\n        assetRecords[UAI].creationTimestamp = block.timestamp;\n        assetRecords[UAI].size = size;\n\n        assetRecords[UAI].epochs = generateEpochs(block.number, _numberOfEpochs, _blockTime, holdingTimeInSeconds);\n        assetRecords[UAI].priceLimit = tokenAmount / _numberOfEpochs / _numberOfHolders;\n\n        assetRecords[UAI].holderIds = new bytes32[][](5);\n        assetRecords[UAI].holderDistances = new uint256[][](5);\n        assetRecords[UAI].holderPrices = new uint256[][](5);\n        assetRecords[UAI].holderCount = new uint256[](5);\n        for (uint i = 0; i < 5; i++) {\n            assetRecords[UAI].holderIds[i] = new bytes32[](3);\n            assetRecords[UAI].holderDistances[i] = new uint256[](3);\n            assetRecords[UAI].holderPrices[i] = new uint256[](3);\n            assetRecords[UAI].holderCount[i] = 0;\n        }\n\n        emit AssetCreated(UAI, stateCommitHash);\n\n        return UAI;\n    }\n\n    function generateEpochs(uint blockNumber, uint256 numberOfEpochs, uint256 blockTime, uint256 holdingTimeInSeconds) public pure returns (uint256 [] memory) {\n        uint256 [] memory epochs = new uint256[](numberOfEpochs + 1);\n        for (uint i = 0; i < numberOfEpochs + 1; i++) {\n            epochs[i] = blockNumber + i * holdingTimeInSeconds / blockTime / numberOfEpochs;\n        }\n\n        return epochs;\n    }\n\n    function getEpochs(uint256 UAI) public view returns (uint256 [] memory) {\n        return assetRecords[UAI].epochs;\n    }\n\n    function getEpoch(uint256 UAI) public view returns (uint) {\n        uint i;\n        require(block.number >= assetRecords[UAI].epochs[0] && block.number <= assetRecords[UAI].epochs[assetRecords[UAI].epochs.length - 1], \"UAI has expired.\");\n        for (i = 1; i < assetRecords[UAI].epochs.length - 1; i++) {\n            if (block.number < assetRecords[UAI].epochs[i]) {\n                return i - 1;\n            }\n        }\n\n        return i - 1;\n    }\n\n    function getEpoch(uint256 UAI, uint256 blockNumber) public view returns (uint256) {\n        uint i;\n        require(block.number >= assetRecords[UAI].epochs[0] && block.number <= assetRecords[UAI].epochs[assetRecords[UAI].epochs.length - 1], \"UAI has expired.\");\n        for (i = 1; i < assetRecords[UAI].epochs.length - 1; i++) {\n            if (blockNumber < assetRecords[UAI].epochs[i]) {\n                return i - 1;\n            }\n        }\n\n        return i - 1;\n    }\n\n    function isEpochActive(uint256 UAI, uint256 epoch) public view returns (bool) {\n        if (assetRecords[UAI].epochs.length - 1 > epoch) {\n            if (assetRecords[UAI].epochs[epoch] <= block.number && assetRecords[UAI].epochs[epoch] + _epochValidityInBlocks >= block.number) {\n                return true;\n            }\n        }\n        return false;\n    }\n\n    function hammingDistance(bytes32 x, bytes32 y) public view returns (uint) {\n        bytes32 xor = x ^ y;\n        uint distance = 0;\n        for (uint i = 0; i < xor.length; i++) {\n            distance += bytesLookup[xor[i] >> 4];\n            distance += bytesLookup[(xor[i] << 4) >> 4];\n        }\n\n        return distance;\n    }\n\n    function getChallenge(uint256 UAI, uint256 blockNumber, address identity) public view returns (uint256) {\n//        require(ERC734(identity).keyHasPurpose(keccak256(abi.encodePacked(msg.sender)), 2), \"Sender does not have action permission for identity!\");\n        uint256 epoch = getEpoch(UAI, blockNumber);\n        bool isActive = isEpochActive(UAI, epoch);\n\n        if (isActive) {\n            return calculateChallenge(UAI, blockNumber, identity);\n        } else {\n            return 0;\n        }\n    }\n\n    function calculateChallenge(uint256 UAI, uint256 blockNumber, address identity) public view returns (uint256) {\n        return uint256(sha256(abi.encodePacked(blockhash(blockNumber), identity))) % assetRecords[UAI].size;\n    }\n\n\n    function getContributionRank(uint256 UAI, uint256 epoch, address identity) public view returns (uint256) {\n        ProfileStorage profileStorage = ProfileStorage(hub.getContractAddress(\"ProfileStorage\"));\n        bytes32 nodeId = profileStorage.getNodeId(identity);\n        uint256 distance = hammingDistance(nodeId, sha256(abi.encodePacked(UAI)));\n        uint i;\n        for (i = 0; i < assetRecords[UAI].holderCount[epoch]; i++) {\n            if (assetRecords[UAI].holderDistances[epoch][i] > distance)\n            {\n                return i;\n            }\n        }\n        return i;\n    }\n\n    function getContributors(uint256 UAI) public view returns (bytes32 [][] memory, uint256[][] memory, uint256[][] memory, uint256 [] memory) {\n        return (assetRecords[UAI].holderIds, assetRecords[UAI].holderDistances, assetRecords[UAI].holderPrices, assetRecords[UAI].holderCount);\n    }\n\n\n    function addContributor(uint256 UAI, uint256 epoch, uint rank, uint256 price, address identity) internal {\n        uint256 length = assetRecords[UAI].holderCount[epoch];\n        for (uint i = length; i >= rank + 1; i--) {\n            if (i == 3) {\n                continue;\n            }\n            assetRecords[UAI].holderIds[epoch][i] = assetRecords[UAI].holderIds[epoch][i - 1];\n            assetRecords[UAI].holderDistances[epoch][i] = assetRecords[UAI].holderDistances[epoch][i - 1];\n            assetRecords[UAI].holderPrices[epoch][i] = assetRecords[UAI].holderPrices[epoch][i - 1];\n        }\n\n        ProfileStorage profileStorage = ProfileStorage(hub.getContractAddress(\"ProfileStorage\"));\n        bytes32 nodeId = profileStorage.getNodeId(identity);\n\n        assetRecords[UAI].holderIds[epoch][rank] = nodeId;\n        assetRecords[UAI].holderDistances[epoch][rank] = hammingDistance(nodeId, sha256(abi.encodePacked(UAI)));\n        assetRecords[UAI].holderPrices[epoch][rank] = price;\n\n        if (length < 3) {\n            assetRecords[UAI].holderCount[epoch] += 1;\n        }\n    }\n\n    function answerChallenge(uint256 UAI, uint256 blockNumber, bytes32 [] memory proof, bytes32 leaf, uint256 price, address identity) public {\n        require(ERC721Registry(hub.getContractAddress(\"ERC721Registry\")).exists(UAI) == true, \"ERC721 token doesn't exist!\");\n        require(price <= assetRecords[UAI].priceLimit, \"Price limit has been exceeded!\");\n        require(ERC721Registry(hub.getContractAddress(\"ERC721Registry\")).exists(UAI) == true, \"ERC721 token doesn't exist!\");\n//        require(ERC734(identity).keyHasPurpose(keccak256(abi.encodePacked(msg.sender)), 2), \"Sender does not have action permission for identity!\");\n\n        uint256 epoch = getEpoch(UAI, blockNumber);\n        bool isActive = isEpochActive(UAI, epoch);\n\n        require(isActive);\n\n        // TODO Bid with lower price\n        ProfileStorage profileStorage = ProfileStorage(hub.getContractAddress(\"ProfileStorage\"));\n        bytes32 nodeId = profileStorage.getNodeId(identity);\n        for (uint256 i = 0; i < assetRecords[UAI].holderCount[epoch]; i++) {\n            require(nodeId != assetRecords[UAI].holderIds[epoch][i], \"Node has already answered the challenge!\");\n        }\n\n        uint256 challenge = calculateChallenge(UAI, blockNumber, identity);\n        uint256 rank = getContributionRank(UAI, epoch, identity);\n        // 0, 1, 2, 3\n        require(rank < 3, \"Contribution rank is too low\");\n\n        require(MerkleProof.verify(proof, assetRecords[UAI].stateCommitHash, keccak256(abi.encodePacked(leaf, challenge))), \"Root hash doesn't match\");\n        addContributor(UAI, epoch, rank, price, identity);\n    }\n\n\n    function getReward(uint256 UAI, uint256 epoch, address identity) public {\n        require(ERC734(identity).keyHasPurpose(keccak256(abi.encodePacked(msg.sender)), 2), \"Sender does not have action permission for identity!\");\n        require(ERC721Registry(hub.getContractAddress(\"ERC721Registry\")).exists(UAI) == true, \"ERC721 token doesn't exist!\");\n\n        bool isActive = isEpochActive(UAI, epoch);\n\n        require(isActive == false);\n\n        ProfileStorage profileStorage = ProfileStorage(hub.getContractAddress(\"ProfileStorage\"));\n        bytes32 nodeId = profileStorage.getNodeId(identity);\n\n        for (uint i = 0; i < assetRecords[UAI].holderCount[epoch]; i++) {\n            if (assetRecords[UAI].holderIds[epoch][i] == nodeId) {\n                uint256 amount = assetRecords[UAI].holderPrices[epoch][i];\n                require(amount > 0);\n                assetRecords[UAI].holderPrices[epoch][i] = 0;\n                assetRecords[UAI].stake -= amount;\n                profileStorage.setStake(identity, profileStorage.getStake(identity) + amount);\n                IERC20 tokenContract = IERC20(hub.getContractAddress(\"Token\"));\n                //                require(tokenContract.allowance(msg.sender, address(this)) >= tokenAmount, \"Sender allowance must be equal to or higher than chosen amount\");\n                //                require(tokenContract.balanceOf(msg.sender) >= tokenAmount, \"Sender balance must be equal to or higher than chosen amount!\");\n                tokenContract.transfer(hub.getContractAddress(\"ProfileStorage\"), amount);\n\n                break;\n            }\n        }\n    }\n\n\n    function updateAsset(uint256 UAI, bytes32 newStateCommitHash) public returns (uint256) {\n        require(UAI != 0, \"UAI cannot be zero\");\n        require(newStateCommitHash != 0, \"newStateCommitHash cannot be zero\");\n        require(assetRecords[UAI].creationTimestamp != 0, \"UAI must exist!\");\n        require(ERC721Registry(hub.getContractAddress(\"ERC721Registry\")).exists(UAI) == true, \"ERC721 token must exist!\");\n        require(AssertionRegistry(hub.getContractAddress(\"AssertionRegistry\")).getAssertionCreationTimestamp(newStateCommitHash) == 0, \"StateCommitHash already exists!\");\n\n        require(ERC721Registry(hub.getContractAddress(\"ERC721Registry\")).ownerOf(UAI) == msg.sender, \"Sender is not owner of the asset\");\n\n//        AssertionRegistry(hub.getContractAddress(\"AssertionRegistry\")).createAssertionRecord(newStateCommitHash, msg.sender, 1);\n        // todo: update when AssertionRegistry is updated\n        assetRecords[UAI].stateCommitHash = newStateCommitHash;\n        // todo: store old commits later\n\n        emit AssetUpdated(UAI, newStateCommitHash);\n\n        return UAI;\n    }\n\n    // getters\n    function getAssetStateCommitHash(uint256 UAI) public view returns (bytes32 stateCommitHash){\n        return assetRecords[UAI].stateCommitHash;\n    }\n\n//    function getAssetSignature(uint256 UAI) public view returns (bytes memory signature){\n//        return assetRecords[UAI].signature;\n//    }\n\n    function getAssetOwner(uint256 UAI) public view returns (address owner){\n        return ERC721Registry(hub.getContractAddress(\"ERC721Registry\")).ownerOf(UAI);\n    }\n\n    function getAssetCreationTimestamp(uint256 UAI) public view returns (uint256 creationTimestamp){\n        return assetRecords[UAI].creationTimestamp;\n    }\n\n    function getNumberOfEpochs() public view returns (uint256) {\n        return _numberOfEpochs;\n    }\n\n    function setNumberOfEpochs(uint256 numberOfEpochs) public onlyOwner {\n        _numberOfEpochs = numberOfEpochs;\n    }\n\n    function getBlockTime() public view returns (uint256) {\n        return _blockTime;\n    }\n\n    function setBlockTime(uint256 blockTime) public onlyOwner {\n        _blockTime = blockTime;\n    }\n\n    function getNumberOfHolders() public view returns (uint256) {\n        return _numberOfHolders;\n    }\n\n    function setNumberOfHolders(uint256 numberOfHolders) public onlyOwner {\n        _numberOfHolders = numberOfHolders;\n    }\n\n    function getEpochValidityInBlocks() public view returns (uint256) {\n        return _epochValidityInBlocks;\n    }\n\n    function setEpochValidityInBlocks(uint256 epochValidityInBlocks) public onlyOwner {\n        _epochValidityInBlocks = epochValidityInBlocks;\n    }\n}",
  "sourcePath": "/Users/miloskotlar/dkg-onchain-module-v6/contracts/UAIRegistry.sol",
  "compiler": {
    "name": "solc",
    "version": "0.8.14+commit.80d49f37.Emscripten.clang"
  },
  "schemaVersion": "3.4.3",
  "updatedAt": "2022-07-01T16:38:24.022Z",
  "networkType": "ethereum",
  "devdoc": {
    "kind": "dev",
    "methods": {
      "owner()": {
        "details": "Returns the address of the current owner."
      },
      "renounceOwnership()": {
        "details": "Leaves the contract without owner. It will not be possible to call `onlyOwner` functions anymore. Can only be called by the current owner. NOTE: Renouncing ownership will leave the contract without an owner, thereby removing any functionality that is only available to the owner."
      },
      "transferOwnership(address)": {
        "details": "Transfers ownership of the contract to a new account (`newOwner`). Can only be called by the current owner."
      }
    },
    "version": 1
  },
  "userdoc": {
    "kind": "user",
    "methods": {},
    "version": 1
  }
}