{
  "contractName": "UAIRegistry",
  "abi": [
    {
      "inputs": [
        {
          "internalType": "address",
          "name": "hubAddress",
          "type": "address"
        }
      ],
      "stateMutability": "nonpayable",
      "type": "constructor"
    },
    {
      "anonymous": false,
      "inputs": [
        {
          "indexed": true,
          "internalType": "uint256",
          "name": "UAI",
          "type": "uint256"
        },
        {
          "indexed": true,
          "internalType": "bytes32",
          "name": "stateCommitHash",
          "type": "bytes32"
        }
      ],
      "name": "AssetCreated",
      "type": "event"
    },
    {
      "anonymous": false,
      "inputs": [
        {
          "indexed": true,
          "internalType": "uint256",
          "name": "UAI",
          "type": "uint256"
        },
        {
          "indexed": true,
          "internalType": "bytes32",
          "name": "stateCommitHash",
          "type": "bytes32"
        }
      ],
      "name": "AssetUpdated",
      "type": "event"
    },
    {
      "anonymous": false,
      "inputs": [
        {
          "indexed": true,
          "internalType": "address",
          "name": "previousOwner",
          "type": "address"
        },
        {
          "indexed": true,
          "internalType": "address",
          "name": "newOwner",
          "type": "address"
        }
      ],
      "name": "OwnershipTransferred",
      "type": "event"
    },
    {
      "anonymous": false,
      "inputs": [
        {
          "indexed": true,
          "internalType": "bytes32",
          "name": "UAI",
          "type": "bytes32"
        },
        {
          "indexed": true,
          "internalType": "uint256",
          "name": "amount",
          "type": "uint256"
        },
        {
          "indexed": true,
          "internalType": "address",
          "name": "depositor",
          "type": "address"
        }
      ],
      "name": "TokensDepositedToAsset",
      "type": "event"
    },
    {
      "inputs": [
        {
          "internalType": "uint256",
          "name": "",
          "type": "uint256"
        }
      ],
      "name": "assetRecords",
      "outputs": [
        {
          "internalType": "uint256",
          "name": "creationTimestamp",
          "type": "uint256"
        },
        {
          "internalType": "address",
          "name": "controller",
          "type": "address"
        },
        {
          "internalType": "bytes32",
          "name": "stateCommitHash",
          "type": "bytes32"
        },
        {
          "internalType": "uint256",
          "name": "size",
          "type": "uint256"
        },
        {
          "internalType": "uint256",
          "name": "priceLimit",
          "type": "uint256"
        },
        {
          "internalType": "uint256",
          "name": "stake",
          "type": "uint256"
        }
      ],
      "stateMutability": "view",
      "type": "function",
      "constant": true
    },
    {
      "inputs": [
        {
          "internalType": "bytes32",
          "name": "",
          "type": "bytes32"
        }
      ],
      "name": "assetStake",
      "outputs": [
        {
          "internalType": "uint256",
          "name": "",
          "type": "uint256"
        }
      ],
      "stateMutability": "view",
      "type": "function",
      "constant": true
    },
    {
      "inputs": [],
      "name": "hub",
      "outputs": [
        {
          "internalType": "contract Hub",
          "name": "",
          "type": "address"
        }
      ],
      "stateMutability": "view",
      "type": "function",
      "constant": true
    },
    {
      "inputs": [],
      "name": "owner",
      "outputs": [
        {
          "internalType": "address",
          "name": "",
          "type": "address"
        }
      ],
      "stateMutability": "view",
      "type": "function",
      "constant": true
    },
    {
      "inputs": [],
      "name": "renounceOwnership",
      "outputs": [],
      "stateMutability": "nonpayable",
      "type": "function"
    },
    {
      "inputs": [
        {
          "internalType": "address",
          "name": "newOwner",
          "type": "address"
        }
      ],
      "name": "transferOwnership",
      "outputs": [],
      "stateMutability": "nonpayable",
      "type": "function"
    },
    {
      "inputs": [
        {
          "internalType": "bytes32",
          "name": "stateCommitHash",
          "type": "bytes32"
        },
        {
          "internalType": "uint256",
          "name": "tokenAmount",
          "type": "uint256"
        },
        {
          "internalType": "uint256",
          "name": "size",
          "type": "uint256"
        },
        {
          "internalType": "uint256",
          "name": "holdingTimeInSeconds",
          "type": "uint256"
        },
        {
          "internalType": "bytes32",
          "name": "signature",
          "type": "bytes32"
        }
      ],
      "name": "createAsset",
      "outputs": [
        {
          "internalType": "uint256",
          "name": "",
          "type": "uint256"
        }
      ],
      "stateMutability": "nonpayable",
      "type": "function"
    },
    {
      "inputs": [
        {
          "internalType": "uint256",
          "name": "blockNumber",
          "type": "uint256"
        },
        {
          "internalType": "uint256",
          "name": "numberOfEpochs",
          "type": "uint256"
        },
        {
          "internalType": "uint256",
          "name": "blockTime",
          "type": "uint256"
        },
        {
          "internalType": "uint256",
          "name": "holdingTimeInSeconds",
          "type": "uint256"
        }
      ],
      "name": "generateEpochs",
      "outputs": [
        {
          "internalType": "uint256[]",
          "name": "",
          "type": "uint256[]"
        }
      ],
      "stateMutability": "pure",
      "type": "function",
      "constant": true
    },
    {
      "inputs": [
        {
          "internalType": "uint256",
          "name": "UAI",
          "type": "uint256"
        }
      ],
      "name": "getEpochs",
      "outputs": [
        {
          "internalType": "uint256[]",
          "name": "",
          "type": "uint256[]"
        }
      ],
      "stateMutability": "view",
      "type": "function",
      "constant": true
    },
    {
      "inputs": [
        {
          "internalType": "uint256",
          "name": "UAI",
          "type": "uint256"
        },
        {
          "internalType": "uint256",
          "name": "blockNumber",
          "type": "uint256"
        }
      ],
      "name": "getEpoch",
      "outputs": [
        {
          "internalType": "uint256",
          "name": "",
          "type": "uint256"
        }
      ],
      "stateMutability": "view",
      "type": "function",
      "constant": true
    },
    {
      "inputs": [
        {
          "internalType": "uint256",
          "name": "UAI",
          "type": "uint256"
        }
      ],
      "name": "getEpoch",
      "outputs": [
        {
          "internalType": "uint256",
          "name": "",
          "type": "uint256"
        }
      ],
      "stateMutability": "view",
      "type": "function",
      "constant": true
    },
    {
      "inputs": [
        {
          "internalType": "uint256",
          "name": "UAI",
          "type": "uint256"
        },
        {
          "internalType": "uint256",
          "name": "epoch",
          "type": "uint256"
        }
      ],
      "name": "isEpochActive",
      "outputs": [
        {
          "internalType": "bool",
          "name": "",
          "type": "bool"
        }
      ],
      "stateMutability": "view",
      "type": "function",
      "constant": true
    },
    {
      "inputs": [
        {
          "internalType": "bytes32",
          "name": "x",
          "type": "bytes32"
        },
        {
          "internalType": "bytes32",
          "name": "y",
          "type": "bytes32"
        }
      ],
      "name": "hammingDistance",
      "outputs": [
        {
          "internalType": "uint256",
          "name": "",
          "type": "uint256"
        }
      ],
      "stateMutability": "view",
      "type": "function",
      "constant": true
    },
    {
      "inputs": [
        {
          "internalType": "uint256",
          "name": "UAI",
          "type": "uint256"
        },
        {
          "internalType": "uint256",
          "name": "blockNumber",
          "type": "uint256"
        },
        {
          "internalType": "address",
          "name": "identity",
          "type": "address"
        }
      ],
      "name": "getChallenge",
      "outputs": [
        {
          "internalType": "uint256",
          "name": "",
          "type": "uint256"
        }
      ],
      "stateMutability": "view",
      "type": "function",
      "constant": true
    },
    {
      "inputs": [
        {
          "internalType": "uint256",
          "name": "UAI",
          "type": "uint256"
        },
        {
          "internalType": "uint256",
          "name": "blockNumber",
          "type": "uint256"
        },
        {
          "internalType": "address",
          "name": "identity",
          "type": "address"
        }
      ],
      "name": "calculateChallenge",
      "outputs": [
        {
          "internalType": "uint256",
          "name": "",
          "type": "uint256"
        }
      ],
      "stateMutability": "view",
      "type": "function",
      "constant": true
    },
    {
      "inputs": [
        {
          "internalType": "uint256",
          "name": "UAI",
          "type": "uint256"
        },
        {
          "internalType": "uint256",
          "name": "epoch",
          "type": "uint256"
        },
        {
          "internalType": "address",
          "name": "identity",
          "type": "address"
        }
      ],
      "name": "getContributionRank",
      "outputs": [
        {
          "internalType": "uint256",
          "name": "",
          "type": "uint256"
        }
      ],
      "stateMutability": "view",
      "type": "function",
      "constant": true
    },
    {
      "inputs": [
        {
          "internalType": "uint256",
          "name": "UAI",
          "type": "uint256"
        }
      ],
      "name": "getContributors",
      "outputs": [
        {
          "internalType": "bytes32[][]",
          "name": "",
          "type": "bytes32[][]"
        },
        {
          "internalType": "uint256[][]",
          "name": "",
          "type": "uint256[][]"
        },
        {
          "internalType": "uint256[][]",
          "name": "",
          "type": "uint256[][]"
        },
        {
          "internalType": "uint256[]",
          "name": "",
          "type": "uint256[]"
        }
      ],
      "stateMutability": "view",
      "type": "function",
      "constant": true
    },
    {
      "inputs": [
        {
          "internalType": "uint256",
          "name": "UAI",
          "type": "uint256"
        },
        {
          "internalType": "uint256",
          "name": "blockNumber",
          "type": "uint256"
        },
        {
          "internalType": "bytes32[]",
          "name": "proof",
          "type": "bytes32[]"
        },
        {
          "internalType": "bytes32",
          "name": "leaf",
          "type": "bytes32"
        },
        {
          "internalType": "uint256",
          "name": "price",
          "type": "uint256"
        },
        {
          "internalType": "address",
          "name": "identity",
          "type": "address"
        }
      ],
      "name": "answerChallenge",
      "outputs": [],
      "stateMutability": "nonpayable",
      "type": "function"
    },
    {
      "inputs": [
        {
          "internalType": "uint256",
          "name": "UAI",
          "type": "uint256"
        },
        {
          "internalType": "uint256",
          "name": "epoch",
          "type": "uint256"
        },
        {
          "internalType": "address",
          "name": "identity",
          "type": "address"
        }
      ],
      "name": "getReward",
      "outputs": [],
      "stateMutability": "nonpayable",
      "type": "function"
    },
    {
      "inputs": [
        {
          "internalType": "uint256",
          "name": "UAI",
          "type": "uint256"
        },
        {
          "internalType": "bytes32",
          "name": "newStateCommitHash",
          "type": "bytes32"
        }
      ],
      "name": "updateAsset",
      "outputs": [
        {
          "internalType": "uint256",
          "name": "",
          "type": "uint256"
        }
      ],
      "stateMutability": "nonpayable",
      "type": "function"
    },
    {
      "inputs": [
        {
          "internalType": "uint256",
          "name": "UAI",
          "type": "uint256"
        }
      ],
      "name": "getAssetStateCommitHash",
      "outputs": [
        {
          "internalType": "bytes32",
          "name": "stateCommitHash",
          "type": "bytes32"
        }
      ],
      "stateMutability": "view",
      "type": "function",
      "constant": true
    },
    {
      "inputs": [
        {
          "internalType": "uint256",
          "name": "UAI",
          "type": "uint256"
        }
      ],
      "name": "getAssetOwner",
      "outputs": [
        {
          "internalType": "address",
          "name": "owner",
          "type": "address"
        }
      ],
      "stateMutability": "view",
      "type": "function",
      "constant": true
    },
    {
      "inputs": [
        {
          "internalType": "uint256",
          "name": "UAI",
          "type": "uint256"
        }
      ],
      "name": "getAssetCreationTimestamp",
      "outputs": [
        {
          "internalType": "uint256",
          "name": "creationTimestamp",
          "type": "uint256"
        }
      ],
      "stateMutability": "view",
      "type": "function",
      "constant": true
    },
    {
      "inputs": [],
      "name": "getNumberOfEpochs",
      "outputs": [
        {
          "internalType": "uint256",
          "name": "",
          "type": "uint256"
        }
      ],
      "stateMutability": "view",
      "type": "function",
      "constant": true
    },
    {
      "inputs": [
        {
          "internalType": "uint256",
          "name": "numberOfEpochs",
          "type": "uint256"
        }
      ],
      "name": "setNumberOfEpochs",
      "outputs": [],
      "stateMutability": "nonpayable",
      "type": "function"
    },
    {
      "inputs": [],
      "name": "getBlockTime",
      "outputs": [
        {
          "internalType": "uint256",
          "name": "",
          "type": "uint256"
        }
      ],
      "stateMutability": "view",
      "type": "function",
      "constant": true
    },
    {
      "inputs": [
        {
          "internalType": "uint256",
          "name": "blockTime",
          "type": "uint256"
        }
      ],
      "name": "setBlockTime",
      "outputs": [],
      "stateMutability": "nonpayable",
      "type": "function"
    },
    {
      "inputs": [],
      "name": "getNumberOfHolders",
      "outputs": [
        {
          "internalType": "uint256",
          "name": "",
          "type": "uint256"
        }
      ],
      "stateMutability": "view",
      "type": "function",
      "constant": true
    },
    {
      "inputs": [
        {
          "internalType": "uint256",
          "name": "numberOfHolders",
          "type": "uint256"
        }
      ],
      "name": "setNumberOfHolders",
      "outputs": [],
      "stateMutability": "nonpayable",
      "type": "function"
    },
    {
      "inputs": [],
      "name": "getEpochValidityInBlocks",
      "outputs": [
        {
          "internalType": "uint256",
          "name": "",
          "type": "uint256"
        }
      ],
      "stateMutability": "view",
      "type": "function",
      "constant": true
    },
    {
      "inputs": [
        {
          "internalType": "uint256",
          "name": "epochValidityInBlocks",
          "type": "uint256"
        }
      ],
      "name": "setEpochValidityInBlocks",
      "outputs": [],
      "stateMutability": "nonpayable",
      "type": "function"
    }
  ],
  "bytecode": "0x60806040523480156200001157600080fd5b50604051620065593803806200655983398181016040528101906200003791906200061c565b620000576200004b620004e660201b60201c565b620004ee60201b60201c565b600073ffffffffffffffffffffffffffffffffffffffff168173ffffffffffffffffffffffffffffffffffffffff16036200009157600080fd5b80600160006101000a81548173ffffffffffffffffffffffffffffffffffffffff021916908373ffffffffffffffffffffffffffffffffffffffff1602179055506000600460008060f81b7effffffffffffffffffffffffffffffffffffffffffffffffffffffffffffff1916815260200190815260200160002081905550600160046000600160f81b7effffffffffffffffffffffffffffffffffffffffffffffffffffffffffffff1916815260200190815260200160002081905550600160046000600260f81b7effffffffffffffffffffffffffffffffffffffffffffffffffffffffffffff1916815260200190815260200160002081905550600260046000600360f81b7effffffffffffffffffffffffffffffffffffffffffffffffffffffffffffff1916815260200190815260200160002081905550600160046000600460f81b7effffffffffffffffffffffffffffffffffffffffffffffffffffffffffffff1916815260200190815260200160002081905550600260046000600560f81b7effffffffffffffffffffffffffffffffffffffffffffffffffffffffffffff1916815260200190815260200160002081905550600260046000600660f81b7effffffffffffffffffffffffffffffffffffffffffffffffffffffffffffff1916815260200190815260200160002081905550600360046000600760f81b7effffffffffffffffffffffffffffffffffffffffffffffffffffffffffffff1916815260200190815260200160002081905550600160046000600860f81b7effffffffffffffffffffffffffffffffffffffffffffffffffffffffffffff1916815260200190815260200160002081905550600260046000600960f81b7effffffffffffffffffffffffffffffffffffffffffffffffffffffffffffff1916815260200190815260200160002081905550600260046000600a60f81b7effffffffffffffffffffffffffffffffffffffffffffffffffffffffffffff1916815260200190815260200160002081905550600360046000600b60f81b7effffffffffffffffffffffffffffffffffffffffffffffffffffffffffffff1916815260200190815260200160002081905550600260046000600c60f81b7effffffffffffffffffffffffffffffffffffffffffffffffffffffffffffff1916815260200190815260200160002081905550600360046000600d60f81b7effffffffffffffffffffffffffffffffffffffffffffffffffffffffffffff1916815260200190815260200160002081905550600360046000600e60f81b7effffffffffffffffffffffffffffffffffffffffffffffffffffffffffffff19168152602001908152602001600020819055506004806000600f60f81b7effffffffffffffffffffffffffffffffffffffffffffffffffffffffffffff191681526020019081526020016000208190555060058081905550600c60078190555060036008819055506014600681905550506200064e565b600033905090565b60008060009054906101000a900473ffffffffffffffffffffffffffffffffffffffff169050816000806101000a81548173ffffffffffffffffffffffffffffffffffffffff021916908373ffffffffffffffffffffffffffffffffffffffff1602179055508173ffffffffffffffffffffffffffffffffffffffff168173ffffffffffffffffffffffffffffffffffffffff167f8be0079c531659141344cd1fd0a4f28419497f9722a3daafe3b4186f6b6457e060405160405180910390a35050565b600080fd5b600073ffffffffffffffffffffffffffffffffffffffff82169050919050565b6000620005e482620005b7565b9050919050565b620005f681620005d7565b81146200060257600080fd5b50565b6000815190506200061681620005eb565b92915050565b600060208284031215620006355762000634620005b2565b5b6000620006458482850162000605565b91505092915050565b615efb806200065e6000396000f3fe608060405234801561001057600080fd5b50600436106101e55760003560e01c8063843231a81161010f578063bc0bc6ba116100a2578063eeaf6c7911610071578063eeaf6c791461060c578063f2fde38b14610628578063f665a20614610644578063f796eb8514610674576101e5565b8063bc0bc6ba14610560578063c35dd69c14610590578063d305de65146105c0578063e910e859146105f0576101e5565b806390247808116100de57806390247808146104bf5780639f5a9a54146104dd578063a88dc956146104fb578063b8f7b90b14610530576101e5565b8063843231a81461042357806387ceff09146104535780638d5802e2146104715780638da5cb5b146104a1576101e5565b806334e5197b116101875780635f7154bf116101565780635f7154bf1461039d5780636ec6be9a146103cd578063715018a6146103fd578063758b1ce314610407576101e5565b806334e5197b146102ec578063365a86fc1461031c5780633c1ab00f1461033a578063409638401461036d576101e5565b8063228a726a116101c3578063228a726a146102525780632b25a38b146102825780632d72402c146102b2578063308feec3146102ce576101e5565b8063089d5b77146101ea5780631b448328146102065780631ca5ca4b14610236575b600080fd5b61020460048036038101906101ff9190614310565b6106a4565b005b610220600480360381019061021b919061439b565b61072a565b60405161022d91906143fd565b60405180910390f35b610250600480360381019061024b9190614310565b61076f565b005b61026c60048036038101906102679190614310565b6107f5565b6040516102799190614431565b60405180910390f35b61029c6004803603810190610297919061444c565b610815565b6040516102a991906143fd565b60405180910390f35b6102cc60048036038101906102c7919061439b565b61099c565b005b6102d661114f565b6040516102e391906143fd565b60405180910390f35b610306600480360381019061030191906144b8565b611159565b60405161031391906143fd565b60405180910390f35b610324611171565b6040516103319190614544565b60405180910390f35b610354600480360381019061034f9190614310565b611197565b60405161036494939291906148ce565b60405180910390f35b6103876004803603810190610382919061439b565b611421565b60405161039491906143fd565b60405180910390f35b6103b760048036038101906103b29190614310565b61167b565b6040516103c491906143fd565b60405180910390f35b6103e760048036038101906103e2919061492f565b61169b565b6040516103f49190614996565b60405180910390f35b610405611779565b005b610421600480360381019061041c9190614310565b611801565b005b61043d600480360381019061043891906149b8565b611887565b60405161044a91906143fd565b60405180910390f35b61045b611de9565b60405161046891906143fd565b60405180910390f35b61048b60048036038101906104869190614310565b611df3565b6040516104989190614a07565b60405180910390f35b6104a9611f0f565b6040516104b69190614a07565b60405180910390f35b6104c7611f38565b6040516104d491906143fd565b60405180910390f35b6104e5611f42565b6040516104f291906143fd565b60405180910390f35b61051560048036038101906105109190614310565b611f4c565b60405161052796959493929190614a22565b60405180910390f35b61054a60048036038101906105459190614a83565b611fa8565b60405161055791906143fd565b60405180910390f35b61057a60048036038101906105759190614310565b612b6a565b60405161058791906143fd565b60405180910390f35b6105aa60048036038101906105a5919061444c565b612cf0565b6040516105b79190614b19565b60405180910390f35b6105da60048036038101906105d59190614b34565b612dba565b6040516105e791906143fd565b60405180910390f35b61060a60048036038101906106059190614ccd565b612f58565b005b61062660048036038101906106219190614310565b61366c565b005b610642600480360381019061063d9190614d76565b6136f2565b005b61065e60048036038101906106599190614310565b6137e9565b60405161066b9190614996565b60405180910390f35b61068e6004803603810190610689919061439b565b613857565b60405161069b91906143fd565b60405180910390f35b6106ac6139da565b73ffffffffffffffffffffffffffffffffffffffff166106ca611f0f565b73ffffffffffffffffffffffffffffffffffffffff1614610720576040517f08c379a000000000000000000000000000000000000000000000000000000000815260040161071790614e00565b60405180910390fd5b8060068190555050565b6000806107378585610815565b905060006107458683612cf0565b9050801561076157610758868686613857565b92505050610768565b6000925050505b9392505050565b6107776139da565b73ffffffffffffffffffffffffffffffffffffffff16610795611f0f565b73ffffffffffffffffffffffffffffffffffffffff16146107eb576040517f08c379a00000000000000000000000000000000000000000000000000000000081526004016107e290614e00565b60405180910390fd5b8060058190555050565b600060026000838152602001908152602001600020600201549050919050565b6000806002600085815260200190815260200160002060030160008154811061084157610840614e20565b5b906000526020600020015443101580156108b2575060026000858152602001908152602001600020600301600160026000878152602001908152602001600020600301805490506108929190614e7e565b815481106108a3576108a2614e20565b5b90600052602060002001544311155b6108f1576040517f08c379a00000000000000000000000000000000000000000000000000000000081526004016108e890614efe565b60405180910390fd5b600190505b6001600260008681526020019081526020016000206003018054905061091c9190614e7e565b8110156109855760026000858152602001908152602001600020600301818154811061094b5761094a614e20565b5b90600052602060002001548310156109725760018161096a9190614e7e565b915050610996565b808061097d90614f1e565b9150506108f6565b6001816109929190614e7e565b9150505b92915050565b8073ffffffffffffffffffffffffffffffffffffffff1663d202158d336040516020016109c99190614fae565b6040516020818303038152906040528051906020012060026040518363ffffffff1660e01b81526004016109fe929190615004565b602060405180830381865afa158015610a1b573d6000803e3d6000fd5b505050506040513d601f19601f82011682018060405250810190610a3f9190615059565b610a7e576040517f08c379a0000000000000000000000000000000000000000000000000000000008152600401610a75906150f8565b60405180910390fd5b60011515600160009054906101000a900473ffffffffffffffffffffffffffffffffffffffff1673ffffffffffffffffffffffffffffffffffffffff166304433bbc6040518163ffffffff1660e01b8152600401610adb90615164565b602060405180830381865afa158015610af8573d6000803e3d6000fd5b505050506040513d601f19601f82011682018060405250810190610b1c9190615199565b73ffffffffffffffffffffffffffffffffffffffff16634f558e79856040518263ffffffff1660e01b8152600401610b5491906143fd565b602060405180830381865afa158015610b71573d6000803e3d6000fd5b505050506040513d601f19601f82011682018060405250810190610b959190615059565b151514610bd7576040517f08c379a0000000000000000000000000000000000000000000000000000000008152600401610bce90615212565b60405180910390fd5b6000610be38484612cf0565b90506000151581151514610bf657600080fd5b6000600160009054906101000a900473ffffffffffffffffffffffffffffffffffffffff1673ffffffffffffffffffffffffffffffffffffffff166304433bbc6040518163ffffffff1660e01b8152600401610c519061527e565b602060405180830381865afa158015610c6e573d6000803e3d6000fd5b505050506040513d601f19601f82011682018060405250810190610c929190615199565b905060008173ffffffffffffffffffffffffffffffffffffffff1663b56e4129856040518263ffffffff1660e01b8152600401610ccf9190614a07565b602060405180830381865afa158015610cec573d6000803e3d6000fd5b505050506040513d601f19601f82011682018060405250810190610d1091906152b3565b905060005b600260008881526020019081526020016000206009018681548110610d3d57610d3c614e20565b5b90600052602060002001548110156111465781600260008981526020019081526020016000206006018781548110610d7857610d77614e20565b5b906000526020600020018281548110610d9457610d93614e20565b5b906000526020600020015403611133576000600260008981526020019081526020016000206008018781548110610dce57610dcd614e20565b5b906000526020600020018281548110610dea57610de9614e20565b5b9060005260206000200154905060008111610e0457600080fd5b6000600260008a81526020019081526020016000206008018881548110610e2e57610e2d614e20565b5b906000526020600020018381548110610e4a57610e49614e20565b5b906000526020600020018190555080600260008a8152602001908152602001600020600a016000828254610e7e9190614e7e565b925050819055508373ffffffffffffffffffffffffffffffffffffffff1663bd3cd52587838773ffffffffffffffffffffffffffffffffffffffff16637a7664608b6040518263ffffffff1660e01b8152600401610edc9190614a07565b602060405180830381865afa158015610ef9573d6000803e3d6000fd5b505050506040513d601f19601f82011682018060405250810190610f1d91906152f5565b610f279190615322565b6040518363ffffffff1660e01b8152600401610f44929190615378565b600060405180830381600087803b158015610f5e57600080fd5b505af1158015610f72573d6000803e3d6000fd5b505050506000600160009054906101000a900473ffffffffffffffffffffffffffffffffffffffff1673ffffffffffffffffffffffffffffffffffffffff166304433bbc6040518163ffffffff1660e01b8152600401610fd1906153ed565b602060405180830381865afa158015610fee573d6000803e3d6000fd5b505050506040513d601f19601f820116820180604052508101906110129190615199565b90508073ffffffffffffffffffffffffffffffffffffffff1663a9059cbb600160009054906101000a900473ffffffffffffffffffffffffffffffffffffffff1673ffffffffffffffffffffffffffffffffffffffff166304433bbc6040518163ffffffff1660e01b81526004016110899061527e565b602060405180830381865afa1580156110a6573d6000803e3d6000fd5b505050506040513d601f19601f820116820180604052508101906110ca9190615199565b846040518363ffffffff1660e01b81526004016110e8929190615378565b6020604051808303816000875af1158015611107573d6000803e3d6000fd5b505050506040513d601f19601f8201168201806040525081019061112b9190615059565b505050611146565b808061113e90614f1e565b915050610d15565b50505050505050565b6000600854905090565b60036020528060005260406000206000915090505481565b600160009054906101000a900473ffffffffffffffffffffffffffffffffffffffff1681565b6060806060806002600086815260200190815260200160002060060160026000878152602001908152602001600020600701600260008881526020019081526020016000206008016002600089815260200190815260200160002060090183805480602002602001604051908101604052809291908181526020016000905b828210156112885783829060005260206000200180548060200260200160405190810160405280929190818152602001828054801561127457602002820191906000526020600020905b815481526020019060010190808311611260575b505050505081526020019060010190611216565b50505050935082805480602002602001604051908101604052809291908181526020016000905b828210156113215783829060005260206000200180548060200260200160405190810160405280929190818152602001828054801561130d57602002820191906000526020600020905b8154815260200190600101908083116112f9575b5050505050815260200190600101906112af565b50505050925081805480602002602001604051908101604052809291908181526020016000905b828210156113ba578382906000526020600020018054806020026020016040519081016040528092919081815260200182805480156113a657602002820191906000526020600020905b815481526020019060010190808311611392575b505050505081526020019060010190611348565b5050505091508080548060200260200160405190810160405280929190818152602001828054801561140b57602002820191906000526020600020905b8154815260200190600101908083116113f7575b5050505050905093509350935093509193509193565b600080600160009054906101000a900473ffffffffffffffffffffffffffffffffffffffff1673ffffffffffffffffffffffffffffffffffffffff166304433bbc6040518163ffffffff1660e01b815260040161147d9061527e565b602060405180830381865afa15801561149a573d6000803e3d6000fd5b505050506040513d601f19601f820116820180604052508101906114be9190615199565b905060008173ffffffffffffffffffffffffffffffffffffffff1663b56e4129856040518263ffffffff1660e01b81526004016114fb9190614a07565b602060405180830381865afa158015611518573d6000803e3d6000fd5b505050506040513d601f19601f8201168201806040525081019061153c91906152b3565b905060006115b882600289604051602001611557919061542e565b60405160208183030381529060405260405161157391906154c3565b602060405180830381855afa158015611590573d6000803e3d6000fd5b5050506040513d601f19601f820116820180604052508101906115b391906152b3565b612dba565b905060005b6002600089815260200190815260200160002060090187815481106115e5576115e4614e20565b5b906000526020600020015481101561166c5781600260008a815260200190815260200160002060070188815481106116205761161f614e20565b5b90600052602060002001828154811061163c5761163b614e20565b5b906000526020600020015411156116595780945050505050611674565b808061166490614f1e565b9150506115bd565b809450505050505b9392505050565b600060026000838152602001908152602001600020600001549050919050565b606060006001856116ac9190615322565b67ffffffffffffffff8111156116c5576116c4614b8a565b5b6040519080825280602002602001820160405280156116f35781602001602082028036833780820191505090505b50905060005b6001866117069190615322565b81101561176c578585858361171b91906154da565b6117259190615563565b61172f9190615563565b8761173a9190615322565b82828151811061174d5761174c614e20565b5b602002602001018181525050808061176490614f1e565b9150506116f9565b5080915050949350505050565b6117816139da565b73ffffffffffffffffffffffffffffffffffffffff1661179f611f0f565b73ffffffffffffffffffffffffffffffffffffffff16146117f5576040517f08c379a00000000000000000000000000000000000000000000000000000000081526004016117ec90614e00565b60405180910390fd5b6117ff60006139e2565b565b6118096139da565b73ffffffffffffffffffffffffffffffffffffffff16611827611f0f565b73ffffffffffffffffffffffffffffffffffffffff161461187d576040517f08c379a000000000000000000000000000000000000000000000000000000000815260040161187490614e00565b60405180910390fd5b8060078190555050565b60008083036118cb576040517f08c379a00000000000000000000000000000000000000000000000000000000081526004016118c2906155e0565b60405180910390fd5b6000801b8203611910576040517f08c379a000000000000000000000000000000000000000000000000000000000815260040161190790615672565b60405180910390fd5b6000600260008581526020019081526020016000206000015403611969576040517f08c379a0000000000000000000000000000000000000000000000000000000008152600401611960906156de565b60405180910390fd5b60011515600160009054906101000a900473ffffffffffffffffffffffffffffffffffffffff1673ffffffffffffffffffffffffffffffffffffffff166304433bbc6040518163ffffffff1660e01b81526004016119c690615164565b602060405180830381865afa1580156119e3573d6000803e3d6000fd5b505050506040513d601f19601f82011682018060405250810190611a079190615199565b73ffffffffffffffffffffffffffffffffffffffff16634f558e79856040518263ffffffff1660e01b8152600401611a3f91906143fd565b602060405180830381865afa158015611a5c573d6000803e3d6000fd5b505050506040513d601f19601f82011682018060405250810190611a809190615059565b151514611ac2576040517f08c379a0000000000000000000000000000000000000000000000000000000008152600401611ab99061574a565b60405180910390fd5b6000600160009054906101000a900473ffffffffffffffffffffffffffffffffffffffff1673ffffffffffffffffffffffffffffffffffffffff166304433bbc6040518163ffffffff1660e01b8152600401611b1d906157b6565b602060405180830381865afa158015611b3a573d6000803e3d6000fd5b505050506040513d601f19601f82011682018060405250810190611b5e9190615199565b73ffffffffffffffffffffffffffffffffffffffff1663a7943efc846040518263ffffffff1660e01b8152600401611b969190614431565b602060405180830381865afa158015611bb3573d6000803e3d6000fd5b505050506040513d601f19601f82011682018060405250810190611bd791906152f5565b14611c17576040517f08c379a0000000000000000000000000000000000000000000000000000000008152600401611c0e90615822565b60405180910390fd5b3373ffffffffffffffffffffffffffffffffffffffff16600160009054906101000a900473ffffffffffffffffffffffffffffffffffffffff1673ffffffffffffffffffffffffffffffffffffffff166304433bbc6040518163ffffffff1660e01b8152600401611c8790615164565b602060405180830381865afa158015611ca4573d6000803e3d6000fd5b505050506040513d601f19601f82011682018060405250810190611cc89190615199565b73ffffffffffffffffffffffffffffffffffffffff16636352211e856040518263ffffffff1660e01b8152600401611d0091906143fd565b602060405180830381865afa158015611d1d573d6000803e3d6000fd5b505050506040513d601f19601f82011682018060405250810190611d419190615199565b73ffffffffffffffffffffffffffffffffffffffff1614611d97576040517f08c379a0000000000000000000000000000000000000000000000000000000008152600401611d8e9061588e565b60405180910390fd5b81600260008581526020019081526020016000206002018190555081837fd8802cf5c11ee22bbcf303218874618686a09bcd94bbb441916d708f3e8b16e360405160405180910390a382905092915050565b6000600754905090565b6000600160009054906101000a900473ffffffffffffffffffffffffffffffffffffffff1673ffffffffffffffffffffffffffffffffffffffff166304433bbc6040518163ffffffff1660e01b8152600401611e4e90615164565b602060405180830381865afa158015611e6b573d6000803e3d6000fd5b505050506040513d601f19601f82011682018060405250810190611e8f9190615199565b73ffffffffffffffffffffffffffffffffffffffff16636352211e836040518263ffffffff1660e01b8152600401611ec791906143fd565b602060405180830381865afa158015611ee4573d6000803e3d6000fd5b505050506040513d601f19601f82011682018060405250810190611f089190615199565b9050919050565b60008060009054906101000a900473ffffffffffffffffffffffffffffffffffffffff16905090565b6000600554905090565b6000600654905090565b60026020528060005260406000206000915090508060000154908060010160009054906101000a900473ffffffffffffffffffffffffffffffffffffffff169080600201549080600401549080600501549080600a0154905086565b60008060001b8603611fef576040517f08c379a0000000000000000000000000000000000000000000000000000000008152600401611fe6906158fa565b60405180910390fd5b6000600160009054906101000a900473ffffffffffffffffffffffffffffffffffffffff1673ffffffffffffffffffffffffffffffffffffffff166304433bbc6040518163ffffffff1660e01b815260040161204a906157b6565b602060405180830381865afa158015612067573d6000803e3d6000fd5b505050506040513d601f19601f8201168201806040525081019061208b9190615199565b73ffffffffffffffffffffffffffffffffffffffff1663a7943efc886040518263ffffffff1660e01b81526004016120c39190614431565b602060405180830381865afa1580156120e0573d6000803e3d6000fd5b505050506040513d601f19601f8201168201806040525081019061210491906152f5565b14612144576040517f08c379a000000000000000000000000000000000000000000000000000000000815260040161213b90615822565b60405180910390fd5b6000600160009054906101000a900473ffffffffffffffffffffffffffffffffffffffff1673ffffffffffffffffffffffffffffffffffffffff166304433bbc6040518163ffffffff1660e01b815260040161219f906153ed565b602060405180830381865afa1580156121bc573d6000803e3d6000fd5b505050506040513d601f19601f820116820180604052508101906121e09190615199565b9050858173ffffffffffffffffffffffffffffffffffffffff1663dd62ed3e33306040518363ffffffff1660e01b815260040161221e92919061591a565b602060405180830381865afa15801561223b573d6000803e3d6000fd5b505050506040513d601f19601f8201168201806040525081019061225f91906152f5565b10156122a0576040517f08c379a0000000000000000000000000000000000000000000000000000000008152600401612297906159b5565b60405180910390fd5b858173ffffffffffffffffffffffffffffffffffffffff166370a08231336040518263ffffffff1660e01b81526004016122da9190614a07565b602060405180830381865afa1580156122f7573d6000803e3d6000fd5b505050506040513d601f19601f8201168201806040525081019061231b91906152f5565b101561235c576040517f08c379a000000000000000000000000000000000000000000000000000000000815260040161235390615a47565b60405180910390fd5b6000600160009054906101000a900473ffffffffffffffffffffffffffffffffffffffff1673ffffffffffffffffffffffffffffffffffffffff166304433bbc6040518163ffffffff1660e01b81526004016123b790615164565b602060405180830381865afa1580156123d4573d6000803e3d6000fd5b505050506040513d601f19601f820116820180604052508101906123f89190615199565b73ffffffffffffffffffffffffffffffffffffffff1663a61788ba336040518263ffffffff1660e01b81526004016124309190614a07565b6020604051808303816000875af115801561244f573d6000803e3d6000fd5b505050506040513d601f19601f8201168201806040525081019061247391906152f5565b905060006002600083815260200190815260200160002060000154146124ce576040517f08c379a00000000000000000000000000000000000000000000000000000000081526004016124c590615ab3565b60405180910390fd5b8173ffffffffffffffffffffffffffffffffffffffff166323b872dd33308a6040518463ffffffff1660e01b815260040161250b93929190615ad3565b6020604051808303816000875af115801561252a573d6000803e3d6000fd5b505050506040513d601f19601f8201168201806040525081019061254e9190615059565b508660026000838152602001908152602001600020600a0160008282546125759190615322565b92505081905550600160009054906101000a900473ffffffffffffffffffffffffffffffffffffffff1673ffffffffffffffffffffffffffffffffffffffff166304433bbc6040518163ffffffff1660e01b81526004016125d5906157b6565b602060405180830381865afa1580156125f2573d6000803e3d6000fd5b505050506040513d601f19601f820116820180604052508101906126169190615199565b73ffffffffffffffffffffffffffffffffffffffff1663f52f138a89336001886040518563ffffffff1660e01b81526004016126559493929190615b45565b600060405180830381600087803b15801561266f57600080fd5b505af1158015612683573d6000803e3d6000fd5b505050508760026000838152602001908152602001600020600201819055504260026000838152602001908152602001600020600001819055508560026000838152602001908152602001600020600401819055506126e8436005546007548861169b565b6002600083815260200190815260200160002060030190805190602001906127119291906140a8565b50600854600554886127239190615563565b61272d9190615563565b6002600083815260200190815260200160002060050181905550600567ffffffffffffffff81111561276257612761614b8a565b5b60405190808252806020026020018201604052801561279557816020015b60608152602001906001900390816127805790505b506002600083815260200190815260200160002060060190805190602001906127bf9291906140f5565b50600567ffffffffffffffff8111156127db576127da614b8a565b5b60405190808252806020026020018201604052801561280e57816020015b60608152602001906001900390816127f95790505b50600260008381526020019081526020016000206007019080519060200190612838929190614155565b50600567ffffffffffffffff81111561285457612853614b8a565b5b60405190808252806020026020018201604052801561288757816020015b60608152602001906001900390816128725790505b506002600083815260200190815260200160002060080190805190602001906128b1929190614155565b50600567ffffffffffffffff8111156128cd576128cc614b8a565b5b6040519080825280602002602001820160405280156128fb5781602001602082028036833780820191505090505b506002600083815260200190815260200160002060090190805190602001906129259291906140a8565b5060005b6005811015612b2d57600367ffffffffffffffff81111561294d5761294c614b8a565b5b60405190808252806020026020018201604052801561297b5781602001602082028036833780820191505090505b506002600084815260200190815260200160002060060182815481106129a4576129a3614e20565b5b9060005260206000200190805190602001906129c19291906141b5565b50600367ffffffffffffffff8111156129dd576129dc614b8a565b5b604051908082528060200260200182016040528015612a0b5781602001602082028036833780820191505090505b50600260008481526020019081526020016000206007018281548110612a3457612a33614e20565b5b906000526020600020019080519060200190612a519291906140a8565b50600367ffffffffffffffff811115612a6d57612a6c614b8a565b5b604051908082528060200260200182016040528015612a9b5781602001602082028036833780820191505090505b50600260008481526020019081526020016000206008018281548110612ac457612ac3614e20565b5b906000526020600020019080519060200190612ae19291906140a8565b506000600260008481526020019081526020016000206009018281548110612b0c57612b0b614e20565b5b90600052602060002001819055508080612b2590614f1e565b915050612929565b5087817f5863c932b4caa63f7e8856a49b4d0a438e7c26163d5553ecbcd67dee29a8907160405160405180910390a3809250505095945050505050565b60008060026000848152602001908152602001600020600301600081548110612b9657612b95614e20565b5b90600052602060002001544310158015612c0757506002600084815260200190815260200160002060030160016002600086815260200190815260200160002060030180549050612be79190614e7e565b81548110612bf857612bf7614e20565b5b90600052602060002001544311155b612c46576040517f08c379a0000000000000000000000000000000000000000000000000000000008152600401612c3d90614efe565b60405180910390fd5b600190505b60016002600085815260200190815260200160002060030180549050612c719190614e7e565b811015612cda57600260008481526020019081526020016000206003018181548110612ca057612c9f614e20565b5b9060005260206000200154431015612cc757600181612cbf9190614e7e565b915050612ceb565b8080612cd290614f1e565b915050612c4b565b600181612ce79190614e7e565b9150505b919050565b60008160016002600086815260200190815260200160002060030180549050612d199190614e7e565b1115612daf5743600260008581526020019081526020016000206003018381548110612d4857612d47614e20565b5b906000526020600020015411158015612da0575043600654600260008681526020019081526020016000206003018481548110612d8857612d87614e20565b5b9060005260206000200154612d9d9190615322565b10155b15612dae5760019050612db4565b5b600090505b92915050565b60008082841890506000805b602060ff16811015612f4c57600460006004858460208110612deb57612dea614e20565b5b1a60f81b7effffffffffffffffffffffffffffffffffffffffffffffffffffffffffffff1916901c7effffffffffffffffffffffffffffffffffffffffffffffffffffffffffffff19167effffffffffffffffffffffffffffffffffffffffffffffffffffffffffffff191681526020019081526020016000205482612e719190615322565b915060046000600480868560208110612e8d57612e8c614e20565b5b1a60f81b7effffffffffffffffffffffffffffffffffffffffffffffffffffffffffffff1916901b7effffffffffffffffffffffffffffffffffffffffffffffffffffffffffffff1916901c7effffffffffffffffffffffffffffffffffffffffffffffffffffffffffffff19167effffffffffffffffffffffffffffffffffffffffffffffffffffffffffffff191681526020019081526020016000205482612f379190615322565b91508080612f4490614f1e565b915050612dc6565b50809250505092915050565b60011515600160009054906101000a900473ffffffffffffffffffffffffffffffffffffffff1673ffffffffffffffffffffffffffffffffffffffff166304433bbc6040518163ffffffff1660e01b8152600401612fb590615164565b602060405180830381865afa158015612fd2573d6000803e3d6000fd5b505050506040513d601f19601f82011682018060405250810190612ff69190615199565b73ffffffffffffffffffffffffffffffffffffffff16634f558e79886040518263ffffffff1660e01b815260040161302e91906143fd565b602060405180830381865afa15801561304b573d6000803e3d6000fd5b505050506040513d601f19601f8201168201806040525081019061306f9190615059565b1515146130b1576040517f08c379a00000000000000000000000000000000000000000000000000000000081526004016130a890615212565b60405180910390fd5b600260008781526020019081526020016000206005015482111561310a576040517f08c379a000000000000000000000000000000000000000000000000000000000815260040161310190615bd6565b60405180910390fd5b60011515600160009054906101000a900473ffffffffffffffffffffffffffffffffffffffff1673ffffffffffffffffffffffffffffffffffffffff166304433bbc6040518163ffffffff1660e01b815260040161316790615164565b602060405180830381865afa158015613184573d6000803e3d6000fd5b505050506040513d601f19601f820116820180604052508101906131a89190615199565b73ffffffffffffffffffffffffffffffffffffffff16634f558e79886040518263ffffffff1660e01b81526004016131e091906143fd565b602060405180830381865afa1580156131fd573d6000803e3d6000fd5b505050506040513d601f19601f820116820180604052508101906132219190615059565b151514613263576040517f08c379a000000000000000000000000000000000000000000000000000000000815260040161325a90615212565b60405180910390fd5b8073ffffffffffffffffffffffffffffffffffffffff1663d202158d336040516020016132909190614fae565b6040516020818303038152906040528051906020012060026040518363ffffffff1660e01b81526004016132c5929190615004565b602060405180830381865afa1580156132e2573d6000803e3d6000fd5b505050506040513d601f19601f820116820180604052508101906133069190615059565b613345576040517f08c379a000000000000000000000000000000000000000000000000000000000815260040161333c906150f8565b60405180910390fd5b60006133518787610815565b9050600061335f8883612cf0565b90508061336b57600080fd5b6000600160009054906101000a900473ffffffffffffffffffffffffffffffffffffffff1673ffffffffffffffffffffffffffffffffffffffff166304433bbc6040518163ffffffff1660e01b81526004016133c69061527e565b602060405180830381865afa1580156133e3573d6000803e3d6000fd5b505050506040513d601f19601f820116820180604052508101906134079190615199565b905060008173ffffffffffffffffffffffffffffffffffffffff1663b56e4129866040518263ffffffff1660e01b81526004016134449190614a07565b602060405180830381865afa158015613461573d6000803e3d6000fd5b505050506040513d601f19601f8201168201806040525081019061348591906152b3565b905060005b600260008c815260200190815260200160002060090185815481106134b2576134b1614e20565b5b906000526020600020015481101561356757600260008c815260200190815260200160002060060185815481106134ec576134eb614e20565b5b90600052602060002001818154811061350857613507614e20565b5b90600052602060002001548203613554576040517f08c379a000000000000000000000000000000000000000000000000000000000815260040161354b90615c68565b60405180910390fd5b808061355f90614f1e565b91505061348a565b5060006135758b8b88613857565b905060006135848c8789611421565b9050600381106135c9576040517f08c379a00000000000000000000000000000000000000000000000000000000081526004016135c090615cd4565b60405180910390fd5b6136128a600260008f8152602001908152602001600020600201548b856040516020016135f7929190615d15565b60405160208183030381529060405280519060200120613aa6565b613651576040517f08c379a000000000000000000000000000000000000000000000000000000000815260040161364890615d8d565b60405180910390fd5b61365e8c87838b8b613abd565b505050505050505050505050565b6136746139da565b73ffffffffffffffffffffffffffffffffffffffff16613692611f0f565b73ffffffffffffffffffffffffffffffffffffffff16146136e8576040517f08c379a00000000000000000000000000000000000000000000000000000000081526004016136df90614e00565b60405180910390fd5b8060088190555050565b6136fa6139da565b73ffffffffffffffffffffffffffffffffffffffff16613718611f0f565b73ffffffffffffffffffffffffffffffffffffffff161461376e576040517f08c379a000000000000000000000000000000000000000000000000000000000815260040161376590614e00565b60405180910390fd5b600073ffffffffffffffffffffffffffffffffffffffff168173ffffffffffffffffffffffffffffffffffffffff16036137dd576040517f08c379a00000000000000000000000000000000000000000000000000000000081526004016137d490615e1f565b60405180910390fd5b6137e6816139e2565b50565b60606002600083815260200190815260200160002060030180548060200260200160405190810160405280929190818152602001828054801561384b57602002820191906000526020600020905b815481526020019060010190808311613837575b50505050509050919050565b60008173ffffffffffffffffffffffffffffffffffffffff1663d202158d336040516020016138869190614fae565b6040516020818303038152906040528051906020012060026040518363ffffffff1660e01b81526004016138bb929190615004565b602060405180830381865afa1580156138d8573d6000803e3d6000fd5b505050506040513d601f19601f820116820180604052508101906138fc9190615059565b61393b576040517f08c379a0000000000000000000000000000000000000000000000000000000008152600401613932906150f8565b60405180910390fd5b60026000858152602001908152602001600020600401546002844084604051602001613968929190615e3f565b60405160208183030381529060405260405161398491906154c3565b602060405180830381855afa1580156139a1573d6000803e3d6000fd5b5050506040513d601f19601f820116820180604052508101906139c491906152b3565b60001c6139d19190615e6b565b90509392505050565b600033905090565b60008060009054906101000a900473ffffffffffffffffffffffffffffffffffffffff169050816000806101000a81548173ffffffffffffffffffffffffffffffffffffffff021916908373ffffffffffffffffffffffffffffffffffffffff1602179055508173ffffffffffffffffffffffffffffffffffffffff168173ffffffffffffffffffffffffffffffffffffffff167f8be0079c531659141344cd1fd0a4f28419497f9722a3daafe3b4186f6b6457e060405160405180910390a35050565b600082613ab3858461401c565b1490509392505050565b6000600260008781526020019081526020016000206009018581548110613ae757613ae6614e20565b5b9060005260206000200154905060008190505b600185613b079190615322565b8110613d31576003810315613d1e57600260008881526020019081526020016000206006018681548110613b3e57613b3d614e20565b5b90600052602060002001600182613b559190614e7e565b81548110613b6657613b65614e20565b5b9060005260206000200154600260008981526020019081526020016000206006018781548110613b9957613b98614e20565b5b906000526020600020018281548110613bb557613bb4614e20565b5b9060005260206000200181905550600260008881526020019081526020016000206007018681548110613beb57613bea614e20565b5b90600052602060002001600182613c029190614e7e565b81548110613c1357613c12614e20565b5b9060005260206000200154600260008981526020019081526020016000206007018781548110613c4657613c45614e20565b5b906000526020600020018281548110613c6257613c61614e20565b5b9060005260206000200181905550600260008881526020019081526020016000206008018681548110613c9857613c97614e20565b5b90600052602060002001600182613caf9190614e7e565b81548110613cc057613cbf614e20565b5b9060005260206000200154600260008981526020019081526020016000206008018781548110613cf357613cf2614e20565b5b906000526020600020018281548110613d0f57613d0e614e20565b5b90600052602060002001819055505b8080613d2990615e9c565b915050613afa565b506000600160009054906101000a900473ffffffffffffffffffffffffffffffffffffffff1673ffffffffffffffffffffffffffffffffffffffff166304433bbc6040518163ffffffff1660e01b8152600401613d8d9061527e565b602060405180830381865afa158015613daa573d6000803e3d6000fd5b505050506040513d601f19601f82011682018060405250810190613dce9190615199565b905060008173ffffffffffffffffffffffffffffffffffffffff1663b56e4129856040518263ffffffff1660e01b8152600401613e0b9190614a07565b602060405180830381865afa158015613e28573d6000803e3d6000fd5b505050506040513d601f19601f82011682018060405250810190613e4c91906152b3565b905080600260008a81526020019081526020016000206006018881548110613e7757613e76614e20565b5b906000526020600020018781548110613e9357613e92614e20565b5b9060005260206000200181905550613f198160028a604051602001613eb8919061542e565b604051602081830303815290604052604051613ed491906154c3565b602060405180830381855afa158015613ef1573d6000803e3d6000fd5b5050506040513d601f19601f82011682018060405250810190613f1491906152b3565b612dba565b600260008a81526020019081526020016000206007018881548110613f4157613f40614e20565b5b906000526020600020018781548110613f5d57613f5c614e20565b5b906000526020600020018190555084600260008a81526020019081526020016000206008018881548110613f9457613f93614e20565b5b906000526020600020018781548110613fb057613faf614e20565b5b90600052602060002001819055506003831015614012576001600260008a81526020019081526020016000206009018881548110613ff157613ff0614e20565b5b90600052602060002001600082825461400a9190615322565b925050819055505b5050505050505050565b60008082905060005b845181101561408657600085828151811061404357614042614e20565b5b602002602001015190508083116140655761405e8382614091565b9250614072565b61406f8184614091565b92505b50808061407e90614f1e565b915050614025565b508091505092915050565b600082600052816020526040600020905092915050565b8280548282559060005260206000209081019282156140e4579160200282015b828111156140e35782518255916020019190600101906140c8565b5b5090506140f19190614202565b5090565b828054828255906000526020600020908101928215614144579160200282015b828111156141435782518290805190602001906141339291906141b5565b5091602001919060010190614115565b5b509050614151919061421f565b5090565b8280548282559060005260206000209081019282156141a4579160200282015b828111156141a35782518290805190602001906141939291906140a8565b5091602001919060010190614175565b5b5090506141b19190614243565b5090565b8280548282559060005260206000209081019282156141f1579160200282015b828111156141f05782518255916020019190600101906141d5565b5b5090506141fe9190614267565b5090565b5b8082111561421b576000816000905550600101614203565b5090565b5b8082111561423f57600081816142369190614284565b50600101614220565b5090565b5b80821115614263576000818161425a91906142a5565b50600101614244565b5090565b5b80821115614280576000816000905550600101614268565b5090565b50805460008255906000526020600020908101906142a29190614267565b50565b50805460008255906000526020600020908101906142c39190614202565b50565b6000604051905090565b600080fd5b600080fd5b6000819050919050565b6142ed816142da565b81146142f857600080fd5b50565b60008135905061430a816142e4565b92915050565b600060208284031215614326576143256142d0565b5b6000614334848285016142fb565b91505092915050565b600073ffffffffffffffffffffffffffffffffffffffff82169050919050565b60006143688261433d565b9050919050565b6143788161435d565b811461438357600080fd5b50565b6000813590506143958161436f565b92915050565b6000806000606084860312156143b4576143b36142d0565b5b60006143c2868287016142fb565b93505060206143d3868287016142fb565b92505060406143e486828701614386565b9150509250925092565b6143f7816142da565b82525050565b600060208201905061441260008301846143ee565b92915050565b6000819050919050565b61442b81614418565b82525050565b60006020820190506144466000830184614422565b92915050565b60008060408385031215614463576144626142d0565b5b6000614471858286016142fb565b9250506020614482858286016142fb565b9150509250929050565b61449581614418565b81146144a057600080fd5b50565b6000813590506144b28161448c565b92915050565b6000602082840312156144ce576144cd6142d0565b5b60006144dc848285016144a3565b91505092915050565b6000819050919050565b600061450a6145056145008461433d565b6144e5565b61433d565b9050919050565b600061451c826144ef565b9050919050565b600061452e82614511565b9050919050565b61453e81614523565b82525050565b60006020820190506145596000830184614535565b92915050565b600081519050919050565b600082825260208201905092915050565b6000819050602082019050919050565b600081519050919050565b600082825260208201905092915050565b6000819050602082019050919050565b6145c081614418565b82525050565b60006145d283836145b7565b60208301905092915050565b6000602082019050919050565b60006145f68261458b565b6146008185614596565b935061460b836145a7565b8060005b8381101561463c57815161462388826145c6565b975061462e836145de565b92505060018101905061460f565b5085935050505092915050565b600061465583836145eb565b905092915050565b6000602082019050919050565b60006146758261455f565b61467f818561456a565b9350836020820285016146918561457b565b8060005b858110156146cd57848403895281516146ae8582614649565b94506146b98361465d565b925060208a01995050600181019050614695565b50829750879550505050505092915050565b600081519050919050565b600082825260208201905092915050565b6000819050602082019050919050565b600081519050919050565b600082825260208201905092915050565b6000819050602082019050919050565b614740816142da565b82525050565b60006147528383614737565b60208301905092915050565b6000602082019050919050565b60006147768261470b565b6147808185614716565b935061478b83614727565b8060005b838110156147bc5781516147a38882614746565b97506147ae8361475e565b92505060018101905061478f565b5085935050505092915050565b60006147d5838361476b565b905092915050565b6000602082019050919050565b60006147f5826146df565b6147ff81856146ea565b935083602082028501614811856146fb565b8060005b8581101561484d578484038952815161482e85826147c9565b9450614839836147dd565b925060208a01995050600181019050614815565b50829750879550505050505092915050565b600082825260208201905092915050565b600061487b8261470b565b614885818561485f565b935061489083614727565b8060005b838110156148c15781516148a88882614746565b97506148b38361475e565b925050600181019050614894565b5085935050505092915050565b600060808201905081810360008301526148e8818761466a565b905081810360208301526148fc81866147ea565b9050818103604083015261491081856147ea565b905081810360608301526149248184614870565b905095945050505050565b60008060008060808587031215614949576149486142d0565b5b6000614957878288016142fb565b9450506020614968878288016142fb565b9350506040614979878288016142fb565b925050606061498a878288016142fb565b91505092959194509250565b600060208201905081810360008301526149b08184614870565b905092915050565b600080604083850312156149cf576149ce6142d0565b5b60006149dd858286016142fb565b92505060206149ee858286016144a3565b9150509250929050565b614a018161435d565b82525050565b6000602082019050614a1c60008301846149f8565b92915050565b600060c082019050614a3760008301896143ee565b614a4460208301886149f8565b614a516040830187614422565b614a5e60608301866143ee565b614a6b60808301856143ee565b614a7860a08301846143ee565b979650505050505050565b600080600080600060a08688031215614a9f57614a9e6142d0565b5b6000614aad888289016144a3565b9550506020614abe888289016142fb565b9450506040614acf888289016142fb565b9350506060614ae0888289016142fb565b9250506080614af1888289016144a3565b9150509295509295909350565b60008115159050919050565b614b1381614afe565b82525050565b6000602082019050614b2e6000830184614b0a565b92915050565b60008060408385031215614b4b57614b4a6142d0565b5b6000614b59858286016144a3565b9250506020614b6a858286016144a3565b9150509250929050565b600080fd5b6000601f19601f8301169050919050565b7f4e487b7100000000000000000000000000000000000000000000000000000000600052604160045260246000fd5b614bc282614b79565b810181811067ffffffffffffffff82111715614be157614be0614b8a565b5b80604052505050565b6000614bf46142c6565b9050614c008282614bb9565b919050565b600067ffffffffffffffff821115614c2057614c1f614b8a565b5b602082029050602081019050919050565b600080fd5b6000614c49614c4484614c05565b614bea565b90508083825260208201905060208402830185811115614c6c57614c6b614c31565b5b835b81811015614c955780614c8188826144a3565b845260208401935050602081019050614c6e565b5050509392505050565b600082601f830112614cb457614cb3614b74565b5b8135614cc4848260208601614c36565b91505092915050565b60008060008060008060c08789031215614cea57614ce96142d0565b5b6000614cf889828a016142fb565b9650506020614d0989828a016142fb565b955050604087013567ffffffffffffffff811115614d2a57614d296142d5565b5b614d3689828a01614c9f565b9450506060614d4789828a016144a3565b9350506080614d5889828a016142fb565b92505060a0614d6989828a01614386565b9150509295509295509295565b600060208284031215614d8c57614d8b6142d0565b5b6000614d9a84828501614386565b91505092915050565b600082825260208201905092915050565b7f4f776e61626c653a2063616c6c6572206973206e6f7420746865206f776e6572600082015250565b6000614dea602083614da3565b9150614df582614db4565b602082019050919050565b60006020820190508181036000830152614e1981614ddd565b9050919050565b7f4e487b7100000000000000000000000000000000000000000000000000000000600052603260045260246000fd5b7f4e487b7100000000000000000000000000000000000000000000000000000000600052601160045260246000fd5b6000614e89826142da565b9150614e94836142da565b925082821015614ea757614ea6614e4f565b5b828203905092915050565b7f5541492068617320657870697265642e00000000000000000000000000000000600082015250565b6000614ee8601083614da3565b9150614ef382614eb2565b602082019050919050565b60006020820190508181036000830152614f1781614edb565b9050919050565b6000614f29826142da565b91507fffffffffffffffffffffffffffffffffffffffffffffffffffffffffffffffff8203614f5b57614f5a614e4f565b5b600182019050919050565b60008160601b9050919050565b6000614f7e82614f66565b9050919050565b6000614f9082614f73565b9050919050565b614fa8614fa38261435d565b614f85565b82525050565b6000614fba8284614f97565b60148201915081905092915050565b6000819050919050565b6000614fee614fe9614fe484614fc9565b6144e5565b6142da565b9050919050565b614ffe81614fd3565b82525050565b60006040820190506150196000830185614422565b6150266020830184614ff5565b9392505050565b61503681614afe565b811461504157600080fd5b50565b6000815190506150538161502d565b92915050565b60006020828403121561506f5761506e6142d0565b5b600061507d84828501615044565b91505092915050565b7f53656e64657220646f6573206e6f74206861766520616374696f6e207065726d60008201527f697373696f6e20666f72206964656e7469747921000000000000000000000000602082015250565b60006150e2603483614da3565b91506150ed82615086565b604082019050919050565b60006020820190508181036000830152615111816150d5565b9050919050565b7f4552433732315265676973747279000000000000000000000000000000000000600082015250565b600061514e600e83614da3565b915061515982615118565b602082019050919050565b6000602082019050818103600083015261517d81615141565b9050919050565b6000815190506151938161436f565b92915050565b6000602082840312156151af576151ae6142d0565b5b60006151bd84828501615184565b91505092915050565b7f45524337323120746f6b656e20646f65736e2774206578697374210000000000600082015250565b60006151fc601b83614da3565b9150615207826151c6565b602082019050919050565b6000602082019050818103600083015261522b816151ef565b9050919050565b7f50726f66696c6553746f72616765000000000000000000000000000000000000600082015250565b6000615268600e83614da3565b915061527382615232565b602082019050919050565b600060208201905081810360008301526152978161525b565b9050919050565b6000815190506152ad8161448c565b92915050565b6000602082840312156152c9576152c86142d0565b5b60006152d78482850161529e565b91505092915050565b6000815190506152ef816142e4565b92915050565b60006020828403121561530b5761530a6142d0565b5b6000615319848285016152e0565b91505092915050565b600061532d826142da565b9150615338836142da565b9250827fffffffffffffffffffffffffffffffffffffffffffffffffffffffffffffffff0382111561536d5761536c614e4f565b5b828201905092915050565b600060408201905061538d60008301856149f8565b61539a60208301846143ee565b9392505050565b7f546f6b656e000000000000000000000000000000000000000000000000000000600082015250565b60006153d7600583614da3565b91506153e2826153a1565b602082019050919050565b60006020820190508181036000830152615406816153ca565b9050919050565b6000819050919050565b615428615423826142da565b61540d565b82525050565b600061543a8284615417565b60208201915081905092915050565b600081519050919050565b600081905092915050565b60005b8381101561547d578082015181840152602081019050615462565b8381111561548c576000848401525b50505050565b600061549d82615449565b6154a78185615454565b93506154b781856020860161545f565b80840191505092915050565b60006154cf8284615492565b915081905092915050565b60006154e5826142da565b91506154f0836142da565b9250817fffffffffffffffffffffffffffffffffffffffffffffffffffffffffffffffff048311821515161561552957615528614e4f565b5b828202905092915050565b7f4e487b7100000000000000000000000000000000000000000000000000000000600052601260045260246000fd5b600061556e826142da565b9150615579836142da565b92508261558957615588615534565b5b828204905092915050565b7f5541492063616e6e6f74206265207a65726f0000000000000000000000000000600082015250565b60006155ca601283614da3565b91506155d582615594565b602082019050919050565b600060208201905081810360008301526155f9816155bd565b9050919050565b7f6e65775374617465436f6d6d6974486173682063616e6e6f74206265207a657260008201527f6f00000000000000000000000000000000000000000000000000000000000000602082015250565b600061565c602183614da3565b915061566782615600565b604082019050919050565b6000602082019050818103600083015261568b8161564f565b9050919050565b7f554149206d757374206578697374210000000000000000000000000000000000600082015250565b60006156c8600f83614da3565b91506156d382615692565b602082019050919050565b600060208201905081810360008301526156f7816156bb565b9050919050565b7f45524337323120746f6b656e206d757374206578697374210000000000000000600082015250565b6000615734601883614da3565b915061573f826156fe565b602082019050919050565b6000602082019050818103600083015261576381615727565b9050919050565b7f417373657274696f6e5265676973747279000000000000000000000000000000600082015250565b60006157a0601183614da3565b91506157ab8261576a565b602082019050919050565b600060208201905081810360008301526157cf81615793565b9050919050565b7f5374617465436f6d6d69744861736820616c7265616479206578697374732100600082015250565b600061580c601f83614da3565b9150615817826157d6565b602082019050919050565b6000602082019050818103600083015261583b816157ff565b9050919050565b7f53656e646572206973206e6f74206f776e6572206f6620746865206173736574600082015250565b6000615878602083614da3565b915061588382615842565b602082019050919050565b600060208201905081810360008301526158a78161586b565b9050919050565b7f7374617465436f6d6d6974486173682063616e6e6f74206265207a65726f0000600082015250565b60006158e4601e83614da3565b91506158ef826158ae565b602082019050919050565b60006020820190508181036000830152615913816158d7565b9050919050565b600060408201905061592f60008301856149f8565b61593c60208301846149f8565b9392505050565b7f53656e64657220616c6c6f77616e6365206d75737420626520657175616c207460008201527f6f206f7220686967686572207468616e2063686f73656e20616d6f756e740000602082015250565b600061599f603e83614da3565b91506159aa82615943565b604082019050919050565b600060208201905081810360008301526159ce81615992565b9050919050565b7f53656e6465722062616c616e6365206d75737420626520657175616c20746f2060008201527f6f7220686967686572207468616e2063686f73656e20616d6f756e7421000000602082015250565b6000615a31603d83614da3565b9150615a3c826159d5565b604082019050919050565b60006020820190508181036000830152615a6081615a24565b9050919050565b7f55414920616c7265616479206578697374732100000000000000000000000000600082015250565b6000615a9d601383614da3565b9150615aa882615a67565b602082019050919050565b60006020820190508181036000830152615acc81615a90565b9050919050565b6000606082019050615ae860008301866149f8565b615af560208301856149f8565b615b0260408301846143ee565b949350505050565b6000819050919050565b6000615b2f615b2a615b2584615b0a565b6144e5565b6142da565b9050919050565b615b3f81615b14565b82525050565b6000608082019050615b5a6000830187614422565b615b6760208301866149f8565b615b746040830185615b36565b615b816060830184614422565b95945050505050565b7f5072696365206c696d697420686173206265656e206578636565646564210000600082015250565b6000615bc0601e83614da3565b9150615bcb82615b8a565b602082019050919050565b60006020820190508181036000830152615bef81615bb3565b9050919050565b7f4e6f64652068617320616c726561647920616e7377657265642074686520636860008201527f616c6c656e676521000000000000000000000000000000000000000000000000602082015250565b6000615c52602883614da3565b9150615c5d82615bf6565b604082019050919050565b60006020820190508181036000830152615c8181615c45565b9050919050565b7f436f6e747269627574696f6e2072616e6b20697320746f6f206c6f7700000000600082015250565b6000615cbe601c83614da3565b9150615cc982615c88565b602082019050919050565b60006020820190508181036000830152615ced81615cb1565b9050919050565b6000819050919050565b615d0f615d0a82614418565b615cf4565b82525050565b6000615d218285615cfe565b602082019150615d318284615417565b6020820191508190509392505050565b7f526f6f74206861736820646f65736e2774206d61746368000000000000000000600082015250565b6000615d77601783614da3565b9150615d8282615d41565b602082019050919050565b60006020820190508181036000830152615da681615d6a565b9050919050565b7f4f776e61626c653a206e6577206f776e657220697320746865207a65726f206160008201527f6464726573730000000000000000000000000000000000000000000000000000602082015250565b6000615e09602683614da3565b9150615e1482615dad565b604082019050919050565b60006020820190508181036000830152615e3881615dfc565b9050919050565b6000615e4b8285615cfe565b602082019150615e5b8284614f97565b6014820191508190509392505050565b6000615e76826142da565b9150615e81836142da565b925082615e9157615e90615534565b5b828206905092915050565b6000615ea7826142da565b915060008203615eba57615eb9614e4f565b5b60018203905091905056fea2646970667358221220126b29707a5da6be477b8c69a738de16969f57767d20b6f612161fa3f846e53764736f6c634300080e0033",
  "immutableReferences": {},
  "source": "// SPDX-License-Identifier: MIT\n\npragma solidity ^0.8.0;\n\nimport \"@openzeppelin/contracts/token/ERC20/IERC20.sol\";\nimport \"@openzeppelin/contracts/access/Ownable.sol\";\nimport \"@openzeppelin/contracts/utils/cryptography/MerkleProof.sol\";\nimport \"./AssertionRegistry.sol\";\nimport \"./ERC721Registry.sol\";\nimport \"./Hub.sol\";\nimport \"./Identity.sol\";\nimport \"./storage/ProfileStorage.sol\";\n\n// TODO linked assertions\n// TODO storages\n// TODO contributions\n// TODO challenges\n\ncontract UAIRegistry is Ownable {\n    Hub public hub;\n\n    struct AssetRecord {\n        uint256 creationTimestamp;\n        address controller;\n        bytes32 stateCommitHash;\n        uint256 [] epochs;\n        uint256 size;\n        uint256 priceLimit;\n        bytes32 [][] holderIds;\n        uint256 [][] holderDistances;\n        uint256 [][] holderPrices;\n        uint256 [] holderCount;\n        uint256 stake;\n    }\n\n    mapping(uint256 => AssetRecord) public assetRecords;\n    mapping(bytes32 => uint256) public assetStake;\n\n    mapping(bytes1 => uint) bytesLookup;\n\n    uint256 _numberOfEpochs;\n    uint256 _epochValidityInBlocks;\n    uint256 _blockTime;\n    uint256 _numberOfHolders;\n\n    // events\n    event AssetCreated(uint256 indexed UAI, bytes32 indexed stateCommitHash);\n    event AssetUpdated(uint256 indexed UAI, bytes32 indexed stateCommitHash);\n    event TokensDepositedToAsset(bytes32 indexed UAI, uint256 indexed amount, address indexed depositor);\n\n    constructor(address hubAddress) {\n        require(hubAddress != address(0));\n        hub = Hub(hubAddress);\n\n        bytesLookup[0x00] = 0;\n        bytesLookup[0x01] = 1;\n        bytesLookup[0x02] = 1;\n        bytesLookup[0x03] = 2;\n        bytesLookup[0x04] = 1;\n        bytesLookup[0x05] = 2;\n        bytesLookup[0x06] = 2;\n        bytesLookup[0x07] = 3;\n        bytesLookup[0x08] = 1;\n        bytesLookup[0x09] = 2;\n        bytesLookup[0x0a] = 2;\n        bytesLookup[0x0b] = 3;\n        bytesLookup[0x0c] = 2;\n        bytesLookup[0x0d] = 3;\n        bytesLookup[0x0e] = 3;\n        bytesLookup[0x0f] = 4;\n\n        _numberOfEpochs = 5;\n        _blockTime = 12;\n        _numberOfHolders = 3;\n        _epochValidityInBlocks = 20;\n    }\n\n    function createAsset(bytes32 stateCommitHash, uint256 tokenAmount, uint256 size, uint holdingTimeInSeconds, bytes32 signature) public returns (uint256) {\n        require(stateCommitHash != 0, \"stateCommitHash cannot be zero\");\n        require(AssertionRegistry(hub.getContractAddress(\"AssertionRegistry\")).getAssertionCreationTimestamp(stateCommitHash) == 0, \"StateCommitHash already exists!\");\n\n        IERC20 tokenContract = IERC20(hub.getContractAddress(\"Token\"));\n        require(tokenContract.allowance(msg.sender, address(this)) >= tokenAmount, \"Sender allowance must be equal to or higher than chosen amount\");\n        require(tokenContract.balanceOf(msg.sender) >= tokenAmount, \"Sender balance must be equal to or higher than chosen amount!\");\n\n        // TODO ERC 1155?\n        uint256 UAI = ERC721Registry(hub.getContractAddress(\"ERC721Registry\")).mintUAI(msg.sender);\n        require(assetRecords[UAI].creationTimestamp == 0, \"UAI already exists!\");\n\n        // TODO introduce old holding contract?\n        tokenContract.transferFrom(msg.sender, address(this), tokenAmount);\n        assetRecords[UAI].stake += tokenAmount;\n\n        AssertionRegistry(hub.getContractAddress(\"AssertionRegistry\")).createAssertionRecord(stateCommitHash, msg.sender, 1, signature);\n\n        // TODO reference na AssertionRegistry entry\n        assetRecords[UAI].stateCommitHash = stateCommitHash;\n        assetRecords[UAI].creationTimestamp = block.timestamp;\n        assetRecords[UAI].size = size;\n\n        assetRecords[UAI].epochs = generateEpochs(block.number, _numberOfEpochs, _blockTime, holdingTimeInSeconds);\n        assetRecords[UAI].priceLimit = tokenAmount / _numberOfEpochs / _numberOfHolders;\n\n        assetRecords[UAI].holderIds = new bytes32[][](5);\n        assetRecords[UAI].holderDistances = new uint256[][](5);\n        assetRecords[UAI].holderPrices = new uint256[][](5);\n        assetRecords[UAI].holderCount = new uint256[](5);\n        for (uint i = 0; i < 5; i++) {\n            assetRecords[UAI].holderIds[i] = new bytes32[](3);\n            assetRecords[UAI].holderDistances[i] = new uint256[](3);\n            assetRecords[UAI].holderPrices[i] = new uint256[](3);\n            assetRecords[UAI].holderCount[i] = 0;\n        }\n\n        emit AssetCreated(UAI, stateCommitHash);\n\n        return UAI;\n    }\n\n    function generateEpochs(uint blockNumber, uint256 numberOfEpochs, uint256 blockTime, uint256 holdingTimeInSeconds) public pure returns (uint256 [] memory) {\n        uint256 [] memory epochs = new uint256[](numberOfEpochs + 1);\n        for (uint i = 0; i < numberOfEpochs + 1; i++) {\n            epochs[i] = blockNumber + i * holdingTimeInSeconds / blockTime / numberOfEpochs;\n        }\n\n        return epochs;\n    }\n\n    function getEpochs(uint256 UAI) public view returns (uint256 [] memory) {\n        return assetRecords[UAI].epochs;\n    }\n\n    function getEpoch(uint256 UAI) public view returns (uint) {\n        uint i;\n        require(block.number >= assetRecords[UAI].epochs[0] && block.number <= assetRecords[UAI].epochs[assetRecords[UAI].epochs.length - 1], \"UAI has expired.\");\n        for (i = 1; i < assetRecords[UAI].epochs.length - 1; i++) {\n            if (block.number < assetRecords[UAI].epochs[i]) {\n                return i - 1;\n            }\n        }\n\n        return i - 1;\n    }\n\n    function getEpoch(uint256 UAI, uint256 blockNumber) public view returns (uint256) {\n        uint i;\n        require(block.number >= assetRecords[UAI].epochs[0] && block.number <= assetRecords[UAI].epochs[assetRecords[UAI].epochs.length - 1], \"UAI has expired.\");\n        for (i = 1; i < assetRecords[UAI].epochs.length - 1; i++) {\n            if (blockNumber < assetRecords[UAI].epochs[i]) {\n                return i - 1;\n            }\n        }\n\n        return i - 1;\n    }\n\n    function isEpochActive(uint256 UAI, uint256 epoch) public view returns (bool) {\n        if (assetRecords[UAI].epochs.length - 1 > epoch) {\n            if (assetRecords[UAI].epochs[epoch] <= block.number && assetRecords[UAI].epochs[epoch] + _epochValidityInBlocks >= block.number) {\n                return true;\n            }\n        }\n        return false;\n    }\n\n    function hammingDistance(bytes32 x, bytes32 y) public view returns (uint) {\n        bytes32 xor = x ^ y;\n        uint distance = 0;\n        for (uint i = 0; i < xor.length; i++) {\n            distance += bytesLookup[xor[i] >> 4];\n            distance += bytesLookup[(xor[i] << 4) >> 4];\n        }\n\n        return distance;\n    }\n\n    function getChallenge(uint256 UAI, uint256 blockNumber, address identity) public view returns (uint256) {\n        uint256 epoch = getEpoch(UAI, blockNumber);\n        bool isActive = isEpochActive(UAI, epoch);\n\n        if (isActive) {\n            return calculateChallenge(UAI, blockNumber, identity);\n        } else {\n            return 0;\n        }\n    }\n\n    function calculateChallenge(uint256 UAI, uint256 blockNumber, address identity) public view returns (uint256) {\n        require(ERC734(identity).keyHasPurpose(keccak256(abi.encodePacked(msg.sender)), 2), \"Sender does not have action permission for identity!\");\n        return uint256(sha256(abi.encodePacked(blockhash(blockNumber), identity))) % assetRecords[UAI].size;\n    }\n\n\n    function getContributionRank(uint256 UAI, uint256 epoch, address identity) public view returns (uint256) {\n        ProfileStorage profileStorage = ProfileStorage(hub.getContractAddress(\"ProfileStorage\"));\n        bytes32 nodeId = profileStorage.getNodeId(identity);\n        uint256 distance = hammingDistance(nodeId, sha256(abi.encodePacked(UAI)));\n        uint i;\n        for (i = 0; i < assetRecords[UAI].holderCount[epoch]; i++) {\n            if (assetRecords[UAI].holderDistances[epoch][i] > distance)\n            {\n                return i;\n            }\n        }\n        return i;\n    }\n\n    function getContributors(uint256 UAI) public view returns (bytes32 [][] memory, uint256[][] memory, uint256[][] memory, uint256 [] memory) {\n        return (assetRecords[UAI].holderIds, assetRecords[UAI].holderDistances, assetRecords[UAI].holderPrices, assetRecords[UAI].holderCount);\n    }\n\n\n    function addContributor(uint256 UAI, uint256 epoch, uint rank, uint256 price, address identity) internal {\n        uint256 length = assetRecords[UAI].holderCount[epoch];\n        for (uint i = length; i >= rank + 1; i--) {\n            if (i == 3) {\n                continue;\n            }\n            assetRecords[UAI].holderIds[epoch][i] = assetRecords[UAI].holderIds[epoch][i - 1];\n            assetRecords[UAI].holderDistances[epoch][i] = assetRecords[UAI].holderDistances[epoch][i - 1];\n            assetRecords[UAI].holderPrices[epoch][i] = assetRecords[UAI].holderPrices[epoch][i - 1];\n        }\n\n        ProfileStorage profileStorage = ProfileStorage(hub.getContractAddress(\"ProfileStorage\"));\n        bytes32 nodeId = profileStorage.getNodeId(identity);\n\n        assetRecords[UAI].holderIds[epoch][rank] = nodeId;\n        assetRecords[UAI].holderDistances[epoch][rank] = hammingDistance(nodeId, sha256(abi.encodePacked(UAI)));\n        assetRecords[UAI].holderPrices[epoch][rank] = price;\n\n        if (length < 3) {\n            assetRecords[UAI].holderCount[epoch] += 1;\n        }\n    }\n\n    function answerChallenge(uint256 UAI, uint256 blockNumber, bytes32 [] memory proof, bytes32 leaf, uint256 price, address identity) public {\n        require(ERC721Registry(hub.getContractAddress(\"ERC721Registry\")).exists(UAI) == true, \"ERC721 token doesn't exist!\");\n        require(price <= assetRecords[UAI].priceLimit, \"Price limit has been exceeded!\");\n        require(ERC721Registry(hub.getContractAddress(\"ERC721Registry\")).exists(UAI) == true, \"ERC721 token doesn't exist!\");\n        require(ERC734(identity).keyHasPurpose(keccak256(abi.encodePacked(msg.sender)), 2), \"Sender does not have action permission for identity!\");\n\n        uint256 epoch = getEpoch(UAI, blockNumber);\n        bool isActive = isEpochActive(UAI, epoch);\n\n        require(isActive);\n\n        // TODO Bid with lower price\n        ProfileStorage profileStorage = ProfileStorage(hub.getContractAddress(\"ProfileStorage\"));\n        bytes32 nodeId = profileStorage.getNodeId(identity);\n        for (uint256 i = 0; i < assetRecords[UAI].holderCount[epoch]; i++) {\n            require(nodeId != assetRecords[UAI].holderIds[epoch][i], \"Node has already answered the challenge!\");\n        }\n\n        uint256 challenge = calculateChallenge(UAI, blockNumber, identity);\n        uint256 rank = getContributionRank(UAI, epoch, identity);\n        // 0, 1, 2, 3\n        require(rank < 3, \"Contribution rank is too low\");\n\n        require(MerkleProof.verify(proof, assetRecords[UAI].stateCommitHash, keccak256(abi.encodePacked(leaf, challenge))), \"Root hash doesn't match\");\n        addContributor(UAI, epoch, rank, price, identity);\n    }\n\n\n    function getReward(uint256 UAI, uint256 epoch, address identity) public {\n        require(ERC734(identity).keyHasPurpose(keccak256(abi.encodePacked(msg.sender)), 2), \"Sender does not have action permission for identity!\");\n        require(ERC721Registry(hub.getContractAddress(\"ERC721Registry\")).exists(UAI) == true, \"ERC721 token doesn't exist!\");\n\n        bool isActive = isEpochActive(UAI, epoch);\n\n        require(isActive == false);\n\n        ProfileStorage profileStorage = ProfileStorage(hub.getContractAddress(\"ProfileStorage\"));\n        bytes32 nodeId = profileStorage.getNodeId(identity);\n\n        for (uint i = 0; i < assetRecords[UAI].holderCount[epoch]; i++) {\n            if (assetRecords[UAI].holderIds[epoch][i] == nodeId) {\n                uint256 amount = assetRecords[UAI].holderPrices[epoch][i];\n                require(amount > 0);\n                assetRecords[UAI].holderPrices[epoch][i] = 0;\n                assetRecords[UAI].stake -= amount;\n                profileStorage.setStake(identity, profileStorage.getStake(identity) + amount);\n                IERC20 tokenContract = IERC20(hub.getContractAddress(\"Token\"));\n                //                require(tokenContract.allowance(msg.sender, address(this)) >= tokenAmount, \"Sender allowance must be equal to or higher than chosen amount\");\n                //                require(tokenContract.balanceOf(msg.sender) >= tokenAmount, \"Sender balance must be equal to or higher than chosen amount!\");\n                tokenContract.transfer(hub.getContractAddress(\"ProfileStorage\"), amount);\n\n                break;\n            }\n        }\n    }\n\n\n    function updateAsset(uint256 UAI, bytes32 newStateCommitHash) public returns (uint256) {\n        require(UAI != 0, \"UAI cannot be zero\");\n        require(newStateCommitHash != 0, \"newStateCommitHash cannot be zero\");\n        require(assetRecords[UAI].creationTimestamp != 0, \"UAI must exist!\");\n        require(ERC721Registry(hub.getContractAddress(\"ERC721Registry\")).exists(UAI) == true, \"ERC721 token must exist!\");\n        require(AssertionRegistry(hub.getContractAddress(\"AssertionRegistry\")).getAssertionCreationTimestamp(newStateCommitHash) == 0, \"StateCommitHash already exists!\");\n\n        require(ERC721Registry(hub.getContractAddress(\"ERC721Registry\")).ownerOf(UAI) == msg.sender, \"Sender is not owner of the asset\");\n\n//        AssertionRegistry(hub.getContractAddress(\"AssertionRegistry\")).createAssertionRecord(newStateCommitHash, msg.sender, 1);\n        // todo: update when AssertionRegistry is updated\n        assetRecords[UAI].stateCommitHash = newStateCommitHash;\n        // todo: store old commits later\n\n        emit AssetUpdated(UAI, newStateCommitHash);\n\n        return UAI;\n    }\n\n    // getters\n    function getAssetStateCommitHash(uint256 UAI) public view returns (bytes32 stateCommitHash){\n        return assetRecords[UAI].stateCommitHash;\n    }\n\n    function getAssetOwner(uint256 UAI) public view returns (address owner){\n        return ERC721Registry(hub.getContractAddress(\"ERC721Registry\")).ownerOf(UAI);\n    }\n\n    function getAssetCreationTimestamp(uint256 UAI) public view returns (uint256 creationTimestamp){\n        return assetRecords[UAI].creationTimestamp;\n    }\n\n    function getNumberOfEpochs() public view returns (uint256) {\n        return _numberOfEpochs;\n    }\n\n    function setNumberOfEpochs(uint256 numberOfEpochs) public onlyOwner {\n        _numberOfEpochs = numberOfEpochs;\n    }\n\n    function getBlockTime() public view returns (uint256) {\n        return _blockTime;\n    }\n\n    function setBlockTime(uint256 blockTime) public onlyOwner {\n        _blockTime = blockTime;\n    }\n\n    function getNumberOfHolders() public view returns (uint256) {\n        return _numberOfHolders;\n    }\n\n    function setNumberOfHolders(uint256 numberOfHolders) public onlyOwner {\n        _numberOfHolders = numberOfHolders;\n    }\n\n    function getEpochValidityInBlocks() public view returns (uint256) {\n        return _epochValidityInBlocks;\n    }\n\n    function setEpochValidityInBlocks(uint256 epochValidityInBlocks) public onlyOwner {\n        _epochValidityInBlocks = epochValidityInBlocks;\n    }\n}",
  "sourcePath": "/Users/miloskotlar/dkg-onchain-module-v6/contracts/UAIRegistry.sol",
  "compiler": {
    "name": "solc",
    "version": "0.8.14+commit.80d49f37.Emscripten.clang"
  },
  "schemaVersion": "3.4.3",
  "updatedAt": "2022-06-29T08:34:14.354Z",
  "networkType": "ethereum",
  "devdoc": {
    "kind": "dev",
    "methods": {
      "owner()": {
        "details": "Returns the address of the current owner."
      },
      "renounceOwnership()": {
        "details": "Leaves the contract without owner. It will not be possible to call `onlyOwner` functions anymore. Can only be called by the current owner. NOTE: Renouncing ownership will leave the contract without an owner, thereby removing any functionality that is only available to the owner."
      },
      "transferOwnership(address)": {
        "details": "Transfers ownership of the contract to a new account (`newOwner`). Can only be called by the current owner."
      }
    },
    "version": 1
  },
  "userdoc": {
    "kind": "user",
    "methods": {},
    "version": 1
  }
}