{
  "contractName": "UAIRegistry",
  "abi": [
    {
      "inputs": [
        {
          "internalType": "address",
          "name": "hubAddress",
          "type": "address"
        }
      ],
      "stateMutability": "nonpayable",
      "type": "constructor"
    },
    {
      "anonymous": false,
      "inputs": [
        {
          "indexed": true,
          "internalType": "address",
          "name": "owner",
          "type": "address"
        },
        {
          "indexed": true,
          "internalType": "address",
          "name": "approved",
          "type": "address"
        },
        {
          "indexed": true,
          "internalType": "uint256",
          "name": "tokenId",
          "type": "uint256"
        }
      ],
      "name": "Approval",
      "type": "event"
    },
    {
      "anonymous": false,
      "inputs": [
        {
          "indexed": true,
          "internalType": "address",
          "name": "owner",
          "type": "address"
        },
        {
          "indexed": true,
          "internalType": "address",
          "name": "operator",
          "type": "address"
        },
        {
          "indexed": false,
          "internalType": "bool",
          "name": "approved",
          "type": "bool"
        }
      ],
      "name": "ApprovalForAll",
      "type": "event"
    },
    {
      "anonymous": false,
      "inputs": [
        {
          "indexed": true,
          "internalType": "address",
          "name": "previousOwner",
          "type": "address"
        },
        {
          "indexed": true,
          "internalType": "address",
          "name": "newOwner",
          "type": "address"
        }
      ],
      "name": "OwnershipTransferred",
      "type": "event"
    },
    {
      "anonymous": false,
      "inputs": [
        {
          "indexed": true,
          "internalType": "bytes32",
          "name": "role",
          "type": "bytes32"
        },
        {
          "indexed": true,
          "internalType": "bytes32",
          "name": "previousAdminRole",
          "type": "bytes32"
        },
        {
          "indexed": true,
          "internalType": "bytes32",
          "name": "newAdminRole",
          "type": "bytes32"
        }
      ],
      "name": "RoleAdminChanged",
      "type": "event"
    },
    {
      "anonymous": false,
      "inputs": [
        {
          "indexed": true,
          "internalType": "bytes32",
          "name": "role",
          "type": "bytes32"
        },
        {
          "indexed": true,
          "internalType": "address",
          "name": "account",
          "type": "address"
        },
        {
          "indexed": true,
          "internalType": "address",
          "name": "sender",
          "type": "address"
        }
      ],
      "name": "RoleGranted",
      "type": "event"
    },
    {
      "anonymous": false,
      "inputs": [
        {
          "indexed": true,
          "internalType": "bytes32",
          "name": "role",
          "type": "bytes32"
        },
        {
          "indexed": true,
          "internalType": "address",
          "name": "account",
          "type": "address"
        },
        {
          "indexed": true,
          "internalType": "address",
          "name": "sender",
          "type": "address"
        }
      ],
      "name": "RoleRevoked",
      "type": "event"
    },
    {
      "anonymous": false,
      "inputs": [
        {
          "indexed": true,
          "internalType": "address",
          "name": "from",
          "type": "address"
        },
        {
          "indexed": true,
          "internalType": "address",
          "name": "to",
          "type": "address"
        },
        {
          "indexed": true,
          "internalType": "uint256",
          "name": "tokenId",
          "type": "uint256"
        }
      ],
      "name": "Transfer",
      "type": "event"
    },
    {
      "inputs": [],
      "name": "DEFAULT_ADMIN_ROLE",
      "outputs": [
        {
          "internalType": "bytes32",
          "name": "",
          "type": "bytes32"
        }
      ],
      "stateMutability": "view",
      "type": "function",
      "constant": true
    },
    {
      "inputs": [],
      "name": "MINTER_ROLE",
      "outputs": [
        {
          "internalType": "bytes32",
          "name": "",
          "type": "bytes32"
        }
      ],
      "stateMutability": "view",
      "type": "function",
      "constant": true
    },
    {
      "inputs": [
        {
          "internalType": "address",
          "name": "to",
          "type": "address"
        },
        {
          "internalType": "uint256",
          "name": "tokenId",
          "type": "uint256"
        }
      ],
      "name": "approve",
      "outputs": [],
      "stateMutability": "nonpayable",
      "type": "function"
    },
    {
      "inputs": [
        {
          "internalType": "address",
          "name": "owner",
          "type": "address"
        }
      ],
      "name": "balanceOf",
      "outputs": [
        {
          "internalType": "uint256",
          "name": "",
          "type": "uint256"
        }
      ],
      "stateMutability": "view",
      "type": "function",
      "constant": true
    },
    {
      "inputs": [
        {
          "internalType": "uint256",
          "name": "tokenId",
          "type": "uint256"
        }
      ],
      "name": "getApproved",
      "outputs": [
        {
          "internalType": "address",
          "name": "",
          "type": "address"
        }
      ],
      "stateMutability": "view",
      "type": "function",
      "constant": true
    },
    {
      "inputs": [
        {
          "internalType": "bytes32",
          "name": "role",
          "type": "bytes32"
        }
      ],
      "name": "getRoleAdmin",
      "outputs": [
        {
          "internalType": "bytes32",
          "name": "",
          "type": "bytes32"
        }
      ],
      "stateMutability": "view",
      "type": "function",
      "constant": true
    },
    {
      "inputs": [
        {
          "internalType": "bytes32",
          "name": "role",
          "type": "bytes32"
        },
        {
          "internalType": "address",
          "name": "account",
          "type": "address"
        }
      ],
      "name": "grantRole",
      "outputs": [],
      "stateMutability": "nonpayable",
      "type": "function"
    },
    {
      "inputs": [
        {
          "internalType": "bytes32",
          "name": "role",
          "type": "bytes32"
        },
        {
          "internalType": "address",
          "name": "account",
          "type": "address"
        }
      ],
      "name": "hasRole",
      "outputs": [
        {
          "internalType": "bool",
          "name": "",
          "type": "bool"
        }
      ],
      "stateMutability": "view",
      "type": "function",
      "constant": true
    },
    {
      "inputs": [],
      "name": "hub",
      "outputs": [
        {
          "internalType": "contract Hub",
          "name": "",
          "type": "address"
        }
      ],
      "stateMutability": "view",
      "type": "function",
      "constant": true
    },
    {
      "inputs": [
        {
          "internalType": "address",
          "name": "owner",
          "type": "address"
        },
        {
          "internalType": "address",
          "name": "operator",
          "type": "address"
        }
      ],
      "name": "isApprovedForAll",
      "outputs": [
        {
          "internalType": "bool",
          "name": "",
          "type": "bool"
        }
      ],
      "stateMutability": "view",
      "type": "function",
      "constant": true
    },
    {
      "inputs": [],
      "name": "name",
      "outputs": [
        {
          "internalType": "string",
          "name": "",
          "type": "string"
        }
      ],
      "stateMutability": "view",
      "type": "function",
      "constant": true
    },
    {
      "inputs": [],
      "name": "owner",
      "outputs": [
        {
          "internalType": "address",
          "name": "",
          "type": "address"
        }
      ],
      "stateMutability": "view",
      "type": "function",
      "constant": true
    },
    {
      "inputs": [
        {
          "internalType": "uint256",
          "name": "tokenId",
          "type": "uint256"
        }
      ],
      "name": "ownerOf",
      "outputs": [
        {
          "internalType": "address",
          "name": "",
          "type": "address"
        }
      ],
      "stateMutability": "view",
      "type": "function",
      "constant": true
    },
    {
      "inputs": [],
      "name": "renounceOwnership",
      "outputs": [],
      "stateMutability": "nonpayable",
      "type": "function"
    },
    {
      "inputs": [
        {
          "internalType": "bytes32",
          "name": "role",
          "type": "bytes32"
        },
        {
          "internalType": "address",
          "name": "account",
          "type": "address"
        }
      ],
      "name": "renounceRole",
      "outputs": [],
      "stateMutability": "nonpayable",
      "type": "function"
    },
    {
      "inputs": [
        {
          "internalType": "bytes32",
          "name": "role",
          "type": "bytes32"
        },
        {
          "internalType": "address",
          "name": "account",
          "type": "address"
        }
      ],
      "name": "revokeRole",
      "outputs": [],
      "stateMutability": "nonpayable",
      "type": "function"
    },
    {
      "inputs": [
        {
          "internalType": "address",
          "name": "from",
          "type": "address"
        },
        {
          "internalType": "address",
          "name": "to",
          "type": "address"
        },
        {
          "internalType": "uint256",
          "name": "tokenId",
          "type": "uint256"
        }
      ],
      "name": "safeTransferFrom",
      "outputs": [],
      "stateMutability": "nonpayable",
      "type": "function"
    },
    {
      "inputs": [
        {
          "internalType": "address",
          "name": "from",
          "type": "address"
        },
        {
          "internalType": "address",
          "name": "to",
          "type": "address"
        },
        {
          "internalType": "uint256",
          "name": "tokenId",
          "type": "uint256"
        },
        {
          "internalType": "bytes",
          "name": "_data",
          "type": "bytes"
        }
      ],
      "name": "safeTransferFrom",
      "outputs": [],
      "stateMutability": "nonpayable",
      "type": "function"
    },
    {
      "inputs": [
        {
          "internalType": "address",
          "name": "operator",
          "type": "address"
        },
        {
          "internalType": "bool",
          "name": "approved",
          "type": "bool"
        }
      ],
      "name": "setApprovalForAll",
      "outputs": [],
      "stateMutability": "nonpayable",
      "type": "function"
    },
    {
      "inputs": [],
      "name": "symbol",
      "outputs": [
        {
          "internalType": "string",
          "name": "",
          "type": "string"
        }
      ],
      "stateMutability": "view",
      "type": "function",
      "constant": true
    },
    {
      "inputs": [
        {
          "internalType": "uint256",
          "name": "tokenId",
          "type": "uint256"
        }
      ],
      "name": "tokenURI",
      "outputs": [
        {
          "internalType": "string",
          "name": "",
          "type": "string"
        }
      ],
      "stateMutability": "view",
      "type": "function",
      "constant": true
    },
    {
      "inputs": [
        {
          "internalType": "address",
          "name": "from",
          "type": "address"
        },
        {
          "internalType": "address",
          "name": "to",
          "type": "address"
        },
        {
          "internalType": "uint256",
          "name": "tokenId",
          "type": "uint256"
        }
      ],
      "name": "transferFrom",
      "outputs": [],
      "stateMutability": "nonpayable",
      "type": "function"
    },
    {
      "inputs": [
        {
          "internalType": "address",
          "name": "newOwner",
          "type": "address"
        }
      ],
      "name": "transferOwnership",
      "outputs": [],
      "stateMutability": "nonpayable",
      "type": "function"
    },
    {
      "inputs": [
        {
          "internalType": "address",
          "name": "minter",
          "type": "address"
        }
      ],
      "name": "setupRole",
      "outputs": [],
      "stateMutability": "nonpayable",
      "type": "function"
    },
    {
      "inputs": [
        {
          "internalType": "string",
          "name": "URI",
          "type": "string"
        }
      ],
      "name": "setBaseURI",
      "outputs": [],
      "stateMutability": "nonpayable",
      "type": "function"
    },
    {
      "inputs": [
        {
          "internalType": "address",
          "name": "to",
          "type": "address"
        }
      ],
      "name": "mintUAI",
      "outputs": [
        {
          "internalType": "uint256",
          "name": "",
          "type": "uint256"
        }
      ],
      "stateMutability": "nonpayable",
      "type": "function"
    },
    {
      "inputs": [
        {
          "internalType": "address",
          "name": "from",
          "type": "address"
        },
        {
          "internalType": "address",
          "name": "to",
          "type": "address"
        },
        {
          "internalType": "uint256",
          "name": "_tokenId",
          "type": "uint256"
        }
      ],
      "name": "transfer",
      "outputs": [],
      "stateMutability": "nonpayable",
      "type": "function"
    },
    {
      "inputs": [
        {
          "internalType": "uint256",
          "name": "_tokenId",
          "type": "uint256"
        }
      ],
      "name": "exists",
      "outputs": [
        {
          "internalType": "bool",
          "name": "",
          "type": "bool"
        }
      ],
      "stateMutability": "view",
      "type": "function",
      "constant": true
    },
    {
      "inputs": [
        {
          "internalType": "bytes4",
          "name": "interfaceId",
          "type": "bytes4"
        }
      ],
      "name": "supportsInterface",
      "outputs": [
        {
          "internalType": "bool",
          "name": "",
          "type": "bool"
        }
      ],
      "stateMutability": "view",
      "type": "function",
      "constant": true
    }
  ],
  "bytecode": "0x60806040523480156200001157600080fd5b50604051620041ad380380620041ad833981810160405281019062000037919062000468565b6040518060400160405280601081526020017f444b4720417373657420477261706873000000000000000000000000000000008152506040518060400160405280600381526020017f444b4700000000000000000000000000000000000000000000000000000000008152508160009080519060200190620000bb9291906200034e565b508060019080519060200190620000d49291906200034e565b505050620000f7620000eb620001ab60201b60201c565b620001b360201b60201c565b600073ffffffffffffffffffffffffffffffffffffffff168173ffffffffffffffffffffffffffffffffffffffff16036200013157600080fd5b80600860006101000a81548173ffffffffffffffffffffffffffffffffffffffff021916908373ffffffffffffffffffffffffffffffffffffffff1602179055506200019c6040518060600160405280603381526020016200417a603391396200027960201b60201c565b6000600a819055505062000581565b600033905090565b6000600760009054906101000a900473ffffffffffffffffffffffffffffffffffffffff16905081600760006101000a81548173ffffffffffffffffffffffffffffffffffffffff021916908373ffffffffffffffffffffffffffffffffffffffff1602179055508173ffffffffffffffffffffffffffffffffffffffff168173ffffffffffffffffffffffffffffffffffffffff167f8be0079c531659141344cd1fd0a4f28419497f9722a3daafe3b4186f6b6457e060405160405180910390a35050565b62000289620001ab60201b60201c565b73ffffffffffffffffffffffffffffffffffffffff16620002af6200032460201b60201c565b73ffffffffffffffffffffffffffffffffffffffff161462000308576040517f08c379a0000000000000000000000000000000000000000000000000000000008152600401620002ff90620004fb565b60405180910390fd5b8060099080519060200190620003209291906200034e565b5050565b6000600760009054906101000a900473ffffffffffffffffffffffffffffffffffffffff16905090565b8280546200035c906200054c565b90600052602060002090601f016020900481019282620003805760008555620003cc565b82601f106200039b57805160ff1916838001178555620003cc565b82800160010185558215620003cc579182015b82811115620003cb578251825591602001919060010190620003ae565b5b509050620003db9190620003df565b5090565b5b80821115620003fa576000816000905550600101620003e0565b5090565b600080fd5b600073ffffffffffffffffffffffffffffffffffffffff82169050919050565b6000620004308262000403565b9050919050565b620004428162000423565b81146200044e57600080fd5b50565b600081519050620004628162000437565b92915050565b600060208284031215620004815762000480620003fe565b5b6000620004918482850162000451565b91505092915050565b600082825260208201905092915050565b7f4f776e61626c653a2063616c6c6572206973206e6f7420746865206f776e6572600082015250565b6000620004e36020836200049a565b9150620004f082620004ab565b602082019050919050565b600060208201905081810360008301526200051681620004d4565b9050919050565b7f4e487b7100000000000000000000000000000000000000000000000000000000600052602260045260246000fd5b600060028204905060018216806200056557607f821691505b6020821081036200057b576200057a6200051d565b5b50919050565b613be980620005916000396000f3fe608060405234801561001057600080fd5b50600436106101cf5760003560e01c8063715018a611610104578063b88d4fde116100a2578063d539139311610071578063d53913931461053c578063d547741f1461055a578063e985e9c514610576578063f2fde38b146105a6576101cf565b8063b88d4fde146104b8578063beabacc8146104d4578063c28637ac146104f0578063c87b56dd1461050c576101cf565b806395d89b41116100de57806395d89b4114610430578063a217fddf1461044e578063a22cb4651461046c578063a61788ba14610488576101cf565b8063715018a6146103d85780638da5cb5b146103e257806391d1485414610400576101cf565b806336568abe116101715780634f558e791161014b5780634f558e791461032c57806355f804b31461035c5780636352211e1461037857806370a08231146103a8576101cf565b806336568abe146102d6578063365a86fc146102f257806342842e0e14610310576101cf565b8063095ea7b3116101ad578063095ea7b31461025257806323b872dd1461026e578063248a9ca31461028a5780632f2ff15d146102ba576101cf565b806301ffc9a7146101d457806306fdde0314610204578063081812fc14610222575b600080fd5b6101ee60048036038101906101e99190612580565b6105c2565b6040516101fb91906125c8565b60405180910390f35b61020c6105d4565b604051610219919061267c565b60405180910390f35b61023c600480360381019061023791906126d4565b610666565b6040516102499190612742565b60405180910390f35b61026c60048036038101906102679190612789565b6106eb565b005b610288600480360381019061028391906127c9565b610802565b005b6102a4600480360381019061029f9190612852565b610862565b6040516102b1919061288e565b60405180910390f35b6102d460048036038101906102cf91906128a9565b610882565b005b6102f060048036038101906102eb91906128a9565b6108a3565b005b6102fa610926565b6040516103079190612948565b60405180910390f35b61032a600480360381019061032591906127c9565b61094c565b005b610346600480360381019061034191906126d4565b61096c565b60405161035391906125c8565b60405180910390f35b61037660048036038101906103719190612a98565b61097e565b005b610392600480360381019061038d91906126d4565b610a14565b60405161039f9190612742565b60405180910390f35b6103c260048036038101906103bd9190612ae1565b610ac5565b6040516103cf9190612b1d565b60405180910390f35b6103e0610b7c565b005b6103ea610c04565b6040516103f79190612742565b60405180910390f35b61041a600480360381019061041591906128a9565b610c2e565b60405161042791906125c8565b60405180910390f35b610438610c99565b604051610445919061267c565b60405180910390f35b610456610d2b565b604051610463919061288e565b60405180910390f35b61048660048036038101906104819190612b64565b610d32565b005b6104a2600480360381019061049d9190612ae1565b610d48565b6040516104af9190612b1d565b60405180910390f35b6104d260048036038101906104cd9190612c45565b610ddd565b005b6104ee60048036038101906104e991906127c9565b610e3f565b005b61050a60048036038101906105059190612ae1565b610e4f565b005b610526600480360381019061052191906126d4565b610ef8565b604051610533919061267c565b60405180910390f35b610544610f9f565b604051610551919061288e565b60405180910390f35b610574600480360381019061056f91906128a9565b610fc3565b005b610590600480360381019061058b9190612cc8565b610fe4565b60405161059d91906125c8565b60405180910390f35b6105c060048036038101906105bb9190612ae1565b611078565b005b60006105cd8261116f565b9050919050565b6060600080546105e390612d37565b80601f016020809104026020016040519081016040528092919081815260200182805461060f90612d37565b801561065c5780601f106106315761010080835404028352916020019161065c565b820191906000526020600020905b81548152906001019060200180831161063f57829003601f168201915b5050505050905090565b6000610671826111e9565b6106b0576040517f08c379a00000000000000000000000000000000000000000000000000000000081526004016106a790612dda565b60405180910390fd5b6004600083815260200190815260200160002060009054906101000a900473ffffffffffffffffffffffffffffffffffffffff169050919050565b60006106f682610a14565b90508073ffffffffffffffffffffffffffffffffffffffff168373ffffffffffffffffffffffffffffffffffffffff1603610766576040517f08c379a000000000000000000000000000000000000000000000000000000000815260040161075d90612e6c565b60405180910390fd5b8073ffffffffffffffffffffffffffffffffffffffff16610785611255565b73ffffffffffffffffffffffffffffffffffffffff1614806107b457506107b3816107ae611255565b610fe4565b5b6107f3576040517f08c379a00000000000000000000000000000000000000000000000000000000081526004016107ea90612efe565b60405180910390fd5b6107fd838361125d565b505050565b61081361080d611255565b82611316565b610852576040517f08c379a000000000000000000000000000000000000000000000000000000000815260040161084990612f90565b60405180910390fd5b61085d8383836113f4565b505050565b600060066000838152602001908152602001600020600101549050919050565b61088b82610862565b6108948161165a565b61089e838361166e565b505050565b6108ab611255565b73ffffffffffffffffffffffffffffffffffffffff168173ffffffffffffffffffffffffffffffffffffffff1614610918576040517f08c379a000000000000000000000000000000000000000000000000000000000815260040161090f90613022565b60405180910390fd5b610922828261174f565b5050565b600860009054906101000a900473ffffffffffffffffffffffffffffffffffffffff1681565b61096783838360405180602001604052806000815250610ddd565b505050565b6000610977826111e9565b9050919050565b610986611255565b73ffffffffffffffffffffffffffffffffffffffff166109a4610c04565b73ffffffffffffffffffffffffffffffffffffffff16146109fa576040517f08c379a00000000000000000000000000000000000000000000000000000000081526004016109f19061308e565b60405180910390fd5b8060099080519060200190610a10929190612471565b5050565b6000806002600084815260200190815260200160002060009054906101000a900473ffffffffffffffffffffffffffffffffffffffff169050600073ffffffffffffffffffffffffffffffffffffffff168173ffffffffffffffffffffffffffffffffffffffff1603610abc576040517f08c379a0000000000000000000000000000000000000000000000000000000008152600401610ab390613120565b60405180910390fd5b80915050919050565b60008073ffffffffffffffffffffffffffffffffffffffff168273ffffffffffffffffffffffffffffffffffffffff1603610b35576040517f08c379a0000000000000000000000000000000000000000000000000000000008152600401610b2c906131b2565b60405180910390fd5b600360008373ffffffffffffffffffffffffffffffffffffffff1673ffffffffffffffffffffffffffffffffffffffff168152602001908152602001600020549050919050565b610b84611255565b73ffffffffffffffffffffffffffffffffffffffff16610ba2610c04565b73ffffffffffffffffffffffffffffffffffffffff1614610bf8576040517f08c379a0000000000000000000000000000000000000000000000000000000008152600401610bef9061308e565b60405180910390fd5b610c026000611831565b565b6000600760009054906101000a900473ffffffffffffffffffffffffffffffffffffffff16905090565b60006006600084815260200190815260200160002060000160008373ffffffffffffffffffffffffffffffffffffffff1673ffffffffffffffffffffffffffffffffffffffff16815260200190815260200160002060009054906101000a900460ff16905092915050565b606060018054610ca890612d37565b80601f0160208091040260200160405190810160405280929190818152602001828054610cd490612d37565b8015610d215780601f10610cf657610100808354040283529160200191610d21565b820191906000526020600020905b815481529060010190602001808311610d0457829003601f168201915b5050505050905090565b6000801b81565b610d44610d3d611255565b83836118f7565b5050565b6000610d747f9f2df0fed2c77648de5860a4cc508cd0818c85b8b8a1ab4ceeef8d981c8956a633610c2e565b610db3576040517f08c379a0000000000000000000000000000000000000000000000000000000008152600401610daa9061321e565b60405180910390fd5b610dbf82600a54611a63565b600a6000815480929190610dd29061326d565b919050559050919050565b610dee610de8611255565b83611316565b610e2d576040517f08c379a0000000000000000000000000000000000000000000000000000000008152600401610e2490612f90565b60405180910390fd5b610e3984848484611c3c565b50505050565b610e4a8383836113f4565b505050565b610e57611255565b73ffffffffffffffffffffffffffffffffffffffff16610e75610c04565b73ffffffffffffffffffffffffffffffffffffffff1614610ecb576040517f08c379a0000000000000000000000000000000000000000000000000000000008152600401610ec29061308e565b60405180910390fd5b610ef57f9f2df0fed2c77648de5860a4cc508cd0818c85b8b8a1ab4ceeef8d981c8956a682611c98565b50565b6060610f03826111e9565b610f42576040517f08c379a0000000000000000000000000000000000000000000000000000000008152600401610f3990613327565b60405180910390fd5b6000610f4c611ca6565b90506000815111610f6c5760405180602001604052806000815250610f97565b80610f7684611d38565b604051602001610f87929190613383565b6040516020818303038152906040525b915050919050565b7f9f2df0fed2c77648de5860a4cc508cd0818c85b8b8a1ab4ceeef8d981c8956a681565b610fcc82610862565b610fd58161165a565b610fdf838361174f565b505050565b6000600560008473ffffffffffffffffffffffffffffffffffffffff1673ffffffffffffffffffffffffffffffffffffffff16815260200190815260200160002060008373ffffffffffffffffffffffffffffffffffffffff1673ffffffffffffffffffffffffffffffffffffffff16815260200190815260200160002060009054906101000a900460ff16905092915050565b611080611255565b73ffffffffffffffffffffffffffffffffffffffff1661109e610c04565b73ffffffffffffffffffffffffffffffffffffffff16146110f4576040517f08c379a00000000000000000000000000000000000000000000000000000000081526004016110eb9061308e565b60405180910390fd5b600073ffffffffffffffffffffffffffffffffffffffff168173ffffffffffffffffffffffffffffffffffffffff1603611163576040517f08c379a000000000000000000000000000000000000000000000000000000000815260040161115a90613419565b60405180910390fd5b61116c81611831565b50565b60007f7965db0b000000000000000000000000000000000000000000000000000000007bffffffffffffffffffffffffffffffffffffffffffffffffffffffff1916827bffffffffffffffffffffffffffffffffffffffffffffffffffffffff191614806111e257506111e182611e98565b5b9050919050565b60008073ffffffffffffffffffffffffffffffffffffffff166002600084815260200190815260200160002060009054906101000a900473ffffffffffffffffffffffffffffffffffffffff1673ffffffffffffffffffffffffffffffffffffffff1614159050919050565b600033905090565b816004600083815260200190815260200160002060006101000a81548173ffffffffffffffffffffffffffffffffffffffff021916908373ffffffffffffffffffffffffffffffffffffffff160217905550808273ffffffffffffffffffffffffffffffffffffffff166112d083610a14565b73ffffffffffffffffffffffffffffffffffffffff167f8c5be1e5ebec7d5bd14f71427d1e84f3dd0314c0f7b2291e5b200ac8c7c3b92560405160405180910390a45050565b6000611321826111e9565b611360576040517f08c379a0000000000000000000000000000000000000000000000000000000008152600401611357906134ab565b60405180910390fd5b600061136b83610a14565b90508073ffffffffffffffffffffffffffffffffffffffff168473ffffffffffffffffffffffffffffffffffffffff1614806113ad57506113ac8185610fe4565b5b806113eb57508373ffffffffffffffffffffffffffffffffffffffff166113d384610666565b73ffffffffffffffffffffffffffffffffffffffff16145b91505092915050565b8273ffffffffffffffffffffffffffffffffffffffff1661141482610a14565b73ffffffffffffffffffffffffffffffffffffffff161461146a576040517f08c379a00000000000000000000000000000000000000000000000000000000081526004016114619061353d565b60405180910390fd5b600073ffffffffffffffffffffffffffffffffffffffff168273ffffffffffffffffffffffffffffffffffffffff16036114d9576040517f08c379a00000000000000000000000000000000000000000000000000000000081526004016114d0906135cf565b60405180910390fd5b6114e4838383611f7a565b6114ef60008261125d565b6001600360008573ffffffffffffffffffffffffffffffffffffffff1673ffffffffffffffffffffffffffffffffffffffff168152602001908152602001600020600082825461153f91906135ef565b925050819055506001600360008473ffffffffffffffffffffffffffffffffffffffff1673ffffffffffffffffffffffffffffffffffffffff16815260200190815260200160002060008282546115969190613623565b92505081905550816002600083815260200190815260200160002060006101000a81548173ffffffffffffffffffffffffffffffffffffffff021916908373ffffffffffffffffffffffffffffffffffffffff160217905550808273ffffffffffffffffffffffffffffffffffffffff168473ffffffffffffffffffffffffffffffffffffffff167fddf252ad1be2c89b69c2b068fc378daa952ba7f163c4a11628f55a4df523b3ef60405160405180910390a4611655838383611f7f565b505050565b61166b81611666611255565b611f84565b50565b6116788282610c2e565b61174b5760016006600084815260200190815260200160002060000160008373ffffffffffffffffffffffffffffffffffffffff1673ffffffffffffffffffffffffffffffffffffffff16815260200190815260200160002060006101000a81548160ff0219169083151502179055506116f0611255565b73ffffffffffffffffffffffffffffffffffffffff168173ffffffffffffffffffffffffffffffffffffffff16837f2f8788117e7eff1d82e926ec794901d17c78024a50270940304540a733656f0d60405160405180910390a45b5050565b6117598282610c2e565b1561182d5760006006600084815260200190815260200160002060000160008373ffffffffffffffffffffffffffffffffffffffff1673ffffffffffffffffffffffffffffffffffffffff16815260200190815260200160002060006101000a81548160ff0219169083151502179055506117d2611255565b73ffffffffffffffffffffffffffffffffffffffff168173ffffffffffffffffffffffffffffffffffffffff16837ff6391f5c32d9c69d2a47ea670b442974b53935d1edc7fd64eb21e047a839171b60405160405180910390a45b5050565b6000600760009054906101000a900473ffffffffffffffffffffffffffffffffffffffff16905081600760006101000a81548173ffffffffffffffffffffffffffffffffffffffff021916908373ffffffffffffffffffffffffffffffffffffffff1602179055508173ffffffffffffffffffffffffffffffffffffffff168173ffffffffffffffffffffffffffffffffffffffff167f8be0079c531659141344cd1fd0a4f28419497f9722a3daafe3b4186f6b6457e060405160405180910390a35050565b8173ffffffffffffffffffffffffffffffffffffffff168373ffffffffffffffffffffffffffffffffffffffff1603611965576040517f08c379a000000000000000000000000000000000000000000000000000000000815260040161195c906136c5565b60405180910390fd5b80600560008573ffffffffffffffffffffffffffffffffffffffff1673ffffffffffffffffffffffffffffffffffffffff16815260200190815260200160002060008473ffffffffffffffffffffffffffffffffffffffff1673ffffffffffffffffffffffffffffffffffffffff16815260200190815260200160002060006101000a81548160ff0219169083151502179055508173ffffffffffffffffffffffffffffffffffffffff168373ffffffffffffffffffffffffffffffffffffffff167f17307eab39ab6107e8899845ad3d59bd9653f200f220920489ca2b5937696c3183604051611a5691906125c8565b60405180910390a3505050565b600073ffffffffffffffffffffffffffffffffffffffff168273ffffffffffffffffffffffffffffffffffffffff1603611ad2576040517f08c379a0000000000000000000000000000000000000000000000000000000008152600401611ac990613731565b60405180910390fd5b611adb816111e9565b15611b1b576040517f08c379a0000000000000000000000000000000000000000000000000000000008152600401611b129061379d565b60405180910390fd5b611b2760008383611f7a565b6001600360008473ffffffffffffffffffffffffffffffffffffffff1673ffffffffffffffffffffffffffffffffffffffff1681526020019081526020016000206000828254611b779190613623565b92505081905550816002600083815260200190815260200160002060006101000a81548173ffffffffffffffffffffffffffffffffffffffff021916908373ffffffffffffffffffffffffffffffffffffffff160217905550808273ffffffffffffffffffffffffffffffffffffffff16600073ffffffffffffffffffffffffffffffffffffffff167fddf252ad1be2c89b69c2b068fc378daa952ba7f163c4a11628f55a4df523b3ef60405160405180910390a4611c3860008383611f7f565b5050565b611c478484846113f4565b611c5384848484612021565b611c92576040517f08c379a0000000000000000000000000000000000000000000000000000000008152600401611c899061382f565b60405180910390fd5b50505050565b611ca2828261166e565b5050565b606060098054611cb590612d37565b80601f0160208091040260200160405190810160405280929190818152602001828054611ce190612d37565b8015611d2e5780601f10611d0357610100808354040283529160200191611d2e565b820191906000526020600020905b815481529060010190602001808311611d1157829003601f168201915b5050505050905090565b606060008203611d7f576040518060400160405280600181526020017f30000000000000000000000000000000000000000000000000000000000000008152509050611e93565b600082905060005b60008214611db1578080611d9a9061326d565b915050600a82611daa919061387e565b9150611d87565b60008167ffffffffffffffff811115611dcd57611dcc61296d565b5b6040519080825280601f01601f191660200182016040528015611dff5781602001600182028036833780820191505090505b5090505b60008514611e8c57600182611e1891906135ef565b9150600a85611e2791906138af565b6030611e339190613623565b60f81b818381518110611e4957611e486138e0565b5b60200101907effffffffffffffffffffffffffffffffffffffffffffffffffffffffffffff1916908160001a905350600a85611e85919061387e565b9450611e03565b8093505050505b919050565b60007f80ac58cd000000000000000000000000000000000000000000000000000000007bffffffffffffffffffffffffffffffffffffffffffffffffffffffff1916827bffffffffffffffffffffffffffffffffffffffffffffffffffffffff19161480611f6357507f5b5e139f000000000000000000000000000000000000000000000000000000007bffffffffffffffffffffffffffffffffffffffffffffffffffffffff1916827bffffffffffffffffffffffffffffffffffffffffffffffffffffffff1916145b80611f735750611f72826121a8565b5b9050919050565b505050565b505050565b611f8e8282610c2e565b61201d57611fb38173ffffffffffffffffffffffffffffffffffffffff166014612212565b611fc18360001c6020612212565b604051602001611fd29291906139a7565b6040516020818303038152906040526040517f08c379a0000000000000000000000000000000000000000000000000000000008152600401612014919061267c565b60405180910390fd5b5050565b60006120428473ffffffffffffffffffffffffffffffffffffffff1661244e565b1561219b578373ffffffffffffffffffffffffffffffffffffffff1663150b7a0261206b611255565b8786866040518563ffffffff1660e01b815260040161208d9493929190613a36565b6020604051808303816000875af19250505080156120c957506040513d601f19601f820116820180604052508101906120c69190613a97565b60015b61214b573d80600081146120f9576040519150601f19603f3d011682016040523d82523d6000602084013e6120fe565b606091505b506000815103612143576040517f08c379a000000000000000000000000000000000000000000000000000000000815260040161213a9061382f565b60405180910390fd5b805181602001fd5b63150b7a0260e01b7bffffffffffffffffffffffffffffffffffffffffffffffffffffffff1916817bffffffffffffffffffffffffffffffffffffffffffffffffffffffff1916149150506121a0565b600190505b949350505050565b60007f01ffc9a7000000000000000000000000000000000000000000000000000000007bffffffffffffffffffffffffffffffffffffffffffffffffffffffff1916827bffffffffffffffffffffffffffffffffffffffffffffffffffffffff1916149050919050565b6060600060028360026122259190613ac4565b61222f9190613623565b67ffffffffffffffff8111156122485761224761296d565b5b6040519080825280601f01601f19166020018201604052801561227a5781602001600182028036833780820191505090505b5090507f3000000000000000000000000000000000000000000000000000000000000000816000815181106122b2576122b16138e0565b5b60200101907effffffffffffffffffffffffffffffffffffffffffffffffffffffffffffff1916908160001a9053507f780000000000000000000000000000000000000000000000000000000000000081600181518110612316576123156138e0565b5b60200101907effffffffffffffffffffffffffffffffffffffffffffffffffffffffffffff1916908160001a905350600060018460026123569190613ac4565b6123609190613623565b90505b6001811115612400577f3031323334353637383961626364656600000000000000000000000000000000600f8616601081106123a2576123a16138e0565b5b1a60f81b8282815181106123b9576123b86138e0565b5b60200101907effffffffffffffffffffffffffffffffffffffffffffffffffffffffffffff1916908160001a905350600485901c9450806123f990613b1e565b9050612363565b5060008414612444576040517f08c379a000000000000000000000000000000000000000000000000000000000815260040161243b90613b93565b60405180910390fd5b8091505092915050565b6000808273ffffffffffffffffffffffffffffffffffffffff163b119050919050565b82805461247d90612d37565b90600052602060002090601f01602090048101928261249f57600085556124e6565b82601f106124b857805160ff19168380011785556124e6565b828001600101855582156124e6579182015b828111156124e55782518255916020019190600101906124ca565b5b5090506124f391906124f7565b5090565b5b808211156125105760008160009055506001016124f8565b5090565b6000604051905090565b600080fd5b600080fd5b60007fffffffff0000000000000000000000000000000000000000000000000000000082169050919050565b61255d81612528565b811461256857600080fd5b50565b60008135905061257a81612554565b92915050565b6000602082840312156125965761259561251e565b5b60006125a48482850161256b565b91505092915050565b60008115159050919050565b6125c2816125ad565b82525050565b60006020820190506125dd60008301846125b9565b92915050565b600081519050919050565b600082825260208201905092915050565b60005b8381101561261d578082015181840152602081019050612602565b8381111561262c576000848401525b50505050565b6000601f19601f8301169050919050565b600061264e826125e3565b61265881856125ee565b93506126688185602086016125ff565b61267181612632565b840191505092915050565b600060208201905081810360008301526126968184612643565b905092915050565b6000819050919050565b6126b18161269e565b81146126bc57600080fd5b50565b6000813590506126ce816126a8565b92915050565b6000602082840312156126ea576126e961251e565b5b60006126f8848285016126bf565b91505092915050565b600073ffffffffffffffffffffffffffffffffffffffff82169050919050565b600061272c82612701565b9050919050565b61273c81612721565b82525050565b60006020820190506127576000830184612733565b92915050565b61276681612721565b811461277157600080fd5b50565b6000813590506127838161275d565b92915050565b600080604083850312156127a05761279f61251e565b5b60006127ae85828601612774565b92505060206127bf858286016126bf565b9150509250929050565b6000806000606084860312156127e2576127e161251e565b5b60006127f086828701612774565b935050602061280186828701612774565b9250506040612812868287016126bf565b9150509250925092565b6000819050919050565b61282f8161281c565b811461283a57600080fd5b50565b60008135905061284c81612826565b92915050565b6000602082840312156128685761286761251e565b5b60006128768482850161283d565b91505092915050565b6128888161281c565b82525050565b60006020820190506128a3600083018461287f565b92915050565b600080604083850312156128c0576128bf61251e565b5b60006128ce8582860161283d565b92505060206128df85828601612774565b9150509250929050565b6000819050919050565b600061290e61290961290484612701565b6128e9565b612701565b9050919050565b6000612920826128f3565b9050919050565b600061293282612915565b9050919050565b61294281612927565b82525050565b600060208201905061295d6000830184612939565b92915050565b600080fd5b600080fd5b7f4e487b7100000000000000000000000000000000000000000000000000000000600052604160045260246000fd5b6129a582612632565b810181811067ffffffffffffffff821117156129c4576129c361296d565b5b80604052505050565b60006129d7612514565b90506129e3828261299c565b919050565b600067ffffffffffffffff821115612a0357612a0261296d565b5b612a0c82612632565b9050602081019050919050565b82818337600083830152505050565b6000612a3b612a36846129e8565b6129cd565b905082815260208101848484011115612a5757612a56612968565b5b612a62848285612a19565b509392505050565b600082601f830112612a7f57612a7e612963565b5b8135612a8f848260208601612a28565b91505092915050565b600060208284031215612aae57612aad61251e565b5b600082013567ffffffffffffffff811115612acc57612acb612523565b5b612ad884828501612a6a565b91505092915050565b600060208284031215612af757612af661251e565b5b6000612b0584828501612774565b91505092915050565b612b178161269e565b82525050565b6000602082019050612b326000830184612b0e565b92915050565b612b41816125ad565b8114612b4c57600080fd5b50565b600081359050612b5e81612b38565b92915050565b60008060408385031215612b7b57612b7a61251e565b5b6000612b8985828601612774565b9250506020612b9a85828601612b4f565b9150509250929050565b600067ffffffffffffffff821115612bbf57612bbe61296d565b5b612bc882612632565b9050602081019050919050565b6000612be8612be384612ba4565b6129cd565b905082815260208101848484011115612c0457612c03612968565b5b612c0f848285612a19565b509392505050565b600082601f830112612c2c57612c2b612963565b5b8135612c3c848260208601612bd5565b91505092915050565b60008060008060808587031215612c5f57612c5e61251e565b5b6000612c6d87828801612774565b9450506020612c7e87828801612774565b9350506040612c8f878288016126bf565b925050606085013567ffffffffffffffff811115612cb057612caf612523565b5b612cbc87828801612c17565b91505092959194509250565b60008060408385031215612cdf57612cde61251e565b5b6000612ced85828601612774565b9250506020612cfe85828601612774565b9150509250929050565b7f4e487b7100000000000000000000000000000000000000000000000000000000600052602260045260246000fd5b60006002820490506001821680612d4f57607f821691505b602082108103612d6257612d61612d08565b5b50919050565b7f4552433732313a20617070726f76656420717565727920666f72206e6f6e657860008201527f697374656e7420746f6b656e0000000000000000000000000000000000000000602082015250565b6000612dc4602c836125ee565b9150612dcf82612d68565b604082019050919050565b60006020820190508181036000830152612df381612db7565b9050919050565b7f4552433732313a20617070726f76616c20746f2063757272656e74206f776e6560008201527f7200000000000000000000000000000000000000000000000000000000000000602082015250565b6000612e566021836125ee565b9150612e6182612dfa565b604082019050919050565b60006020820190508181036000830152612e8581612e49565b9050919050565b7f4552433732313a20617070726f76652063616c6c6572206973206e6f74206f7760008201527f6e6572206e6f7220617070726f76656420666f7220616c6c0000000000000000602082015250565b6000612ee86038836125ee565b9150612ef382612e8c565b604082019050919050565b60006020820190508181036000830152612f1781612edb565b9050919050565b7f4552433732313a207472616e736665722063616c6c6572206973206e6f74206f60008201527f776e6572206e6f7220617070726f766564000000000000000000000000000000602082015250565b6000612f7a6031836125ee565b9150612f8582612f1e565b604082019050919050565b60006020820190508181036000830152612fa981612f6d565b9050919050565b7f416363657373436f6e74726f6c3a2063616e206f6e6c792072656e6f756e636560008201527f20726f6c657320666f722073656c660000000000000000000000000000000000602082015250565b600061300c602f836125ee565b915061301782612fb0565b604082019050919050565b6000602082019050818103600083015261303b81612fff565b9050919050565b7f4f776e61626c653a2063616c6c6572206973206e6f7420746865206f776e6572600082015250565b60006130786020836125ee565b915061308382613042565b602082019050919050565b600060208201905081810360008301526130a78161306b565b9050919050565b7f4552433732313a206f776e657220717565727920666f72206e6f6e657869737460008201527f656e7420746f6b656e0000000000000000000000000000000000000000000000602082015250565b600061310a6029836125ee565b9150613115826130ae565b604082019050919050565b60006020820190508181036000830152613139816130fd565b9050919050565b7f4552433732313a2062616c616e636520717565727920666f7220746865207a6560008201527f726f206164647265737300000000000000000000000000000000000000000000602082015250565b600061319c602a836125ee565b91506131a782613140565b604082019050919050565b600060208201905081810360008301526131cb8161318f565b9050919050565b7f43616c6c6572206973206e6f742061206d696e74657200000000000000000000600082015250565b60006132086016836125ee565b9150613213826131d2565b602082019050919050565b60006020820190508181036000830152613237816131fb565b9050919050565b7f4e487b7100000000000000000000000000000000000000000000000000000000600052601160045260246000fd5b60006132788261269e565b91507fffffffffffffffffffffffffffffffffffffffffffffffffffffffffffffffff82036132aa576132a961323e565b5b600182019050919050565b7f4552433732314d657461646174613a2055524920717565727920666f72206e6f60008201527f6e6578697374656e7420746f6b656e0000000000000000000000000000000000602082015250565b6000613311602f836125ee565b915061331c826132b5565b604082019050919050565b6000602082019050818103600083015261334081613304565b9050919050565b600081905092915050565b600061335d826125e3565b6133678185613347565b93506133778185602086016125ff565b80840191505092915050565b600061338f8285613352565b915061339b8284613352565b91508190509392505050565b7f4f776e61626c653a206e6577206f776e657220697320746865207a65726f206160008201527f6464726573730000000000000000000000000000000000000000000000000000602082015250565b60006134036026836125ee565b915061340e826133a7565b604082019050919050565b60006020820190508181036000830152613432816133f6565b9050919050565b7f4552433732313a206f70657261746f7220717565727920666f72206e6f6e657860008201527f697374656e7420746f6b656e0000000000000000000000000000000000000000602082015250565b6000613495602c836125ee565b91506134a082613439565b604082019050919050565b600060208201905081810360008301526134c481613488565b9050919050565b7f4552433732313a207472616e736665722066726f6d20696e636f72726563742060008201527f6f776e6572000000000000000000000000000000000000000000000000000000602082015250565b60006135276025836125ee565b9150613532826134cb565b604082019050919050565b600060208201905081810360008301526135568161351a565b9050919050565b7f4552433732313a207472616e7366657220746f20746865207a65726f2061646460008201527f7265737300000000000000000000000000000000000000000000000000000000602082015250565b60006135b96024836125ee565b91506135c48261355d565b604082019050919050565b600060208201905081810360008301526135e8816135ac565b9050919050565b60006135fa8261269e565b91506136058361269e565b9250828210156136185761361761323e565b5b828203905092915050565b600061362e8261269e565b91506136398361269e565b9250827fffffffffffffffffffffffffffffffffffffffffffffffffffffffffffffffff0382111561366e5761366d61323e565b5b828201905092915050565b7f4552433732313a20617070726f766520746f2063616c6c657200000000000000600082015250565b60006136af6019836125ee565b91506136ba82613679565b602082019050919050565b600060208201905081810360008301526136de816136a2565b9050919050565b7f4552433732313a206d696e7420746f20746865207a65726f2061646472657373600082015250565b600061371b6020836125ee565b9150613726826136e5565b602082019050919050565b6000602082019050818103600083015261374a8161370e565b9050919050565b7f4552433732313a20746f6b656e20616c7265616479206d696e74656400000000600082015250565b6000613787601c836125ee565b915061379282613751565b602082019050919050565b600060208201905081810360008301526137b68161377a565b9050919050565b7f4552433732313a207472616e7366657220746f206e6f6e20455243373231526560008201527f63656976657220696d706c656d656e7465720000000000000000000000000000602082015250565b60006138196032836125ee565b9150613824826137bd565b604082019050919050565b600060208201905081810360008301526138488161380c565b9050919050565b7f4e487b7100000000000000000000000000000000000000000000000000000000600052601260045260246000fd5b60006138898261269e565b91506138948361269e565b9250826138a4576138a361384f565b5b828204905092915050565b60006138ba8261269e565b91506138c58361269e565b9250826138d5576138d461384f565b5b828206905092915050565b7f4e487b7100000000000000000000000000000000000000000000000000000000600052603260045260246000fd5b7f416363657373436f6e74726f6c3a206163636f756e7420000000000000000000600082015250565b6000613945601783613347565b91506139508261390f565b601782019050919050565b7f206973206d697373696e6720726f6c6520000000000000000000000000000000600082015250565b6000613991601183613347565b915061399c8261395b565b601182019050919050565b60006139b282613938565b91506139be8285613352565b91506139c982613984565b91506139d58284613352565b91508190509392505050565b600081519050919050565b600082825260208201905092915050565b6000613a08826139e1565b613a1281856139ec565b9350613a228185602086016125ff565b613a2b81612632565b840191505092915050565b6000608082019050613a4b6000830187612733565b613a586020830186612733565b613a656040830185612b0e565b8181036060830152613a7781846139fd565b905095945050505050565b600081519050613a9181612554565b92915050565b600060208284031215613aad57613aac61251e565b5b6000613abb84828501613a82565b91505092915050565b6000613acf8261269e565b9150613ada8361269e565b9250817fffffffffffffffffffffffffffffffffffffffffffffffffffffffffffffffff0483118215151615613b1357613b1261323e565b5b828202905092915050565b6000613b298261269e565b915060008203613b3c57613b3b61323e565b5b600182039050919050565b7f537472696e67733a20686578206c656e67746820696e73756666696369656e74600082015250565b6000613b7d6020836125ee565b9150613b8882613b47565b602082019050919050565b60006020820190508181036000830152613bac81613b70565b905091905056fea26469706673582212207631ebf591b3c9ab3532443c528bc10c6c9dc58c372bcdc8b3624563901946cd64736f6c634300080e003368747470733a2f2f776562336578706c6f7265722e6f726967696e747261696c2e696f2f746f6b656e2d7265736f6c7665722f",
  "immutableReferences": {},
  "source": "// SPDX-License-Identifier: MIT\n// OpenZeppelin Contracts (last updated v4.6.0) (token/ERC721/ERC721.sol)\n\npragma solidity ^0.8.0;\n\nimport \"@openzeppelin/contracts/access/Ownable.sol\";\nimport \"@openzeppelin/contracts/token/ERC721/ERC721.sol\";\nimport \"@openzeppelin/contracts/access/AccessControl.sol\";\nimport \"./Hub.sol\";\n\n/**\n * @dev Implementation of https://eips.ethereum.org/EIPS/eip-721[ERC721] Non-Fungible Token Standard, including\n * the Metadata extension, but not including the Enumerable extension, which is available separately as\n * {ERC721Enumerable}.\n */\ncontract UAIRegistry is ERC721, AccessControl, Ownable  {\n    Hub public hub;\n\n    // Base URI\n    string private baseURI;\n    uint256 private tokenId;\n\n    bytes32 public constant MINTER_ROLE = keccak256(\"MINTER_ROLE\");\n\n\n    constructor(address hubAddress) ERC721(\"DKG Asset Graphs\", \"DKG\"){\n        require(hubAddress != address(0));\n        hub = Hub(hubAddress);\n\n        setBaseURI(\"https://web3explorer.origintrail.io/token-resolver/\");\n        tokenId = 0;\n    }\n\n    function setupRole(address minter) public onlyOwner {\n        _setupRole(MINTER_ROLE, minter);\n    }\n\n    function setBaseURI(string memory URI) public onlyOwner {\n        baseURI = URI;\n    }\n\n    function _baseURI() internal override view returns  (string memory) {\n        return baseURI;\n    }\n\n    function mintUAI(address to) public returns (uint256) {\n        require(hasRole(MINTER_ROLE, msg.sender), \"Caller is not a minter\");\n        //TODO check if tokenId < 2^256\n\n        _mint(to, tokenId);\n        return tokenId++;\n    }\n\n    function transfer(address from, address to, uint256 _tokenId) public {\n        _transfer(from, to, _tokenId);\n    }\n\n    function exists(uint256 _tokenId) public view returns (bool) {\n        return _exists(_tokenId);\n    }\n\n    function supportsInterface(bytes4 interfaceId) public view virtual override(ERC721, AccessControl) returns (bool) {\n        return super.supportsInterface(interfaceId);\n    }\n}\n",
  "sourcePath": "/Users/miloskotlar/dkg-onchain-module-v6/contracts/UAIRegistry.sol",
  "compiler": {
    "name": "solc",
    "version": "0.8.14+commit.80d49f37.Emscripten.clang"
  },
  "schemaVersion": "3.4.3",
  "updatedAt": "2022-07-26T12:56:43.028Z",
  "networkType": "ethereum",
  "devdoc": {
    "details": "Implementation of https://eips.ethereum.org/EIPS/eip-721[ERC721] Non-Fungible Token Standard, including the Metadata extension, but not including the Enumerable extension, which is available separately as {ERC721Enumerable}.",
    "kind": "dev",
    "methods": {
      "approve(address,uint256)": {
        "details": "See {IERC721-approve}."
      },
      "balanceOf(address)": {
        "details": "See {IERC721-balanceOf}."
      },
      "getApproved(uint256)": {
        "details": "See {IERC721-getApproved}."
      },
      "getRoleAdmin(bytes32)": {
        "details": "Returns the admin role that controls `role`. See {grantRole} and {revokeRole}. To change a role's admin, use {_setRoleAdmin}."
      },
      "grantRole(bytes32,address)": {
        "details": "Grants `role` to `account`. If `account` had not been already granted `role`, emits a {RoleGranted} event. Requirements: - the caller must have ``role``'s admin role."
      },
      "hasRole(bytes32,address)": {
        "details": "Returns `true` if `account` has been granted `role`."
      },
      "isApprovedForAll(address,address)": {
        "details": "See {IERC721-isApprovedForAll}."
      },
      "name()": {
        "details": "See {IERC721Metadata-name}."
      },
      "owner()": {
        "details": "Returns the address of the current owner."
      },
      "ownerOf(uint256)": {
        "details": "See {IERC721-ownerOf}."
      },
      "renounceOwnership()": {
        "details": "Leaves the contract without owner. It will not be possible to call `onlyOwner` functions anymore. Can only be called by the current owner. NOTE: Renouncing ownership will leave the contract without an owner, thereby removing any functionality that is only available to the owner."
      },
      "renounceRole(bytes32,address)": {
        "details": "Revokes `role` from the calling account. Roles are often managed via {grantRole} and {revokeRole}: this function's purpose is to provide a mechanism for accounts to lose their privileges if they are compromised (such as when a trusted device is misplaced). If the calling account had been revoked `role`, emits a {RoleRevoked} event. Requirements: - the caller must be `account`."
      },
      "revokeRole(bytes32,address)": {
        "details": "Revokes `role` from `account`. If `account` had been granted `role`, emits a {RoleRevoked} event. Requirements: - the caller must have ``role``'s admin role."
      },
      "safeTransferFrom(address,address,uint256)": {
        "details": "See {IERC721-safeTransferFrom}."
      },
      "safeTransferFrom(address,address,uint256,bytes)": {
        "details": "See {IERC721-safeTransferFrom}."
      },
      "setApprovalForAll(address,bool)": {
        "details": "See {IERC721-setApprovalForAll}."
      },
      "symbol()": {
        "details": "See {IERC721Metadata-symbol}."
      },
      "tokenURI(uint256)": {
        "details": "See {IERC721Metadata-tokenURI}."
      },
      "transferFrom(address,address,uint256)": {
        "details": "See {IERC721-transferFrom}."
      },
      "transferOwnership(address)": {
        "details": "Transfers ownership of the contract to a new account (`newOwner`). Can only be called by the current owner."
      }
    },
    "version": 1
  },
  "userdoc": {
    "kind": "user",
    "methods": {},
    "version": 1
  }
}