{
  "contractName": "UAIRegistry",
  "abi": [
    {
      "inputs": [
        {
          "internalType": "address",
          "name": "_ERC20Address",
          "type": "address"
        },
        {
          "internalType": "address",
          "name": "_ERC721Address",
          "type": "address"
        },
        {
          "internalType": "address",
          "name": "_AssertionRegistryAddress",
          "type": "address"
        }
      ],
      "stateMutability": "nonpayable",
      "type": "constructor"
    },
    {
      "anonymous": false,
      "inputs": [
        {
          "indexed": true,
          "internalType": "uint256",
          "name": "UAI",
          "type": "uint256"
        },
        {
          "indexed": true,
          "internalType": "bytes32",
          "name": "stateCommitHash",
          "type": "bytes32"
        }
      ],
      "name": "AssetCreated",
      "type": "event"
    },
    {
      "anonymous": false,
      "inputs": [
        {
          "indexed": true,
          "internalType": "uint256",
          "name": "UAI",
          "type": "uint256"
        },
        {
          "indexed": true,
          "internalType": "bytes32",
          "name": "stateCommitHash",
          "type": "bytes32"
        }
      ],
      "name": "AssetUpdated",
      "type": "event"
    },
    {
      "anonymous": false,
      "inputs": [
        {
          "indexed": true,
          "internalType": "address",
          "name": "previousOwner",
          "type": "address"
        },
        {
          "indexed": true,
          "internalType": "address",
          "name": "newOwner",
          "type": "address"
        }
      ],
      "name": "OwnershipTransferred",
      "type": "event"
    },
    {
      "anonymous": false,
      "inputs": [
        {
          "indexed": true,
          "internalType": "bytes32",
          "name": "UAI",
          "type": "bytes32"
        },
        {
          "indexed": true,
          "internalType": "uint256",
          "name": "amount",
          "type": "uint256"
        },
        {
          "indexed": true,
          "internalType": "address",
          "name": "depositor",
          "type": "address"
        }
      ],
      "name": "TokensDepositedToAsset",
      "type": "event"
    },
    {
      "anonymous": false,
      "inputs": [
        {
          "indexed": true,
          "internalType": "address",
          "name": "ERC20Address",
          "type": "address"
        },
        {
          "indexed": true,
          "internalType": "address",
          "name": "ERC721Address",
          "type": "address"
        },
        {
          "indexed": true,
          "internalType": "address",
          "name": "assertionRegistryAddress",
          "type": "address"
        }
      ],
      "name": "UAIRegistryInit",
      "type": "event"
    },
    {
      "inputs": [
        {
          "internalType": "uint256",
          "name": "",
          "type": "uint256"
        }
      ],
      "name": "assetRecords",
      "outputs": [
        {
          "internalType": "uint256",
          "name": "creationTimestamp",
          "type": "uint256"
        },
        {
          "internalType": "address",
          "name": "controller",
          "type": "address"
        },
        {
          "internalType": "bytes32",
          "name": "stateCommitHash",
          "type": "bytes32"
        }
      ],
      "stateMutability": "view",
      "type": "function",
      "constant": true
    },
    {
      "inputs": [
        {
          "internalType": "bytes32",
          "name": "",
          "type": "bytes32"
        }
      ],
      "name": "assetStake",
      "outputs": [
        {
          "internalType": "uint256",
          "name": "",
          "type": "uint256"
        }
      ],
      "stateMutability": "view",
      "type": "function",
      "constant": true
    },
    {
      "inputs": [],
      "name": "owner",
      "outputs": [
        {
          "internalType": "address",
          "name": "",
          "type": "address"
        }
      ],
      "stateMutability": "view",
      "type": "function",
      "constant": true
    },
    {
      "inputs": [],
      "name": "renounceOwnership",
      "outputs": [],
      "stateMutability": "nonpayable",
      "type": "function"
    },
    {
      "inputs": [
        {
          "internalType": "address",
          "name": "newOwner",
          "type": "address"
        }
      ],
      "name": "transferOwnership",
      "outputs": [],
      "stateMutability": "nonpayable",
      "type": "function"
    },
    {
      "inputs": [
        {
          "internalType": "uint256",
          "name": "UAI",
          "type": "uint256"
        },
        {
          "internalType": "bytes32",
          "name": "stateCommitHash",
          "type": "bytes32"
        },
        {
          "internalType": "uint256",
          "name": "tokenAmount",
          "type": "uint256"
        }
      ],
      "name": "createAsset",
      "outputs": [
        {
          "internalType": "uint256",
          "name": "",
          "type": "uint256"
        }
      ],
      "stateMutability": "nonpayable",
      "type": "function"
    },
    {
      "inputs": [
        {
          "internalType": "uint256",
          "name": "UAI",
          "type": "uint256"
        },
        {
          "internalType": "bytes32",
          "name": "newStateCommitHash",
          "type": "bytes32"
        }
      ],
      "name": "updateAsset",
      "outputs": [
        {
          "internalType": "uint256",
          "name": "",
          "type": "uint256"
        }
      ],
      "stateMutability": "nonpayable",
      "type": "function"
    },
    {
      "inputs": [
        {
          "internalType": "uint256",
          "name": "UAI",
          "type": "uint256"
        }
      ],
      "name": "getAssetStateCommitHash",
      "outputs": [
        {
          "internalType": "bytes32",
          "name": "stateCommitHash",
          "type": "bytes32"
        }
      ],
      "stateMutability": "view",
      "type": "function",
      "constant": true
    },
    {
      "inputs": [
        {
          "internalType": "uint256",
          "name": "UAI",
          "type": "uint256"
        }
      ],
      "name": "getAssetOwner",
      "outputs": [
        {
          "internalType": "address",
          "name": "owner",
          "type": "address"
        }
      ],
      "stateMutability": "view",
      "type": "function",
      "constant": true
    },
    {
      "inputs": [
        {
          "internalType": "uint256",
          "name": "UAI",
          "type": "uint256"
        }
      ],
      "name": "getAssetCreationTimestamp",
      "outputs": [
        {
          "internalType": "uint256",
          "name": "creationTimestamp",
          "type": "uint256"
        }
      ],
      "stateMutability": "view",
      "type": "function",
      "constant": true
    },
    {
      "inputs": [],
      "name": "getAssertionRegistryAddress",
      "outputs": [
        {
          "internalType": "address",
          "name": "_AssertionRegistryAddress",
          "type": "address"
        }
      ],
      "stateMutability": "view",
      "type": "function",
      "constant": true
    },
    {
      "inputs": [],
      "name": "getERC20Address",
      "outputs": [
        {
          "internalType": "address",
          "name": "_ERC20Address",
          "type": "address"
        }
      ],
      "stateMutability": "view",
      "type": "function",
      "constant": true
    },
    {
      "inputs": [],
      "name": "getERC721Address",
      "outputs": [
        {
          "internalType": "address",
          "name": "_ERC721Address",
          "type": "address"
        }
      ],
      "stateMutability": "view",
      "type": "function",
      "constant": true
    }
  ],
  "bytecode": "0x608060405234801561001057600080fd5b506040516119b23803806119b28339818101604052606081101561003357600080fd5b81019080805190602001909291908051906020019092919080519060200190929190505050600061006861047f60201b60201c565b9050806000806101000a81548173ffffffffffffffffffffffffffffffffffffffff021916908373ffffffffffffffffffffffffffffffffffffffff1602179055508073ffffffffffffffffffffffffffffffffffffffff16600073ffffffffffffffffffffffffffffffffffffffff167f8be0079c531659141344cd1fd0a4f28419497f9722a3daafe3b4186f6b6457e060405160405180910390a350600073ffffffffffffffffffffffffffffffffffffffff168373ffffffffffffffffffffffffffffffffffffffff16141561014057600080fd5b600073ffffffffffffffffffffffffffffffffffffffff168273ffffffffffffffffffffffffffffffffffffffff16141561017a57600080fd5b600073ffffffffffffffffffffffffffffffffffffffff168173ffffffffffffffffffffffffffffffffffffffff1614156101b457600080fd5b82600460006101000a81548173ffffffffffffffffffffffffffffffffffffffff021916908373ffffffffffffffffffffffffffffffffffffffff16021790555081600560006101000a81548173ffffffffffffffffffffffffffffffffffffffff021916908373ffffffffffffffffffffffffffffffffffffffff16021790555080600660006101000a81548173ffffffffffffffffffffffffffffffffffffffff021916908373ffffffffffffffffffffffffffffffffffffffff160217905550600460009054906101000a900473ffffffffffffffffffffffffffffffffffffffff16600160006101000a81548173ffffffffffffffffffffffffffffffffffffffff021916908373ffffffffffffffffffffffffffffffffffffffff160217905550600560009054906101000a900473ffffffffffffffffffffffffffffffffffffffff16600260006101000a81548173ffffffffffffffffffffffffffffffffffffffff021916908373ffffffffffffffffffffffffffffffffffffffff160217905550600660009054906101000a900473ffffffffffffffffffffffffffffffffffffffff16600360006101000a81548173ffffffffffffffffffffffffffffffffffffffff021916908373ffffffffffffffffffffffffffffffffffffffff160217905550600660009054906101000a900473ffffffffffffffffffffffffffffffffffffffff1673ffffffffffffffffffffffffffffffffffffffff16600560009054906101000a900473ffffffffffffffffffffffffffffffffffffffff1673ffffffffffffffffffffffffffffffffffffffff16600460009054906101000a900473ffffffffffffffffffffffffffffffffffffffff1673ffffffffffffffffffffffffffffffffffffffff167fb6b2bfec6e367dfbd8fb5c2526b2625e03cc6b7645cc63112615cd94a0c3124c60405160405180910390a4505050610487565b600033905090565b61151c806104966000396000f3fe608060405234801561001057600080fd5b50600436106100ce5760003560e01c80638d5802e21161008c578063aa8cd44311610066578063aa8cd44314610315578063b9f890de14610349578063c10136581461037d578063f2fde38b146103d3576100ce565b80638d5802e2146102235780638da5cb5b1461027b578063a88dc956146102af576100ce565b80627ffb78146100d3578063228a726a1461010757806334e5197b146101495780635f7154bf1461018b578063715018a6146101cd578063843231a8146101d7575b600080fd5b6100db610417565b604051808273ffffffffffffffffffffffffffffffffffffffff16815260200191505060405180910390f35b6101336004803603602081101561011d57600080fd5b8101908080359060200190929190505050610441565b6040518082815260200191505060405180910390f35b6101756004803603602081101561015f57600080fd5b8101908080359060200190929190505050610461565b6040518082815260200191505060405180910390f35b6101b7600480360360208110156101a157600080fd5b8101908080359060200190929190505050610479565b6040518082815260200191505060405180910390f35b6101d5610499565b005b61020d600480360360408110156101ed57600080fd5b810190808035906020019092919080359060200190929190505050610606565b6040518082815260200191505060405180910390f35b61024f6004803603602081101561023957600080fd5b8101908080359060200190929190505050610c07565b604051808273ffffffffffffffffffffffffffffffffffffffff16815260200191505060405180910390f35b610283610cbe565b604051808273ffffffffffffffffffffffffffffffffffffffff16815260200191505060405180910390f35b6102db600480360360208110156102c557600080fd5b8101908080359060200190929190505050610ce7565b604051808481526020018373ffffffffffffffffffffffffffffffffffffffff168152602001828152602001935050505060405180910390f35b61031d610d31565b604051808273ffffffffffffffffffffffffffffffffffffffff16815260200191505060405180910390f35b610351610d5b565b604051808273ffffffffffffffffffffffffffffffffffffffff16815260200191505060405180910390f35b6103bd6004803603606081101561039357600080fd5b81019080803590602001909291908035906020019092919080359060200190929190505050610d85565b6040518082815260200191505060405180910390f35b610415600480360360208110156103e957600080fd5b81019080803573ffffffffffffffffffffffffffffffffffffffff1690602001909291905050506112a5565b005b6000600560009054906101000a900473ffffffffffffffffffffffffffffffffffffffff16905090565b600060076000838152602001908152602001600020600201549050919050565b60086020528060005260406000206000915090505481565b600060076000838152602001908152602001600020600001549050919050565b6104a1611497565b73ffffffffffffffffffffffffffffffffffffffff166104bf610cbe565b73ffffffffffffffffffffffffffffffffffffffff1614610548576040517f08c379a00000000000000000000000000000000000000000000000000000000081526004018080602001828103825260208152602001807f4f776e61626c653a2063616c6c6572206973206e6f7420746865206f776e657281525060200191505060405180910390fd5b600073ffffffffffffffffffffffffffffffffffffffff1660008054906101000a900473ffffffffffffffffffffffffffffffffffffffff1673ffffffffffffffffffffffffffffffffffffffff167f8be0079c531659141344cd1fd0a4f28419497f9722a3daafe3b4186f6b6457e060405160405180910390a360008060006101000a81548173ffffffffffffffffffffffffffffffffffffffff021916908373ffffffffffffffffffffffffffffffffffffffff160217905550565b60008083141561067e576040517f08c379a00000000000000000000000000000000000000000000000000000000081526004018080602001828103825260128152602001807f5541492063616e6e6f74206265207a65726f000000000000000000000000000081525060200191505060405180910390fd5b6000801b8214156106da576040517f08c379a00000000000000000000000000000000000000000000000000000000081526004018080602001828103825260218152602001806114c66021913960400191505060405180910390fd5b600060076000858152602001908152602001600020600001541415610767576040517f08c379a000000000000000000000000000000000000000000000000000000000815260040180806020018281038252600f8152602001807f554149206d75737420657869737421000000000000000000000000000000000081525060200191505060405180910390fd5b60011515600260009054906101000a900473ffffffffffffffffffffffffffffffffffffffff1673ffffffffffffffffffffffffffffffffffffffff16634f558e79856040518263ffffffff1660e01b815260040180828152602001915050602060405180830381600087803b1580156107e057600080fd5b505af11580156107f4573d6000803e3d6000fd5b505050506040513d602081101561080a57600080fd5b8101908080519060200190929190505050151514610890576040517f08c379a00000000000000000000000000000000000000000000000000000000081526004018080602001828103825260188152602001807f45524337323120746f6b656e206d75737420657869737421000000000000000081525060200191505060405180910390fd5b6000600360009054906101000a900473ffffffffffffffffffffffffffffffffffffffff1673ffffffffffffffffffffffffffffffffffffffff1663a7943efc846040518263ffffffff1660e01b81526004018082815260200191505060206040518083038186803b15801561090557600080fd5b505afa158015610919573d6000803e3d6000fd5b505050506040513d602081101561092f57600080fd5b8101908080519060200190929190505050146109b3576040517f08c379a000000000000000000000000000000000000000000000000000000000815260040180806020018281038252601f8152602001807f5374617465436f6d6d69744861736820616c726561647920657869737473210081525060200191505060405180910390fd5b3373ffffffffffffffffffffffffffffffffffffffff16600260009054906101000a900473ffffffffffffffffffffffffffffffffffffffff1673ffffffffffffffffffffffffffffffffffffffff16636352211e856040518263ffffffff1660e01b81526004018082815260200191505060206040518083038186803b158015610a3d57600080fd5b505afa158015610a51573d6000803e3d6000fd5b505050506040513d6020811015610a6757600080fd5b810190808051906020019092919050505073ffffffffffffffffffffffffffffffffffffffff1614610b01576040517f08c379a00000000000000000000000000000000000000000000000000000000081526004018080602001828103825260208152602001807f53656e646572206973206e6f74206f776e6572206f662074686520617373657481525060200191505060405180910390fd5b600360009054906101000a900473ffffffffffffffffffffffffffffffffffffffff1673ffffffffffffffffffffffffffffffffffffffff1663b3138cb8833360016040518463ffffffff1660e01b8152600401808481526020018373ffffffffffffffffffffffffffffffffffffffff1681526020018281526020019350505050600060405180830381600087803b158015610b9d57600080fd5b505af1158015610bb1573d6000803e3d6000fd5b5050505081600760008581526020019081526020016000206002018190555081837fd8802cf5c11ee22bbcf303218874618686a09bcd94bbb441916d708f3e8b16e360405160405180910390a382905092915050565b6000600260009054906101000a900473ffffffffffffffffffffffffffffffffffffffff1673ffffffffffffffffffffffffffffffffffffffff16636352211e836040518263ffffffff1660e01b81526004018082815260200191505060206040518083038186803b158015610c7c57600080fd5b505afa158015610c90573d6000803e3d6000fd5b505050506040513d6020811015610ca657600080fd5b81019080805190602001909291905050509050919050565b60008060009054906101000a900473ffffffffffffffffffffffffffffffffffffffff16905090565b60076020528060005260406000206000915090508060000154908060010160009054906101000a900473ffffffffffffffffffffffffffffffffffffffff16908060020154905083565b6000600660009054906101000a900473ffffffffffffffffffffffffffffffffffffffff16905090565b6000600460009054906101000a900473ffffffffffffffffffffffffffffffffffffffff16905090565b60008060001b831415610e00576040517f08c379a000000000000000000000000000000000000000000000000000000000815260040180806020018281038252601e8152602001807f7374617465436f6d6d6974486173682063616e6e6f74206265207a65726f000081525060200191505060405180910390fd5b60001515600260009054906101000a900473ffffffffffffffffffffffffffffffffffffffff1673ffffffffffffffffffffffffffffffffffffffff16634f558e79866040518263ffffffff1660e01b815260040180828152602001915050602060405180830381600087803b158015610e7957600080fd5b505af1158015610e8d573d6000803e3d6000fd5b505050506040513d6020811015610ea357600080fd5b8101908080519060200190929190505050151514610f29576040517f08c379a000000000000000000000000000000000000000000000000000000000815260040180806020018281038252601c8152602001807f45524337323120746f6b656e20616c726561647920657869737473210000000081525060200191505060405180910390fd5b6000600360009054906101000a900473ffffffffffffffffffffffffffffffffffffffff1673ffffffffffffffffffffffffffffffffffffffff1663a7943efc856040518263ffffffff1660e01b81526004018082815260200191505060206040518083038186803b158015610f9e57600080fd5b505afa158015610fb2573d6000803e3d6000fd5b505050506040513d6020811015610fc857600080fd5b81019080805190602001909291905050501461104c576040517f08c379a000000000000000000000000000000000000000000000000000000000815260040180806020018281038252601f8152602001807f5374617465436f6d6d69744861736820616c726561647920657869737473210081525060200191505060405180910390fd5b60006007600086815260200190815260200160002060000154146110d8576040517f08c379a00000000000000000000000000000000000000000000000000000000081526004018080602001828103825260138152602001807f55414920616c726561647920657869737473210000000000000000000000000081525060200191505060405180910390fd5b600360009054906101000a900473ffffffffffffffffffffffffffffffffffffffff1673ffffffffffffffffffffffffffffffffffffffff1663b3138cb8843360016040518463ffffffff1660e01b8152600401808481526020018373ffffffffffffffffffffffffffffffffffffffff1681526020018281526020019350505050600060405180830381600087803b15801561117457600080fd5b505af1158015611188573d6000803e3d6000fd5b50505050600260009054906101000a900473ffffffffffffffffffffffffffffffffffffffff1673ffffffffffffffffffffffffffffffffffffffff1663a144819433866040518363ffffffff1660e01b8152600401808373ffffffffffffffffffffffffffffffffffffffff16815260200182815260200192505050600060405180830381600087803b15801561121f57600080fd5b505af1158015611233573d6000803e3d6000fd5b5050505082600760008681526020019081526020016000206002018190555042600760008681526020019081526020016000206000018190555082847f5863c932b4caa63f7e8856a49b4d0a438e7c26163d5553ecbcd67dee29a8907160405160405180910390a38390509392505050565b6112ad611497565b73ffffffffffffffffffffffffffffffffffffffff166112cb610cbe565b73ffffffffffffffffffffffffffffffffffffffff1614611354576040517f08c379a00000000000000000000000000000000000000000000000000000000081526004018080602001828103825260208152602001807f4f776e61626c653a2063616c6c6572206973206e6f7420746865206f776e657281525060200191505060405180910390fd5b600073ffffffffffffffffffffffffffffffffffffffff168173ffffffffffffffffffffffffffffffffffffffff1614156113da576040517f08c379a00000000000000000000000000000000000000000000000000000000081526004018080602001828103825260268152602001806114a06026913960400191505060405180910390fd5b8073ffffffffffffffffffffffffffffffffffffffff1660008054906101000a900473ffffffffffffffffffffffffffffffffffffffff1673ffffffffffffffffffffffffffffffffffffffff167f8be0079c531659141344cd1fd0a4f28419497f9722a3daafe3b4186f6b6457e060405160405180910390a3806000806101000a81548173ffffffffffffffffffffffffffffffffffffffff021916908373ffffffffffffffffffffffffffffffffffffffff16021790555050565b60003390509056fe4f776e61626c653a206e6577206f776e657220697320746865207a65726f20616464726573736e65775374617465436f6d6d6974486173682063616e6e6f74206265207a65726fa2646970667358221220282e7e045ca365a470fc367c655bbfb2e79811ffbefd3b43e27ce1426c6e439664736f6c63430007060033",
  "immutableReferences": {},
  "source": "pragma solidity >=0.6.0 <0.8.0;\n\nimport \"openzeppelin-solidity/contracts/token/ERC20/IERC20.sol\";\nimport \"openzeppelin-solidity/contracts/math/SafeMath.sol\";\nimport \"openzeppelin-solidity/contracts/access/Ownable.sol\";\nimport \"./AssertionRegistry.sol\";\nimport \"./ERC721Registry.sol\";\n\n/*\n\nUAI/UALs essentially are:\n\n- DID/DID URLs native to the OriginTrail DKG\n- uniquely identify physical or digital assets (DID subjects)\n- have one or more \"owners\" (DID controllers)\n\nThe specification for UAI/UALs is currently WIP.\n\n*/\n\ncontract UAIRegistry is Ownable {\n\tusing SafeMath for uint256;\n\n\tIERC20 ERC20Contract;\n\tERC721Registry ERC721RegistryContract;\n\tAssertionRegistry AssertionRegistryContract;\n\n\taddress ERC20Address;\n\taddress ERC721Address;\n\taddress AssertionRegistryAddress;\n\n\tstruct AssetRecord{\n\t\tuint256 creationTimestamp;\n\t\taddress controller;\n\t\tbytes32 stateCommitHash;\n\t}\n\n\tmapping(uint256 => AssetRecord) public assetRecords;\n\tmapping(bytes32 => uint256) public assetStake; \n\n\t// events\n\tevent UAIRegistryInit(address indexed ERC20Address, address indexed ERC721Address, address indexed assertionRegistryAddress);\n\tevent AssetCreated(uint256 indexed UAI, bytes32 indexed stateCommitHash);\n\tevent AssetUpdated(uint256 indexed UAI, bytes32 indexed stateCommitHash );\n\tevent TokensDepositedToAsset(bytes32 indexed UAI, uint256 indexed amount, address indexed depositor);\n\n\tconstructor(address _ERC20Address, address _ERC721Address, address _AssertionRegistryAddress)  public {\n\t\trequire(_ERC20Address!=address(0));\n\t\trequire(_ERC721Address!=address(0));\n\t\trequire(_AssertionRegistryAddress!=address(0));\n\n\t\tERC20Address = _ERC20Address;\n\t\tERC721Address = _ERC721Address;\n\t\tAssertionRegistryAddress = _AssertionRegistryAddress;\n\n\t\tERC20Contract = IERC20(ERC20Address);\n\t\tERC721RegistryContract = ERC721Registry(ERC721Address);\n\t\tAssertionRegistryContract = AssertionRegistry(AssertionRegistryAddress);\n\n\t\temit UAIRegistryInit(ERC20Address, ERC721Address, AssertionRegistryAddress);\n\t}\n\n\tfunction createAsset(uint256 UAI, bytes32 stateCommitHash, uint256 tokenAmount) public returns (uint256) {\n\t//\t\tif (UAI == 0) {\n\t//\t\t\tUAI = uint256(keccak256(abi.encodePacked(block.blockhash, msg.sender)));\n\t//\t\t}\n\n\t\trequire(stateCommitHash != 0, \"stateCommitHash cannot be zero\");\n\t\trequire(ERC721RegistryContract.exists(UAI) == false, \"ERC721 token already exists!\");\n\t\trequire(AssertionRegistryContract.getAssertionCreationTimestamp(stateCommitHash) == 0, \"StateCommitHash already exists!\");\n\t\trequire(assetRecords[UAI].creationTimestamp == 0, \"UAI already exists!\");\n\n\t\t// depositTokens(tokenAmount, UAI); // todo\n\t\tAssertionRegistryContract.createAssertionRecord(stateCommitHash, msg.sender, 1); // todo: update when AssertionRegistry is updated\n\t\tERC721RegistryContract.safeMint(msg.sender, UAI);\n\n\t\tassetRecords[UAI].stateCommitHash = stateCommitHash;\n\t\tassetRecords[UAI].creationTimestamp = block.timestamp;\n\n\t\temit AssetCreated(UAI, stateCommitHash);\n\n\t\treturn UAI;\n\t}\n\n\n\tfunction updateAsset(uint256 UAI, bytes32 newStateCommitHash) public returns (uint256) {\n\t\trequire(UAI != 0, \"UAI cannot be zero\");\n\t\trequire(newStateCommitHash != 0, \"newStateCommitHash cannot be zero\");\n\t\trequire(assetRecords[UAI].creationTimestamp != 0, \"UAI must exist!\");\n\t\trequire(ERC721RegistryContract.exists(UAI) == true, \"ERC721 token must exist!\");\n\t\trequire(AssertionRegistryContract.getAssertionCreationTimestamp(newStateCommitHash) == 0, \"StateCommitHash already exists!\");\n\n\t\trequire(ERC721RegistryContract.ownerOf(UAI) == msg.sender, \"Sender is not owner of the asset\");\n\n\t\tAssertionRegistryContract.createAssertionRecord(newStateCommitHash, msg.sender, 1); // todo: update when AssertionRegistry is updated\n\t\tassetRecords[UAI].stateCommitHash =  newStateCommitHash;\n\t\t// todo: store old commits later\n\n\t\temit AssetUpdated(UAI, newStateCommitHash);\n\n\t\treturn UAI;\n\t}\n\n\t// getters\n\tfunction getAssetStateCommitHash(uint256 UAI) public view returns(bytes32 stateCommitHash){\n\t\treturn assetRecords[UAI].stateCommitHash;\n\t}\n\n\tfunction getAssetOwner(uint256 UAI) public view returns(address owner){\n\t\treturn ERC721RegistryContract.ownerOf(UAI);\n\t}\n\n\tfunction getAssetCreationTimestamp(uint256 UAI) public view returns(uint256 creationTimestamp){\n\t\treturn assetRecords[UAI].creationTimestamp;\n\t}\n\n\tfunction getAssertionRegistryAddress() public view returns(address _AssertionRegistryAddress){\n\t\treturn AssertionRegistryAddress;\n\t}\n\n\tfunction getERC20Address() public view returns(address _ERC20Address){\n\t\treturn ERC20Address;\n\t}\n\n\tfunction getERC721Address() public view returns(address _ERC721Address){\n\t\treturn ERC721Address;\n\t}\n\n\n\t/**\n     * @dev Should determine type of ``contractAddress``, if possible, returning enum AssetType\n     */\n//     function determineType(address contractAddress, bytes32 id) internal returns (uint8){\n//\t\treturn 0; // todo: implement detection of contract type\n//\t}\n\n\n\t/**\n     * @dev Deposits tokens in ``amount`` to specific ``UAI``\n     */\n//     function depositTokens(uint256 amount, bytes32 UAI) public {\n\n//     \trequire(amount>0, \"Amount cannot be zero\");\n//     \trequire(token.allowance(msg.sender, address(this)) >= amount, \"Sender allowance must be equal to or higher than chosen amount\");\n//     \trequire(token.balanceOf(msg.sender) >= amount, \"Sender balance must be equal to or higher than chosen amount!\");\n//\n//     \tbool transaction_result = token.transferFrom(msg.sender, address(this), amount);\n//     \trequire(transaction_result, \"Token transaction execution failed!\");\n//\n//\t\t// if (stake[msg.sender] == 0){\n//\t\t// \tparticipant_indexes[msg.sender] = participants.length;\n//\t\t// \tparticipants.push(msg.sender);\n//\t\t// }\n//\n//\t\tassetStake[UAI] = assetStake[UAI].add(amount);\n//\t\temit TokensDepositedToAsset(UAI, amount,msg.sender);\n\n//\t}\n\n\n}",
  "sourcePath": "/Users/miloskotlar/dkg-onchain-module-v6/contracts/UAIRegistry.sol",
  "compiler": {
    "name": "solc",
    "version": "0.7.6+commit.7338295f.Emscripten.clang"
  },
  "schemaVersion": "3.4.3",
  "updatedAt": "2022-04-28T15:58:17.605Z",
  "networkType": "ethereum",
  "devdoc": {
    "kind": "dev",
    "methods": {
      "owner()": {
        "details": "Returns the address of the current owner."
      },
      "renounceOwnership()": {
        "details": "Leaves the contract without owner. It will not be possible to call `onlyOwner` functions anymore. Can only be called by the current owner. NOTE: Renouncing ownership will leave the contract without an owner, thereby removing any functionality that is only available to the owner."
      },
      "transferOwnership(address)": {
        "details": "Transfers ownership of the contract to a new account (`newOwner`). Can only be called by the current owner."
      }
    },
    "version": 1
  },
  "userdoc": {
    "kind": "user",
    "methods": {},
    "version": 1
  }
}